{
  "_format": "hh-sol-artifact-1",
  "contractName": "Factory",
  "sourceName": "contracts/Factory.sol",
  "abi": [
    {
      "inputs": [
        {
          "internalType": "contract IMarginEngine",
          "name": "_masterMarginEngine",
          "type": "address"
        },
        {
          "internalType": "contract IVAMM",
          "name": "_masterVAMM",
          "type": "address"
        }
      ],
      "stateMutability": "nonpayable",
      "type": "constructor"
    },
    {
      "inputs": [],
      "name": "AavePoolGetReserveNormalizedIncomeReturnedZero",
      "type": "error"
    },
    {
      "inputs": [],
      "name": "AavePoolGetReserveNormalizedVariableDebtReturnedZero",
      "type": "error"
    },
    {
      "inputs": [],
      "name": "AaveV3PoolGetReserveNormalizedIncomeReturnedZero",
      "type": "error"
    },
    {
      "inputs": [],
      "name": "AaveV3PoolGetReserveNormalizedVariableDebtReturnedZero",
      "type": "error"
    },
    {
      "inputs": [],
      "name": "CTokenExchangeRateReturnedZero",
      "type": "error"
    },
    {
      "inputs": [
        {
          "internalType": "bool",
          "name": "unlocked",
          "type": "bool"
        }
      ],
      "name": "CanOnlyTradeIfUnlocked",
      "type": "error"
    },
    {
      "inputs": [],
      "name": "CannotLiquidate",
      "type": "error"
    },
    {
      "inputs": [],
      "name": "CannotSettleBeforeMaturity",
      "type": "error"
    },
    {
      "inputs": [
        {
          "internalType": "uint256",
          "name": "x",
          "type": "uint256"
        },
        {
          "internalType": "uint256",
          "name": "y",
          "type": "uint256"
        }
      ],
      "name": "DebugError",
      "type": "error"
    },
    {
      "inputs": [
        {
          "internalType": "int256",
          "name": "amount0",
          "type": "int256"
        },
        {
          "internalType": "int256",
          "name": "amount1",
          "type": "int256"
        }
      ],
      "name": "ExpectedOppositeSigns",
      "type": "error"
    },
    {
      "inputs": [
        {
          "internalType": "uint160",
          "name": "sqrtPriceX96",
          "type": "uint160"
        }
      ],
      "name": "ExpectedSqrtPriceZeroBeforeInit",
      "type": "error"
    },
    {
      "inputs": [],
      "name": "GlpRewardTrackerUnorderedRate",
      "type": "error"
    },
    {
      "inputs": [],
      "name": "IRSNotionalAmountSpecifiedMustBeNonZero",
      "type": "error"
    },
    {
      "inputs": [],
      "name": "InvalidMarginDelta",
      "type": "error"
    },
    {
      "inputs": [],
      "name": "LidoGetPooledEthBySharesReturnedZero",
      "type": "error"
    },
    {
      "inputs": [
        {
          "internalType": "uint128",
          "name": "amount",
          "type": "uint128"
        }
      ],
      "name": "LiquidityDeltaMustBePositiveInBurn",
      "type": "error"
    },
    {
      "inputs": [
        {
          "internalType": "uint128",
          "name": "amount",
          "type": "uint128"
        }
      ],
      "name": "LiquidityDeltaMustBePositiveInMint",
      "type": "error"
    },
    {
      "inputs": [
        {
          "internalType": "int256",
          "name": "marginRequirement",
          "type": "int256"
        }
      ],
      "name": "MarginLessThanMinimum",
      "type": "error"
    },
    {
      "inputs": [
        {
          "internalType": "int256",
          "name": "marginRequirement",
          "type": "int256"
        },
        {
          "internalType": "int24",
          "name": "tick",
          "type": "int24"
        },
        {
          "internalType": "int256",
          "name": "fixedTokenDelta",
          "type": "int256"
        },
        {
          "internalType": "int256",
          "name": "variableTokenDelta",
          "type": "int256"
        },
        {
          "internalType": "uint256",
          "name": "cumulativeFeeIncurred",
          "type": "uint256"
        },
        {
          "internalType": "int256",
          "name": "fixedTokenDeltaUnbalanced",
          "type": "int256"
        }
      ],
      "name": "MarginRequirementNotMet",
      "type": "error"
    },
    {
      "inputs": [
        {
          "internalType": "int256",
          "name": "marginRequirement",
          "type": "int256"
        }
      ],
      "name": "MarginRequirementNotMetFCM",
      "type": "error"
    },
    {
      "inputs": [
        {
          "internalType": "uint256",
          "name": "requested",
          "type": "uint256"
        },
        {
          "internalType": "uint256",
          "name": "available",
          "type": "uint256"
        }
      ],
      "name": "NotEnoughFunds",
      "type": "error"
    },
    {
      "inputs": [],
      "name": "OOO",
      "type": "error"
    },
    {
      "inputs": [],
      "name": "OnlyFCM",
      "type": "error"
    },
    {
      "inputs": [],
      "name": "OnlyMarginEngine",
      "type": "error"
    },
    {
      "inputs": [],
      "name": "OnlyOwnerCanUpdatePosition",
      "type": "error"
    },
    {
      "inputs": [],
      "name": "OnlyVAMM",
      "type": "error"
    },
    {
      "inputs": [],
      "name": "PositionNetZero",
      "type": "error"
    },
    {
      "inputs": [],
      "name": "PositionNotSettled",
      "type": "error"
    },
    {
      "inputs": [],
      "name": "RocketPoolGetEthValueReturnedZero",
      "type": "error"
    },
    {
      "inputs": [],
      "name": "WithdrawalExceedsCurrentMargin",
      "type": "error"
    },
    {
      "inputs": [],
      "name": "closeToOrBeyondMaturity",
      "type": "error"
    },
    {
      "anonymous": false,
      "inputs": [
        {
          "indexed": true,
          "internalType": "address",
          "name": "owner",
          "type": "address"
        },
        {
          "indexed": true,
          "internalType": "address",
          "name": "intAddress",
          "type": "address"
        },
        {
          "indexed": true,
          "internalType": "bool",
          "name": "isApproved",
          "type": "bool"
        }
      ],
      "name": "Approval",
      "type": "event"
    },
    {
      "anonymous": false,
      "inputs": [
        {
          "indexed": true,
          "internalType": "contract IERC20Minimal",
          "name": "underlyingToken",
          "type": "address"
        },
        {
          "indexed": true,
          "internalType": "contract IRateOracle",
          "name": "rateOracle",
          "type": "address"
        },
        {
          "indexed": false,
          "internalType": "uint256",
          "name": "termStartTimestampWad",
          "type": "uint256"
        },
        {
          "indexed": false,
          "internalType": "uint256",
          "name": "termEndTimestampWad",
          "type": "uint256"
        },
        {
          "indexed": false,
          "internalType": "int24",
          "name": "tickSpacing",
          "type": "int24"
        },
        {
          "indexed": false,
          "internalType": "contract IMarginEngine",
          "name": "marginEngine",
          "type": "address"
        },
        {
          "indexed": false,
          "internalType": "contract IVAMM",
          "name": "vamm",
          "type": "address"
        },
        {
          "indexed": false,
          "internalType": "contract IFCM",
          "name": "fcm",
          "type": "address"
        },
        {
          "indexed": false,
          "internalType": "uint8",
          "name": "yieldBearingProtocolID",
          "type": "uint8"
        },
        {
          "indexed": false,
          "internalType": "uint8",
          "name": "underlyingTokenDecimals",
          "type": "uint8"
        }
      ],
      "name": "IrsInstance",
      "type": "event"
    },
    {
      "anonymous": false,
      "inputs": [
        {
          "indexed": false,
          "internalType": "contract IFCM",
          "name": "masterFCMAddress",
          "type": "address"
        },
        {
          "indexed": false,
          "internalType": "uint8",
          "name": "yieldBearingProtocolID",
          "type": "uint8"
        }
      ],
      "name": "MasterFCM",
      "type": "event"
    },
    {
      "anonymous": false,
      "inputs": [
        {
          "indexed": true,
          "internalType": "address",
          "name": "previousOwner",
          "type": "address"
        },
        {
          "indexed": true,
          "internalType": "address",
          "name": "newOwner",
          "type": "address"
        }
      ],
      "name": "OwnershipTransferred",
      "type": "event"
    },
    {
      "anonymous": false,
      "inputs": [
        {
          "indexed": false,
          "internalType": "contract IPeriphery",
          "name": "periphery",
          "type": "address"
        }
      ],
      "name": "PeripheryUpdate",
      "type": "event"
    },
    {
      "inputs": [
        {
          "internalType": "contract IERC20Minimal",
          "name": "_underlyingToken",
          "type": "address"
        },
        {
          "internalType": "contract IRateOracle",
          "name": "_rateOracle",
          "type": "address"
        },
        {
          "internalType": "uint256",
          "name": "_termStartTimestampWad",
          "type": "uint256"
        },
        {
          "internalType": "uint256",
          "name": "_termEndTimestampWad",
          "type": "uint256"
        },
        {
          "internalType": "int24",
          "name": "_tickSpacing",
          "type": "int24"
        }
      ],
      "name": "deployIrsInstance",
      "outputs": [
        {
          "internalType": "contract IMarginEngine",
          "name": "marginEngineProxy",
          "type": "address"
        },
        {
          "internalType": "contract IVAMM",
          "name": "vammProxy",
          "type": "address"
        },
        {
          "internalType": "contract IFCM",
          "name": "fcmProxy",
          "type": "address"
        }
      ],
      "stateMutability": "nonpayable",
      "type": "function"
    },
    {
      "inputs": [
        {
          "internalType": "address",
          "name": "_owner",
          "type": "address"
        },
        {
          "internalType": "address",
          "name": "_intAddress",
          "type": "address"
        }
      ],
      "name": "isApproved",
      "outputs": [
        {
          "internalType": "bool",
          "name": "",
          "type": "bool"
        }
      ],
      "stateMutability": "view",
      "type": "function"
    },
    {
      "inputs": [
        {
          "internalType": "uint8",
          "name": "",
          "type": "uint8"
        }
      ],
      "name": "masterFCMs",
      "outputs": [
        {
          "internalType": "contract IFCM",
          "name": "",
          "type": "address"
        }
      ],
      "stateMutability": "view",
      "type": "function"
    },
    {
      "inputs": [],
      "name": "masterMarginEngine",
      "outputs": [
        {
          "internalType": "contract IMarginEngine",
          "name": "",
          "type": "address"
        }
      ],
      "stateMutability": "view",
      "type": "function"
    },
    {
      "inputs": [],
      "name": "masterVAMM",
      "outputs": [
        {
          "internalType": "contract IVAMM",
          "name": "",
          "type": "address"
        }
      ],
      "stateMutability": "view",
      "type": "function"
    },
    {
      "inputs": [],
      "name": "owner",
      "outputs": [
        {
          "internalType": "address",
          "name": "",
          "type": "address"
        }
      ],
      "stateMutability": "view",
      "type": "function"
    },
    {
      "inputs": [],
      "name": "periphery",
      "outputs": [
        {
          "internalType": "contract IPeriphery",
          "name": "",
          "type": "address"
        }
      ],
      "stateMutability": "view",
      "type": "function"
    },
    {
      "inputs": [],
      "name": "renounceOwnership",
      "outputs": [],
      "stateMutability": "nonpayable",
      "type": "function"
    },
    {
      "inputs": [
        {
          "internalType": "address",
          "name": "intAddress",
          "type": "address"
        },
        {
          "internalType": "bool",
          "name": "allowIntegration",
          "type": "bool"
        }
      ],
      "name": "setApproval",
      "outputs": [],
      "stateMutability": "nonpayable",
      "type": "function"
    },
    {
      "inputs": [
        {
          "internalType": "contract IFCM",
          "name": "_masterFCM",
          "type": "address"
        },
        {
          "internalType": "uint8",
          "name": "_yieldBearingProtocolID",
          "type": "uint8"
        }
      ],
      "name": "setMasterFCM",
      "outputs": [],
      "stateMutability": "nonpayable",
      "type": "function"
    },
    {
      "inputs": [
        {
          "internalType": "contract IMarginEngine",
          "name": "_masterMarginEngine",
          "type": "address"
        }
      ],
      "name": "setMasterMarginEngine",
      "outputs": [],
      "stateMutability": "nonpayable",
      "type": "function"
    },
    {
      "inputs": [
        {
          "internalType": "contract IVAMM",
          "name": "_masterVAMM",
          "type": "address"
        }
      ],
      "name": "setMasterVAMM",
      "outputs": [],
      "stateMutability": "nonpayable",
      "type": "function"
    },
    {
      "inputs": [
        {
          "internalType": "contract IPeriphery",
          "name": "_periphery",
          "type": "address"
        }
      ],
      "name": "setPeriphery",
      "outputs": [],
      "stateMutability": "nonpayable",
      "type": "function"
    },
    {
      "inputs": [
        {
          "internalType": "address",
          "name": "newOwner",
          "type": "address"
        }
      ],
      "name": "transferOwnership",
      "outputs": [],
      "stateMutability": "nonpayable",
      "type": "function"
    }
  ],
  "bytecode": "0x60806040523480156200001157600080fd5b50604051620019993803806200199983398101604081905262000034916200018e565b6200003f3362000125565b6001600160a01b0382166200009b5760405162461bcd60e51b815260206004820152601460248201527f6d6173746572206d65206d75737420657869737400000000000000000000000060448201526064015b60405180910390fd5b6001600160a01b038116620000f35760405162461bcd60e51b815260206004820152601660248201527f6d61737465722076616d6d206d75737420657869737400000000000000000000604482015260640162000092565b600180546001600160a01b039384166001600160a01b03199182161790915560028054929093169116179055620001cd565b600080546001600160a01b038381166001600160a01b0319831681178455604051919092169283917f8be0079c531659141344cd1fd0a4f28419497f9722a3daafe3b4186f6b6457e09190a35050565b6001600160a01b03811681146200018b57600080fd5b50565b60008060408385031215620001a257600080fd5b8251620001af8162000175565b6020840151909250620001c28162000175565b809150509250929050565b6117bc80620001dd6000396000f3fe60806040523480156200001157600080fd5b5060043610620000ca5760003560e01c80630e8a064814620000cf578063715018a6146200011557806377aace1a14620001215780638da5cb5b146200014457806394a9b1f7146200014e57806395858f981462000165578063973cd931146200017c5780639fe1b3541462000193578063a389783e14620001a7578063aeb2293414620001cf578063ca5183b714620001e6578063db9b71701462000212578063f2fde38b1462000229578063febfe75e1462000240575b600080fd5b620000e6620000e036600462000e81565b62000254565b604080516001600160a01b03948516815292841660208401529216918101919091526060015b60405180910390f35b6200011f6200090a565b005b60055462000135906001600160a01b031681565b6040516200010c919062000eed565b6200013562000922565b6200011f6200015f36600462000f01565b62000931565b6200011f6200017636600462000f38565b620009c1565b6200011f6200018d36600462000f01565b62000a88565b60015462000135906001600160a01b031681565b620001be620001b836600462000f76565b62000b17565b60405190151581526020016200010c565b6200011f620001e036600462000f01565b62000c06565b62000135620001f736600462000fa9565b6003602052600090815260409020546001600160a01b031681565b6200011f6200022336600462000fc9565b62000cce565b6200011f6200023a36600462000f01565b62000d2e565b60025462000135906001600160a01b031681565b60008060006200026362000daa565b6001546040516000916001600160a01b031690620002819062000e5d565b6200028d919062001000565b604051809103906000f080158015620002aa573d6000803e3d6000fd5b506002546040519192506000916001600160a01b0390911690620002ce9062000e5d565b620002da919062001000565b604051809103906000f080158015620002f7573d6000803e3d6000fd5b5060405163eb990c5960e01b81526001600160a01b038c811660048301528b81166024830152604482018b9052606482018a90529192509083169063eb990c5990608401600060405180830381600087803b1580156200035657600080fd5b505af11580156200036b573d6000803e3d6000fd5b5050604051631b325b2160e31b81526001600160a01b03858116600483015260028a900b60248301528416925063d992d9089150604401600060405180830381600087803b158015620003bd57600080fd5b505af1158015620003d2573d6000803e3d6000fd5b50506040516331d81ea760e21b81526001600160a01b038516925063c7607a9c91506200040490849060040162000eed565b600060405180830381600087803b1580156200041f57600080fd5b505af115801562000434573d6000803e3d6000fd5b5050505060008990508a6001600160a01b0316816001600160a01b0316636f307dc36040518163ffffffff1660e01b815260040160206040518083038186803b1580156200048157600080fd5b505afa15801562000496573d6000803e3d6000fd5b505050506040513d601f19601f82011682018060405250810190620004bc919062001023565b6001600160a01b0316146200050e5760405162461bcd60e51b81526020600482015260136024820152720a8ded6cadce640c8de40dcdee840dac2e8c6d606b1b60448201526064015b60405180910390fd5b6000816001600160a01b03166322ff65686040518163ffffffff1660e01b815260040160206040518083038186803b1580156200054a57600080fd5b505afa1580156200055f573d6000803e3d6000fd5b505050506040513d601f19601f8201168201806040525081019062000585919062001043565b60ff81166000908152600360205260408120549192506001600160a01b03909116908115620007155781604051620005bd9062000e5d565b620005c9919062001000565b604051809103906000f080158015620005e6573d6000803e3d6000fd5b5060405163485cc95560e01b81526001600160a01b03878116600483015288811660248301529192509082169063485cc95590604401600060405180830381600087803b1580156200063757600080fd5b505af11580156200064c573d6000803e3d6000fd5b505060405163534d337560e01b81526001600160a01b038916925063534d337591506200067e90849060040162000eed565b600060405180830381600087803b1580156200069957600080fd5b505af1158015620006ae573d6000803e3d6000fd5b505060405163f2fde38b60e01b81526001600160a01b038416925063f2fde38b9150620006e090339060040162000eed565b600060405180830381600087803b158015620006fb57600080fd5b505af115801562000710573d6000803e3d6000fd5b505050505b60008e6001600160a01b031663313ce5676040518163ffffffff1660e01b815260040160206040518083038186803b1580156200075157600080fd5b505afa15801562000766573d6000803e3d6000fd5b505050506040513d601f19601f820116820180604052508101906200078c919062001043565b90508d6001600160a01b03168f6001600160a01b03167fe134804702afa0f02bd7f0687d4c2f662a1790b4904d1c2cd6f41fcffbfc05c38f8f8f8c8c898c8a60405162000826989796959493929190978852602088019690965260029490940b60408701526001600160a01b03928316606087015290821660808601521660a084015260ff90811660c08401521660e08201526101000190565b60405180910390a360405163f2fde38b60e01b81526001600160a01b0387169063f2fde38b906200085c90339060040162000eed565b600060405180830381600087803b1580156200087757600080fd5b505af11580156200088c573d6000803e3d6000fd5b505060405163f2fde38b60e01b81526001600160a01b038a16925063f2fde38b9150620008be90339060040162000eed565b600060405180830381600087803b158015620008d957600080fd5b505af1158015620008ee573d6000803e3d6000fd5b50989b5096995091975050505050505050955095509592505050565b6200091462000daa565b62000920600062000e0d565b565b6000546001600160a01b031690565b6200093b62000daa565b6001600160a01b0381166200098c5760405162461bcd60e51b81526020600482015260166024820152751b585cdd195c881d985b5b481b5d5cdd08195e1a5cdd60521b604482015260640162000505565b6002546001600160a01b03828116911614620009be57600280546001600160a01b0319166001600160a01b0383161790555b50565b620009cb62000daa565b6001600160a01b03821662000a1b5760405162461bcd60e51b81526020600482015260156024820152741b585cdd195c881998db481b5d5cdd08195e1a5cdd605a1b604482015260640162000505565b60ff811660008181526003602090815260409182902080546001600160a01b0319166001600160a01b0387169081179091558251908152908101929092527fcece9976caa53e350e3311c87df72b4ed94d768ba03a4688cdf331121bf613c2910160405180910390a15050565b62000a9262000daa565b6001600160a01b03811662000ae15760405162461bcd60e51b81526020600482015260146024820152731b585cdd195c881b59481b5d5cdd08195e1a5cdd60621b604482015260640162000505565b6001546001600160a01b03828116911614620009be57600180546001600160a01b0383166001600160a01b031990911617905550565b60006001600160a01b03831662000b685760405162461bcd60e51b81526020600482015260146024820152731bdddb995c88191bd95cc81b9bdd08195e1a5cdd60621b604482015260640162000505565b6001600160a01b03821662000bb55760405162461bcd60e51b81526020600482015260126024820152711a5b9d08191bd95cc81b9bdd08195e1a5cdd60721b604482015260640162000505565b6005546001600160a01b038381169116141562000bd55750600162000c00565b506001600160a01b0380831660009081526004602090815260408083209385168352929052205460ff165b92915050565b62000c1062000daa565b6001600160a01b03811662000c5f5760405162461bcd60e51b81526020600482015260146024820152731c195c9a5c1a195c9e481b5d5cdd08195e1a5cdd60621b604482015260640162000505565b6005546001600160a01b03828116911614620009be57600580546001600160a01b0319166001600160a01b0383169081179091556040517f9d41c928e1b7d55eb20c9906b2cc3223035dd4dc2c59e5fcd2282e857db1b0509162000cc39162000eed565b60405180910390a150565b3360008181526004602090815260408083206001600160a01b0387168085529252808320805460ff19168615159081179091559051909391927f1d3e246ebbc933bf65d3290db9f93d67ab91a12d2b19308a35806e04d1c174c591a45050565b62000d3862000daa565b6001600160a01b03811662000d9f5760405162461bcd60e51b815260206004820152602660248201527f4f776e61626c653a206e6577206f776e657220697320746865207a65726f206160448201526564647265737360d01b606482015260840162000505565b620009be8162000e0d565b3362000db562000922565b6001600160a01b031614620009205760405162461bcd60e51b815260206004820181905260248201527f4f776e61626c653a2063616c6c6572206973206e6f7420746865206f776e6572604482015260640162000505565b600080546001600160a01b038381166001600160a01b0319831681178455604051919092169283917f8be0079c531659141344cd1fd0a4f28419497f9722a3daafe3b4186f6b6457e09190a35050565b610723806200106483390190565b6001600160a01b0381168114620009be57600080fd5b600080600080600060a0868803121562000e9a57600080fd5b853562000ea78162000e6b565b9450602086013562000eb98162000e6b565b935060408601359250606086013591506080860135600281900b811462000edf57600080fd5b809150509295509295909350565b6001600160a01b0391909116815260200190565b60006020828403121562000f1457600080fd5b813562000f218162000e6b565b9392505050565b60ff81168114620009be57600080fd5b6000806040838503121562000f4c57600080fd5b823562000f598162000e6b565b9150602083013562000f6b8162000f28565b809150509250929050565b6000806040838503121562000f8a57600080fd5b823562000f978162000e6b565b9150602083013562000f6b8162000e6b565b60006020828403121562000fbc57600080fd5b813562000f218162000f28565b6000806040838503121562000fdd57600080fd5b823562000fea8162000e6b565b91506020830135801515811462000f6b57600080fd5b6001600160a01b0391909116815260406020820181905260009082015260600190565b6000602082840312156200103657600080fd5b815162000f218162000e6b565b6000602082840312156200105657600080fd5b815162000f218162000f2856fe608060405260405161072338038061072383398101604081905261002291610318565b818161003082826000610039565b50505050610435565b6100428361006f565b60008251118061004f5750805b1561006a5761006883836100af60201b6100291760201c565b505b505050565b610078816100db565b6040516001600160a01b038216907fbc7cd75a20ee27fd9adebab32041f755214dbc6bffa90cc0225b39da2e5c2d3b90600090a250565b60606100d483836040518060600160405280602781526020016106fc602791396101ad565b9392505050565b6100ee8161028b60201b6100551760201c565b6101555760405162461bcd60e51b815260206004820152602d60248201527f455243313936373a206e657720696d706c656d656e746174696f6e206973206e60448201526c1bdd08184818dbdb9d1c9858dd609a1b60648201526084015b60405180910390fd5b8061018c7f360894a13ba1a3210667c828492db98dca3e2076cc3735a920a3ca505d382bbc60001b61029a60201b6100641760201c565b80546001600160a01b0319166001600160a01b039290921691909117905550565b60606001600160a01b0384163b6102155760405162461bcd60e51b815260206004820152602660248201527f416464726573733a2064656c65676174652063616c6c20746f206e6f6e2d636f6044820152651b9d1c9858dd60d21b606482015260840161014c565b600080856001600160a01b03168560405161023091906103e6565b600060405180830381855af49150503d806000811461026b576040519150601f19603f3d011682016040523d82523d6000602084013e610270565b606091505b50909250905061028182828661029d565b9695505050505050565b6001600160a01b03163b151590565b90565b606083156102ac5750816100d4565b8251156102bc5782518084602001fd5b8160405162461bcd60e51b815260040161014c9190610402565b634e487b7160e01b600052604160045260246000fd5b60005b838110156103075781810151838201526020016102ef565b838111156100685750506000910152565b6000806040838503121561032b57600080fd5b82516001600160a01b038116811461034257600080fd5b60208401519092506001600160401b038082111561035f57600080fd5b818501915085601f83011261037357600080fd5b815181811115610385576103856102d6565b604051601f8201601f19908116603f011681019083821181831017156103ad576103ad6102d6565b816040528281528860208487010111156103c657600080fd5b6103d78360208301602088016102ec565b80955050505050509250929050565b600082516103f88184602087016102ec565b9190910192915050565b60208152600082518060208401526104218160408501602087016102ec565b601f01601f19169190910160400192915050565b6102b8806104446000396000f3fe60806040523661001357610011610017565b005b6100115b610027610022610067565b61009f565b565b606061004e838360405180606001604052806027815260200161025c602791396100c3565b9392505050565b6001600160a01b03163b151590565b90565b600061009a7f360894a13ba1a3210667c828492db98dca3e2076cc3735a920a3ca505d382bbc546001600160a01b031690565b905090565b3660008037600080366000845af43d6000803e8080156100be573d6000f35b3d6000fd5b60606100ce84610055565b61012e5760405162461bcd60e51b815260206004820152602660248201527f416464726573733a2064656c65676174652063616c6c20746f206e6f6e2d636f6044820152651b9d1c9858dd60d21b60648201526084015b60405180910390fd5b600080856001600160a01b031685604051610149919061020c565b600060405180830381855af49150503d8060008114610184576040519150601f19603f3d011682016040523d82523d6000602084013e610189565b606091505b50915091506101998282866101a3565b9695505050505050565b606083156101b257508161004e565b8251156101c25782518084602001fd5b8160405162461bcd60e51b81526004016101259190610228565b60005b838110156101f75781810151838201526020016101df565b83811115610206576000848401525b50505050565b6000825161021e8184602087016101dc565b9190910192915050565b60208152600082518060208401526102478160408501602087016101dc565b601f01601f1916919091016040019291505056fe416464726573733a206c6f772d6c6576656c2064656c65676174652063616c6c206661696c6564a26469706673582212201a337dfb9c8e982e8790a7e87d8b69d28103f114ca1fe05ff528009dd003a47664736f6c63430008090033416464726573733a206c6f772d6c6576656c2064656c65676174652063616c6c206661696c6564a26469706673582212208cc8529d7947d2d650712c4c008229df3a411a1ef9b29c9e9e9c4e61f94a04e564736f6c63430008090033",
  "linkReferences": {},
  "deployedLinkReferences": {}
}