{
  "address": "0xD455Eae775Ca6C876004DfcA0472DfCe51d9ABdD",
  "abi": [
    {
      "inputs": [],
      "stateMutability": "nonpayable",
      "type": "constructor"
    },
    {
      "inputs": [],
      "name": "AavePoolGetReserveNormalizedIncomeReturnedZero",
      "type": "error"
    },
    {
      "inputs": [],
      "name": "CTokenExchangeRateReturnedZero",
      "type": "error"
    },
    {
      "inputs": [
        {
          "internalType": "bool",
          "name": "unlocked",
          "type": "bool"
        }
      ],
      "name": "CanOnlyTradeIfUnlocked",
      "type": "error"
    },
    {
      "inputs": [],
      "name": "CannotLiquidate",
      "type": "error"
    },
    {
      "inputs": [],
      "name": "CannotSettleBeforeMaturity",
      "type": "error"
    },
    {
      "inputs": [
        {
          "internalType": "uint256",
          "name": "x",
          "type": "uint256"
        },
        {
          "internalType": "uint256",
          "name": "y",
          "type": "uint256"
        }
      ],
      "name": "DebugError",
      "type": "error"
    },
    {
      "inputs": [
        {
          "internalType": "int256",
          "name": "amount0",
          "type": "int256"
        },
        {
          "internalType": "int256",
          "name": "amount1",
          "type": "int256"
        }
      ],
      "name": "ExpectedOppositeSigns",
      "type": "error"
    },
    {
      "inputs": [
        {
          "internalType": "uint160",
          "name": "sqrtPriceX96",
          "type": "uint160"
        }
      ],
      "name": "ExpectedSqrtPriceZeroBeforeInit",
      "type": "error"
    },
    {
      "inputs": [],
      "name": "IRSNotionalAmountSpecifiedMustBeNonZero",
      "type": "error"
    },
    {
      "inputs": [],
      "name": "InvalidMarginDelta",
      "type": "error"
    },
    {
      "inputs": [],
      "name": "LidoGetPooledEthBySharesReturnedZero",
      "type": "error"
    },
    {
      "inputs": [
        {
          "internalType": "uint128",
          "name": "amount",
          "type": "uint128"
        }
      ],
      "name": "LiquidityDeltaMustBePositiveInBurn",
      "type": "error"
    },
    {
      "inputs": [
        {
          "internalType": "uint128",
          "name": "amount",
          "type": "uint128"
        }
      ],
      "name": "LiquidityDeltaMustBePositiveInMint",
      "type": "error"
    },
    {
      "inputs": [
        {
          "internalType": "int256",
          "name": "marginRequirement",
          "type": "int256"
        }
      ],
      "name": "MarginLessThanMinimum",
      "type": "error"
    },
    {
      "inputs": [
        {
          "internalType": "int256",
          "name": "marginRequirement",
          "type": "int256"
        },
        {
          "internalType": "int24",
          "name": "tick",
          "type": "int24"
        },
        {
          "internalType": "int256",
          "name": "fixedTokenDelta",
          "type": "int256"
        },
        {
          "internalType": "int256",
          "name": "variableTokenDelta",
          "type": "int256"
        },
        {
          "internalType": "uint256",
          "name": "cumulativeFeeIncurred",
          "type": "uint256"
        },
        {
          "internalType": "int256",
          "name": "fixedTokenDeltaUnbalanced",
          "type": "int256"
        }
      ],
      "name": "MarginRequirementNotMet",
      "type": "error"
    },
    {
      "inputs": [
        {
          "internalType": "int256",
          "name": "marginRequirement",
          "type": "int256"
        }
      ],
      "name": "MarginRequirementNotMetFCM",
      "type": "error"
    },
    {
      "inputs": [
        {
          "internalType": "uint256",
          "name": "requested",
          "type": "uint256"
        },
        {
          "internalType": "uint256",
          "name": "available",
          "type": "uint256"
        }
      ],
      "name": "NotEnoughFunds",
      "type": "error"
    },
    {
      "inputs": [],
      "name": "OOO",
      "type": "error"
    },
    {
      "inputs": [],
      "name": "OnlyFCM",
      "type": "error"
    },
    {
      "inputs": [],
      "name": "OnlyMarginEngine",
      "type": "error"
    },
    {
      "inputs": [],
      "name": "OnlyOwnerCanUpdatePosition",
      "type": "error"
    },
    {
      "inputs": [],
      "name": "OnlyVAMM",
      "type": "error"
    },
    {
      "inputs": [],
      "name": "PositionNetZero",
      "type": "error"
    },
    {
      "inputs": [],
      "name": "PositionNotSettled",
      "type": "error"
    },
    {
      "inputs": [],
      "name": "RocketPoolGetEthValueReturnedZero",
      "type": "error"
    },
    {
      "inputs": [],
      "name": "WithdrawalExceedsCurrentMargin",
      "type": "error"
    },
    {
      "inputs": [],
      "name": "closeToOrBeyondMaturity",
      "type": "error"
    },
    {
      "anonymous": false,
      "inputs": [
        {
          "indexed": false,
          "internalType": "address",
          "name": "previousAdmin",
          "type": "address"
        },
        {
          "indexed": false,
          "internalType": "address",
          "name": "newAdmin",
          "type": "address"
        }
      ],
      "name": "AdminChanged",
      "type": "event"
    },
    {
      "anonymous": false,
      "inputs": [
        {
          "indexed": true,
          "internalType": "address",
          "name": "beacon",
          "type": "address"
        }
      ],
      "name": "BeaconUpgraded",
      "type": "event"
    },
    {
      "anonymous": false,
      "inputs": [
        {
          "indexed": false,
          "internalType": "uint8",
          "name": "version",
          "type": "uint8"
        }
      ],
      "name": "Initialized",
      "type": "event"
    },
    {
      "anonymous": false,
      "inputs": [
        {
          "indexed": false,
          "internalType": "contract IVAMM",
          "name": "vamm",
          "type": "address"
        },
        {
          "indexed": false,
          "internalType": "int256",
          "name": "lpMarginCapNew",
          "type": "int256"
        }
      ],
      "name": "MarginCap",
      "type": "event"
    },
    {
      "anonymous": false,
      "inputs": [
        {
          "indexed": true,
          "internalType": "address",
          "name": "previousOwner",
          "type": "address"
        },
        {
          "indexed": true,
          "internalType": "address",
          "name": "newOwner",
          "type": "address"
        }
      ],
      "name": "OwnershipTransferred",
      "type": "event"
    },
    {
      "anonymous": false,
      "inputs": [
        {
          "indexed": true,
          "internalType": "address",
          "name": "implementation",
          "type": "address"
        }
      ],
      "name": "Upgraded",
      "type": "event"
    },
    {
      "inputs": [
        {
          "internalType": "contract IMarginEngine",
          "name": "marginEngine",
          "type": "address"
        }
      ],
      "name": "getCurrentTick",
      "outputs": [
        {
          "internalType": "int24",
          "name": "currentTick",
          "type": "int24"
        }
      ],
      "stateMutability": "view",
      "type": "function"
    },
    {
      "inputs": [
        {
          "internalType": "uint160",
          "name": "sqrtRatioAX96",
          "type": "uint160"
        },
        {
          "internalType": "uint160",
          "name": "sqrtRatioBX96",
          "type": "uint160"
        },
        {
          "internalType": "uint256",
          "name": "notionalAmount",
          "type": "uint256"
        }
      ],
      "name": "getLiquidityForNotional",
      "outputs": [
        {
          "internalType": "uint128",
          "name": "liquidity",
          "type": "uint128"
        }
      ],
      "stateMutability": "pure",
      "type": "function"
    },
    {
      "inputs": [
        {
          "internalType": "contract IWETH",
          "name": "weth_",
          "type": "address"
        }
      ],
      "name": "initialize",
      "outputs": [],
      "stateMutability": "nonpayable",
      "type": "function"
    },
    {
      "inputs": [
        {
          "internalType": "contract IVAMM",
          "name": "vamm",
          "type": "address"
        }
      ],
      "name": "lpMarginCaps",
      "outputs": [
        {
          "internalType": "int256",
          "name": "",
          "type": "int256"
        }
      ],
      "stateMutability": "view",
      "type": "function"
    },
    {
      "inputs": [
        {
          "internalType": "contract IVAMM",
          "name": "vamm",
          "type": "address"
        }
      ],
      "name": "lpMarginCumulatives",
      "outputs": [
        {
          "internalType": "int256",
          "name": "",
          "type": "int256"
        }
      ],
      "stateMutability": "view",
      "type": "function"
    },
    {
      "inputs": [
        {
          "components": [
            {
              "internalType": "contract IMarginEngine",
              "name": "marginEngine",
              "type": "address"
            },
            {
              "internalType": "int24",
              "name": "tickLower",
              "type": "int24"
            },
            {
              "internalType": "int24",
              "name": "tickUpper",
              "type": "int24"
            },
            {
              "internalType": "uint256",
              "name": "notional",
              "type": "uint256"
            },
            {
              "internalType": "bool",
              "name": "isMint",
              "type": "bool"
            },
            {
              "internalType": "int256",
              "name": "marginDelta",
              "type": "int256"
            }
          ],
          "internalType": "struct IPeriphery.MintOrBurnParams",
          "name": "params",
          "type": "tuple"
        }
      ],
      "name": "mintOrBurn",
      "outputs": [
        {
          "internalType": "int256",
          "name": "positionMarginRequirement",
          "type": "int256"
        }
      ],
      "stateMutability": "payable",
      "type": "function"
    },
    {
      "inputs": [],
      "name": "owner",
      "outputs": [
        {
          "internalType": "address",
          "name": "",
          "type": "address"
        }
      ],
      "stateMutability": "view",
      "type": "function"
    },
    {
      "inputs": [],
      "name": "proxiableUUID",
      "outputs": [
        {
          "internalType": "bytes32",
          "name": "",
          "type": "bytes32"
        }
      ],
      "stateMutability": "view",
      "type": "function"
    },
    {
      "inputs": [],
      "name": "renounceOwnership",
      "outputs": [],
      "stateMutability": "nonpayable",
      "type": "function"
    },
    {
      "inputs": [
        {
          "internalType": "contract IMarginEngine",
          "name": "marginEngine",
          "type": "address"
        },
        {
          "internalType": "address",
          "name": "owner",
          "type": "address"
        },
        {
          "internalType": "int24",
          "name": "tickLower",
          "type": "int24"
        },
        {
          "internalType": "int24",
          "name": "tickUpper",
          "type": "int24"
        },
        {
          "components": [
            {
              "internalType": "contract IMarginEngine",
              "name": "marginEngine",
              "type": "address"
            },
            {
              "internalType": "int24",
              "name": "tickLower",
              "type": "int24"
            },
            {
              "internalType": "int24",
              "name": "tickUpper",
              "type": "int24"
            },
            {
              "internalType": "uint256",
              "name": "notional",
              "type": "uint256"
            },
            {
              "internalType": "bool",
              "name": "isMint",
              "type": "bool"
            },
            {
              "internalType": "int256",
              "name": "marginDelta",
              "type": "int256"
            }
          ],
          "internalType": "struct IPeriphery.MintOrBurnParams",
          "name": "paramsNewPosition",
          "type": "tuple"
        }
      ],
      "name": "rolloverWithMint",
      "outputs": [
        {
          "internalType": "int256",
          "name": "newPositionMarginRequirement",
          "type": "int256"
        }
      ],
      "stateMutability": "payable",
      "type": "function"
    },
    {
      "inputs": [
        {
          "internalType": "contract IMarginEngine",
          "name": "marginEngine",
          "type": "address"
        },
        {
          "internalType": "address",
          "name": "owner",
          "type": "address"
        },
        {
          "internalType": "int24",
          "name": "tickLower",
          "type": "int24"
        },
        {
          "internalType": "int24",
          "name": "tickUpper",
          "type": "int24"
        },
        {
          "components": [
            {
              "internalType": "contract IMarginEngine",
              "name": "marginEngine",
              "type": "address"
            },
            {
              "internalType": "bool",
              "name": "isFT",
              "type": "bool"
            },
            {
              "internalType": "uint256",
              "name": "notional",
              "type": "uint256"
            },
            {
              "internalType": "uint160",
              "name": "sqrtPriceLimitX96",
              "type": "uint160"
            },
            {
              "internalType": "int24",
              "name": "tickLower",
              "type": "int24"
            },
            {
              "internalType": "int24",
              "name": "tickUpper",
              "type": "int24"
            },
            {
              "internalType": "uint256",
              "name": "marginDelta",
              "type": "uint256"
            }
          ],
          "internalType": "struct IPeriphery.SwapPeripheryParams",
          "name": "paramsNewPosition",
          "type": "tuple"
        }
      ],
      "name": "rolloverWithSwap",
      "outputs": [
        {
          "internalType": "int256",
          "name": "_fixedTokenDelta",
          "type": "int256"
        },
        {
          "internalType": "int256",
          "name": "_variableTokenDelta",
          "type": "int256"
        },
        {
          "internalType": "uint256",
          "name": "_cumulativeFeeIncurred",
          "type": "uint256"
        },
        {
          "internalType": "int256",
          "name": "_fixedTokenDeltaUnbalanced",
          "type": "int256"
        },
        {
          "internalType": "int256",
          "name": "_marginRequirement",
          "type": "int256"
        },
        {
          "internalType": "int24",
          "name": "_tickAfter",
          "type": "int24"
        }
      ],
      "stateMutability": "payable",
      "type": "function"
    },
    {
      "inputs": [
        {
          "internalType": "contract IVAMM",
          "name": "vamm",
          "type": "address"
        },
        {
          "internalType": "int256",
          "name": "lpMarginCapNew",
          "type": "int256"
        }
      ],
      "name": "setLPMarginCap",
      "outputs": [],
      "stateMutability": "nonpayable",
      "type": "function"
    },
    {
      "inputs": [
        {
          "internalType": "contract IVAMM",
          "name": "vamm",
          "type": "address"
        },
        {
          "internalType": "int256",
          "name": "lpMarginCumulative",
          "type": "int256"
        }
      ],
      "name": "setLPMarginCumulative",
      "outputs": [],
      "stateMutability": "nonpayable",
      "type": "function"
    },
    {
      "inputs": [
        {
          "internalType": "contract IMarginEngine",
          "name": "marginEngine",
          "type": "address"
        },
        {
          "internalType": "address",
          "name": "owner",
          "type": "address"
        },
        {
          "internalType": "int24",
          "name": "tickLower",
          "type": "int24"
        },
        {
          "internalType": "int24",
          "name": "tickUpper",
          "type": "int24"
        }
      ],
      "name": "settlePositionAndWithdrawMargin",
      "outputs": [],
      "stateMutability": "nonpayable",
      "type": "function"
    },
    {
      "inputs": [
        {
          "components": [
            {
              "internalType": "contract IMarginEngine",
              "name": "marginEngine",
              "type": "address"
            },
            {
              "internalType": "bool",
              "name": "isFT",
              "type": "bool"
            },
            {
              "internalType": "uint256",
              "name": "notional",
              "type": "uint256"
            },
            {
              "internalType": "uint160",
              "name": "sqrtPriceLimitX96",
              "type": "uint160"
            },
            {
              "internalType": "int24",
              "name": "tickLower",
              "type": "int24"
            },
            {
              "internalType": "int24",
              "name": "tickUpper",
              "type": "int24"
            },
            {
              "internalType": "uint256",
              "name": "marginDelta",
              "type": "uint256"
            }
          ],
          "internalType": "struct IPeriphery.SwapPeripheryParams",
          "name": "params",
          "type": "tuple"
        }
      ],
      "name": "swap",
      "outputs": [
        {
          "internalType": "int256",
          "name": "_fixedTokenDelta",
          "type": "int256"
        },
        {
          "internalType": "int256",
          "name": "_variableTokenDelta",
          "type": "int256"
        },
        {
          "internalType": "uint256",
          "name": "_cumulativeFeeIncurred",
          "type": "uint256"
        },
        {
          "internalType": "int256",
          "name": "_fixedTokenDeltaUnbalanced",
          "type": "int256"
        },
        {
          "internalType": "int256",
          "name": "_marginRequirement",
          "type": "int256"
        },
        {
          "internalType": "int24",
          "name": "_tickAfter",
          "type": "int24"
        }
      ],
      "stateMutability": "payable",
      "type": "function"
    },
    {
      "inputs": [
        {
          "internalType": "address",
          "name": "newOwner",
          "type": "address"
        }
      ],
      "name": "transferOwnership",
      "outputs": [],
      "stateMutability": "nonpayable",
      "type": "function"
    },
    {
      "inputs": [
        {
          "internalType": "contract IMarginEngine",
          "name": "marginEngine",
          "type": "address"
        },
        {
          "internalType": "int24",
          "name": "tickLower",
          "type": "int24"
        },
        {
          "internalType": "int24",
          "name": "tickUpper",
          "type": "int24"
        },
        {
          "internalType": "int256",
          "name": "marginDelta",
          "type": "int256"
        },
        {
          "internalType": "bool",
          "name": "fullyWithdraw",
          "type": "bool"
        }
      ],
      "name": "updatePositionMargin",
      "outputs": [],
      "stateMutability": "payable",
      "type": "function"
    },
    {
      "inputs": [
        {
          "internalType": "address",
          "name": "newImplementation",
          "type": "address"
        }
      ],
      "name": "upgradeTo",
      "outputs": [],
      "stateMutability": "nonpayable",
      "type": "function"
    },
    {
      "inputs": [
        {
          "internalType": "address",
          "name": "newImplementation",
          "type": "address"
        },
        {
          "internalType": "bytes",
          "name": "data",
          "type": "bytes"
        }
      ],
      "name": "upgradeToAndCall",
      "outputs": [],
      "stateMutability": "payable",
      "type": "function"
    },
    {
      "inputs": [],
      "name": "weth",
      "outputs": [
        {
          "internalType": "contract IWETH",
          "name": "",
          "type": "address"
        }
      ],
      "stateMutability": "view",
      "type": "function"
    }
  ],
  "transactionHash": "0x262daf01a68aa65e72ac538ce33f812fc95f5f7d5f8054562d8b85fb6d1b8b7a",
  "args": [],
  "numDeployments": 1,
  "solcInputHash": "cf3772b477574079e67ca792b8786c0e",
  "bytecode": "0x60a0604052306080523480156200001557600080fd5b5060006200002460016200008b565b905080156200003d576036805461ff0019166101001790555b801562000084576036805461ff0019169055604051600181527f7f26b83ff96e1f2b6a682f133852f6798a09c465da95921460cefb38474024989060200160405180910390a15b5062000197565b603654600090610100900460ff1615620000f6578160ff166001148015620000c65750620000c4306200013a60201b62001c7e1760201c565b155b620000ee5760405162461bcd60e51b8152600401620000e59062000149565b60405180910390fd5b506000919050565b60365460ff808416911610620001205760405162461bcd60e51b8152600401620000e59062000149565b506036805460ff191660ff92909216919091179055600190565b6001600160a01b03163b151590565b6020808252602e908201527f496e697469616c697a61626c653a20636f6e747261637420697320616c72656160408201526d191e481a5b9a5d1a585b1a5e995960921b606082015260800190565b608051613814620001cf60003960008181611068015281816110a8015281816111310152818161117101526111ed01526138146000f3fe6080604052600436106100ef5760003560e01c8063040a5dc1146100f45780631b44093d1461012c5780632676938b1461014e57806332e00daf1461018657806334907e34146101a75780633659cfe6146101ea5780633fc8cef31461020a5780634f1ef2861461023157806352d1902d1461024457806361b0245214610259578063715018a61461028f578063782085b5146102a457806378f70b87146102da5780638d8e0983146102ed5780638da5cb5b14610300578063c19be59514610315578063c4d66de814610335578063efa7c3d614610355578063f2fde38b14610375578063f939640714610395575b600080fd5b34801561010057600080fd5b5061011461010f366004612b58565b6103a8565b60405160029190910b81526020015b60405180910390f35b34801561013857600080fd5b5061014c610147366004612b75565b61049a565b005b34801561015a57600080fd5b5061016e610169366004612ba1565b6105c2565b6040516001600160801b039091168152602001610123565b610199610194366004612d14565b610615565b604051908152602001610123565b6101ba6101b5366004612ddc565b610bc6565b604080519687526020870195909552938501929092526060840152608083015260020b60a082015260c001610123565b3480156101f657600080fd5b5061014c610205366004612b58565b61105d565b34801561021657600080fd5b506000546001600160a01b03165b6040516101239190612df8565b61014c61023f366004612e0c565b611126565b34801561025057600080fd5b506101996111e0565b34801561026557600080fd5b50610199610274366004612b58565b6001600160a01b031660009081526002602052604090205490565b34801561029b57600080fd5b5061014c61128e565b3480156102b057600080fd5b506101996102bf366004612b58565b6001600160a01b031660009081526001602052604090205490565b6101996102e8366004612eb3565b6112c9565b6101ba6102fb366004612f22565b611327565b34801561030c57600080fd5b5061022461136a565b34801561032157600080fd5b5061014c610330366004612f85565b611379565b34801561034157600080fd5b5061014c610350366004612b58565b6113f0565b34801561036157600080fd5b5061014c610370366004612b75565b6114cf565b34801561038157600080fd5b5061014c610390366004612b58565b6115b1565b61014c6103a3366004612fe1565b61164e565b600080826001600160a01b031663e098372c6040518163ffffffff1660e01b815260040160206040518083038186803b1580156103e457600080fd5b505afa1580156103f8573d6000803e3d6000fd5b505050506040513d601f19601f8201168201806040525081019061041c9190613049565b9050806001600160a01b03166380a0f76c6040518163ffffffff1660e01b815260040160606040518083038186803b15801561045757600080fd5b505afa15801561046b573d6000803e3d6000fd5b505050506040513d601f19601f8201168201806040525081019061048f9190613066565b602001519392505050565b816001600160a01b0381166104ca5760405162461bcd60e51b81526004016104c1906130dd565b60405180910390fd5b6000816001600160a01b0316638da5cb5b6040518163ffffffff1660e01b815260040160206040518083038186803b15801561050557600080fd5b505afa158015610519573d6000803e3d6000fd5b505050506040513d601f19601f8201168201806040525081019061053d9190613049565b9050336001600160a01b038216146105675760405162461bcd60e51b81526004016104c190613105565b6001600160a01b03841660009081526001602052604090819020849055517f359cd6003fbab20721d687a623408d04791a7b8de287826b2590c13db66f02fb906105b4908690869061312e565b60405180910390a150505050565b6000826001600160a01b0316846001600160a01b031611156105e2579192915b61060b61060683600160601b6105f8888861315d565b6001600160a01b0316611c8d565b611da0565b90505b9392505050565b600061062982602001518360400151611e0d565b600082600001516001600160a01b031663e098372c6040518163ffffffff1660e01b815260040160206040518083038186803b15801561066857600080fd5b505afa15801561067c573d6000803e3d6000fd5b505050506040513d601f19601f820116820180604052508101906106a09190613049565b835160208501516040808701519051634904f4dd60e11b81529394506000936001600160a01b0390931692639209e9ba926106df923392600401613185565b61014060405180830381600087803b1580156106fa57600080fd5b505af115801561070e573d6000803e3d6000fd5b505050506040513d601f19601f8201168201806040525081019061073291906131cc565b9050600084600001516001600160a01b031663884287526040518163ffffffff1660e01b815260040160206040518083038186803b15801561077357600080fd5b505afa158015610787573d6000803e3d6000fd5b505050506040513d601f19601f820116820180604052508101906107ab9190613261565b9050600033848760000151886020015189604001516040516020016107d495949392919061327e565b60405160208183030381529060405280519060200120905060008084602001516001600160801b031611905082801561080a5750805b1561083857600082815260036020526040902054610838576040808501516000848152600360205291909120555b6000856001600160a01b03166380a0f76c6040518163ffffffff1660e01b815260040160606040518083038186803b15801561087357600080fd5b505afa158015610887573d6000803e3d6000fd5b505050506040513d601f19601f820116820180604052508101906108ab9190613066565b805160208a01519192506001600160a01b03161515906000906108cd90611ece565b905060006108de8b60400151611ece565b90508261097857600060028c604001518d602001516108fd91906132be565b610907919061331b565b9050600061091482611ece565b6040516323fbaf6f60e11b81529091506001600160a01b038c16906347f75ede90610943908490600401612df8565b600060405180830381600087803b15801561095d57600080fd5b505af1158015610971573d6000803e3d6000fd5b5050505050505b60a08b015115158061098a5750600034115b156109ad576109ad8b600001518c602001518d604001518e60a00151600061164e565b60006109be83838e606001516105c2565b905060009a508b6080015115610a615760208c01516040808e01519051635c6651a760e11b81526001600160a01b038d169263b8cca34e92610a0892339291908790600401613355565b602060405180830381600087803b158015610a2257600080fd5b505af1158015610a36573d6000803e3d6000fd5b505050506040513d601f19601f82011682018060405250810190610a5a9190613388565b9a50610af0565b60208c01516040808e01519051631f2f089360e01b81526001600160a01b038d1692631f2f089392610a9b92339291908790600401613355565b602060405180830381600087803b158015610ab557600080fd5b505af1158015610ac9573d6000803e3d6000fd5b505050506040513d601f19601f82011682018060405250810190610aed9190613388565b9a505b8b5160208d01516040808f01519051634904f4dd60e11b81526001600160a01b0390931692639209e9ba92610b29923392600401613185565b61014060405180830381600087803b158015610b4457600080fd5b505af1158015610b58573d6000803e3d6000fd5b505050506040513d601f19601f82011682018060405250810190610b7c91906131cc565b60208101519099506001600160801b03161515888015610ba057508680610ba05750805b15610bb657610bb68b898c604001518a85612263565b5050505050505050505050919050565b600080600080600080610be187608001518860a00151611e0d565b600087600001516001600160a01b031663e098372c6040518163ffffffff1660e01b815260040160206040518083038186803b158015610c2057600080fd5b505afa158015610c34573d6000803e3d6000fd5b505050506040513d601f19601f82011682018060405250810190610c589190613049565b9050876080015160020b6000148015610c76575060a088015160020b155b15610de3576000816001600160a01b031663d0c93a7c6040518163ffffffff1660e01b815260040160206040518083038186803b158015610cb657600080fd5b505afa158015610cca573d6000803e3d6000fd5b505050506040513d601f19601f82011682018060405250810190610cee91906133a1565b90506000826001600160a01b03166380a0f76c6040518163ffffffff1660e01b815260040160606040518083038186803b158015610d2b57600080fd5b505afa158015610d3f573d6000803e3d6000fd5b505050506040513d601f19601f82011682018060405250810190610d639190613066565b90506000828260200151610d7791906133be565b90506000838360200151610d8b91906132be565b905062010deb19600283900b1215610da55762010deb1991505b610db262010deb19613406565b60020b8160020b1315610dcf57610dcc62010deb19613406565b90505b600291820b60808d0152900b60a08b015250505b60008860c001511180610df65750600034115b15610e2157610e21886000015189608001518a60a00151610e1a8c60c001516123a0565b600061164e565b6000886020015115610e4157610e3a89604001516123a0565b9050610e5a565b610e4e89604001516123a0565b610e5790613429565b90505b60006040518060a00160405280336001600160a01b031681526020018381526020018b606001516001600160a01b0316600014610e9b578b60600151610ed9565b8b6020015115610ec257610ebd60016c1fa71f3f5f68a90479ee3f8fec61315d565b610ed9565b610ed96b0816769404766de590afe04e6001613446565b6001600160a01b031681526020018b6080015160020b81526020018b60a0015160020b8152509050826001600160a01b03166367758e6e826040518263ffffffff1660e01b8152600401610f749190600060a08201905060018060a01b038084511683526020840151602084015280604085015116604084015250606083015160020b6060830152608083015160020b608083015292915050565b60a060405180830381600087803b158015610f8e57600080fd5b505af1158015610fa2573d6000803e3d6000fd5b505050506040513d601f19601f82011682018060405250810190610fc69190613471565b809950819a50829b50839c50849d505050505050826001600160a01b03166380a0f76c6040518163ffffffff1660e01b815260040160606040518083038186803b15801561101357600080fd5b505afa158015611027573d6000803e3d6000fd5b505050506040513d601f19601f8201168201806040525081019061104b9190613066565b60200151935050505091939550919395565b306001600160a01b037f00000000000000000000000000000000000000000000000000000000000000001614156110a65760405162461bcd60e51b81526004016104c1906134b1565b7f00000000000000000000000000000000000000000000000000000000000000006001600160a01b03166110d861240a565b6001600160a01b0316146110fe5760405162461bcd60e51b81526004016104c1906134eb565b61110781612426565b6040805160008082526020820190925261112391839190612455565b50565b306001600160a01b037f000000000000000000000000000000000000000000000000000000000000000016141561116f5760405162461bcd60e51b81526004016104c1906134b1565b7f00000000000000000000000000000000000000000000000000000000000000006001600160a01b03166111a161240a565b6001600160a01b0316146111c75760405162461bcd60e51b81526004016104c1906134eb565b6111d082612426565b6111dc82826001612455565b5050565b6000306001600160a01b037f0000000000000000000000000000000000000000000000000000000000000000161461127b5760405162461bcd60e51b815260206004820152603860248201527f555550535570677261646561626c653a206d757374206e6f742062652063616c6044820152771b1959081d1a1c9bdd59da0819195b1959d85d1958d85b1b60421b60648201526084016104c1565b5060008051602061379883398151915290565b3361129761136a565b6001600160a01b0316146112bd5760405162461bcd60e51b81526004016104c190613525565b6112c760006125d4565b565b600081608001516113085760405162461bcd60e51b81526020600482015260096024820152681bdb9b1e481b5a5b9d60ba1b60448201526064016104c1565b61131486868686611379565b61131d82610615565b9695505050505050565b60008060008060008061133c8b8b8b8b611379565b61134587610bc6565b809650819750829850839950849a50859b505050505050509550955095509550955095565b6069546001600160a01b031690565b60405163a725b96560e01b81526001600160a01b0385169063a725b965906113a990869086908690600401613185565b600060405180830381600087803b1580156113c357600080fd5b505af11580156113d7573d6000803e3d6000fd5b505050506113ea8483836000600161164e565b50505050565b60006113fc6001612626565b90508015611414576036805461ff0019166101001790555b6001600160a01b03821661145b5760405162461bcd60e51b815260206004820152600e60248201526d776574682061646472207a65726f60901b60448201526064016104c1565b600080546001600160a01b0319166001600160a01b03841617905561147e6126bc565b6114866126eb565b80156111dc576036805461ff0019169055604051600181527f7f26b83ff96e1f2b6a682f133852f6798a09c465da95921460cefb38474024989060200160405180910390a15050565b816001600160a01b0381166114f65760405162461bcd60e51b81526004016104c1906130dd565b6000816001600160a01b0316638da5cb5b6040518163ffffffff1660e01b815260040160206040518083038186803b15801561153157600080fd5b505afa158015611545573d6000803e3d6000fd5b505050506040513d601f19601f820116820180604052508101906115699190613049565b9050336001600160a01b038216146115935760405162461bcd60e51b81526004016104c190613105565b50506001600160a01b03909116600090815260026020526040902055565b336115ba61136a565b6001600160a01b0316146115e05760405162461bcd60e51b81526004016104c190613525565b6001600160a01b0381166116455760405162461bcd60e51b815260206004820152602660248201527f4f776e61626c653a206e6577206f776e657220697320746865207a65726f206160448201526564647265737360d01b60648201526084016104c1565b611123816125d4565b604051634904f4dd60e11b81526000906001600160a01b03871690639209e9ba9061168190339089908990600401613185565b61014060405180830381600087803b15801561169c57600080fd5b505af11580156116b0573d6000803e3d6000fd5b505050506040513d601f19601f820116820180604052508101906116d491906131cc565b90506000866001600160a01b031663884287526040518163ffffffff1660e01b815260040160206040518083038186803b15801561171157600080fd5b505afa158015611725573d6000803e3d6000fd5b505050506040513d601f19601f820116820180604052508101906117499190613261565b90506000876001600160a01b031663e098372c6040518163ffffffff1660e01b815260040160206040518083038186803b15801561178657600080fd5b505afa15801561179a573d6000803e3d6000fd5b505050506040513d601f19601f820116820180604052508101906117be9190613049565b9050600033828a8a8a6040516020016117db95949392919061327e565b60405160208183030381529060405280519060200120905082801561180d5750600084602001516001600160801b0316115b1561183b5760008181526003602052604090205461183b576040808501516000838152600360205291909120555b6000896001600160a01b0316632495a5996040518163ffffffff1660e01b815260040160206040518083038186803b15801561187657600080fd5b505afa15801561188a573d6000803e3d6000fd5b505050506040513d601f19601f820116820180604052508101906118ae9190613049565b905085156118c75784604001516118c490613429565b96505b6000546001600160a01b0382811691161415611ab657600087121561194f57604051637717797f60e01b81526001600160a01b038b1690637717797f906119189033908d908d908d9060040161355a565b600060405180830381600087803b15801561193257600080fd5b505af1158015611946573d6000803e3d6000fd5b50505050611bbc565b60008713156119785761197833306119668a612712565b6001600160a01b038516929190612764565b34156119fb5760008054906101000a90046001600160a01b03166001600160a01b031663d0e30db0346040518263ffffffff1660e01b81526004016000604051808303818588803b1580156119cc57600080fd5b505af11580156119e0573d6000803e3d6000fd5b50505050506119ee346123a0565b6119f89088613584565b96505b806001600160a01b031663095ea7b38b611a148a612712565b6040518363ffffffff1660e01b8152600401611a3192919061312e565b602060405180830381600087803b158015611a4b57600080fd5b505af1158015611a5f573d6000803e3d6000fd5b505050506040513d601f19601f82011682018060405250810190611a839190613261565b50604051637717797f60e01b81526001600160a01b038b1690637717797f906119189033908d908d908d9060040161355a565b6000871315611b5757611acd33306119668a612712565b806001600160a01b031663095ea7b38b611ae68a612712565b6040518363ffffffff1660e01b8152600401611b0392919061312e565b602060405180830381600087803b158015611b1d57600080fd5b505af1158015611b31573d6000803e3d6000fd5b505050506040513d601f19601f82011682018060405250810190611b559190613261565b505b604051637717797f60e01b81526001600160a01b038b1690637717797f90611b899033908d908d908d9060040161355a565b600060405180830381600087803b158015611ba357600080fd5b505af1158015611bb7573d6000803e3d6000fd5b505050505b604051634904f4dd60e11b81526001600160a01b038b1690639209e9ba90611bec9033908d908d90600401613185565b61014060405180830381600087803b158015611c0757600080fd5b505af1158015611c1b573d6000803e3d6000fd5b505050506040513d601f19601f82011682018060405250810190611c3f91906131cc565b9450838015611c5b5750600085602001516001600160801b0316115b15611c7257611c7283838760400151600180612263565b50505050505050505050565b6001600160a01b03163b151590565b600080806000198587098587029250828110838203039150508060001415611cfd5760008411611cf25760405162461bcd60e51b815260206004820152601060248201526f4469766973696f6e206279207a65726f60801b60448201526064016104c1565b50829004905061060e565b808411611d375760405162461bcd60e51b81526020600482015260086024820152676f766572666c6f7760c01b60448201526064016104c1565b60008486880960026001871981018816978890046003810283188082028403028082028403028082028403028082028403028082028403029081029092039091026000889003889004909101858311909403939093029303949094049190911702949350505050565b60006001600160801b03821115611e095760405162461bcd60e51b815260206004820152602760248201527f53616665436173743a2076616c756520646f65736e27742066697420696e20316044820152663238206269747360c81b60648201526084016104c1565b5090565b8060020b8260020b12611e485760405162461bcd60e51b8152602060048201526003602482015262544c5560e81b60448201526064016104c1565b62010deb19600283900b1215611e865760405162461bcd60e51b8152602060048201526003602482015262544c4d60e81b60448201526064016104c1565b611e9362010deb19613406565b60020b8160020b13156111dc5760405162461bcd60e51b815260206004820152600360248201526254554d60e81b60448201526064016104c1565b60008060008360020b12611ee5578260020b611ef2565b8260020b611ef290613429565b9050611f0162010deb19613406565b60020b811115611f375760405162461bcd60e51b81526020600482015260016024820152601560fa1b60448201526064016104c1565b600060018216611f4b57600160801b611f5d565b6ffffcb933bd6fad37aa2d162d1a5940015b6001600160881b031690506002821615611f92576080611f8d826ffff97272373d413259a46990580e213a6135c5565b901c90505b6004821615611fbc576080611fb7826ffff2e50f5f656932ef12357cf3c7fdcc6135c5565b901c90505b6008821615611fe6576080611fe1826fffe5caca7e10e4e61c3624eaa0941cd06135c5565b901c90505b601082161561201057608061200b826fffcb9843d60f6159c9db58835c9266446135c5565b901c90505b602082161561203a576080612035826fff973b41fa98c081472e6896dfb254c06135c5565b901c90505b604082161561206457608061205f826fff2ea16466c96a3843ec78b326b528616135c5565b901c90505b608082161561208e576080612089826ffe5dee046a99a2a811c461f1969c30536135c5565b901c90505b6101008216156120b95760806120b4826ffcbe86c7900a88aedcffc83b479aa3a46135c5565b901c90505b6102008216156120e45760806120df826ff987a7253ac413176f2b074cf7815e546135c5565b901c90505b61040082161561210f57608061210a826ff3392b0822b70005940c7a398e4b70f36135c5565b901c90505b61080082161561213a576080612135826fe7159475a2c29b7443b29c7fa6e889d96135c5565b901c90505b611000821615612165576080612160826fd097f3bdfd2022b8845ad8f792aa58256135c5565b901c90505b61200082161561219057608061218b826fa9f746462d870fdf8a65dc1f90e061e56135c5565b901c90505b6140008216156121bb5760806121b6826f70d869a156d2a1b890bb3df62baf32f76135c5565b901c90505b6180008216156121e65760806121e1826f31be135f97d08fd981231505542fcfa66135c5565b901c90505b6201000082161561221257608061220d826f09aa508b5b7a84e1c677de54f3e99bc96135c5565b901c90505b60008460020b131561222d5761222a816000196135e4565b90505b61223b600160201b826135f8565b1561224757600161224a565b60005b61225b9060ff16602083901c61360c565b949350505050565b80156122e6576000848152600360209081526040808320546001600160a01b03891684526002909252822080549192909161229f908490613624565b909155505060008481526003602090815260408083208690556001600160a01b03881683526002909152812080548592906122db908490613584565b909155506123379050565b8115612337576000848152600360209081526040808320546001600160a01b038916845260029092528220805491929091612322908490613624565b90915550506000848152600360205260408120555b6001600160a01b03851660009081526001602090815260408083205460029092529091205413156123995760405162461bcd60e51b815260206004820152600c60248201526b1b1c0818d85c081b1a5b5a5d60a21b60448201526064016104c1565b5050505050565b60006001600160ff1b03821115611e095760405162461bcd60e51b815260206004820152602860248201527f53616665436173743a2076616c756520646f65736e27742066697420696e2061604482015267371034b73a191a9b60c11b60648201526084016104c1565b600080516020613798833981519152546001600160a01b031690565b3361242f61136a565b6001600160a01b0316146111235760405162461bcd60e51b81526004016104c190613525565b7f4910fdfa16fed3260ed0e7147f7cc6da11a60208b5b9406d12a635614ffd91435460ff161561248d57612488836127be565b505050565b826001600160a01b03166352d1902d6040518163ffffffff1660e01b815260040160206040518083038186803b1580156124c657600080fd5b505afa9250505080156124f6575060408051601f3d908101601f191682019092526124f391810190613388565b60015b6125595760405162461bcd60e51b815260206004820152602e60248201527f45524331393637557067726164653a206e657720696d706c656d656e7461746960448201526d6f6e206973206e6f74205555505360901b60648201526084016104c1565b60008051602061379883398151915281146125c85760405162461bcd60e51b815260206004820152602960248201527f45524331393637557067726164653a20756e737570706f727465642070726f786044820152681a58589b195555525160ba1b60648201526084016104c1565b50612488838383612858565b606980546001600160a01b038381166001600160a01b0319831681179093556040519116919082907f8be0079c531659141344cd1fd0a4f28419497f9722a3daafe3b4186f6b6457e090600090a35050565b603654600090610100900460ff1615612676578160ff166001148015612652575061265030611c7e565b155b61266e5760405162461bcd60e51b81526004016104c190613663565b506000919050565b60365460ff80841691161061269d5760405162461bcd60e51b81526004016104c190613663565b506036805460ff191660ff92909216919091179055600190565b919050565b603654610100900460ff166126e35760405162461bcd60e51b81526004016104c1906136b1565b6112c761287d565b603654610100900460ff166112c75760405162461bcd60e51b81526004016104c1906136b1565b600080821215611e095760405162461bcd60e51b815260206004820181905260248201527f53616665436173743a2076616c7565206d75737420626520706f73697469766560448201526064016104c1565b604080516001600160a01b0385811660248301528416604482015260648082018490528251808303909101815260849091019091526020810180516001600160e01b03166323b872dd60e01b1790526113ea9085906128ad565b6127c781611c7e565b6128295760405162461bcd60e51b815260206004820152602d60248201527f455243313936373a206e657720696d706c656d656e746174696f6e206973206e60448201526c1bdd08184818dbdb9d1c9858dd609a1b60648201526084016104c1565b60008051602061379883398151915280546001600160a01b0319166001600160a01b0392909216919091179055565b6128618361292e565b60008251118061286e5750805b15612488576113ea838361296e565b603654610100900460ff166128a45760405162461bcd60e51b81526004016104c1906136b1565b6112c7336125d4565b60006128d983836040518060400160405280600781526020016629aa261032b93960c91b815250612a60565b80519091501561248857808060200190518101906128f79190613261565b6124885760405162461bcd60e51b815260206004820152600860248201526714d5130819985a5b60c21b60448201526064016104c1565b612937816127be565b6040516001600160a01b038216907fbc7cd75a20ee27fd9adebab32041f755214dbc6bffa90cc0225b39da2e5c2d3b90600090a250565b606061297983611c7e565b6129d45760405162461bcd60e51b815260206004820152602660248201527f416464726573733a2064656c65676174652063616c6c20746f206e6f6e2d636f6044820152651b9d1c9858dd60d21b60648201526084016104c1565b600080846001600160a01b0316846040516129ef9190613728565b600060405180830381855af49150503d8060008114612a2a576040519150601f19603f3d011682016040523d82523d6000602084013e612a2f565b606091505b5091509150612a5782826040518060600160405280602781526020016137b860279139612b0a565b95945050505050565b6060833b612a9f5760405162461bcd60e51b815260206004820152600c60248201526b1b9bdb8b58dbdb9d1c9858dd60a21b60448201526064016104c1565b600080856001600160a01b0316600086604051612abc9190613728565b60006040518083038185875af1925050503d8060008114612af9576040519150601f19603f3d011682016040523d82523d6000602084013e612afe565b606091505b509150915061131d8282865b60608315612b1957508161060e565b825115612b295782518084602001fd5b8160405162461bcd60e51b81526004016104c19190613744565b6001600160a01b038116811461112357600080fd5b600060208284031215612b6a57600080fd5b813561060e81612b43565b60008060408385031215612b8857600080fd5b8235612b9381612b43565b946020939093013593505050565b600080600060608486031215612bb657600080fd5b8335612bc181612b43565b92506020840135612bd181612b43565b929592945050506040919091013590565b634e487b7160e01b600052604160045260246000fd5b60405161014081016001600160401b0381118282101715612c1b57612c1b612be2565b60405290565b604051601f8201601f191681016001600160401b0381118282101715612c4957612c49612be2565b604052919050565b8060020b811461112357600080fd5b80356126b781612c51565b801515811461112357600080fd5b600060c08284031215612c8b57600080fd5b60405160c081016001600160401b0381118282101715612cad57612cad612be2565b6040529050808235612cbe81612b43565b81526020830135612cce81612c51565b60208201526040830135612ce181612c51565b6040820152606083810135908201526080830135612cfe81612c6b565b608082015260a092830135920191909152919050565b600060c08284031215612d2657600080fd5b61060e8383612c79565b600060e08284031215612d4257600080fd5b60405160e081016001600160401b0381118282101715612d6457612d64612be2565b6040529050808235612d7581612b43565b81526020830135612d8581612c6b565b6020820152604083810135908201526060830135612da281612b43565b60608201526080830135612db581612c51565b6080820152612dc660a08401612c60565b60a082015260c083013560c08201525092915050565b600060e08284031215612dee57600080fd5b61060e8383612d30565b6001600160a01b0391909116815260200190565b60008060408385031215612e1f57600080fd5b8235612e2a81612b43565b91506020838101356001600160401b0380821115612e4757600080fd5b818601915086601f830112612e5b57600080fd5b813581811115612e6d57612e6d612be2565b612e7f601f8201601f19168501612c21565b91508082528784828501011115612e9557600080fd5b80848401858401376000848284010152508093505050509250929050565b60008060008060006101408688031215612ecc57600080fd5b8535612ed781612b43565b94506020860135612ee781612b43565b93506040860135612ef781612c51565b92506060860135612f0781612c51565b9150612f168760808801612c79565b90509295509295909350565b60008060008060006101608688031215612f3b57600080fd5b8535612f4681612b43565b94506020860135612f5681612b43565b93506040860135612f6681612c51565b92506060860135612f7681612c51565b9150612f168760808801612d30565b60008060008060808587031215612f9b57600080fd5b8435612fa681612b43565b93506020850135612fb681612b43565b92506040850135612fc681612c51565b91506060850135612fd681612c51565b939692955090935050565b600080600080600060a08688031215612ff957600080fd5b853561300481612b43565b9450602086013561301481612c51565b9350604086013561302481612c51565b925060608601359150608086013561303b81612c6b565b809150509295509295909350565b60006020828403121561305b57600080fd5b815161060e81612b43565b60006060828403121561307857600080fd5b604051606081016001600160401b038111828210171561309a5761309a612be2565b60405282516130a881612b43565b815260208301516130b881612c51565b6020820152604083015160ff811681146130d157600080fd5b60408201529392505050565b6020808252600e908201526d76616d6d2061646472207a65726f60901b604082015260600190565b6020808252600f908201526e37b7363c903b30b6b69037bbb732b960891b604082015260600190565b6001600160a01b03929092168252602082015260400190565b634e487b7160e01b600052601160045260246000fd5b60006001600160a01b038381169083168181101561317d5761317d613147565b039392505050565b6001600160a01b03939093168352600291820b6020840152900b604082015260600190565b80516126b781612c6b565b80516001600160801b03811681146126b757600080fd5b600061014082840312156131df57600080fd5b6131e7612bf8565b6131f0836131aa565b81526131fe602084016131b5565b602082015260408301516040820152606083015160608201526080830151608082015260a083015160a082015260c083015160c082015260e083015160e08201526101008084015181830152506101208084015181830152508091505092915050565b60006020828403121561327357600080fd5b815161060e81612c6b565b6001600160601b0319606096871b8116825294861b851660148201529290941b909216602882015260e891821b603c82015291901b603f82015260420190565b60008160020b8360020b6000821282627fffff038213811516156132e4576132e4613147565b82627fffff190382128116156132fc576132fc613147565b50019392505050565b634e487b7160e01b600052601260045260246000fd5b60008160020b8360020b8061333257613332613305565b627fffff1982146000198214161561334c5761334c613147565b90059392505050565b6001600160a01b03949094168452600292830b6020850152910b60408301526001600160801b0316606082015260800190565b60006020828403121561339a57600080fd5b5051919050565b6000602082840312156133b357600080fd5b815161060e81612c51565b60008160020b8360020b6000811281627fffff19018312811516156133e5576133e5613147565b81627fffff0183138116156133fc576133fc613147565b5090039392505050565b60008160020b627fffff1981141561342057613420613147565b60000392915050565b6000600160ff1b82141561343f5761343f613147565b5060000390565b60006001600160a01b0382811684821680830382111561346857613468613147565b01949350505050565b600080600080600060a0868803121561348957600080fd5b5050835160208501516040860151606087015160809097015192989197509594509092509050565b6020808252602c9082015260008051602061377883398151915260408201526b19195b1959d85d1958d85b1b60a21b606082015260800190565b6020808252602c9082015260008051602061377883398151915260408201526b6163746976652070726f787960a01b606082015260800190565b6020808252818101527f4f776e61626c653a2063616c6c6572206973206e6f7420746865206f776e6572604082015260600190565b6001600160a01b03949094168452600292830b6020850152910b6040830152606082015260800190565b600080821280156001600160ff1b03849003851316156135a6576135a6613147565b600160ff1b83900384128116156135bf576135bf613147565b50500190565b60008160001904831182151516156135df576135df613147565b500290565b6000826135f3576135f3613305565b500490565b60008261360757613607613305565b500690565b6000821982111561361f5761361f613147565b500190565b60008083128015600160ff1b85018412161561364257613642613147565b6001600160ff1b038401831381161561365d5761365d613147565b50500390565b6020808252602e908201527f496e697469616c697a61626c653a20636f6e747261637420697320616c72656160408201526d191e481a5b9a5d1a585b1a5e995960921b606082015260800190565b6020808252602b908201527f496e697469616c697a61626c653a20636f6e7472616374206973206e6f74206960408201526a6e697469616c697a696e6760a81b606082015260800190565b60005b838110156137175781810151838201526020016136ff565b838111156113ea5750506000910152565b6000825161373a8184602087016136fc565b9190910192915050565b60208152600082518060208401526137638160408501602087016136fc565b601f01601f1916919091016040019291505056fe46756e6374696f6e206d7573742062652063616c6c6564207468726f75676820360894a13ba1a3210667c828492db98dca3e2076cc3735a920a3ca505d382bbc416464726573733a206c6f772d6c6576656c2064656c65676174652063616c6c206661696c6564a264697066735822122009bb21382caa28918b22dfe4e4e7df5077e0d910eb33a9529a03f1727f03ce7164736f6c63430008090033",
  "devdoc": {
    "details": "inside mint or burn check if the position already has margin deposited and add it to the cumulative balance",
    "errors": {
      "AavePoolGetReserveNormalizedIncomeReturnedZero()": [
        {
          "details": "getReserveNormalizedIncome() returned zero for underlying asset. Oracle only supports active Aave-V2 assets."
        }
      ],
      "CTokenExchangeRateReturnedZero()": [
        {
          "details": "ctoken.exchangeRateStored() returned zero for a given Compound ctoken. Oracle only supports active Compound assets."
        }
      ],
      "CanOnlyTradeIfUnlocked(bool)": [
        {
          "details": "Error which ensures the VAMM is unlocked"
        }
      ],
      "ExpectedOppositeSigns(int256,int256)": [
        {
          "details": "The two values were expected to have oppostite sigs, but do not"
        }
      ],
      "ExpectedSqrtPriceZeroBeforeInit(uint160)": [
        {
          "details": "Error which is reverted if the sqrt price of the vamm is non-zero before a vamm is initialized"
        }
      ],
      "IRSNotionalAmountSpecifiedMustBeNonZero()": [
        {
          "details": "Error which ensures the amount of notional specified when initiating an IRS contract (via the swap function in the vamm) is non-zero"
        }
      ],
      "LidoGetPooledEthBySharesReturnedZero()": [
        {
          "details": "getPooledEthByShares() returned zero for Lido's stETH."
        }
      ],
      "LiquidityDeltaMustBePositiveInBurn(uint128)": [
        {
          "details": "Error which ensures the liquidity delta is positive if a given LP wishes to burn liquidity in the vamm"
        }
      ],
      "LiquidityDeltaMustBePositiveInMint(uint128)": [
        {
          "details": "Error which ensures the liquidity delta is positive if a given LP wishes to mint further liquidity in the vamm"
        }
      ],
      "MarginLessThanMinimum(int256)": [
        {
          "details": "Cannot have less margin than the minimum requirement"
        }
      ],
      "NotEnoughFunds(uint256,uint256)": [
        {
          "details": "There are not enough funds available for the requested operation"
        }
      ],
      "OOO()": [
        {
          "details": "currentTime < queriedTime"
        }
      ],
      "OnlyMarginEngine()": [
        {
          "details": "only the margin engine can run a certain function"
        }
      ],
      "PositionNetZero()": [
        {
          "details": "No need to unwind a net zero position"
        }
      ],
      "PositionNotSettled()": [
        {
          "details": "Position must be settled after AMM has reached maturity"
        }
      ],
      "RocketPoolGetEthValueReturnedZero()": [
        {
          "details": "getEthValue() returned zero for RocketPool's RETH."
        }
      ],
      "WithdrawalExceedsCurrentMargin()": [
        {
          "details": "We can't withdraw more margin than we have"
        }
      ]
    },
    "kind": "dev",
    "methods": {
      "constructor": {
        "custom:oz-upgrades-unsafe-allow": "constructor"
      },
      "getLiquidityForNotional(uint160,uint160,uint256)": {
        "details": "Calculates amount1 / (sqrt(upper) - sqrt(lower)).",
        "params": {
          "notionalAmount": "The amount of notional being sent in",
          "sqrtRatioAX96": "A sqrt price representing the first tick boundary",
          "sqrtRatioBX96": "A sqrt price representing the second tick boundary"
        },
        "returns": {
          "liquidity": "The amount of returned liquidity"
        }
      },
      "initialize(address)": {
        "details": "\"constructor\" for proxy instances"
      },
      "lpMarginCaps(address)": {
        "params": {
          "vamm": "VAMM for which to get the lp cap in underlying tokens"
        },
        "returns": {
          "_0": "Notional Cap for liquidity providers that mint or burn via periphery (enforced in the core if isAlpha is set to true)"
        }
      },
      "lpMarginCumulatives(address)": {
        "params": {
          "vamm": "VAMM for which to get the lp notional cumulative in underlying tokens"
        },
        "returns": {
          "_0": "Total amount of notional supplied by the LPs to a given VAMM via the periphery"
        }
      },
      "owner()": {
        "details": "Returns the address of the current owner."
      },
      "proxiableUUID()": {
        "details": "Implementation of the ERC1822 {proxiableUUID} function. This returns the storage slot used by the implementation. It is used to validate that the this implementation remains valid after an upgrade. IMPORTANT: A proxy pointing at a proxiable contract should not be considered proxiable itself, because this risks bricking a proxy that upgrades to it, by delegating to itself until out of gas. Thus it is critical that this function revert if invoked through a proxy. This is guaranteed by the `notDelegated` modifier."
      },
      "renounceOwnership()": {
        "details": "Leaves the contract without owner. It will not be possible to call `onlyOwner` functions anymore. Can only be called by the current owner. NOTE: Renouncing ownership will leave the contract without an owner, thereby removing any functionality that is only available to the owner."
      },
      "transferOwnership(address)": {
        "details": "Transfers ownership of the contract to a new account (`newOwner`). Can only be called by the current owner."
      },
      "upgradeTo(address)": {
        "details": "Upgrade the implementation of the proxy to `newImplementation`. Calls {_authorizeUpgrade}. Emits an {Upgraded} event."
      },
      "upgradeToAndCall(address,bytes)": {
        "details": "Upgrade the implementation of the proxy to `newImplementation`, and subsequently execute the function call encoded in `data`. Calls {_authorizeUpgrade}. Emits an {Upgraded} event."
      }
    },
    "version": 1
  },
  "userdoc": {
    "errors": {
      "CannotLiquidate()": [
        {
          "notice": "The position/trader needs to be below the liquidation threshold to be liquidated"
        }
      ],
      "CannotSettleBeforeMaturity()": [
        {
          "notice": "Positions and Traders cannot be settled before the applicable interest rate swap has matured"
        }
      ],
      "InvalidMarginDelta()": [
        {
          "notice": "Margin delta must not equal zero"
        }
      ],
      "MarginRequirementNotMet(int256,int24,int256,int256,uint256,int256)": [
        {
          "notice": "The resulting margin does not meet minimum requirements"
        }
      ],
      "MarginRequirementNotMetFCM(int256)": [
        {
          "notice": "The resulting margin does not meet minimum requirements"
        }
      ],
      "OnlyOwnerCanUpdatePosition()": [
        {
          "notice": "Only the position/trade owner can update the LP/Trader margin"
        }
      ]
    },
    "kind": "user",
    "methods": {
      "getLiquidityForNotional(uint160,uint160,uint256)": {
        "notice": "Computes the amount of liquidity received for a given notional amount and price range"
      },
      "mintOrBurn((address,int24,int24,uint256,bool,int256))": {
        "notice": "Add liquidity to an initialized pool"
      }
    },
    "version": 1
  },
  "storageLayout": {
    "storage": [
      {
        "astId": 21630,
        "contract": "contracts/periphery/Periphery.sol:Periphery",
        "label": "_weth",
        "offset": 0,
        "slot": "0",
        "type": "t_contract(IWETH)17404"
      },
      {
        "astId": 21636,
        "contract": "contracts/periphery/Periphery.sol:Periphery",
        "label": "_lpMarginCaps",
        "offset": 0,
        "slot": "1",
        "type": "t_mapping(t_contract(IVAMM)17392,t_int256)"
      },
      {
        "astId": 21642,
        "contract": "contracts/periphery/Periphery.sol:Periphery",
        "label": "_lpMarginCumulatives",
        "offset": 0,
        "slot": "2",
        "type": "t_mapping(t_contract(IVAMM)17392,t_int256)"
      },
      {
        "astId": 21647,
        "contract": "contracts/periphery/Periphery.sol:Periphery",
        "label": "_lastAccountedMargin",
        "offset": 0,
        "slot": "3",
        "type": "t_mapping(t_bytes32,t_int256)"
      },
      {
        "astId": 21654,
        "contract": "contracts/periphery/Periphery.sol:Periphery",
        "label": "__gap",
        "offset": 0,
        "slot": "4",
        "type": "t_array(t_uint256)50_storage"
      },
      {
        "astId": 519,
        "contract": "contracts/periphery/Periphery.sol:Periphery",
        "label": "_initialized",
        "offset": 0,
        "slot": "54",
        "type": "t_uint8"
      },
      {
        "astId": 522,
        "contract": "contracts/periphery/Periphery.sol:Periphery",
        "label": "_initializing",
        "offset": 1,
        "slot": "54",
        "type": "t_bool"
      },
      {
        "astId": 1074,
        "contract": "contracts/periphery/Periphery.sol:Periphery",
        "label": "__gap",
        "offset": 0,
        "slot": "55",
        "type": "t_array(t_uint256)50_storage"
      },
      {
        "astId": 10,
        "contract": "contracts/periphery/Periphery.sol:Periphery",
        "label": "_owner",
        "offset": 0,
        "slot": "105",
        "type": "t_address"
      },
      {
        "astId": 122,
        "contract": "contracts/periphery/Periphery.sol:Periphery",
        "label": "__gap",
        "offset": 0,
        "slot": "106",
        "type": "t_array(t_uint256)49_storage"
      },
      {
        "astId": 501,
        "contract": "contracts/periphery/Periphery.sol:Periphery",
        "label": "__gap",
        "offset": 0,
        "slot": "155",
        "type": "t_array(t_uint256)50_storage"
      },
      {
        "astId": 789,
        "contract": "contracts/periphery/Periphery.sol:Periphery",
        "label": "__gap",
        "offset": 0,
        "slot": "205",
        "type": "t_array(t_uint256)50_storage"
      }
    ],
    "types": {
      "t_address": {
        "encoding": "inplace",
        "label": "address",
        "numberOfBytes": "20"
      },
      "t_array(t_uint256)49_storage": {
        "base": "t_uint256",
        "encoding": "inplace",
        "label": "uint256[49]",
        "numberOfBytes": "1568"
      },
      "t_array(t_uint256)50_storage": {
        "base": "t_uint256",
        "encoding": "inplace",
        "label": "uint256[50]",
        "numberOfBytes": "1600"
      },
      "t_bool": {
        "encoding": "inplace",
        "label": "bool",
        "numberOfBytes": "1"
      },
      "t_bytes32": {
        "encoding": "inplace",
        "label": "bytes32",
        "numberOfBytes": "32"
      },
      "t_contract(IVAMM)17392": {
        "encoding": "inplace",
        "label": "contract IVAMM",
        "numberOfBytes": "20"
      },
      "t_contract(IWETH)17404": {
        "encoding": "inplace",
        "label": "contract IWETH",
        "numberOfBytes": "20"
      },
      "t_int256": {
        "encoding": "inplace",
        "label": "int256",
        "numberOfBytes": "32"
      },
      "t_mapping(t_bytes32,t_int256)": {
        "encoding": "mapping",
        "key": "t_bytes32",
        "label": "mapping(bytes32 => int256)",
        "numberOfBytes": "32",
        "value": "t_int256"
      },
      "t_mapping(t_contract(IVAMM)17392,t_int256)": {
        "encoding": "mapping",
        "key": "t_contract(IVAMM)17392",
        "label": "mapping(contract IVAMM => int256)",
        "numberOfBytes": "32",
        "value": "t_int256"
      },
      "t_uint256": {
        "encoding": "inplace",
        "label": "uint256",
        "numberOfBytes": "32"
      },
      "t_uint8": {
        "encoding": "inplace",
        "label": "uint8",
        "numberOfBytes": "1"
      }
    }
  }
}