{
  "address": "0x8c9b66bFB3C975E89e0aC3ACC0F20C831DCFE676",
  "abi": [
    {
      "inputs": [],
      "stateMutability": "nonpayable",
      "type": "constructor"
    },
    {
      "inputs": [],
      "name": "AavePoolGetReserveNormalizedIncomeReturnedZero",
      "type": "error"
    },
    {
      "inputs": [],
      "name": "AavePoolGetReserveNormalizedVariableDebtReturnedZero",
      "type": "error"
    },
    {
      "inputs": [],
      "name": "AaveV3PoolGetReserveNormalizedIncomeReturnedZero",
      "type": "error"
    },
    {
      "inputs": [],
      "name": "CTokenExchangeRateReturnedZero",
      "type": "error"
    },
    {
      "inputs": [
        {
          "internalType": "bool",
          "name": "unlocked",
          "type": "bool"
        }
      ],
      "name": "CanOnlyTradeIfUnlocked",
      "type": "error"
    },
    {
      "inputs": [],
      "name": "CannotLiquidate",
      "type": "error"
    },
    {
      "inputs": [],
      "name": "CannotSettleBeforeMaturity",
      "type": "error"
    },
    {
      "inputs": [
        {
          "internalType": "uint256",
          "name": "x",
          "type": "uint256"
        },
        {
          "internalType": "uint256",
          "name": "y",
          "type": "uint256"
        }
      ],
      "name": "DebugError",
      "type": "error"
    },
    {
      "inputs": [
        {
          "internalType": "int256",
          "name": "amount0",
          "type": "int256"
        },
        {
          "internalType": "int256",
          "name": "amount1",
          "type": "int256"
        }
      ],
      "name": "ExpectedOppositeSigns",
      "type": "error"
    },
    {
      "inputs": [
        {
          "internalType": "uint160",
          "name": "sqrtPriceX96",
          "type": "uint160"
        }
      ],
      "name": "ExpectedSqrtPriceZeroBeforeInit",
      "type": "error"
    },
    {
      "inputs": [],
      "name": "GlpRewardTrackerUnorderedRate",
      "type": "error"
    },
    {
      "inputs": [],
      "name": "IRSNotionalAmountSpecifiedMustBeNonZero",
      "type": "error"
    },
    {
      "inputs": [],
      "name": "InvalidMarginDelta",
      "type": "error"
    },
    {
      "inputs": [],
      "name": "LidoGetPooledEthBySharesReturnedZero",
      "type": "error"
    },
    {
      "inputs": [
        {
          "internalType": "uint128",
          "name": "amount",
          "type": "uint128"
        }
      ],
      "name": "LiquidityDeltaMustBePositiveInBurn",
      "type": "error"
    },
    {
      "inputs": [
        {
          "internalType": "uint128",
          "name": "amount",
          "type": "uint128"
        }
      ],
      "name": "LiquidityDeltaMustBePositiveInMint",
      "type": "error"
    },
    {
      "inputs": [
        {
          "internalType": "int256",
          "name": "marginRequirement",
          "type": "int256"
        }
      ],
      "name": "MarginLessThanMinimum",
      "type": "error"
    },
    {
      "inputs": [
        {
          "internalType": "int256",
          "name": "marginRequirement",
          "type": "int256"
        },
        {
          "internalType": "int24",
          "name": "tick",
          "type": "int24"
        },
        {
          "internalType": "int256",
          "name": "fixedTokenDelta",
          "type": "int256"
        },
        {
          "internalType": "int256",
          "name": "variableTokenDelta",
          "type": "int256"
        },
        {
          "internalType": "uint256",
          "name": "cumulativeFeeIncurred",
          "type": "uint256"
        },
        {
          "internalType": "int256",
          "name": "fixedTokenDeltaUnbalanced",
          "type": "int256"
        }
      ],
      "name": "MarginRequirementNotMet",
      "type": "error"
    },
    {
      "inputs": [
        {
          "internalType": "int256",
          "name": "marginRequirement",
          "type": "int256"
        }
      ],
      "name": "MarginRequirementNotMetFCM",
      "type": "error"
    },
    {
      "inputs": [
        {
          "internalType": "uint256",
          "name": "requested",
          "type": "uint256"
        },
        {
          "internalType": "uint256",
          "name": "available",
          "type": "uint256"
        }
      ],
      "name": "NotEnoughFunds",
      "type": "error"
    },
    {
      "inputs": [],
      "name": "OOO",
      "type": "error"
    },
    {
      "inputs": [],
      "name": "OnlyFCM",
      "type": "error"
    },
    {
      "inputs": [],
      "name": "OnlyMarginEngine",
      "type": "error"
    },
    {
      "inputs": [],
      "name": "OnlyOwnerCanUpdatePosition",
      "type": "error"
    },
    {
      "inputs": [],
      "name": "OnlyVAMM",
      "type": "error"
    },
    {
      "inputs": [
        {
          "internalType": "int256",
          "name": "x",
          "type": "int256"
        }
      ],
      "name": "PRBMathSD59x18__FromIntOverflow",
      "type": "error"
    },
    {
      "inputs": [
        {
          "internalType": "int256",
          "name": "x",
          "type": "int256"
        }
      ],
      "name": "PRBMathSD59x18__FromIntUnderflow",
      "type": "error"
    },
    {
      "inputs": [],
      "name": "PRBMathSD59x18__MulInputTooSmall",
      "type": "error"
    },
    {
      "inputs": [
        {
          "internalType": "uint256",
          "name": "rAbs",
          "type": "uint256"
        }
      ],
      "name": "PRBMathSD59x18__MulOverflow",
      "type": "error"
    },
    {
      "inputs": [
        {
          "internalType": "uint256",
          "name": "x",
          "type": "uint256"
        }
      ],
      "name": "PRBMathUD60x18__FromUintOverflow",
      "type": "error"
    },
    {
      "inputs": [
        {
          "internalType": "uint256",
          "name": "prod1",
          "type": "uint256"
        }
      ],
      "name": "PRBMath__MulDivFixedPointOverflow",
      "type": "error"
    },
    {
      "inputs": [
        {
          "internalType": "uint256",
          "name": "prod1",
          "type": "uint256"
        },
        {
          "internalType": "uint256",
          "name": "denominator",
          "type": "uint256"
        }
      ],
      "name": "PRBMath__MulDivOverflow",
      "type": "error"
    },
    {
      "inputs": [],
      "name": "PositionNetZero",
      "type": "error"
    },
    {
      "inputs": [],
      "name": "PositionNotSettled",
      "type": "error"
    },
    {
      "inputs": [],
      "name": "RocketPoolGetEthValueReturnedZero",
      "type": "error"
    },
    {
      "inputs": [],
      "name": "WithdrawalExceedsCurrentMargin",
      "type": "error"
    },
    {
      "inputs": [],
      "name": "closeToOrBeyondMaturity",
      "type": "error"
    },
    {
      "anonymous": false,
      "inputs": [
        {
          "indexed": false,
          "internalType": "address",
          "name": "previousAdmin",
          "type": "address"
        },
        {
          "indexed": false,
          "internalType": "address",
          "name": "newAdmin",
          "type": "address"
        }
      ],
      "name": "AdminChanged",
      "type": "event"
    },
    {
      "anonymous": false,
      "inputs": [
        {
          "indexed": true,
          "internalType": "address",
          "name": "beacon",
          "type": "address"
        }
      ],
      "name": "BeaconUpgraded",
      "type": "event"
    },
    {
      "anonymous": false,
      "inputs": [
        {
          "indexed": false,
          "internalType": "uint8",
          "name": "version",
          "type": "uint8"
        }
      ],
      "name": "Initialized",
      "type": "event"
    },
    {
      "anonymous": false,
      "inputs": [
        {
          "indexed": false,
          "internalType": "contract IVAMM",
          "name": "vamm",
          "type": "address"
        },
        {
          "indexed": false,
          "internalType": "int256",
          "name": "lpMarginCapNew",
          "type": "int256"
        }
      ],
      "name": "MarginCap",
      "type": "event"
    },
    {
      "anonymous": false,
      "inputs": [
        {
          "indexed": false,
          "internalType": "contract IVAMM",
          "name": "vamm",
          "type": "address"
        },
        {
          "indexed": false,
          "internalType": "int256",
          "name": "lpMarginCumulative",
          "type": "int256"
        }
      ],
      "name": "MarginCumulative",
      "type": "event"
    },
    {
      "anonymous": false,
      "inputs": [
        {
          "components": [
            {
              "internalType": "contract IMarginEngine",
              "name": "marginEngine",
              "type": "address"
            },
            {
              "internalType": "address",
              "name": "owner",
              "type": "address"
            },
            {
              "internalType": "int24",
              "name": "tickLower",
              "type": "int24"
            },
            {
              "internalType": "int24",
              "name": "tickUpper",
              "type": "int24"
            }
          ],
          "indexed": false,
          "internalType": "struct IPeriphery.PositionDetails",
          "name": "position",
          "type": "tuple"
        },
        {
          "indexed": false,
          "internalType": "uint256",
          "name": "notional",
          "type": "uint256"
        },
        {
          "indexed": false,
          "internalType": "bool",
          "name": "isMint",
          "type": "bool"
        },
        {
          "indexed": false,
          "internalType": "int256",
          "name": "positionMarginRequirement",
          "type": "int256"
        }
      ],
      "name": "MintOrBurn",
      "type": "event"
    },
    {
      "anonymous": false,
      "inputs": [
        {
          "indexed": true,
          "internalType": "address",
          "name": "previousOwner",
          "type": "address"
        },
        {
          "indexed": true,
          "internalType": "address",
          "name": "newOwner",
          "type": "address"
        }
      ],
      "name": "OwnershipTransferred",
      "type": "event"
    },
    {
      "anonymous": false,
      "inputs": [
        {
          "components": [
            {
              "internalType": "contract IMarginEngine",
              "name": "marginEngine",
              "type": "address"
            },
            {
              "internalType": "address",
              "name": "owner",
              "type": "address"
            },
            {
              "internalType": "int24",
              "name": "tickLower",
              "type": "int24"
            },
            {
              "internalType": "int24",
              "name": "tickUpper",
              "type": "int24"
            }
          ],
          "indexed": false,
          "internalType": "struct IPeriphery.PositionDetails",
          "name": "oldPosition",
          "type": "tuple"
        },
        {
          "components": [
            {
              "internalType": "contract IMarginEngine",
              "name": "marginEngine",
              "type": "address"
            },
            {
              "internalType": "address",
              "name": "owner",
              "type": "address"
            },
            {
              "internalType": "int24",
              "name": "tickLower",
              "type": "int24"
            },
            {
              "internalType": "int24",
              "name": "tickUpper",
              "type": "int24"
            }
          ],
          "indexed": false,
          "internalType": "struct IPeriphery.PositionDetails",
          "name": "newPosition",
          "type": "tuple"
        },
        {
          "indexed": false,
          "internalType": "uint256",
          "name": "notional",
          "type": "uint256"
        },
        {
          "indexed": false,
          "internalType": "bool",
          "name": "isMint",
          "type": "bool"
        },
        {
          "indexed": false,
          "internalType": "int256",
          "name": "newPositionMarginRequirement",
          "type": "int256"
        }
      ],
      "name": "RolloverWithMint",
      "type": "event"
    },
    {
      "anonymous": false,
      "inputs": [
        {
          "components": [
            {
              "internalType": "contract IMarginEngine",
              "name": "marginEngine",
              "type": "address"
            },
            {
              "internalType": "address",
              "name": "owner",
              "type": "address"
            },
            {
              "internalType": "int24",
              "name": "tickLower",
              "type": "int24"
            },
            {
              "internalType": "int24",
              "name": "tickUpper",
              "type": "int24"
            }
          ],
          "indexed": false,
          "internalType": "struct IPeriphery.PositionDetails",
          "name": "oldPosition",
          "type": "tuple"
        },
        {
          "components": [
            {
              "internalType": "contract IMarginEngine",
              "name": "marginEngine",
              "type": "address"
            },
            {
              "internalType": "address",
              "name": "owner",
              "type": "address"
            },
            {
              "internalType": "int24",
              "name": "tickLower",
              "type": "int24"
            },
            {
              "internalType": "int24",
              "name": "tickUpper",
              "type": "int24"
            }
          ],
          "indexed": false,
          "internalType": "struct IPeriphery.PositionDetails",
          "name": "newPosition",
          "type": "tuple"
        },
        {
          "indexed": false,
          "internalType": "bool",
          "name": "isFT",
          "type": "bool"
        },
        {
          "indexed": false,
          "internalType": "uint256",
          "name": "notional",
          "type": "uint256"
        },
        {
          "components": [
            {
              "internalType": "int256",
              "name": "fixedTokenDelta",
              "type": "int256"
            },
            {
              "internalType": "int256",
              "name": "variableTokenDelta",
              "type": "int256"
            },
            {
              "internalType": "uint256",
              "name": "cumulativeFeeIncurred",
              "type": "uint256"
            },
            {
              "internalType": "int256",
              "name": "fixedTokenDeltaUnbalanced",
              "type": "int256"
            },
            {
              "internalType": "int256",
              "name": "marginRequirement",
              "type": "int256"
            }
          ],
          "indexed": false,
          "internalType": "struct IPeriphery.SwapOutput",
          "name": "output",
          "type": "tuple"
        }
      ],
      "name": "RolloverWithSwap",
      "type": "event"
    },
    {
      "anonymous": false,
      "inputs": [
        {
          "components": [
            {
              "internalType": "contract IMarginEngine",
              "name": "marginEngine",
              "type": "address"
            },
            {
              "internalType": "address",
              "name": "owner",
              "type": "address"
            },
            {
              "internalType": "int24",
              "name": "tickLower",
              "type": "int24"
            },
            {
              "internalType": "int24",
              "name": "tickUpper",
              "type": "int24"
            }
          ],
          "indexed": false,
          "internalType": "struct IPeriphery.PositionDetails",
          "name": "position",
          "type": "tuple"
        }
      ],
      "name": "SettlePositionAndWithdrawMargin",
      "type": "event"
    },
    {
      "anonymous": false,
      "inputs": [
        {
          "components": [
            {
              "internalType": "contract IMarginEngine",
              "name": "marginEngine",
              "type": "address"
            },
            {
              "internalType": "address",
              "name": "owner",
              "type": "address"
            },
            {
              "internalType": "int24",
              "name": "tickLower",
              "type": "int24"
            },
            {
              "internalType": "int24",
              "name": "tickUpper",
              "type": "int24"
            }
          ],
          "indexed": false,
          "internalType": "struct IPeriphery.PositionDetails",
          "name": "position",
          "type": "tuple"
        },
        {
          "indexed": false,
          "internalType": "bool",
          "name": "isFT",
          "type": "bool"
        },
        {
          "indexed": false,
          "internalType": "uint256",
          "name": "notional",
          "type": "uint256"
        },
        {
          "components": [
            {
              "internalType": "int256",
              "name": "fixedTokenDelta",
              "type": "int256"
            },
            {
              "internalType": "int256",
              "name": "variableTokenDelta",
              "type": "int256"
            },
            {
              "internalType": "uint256",
              "name": "cumulativeFeeIncurred",
              "type": "uint256"
            },
            {
              "internalType": "int256",
              "name": "fixedTokenDeltaUnbalanced",
              "type": "int256"
            },
            {
              "internalType": "int256",
              "name": "marginRequirement",
              "type": "int256"
            }
          ],
          "indexed": false,
          "internalType": "struct IPeriphery.SwapOutput",
          "name": "output",
          "type": "tuple"
        }
      ],
      "name": "Swap",
      "type": "event"
    },
    {
      "anonymous": false,
      "inputs": [
        {
          "components": [
            {
              "internalType": "contract IMarginEngine",
              "name": "marginEngine",
              "type": "address"
            },
            {
              "internalType": "address",
              "name": "owner",
              "type": "address"
            },
            {
              "internalType": "int24",
              "name": "tickLower",
              "type": "int24"
            },
            {
              "internalType": "int24",
              "name": "tickUpper",
              "type": "int24"
            }
          ],
          "indexed": false,
          "internalType": "struct IPeriphery.PositionDetails",
          "name": "position",
          "type": "tuple"
        },
        {
          "indexed": false,
          "internalType": "int256",
          "name": "marginDelta",
          "type": "int256"
        },
        {
          "indexed": false,
          "internalType": "bool",
          "name": "fullyWithdraw",
          "type": "bool"
        }
      ],
      "name": "UpdatePositionMargin",
      "type": "event"
    },
    {
      "anonymous": false,
      "inputs": [
        {
          "indexed": true,
          "internalType": "address",
          "name": "implementation",
          "type": "address"
        }
      ],
      "name": "Upgraded",
      "type": "event"
    },
    {
      "inputs": [
        {
          "components": [
            {
              "internalType": "contract IMarginEngine",
              "name": "marginEngine",
              "type": "address"
            },
            {
              "internalType": "bool",
              "name": "isFT",
              "type": "bool"
            },
            {
              "internalType": "uint256",
              "name": "notional",
              "type": "uint256"
            },
            {
              "internalType": "uint160",
              "name": "sqrtPriceLimitX96",
              "type": "uint160"
            },
            {
              "internalType": "int24",
              "name": "tickLower",
              "type": "int24"
            },
            {
              "internalType": "int24",
              "name": "tickUpper",
              "type": "int24"
            },
            {
              "internalType": "int256",
              "name": "marginDelta",
              "type": "int256"
            }
          ],
          "internalType": "struct IPeriphery.SwapPeripheryParams",
          "name": "params",
          "type": "tuple"
        },
        {
          "internalType": "uint256",
          "name": "variableFactorFromStartToNowWad",
          "type": "uint256"
        }
      ],
      "name": "fullyCollateralisedVTSwap",
      "outputs": [
        {
          "internalType": "int256",
          "name": "_fixedTokenDelta",
          "type": "int256"
        },
        {
          "internalType": "int256",
          "name": "_variableTokenDelta",
          "type": "int256"
        },
        {
          "internalType": "uint256",
          "name": "_cumulativeFeeIncurred",
          "type": "uint256"
        },
        {
          "internalType": "int256",
          "name": "_fixedTokenDeltaUnbalanced",
          "type": "int256"
        },
        {
          "internalType": "int256",
          "name": "_marginRequirement",
          "type": "int256"
        },
        {
          "internalType": "int24",
          "name": "_tickAfter",
          "type": "int24"
        },
        {
          "internalType": "int256",
          "name": "marginDelta",
          "type": "int256"
        }
      ],
      "stateMutability": "payable",
      "type": "function"
    },
    {
      "inputs": [
        {
          "internalType": "contract IMarginEngine",
          "name": "marginEngine",
          "type": "address"
        }
      ],
      "name": "getCurrentTick",
      "outputs": [
        {
          "internalType": "int24",
          "name": "currentTick",
          "type": "int24"
        }
      ],
      "stateMutability": "view",
      "type": "function"
    },
    {
      "inputs": [
        {
          "internalType": "uint160",
          "name": "sqrtRatioAX96",
          "type": "uint160"
        },
        {
          "internalType": "uint160",
          "name": "sqrtRatioBX96",
          "type": "uint160"
        },
        {
          "internalType": "uint256",
          "name": "notionalAmount",
          "type": "uint256"
        }
      ],
      "name": "getLiquidityForNotional",
      "outputs": [
        {
          "internalType": "uint128",
          "name": "liquidity",
          "type": "uint128"
        }
      ],
      "stateMutability": "pure",
      "type": "function"
    },
    {
      "inputs": [
        {
          "internalType": "contract IWETH",
          "name": "weth_",
          "type": "address"
        }
      ],
      "name": "initialize",
      "outputs": [],
      "stateMutability": "nonpayable",
      "type": "function"
    },
    {
      "inputs": [
        {
          "internalType": "contract IVAMM",
          "name": "vamm",
          "type": "address"
        }
      ],
      "name": "lpMarginCaps",
      "outputs": [
        {
          "internalType": "int256",
          "name": "",
          "type": "int256"
        }
      ],
      "stateMutability": "view",
      "type": "function"
    },
    {
      "inputs": [
        {
          "internalType": "contract IVAMM",
          "name": "vamm",
          "type": "address"
        }
      ],
      "name": "lpMarginCumulatives",
      "outputs": [
        {
          "internalType": "int256",
          "name": "",
          "type": "int256"
        }
      ],
      "stateMutability": "view",
      "type": "function"
    },
    {
      "inputs": [
        {
          "components": [
            {
              "internalType": "contract IMarginEngine",
              "name": "marginEngine",
              "type": "address"
            },
            {
              "internalType": "int24",
              "name": "tickLower",
              "type": "int24"
            },
            {
              "internalType": "int24",
              "name": "tickUpper",
              "type": "int24"
            },
            {
              "internalType": "uint256",
              "name": "notional",
              "type": "uint256"
            },
            {
              "internalType": "bool",
              "name": "isMint",
              "type": "bool"
            },
            {
              "internalType": "int256",
              "name": "marginDelta",
              "type": "int256"
            }
          ],
          "internalType": "struct IPeriphery.MintOrBurnParams",
          "name": "params",
          "type": "tuple"
        }
      ],
      "name": "mintOrBurn",
      "outputs": [
        {
          "internalType": "int256",
          "name": "positionMarginRequirement",
          "type": "int256"
        }
      ],
      "stateMutability": "payable",
      "type": "function"
    },
    {
      "inputs": [],
      "name": "owner",
      "outputs": [
        {
          "internalType": "address",
          "name": "",
          "type": "address"
        }
      ],
      "stateMutability": "view",
      "type": "function"
    },
    {
      "inputs": [],
      "name": "proxiableUUID",
      "outputs": [
        {
          "internalType": "bytes32",
          "name": "",
          "type": "bytes32"
        }
      ],
      "stateMutability": "view",
      "type": "function"
    },
    {
      "inputs": [],
      "name": "renounceOwnership",
      "outputs": [],
      "stateMutability": "nonpayable",
      "type": "function"
    },
    {
      "inputs": [
        {
          "internalType": "contract IMarginEngine",
          "name": "marginEngine",
          "type": "address"
        },
        {
          "internalType": "address",
          "name": "owner",
          "type": "address"
        },
        {
          "internalType": "int24",
          "name": "tickLower",
          "type": "int24"
        },
        {
          "internalType": "int24",
          "name": "tickUpper",
          "type": "int24"
        },
        {
          "components": [
            {
              "internalType": "contract IMarginEngine",
              "name": "marginEngine",
              "type": "address"
            },
            {
              "internalType": "int24",
              "name": "tickLower",
              "type": "int24"
            },
            {
              "internalType": "int24",
              "name": "tickUpper",
              "type": "int24"
            },
            {
              "internalType": "uint256",
              "name": "notional",
              "type": "uint256"
            },
            {
              "internalType": "bool",
              "name": "isMint",
              "type": "bool"
            },
            {
              "internalType": "int256",
              "name": "marginDelta",
              "type": "int256"
            }
          ],
          "internalType": "struct IPeriphery.MintOrBurnParams",
          "name": "paramsNewPosition",
          "type": "tuple"
        }
      ],
      "name": "rolloverWithMint",
      "outputs": [
        {
          "internalType": "int256",
          "name": "newPositionMarginRequirement",
          "type": "int256"
        }
      ],
      "stateMutability": "payable",
      "type": "function"
    },
    {
      "inputs": [
        {
          "internalType": "contract IMarginEngine",
          "name": "marginEngine",
          "type": "address"
        },
        {
          "internalType": "address",
          "name": "owner",
          "type": "address"
        },
        {
          "internalType": "int24",
          "name": "tickLower",
          "type": "int24"
        },
        {
          "internalType": "int24",
          "name": "tickUpper",
          "type": "int24"
        },
        {
          "components": [
            {
              "internalType": "contract IMarginEngine",
              "name": "marginEngine",
              "type": "address"
            },
            {
              "internalType": "bool",
              "name": "isFT",
              "type": "bool"
            },
            {
              "internalType": "uint256",
              "name": "notional",
              "type": "uint256"
            },
            {
              "internalType": "uint160",
              "name": "sqrtPriceLimitX96",
              "type": "uint160"
            },
            {
              "internalType": "int24",
              "name": "tickLower",
              "type": "int24"
            },
            {
              "internalType": "int24",
              "name": "tickUpper",
              "type": "int24"
            },
            {
              "internalType": "int256",
              "name": "marginDelta",
              "type": "int256"
            }
          ],
          "internalType": "struct IPeriphery.SwapPeripheryParams",
          "name": "paramsNewPosition",
          "type": "tuple"
        }
      ],
      "name": "rolloverWithSwap",
      "outputs": [
        {
          "internalType": "int256",
          "name": "_fixedTokenDelta",
          "type": "int256"
        },
        {
          "internalType": "int256",
          "name": "_variableTokenDelta",
          "type": "int256"
        },
        {
          "internalType": "uint256",
          "name": "_cumulativeFeeIncurred",
          "type": "uint256"
        },
        {
          "internalType": "int256",
          "name": "_fixedTokenDeltaUnbalanced",
          "type": "int256"
        },
        {
          "internalType": "int256",
          "name": "_marginRequirement",
          "type": "int256"
        },
        {
          "internalType": "int24",
          "name": "_tickAfter",
          "type": "int24"
        }
      ],
      "stateMutability": "payable",
      "type": "function"
    },
    {
      "inputs": [
        {
          "internalType": "contract IVAMM",
          "name": "vamm",
          "type": "address"
        },
        {
          "internalType": "int256",
          "name": "lpMarginCapNew",
          "type": "int256"
        }
      ],
      "name": "setLPMarginCap",
      "outputs": [],
      "stateMutability": "nonpayable",
      "type": "function"
    },
    {
      "inputs": [
        {
          "internalType": "contract IVAMM",
          "name": "vamm",
          "type": "address"
        },
        {
          "internalType": "int256",
          "name": "lpMarginCumulative",
          "type": "int256"
        }
      ],
      "name": "setLPMarginCumulative",
      "outputs": [],
      "stateMutability": "nonpayable",
      "type": "function"
    },
    {
      "inputs": [
        {
          "internalType": "contract IMarginEngine",
          "name": "marginEngine",
          "type": "address"
        },
        {
          "internalType": "address",
          "name": "owner",
          "type": "address"
        },
        {
          "internalType": "int24",
          "name": "tickLower",
          "type": "int24"
        },
        {
          "internalType": "int24",
          "name": "tickUpper",
          "type": "int24"
        }
      ],
      "name": "settlePositionAndWithdrawMargin",
      "outputs": [],
      "stateMutability": "nonpayable",
      "type": "function"
    },
    {
      "inputs": [
        {
          "components": [
            {
              "internalType": "contract IMarginEngine",
              "name": "marginEngine",
              "type": "address"
            },
            {
              "internalType": "bool",
              "name": "isFT",
              "type": "bool"
            },
            {
              "internalType": "uint256",
              "name": "notional",
              "type": "uint256"
            },
            {
              "internalType": "uint160",
              "name": "sqrtPriceLimitX96",
              "type": "uint160"
            },
            {
              "internalType": "int24",
              "name": "tickLower",
              "type": "int24"
            },
            {
              "internalType": "int24",
              "name": "tickUpper",
              "type": "int24"
            },
            {
              "internalType": "int256",
              "name": "marginDelta",
              "type": "int256"
            }
          ],
          "internalType": "struct IPeriphery.SwapPeripheryParams",
          "name": "params",
          "type": "tuple"
        }
      ],
      "name": "swap",
      "outputs": [
        {
          "internalType": "int256",
          "name": "_fixedTokenDelta",
          "type": "int256"
        },
        {
          "internalType": "int256",
          "name": "_variableTokenDelta",
          "type": "int256"
        },
        {
          "internalType": "uint256",
          "name": "_cumulativeFeeIncurred",
          "type": "uint256"
        },
        {
          "internalType": "int256",
          "name": "_fixedTokenDeltaUnbalanced",
          "type": "int256"
        },
        {
          "internalType": "int256",
          "name": "_marginRequirement",
          "type": "int256"
        },
        {
          "internalType": "int24",
          "name": "_tickAfter",
          "type": "int24"
        },
        {
          "internalType": "int256",
          "name": "marginDelta",
          "type": "int256"
        }
      ],
      "stateMutability": "payable",
      "type": "function"
    },
    {
      "inputs": [
        {
          "internalType": "address",
          "name": "newOwner",
          "type": "address"
        }
      ],
      "name": "transferOwnership",
      "outputs": [],
      "stateMutability": "nonpayable",
      "type": "function"
    },
    {
      "inputs": [
        {
          "internalType": "contract IMarginEngine",
          "name": "marginEngine",
          "type": "address"
        },
        {
          "internalType": "int24",
          "name": "tickLower",
          "type": "int24"
        },
        {
          "internalType": "int24",
          "name": "tickUpper",
          "type": "int24"
        },
        {
          "internalType": "int256",
          "name": "marginDelta",
          "type": "int256"
        },
        {
          "internalType": "bool",
          "name": "fullyWithdraw",
          "type": "bool"
        }
      ],
      "name": "updatePositionMargin",
      "outputs": [
        {
          "internalType": "int256",
          "name": "",
          "type": "int256"
        }
      ],
      "stateMutability": "payable",
      "type": "function"
    },
    {
      "inputs": [
        {
          "internalType": "address",
          "name": "newImplementation",
          "type": "address"
        }
      ],
      "name": "upgradeTo",
      "outputs": [],
      "stateMutability": "nonpayable",
      "type": "function"
    },
    {
      "inputs": [
        {
          "internalType": "address",
          "name": "newImplementation",
          "type": "address"
        },
        {
          "internalType": "bytes",
          "name": "data",
          "type": "bytes"
        }
      ],
      "name": "upgradeToAndCall",
      "outputs": [],
      "stateMutability": "payable",
      "type": "function"
    },
    {
      "inputs": [],
      "name": "weth",
      "outputs": [
        {
          "internalType": "contract IWETH",
          "name": "",
          "type": "address"
        }
      ],
      "stateMutability": "view",
      "type": "function"
    }
  ],
  "transactionHash": "0xee78ac16c344c4d8d081888bd00df03201f68dc6eeea4cbad39205c0365d2d28",
  "args": [],
  "numDeployments": 3,
  "solcInputHash": "0ea54e86600ecfed09a2815637b1a3d6",
  "bytecode": "0x60a0604052306080523480156200001557600080fd5b50603654610100900460ff1615808015620000375750603654600160ff909116105b8062000067575062000054306200014160201b620023c71760201c565b15801562000067575060365460ff166001145b620000cf5760405162461bcd60e51b815260206004820152602e60248201527f496e697469616c697a61626c653a20636f6e747261637420697320616c72656160448201526d191e481a5b9a5d1a585b1a5e995960921b606482015260840160405180910390fd5b6036805460ff191660011790558015620000f3576036805461ff0019166101001790555b80156200013a576036805461ff0019169055604051600181527f7f26b83ff96e1f2b6a682f133852f6798a09c465da95921460cefb38474024989060200160405180910390a15b5062000150565b6001600160a01b03163b151590565b60805161452f6200018860003960008181610cb201528181610cf201528181610d7b01528181610dbb0152610e37015261452f6000f3fe6080604052600436106100fa5760003560e01c8063040a5dc1146100ff5780631b44093d146101375780632676938b1461015957806332e00daf146101915780633659cfe6146101b25780633fc8cef3146101d25780634f1ef286146101f957806352d1902d1461020c57806357b69a681461022157806361b024521461026c578063715018a6146102a257806378164868146102b7578063782085b5146102fa57806378f70b87146103305780638da5cb5b14610343578063932e0eff14610358578063c19be5951461036b578063c4d66de81461038b578063efa7c3d6146103ab578063f2fde38b146103cb578063f9396407146103eb575b600080fd5b34801561010b57600080fd5b5061011f61011a366004613732565b6103fe565b60405160029190910b81526020015b60405180910390f35b34801561014357600080fd5b5061015761015236600461374f565b6104f0565b005b34801561016557600080fd5b5061017961017436600461377b565b610618565b6040516001600160801b03909116815260200161012e565b6101a461019f3660046138f3565b61066b565b60405190815260200161012e565b3480156101be57600080fd5b506101576101cd366004613732565b610ca7565b3480156101de57600080fd5b506000546001600160a01b03165b60405161012e919061390f565b610157610207366004613923565b610d70565b34801561021857600080fd5b506101a4610e2a565b61023461022f366004613a76565b610ed8565b604080519788526020880196909652948601939093526060850191909152608084015260020b60a083015260c082015260e00161012e565b34801561027857600080fd5b506101a4610287366004613732565b6001600160a01b031660009081526002602052604090205490565b3480156102ae57600080fd5b506101576110ae565b6102ca6102c5366004613aa2565b6110c2565b604080519687526020870195909552938501929092526060840152608083015260020b60a082015260c00161012e565b34801561030657600080fd5b506101a4610315366004613732565b6001600160a01b031660009081526001602052604090205490565b6101a461033e366004613b11565b6111ef565b34801561034f57600080fd5b506101ec611311565b610234610366366004613b74565b611320565b34801561037757600080fd5b50610157610386366004613b90565b6118f3565b34801561039757600080fd5b506101576103a6366004613732565b6119cc565b3480156103b757600080fd5b506101576103c636600461374f565b611b4e565b3480156103d757600080fd5b506101576103e6366004613732565b611c5f565b6101a46103f9366004613bec565b611cd5565b600080826001600160a01b031663e098372c6040518163ffffffff1660e01b815260040160206040518083038186803b15801561043a57600080fd5b505afa15801561044e573d6000803e3d6000fd5b505050506040513d601f19601f820116820180604052508101906104729190613c54565b9050806001600160a01b03166380a0f76c6040518163ffffffff1660e01b815260040160606040518083038186803b1580156104ad57600080fd5b505afa1580156104c1573d6000803e3d6000fd5b505050506040513d601f19601f820116820180604052508101906104e59190613c71565b602001519392505050565b816001600160a01b0381166105205760405162461bcd60e51b815260040161051790613ce8565b60405180910390fd5b6000816001600160a01b0316638da5cb5b6040518163ffffffff1660e01b815260040160206040518083038186803b15801561055b57600080fd5b505afa15801561056f573d6000803e3d6000fd5b505050506040513d601f19601f820116820180604052508101906105939190613c54565b9050336001600160a01b038216146105bd5760405162461bcd60e51b815260040161051790613d10565b6001600160a01b03841660009081526001602052604090819020849055517f359cd6003fbab20721d687a623408d04791a7b8de287826b2590c13db66f02fb9061060a9086908690613d39565b60405180910390a150505050565b6000826001600160a01b0316846001600160a01b03161115610638579192915b61066161065c83600160601b61064e8888613d68565b6001600160a01b03166123d6565b6124e9565b90505b9392505050565b600061067f82602001518360400151612556565b600082600001516001600160a01b031663e098372c6040518163ffffffff1660e01b815260040160206040518083038186803b1580156106be57600080fd5b505afa1580156106d2573d6000803e3d6000fd5b505050506040513d601f19601f820116820180604052508101906106f69190613c54565b835160208501516040808701519051634904f4dd60e11b81529394506000936001600160a01b0390931692639209e9ba92610735923392600401613d90565b61014060405180830381600087803b15801561075057600080fd5b505af1158015610764573d6000803e3d6000fd5b505050506040513d601f19601f820116820180604052508101906107889190613dd7565b9050600084600001516001600160a01b031663884287526040518163ffffffff1660e01b815260040160206040518083038186803b1580156107c957600080fd5b505afa1580156107dd573d6000803e3d6000fd5b505050506040513d601f19601f820116820180604052508101906108019190613e6c565b90506000338487600001518860200151896040015160405160200161082a959493929190613e89565b60405160208183030381529060405280519060200120905060008084602001516001600160801b03161190508280156108605750805b1561088e5760008281526003602052604090205461088e576040808501516000848152600360205291909120555b6000856001600160a01b03166380a0f76c6040518163ffffffff1660e01b815260040160606040518083038186803b1580156108c957600080fd5b505afa1580156108dd573d6000803e3d6000fd5b505050506040513d601f19601f820116820180604052508101906109019190613c71565b805160208a01519192506001600160a01b031615159060009061092390612617565b905060006109348b60400151612617565b9050826109ce57600060028c604001518d602001516109539190613ec9565b61095d9190613f26565b9050600061096a82612617565b6040516323fbaf6f60e11b81529091506001600160a01b038c16906347f75ede9061099990849060040161390f565b600060405180830381600087803b1580156109b357600080fd5b505af11580156109c7573d6000803e3d6000fd5b5050505050505b60a08b01511515806109e05750600034115b15610a0557610a038b600001518c602001518d604001518e60a001516000611cd5565b505b6000610a1683838e60600151610618565b905060009a508b6080015115610ab95760208c01516040808e01519051635c6651a760e11b81526001600160a01b038d169263b8cca34e92610a6092339291908790600401613f60565b602060405180830381600087803b158015610a7a57600080fd5b505af1158015610a8e573d6000803e3d6000fd5b505050506040513d601f19601f82011682018060405250810190610ab29190613f93565b9a50610b48565b60208c01516040808e01519051631f2f089360e01b81526001600160a01b038d1692631f2f089392610af392339291908790600401613f60565b602060405180830381600087803b158015610b0d57600080fd5b505af1158015610b21573d6000803e3d6000fd5b505050506040513d601f19601f82011682018060405250810190610b459190613f93565b9a505b8b5160208d01516040808f01519051634904f4dd60e11b81526001600160a01b0390931692639209e9ba92610b81923392600401613d90565b61014060405180830381600087803b158015610b9c57600080fd5b505af1158015610bb0573d6000803e3d6000fd5b505050506040513d601f19601f82011682018060405250810190610bd49190613dd7565b60208101519099506001600160801b03161515888015610bf857508680610bf85750805b15610c0e57610c0e8b898c604001518a856129ac565b7f420e1933a11dc3afb4a4c96d4760053d12f80cad7fd9febd0fa8eca80d76cd2b60405180608001604052808f600001516001600160a01b03168152602001336001600160a01b031681526020018f6020015160020b81526020018f6040015160020b8152508e606001518f608001518f604051610c8f9493929190613fe4565b60405180910390a15050505050505050505050919050565b306001600160a01b037f0000000000000000000000000000000000000000000000000000000000000000161415610cf05760405162461bcd60e51b81526004016105179061400d565b7f00000000000000000000000000000000000000000000000000000000000000006001600160a01b0316610d22612ae9565b6001600160a01b031614610d485760405162461bcd60e51b815260040161051790614047565b610d5181612b05565b60408051600080825260208201909252610d6d91839190612b0d565b50565b306001600160a01b037f0000000000000000000000000000000000000000000000000000000000000000161415610db95760405162461bcd60e51b81526004016105179061400d565b7f00000000000000000000000000000000000000000000000000000000000000006001600160a01b0316610deb612ae9565b6001600160a01b031614610e115760405162461bcd60e51b815260040161051790614047565b610e1a82612b05565b610e2682826001612b0d565b5050565b6000306001600160a01b037f00000000000000000000000000000000000000000000000000000000000000001614610ec55760405162461bcd60e51b815260206004820152603860248201527f555550535570677261646561626c653a206d757374206e6f742062652063616c6044820152771b1959081d1a1c9bdd59da0819195b1959d85d1958d85b1b60421b6064820152608401610517565b506000805160206144b383398151915290565b6000806000806000806000886020015115156000151514610f2e5760405162461bcd60e51b815260206004820152601060248201526f6f6e6c7920666320565420737761707360801b6044820152606401610517565b610f3789611320565b8f516040805163652c30b760e01b81529051989f50969d50949b509299509097509550935091611045918a918a916001600160a01b0386169163652c30b791600480820192602092909190829003018186803b158015610f9657600080fd5b505afa158015610faa573d6000803e3d6000fd5b505050506040513d601f19601f82011682018060405250810190610fce9190613f93565b846001600160a01b03166393edb4546040518163ffffffff1660e01b815260040160206040518083038186803b15801561100757600080fd5b505afa15801561101b573d6000803e3d6000fd5b505050506040513d601f19601f8201168201806040525081019061103f9190613f93565b8d612c8c565b61104e90614081565b61105787612cf5565b611061919061409e565b8212156110a15760405162461bcd60e51b815260206004820152600e60248201526d56542073776170206e6f7420666360901b6044820152606401610517565b5092959891949750929550565b6110b6612d5f565b6110c06000612dbe565b565b6000806000806000806110d78b8b8b8b6118f3565b6110e087611320565b50809650819750829850839950849a50859b505050505050507f33df4844b3b3e31a1d69cc583b1ce718c0d0df715bfcee55b25eeb8a9324cb2760405180608001604052808d6001600160a01b031681526020018c6001600160a01b031681526020018b60020b81526020018a60020b81525060405180608001604052808a600001516001600160a01b03168152602001336001600160a01b031681526020018a6080015160020b81526020018a60a0015160020b81525089602001518a604001516040518060a001604052808c81526020018b81526020018a8152602001898152602001888152506040516111da95949392919061410f565b60405180910390a19550955095509550955095565b6000816080015161122e5760405162461bcd60e51b81526020600482015260096024820152681bdb9b1e481b5a5b9d60ba1b6044820152606401610517565b61123a868686866118f3565b6112438261066b565b90507f247f6ac9398116219ef05e9cea710ddb183c637f4903730c54e5eeb192de44b46040518060800160405280886001600160a01b03168152602001876001600160a01b031681526020018660020b81526020018560020b815250604051806080016040528085600001516001600160a01b03168152602001336001600160a01b03168152602001856020015160020b8152602001856040015160020b8152508460600151856080015185604051611300959493929190614149565b60405180910390a195945050505050565b6069546001600160a01b031690565b6000806000806000806000808860c0015112801561133e5750600034115b1561138b5760405162461bcd60e51b815260206004820152601e60248201527f4f6e6c7920616464206f72206f6e6c792072656d6f7665206d617267696e00006044820152606401610517565b61139d88608001518960a00151612556565b600088600001516001600160a01b031663e098372c6040518163ffffffff1660e01b815260040160206040518083038186803b1580156113dc57600080fd5b505afa1580156113f0573d6000803e3d6000fd5b505050506040513d601f19601f820116820180604052508101906114149190613c54565b9050886080015160020b6000148015611432575060a089015160020b155b1561159f576000816001600160a01b031663d0c93a7c6040518163ffffffff1660e01b815260040160206040518083038186803b15801561147257600080fd5b505afa158015611486573d6000803e3d6000fd5b505050506040513d601f19601f820116820180604052508101906114aa9190614184565b90506000826001600160a01b03166380a0f76c6040518163ffffffff1660e01b815260040160606040518083038186803b1580156114e757600080fd5b505afa1580156114fb573d6000803e3d6000fd5b505050506040513d601f19601f8201168201806040525081019061151f9190613c71565b9050600082826020015161153391906141a1565b905060008383602001516115479190613ec9565b905062010deb19600283900b12156115615762010deb1991505b61156e62010deb196141e9565b60020b8160020b131561158b5761158862010deb196141e9565b90505b600291820b60808e0152900b60a08c015250505b60008960c0015113806115b25750600034115b156115d8576115d589600001518a608001518b60a001518c60c001516000611cd5565b91505b60008960200151156115f8576115f18a60400151612cf5565b9050611611565b6116058a60400151612cf5565b61160e90614081565b90505b60006040518060a00160405280336001600160a01b031681526020018381526020018c606001516001600160a01b0316600014611652578c60600151611690565b8c60200151156116795761167460016c1fa71f3f5f68a90479ee3f8fec613d68565b611690565b6116906b0816769404766de590afe04e600161420c565b6001600160a01b031681526020018c6080015160020b81526020018c60a0015160020b8152509050826001600160a01b03166367758e6e826040518263ffffffff1660e01b815260040161172b9190600060a08201905060018060a01b038084511683526020840151602084015280604085015116604084015250606083015160020b6060830152608083015160020b608083015292915050565b60a060405180830381600087803b15801561174557600080fd5b505af1158015611759573d6000803e3d6000fd5b505050506040513d601f19601f8201168201806040525081019061177d9190614237565b809a50819b50829c50839d50849e505050505050826001600160a01b03166380a0f76c6040518163ffffffff1660e01b815260040160606040518083038186803b1580156117ca57600080fd5b505afa1580156117de573d6000803e3d6000fd5b505050506040513d601f19601f820116820180604052508101906118029190613c71565b60200151945060008b60c001511215611836576118338b600001518c608001518d60a001518e60c001516000611cd5565b93505b7f620fa83d27696bcfbf96de1d51ac27f7c13fa2348f257d88d047db4ba47544ee60405180608001604052808d600001516001600160a01b03168152602001336001600160a01b031681526020018d6080015160020b81526020018d60a0015160020b8152508c602001518d604001516040518060a001604052808f81526020018e81526020018d81526020018c81526020018b8152506040516118dd9493929190614277565b60405180910390a1505050919395979092949650565b60405163a725b96560e01b81526001600160a01b0385169063a725b9659061192390869086908690600401613d90565b600060405180830381600087803b15801561193d57600080fd5b505af1158015611951573d6000803e3d6000fd5b5050505061196484838360006001611cd5565b507f6cb435eaaf2f19339c8ab01fd49dae1aa357c3e0167921aef5e1f323335172f26040518060800160405280866001600160a01b03168152602001856001600160a01b031681526020018460020b81526020018360020b81525060405161060a91906142a1565b603654610100900460ff16158080156119ec5750603654600160ff909116105b80611a0d57506119fb306123c7565b158015611a0d575060365460ff166001145b611a705760405162461bcd60e51b815260206004820152602e60248201527f496e697469616c697a61626c653a20636f6e747261637420697320616c72656160448201526d191e481a5b9a5d1a585b1a5e995960921b6064820152608401610517565b6036805460ff191660011790558015611a93576036805461ff0019166101001790555b6001600160a01b038216611ada5760405162461bcd60e51b815260206004820152600e60248201526d776574682061646472207a65726f60901b6044820152606401610517565b600080546001600160a01b0319166001600160a01b038416179055611afd612e10565b611b05612e3f565b8015610e26576036805461ff0019169055604051600181527f7f26b83ff96e1f2b6a682f133852f6798a09c465da95921460cefb38474024989060200160405180910390a15050565b816001600160a01b038116611b755760405162461bcd60e51b815260040161051790613ce8565b6000816001600160a01b0316638da5cb5b6040518163ffffffff1660e01b815260040160206040518083038186803b158015611bb057600080fd5b505afa158015611bc4573d6000803e3d6000fd5b505050506040513d601f19601f82011682018060405250810190611be89190613c54565b9050336001600160a01b03821614611c125760405162461bcd60e51b815260040161051790613d10565b6001600160a01b03841660009081526002602052604090819020849055517fd0128d2be36aa34fcd4e39ec67b43a44685a360ca5f2831976f67fc5852a69059061060a9086908690613d39565b611c67612d5f565b6001600160a01b038116611ccc5760405162461bcd60e51b815260206004820152602660248201527f4f776e61626c653a206e6577206f776e657220697320746865207a65726f206160448201526564647265737360d01b6064820152608401610517565b610d6d81612dbe565b600080866001600160a01b0316639209e9ba3388886040518463ffffffff1660e01b8152600401611d0893929190613d90565b61014060405180830381600087803b158015611d2357600080fd5b505af1158015611d37573d6000803e3d6000fd5b505050506040513d601f19601f82011682018060405250810190611d5b9190613dd7565b90506000876001600160a01b031663884287526040518163ffffffff1660e01b815260040160206040518083038186803b158015611d9857600080fd5b505afa158015611dac573d6000803e3d6000fd5b505050506040513d601f19601f82011682018060405250810190611dd09190613e6c565b90506000886001600160a01b031663e098372c6040518163ffffffff1660e01b815260040160206040518083038186803b158015611e0d57600080fd5b505afa158015611e21573d6000803e3d6000fd5b505050506040513d601f19601f82011682018060405250810190611e459190613c54565b9050600033828b8b8b604051602001611e62959493929190613e89565b604051602081830303815290604052805190602001209050828015611e945750600084602001516001600160801b0316115b15611ec257600081815260036020526040902054611ec2576040808501516000838152600360205291909120555b60008a6001600160a01b0316632495a5996040518163ffffffff1660e01b815260040160206040518083038186803b158015611efd57600080fd5b505afa158015611f11573d6000803e3d6000fd5b505050506040513d601f19601f82011682018060405250810190611f359190613c54565b90508615611f4e578460400151611f4b90614081565b97505b6000546001600160a01b038281169116141561218c576000881215611fd657604051637717797f60e01b81526001600160a01b038c1690637717797f90611f9f9033908e908e908e906004016142af565b600060405180830381600087803b158015611fb957600080fd5b505af1158015611fcd573d6000803e3d6000fd5b50505050612299565b6000881315611fff57611fff3330611fed8b612e66565b6001600160a01b038516929190612eb8565b34156120825760008054906101000a90046001600160a01b03166001600160a01b031663d0e30db0346040518263ffffffff1660e01b81526004016000604051808303818588803b15801561205357600080fd5b505af1158015612067573d6000803e3d6000fd5b505050505061207534612cf5565b61207f908961409e565b97505b6000816001600160a01b031663dd62ed3e308e6040518363ffffffff1660e01b81526004016120b29291906142d9565b60206040518083038186803b1580156120ca57600080fd5b505afa1580156120de573d6000803e3d6000fd5b505050506040513d601f19601f820116820180604052508101906121029190613f93565b90506121228c6121118b612e66565b6001600160a01b0385169190612f29565b604051637717797f60e01b81526001600160a01b038d1690637717797f906121549033908f908f908f906004016142af565b600060405180830381600087803b15801561216e57600080fd5b505af1158015612182573d6000803e3d6000fd5b5050505050612299565b6000881315612234576121a33330611fed8b612e66565b6000816001600160a01b031663dd62ed3e308e6040518363ffffffff1660e01b81526004016121d39291906142d9565b60206040518083038186803b1580156121eb57600080fd5b505afa1580156121ff573d6000803e3d6000fd5b505050506040513d601f19601f820116820180604052508101906122239190613f93565b90506122328c6121118b612e66565b505b604051637717797f60e01b81526001600160a01b038c1690637717797f906122669033908e908e908e906004016142af565b600060405180830381600087803b15801561228057600080fd5b505af1158015612294573d6000803e3d6000fd5b505050505b604051634904f4dd60e11b81526001600160a01b038c1690639209e9ba906122c99033908e908e90600401613d90565b61014060405180830381600087803b1580156122e457600080fd5b505af11580156122f8573d6000803e3d6000fd5b505050506040513d601f19601f8201168201806040525081019061231c9190613dd7565b94508380156123385750600085602001516001600160801b0316115b1561234f5761234f838387604001516001806129ac565b604080516080810182526001600160a01b038d16815233602082015260028c810b828401528b900b606082015290517f8d13e5179ee1bf01428a397f0910c8dd567d18e75328301235029da123389494916123ad918b908b906142f3565b60405180910390a187955050505050505b95945050505050565b6001600160a01b03163b151590565b600080806000198587098587029250828110838203039150508060001415612446576000841161243b5760405162461bcd60e51b815260206004820152601060248201526f4469766973696f6e206279207a65726f60801b6044820152606401610517565b508290049050610664565b8084116124805760405162461bcd60e51b81526020600482015260086024820152676f766572666c6f7760c01b6044820152606401610517565b60008486880960026001871981018816978890046003810283188082028403028082028403028082028403028082028403028082028403029081029092039091026000889003889004909101858311909403939093029303949094049190911702949350505050565b60006001600160801b038211156125525760405162461bcd60e51b815260206004820152602760248201527f53616665436173743a2076616c756520646f65736e27742066697420696e20316044820152663238206269747360c81b6064820152608401610517565b5090565b8060020b8260020b126125915760405162461bcd60e51b8152602060048201526003602482015262544c5560e81b6044820152606401610517565b62010deb19600283900b12156125cf5760405162461bcd60e51b8152602060048201526003602482015262544c4d60e81b6044820152606401610517565b6125dc62010deb196141e9565b60020b8160020b1315610e265760405162461bcd60e51b815260206004820152600360248201526254554d60e81b6044820152606401610517565b60008060008360020b1261262e578260020b61263b565b8260020b61263b90614081565b905061264a62010deb196141e9565b60020b8111156126805760405162461bcd60e51b81526020600482015260016024820152601560fa1b6044820152606401610517565b60006001821661269457600160801b6126a6565b6ffffcb933bd6fad37aa2d162d1a5940015b6001600160881b0316905060028216156126db5760806126d6826ffff97272373d413259a46990580e213a614317565b901c90505b6004821615612705576080612700826ffff2e50f5f656932ef12357cf3c7fdcc614317565b901c90505b600882161561272f57608061272a826fffe5caca7e10e4e61c3624eaa0941cd0614317565b901c90505b6010821615612759576080612754826fffcb9843d60f6159c9db58835c926644614317565b901c90505b602082161561278357608061277e826fff973b41fa98c081472e6896dfb254c0614317565b901c90505b60408216156127ad5760806127a8826fff2ea16466c96a3843ec78b326b52861614317565b901c90505b60808216156127d75760806127d2826ffe5dee046a99a2a811c461f1969c3053614317565b901c90505b6101008216156128025760806127fd826ffcbe86c7900a88aedcffc83b479aa3a4614317565b901c90505b61020082161561282d576080612828826ff987a7253ac413176f2b074cf7815e54614317565b901c90505b610400821615612858576080612853826ff3392b0822b70005940c7a398e4b70f3614317565b901c90505b61080082161561288357608061287e826fe7159475a2c29b7443b29c7fa6e889d9614317565b901c90505b6110008216156128ae5760806128a9826fd097f3bdfd2022b8845ad8f792aa5825614317565b901c90505b6120008216156128d95760806128d4826fa9f746462d870fdf8a65dc1f90e061e5614317565b901c90505b6140008216156129045760806128ff826f70d869a156d2a1b890bb3df62baf32f7614317565b901c90505b61800082161561292f57608061292a826f31be135f97d08fd981231505542fcfa6614317565b901c90505b6201000082161561295b576080612956826f09aa508b5b7a84e1c677de54f3e99bc9614317565b901c90505b60008460020b13156129765761297381600019614336565b90505b612984600160201b8261434a565b15612990576001612993565b60005b6129a49060ff16602083901c61435e565b949350505050565b8015612a2f576000848152600360209081526040808320546001600160a01b0389168452600290925282208054919290916129e8908490614376565b909155505060008481526003602090815260408083208690556001600160a01b0388168352600290915281208054859290612a2490849061409e565b90915550612a809050565b8115612a80576000848152600360209081526040808320546001600160a01b038916845260029092528220805491929091612a6b908490614376565b90915550506000848152600360205260408120555b6001600160a01b0385166000908152600160209081526040808320546002909252909120541315612ae25760405162461bcd60e51b815260206004820152600c60248201526b1b1c0818d85c081b1a5b5a5d60a21b6044820152606401610517565b5050505050565b6000805160206144b3833981519152546001600160a01b031690565b610d6d612d5f565b7f4910fdfa16fed3260ed0e7147f7cc6da11a60208b5b9406d12a635614ffd91435460ff1615612b4557612b4083612fd3565b505050565b826001600160a01b03166352d1902d6040518163ffffffff1660e01b815260040160206040518083038186803b158015612b7e57600080fd5b505afa925050508015612bae575060408051601f3d908101601f19168201909252612bab91810190613f93565b60015b612c115760405162461bcd60e51b815260206004820152602e60248201527f45524331393637557067726164653a206e657720696d706c656d656e7461746960448201526d6f6e206973206e6f74205555505360901b6064820152608401610517565b6000805160206144b38339815191528114612c805760405162461bcd60e51b815260206004820152602960248201527f45524331393637557067726164653a20756e737570706f727465642070726f786044820152681a58589b195555525160ba1b6064820152608401610517565b50612b4083838361306d565b600080612c9887613092565b90506000612ca587613092565b90506000612cbf612cb86001898961311d565b84906131f2565b90506000612ccd83876131f2565b90506000612cdb828461409e565b670de0b6b3a764000090059b9a5050505050505050505050565b60006001600160ff1b038211156125525760405162461bcd60e51b815260206004820152602860248201527f53616665436173743a2076616c756520646f65736e27742066697420696e2061604482015267371034b73a191a9b60c11b6064820152608401610517565b33612d68611311565b6001600160a01b0316146110c05760405162461bcd60e51b815260206004820181905260248201527f4f776e61626c653a2063616c6c6572206973206e6f7420746865206f776e65726044820152606401610517565b606980546001600160a01b038381166001600160a01b0319831681179093556040519116919082907f8be0079c531659141344cd1fd0a4f28419497f9722a3daafe3b4186f6b6457e090600090a35050565b603654610100900460ff16612e375760405162461bcd60e51b8152600401610517906143b5565b6110c06132b7565b603654610100900460ff166110c05760405162461bcd60e51b8152600401610517906143b5565b6000808212156125525760405162461bcd60e51b815260206004820181905260248201527f53616665436173743a2076616c7565206d75737420626520706f7369746976656044820152606401610517565b6040516001600160a01b0380851660248301528316604482015260648101829052612f239085906323b872dd60e01b906084015b60408051601f198184030181529190526020810180516001600160e01b03166001600160e01b0319909316929092179091526132e7565b50505050565b604051636eb1769f60e11b81526000906001600160a01b0385169063dd62ed3e90612f5a90309087906004016142d9565b60206040518083038186803b158015612f7257600080fd5b505afa158015612f86573d6000803e3d6000fd5b505050506040513d601f19601f82011682018060405250810190612faa9190613f93565b905081811015612f2357612f238463095ea7b360e01b8585604051602401612eec929190613d39565b612fdc816123c7565b61303e5760405162461bcd60e51b815260206004820152602d60248201527f455243313936373a206e657720696d706c656d656e746174696f6e206973206e60448201526c1bdd08184818dbdb9d1c9858dd609a1b6064820152608401610517565b6000805160206144b383398151915280546001600160a01b0319166001600160a01b0392909216919091179055565b61307683613368565b6000825111806130835750805b15612b4057612f2383836133a8565b60007809392ee8e921d5d073aff322e62439fcf32d7f344649470f8f198212156130d25760405163e608e18b60e01b815260048101839052602401610517565b7809392ee8e921d5d073aff322e62439fcf32d7f344649470f9082131561310f576040516371f72a3160e01b815260048101839052602401610517565b50670de0b6b3a76400000290565b60008282116131575760405162461bcd60e51b815260040161051790602080825260049082015263453c3d5360e01b604082015260600190565b600061316161349c565b90508381101561319b5760405162461bcd60e51b8152602060048201526005602482015264422e543c5360d81b6044820152606401610517565b600085806131a95750838210155b156131bf576131b88585614400565b90506131cc565b6131c98583614400565b90505b6131e868056bc75e2d631000006131e2836134ac565b906134bf565b9695505050505050565b6000600160ff1b8314806132095750600160ff1b82145b1561322757604051630d01a11b60e21b815260040160405180910390fd5b60008060008512613238578461323d565b846000035b91506000841261324d5783613252565b836000035b9050600061326083836134d4565b90506001600160ff1b0381111561328d5760405163bf79e8d960e01b815260048101829052602401610517565b6000198087139086138082186001146132a657826132ab565b826000035b98975050505050505050565b603654610100900460ff166132de5760405162461bcd60e51b8152600401610517906143b5565b6110c033612dbe565b600061331383836040518060400160405280600781526020016629aa261032b93960c91b815250613596565b805190915015612b4057808060200190518101906133319190613e6c565b612b405760405162461bcd60e51b815260206004820152600860248201526714d5130819985a5b60c21b6044820152606401610517565b61337181612fd3565b6040516001600160a01b038216907fbc7cd75a20ee27fd9adebab32041f755214dbc6bffa90cc0225b39da2e5c2d3b90600090a250565b60606133b3836123c7565b61340e5760405162461bcd60e51b815260206004820152602660248201527f416464726573733a2064656c65676174652063616c6c20746f206e6f6e2d636f6044820152651b9d1c9858dd60d21b6064820152608401610517565b600080846001600160a01b0316846040516134299190614443565b600060405180830381855af49150503d8060008114613464576040519150601f19603f3d011682016040523d82523d6000602084013e613469565b606091505b509150915061349182826040518060600160405280602781526020016144d360279139613640565b925050505b92915050565b60006134a742613679565b905090565b6000613496826a1a1601fc4ea7109e0000005b600061066483670de0b6b3a7640000846136b8565b60008080600019848609848602925082811083820303915050670de0b6b3a764000081106135185760405163698d9a0160e11b815260048101829052602401610517565b600080670de0b6b3a76400008688099150506706f05b59d3b1ffff8111826135525780670de0b6b3a7640000850401945050505050613496565b620400008285030493909111909103600160ee1b02919091177faccb18165bd6fe31ae1cf318dc5b51eee0e1ba569b88cd74c1773b91fac106690201905092915050565b6060833b6135d55760405162461bcd60e51b815260206004820152600c60248201526b1b9bdb8b58dbdb9d1c9858dd60a21b6044820152606401610517565b600080856001600160a01b03166000866040516135f29190614443565b60006040518083038185875af1925050503d806000811461362f576040519150601f19603f3d011682016040523d82523d6000602084013e613634565b606091505b50915091506131e88282865b6060831561364f575081610664565b82511561365f5782518084602001fd5b8160405162461bcd60e51b8152600401610517919061445f565b60007812725dd1d243aba0e75fe645cc4873f9e65afe688c928e1f2182111561310f57604051633492ffd960e01b815260048101839052602401610517565b6000808060001985870985870292508281108382030391505080600014156136f3578382816136e9576136e9613f10565b0492505050610664565b83811061248057604051631dcf306360e21b81526004810182905260248101859052604401610517565b6001600160a01b0381168114610d6d57600080fd5b60006020828403121561374457600080fd5b81356106648161371d565b6000806040838503121561376257600080fd5b823561376d8161371d565b946020939093013593505050565b60008060006060848603121561379057600080fd5b833561379b8161371d565b925060208401356137ab8161371d565b929592945050506040919091013590565b634e487b7160e01b600052604160045260246000fd5b60405161014081016001600160401b03811182821017156137f5576137f56137bc565b60405290565b604051601f8201601f191681016001600160401b0381118282101715613823576138236137bc565b604052919050565b8060020b8114610d6d57600080fd5b80356138458161382b565b919050565b8015158114610d6d57600080fd5b600060c0828403121561386a57600080fd5b60405160c081016001600160401b038111828210171561388c5761388c6137bc565b604052905080823561389d8161371d565b815260208301356138ad8161382b565b602082015260408301356138c08161382b565b60408201526060838101359082015260808301356138dd8161384a565b608082015260a092830135920191909152919050565b600060c0828403121561390557600080fd5b6106648383613858565b6001600160a01b0391909116815260200190565b6000806040838503121561393657600080fd5b82356139418161371d565b91506020838101356001600160401b038082111561395e57600080fd5b818601915086601f83011261397257600080fd5b813581811115613984576139846137bc565b613996601f8201601f191685016137fb565b915080825287848285010111156139ac57600080fd5b80848401858401376000848284010152508093505050509250929050565b600060e082840312156139dc57600080fd5b60405160e081016001600160401b03811182821017156139fe576139fe6137bc565b6040529050808235613a0f8161371d565b81526020830135613a1f8161384a565b6020820152604083810135908201526060830135613a3c8161371d565b60608201526080830135613a4f8161382b565b6080820152613a6060a0840161383a565b60a082015260c083013560c08201525092915050565b6000806101008385031215613a8a57600080fd5b613a9484846139ca565b9460e0939093013593505050565b60008060008060006101608688031215613abb57600080fd5b8535613ac68161371d565b94506020860135613ad68161371d565b93506040860135613ae68161382b565b92506060860135613af68161382b565b9150613b0587608088016139ca565b90509295509295909350565b60008060008060006101408688031215613b2a57600080fd5b8535613b358161371d565b94506020860135613b458161371d565b93506040860135613b558161382b565b92506060860135613b658161382b565b9150613b058760808801613858565b600060e08284031215613b8657600080fd5b61066483836139ca565b60008060008060808587031215613ba657600080fd5b8435613bb18161371d565b93506020850135613bc18161371d565b92506040850135613bd18161382b565b91506060850135613be18161382b565b939692955090935050565b600080600080600060a08688031215613c0457600080fd5b8535613c0f8161371d565b94506020860135613c1f8161382b565b93506040860135613c2f8161382b565b9250606086013591506080860135613c468161384a565b809150509295509295909350565b600060208284031215613c6657600080fd5b81516106648161371d565b600060608284031215613c8357600080fd5b604051606081016001600160401b0381118282101715613ca557613ca56137bc565b6040528251613cb38161371d565b81526020830151613cc38161382b565b6020820152604083015160ff81168114613cdc57600080fd5b60408201529392505050565b6020808252600e908201526d76616d6d2061646472207a65726f60901b604082015260600190565b6020808252600f908201526e37b7363c903b30b6b69037bbb732b960891b604082015260600190565b6001600160a01b03929092168252602082015260400190565b634e487b7160e01b600052601160045260246000fd5b60006001600160a01b0383811690831681811015613d8857613d88613d52565b039392505050565b6001600160a01b03939093168352600291820b6020840152900b604082015260600190565b80516138458161384a565b80516001600160801b038116811461384557600080fd5b60006101408284031215613dea57600080fd5b613df26137d2565b613dfb83613db5565b8152613e0960208401613dc0565b602082015260408301516040820152606083015160608201526080830151608082015260a083015160a082015260c083015160c082015260e083015160e08201526101008084015181830152506101208084015181830152508091505092915050565b600060208284031215613e7e57600080fd5b81516106648161384a565b6001600160601b0319606096871b8116825294861b851660148201529290941b909216602882015260e891821b603c82015291901b603f82015260420190565b60008160020b8360020b6000821282627fffff03821381151615613eef57613eef613d52565b82627fffff19038212811615613f0757613f07613d52565b50019392505050565b634e487b7160e01b600052601260045260246000fd5b60008160020b8360020b80613f3d57613f3d613f10565b627fffff19821460001982141615613f5757613f57613d52565b90059392505050565b6001600160a01b03949094168452600292830b6020850152910b60408301526001600160801b0316606082015260800190565b600060208284031215613fa557600080fd5b5051919050565b60018060a01b0380825116835280602083015116602084015250604081015160020b6040830152606081015160020b60608301525050565b60e08101613ff28287613fac565b608082019490945291151560a083015260c090910152919050565b6020808252602c9082015260008051602061449383398151915260408201526b19195b1959d85d1958d85b1b60a21b606082015260800190565b6020808252602c9082015260008051602061449383398151915260408201526b6163746976652070726f787960a01b606082015260800190565b6000600160ff1b82141561409757614097613d52565b5060000390565b600080821280156001600160ff1b03849003851316156140c0576140c0613d52565b600160ff1b83900384128116156140d9576140d9613d52565b50500190565b80518252602081015160208301526040810151604083015260608101516060830152608081015160808301525050565b6101e0810161411e8288613fac565b61412b6080830187613fac565b841515610100830152836101208301526131e86101408301846140df565b61016081016141588288613fac565b6141656080830187613fac565b6101008201949094529115156101208301526101409091015292915050565b60006020828403121561419657600080fd5b81516106648161382b565b60008160020b8360020b6000811281627fffff19018312811516156141c8576141c8613d52565b81627fffff0183138116156141df576141df613d52565b5090039392505050565b60008160020b627fffff1981141561420357614203613d52565b60000392915050565b60006001600160a01b0382811684821680830382111561422e5761422e613d52565b01949350505050565b600080600080600060a0868803121561424f57600080fd5b5050835160208501516040860151606087015160809097015192989197509594509092509050565b61016081016142868287613fac565b84151560808301528360a08301526123be60c08301846140df565b608081016134968284613fac565b6001600160a01b03949094168452600292830b6020850152910b6040830152606082015260800190565b6001600160a01b0392831681529116602082015260400190565b60c081016143018286613fac565b83608083015282151560a0830152949350505050565b600081600019048311821515161561433157614331613d52565b500290565b60008261434557614345613f10565b500490565b60008261435957614359613f10565b500690565b6000821982111561437157614371613d52565b500190565b60008083128015600160ff1b85018412161561439457614394613d52565b6001600160ff1b03840183138116156143af576143af613d52565b50500390565b6020808252602b908201527f496e697469616c697a61626c653a20636f6e7472616374206973206e6f74206960408201526a6e697469616c697a696e6760a81b606082015260800190565b60008282101561441257614412613d52565b500390565b60005b8381101561443257818101518382015260200161441a565b83811115612f235750506000910152565b60008251614455818460208701614417565b9190910192915050565b602081526000825180602084015261447e816040850160208701614417565b601f01601f1916919091016040019291505056fe46756e6374696f6e206d7573742062652063616c6c6564207468726f75676820360894a13ba1a3210667c828492db98dca3e2076cc3735a920a3ca505d382bbc416464726573733a206c6f772d6c6576656c2064656c65676174652063616c6c206661696c6564a264697066735822122090b8b4ceb4d6db9d556119cf538878368653a58922c6a0a7aa139af849231afe64736f6c63430008090033",
  "devdoc": {
    "details": "inside mint or burn check if the position already has margin deposited and add it to the cumulative balance",
    "errors": {
      "AavePoolGetReserveNormalizedIncomeReturnedZero()": [
        {
          "details": "getReserveNormalizedIncome() returned zero for underlying asset. Oracle only supports active Aave-V2 assets."
        }
      ],
      "AavePoolGetReserveNormalizedVariableDebtReturnedZero()": [
        {
          "details": "getReserveNormalizedVariableDebt() returned zero for underlying asset. Oracle only supports active Aave-V2 assets."
        }
      ],
      "AaveV3PoolGetReserveNormalizedIncomeReturnedZero()": [
        {
          "details": "getReserveNormalizedIncome() returned zero for underlying asset. Oracle only supports active Aave-V3 assets."
        }
      ],
      "CTokenExchangeRateReturnedZero()": [
        {
          "details": "ctoken.exchangeRateStored() returned zero for a given Compound ctoken. Oracle only supports active Compound assets."
        }
      ],
      "CanOnlyTradeIfUnlocked(bool)": [
        {
          "details": "Error which ensures the VAMM is unlocked"
        }
      ],
      "ExpectedOppositeSigns(int256,int256)": [
        {
          "details": "The two values were expected to have oppostite sigs, but do not"
        }
      ],
      "ExpectedSqrtPriceZeroBeforeInit(uint160)": [
        {
          "details": "Error which is reverted if the sqrt price of the vamm is non-zero before a vamm is initialized"
        }
      ],
      "GlpRewardTrackerUnorderedRate()": [
        {
          "details": "GMX's GLP returned unordered rewards value."
        }
      ],
      "IRSNotionalAmountSpecifiedMustBeNonZero()": [
        {
          "details": "Error which ensures the amount of notional specified when initiating an IRS contract (via the swap function in the vamm) is non-zero"
        }
      ],
      "LidoGetPooledEthBySharesReturnedZero()": [
        {
          "details": "getPooledEthByShares() returned zero for Lido's stETH."
        }
      ],
      "LiquidityDeltaMustBePositiveInBurn(uint128)": [
        {
          "details": "Error which ensures the liquidity delta is positive if a given LP wishes to burn liquidity in the vamm"
        }
      ],
      "LiquidityDeltaMustBePositiveInMint(uint128)": [
        {
          "details": "Error which ensures the liquidity delta is positive if a given LP wishes to mint further liquidity in the vamm"
        }
      ],
      "MarginLessThanMinimum(int256)": [
        {
          "details": "Cannot have less margin than the minimum requirement"
        }
      ],
      "NotEnoughFunds(uint256,uint256)": [
        {
          "details": "There are not enough funds available for the requested operation"
        }
      ],
      "OOO()": [
        {
          "details": "currentTime < queriedTime"
        }
      ],
      "OnlyMarginEngine()": [
        {
          "details": "only the margin engine can run a certain function"
        }
      ],
      "PositionNetZero()": [
        {
          "details": "No need to unwind a net zero position"
        }
      ],
      "PositionNotSettled()": [
        {
          "details": "Position must be settled after AMM has reached maturity"
        }
      ],
      "RocketPoolGetEthValueReturnedZero()": [
        {
          "details": "getEthValue() returned zero for RocketPool's RETH."
        }
      ],
      "WithdrawalExceedsCurrentMargin()": [
        {
          "details": "We can't withdraw more margin than we have"
        }
      ]
    },
    "kind": "dev",
    "methods": {
      "constructor": {
        "custom:oz-upgrades-unsafe-allow": "constructor"
      },
      "fullyCollateralisedVTSwap((address,bool,uint256,uint160,int24,int24,int256),uint256)": {
        "details": "Ensures a fully collateralised VT swap given that a proper value of the variable factor is passed.",
        "params": {
          "params": "Parameters to be passed to the swap function in the periphery.",
          "variableFactorFromStartToNowWad": "The variable factor between pool's start date and present (in wad)."
        }
      },
      "getLiquidityForNotional(uint160,uint160,uint256)": {
        "details": "Calculates amount1 / (sqrt(upper) - sqrt(lower)).",
        "params": {
          "notionalAmount": "The amount of notional being sent in",
          "sqrtRatioAX96": "A sqrt price representing the first tick boundary",
          "sqrtRatioBX96": "A sqrt price representing the second tick boundary"
        },
        "returns": {
          "liquidity": "The amount of returned liquidity"
        }
      },
      "initialize(address)": {
        "details": "\"constructor\" for proxy instances"
      },
      "lpMarginCaps(address)": {
        "params": {
          "vamm": "VAMM for which to get the lp cap in underlying tokens"
        },
        "returns": {
          "_0": "Notional Cap for liquidity providers that mint or burn via periphery (enforced in the core if isAlpha is set to true)"
        }
      },
      "lpMarginCumulatives(address)": {
        "params": {
          "vamm": "VAMM for which to get the lp notional cumulative in underlying tokens"
        },
        "returns": {
          "_0": "Total amount of notional supplied by the LPs to a given VAMM via the periphery"
        }
      },
      "owner()": {
        "details": "Returns the address of the current owner."
      },
      "proxiableUUID()": {
        "details": "Implementation of the ERC1822 {proxiableUUID} function. This returns the storage slot used by the implementation. It is used to validate that the this implementation remains valid after an upgrade. IMPORTANT: A proxy pointing at a proxiable contract should not be considered proxiable itself, because this risks bricking a proxy that upgrades to it, by delegating to itself until out of gas. Thus it is critical that this function revert if invoked through a proxy. This is guaranteed by the `notDelegated` modifier."
      },
      "renounceOwnership()": {
        "details": "Leaves the contract without owner. It will not be possible to call `onlyOwner` functions anymore. Can only be called by the current owner. NOTE: Renouncing ownership will leave the contract without an owner, thereby removing any functionality that is only available to the owner."
      },
      "transferOwnership(address)": {
        "details": "Transfers ownership of the contract to a new account (`newOwner`). Can only be called by the current owner."
      },
      "upgradeTo(address)": {
        "details": "Upgrade the implementation of the proxy to `newImplementation`. Calls {_authorizeUpgrade}. Emits an {Upgraded} event."
      },
      "upgradeToAndCall(address,bytes)": {
        "details": "Upgrade the implementation of the proxy to `newImplementation`, and subsequently execute the function call encoded in `data`. Calls {_authorizeUpgrade}. Emits an {Upgraded} event."
      }
    },
    "version": 1
  },
  "userdoc": {
    "errors": {
      "CannotLiquidate()": [
        {
          "notice": "The position/trader needs to be below the liquidation threshold to be liquidated"
        }
      ],
      "CannotSettleBeforeMaturity()": [
        {
          "notice": "Positions and Traders cannot be settled before the applicable interest rate swap has matured"
        }
      ],
      "InvalidMarginDelta()": [
        {
          "notice": "Margin delta must not equal zero"
        }
      ],
      "MarginRequirementNotMet(int256,int24,int256,int256,uint256,int256)": [
        {
          "notice": "The resulting margin does not meet minimum requirements"
        }
      ],
      "MarginRequirementNotMetFCM(int256)": [
        {
          "notice": "The resulting margin does not meet minimum requirements"
        }
      ],
      "OnlyOwnerCanUpdatePosition()": [
        {
          "notice": "Only the position/trade owner can update the LP/Trader margin"
        }
      ],
      "PRBMathSD59x18__FromIntOverflow(int256)": [
        {
          "notice": "Emitted when converting a basic integer to the fixed-point format overflows SD59x18."
        }
      ],
      "PRBMathSD59x18__FromIntUnderflow(int256)": [
        {
          "notice": "Emitted when converting a basic integer to the fixed-point format underflows SD59x18."
        }
      ],
      "PRBMathSD59x18__MulInputTooSmall()": [
        {
          "notice": "Emitted when one of the inputs is MIN_SD59x18."
        }
      ],
      "PRBMathSD59x18__MulOverflow(uint256)": [
        {
          "notice": "Emitted when the intermediary absolute result overflows SD59x18."
        }
      ],
      "PRBMathUD60x18__FromUintOverflow(uint256)": [
        {
          "notice": "Emitted when converting a basic integer to the fixed-point format format overflows UD60x18."
        }
      ],
      "PRBMath__MulDivFixedPointOverflow(uint256)": [
        {
          "notice": "Emitted when the result overflows uint256."
        }
      ],
      "PRBMath__MulDivOverflow(uint256,uint256)": [
        {
          "notice": "Emitted when the result overflows uint256."
        }
      ]
    },
    "kind": "user",
    "methods": {
      "getLiquidityForNotional(uint160,uint160,uint256)": {
        "notice": "Computes the amount of liquidity received for a given notional amount and price range"
      },
      "mintOrBurn((address,int24,int24,uint256,bool,int256))": {
        "notice": "Add liquidity to an initialized pool"
      }
    },
    "version": 1
  },
  "storageLayout": {
    "storage": [
      {
        "astId": 24443,
        "contract": "contracts/periphery/Periphery.sol:Periphery",
        "label": "_weth",
        "offset": 0,
        "slot": "0",
        "type": "t_contract(IWETH)18824"
      },
      {
        "astId": 24449,
        "contract": "contracts/periphery/Periphery.sol:Periphery",
        "label": "_lpMarginCaps",
        "offset": 0,
        "slot": "1",
        "type": "t_mapping(t_contract(IVAMM)18812,t_int256)"
      },
      {
        "astId": 24455,
        "contract": "contracts/periphery/Periphery.sol:Periphery",
        "label": "_lpMarginCumulatives",
        "offset": 0,
        "slot": "2",
        "type": "t_mapping(t_contract(IVAMM)18812,t_int256)"
      },
      {
        "astId": 24460,
        "contract": "contracts/periphery/Periphery.sol:Periphery",
        "label": "_lastAccountedMargin",
        "offset": 0,
        "slot": "3",
        "type": "t_mapping(t_bytes32,t_int256)"
      },
      {
        "astId": 24467,
        "contract": "contracts/periphery/Periphery.sol:Periphery",
        "label": "__gap",
        "offset": 0,
        "slot": "4",
        "type": "t_array(t_uint256)50_storage"
      },
      {
        "astId": 527,
        "contract": "contracts/periphery/Periphery.sol:Periphery",
        "label": "_initialized",
        "offset": 0,
        "slot": "54",
        "type": "t_uint8"
      },
      {
        "astId": 530,
        "contract": "contracts/periphery/Periphery.sol:Periphery",
        "label": "_initializing",
        "offset": 1,
        "slot": "54",
        "type": "t_bool"
      },
      {
        "astId": 1091,
        "contract": "contracts/periphery/Periphery.sol:Periphery",
        "label": "__gap",
        "offset": 0,
        "slot": "55",
        "type": "t_array(t_uint256)50_storage"
      },
      {
        "astId": 10,
        "contract": "contracts/periphery/Periphery.sol:Periphery",
        "label": "_owner",
        "offset": 0,
        "slot": "105",
        "type": "t_address"
      },
      {
        "astId": 130,
        "contract": "contracts/periphery/Periphery.sol:Periphery",
        "label": "__gap",
        "offset": 0,
        "slot": "106",
        "type": "t_array(t_uint256)49_storage"
      },
      {
        "astId": 509,
        "contract": "contracts/periphery/Periphery.sol:Periphery",
        "label": "__gap",
        "offset": 0,
        "slot": "155",
        "type": "t_array(t_uint256)50_storage"
      },
      {
        "astId": 806,
        "contract": "contracts/periphery/Periphery.sol:Periphery",
        "label": "__gap",
        "offset": 0,
        "slot": "205",
        "type": "t_array(t_uint256)50_storage"
      }
    ],
    "types": {
      "t_address": {
        "encoding": "inplace",
        "label": "address",
        "numberOfBytes": "20"
      },
      "t_array(t_uint256)49_storage": {
        "base": "t_uint256",
        "encoding": "inplace",
        "label": "uint256[49]",
        "numberOfBytes": "1568"
      },
      "t_array(t_uint256)50_storage": {
        "base": "t_uint256",
        "encoding": "inplace",
        "label": "uint256[50]",
        "numberOfBytes": "1600"
      },
      "t_bool": {
        "encoding": "inplace",
        "label": "bool",
        "numberOfBytes": "1"
      },
      "t_bytes32": {
        "encoding": "inplace",
        "label": "bytes32",
        "numberOfBytes": "32"
      },
      "t_contract(IVAMM)18812": {
        "encoding": "inplace",
        "label": "contract IVAMM",
        "numberOfBytes": "20"
      },
      "t_contract(IWETH)18824": {
        "encoding": "inplace",
        "label": "contract IWETH",
        "numberOfBytes": "20"
      },
      "t_int256": {
        "encoding": "inplace",
        "label": "int256",
        "numberOfBytes": "32"
      },
      "t_mapping(t_bytes32,t_int256)": {
        "encoding": "mapping",
        "key": "t_bytes32",
        "label": "mapping(bytes32 => int256)",
        "numberOfBytes": "32",
        "value": "t_int256"
      },
      "t_mapping(t_contract(IVAMM)18812,t_int256)": {
        "encoding": "mapping",
        "key": "t_contract(IVAMM)18812",
        "label": "mapping(contract IVAMM => int256)",
        "numberOfBytes": "32",
        "value": "t_int256"
      },
      "t_uint256": {
        "encoding": "inplace",
        "label": "uint256",
        "numberOfBytes": "32"
      },
      "t_uint8": {
        "encoding": "inplace",
        "label": "uint8",
        "numberOfBytes": "1"
      }
    }
  }
}