{
  "address": "0xF439fd56D856D03aa740Dd1C417519ff6301f128",
  "abi": [
    {
      "inputs": [],
      "stateMutability": "nonpayable",
      "type": "constructor"
    },
    {
      "anonymous": false,
      "inputs": [
        {
          "indexed": false,
          "internalType": "address",
          "name": "previousAdmin",
          "type": "address"
        },
        {
          "indexed": false,
          "internalType": "address",
          "name": "newAdmin",
          "type": "address"
        }
      ],
      "name": "AdminChanged",
      "type": "event"
    },
    {
      "anonymous": false,
      "inputs": [
        {
          "indexed": true,
          "internalType": "address",
          "name": "beacon",
          "type": "address"
        }
      ],
      "name": "BeaconUpgraded",
      "type": "event"
    },
    {
      "anonymous": false,
      "inputs": [
        {
          "indexed": false,
          "internalType": "bool",
          "name": "_defaultFundPaused",
          "type": "bool"
        }
      ],
      "name": "DefaultFundPaused",
      "type": "event"
    },
    {
      "anonymous": false,
      "inputs": [
        {
          "indexed": false,
          "internalType": "address",
          "name": "asset",
          "type": "address"
        },
        {
          "indexed": false,
          "internalType": "bool",
          "name": "fromDefaultFund",
          "type": "bool"
        },
        {
          "indexed": false,
          "internalType": "uint256",
          "name": "collectedAmount",
          "type": "uint256"
        }
      ],
      "name": "FeeCollected",
      "type": "event"
    },
    {
      "anonymous": false,
      "inputs": [
        {
          "indexed": false,
          "internalType": "address",
          "name": "asset",
          "type": "address"
        },
        {
          "indexed": false,
          "internalType": "uint256",
          "name": "defaultFundsDelta",
          "type": "uint256"
        },
        {
          "indexed": false,
          "internalType": "uint256",
          "name": "protocolFeesDelta",
          "type": "uint256"
        }
      ],
      "name": "FeeDistributed",
      "type": "event"
    },
    {
      "anonymous": false,
      "inputs": [
        {
          "indexed": false,
          "internalType": "uint8",
          "name": "version",
          "type": "uint8"
        }
      ],
      "name": "Initialized",
      "type": "event"
    },
    {
      "anonymous": false,
      "inputs": [
        {
          "indexed": true,
          "internalType": "address",
          "name": "previousOwner",
          "type": "address"
        },
        {
          "indexed": true,
          "internalType": "address",
          "name": "newOwner",
          "type": "address"
        }
      ],
      "name": "OwnershipTransferred",
      "type": "event"
    },
    {
      "anonymous": false,
      "inputs": [
        {
          "indexed": true,
          "internalType": "address",
          "name": "implementation",
          "type": "address"
        }
      ],
      "name": "Upgraded",
      "type": "event"
    },
    {
      "inputs": [
        {
          "internalType": "address[]",
          "name": "assets",
          "type": "address[]"
        },
        {
          "internalType": "bool",
          "name": "fromDefaultFund",
          "type": "bool"
        }
      ],
      "name": "collectAllFees",
      "outputs": [],
      "stateMutability": "nonpayable",
      "type": "function"
    },
    {
      "inputs": [
        {
          "internalType": "address",
          "name": "asset",
          "type": "address"
        },
        {
          "internalType": "uint256",
          "name": "specifiedAmount",
          "type": "uint256"
        },
        {
          "internalType": "bool",
          "name": "fromDefaultFund",
          "type": "bool"
        }
      ],
      "name": "collectFees",
      "outputs": [
        {
          "internalType": "uint256",
          "name": "defaultFundsDelta",
          "type": "uint256"
        },
        {
          "internalType": "uint256",
          "name": "protocolFeesDelta",
          "type": "uint256"
        }
      ],
      "stateMutability": "nonpayable",
      "type": "function"
    },
    {
      "inputs": [
        {
          "internalType": "address[]",
          "name": "assets",
          "type": "address[]"
        }
      ],
      "name": "distributeAllFees",
      "outputs": [],
      "stateMutability": "nonpayable",
      "type": "function"
    },
    {
      "inputs": [
        {
          "internalType": "address",
          "name": "asset",
          "type": "address"
        }
      ],
      "name": "distributeFees",
      "outputs": [
        {
          "internalType": "uint256",
          "name": "defaultFundsDelta",
          "type": "uint256"
        },
        {
          "internalType": "uint256",
          "name": "protocolFeesDelta",
          "type": "uint256"
        }
      ],
      "stateMutability": "nonpayable",
      "type": "function"
    },
    {
      "inputs": [
        {
          "internalType": "address",
          "name": "asset",
          "type": "address"
        }
      ],
      "name": "getDefaultFund",
      "outputs": [
        {
          "internalType": "uint256",
          "name": "",
          "type": "uint256"
        }
      ],
      "stateMutability": "view",
      "type": "function"
    },
    {
      "inputs": [
        {
          "internalType": "address",
          "name": "asset",
          "type": "address"
        }
      ],
      "name": "getProtocolFees",
      "outputs": [
        {
          "internalType": "uint256",
          "name": "",
          "type": "uint256"
        }
      ],
      "stateMutability": "view",
      "type": "function"
    },
    {
      "inputs": [],
      "name": "initialize",
      "outputs": [],
      "stateMutability": "nonpayable",
      "type": "function"
    },
    {
      "inputs": [],
      "name": "owner",
      "outputs": [
        {
          "internalType": "address",
          "name": "",
          "type": "address"
        }
      ],
      "stateMutability": "view",
      "type": "function"
    },
    {
      "inputs": [],
      "name": "proxiableUUID",
      "outputs": [
        {
          "internalType": "bytes32",
          "name": "",
          "type": "bytes32"
        }
      ],
      "stateMutability": "view",
      "type": "function"
    },
    {
      "inputs": [],
      "name": "renounceOwnership",
      "outputs": [],
      "stateMutability": "nonpayable",
      "type": "function"
    },
    {
      "inputs": [
        {
          "internalType": "bool",
          "name": "_defaultFundPaused",
          "type": "bool"
        }
      ],
      "name": "setDefaultFundPaused",
      "outputs": [],
      "stateMutability": "nonpayable",
      "type": "function"
    },
    {
      "inputs": [
        {
          "internalType": "address",
          "name": "newOwner",
          "type": "address"
        }
      ],
      "name": "transferOwnership",
      "outputs": [],
      "stateMutability": "nonpayable",
      "type": "function"
    },
    {
      "inputs": [
        {
          "internalType": "address",
          "name": "newImplementation",
          "type": "address"
        }
      ],
      "name": "upgradeTo",
      "outputs": [],
      "stateMutability": "nonpayable",
      "type": "function"
    },
    {
      "inputs": [
        {
          "internalType": "address",
          "name": "newImplementation",
          "type": "address"
        },
        {
          "internalType": "bytes",
          "name": "data",
          "type": "bytes"
        }
      ],
      "name": "upgradeToAndCall",
      "outputs": [],
      "stateMutability": "payable",
      "type": "function"
    }
  ],
  "transactionHash": "0x6285062fe38c4cfb53f8fa38ae1919fe62ce1150624c8e3a9ea05d0936863a85",
  "args": [],
  "numDeployments": 1,
  "solcInputHash": "c2dca07d1c547af73c49d26a98745b96",
  "bytecode": "0x60a0604052306080523480156200001557600080fd5b50603254610100900460ff1615808015620000375750603254600160ff909116105b8062000067575062000054306200014160201b62000a941760201c565b15801562000067575060325460ff166001145b620000cf5760405162461bcd60e51b815260206004820152602e60248201527f496e697469616c697a61626c653a20636f6e747261637420697320616c72656160448201526d191e481a5b9a5d1a585b1a5e995960921b606482015260840160405180910390fd5b6032805460ff191660011790558015620000f3576032805461ff0019166101001790555b80156200013a576032805461ff0019169055604051600181527f7f26b83ff96e1f2b6a682f133852f6798a09c465da95921460cefb38474024989060200160405180910390a15b5062000150565b6001600160a01b03163b151590565b6080516116aa620001886000396000818161034d015281816103960152818161055501528181610595015261061101526116aa6000f3fe6080604052600436106100ad5760003560e01c80630e56357f146100b2578063146b0b60146100fb578063342088bc1461011d5780633659cfe61461013d578063384411261461015d5780634f1ef2861461019257806352d1902d146101a5578063715018a6146101ba5780638129fc1c146101cf5780638da5cb5b146101e45780639413f25c14610206578063e2975c1d14610226578063f27dd8ab14610246578063f2fde38b1461027c575b600080fd5b3480156100be57600080fd5b506100e86100cd366004611151565b6001600160a01b031660009081526020819052604090205490565b6040519081526020015b60405180910390f35b34801561010757600080fd5b5061011b61011636600461117a565b61029c565b005b34801561012957600080fd5b5061011b610138366004611263565b6102ec565b34801561014957600080fd5b5061011b610158366004611151565b610342565b34801561016957600080fd5b5061017d6101783660046112b4565b610414565b604080519283526020830191909152016100f2565b61011b6101a03660046112f4565b61054a565b3480156101b157600080fd5b506100e8610604565b3480156101c657600080fd5b5061011b6106b2565b3480156101db57600080fd5b5061011b6106c6565b3480156101f057600080fd5b506101f96107df565b6040516100f29190611399565b34801561021257600080fd5b5061017d610221366004611151565b6107ee565b34801561023257600080fd5b5061011b6102413660046113ad565b6109d3565b34801561025257600080fd5b506100e8610261366004611151565b6001600160a01b031660009081526001602052604090205490565b34801561028857600080fd5b5061011b610297366004611151565b610a1e565b6102a4610aa3565b6002805460ff19168215159081179091556040519081527f915eb32c822daa6252d6e90e20c9b3570154bf2def8003d4355d1f867cbf1273906020015b60405180910390a150565b6102f4610aa3565b60005b825181101561033d57610328838281518110610315576103156113e9565b6020026020010151600160ff1b84610414565b5050808061033590611415565b9150506102f7565b505050565b306001600160a01b037f00000000000000000000000000000000000000000000000000000000000000001614156103945760405162461bcd60e51b815260040161038b90611430565b60405180910390fd5b7f00000000000000000000000000000000000000000000000000000000000000006001600160a01b03166103c6610b02565b6001600160a01b0316146103ec5760405162461bcd60e51b815260040161038b9061146a565b6103f581610b1e565b6040805160008082526020820190925261041191839190610b26565b50565b60008061041f610aa3565b6000600160ff1b8514610432578461046f565b83610455576001600160a01b03861660009081526001602052604090205461046f565b6001600160a01b0386166000908152602081905260409020545b905083156104af576001600160a01b0386166000908152602081905260408120805492945084928392906104a49084906114a4565b909155506104e29050565b6001600160a01b0386166000908152600160205260408120805492935083928392906104dc9084906114a4565b90915550505b6104f66001600160a01b0387163383610ca0565b604080516001600160a01b038816815285151560208201529081018290527f7c79f7e2d6a937218f79ecfcfa53746a3a6b942a3ac07439b606d982eb2fa6f09060600160405180910390a150935093915050565b306001600160a01b037f00000000000000000000000000000000000000000000000000000000000000001614156105935760405162461bcd60e51b815260040161038b90611430565b7f00000000000000000000000000000000000000000000000000000000000000006001600160a01b03166105c5610b02565b6001600160a01b0316146105eb5760405162461bcd60e51b815260040161038b9061146a565b6105f482610b1e565b61060082826001610b26565b5050565b6000306001600160a01b037f0000000000000000000000000000000000000000000000000000000000000000161461069f5760405162461bcd60e51b815260206004820152603860248201527f555550535570677261646561626c653a206d757374206e6f742062652063616c6044820152771b1959081d1a1c9bdd59da0819195b1959d85d1958d85b1b60421b606482015260840161038b565b5060008051602061162e83398151915290565b6106ba610aa3565b6106c46000610cf2565b565b603254610100900460ff16158080156106e65750603254600160ff909116105b8061070757506106f530610a94565b158015610707575060325460ff166001145b61076a5760405162461bcd60e51b815260206004820152602e60248201527f496e697469616c697a61626c653a20636f6e747261637420697320616c72656160448201526d191e481a5b9a5d1a585b1a5e995960921b606482015260840161038b565b6032805460ff19166001179055801561078d576032805461ff0019166101001790555b610795610d44565b61079d610d73565b8015610411576032805461ff0019169055604051600181527f7f26b83ff96e1f2b6a682f133852f6798a09c465da95921460cefb3847402498906020016102e1565b6065546001600160a01b031690565b6000806107f9610aa3565b6001600160a01b0383166000818152602081815260408083205460019092528083205490516370a0823160e01b8152929391929091906370a0823190610843903090600401611399565b60206040518083038186803b15801561085b57600080fd5b505afa15801561086f573d6000803e3d6000fd5b505050506040513d601f19601f8201168201806040525081019061089391906114bb565b61089d91906114a4565b6108a791906114a4565b60025490915060ff16156108ed576001600160a01b0384166000908152600160205260408120805492935083928392906108e29084906114d4565b909155506109839050565b6108f8600282611502565b610903600283611516565b61090d91906114d4565b925061091a600282611516565b915082600080866001600160a01b03166001600160a01b03168152602001908152602001600020600082825461095091906114d4565b90915550506001600160a01b0384166000908152600160205260408120805484929061097d9084906114d4565b90915550505b604080516001600160a01b0386168152602081018590529081018390527f891d4da69faf2cf5f9b5a4bceeeba1909237ad5d6222ebe54fbcab15067f8e689060600160405180910390a150915091565b6109db610aa3565b60005b815181101561060057610a098282815181106109fc576109fc6113e9565b60200260200101516107ee565b50508080610a1690611415565b9150506109de565b610a26610aa3565b6001600160a01b038116610a8b5760405162461bcd60e51b815260206004820152602660248201527f4f776e61626c653a206e6577206f776e657220697320746865207a65726f206160448201526564647265737360d01b606482015260840161038b565b61041181610cf2565b6001600160a01b03163b151590565b33610aac6107df565b6001600160a01b0316146106c45760405162461bcd60e51b815260206004820181905260248201527f4f776e61626c653a2063616c6c6572206973206e6f7420746865206f776e6572604482015260640161038b565b60008051602061162e833981519152546001600160a01b031690565b610411610aa3565b7f4910fdfa16fed3260ed0e7147f7cc6da11a60208b5b9406d12a635614ffd91435460ff1615610b595761033d83610d9a565b826001600160a01b03166352d1902d6040518163ffffffff1660e01b815260040160206040518083038186803b158015610b9257600080fd5b505afa925050508015610bc2575060408051601f3d908101601f19168201909252610bbf918101906114bb565b60015b610c255760405162461bcd60e51b815260206004820152602e60248201527f45524331393637557067726164653a206e657720696d706c656d656e7461746960448201526d6f6e206973206e6f74205555505360901b606482015260840161038b565b60008051602061162e8339815191528114610c945760405162461bcd60e51b815260206004820152602960248201527f45524331393637557067726164653a20756e737570706f727465642070726f786044820152681a58589b195555525160ba1b606482015260840161038b565b5061033d838383610e34565b604080516001600160a01b038416602482015260448082018490528251808303909101815260649091019091526020810180516001600160e01b031663a9059cbb60e01b17905261033d908490610e5f565b606580546001600160a01b038381166001600160a01b0319831681179093556040519116919082907f8be0079c531659141344cd1fd0a4f28419497f9722a3daafe3b4186f6b6457e090600090a35050565b603254610100900460ff16610d6b5760405162461bcd60e51b815260040161038b9061152a565b6106c4610ee0565b603254610100900460ff166106c45760405162461bcd60e51b815260040161038b9061152a565b610da381610a94565b610e055760405162461bcd60e51b815260206004820152602d60248201527f455243313936373a206e657720696d706c656d656e746174696f6e206973206e60448201526c1bdd08184818dbdb9d1c9858dd609a1b606482015260840161038b565b60008051602061162e83398151915280546001600160a01b0319166001600160a01b0392909216919091179055565b610e3d83610f10565b600082511180610e4a5750805b1561033d57610e598383610f50565b50505050565b6000610e8b83836040518060400160405280600781526020016629aa261032b93960c91b815250611042565b80519091501561033d5780806020019051810190610ea99190611575565b61033d5760405162461bcd60e51b815260206004820152600860248201526714d5130819985a5b60c21b604482015260640161038b565b603254610100900460ff16610f075760405162461bcd60e51b815260040161038b9061152a565b6106c433610cf2565b610f1981610d9a565b6040516001600160a01b038216907fbc7cd75a20ee27fd9adebab32041f755214dbc6bffa90cc0225b39da2e5c2d3b90600090a250565b6060610f5b83610a94565b610fb65760405162461bcd60e51b815260206004820152602660248201527f416464726573733a2064656c65676174652063616c6c20746f206e6f6e2d636f6044820152651b9d1c9858dd60d21b606482015260840161038b565b600080846001600160a01b031684604051610fd191906115be565b600060405180830381855af49150503d806000811461100c576040519150601f19603f3d011682016040523d82523d6000602084013e611011565b606091505b5091509150611039828260405180606001604052806027815260200161164e602791396110fc565b95945050505050565b6060833b6110815760405162461bcd60e51b815260206004820152600c60248201526b1b9bdb8b58dbdb9d1c9858dd60a21b604482015260640161038b565b600080856001600160a01b031660008660405161109e91906115be565b60006040518083038185875af1925050503d80600081146110db576040519150601f19603f3d011682016040523d82523d6000602084013e6110e0565b606091505b50915091506110f08282866110fc565b925050505b9392505050565b6060831561110b5750816110f5565b82511561111b5782518084602001fd5b8160405162461bcd60e51b815260040161038b91906115da565b80356001600160a01b038116811461114c57600080fd5b919050565b60006020828403121561116357600080fd5b6110f582611135565b801515811461041157600080fd5b60006020828403121561118c57600080fd5b81356110f58161116c565b634e487b7160e01b600052604160045260246000fd5b604051601f8201601f191681016001600160401b03811182821017156111d5576111d5611197565b604052919050565b600082601f8301126111ee57600080fd5b813560206001600160401b0382111561120957611209611197565b8160051b6112188282016111ad565b928352848101820192828101908785111561123257600080fd5b83870192505b848310156112585761124983611135565b82529183019190830190611238565b979650505050505050565b6000806040838503121561127657600080fd5b82356001600160401b0381111561128c57600080fd5b611298858286016111dd565b92505060208301356112a98161116c565b809150509250929050565b6000806000606084860312156112c957600080fd5b6112d284611135565b92506020840135915060408401356112e98161116c565b809150509250925092565b6000806040838503121561130757600080fd5b61131083611135565b91506020838101356001600160401b038082111561132d57600080fd5b818601915086601f83011261134157600080fd5b81358181111561135357611353611197565b611365601f8201601f191685016111ad565b9150808252878482850101111561137b57600080fd5b80848401858401376000848284010152508093505050509250929050565b6001600160a01b0391909116815260200190565b6000602082840312156113bf57600080fd5b81356001600160401b038111156113d557600080fd5b6113e1848285016111dd565b949350505050565b634e487b7160e01b600052603260045260246000fd5b634e487b7160e01b600052601160045260246000fd5b6000600019821415611429576114296113ff565b5060010190565b6020808252602c9082015260008051602061160e83398151915260408201526b19195b1959d85d1958d85b1b60a21b606082015260800190565b6020808252602c9082015260008051602061160e83398151915260408201526b6163746976652070726f787960a01b606082015260800190565b6000828210156114b6576114b66113ff565b500390565b6000602082840312156114cd57600080fd5b5051919050565b600082198211156114e7576114e76113ff565b500190565b634e487b7160e01b600052601260045260246000fd5b600082611511576115116114ec565b500690565b600082611525576115256114ec565b500490565b6020808252602b908201527f496e697469616c697a61626c653a20636f6e7472616374206973206e6f74206960408201526a6e697469616c697a696e6760a81b606082015260800190565b60006020828403121561158757600080fd5b81516110f58161116c565b60005b838110156115ad578181015183820152602001611595565b83811115610e595750506000910152565b600082516115d0818460208701611592565b9190910192915050565b60208152600082518060208401526115f9816040850160208701611592565b601f01601f1916919091016040019291505056fe46756e6374696f6e206d7573742062652063616c6c6564207468726f75676820360894a13ba1a3210667c828492db98dca3e2076cc3735a920a3ca505d382bbc416464726573733a206c6f772d6c6576656c2064656c65676174652063616c6c206661696c6564a2646970667358221220fa6adbe8dc2afaa613d78ff857c563e504532ad66132f01f9f1ed30d077b521a64736f6c63430008090033",
  "devdoc": {
    "kind": "dev",
    "methods": {
      "collectFees(address,uint256,bool)": {
        "params": {
          "amount": "Amount to be sent to owner",
          "asset": "Token address of asset that is transferred",
          "fromDefaultFund": "Flags the source of the funds"
        },
        "returns": {
          "defaultFundsDelta": "delta amount subtracted from the default fund",
          "protocolFeesDelta": "delta amounts subtracted from the protocol fee fund"
        }
      },
      "constructor": {
        "custom:oz-upgrades-unsafe-allow": "constructor"
      },
      "distributeFees(address)": {
        "details": "Funds are allocated as such: 50% to default fund (if the fund is not paused) and the rest to protocol fees",
        "params": {
          "asset": "Token address of interest"
        },
        "returns": {
          "defaultFundsDelta": "delta amount added to the default fund",
          "protocolFeesDelta": "delta amounts added to the protocol fee fund"
        }
      },
      "getDefaultFund(address)": {
        "params": {
          "asset": "Token address of interest"
        }
      },
      "getProtocolFees(address)": {
        "params": {
          "asset": "Token address of interest"
        }
      },
      "initialize()": {
        "details": "\"constructor\" for proxy instances"
      },
      "owner()": {
        "details": "Returns the address of the current owner."
      },
      "proxiableUUID()": {
        "details": "Implementation of the ERC1822 {proxiableUUID} function. This returns the storage slot used by the implementation. It is used to validate that the this implementation remains valid after an upgrade. IMPORTANT: A proxy pointing at a proxiable contract should not be considered proxiable itself, because this risks bricking a proxy that upgrades to it, by delegating to itself until out of gas. Thus it is critical that this function revert if invoked through a proxy. This is guaranteed by the `notDelegated` modifier."
      },
      "renounceOwnership()": {
        "details": "Leaves the contract without owner. It will not be possible to call `onlyOwner` functions anymore. Can only be called by the current owner. NOTE: Renouncing ownership will leave the contract without an owner, thereby removing any functionality that is only available to the owner."
      },
      "transferOwnership(address)": {
        "details": "Transfers ownership of the contract to a new account (`newOwner`). Can only be called by the current owner."
      },
      "upgradeTo(address)": {
        "details": "Upgrade the implementation of the proxy to `newImplementation`. Calls {_authorizeUpgrade}. Emits an {Upgraded} event."
      },
      "upgradeToAndCall(address,bytes)": {
        "details": "Upgrade the implementation of the proxy to `newImplementation`, and subsequently execute the function call encoded in `data`. Calls {_authorizeUpgrade}. Emits an {Upgraded} event."
      }
    },
    "stateVariables": {
      "ENTIRE_BALANCE": {
        "details": "Used for identifying cases when the entire fund's balance is to be used as an input This value is equivalent to 1<<255, i.e. a singular 1 in the most significant bit."
      }
    },
    "version": 1
  },
  "userdoc": {
    "kind": "user",
    "methods": {
      "collectAllFees(address[],bool)": {
        "notice": "Transfers the entire fund balance in the given assets to owner"
      },
      "collectFees(address,uint256,bool)": {
        "notice": "Transfers the specified amount in given asset to the owner"
      },
      "distributeAllFees(address[])": {
        "notice": "Allocated the entire contract's balance in spefied assets to the default fund and the protocol fees"
      },
      "distributeFees(address)": {
        "notice": "Allocated the contract's balance to the default fund and the protocol fees"
      },
      "getDefaultFund(address)": {
        "notice": "Returns the total value of the default fund"
      },
      "getProtocolFees(address)": {
        "notice": "Returns the total value of protocol fees"
      },
      "setDefaultFundPaused(bool)": {
        "notice": "Pauses/Restarts the accumulation of default funds"
      }
    },
    "version": 1
  },
  "storageLayout": {
    "storage": [
      {
        "astId": 1900,
        "contract": "contracts/FeeCollector.sol:FeeCollector",
        "label": "defaultFund",
        "offset": 0,
        "slot": "0",
        "type": "t_mapping(t_address,t_uint256)"
      },
      {
        "astId": 1904,
        "contract": "contracts/FeeCollector.sol:FeeCollector",
        "label": "protocolFees",
        "offset": 0,
        "slot": "1",
        "type": "t_mapping(t_address,t_uint256)"
      },
      {
        "astId": 1906,
        "contract": "contracts/FeeCollector.sol:FeeCollector",
        "label": "defaultFundPaused",
        "offset": 0,
        "slot": "2",
        "type": "t_bool"
      },
      {
        "astId": 1913,
        "contract": "contracts/FeeCollector.sol:FeeCollector",
        "label": "__gap",
        "offset": 0,
        "slot": "3",
        "type": "t_array(t_uint256)47_storage"
      },
      {
        "astId": 527,
        "contract": "contracts/FeeCollector.sol:FeeCollector",
        "label": "_initialized",
        "offset": 0,
        "slot": "50",
        "type": "t_uint8"
      },
      {
        "astId": 530,
        "contract": "contracts/FeeCollector.sol:FeeCollector",
        "label": "_initializing",
        "offset": 1,
        "slot": "50",
        "type": "t_bool"
      },
      {
        "astId": 1091,
        "contract": "contracts/FeeCollector.sol:FeeCollector",
        "label": "__gap",
        "offset": 0,
        "slot": "51",
        "type": "t_array(t_uint256)50_storage"
      },
      {
        "astId": 10,
        "contract": "contracts/FeeCollector.sol:FeeCollector",
        "label": "_owner",
        "offset": 0,
        "slot": "101",
        "type": "t_address"
      },
      {
        "astId": 130,
        "contract": "contracts/FeeCollector.sol:FeeCollector",
        "label": "__gap",
        "offset": 0,
        "slot": "102",
        "type": "t_array(t_uint256)49_storage"
      },
      {
        "astId": 509,
        "contract": "contracts/FeeCollector.sol:FeeCollector",
        "label": "__gap",
        "offset": 0,
        "slot": "151",
        "type": "t_array(t_uint256)50_storage"
      },
      {
        "astId": 806,
        "contract": "contracts/FeeCollector.sol:FeeCollector",
        "label": "__gap",
        "offset": 0,
        "slot": "201",
        "type": "t_array(t_uint256)50_storage"
      }
    ],
    "types": {
      "t_address": {
        "encoding": "inplace",
        "label": "address",
        "numberOfBytes": "20"
      },
      "t_array(t_uint256)47_storage": {
        "base": "t_uint256",
        "encoding": "inplace",
        "label": "uint256[47]",
        "numberOfBytes": "1504"
      },
      "t_array(t_uint256)49_storage": {
        "base": "t_uint256",
        "encoding": "inplace",
        "label": "uint256[49]",
        "numberOfBytes": "1568"
      },
      "t_array(t_uint256)50_storage": {
        "base": "t_uint256",
        "encoding": "inplace",
        "label": "uint256[50]",
        "numberOfBytes": "1600"
      },
      "t_bool": {
        "encoding": "inplace",
        "label": "bool",
        "numberOfBytes": "1"
      },
      "t_mapping(t_address,t_uint256)": {
        "encoding": "mapping",
        "key": "t_address",
        "label": "mapping(address => uint256)",
        "numberOfBytes": "32",
        "value": "t_uint256"
      },
      "t_uint256": {
        "encoding": "inplace",
        "label": "uint256",
        "numberOfBytes": "32"
      },
      "t_uint8": {
        "encoding": "inplace",
        "label": "uint8",
        "numberOfBytes": "1"
      }
    }
  }
}