{
  "address": "0x8Fdd62e435039d69De862e267Cda02846c6c2f3c",
  "abi": [
    {
      "inputs": [
        {
          "internalType": "contract IAaveV2LendingPool",
          "name": "_aaveLendingPool",
          "type": "address"
        },
        {
          "internalType": "contract IERC20Minimal",
          "name": "_underlying",
          "type": "address"
        },
        {
          "internalType": "uint32[]",
          "name": "_times",
          "type": "uint32[]"
        },
        {
          "internalType": "uint256[]",
          "name": "_results",
          "type": "uint256[]"
        }
      ],
      "stateMutability": "nonpayable",
      "type": "constructor"
    },
    {
      "inputs": [],
      "name": "AavePoolGetReserveNormalizedIncomeReturnedZero",
      "type": "error"
    },
    {
      "inputs": [],
      "name": "AavePoolGetReserveNormalizedVariableDebtReturnedZero",
      "type": "error"
    },
    {
      "inputs": [],
      "name": "CTokenExchangeRateReturnedZero",
      "type": "error"
    },
    {
      "inputs": [
        {
          "internalType": "bool",
          "name": "unlocked",
          "type": "bool"
        }
      ],
      "name": "CanOnlyTradeIfUnlocked",
      "type": "error"
    },
    {
      "inputs": [],
      "name": "CannotLiquidate",
      "type": "error"
    },
    {
      "inputs": [],
      "name": "CannotSettleBeforeMaturity",
      "type": "error"
    },
    {
      "inputs": [
        {
          "internalType": "uint256",
          "name": "x",
          "type": "uint256"
        },
        {
          "internalType": "uint256",
          "name": "y",
          "type": "uint256"
        }
      ],
      "name": "DebugError",
      "type": "error"
    },
    {
      "inputs": [
        {
          "internalType": "int256",
          "name": "amount0",
          "type": "int256"
        },
        {
          "internalType": "int256",
          "name": "amount1",
          "type": "int256"
        }
      ],
      "name": "ExpectedOppositeSigns",
      "type": "error"
    },
    {
      "inputs": [
        {
          "internalType": "uint160",
          "name": "sqrtPriceX96",
          "type": "uint160"
        }
      ],
      "name": "ExpectedSqrtPriceZeroBeforeInit",
      "type": "error"
    },
    {
      "inputs": [],
      "name": "IRSNotionalAmountSpecifiedMustBeNonZero",
      "type": "error"
    },
    {
      "inputs": [],
      "name": "InvalidMarginDelta",
      "type": "error"
    },
    {
      "inputs": [],
      "name": "LidoGetPooledEthBySharesReturnedZero",
      "type": "error"
    },
    {
      "inputs": [
        {
          "internalType": "uint128",
          "name": "amount",
          "type": "uint128"
        }
      ],
      "name": "LiquidityDeltaMustBePositiveInBurn",
      "type": "error"
    },
    {
      "inputs": [
        {
          "internalType": "uint128",
          "name": "amount",
          "type": "uint128"
        }
      ],
      "name": "LiquidityDeltaMustBePositiveInMint",
      "type": "error"
    },
    {
      "inputs": [
        {
          "internalType": "int256",
          "name": "marginRequirement",
          "type": "int256"
        }
      ],
      "name": "MarginLessThanMinimum",
      "type": "error"
    },
    {
      "inputs": [
        {
          "internalType": "int256",
          "name": "marginRequirement",
          "type": "int256"
        },
        {
          "internalType": "int24",
          "name": "tick",
          "type": "int24"
        },
        {
          "internalType": "int256",
          "name": "fixedTokenDelta",
          "type": "int256"
        },
        {
          "internalType": "int256",
          "name": "variableTokenDelta",
          "type": "int256"
        },
        {
          "internalType": "uint256",
          "name": "cumulativeFeeIncurred",
          "type": "uint256"
        },
        {
          "internalType": "int256",
          "name": "fixedTokenDeltaUnbalanced",
          "type": "int256"
        }
      ],
      "name": "MarginRequirementNotMet",
      "type": "error"
    },
    {
      "inputs": [
        {
          "internalType": "int256",
          "name": "marginRequirement",
          "type": "int256"
        }
      ],
      "name": "MarginRequirementNotMetFCM",
      "type": "error"
    },
    {
      "inputs": [
        {
          "internalType": "uint256",
          "name": "requested",
          "type": "uint256"
        },
        {
          "internalType": "uint256",
          "name": "available",
          "type": "uint256"
        }
      ],
      "name": "NotEnoughFunds",
      "type": "error"
    },
    {
      "inputs": [],
      "name": "OOO",
      "type": "error"
    },
    {
      "inputs": [],
      "name": "OnlyFCM",
      "type": "error"
    },
    {
      "inputs": [],
      "name": "OnlyMarginEngine",
      "type": "error"
    },
    {
      "inputs": [],
      "name": "OnlyOwnerCanUpdatePosition",
      "type": "error"
    },
    {
      "inputs": [],
      "name": "OnlyVAMM",
      "type": "error"
    },
    {
      "inputs": [
        {
          "internalType": "uint256",
          "name": "x",
          "type": "uint256"
        }
      ],
      "name": "PRBMathUD60x18__Exp2InputTooBig",
      "type": "error"
    },
    {
      "inputs": [
        {
          "internalType": "uint256",
          "name": "x",
          "type": "uint256"
        }
      ],
      "name": "PRBMathUD60x18__FromUintOverflow",
      "type": "error"
    },
    {
      "inputs": [
        {
          "internalType": "uint256",
          "name": "x",
          "type": "uint256"
        }
      ],
      "name": "PRBMathUD60x18__LogInputTooSmall",
      "type": "error"
    },
    {
      "inputs": [
        {
          "internalType": "uint256",
          "name": "prod1",
          "type": "uint256"
        }
      ],
      "name": "PRBMath__MulDivFixedPointOverflow",
      "type": "error"
    },
    {
      "inputs": [
        {
          "internalType": "uint256",
          "name": "prod1",
          "type": "uint256"
        },
        {
          "internalType": "uint256",
          "name": "denominator",
          "type": "uint256"
        }
      ],
      "name": "PRBMath__MulDivOverflow",
      "type": "error"
    },
    {
      "inputs": [],
      "name": "PositionNetZero",
      "type": "error"
    },
    {
      "inputs": [],
      "name": "PositionNotSettled",
      "type": "error"
    },
    {
      "inputs": [],
      "name": "RocketPoolGetEthValueReturnedZero",
      "type": "error"
    },
    {
      "inputs": [],
      "name": "WithdrawalExceedsCurrentMargin",
      "type": "error"
    },
    {
      "inputs": [],
      "name": "closeToOrBeyondMaturity",
      "type": "error"
    },
    {
      "anonymous": false,
      "inputs": [
        {
          "indexed": false,
          "internalType": "uint256",
          "name": "_minSecondsSinceLastUpdate",
          "type": "uint256"
        }
      ],
      "name": "MinSecondsSinceLastUpdate",
      "type": "event"
    },
    {
      "anonymous": false,
      "inputs": [
        {
          "indexed": false,
          "internalType": "uint256",
          "name": "blockTimestampScaled",
          "type": "uint256"
        },
        {
          "indexed": false,
          "internalType": "address",
          "name": "source",
          "type": "address"
        },
        {
          "indexed": false,
          "internalType": "uint16",
          "name": "index",
          "type": "uint16"
        },
        {
          "indexed": false,
          "internalType": "uint32",
          "name": "blockTimestamp",
          "type": "uint32"
        },
        {
          "indexed": false,
          "internalType": "uint256",
          "name": "observedValue",
          "type": "uint256"
        },
        {
          "indexed": false,
          "internalType": "uint16",
          "name": "cardinality",
          "type": "uint16"
        },
        {
          "indexed": false,
          "internalType": "uint16",
          "name": "cardinalityNext",
          "type": "uint16"
        }
      ],
      "name": "OracleBufferUpdate",
      "type": "event"
    },
    {
      "anonymous": false,
      "inputs": [
        {
          "indexed": true,
          "internalType": "address",
          "name": "previousOwner",
          "type": "address"
        },
        {
          "indexed": true,
          "internalType": "address",
          "name": "newOwner",
          "type": "address"
        }
      ],
      "name": "OwnershipTransferred",
      "type": "event"
    },
    {
      "anonymous": false,
      "inputs": [
        {
          "indexed": false,
          "internalType": "uint16",
          "name": "observationCardinalityNextNew",
          "type": "uint16"
        }
      ],
      "name": "RateCardinalityNext",
      "type": "event"
    },
    {
      "inputs": [],
      "name": "ONE_IN_WAD",
      "outputs": [
        {
          "internalType": "uint256",
          "name": "",
          "type": "uint256"
        }
      ],
      "stateMutability": "view",
      "type": "function"
    },
    {
      "inputs": [],
      "name": "UNDERLYING_YIELD_BEARING_PROTOCOL_ID",
      "outputs": [
        {
          "internalType": "uint8",
          "name": "",
          "type": "uint8"
        }
      ],
      "stateMutability": "view",
      "type": "function"
    },
    {
      "inputs": [],
      "name": "aaveLendingPool",
      "outputs": [
        {
          "internalType": "contract IAaveV2LendingPool",
          "name": "",
          "type": "address"
        }
      ],
      "stateMutability": "view",
      "type": "function"
    },
    {
      "inputs": [],
      "name": "currentBlockSlope",
      "outputs": [
        {
          "internalType": "uint32",
          "name": "timeChange",
          "type": "uint32"
        },
        {
          "internalType": "uint256",
          "name": "blockChange",
          "type": "uint256"
        }
      ],
      "stateMutability": "view",
      "type": "function"
    },
    {
      "inputs": [
        {
          "internalType": "uint256",
          "name": "from",
          "type": "uint256"
        }
      ],
      "name": "getApyFrom",
      "outputs": [
        {
          "internalType": "uint256",
          "name": "apyFromToWad",
          "type": "uint256"
        }
      ],
      "stateMutability": "view",
      "type": "function"
    },
    {
      "inputs": [
        {
          "internalType": "uint256",
          "name": "from",
          "type": "uint256"
        },
        {
          "internalType": "uint256",
          "name": "to",
          "type": "uint256"
        }
      ],
      "name": "getApyFromTo",
      "outputs": [
        {
          "internalType": "uint256",
          "name": "apyFromToWad",
          "type": "uint256"
        }
      ],
      "stateMutability": "view",
      "type": "function"
    },
    {
      "inputs": [],
      "name": "getBlockSlope",
      "outputs": [
        {
          "internalType": "uint256",
          "name": "blockChange",
          "type": "uint256"
        },
        {
          "internalType": "uint32",
          "name": "timeChange",
          "type": "uint32"
        }
      ],
      "stateMutability": "view",
      "type": "function"
    },
    {
      "inputs": [],
      "name": "getCurrentRateInRay",
      "outputs": [
        {
          "internalType": "uint256",
          "name": "currentRate",
          "type": "uint256"
        }
      ],
      "stateMutability": "view",
      "type": "function"
    },
    {
      "inputs": [],
      "name": "getLastRateSlope",
      "outputs": [
        {
          "internalType": "uint256",
          "name": "rateChange",
          "type": "uint256"
        },
        {
          "internalType": "uint32",
          "name": "timeChange",
          "type": "uint32"
        }
      ],
      "stateMutability": "view",
      "type": "function"
    },
    {
      "inputs": [],
      "name": "getLastUpdatedRate",
      "outputs": [
        {
          "internalType": "uint32",
          "name": "timestamp",
          "type": "uint32"
        },
        {
          "internalType": "uint256",
          "name": "resultRay",
          "type": "uint256"
        }
      ],
      "stateMutability": "view",
      "type": "function"
    },
    {
      "inputs": [
        {
          "internalType": "uint256",
          "name": "_from",
          "type": "uint256"
        }
      ],
      "name": "getRateFrom",
      "outputs": [
        {
          "internalType": "uint256",
          "name": "",
          "type": "uint256"
        }
      ],
      "stateMutability": "view",
      "type": "function"
    },
    {
      "inputs": [
        {
          "internalType": "uint256",
          "name": "_from",
          "type": "uint256"
        },
        {
          "internalType": "uint256",
          "name": "_to",
          "type": "uint256"
        }
      ],
      "name": "getRateFromTo",
      "outputs": [
        {
          "internalType": "uint256",
          "name": "",
          "type": "uint256"
        }
      ],
      "stateMutability": "view",
      "type": "function"
    },
    {
      "inputs": [
        {
          "internalType": "uint16",
          "name": "rateCardinalityNext",
          "type": "uint16"
        }
      ],
      "name": "increaseObservationCardinalityNext",
      "outputs": [],
      "stateMutability": "nonpayable",
      "type": "function"
    },
    {
      "inputs": [
        {
          "internalType": "uint256",
          "name": "beforeOrAtRateValueRay",
          "type": "uint256"
        },
        {
          "internalType": "uint256",
          "name": "apyFromBeforeOrAtToAtOrAfterWad",
          "type": "uint256"
        },
        {
          "internalType": "uint256",
          "name": "timeDeltaBeforeOrAtToQueriedTimeWad",
          "type": "uint256"
        }
      ],
      "name": "interpolateRateValue",
      "outputs": [
        {
          "internalType": "uint256",
          "name": "rateValueRay",
          "type": "uint256"
        }
      ],
      "stateMutability": "pure",
      "type": "function"
    },
    {
      "inputs": [],
      "name": "lastUpdatedBlock",
      "outputs": [
        {
          "internalType": "uint32",
          "name": "timestamp",
          "type": "uint32"
        },
        {
          "internalType": "uint256",
          "name": "number",
          "type": "uint256"
        }
      ],
      "stateMutability": "view",
      "type": "function"
    },
    {
      "inputs": [],
      "name": "minSecondsSinceLastUpdate",
      "outputs": [
        {
          "internalType": "uint256",
          "name": "",
          "type": "uint256"
        }
      ],
      "stateMutability": "view",
      "type": "function"
    },
    {
      "inputs": [
        {
          "internalType": "uint256",
          "name": "",
          "type": "uint256"
        }
      ],
      "name": "observations",
      "outputs": [
        {
          "internalType": "uint32",
          "name": "blockTimestamp",
          "type": "uint32"
        },
        {
          "internalType": "uint216",
          "name": "observedValue",
          "type": "uint216"
        },
        {
          "internalType": "bool",
          "name": "initialized",
          "type": "bool"
        }
      ],
      "stateMutability": "view",
      "type": "function"
    },
    {
      "inputs": [],
      "name": "oracleVars",
      "outputs": [
        {
          "internalType": "uint16",
          "name": "rateIndex",
          "type": "uint16"
        },
        {
          "internalType": "uint16",
          "name": "rateCardinality",
          "type": "uint16"
        },
        {
          "internalType": "uint16",
          "name": "rateCardinalityNext",
          "type": "uint16"
        }
      ],
      "stateMutability": "view",
      "type": "function"
    },
    {
      "inputs": [],
      "name": "owner",
      "outputs": [
        {
          "internalType": "address",
          "name": "",
          "type": "address"
        }
      ],
      "stateMutability": "view",
      "type": "function"
    },
    {
      "inputs": [],
      "name": "renounceOwnership",
      "outputs": [],
      "stateMutability": "nonpayable",
      "type": "function"
    },
    {
      "inputs": [
        {
          "internalType": "uint256",
          "name": "_minSecondsSinceLastUpdate",
          "type": "uint256"
        }
      ],
      "name": "setMinSecondsSinceLastUpdate",
      "outputs": [],
      "stateMutability": "nonpayable",
      "type": "function"
    },
    {
      "inputs": [
        {
          "internalType": "uint32",
          "name": "",
          "type": "uint32"
        },
        {
          "internalType": "uint32",
          "name": "",
          "type": "uint32"
        }
      ],
      "name": "settlementRateCache",
      "outputs": [
        {
          "internalType": "uint256",
          "name": "",
          "type": "uint256"
        }
      ],
      "stateMutability": "view",
      "type": "function"
    },
    {
      "inputs": [
        {
          "internalType": "address",
          "name": "newOwner",
          "type": "address"
        }
      ],
      "name": "transferOwnership",
      "outputs": [],
      "stateMutability": "nonpayable",
      "type": "function"
    },
    {
      "inputs": [],
      "name": "underlying",
      "outputs": [
        {
          "internalType": "contract IERC20Minimal",
          "name": "",
          "type": "address"
        }
      ],
      "stateMutability": "view",
      "type": "function"
    },
    {
      "inputs": [
        {
          "internalType": "uint256",
          "name": "termStartTimestampInWeiSeconds",
          "type": "uint256"
        },
        {
          "internalType": "uint256",
          "name": "termEndTimestampInWeiSeconds",
          "type": "uint256"
        }
      ],
      "name": "variableFactor",
      "outputs": [
        {
          "internalType": "uint256",
          "name": "resultWad",
          "type": "uint256"
        }
      ],
      "stateMutability": "nonpayable",
      "type": "function"
    },
    {
      "inputs": [
        {
          "internalType": "uint256",
          "name": "termStartTimestampInWeiSeconds",
          "type": "uint256"
        },
        {
          "internalType": "uint256",
          "name": "termEndTimestampInWeiSeconds",
          "type": "uint256"
        }
      ],
      "name": "variableFactorNoCache",
      "outputs": [
        {
          "internalType": "uint256",
          "name": "resultWad",
          "type": "uint256"
        }
      ],
      "stateMutability": "view",
      "type": "function"
    },
    {
      "inputs": [],
      "name": "writeOracleEntry",
      "outputs": [],
      "stateMutability": "nonpayable",
      "type": "function"
    }
  ],
  "transactionHash": "0x01533de7bd76ce0150fe51f72fc81e25124baa0141b1dfd4c19f0f735ee52824",
  "args": [
    "0x7d2768de32b0b80b7a3454c06bdac94a69ddc7a9",
    "0xc02aaa39b223fe8d0a0e5c4f27ead9083c756cc2",
    [
      1659293973,
      1659382348,
      1659470806,
      1659559993,
      1659648753,
      1659736491,
      1659824625,
      1659912836,
      1660001499,
      1660090543,
      1660179947
    ],
    [
      "1017417175429003949143107039",
      "1017471802986665011065209143",
      "1017525640360579629633466462",
      "1017578765384909374975329286",
      "1017631928407994312079157903",
      "1017683931915409922815303280",
      "1017736749717512736590360219",
      "1017789758590383638303157512",
      "1017848260571161228686360933",
      "1017916178049588760305116077",
      "1017988178468620837605923661"
    ]
  ],
  "numDeployments": 1,
  "solcInputHash": "f435426bc2d9648f4b5f46fccbea99af",
  "bytecode": "0x60a06040523480156200001157600080fd5b50604051620036573803806200365783398101604081905262000034916200094c565b82620000403362000184565b6001600160a01b03811660805243620100045562000069620001d4602090811b62000bb017901c565b62010003805463ffffffff9290921663ffffffff199283161790556201000580549091166105dc17905550606462010006556001600160a01b038416620000f75760405162461bcd60e51b815260206004820152601460248201527f6161766520706f6f6c206d75737420657869737400000000000000000000000060448201526064015b60405180910390fd5b6080516001600160a01b0316620001515760405162461bcd60e51b815260206004820152601560248201527f756e6465726c79696e67206d75737420657869737400000000000000000000006044820152606401620000ee565b6201000780546001600160a01b0319166001600160a01b0386161790556200017a8282620001e6565b5050505062000b98565b600080546001600160a01b038381166001600160a01b0319831681178455604051919092169283917f8be0079c531659141344cd1fd0a4f28419497f9722a3daafe3b4186f6b6457e09190a35050565b6000620001e14262000471565b905090565b620001f5600261ffff62000a69565b825110620002175760405162461bcd60e51b8152600401620000ee9062000a8c565b8151815161ffff821614620002405760405162461bcd60e51b8152600401620000ee9062000aaa565b60006200024f82600162000ad6565b61ffff166001600160401b038111156200026d576200026d6200086a565b60405190808252806020026020018201604052801562000297578160200160208202803683370190505b5090506000620002a983600162000ad6565b61ffff166001600160401b03811115620002c757620002c76200086a565b604051908082528060200260200182016040528015620002f1578160200160208202803683370190505b50905060005b8361ffff16811015620003a25785818151811062000319576200031962000aff565b602002602001015183828151811062000336576200033662000aff565b602002602001019063ffffffff16908163ffffffff168152505084818151811062000365576200036562000aff565b602002602001015182828151811062000382576200038262000aff565b602090810291909101015280620003998162000b15565b915050620002f7565b50600080620003b0620004b8565b9150915081848661ffff1681518110620003ce57620003ce62000aff565b602002602001019063ffffffff16908163ffffffff168152505080838661ffff168151811062000402576200040262000aff565b6020026020010181815250506200042b848460046200057d60201b62000bc0179092919060201c565b6003805461ffff948516620100000263ffff0000199486166401000000000265ffff0000ffff199092169590931694909417939093179190911617905550505050505050565b8063ffffffff81168114620004b35760405162461bcd60e51b815260206004820152600760248201526654534f464c4f5760c81b6044820152606401620000ee565b919050565b620100075460805160405163386497fd60e01b81526001600160a01b0391821660048201526000928392169063386497fd9060240160206040518083038186803b1580156200050657600080fd5b505afa1580156200051b573d6000803e3d6000fd5b505050506040513d601f19601f8201168201806040525081019062000541919062000b33565b905080620005625760405163c34b693d60e01b815260040160405180910390fd5b62000577620001d460201b62000bb01760201c565b91509091565b600080600061ffff855110620005a75760405162461bcd60e51b8152600401620000ee9062000a8c565b8451845161ffff821614620005d05760405162461bcd60e51b8152600401620000ee9062000aaa565b60008161ffff16116200060b5760405162461bcd60e51b81526020600482015260026024820152610c1560f21b6044820152606401620000ee565b6000805b8261ffff168161ffff161015620007a157878161ffff168151811062000639576200063962000aff565b602002602001015163ffffffff168263ffffffff16106200068f5760405162461bcd60e51b815260206004820152600f60248201526e1a5b9c1d5d081d5b9bdc99195c9959608a1b6044820152606401620000ee565b620006e1888261ffff1681518110620006ac57620006ac62000aff565b6020026020010151888361ffff1681518110620006cd57620006cd62000aff565b6020026020010151620007c260201b60201c565b898261ffff1661ffff8110620006fb57620006fb62000aff565b82519101805460208401516040909401511515600160f81b026001600160f81b036001600160d81b03909516640100000000027fff0000000000000000000000000000000000000000000000000000000000000090921663ffffffff9094169390931717929092161790558751889061ffff831690811062000781576200078162000aff565b602002602001015191508080620007989062000b4d565b9150506200060f565b508180620007b160018262000b72565b945094509450505093509350939050565b60408051606081018252600080825260208201819052918101919091526001600160d81b03821115620008215760405162461bcd60e51b8152600401620000ee906020808252600490820152631f19189b60e11b604082015260600190565b506040805160608101825263ffffffff9390931683526001600160d81b0391909116602083015260019082015290565b6001600160a01b03811681146200086757600080fd5b50565b634e487b7160e01b600052604160045260246000fd5b604051601f8201601f191681016001600160401b0381118282101715620008ab57620008ab6200086a565b604052919050565b60006001600160401b03821115620008cf57620008cf6200086a565b5060051b60200190565b600082601f830112620008eb57600080fd5b8151602062000904620008fe83620008b3565b62000880565b82815260059290921b840181019181810190868411156200092457600080fd5b8286015b8481101562000941578051835291830191830162000928565b509695505050505050565b600080600080608085870312156200096357600080fd5b8451620009708162000851565b80945050602080860151620009858162000851565b60408701519094506001600160401b0380821115620009a357600080fd5b818801915088601f830112620009b857600080fd5b8151620009c9620008fe82620008b3565b81815260059190911b8301840190848101908b831115620009e957600080fd5b938501935b8285101562000a1d57845163ffffffff8116811462000a0d5760008081fd5b82529385019390850190620009ee565b60608b0151909750945050508083111562000a3757600080fd5b505062000a4787828801620008d9565b91505092959194509250565b634e487b7160e01b600052601160045260246000fd5b60008262000a8757634e487b7160e01b600052601260045260246000fd5b500490565b6020808252600490820152631350561560e21b604082015260600190565b602080825260129082015271098cadccee8d0e640daeae6e840dac2e8c6d60731b604082015260600190565b600061ffff80831681851680830382111562000af65762000af662000a53565b01949350505050565b634e487b7160e01b600052603260045260246000fd5b600060001982141562000b2c5762000b2c62000a53565b5060010190565b60006020828403121562000b4657600080fd5b5051919050565b600061ffff8083168181141562000b685762000b6862000a53565b6001019392505050565b600061ffff8381169083168181101562000b905762000b9062000a53565b039392505050565b608051612a9c62000bbb6000396000818161029201526106410152612a9c6000f3fe608060405234801561001057600080fd5b50600436106101495760003560e01c80631195082e1461014e578063163e9c4f1461018c57806317221ef11461019f57806322ff6568146101b257806324b18b17146101cc578063252c09d71461020057806325f258dd1461023f57806332148f6714610252578063414535281461026757806354124c641461027a5780636f307dc31461028d578063715018a6146102c15780637aa4db13146102c95780637cf2cc9f146102d15780638a6b8c5d146102da5780638da5cb5b146102e257806391aa375d146102ea57806393556dbd14610315578063bdb0509214610328578063c330c98d1461033b578063c7db359b1461034a578063e9d337b814610392578063efdf5d8b146103a7578063f2fde38b146103af578063f739670c146103c2578063f90ce5ba146103d5578063fe115fbe146103ed575b600080fd5b61017961015c3660046127bb565b600160209081526000928352604080842090915290825290205481565b6040519081526020015b60405180910390f35b61017961019a3660046127ee565b6103f5565b6101796101ad3660046127ee565b610407565b6101ba600581565b60405160ff9091168152602001610183565b620100055462010006546101e49163ffffffff169082565b6040805163ffffffff9093168352602083019190915201610183565b61021361020e3660046127ee565b610413565b6040805163ffffffff90941684526001600160d81b039092166020840152151590820152606001610183565b61017961024d366004612807565b61044d565b610265610260366004612829565b6104c3565b005b610179610275366004612807565b610548565b61017961028836600461284d565b61055c565b6102b47f000000000000000000000000000000000000000000000000000000000000000081565b6040516101839190612879565b6102656105b1565b6102656105c5565b61017960025481565b6101e4610612565b6102b46106e7565b6201000654620100055463ffffffff165b6040805192835263ffffffff909116602083015201610183565b610179610323366004612807565b6106f6565b6102656103363660046127ee565b61078b565b610179670de0b6b3a764000081565b60035461036d9061ffff80821691620100008104821691600160201b9091041683565b6040805161ffff94851681529284166020840152921691810191909152606001610183565b62010007546102b4906001600160a01b031681565b6101796107d8565b6102656103bd36600461288d565b610860565b6101796103d0366004612807565b6108d6565b620100035462010004546101e49163ffffffff169082565b6102fb6109e0565b600061040182426108d6565b92915050565b600061040182426106f6565b60048161ffff811061042457600080fd5b015463ffffffff81169150600160201b81046001600160d81b031690600160f81b900460ff1683565b60008061045a8484610e03565b909250905080156104bc57600061047a670de0b6b3a76400008604610f41565b90506000610491670de0b6b3a76400008604610f41565b63ffffffff928316600090815260016020908152604080832095909316825293909352909120839055505b5092915050565b600354600160201b900461ffff1660006104df60048385610f86565b6003805461ffff808416600160201b810261ffff60201b19909316929092179092559192508316146105435760405161ffff821681527f8a96a9c4bca0fb28be0fc5c84e95aff121a64e2533021e9d638bdc1f03b14ece9060200160405180910390a15b505050565b60006105548383610e03565b509392505050565b6000806105688361107b565b9050600061057e670de0b6b3a7640000866128cc565b9050600061058c8284611092565b90506000610599826110d1565b90506105a588826110fb565b98975050505050505050565b6105b9611109565b6105c36000611168565b565b6003546105ea9061ffff80821691620100008104821691600160201b909104166111b8565b6003805463ffffffff19166201000061ffff9384160261ffff19161792909116919091179055565b620100075460405163386497fd60e01b815260009182916001600160a01b039091169063386497fd90610669907f000000000000000000000000000000000000000000000000000000000000000090600401612879565b60206040518083038186803b15801561068157600080fd5b505afa158015610695573d6000803e3d6000fd5b505050506040513d601f19601f820116820180604052508101906106b991906128e4565b9050806106d95760405163c34b693d60e01b815260040160405180910390fd5b6106e1610bb0565b91509091565b6000546001600160a01b031690565b6000818311156107405760405162461bcd60e51b815260206004820152601060248201526f4d69736f72646572656420646174657360801b60448201526064015b60405180910390fd5b600061074c84846108d6565b9050600061075a85856128fd565b905060006107678261135b565b905060006107748261107b565b905061078084826113a8565b979650505050505050565b610793611109565b80600254146107d55760028190556040518181527f88bd1242a1ad7dbba4967e0120324f17c382e4e3006e01dc3ffc0bf43e4b2a399060200160405180910390a15b50565b60008060006107e5610612565b915091506107f1610bb0565b63ffffffff168263ffffffff16106108095792915050565b6000806108146109e0565b915091508063ffffffff168285610829610bb0565b6108339190612914565b63ffffffff166108439190612939565b61084d919061296e565b61085790846128cc565b94505050505090565b610868611109565b6001600160a01b0381166108cd5760405162461bcd60e51b815260206004820152602660248201527f4f776e61626c653a206e6577206f776e657220697320746865207a65726f206160448201526564647265737360d01b6064820152608401610737565b6107d581611168565b6000818311156109145760405162461bcd60e51b815260206004820152600960248201526866726f6d203e20746f60b81b6044820152606401610737565b8183141561092457506000610401565b600061092e610bb0565b9050600061093b85610f41565b9050600061094885610f41565b60035490915060009061096c908590859061ffff808216916201000090041661140d565b600354909150600090610990908690859061ffff808216916201000090041661140d565b9050818111156109d25760006109c4676765c793fa10079d601b1b6109b58486611659565b6109bf91906128fd565b611667565b965061040195505050505050565b600095505050505050610401565b600354600090819061ffff16816001821015610a1457600354610a0f9060019062010000900461ffff16612982565b610a27565b600354610a279060019061ffff16612982565b60035490915060026201000090910461ffff1610801590610a68575060048161ffff1661ffff8110610a5b57610a5b61299d565b0154600160f81b900460ff165b8015610ac5575060048261ffff1661ffff8110610a8757610a8761299d565b0154600160201b90046001600160d81b0316600461ffff838116908110610ab057610ab061299d565b0154600160201b90046001600160d81b031611155b610af75760405162461bcd60e51b815260206004820152600360248201526204e45560ec1b6044820152606401610737565b60048161ffff1661ffff8110610b0f57610b0f61299d565b0154600160201b90046001600160d81b0316600461ffff848116908110610b3857610b3861299d565b0154610b549190600160201b90046001600160d81b03166129b3565b6001600160d81b0316935060048161ffff1661ffff8110610b7757610b7761299d565b015463ffffffff16600461ffff808516908110610b9657610b9661299d565b0154610ba8919063ffffffff16612914565b925050509091565b6000610bbb42610f41565b905090565b600080600061ffff855110610c005760405162461bcd60e51b8152600401610737906020808252600490820152631350561560e21b604082015260600190565b8451845161ffff821614610c4b5760405162461bcd60e51b8152602060048201526012602482015271098cadccee8d0e640daeae6e840dac2e8c6d60731b6044820152606401610737565b60008161ffff1611610c845760405162461bcd60e51b81526020600482015260026024820152610c1560f21b6044820152606401610737565b6000805b8261ffff168161ffff161015610de457878161ffff1681518110610cae57610cae61299d565b602002602001015163ffffffff168263ffffffff1610610d025760405162461bcd60e51b815260206004820152600f60248201526e1a5b9c1d5d081d5b9bdc99195c9959608a1b6044820152606401610737565b610d46888261ffff1681518110610d1b57610d1b61299d565b6020026020010151888361ffff1681518110610d3957610d3961299d565b60200260200101516116f3565b898261ffff1661ffff8110610d5d57610d5d61299d565b82519101805460208401516040909401511515600160f81b026001600160f81b036001600160d81b03909516600160201b026001600160f81b031990921663ffffffff9094169390931717929092161790558751889061ffff8316908110610dc757610dc761299d565b602002602001015191508080610ddc906129d3565b915050610c88565b508180610df2600182612982565b945094509450505093509350939050565b60008080610e1a670de0b6b3a76400008604610f41565b90506000610e31670de0b6b3a76400008604610f41565b905060008263ffffffff16118015610e4f575060008163ffffffff16115b610e835760405162461bcd60e51b8152602060048201526005602482015264554e49545360d81b6044820152606401610737565b63ffffffff80831660009081526001602090815260408083209385168352929052205415610ed95763ffffffff808316600090815260016020908152604080832093851683529290529081205494509250610f38565b8063ffffffff16610ee8610bb0565b63ffffffff1610610f1457610f098263ffffffff168263ffffffff166108d6565b935060019250610f38565b610f318263ffffffff16610f26610bb0565b63ffffffff166108d6565b9350600092505b50509250929050565b8063ffffffff81168114610f815760405162461bcd60e51b815260206004820152600760248201526654534f464c4f5760c81b6044820152606401610737565b919050565b6000808361ffff1611610fbf5760405162461bcd60e51b81526020600482015260016024820152604960f81b6044820152606401610737565b61ffff8261ffff16106110035760405162461bcd60e51b815260206004820152600c60248201526b189d5999995c881b1a5b5a5d60a21b6044820152606401610737565b8261ffff168261ffff1611611019575081611074565b825b8261ffff168161ffff16101561106f576001858261ffff1661ffff81106110445761104461299d565b01805463ffffffff191663ffffffff9290921691909117905580611067816129d3565b91505061101b565b508190505b9392505050565b6000610401826a1a1601fc4ea7109e00000061176b565b6000826110b75781156110a65760006110b0565b670de0b6b3a76400005b9050610401565b6110746110cc6110c685611780565b84611830565b61183c565b6000806110f1670de0b6b3a7640000676765c793fa10079d601b1b61296e565b6110749084612939565b600061107483836001611882565b336111126106e7565b6001600160a01b0316146105c35760405162461bcd60e51b815260206004820181905260248201527f4f776e61626c653a2063616c6c6572206973206e6f7420746865206f776e65726044820152606401610737565b600080546001600160a01b038381166001600160a01b0319831681178455604051919092169283917f8be0079c531659141344cd1fd0a4f28419497f9722a3daafe3b4186f6b6457e09190a35050565b600080600060048661ffff1661ffff81106111d5576111d561299d565b60408051606081018252929091015463ffffffff811683526001600160d81b03600160201b820416602084015260ff600160f81b909104161515908201529050600080611220610612565b600254855192945090925061123a9163ffffffff166128cc565b8263ffffffff16101561125557878794509450505050611353565b7f5aec68e6980e788266f2f59f6fddb85f3e256ce6da46fdfab920b9b06aaa737561127e611935565b6040805191825230602083015261ffff8b81168383015263ffffffff86166060840152608083018590528a811660a0840152891660c0830152519081900360e00190a162010004546112d090436128fd565b6201000655620100035463ffffffff166112e8610bb0565b6112f29190612914565b62010005805463ffffffff191663ffffffff9290921691909117905543620100045561131c610bb0565b62010003805463ffffffff191663ffffffff92831617905561134b906004908a90859085908c908c9061194016565b945094505050505b935093915050565b60007812725dd1d243aba0e75fe645cc4873f9e65afe688c928e1f2182111561139a57604051633492ffd960e01b815260048101839052602401610737565b50670de0b6b3a76400000290565b6000826113b757506000610401565b60006113cc6113c6600161135b565b8461176b565b905060006113ee856113de600161135b565b6113e891906128cc565b83611092565b90506113fa600161135b565b61140490826128fd565b95945050505050565b60008363ffffffff168563ffffffff16101561143c57604051632ff198e560e21b815260040160405180910390fd5b8363ffffffff168563ffffffff1614156114e457611458612787565b60048461ffff1661ffff81106114705761147061299d565b60408051606081018252919092015463ffffffff808216808452600160201b83046001600160d81b03166020850152600160f81b90920460ff16151593830193909352909250908716146114cd576114c66107d8565b91506114de565b80602001516001600160d81b031691505b50611651565b60006114ee6107d8565b90506000806115026004888a868a8a611a88565b91509150816000015163ffffffff168763ffffffff1614156115335781602001516001600160d81b0316935061164d565b805163ffffffff8881169116141561155a5780602001516001600160d81b0316935061164d565b600082602001516001600160d81b031682602001516001600160d81b031611156115c9576000676765c793fa10079d601b1b6115b084602001516001600160d81b031686602001516001600160d81b0316611659565b6115ba91906128fd565b90506115c581611667565b9150505b825182516000916115fc91670de0b6b3a7640000916115e791612914565b63ffffffff166115f79190612939565b61107b565b9050600061160a83836113a8565b905061164785602001516001600160d81b031682670de0b6b3a764000088600001518e6116379190612914565b63ffffffff166102889190612939565b96505050505b5050505b949350505050565b600061107483836001611c3a565b600080611687670de0b6b3a7640000676765c793fa10079d601b1b61296e565b611691908461296e565b905060026116b2670de0b6b3a7640000676765c793fa10079d601b1b61296e565b6116bc919061296e565b6116d9670de0b6b3a7640000676765c793fa10079d601b1b61296e565b6116e390856129f5565b10610401576110746001826128cc565b6116fb612787565b6001600160d81b0382111561173b5760405162461bcd60e51b8152600401610737906020808252600490820152631f19189b60e11b604082015260600190565b506040805160608101825263ffffffff9390931683526001600160d81b0391909116602083015260019082015290565b600061107483670de0b6b3a764000084611cd5565b6000670de0b6b3a76400008210156117ae57604051633621413760e21b815260048101839052602401610737565b60006117c3670de0b6b3a76400008404611da3565b670de0b6b3a7640000808202935090915083821c908114156117e6575050919050565b6706f05b59d3b200005b801561182857670de0b6b3a7640000828002049150671bc16d674ec800008210611820579283019260019190911c905b60011c6117f0565b505050919050565b60006110748383611e81565b6000680a688906bd8b000000821061186a57604051634a4f26f160e01b815260048101839052602401610737565b670de0b6b3a7640000604083901b0461107481611f43565b600083158061188f575082155b1561189c57506000611074565b60018260018111156118b0576118b0612a09565b146118c357670de0b6b3a76400006118d0565b676765c793fa10079d601b1b5b60018360018111156118e4576118e4612a09565b14611901576118fc6002670de0b6b3a764000061296e565b611917565b6119176002676765c793fa10079d601b1b61296e565b6119218587612939565b61192b91906128cc565b611651919061296e565b6000610bbb4261135b565b6000806000888861ffff1661ffff811061195c5761195c61299d565b60408051606081018252919092015463ffffffff808216808452600160201b83046001600160d81b03166020850152600160f81b90920460ff1615159383019390935290925090881614156119b75787859250925050611a7d565b8461ffff168461ffff161180156119df57506119d4600186612982565b61ffff168861ffff16145b156119ec578391506119f0565b8491505b816119fc896001612a1f565b611a069190612a45565b9250611a1287876116f3565b898461ffff1661ffff8110611a2957611a2961299d565b82519101805460208401516040909401511515600160f81b026001600160f81b036001600160d81b03909516600160201b026001600160f81b031990921663ffffffff909416939093171792909216179055505b965096945050505050565b611a90612787565b611a98612787565b878461ffff1661ffff8110611aaf57611aaf61299d565b60408051606081018252919092015463ffffffff808216808452600160201b83046001600160d81b03166020850152600160f81b90920460ff1615159383019390935290935090881610611b2e578663ffffffff16826000015163ffffffff161415611b1a57611a7d565b81611b2587876116f3565b91509150611a7d565b8783611b3b866001612a1f565b611b459190612a45565b61ffff1661ffff8110611b5a57611b5a61299d565b60408051606081018252919092015463ffffffff81168252600160201b81046001600160d81b03166020830152600160f81b900460ff1615159181018290529250611bdf5760408051606081018252895463ffffffff81168252600160201b81046001600160d81b03166020830152600160f81b900460ff1615159181019190915291505b815163ffffffff80891691161115611c1f5760405162461bcd60e51b815260206004820152600360248201526213d31160ea1b6044820152606401610737565b611c2b888886866125d5565b91509150965096945050505050565b600082611c725760405162461bcd60e51b8152600401610737906020808252600490820152630444956360e41b604082015260600190565b6000611c7f60028561296e565b905083816001856001811115611c9757611c97612a09565b14611caa57670de0b6b3a7640000611cb7565b676765c793fa10079d601b1b5b611cc19088612939565b611ccb91906128cc565b611404919061296e565b600080806000198587098587029250828110838203039150508060001415611d1057838281611d0657611d06612958565b0492505050611074565b838110611d3a57604051631dcf306360e21b81526004810182905260248101859052604401610737565b60008486880960026001871981018816978890046003810283188082028403028082028403028082028403028082028403028082028403029081029092039091026000889003889004909101858311909403939093029303949094049190911702949350505050565b6000600160801b8210611dc357608091821c91611dc090826128cc565b90505b600160401b8210611de157604091821c91611dde90826128cc565b90505b600160201b8210611dff57602091821c91611dfc90826128cc565b90505b620100008210611e1c57601091821c91611e1990826128cc565b90505b6101008210611e3857600891821c91611e3590826128cc565b90505b60108210611e5357600491821c91611e5090826128cc565b90505b60048210611e6e57600291821c91611e6b90826128cc565b90505b60028210610f81576104016001826128cc565b60008080600019848609848602925082811083820303915050670de0b6b3a76400008110611ec55760405163698d9a0160e11b815260048101829052602401610737565b600080670de0b6b3a76400008688099150506706f05b59d3b1ffff811182611eff5780670de0b6b3a7640000850401945050505050610401565b620400008285030493909111909103600160ee1b02919091177faccb18165bd6fe31ae1cf318dc5b51eee0e1ba569b88cd74c1773b91fac106690201905092915050565b600160bf1b6001603f1b821615611f635768016a09e667f3bcc9090260401c5b6001603e1b821615611f7e576801306fe0a31b7152df0260401c5b6001603d1b821615611f99576801172b83c7d517adce0260401c5b6001603c1b821615611fb45768010b5586cf9890f62a0260401c5b6001603b1b821615611fcf576801059b0d31585743ae0260401c5b6001603a1b821615611fea57680102c9a3e778060ee70260401c5b600160391b8216156120055768010163da9fb33356d80260401c5b600160381b82161561202057680100b1afa5abcbed610260401c5b600160371b82161561203b5768010058c86da1c09ea20260401c5b600160361b821615612056576801002c605e2e8cec500260401c5b600160351b82161561207157680100162f3904051fa10260401c5b600160341b82161561208c576801000b175effdc76ba0260401c5b600160331b8216156120a757680100058ba01fb9f96d0260401c5b600160321b8216156120c25768010002c5cc37da94920260401c5b600160311b8216156120dd576801000162e525ee05470260401c5b600160301b8216156120f85768010000b17255775c040260401c5b6001602f1b821615612113576801000058b91b5bc9ae0260401c5b6001602e1b82161561212e57680100002c5c89d5ec6d0260401c5b6001602d1b8216156121495768010000162e43f4f8310260401c5b6001602c1b82161561216457680100000b1721bcfc9a0260401c5b6001602b1b82161561217f5768010000058b90cf1e6e0260401c5b6001602a1b82161561219a576801000002c5c863b73f0260401c5b600160291b8216156121b557680100000162e430e5a20260401c5b600160281b8216156121d0576801000000b1721835510260401c5b600160271b8216156121eb57680100000058b90c0b490260401c5b600160261b8216156122065768010000002c5c8601cc0260401c5b600160251b821615612221576801000000162e42fff00260401c5b600160241b82161561223c5768010000000b17217fbb0260401c5b600160231b821615612257576801000000058b90bfce0260401c5b600160221b82161561227257680100000002c5c85fe30260401c5b600160211b82161561228d5768010000000162e42ff10260401c5b600160201b8216156122a857680100000000b17217f80260401c5b63800000008216156122c35768010000000058b90bfc0260401c5b63400000008216156122de576801000000002c5c85fe0260401c5b63200000008216156122f957680100000000162e42ff0260401c5b6310000000821615612314576801000000000b17217f0260401c5b630800000082161561232f57680100000000058b90c00260401c5b630400000082161561234a5768010000000002c5c8600260401c5b6302000000821615612365576801000000000162e4300260401c5b63010000008216156123805768010000000000b172180260401c5b6280000082161561239a576801000000000058b90c0260401c5b624000008216156123b457680100000000002c5c860260401c5b622000008216156123ce5768010000000000162e430260401c5b621000008216156123e857680100000000000b17210260401c5b620800008216156124025768010000000000058b910260401c5b6204000082161561241c576801000000000002c5c80260401c5b6202000082161561243657680100000000000162e40260401c5b6201000082161561244f5761b172600160401b010260401c5b618000821615612467576158b9600160401b010260401c5b61400082161561247f57612c5d600160401b010260401c5b6120008216156124975761162e600160401b010260401c5b6110008216156124af57610b17600160401b010260401c5b6108008216156124c75761058c600160401b010260401c5b6104008216156124df576102c6600160401b010260401c5b6102008216156124f757610163600160401b010260401c5b61010082161561250e5760b1600160401b010260401c5b6080821615612524576059600160401b010260401c5b604082161561253a57602c600160401b010260401c5b6020821615612550576016600160401b010260401c5b601082161561256657600b600160401b010260401c5b600882161561257c576006600160401b010260401c5b6004821615612592576003600160401b010260401c5b60028216156125a8576001600160401b010260401c5b60018216156125be576001600160401b010260401c5b670de0b6b3a76400000260409190911c60bf031c90565b6125dd612787565b6125e5612787565b6000836125f3866001612a1f565b6125fd9190612a45565b61ffff169050600060018561ffff168361261791906128cc565b61262191906128fd565b905060005b600161263283856128cc565b901c90508861264561ffff8816836129f5565b61ffff81106126565761265661299d565b60408051606081018252919092015463ffffffff81168252600160201b81046001600160d81b03166020830152600160f81b900460ff16151591810182905295506126ad576126a68160016128cc565b9250612626565b8861ffff87166126be8360016128cc565b6126c891906129f5565b61ffff81106126d9576126d961299d565b60408051606081018252919092015463ffffffff8082168352600160201b82046001600160d81b03166020840152600160f81b90910460ff16151592820192909252865190955089821691161180159081906127455750846000015163ffffffff168963ffffffff1611155b15612750575061277b565b80612767576127606001836128fd565b9250612775565b6127728260016128cc565b93505b50612626565b50505094509492505050565b604080516060810182526000808252602082018190529181019190915290565b803563ffffffff81168114610f8157600080fd5b600080604083850312156127ce57600080fd5b6127d7836127a7565b91506127e5602084016127a7565b90509250929050565b60006020828403121561280057600080fd5b5035919050565b6000806040838503121561281a57600080fd5b50508035926020909101359150565b60006020828403121561283b57600080fd5b813561ffff8116811461107457600080fd5b60008060006060848603121561286257600080fd5b505081359360208301359350604090920135919050565b6001600160a01b0391909116815260200190565b60006020828403121561289f57600080fd5b81356001600160a01b038116811461107457600080fd5b634e487b7160e01b600052601160045260246000fd5b600082198211156128df576128df6128b6565b500190565b6000602082840312156128f657600080fd5b5051919050565b60008282101561290f5761290f6128b6565b500390565b600063ffffffff83811690831681811015612931576129316128b6565b039392505050565b6000816000190483118215151615612953576129536128b6565b500290565b634e487b7160e01b600052601260045260246000fd5b60008261297d5761297d612958565b500490565b600061ffff83811690831681811015612931576129316128b6565b634e487b7160e01b600052603260045260246000fd5b60006001600160d81b0383811690831681811015612931576129316128b6565b600061ffff808316818114156129eb576129eb6128b6565b6001019392505050565b600082612a0457612a04612958565b500690565b634e487b7160e01b600052602160045260246000fd5b600061ffff808316818516808303821115612a3c57612a3c6128b6565b01949350505050565b600061ffff80841680612a5a57612a5a612958565b9216919091069291505056fea264697066735822122019eea320810e104dcbdd5e32949ff426ca5d092018c78b92082957ac23e1de8d64736f6c63430008090033",
  "devdoc": {
    "errors": {
      "AavePoolGetReserveNormalizedIncomeReturnedZero()": [
        {
          "details": "getReserveNormalizedIncome() returned zero for underlying asset. Oracle only supports active Aave-V2 assets."
        }
      ],
      "AavePoolGetReserveNormalizedVariableDebtReturnedZero()": [
        {
          "details": "getReserveNormalizedVariableDebt() returned zero for underlying asset. Oracle only supports active Aave-V2 assets."
        }
      ],
      "CTokenExchangeRateReturnedZero()": [
        {
          "details": "ctoken.exchangeRateStored() returned zero for a given Compound ctoken. Oracle only supports active Compound assets."
        }
      ],
      "CanOnlyTradeIfUnlocked(bool)": [
        {
          "details": "Error which ensures the VAMM is unlocked"
        }
      ],
      "ExpectedOppositeSigns(int256,int256)": [
        {
          "details": "The two values were expected to have oppostite sigs, but do not"
        }
      ],
      "ExpectedSqrtPriceZeroBeforeInit(uint160)": [
        {
          "details": "Error which is reverted if the sqrt price of the vamm is non-zero before a vamm is initialized"
        }
      ],
      "IRSNotionalAmountSpecifiedMustBeNonZero()": [
        {
          "details": "Error which ensures the amount of notional specified when initiating an IRS contract (via the swap function in the vamm) is non-zero"
        }
      ],
      "LidoGetPooledEthBySharesReturnedZero()": [
        {
          "details": "getPooledEthByShares() returned zero for Lido's stETH."
        }
      ],
      "LiquidityDeltaMustBePositiveInBurn(uint128)": [
        {
          "details": "Error which ensures the liquidity delta is positive if a given LP wishes to burn liquidity in the vamm"
        }
      ],
      "LiquidityDeltaMustBePositiveInMint(uint128)": [
        {
          "details": "Error which ensures the liquidity delta is positive if a given LP wishes to mint further liquidity in the vamm"
        }
      ],
      "MarginLessThanMinimum(int256)": [
        {
          "details": "Cannot have less margin than the minimum requirement"
        }
      ],
      "NotEnoughFunds(uint256,uint256)": [
        {
          "details": "There are not enough funds available for the requested operation"
        }
      ],
      "OOO()": [
        {
          "details": "currentTime < queriedTime"
        }
      ],
      "OnlyMarginEngine()": [
        {
          "details": "only the margin engine can run a certain function"
        }
      ],
      "PositionNetZero()": [
        {
          "details": "No need to unwind a net zero position"
        }
      ],
      "PositionNotSettled()": [
        {
          "details": "Position must be settled after AMM has reached maturity"
        }
      ],
      "RocketPoolGetEthValueReturnedZero()": [
        {
          "details": "getEthValue() returned zero for RocketPool's RETH."
        }
      ],
      "WithdrawalExceedsCurrentMargin()": [
        {
          "details": "We can't withdraw more margin than we have"
        }
      ]
    },
    "kind": "dev",
    "methods": {
      "getApyFrom(uint256)": {
        "details": "Reverts if we have no data point for `from`",
        "params": {
          "from": "The timestamp of the start of the period, in seconds"
        },
        "returns": {
          "apyFromToWad": "The \"floating rate\" expressed in Wad, e.g. 4% is encoded as 0.04*10**18 = 4*10**16"
        }
      },
      "getApyFromTo(uint256,uint256)": {
        "details": "Reverts if we have no data point for either timestamp",
        "params": {
          "from": "The timestamp of the start of the period, in seconds",
          "to": "The timestamp of the end of the period, in seconds"
        },
        "returns": {
          "apyFromToWad": "The \"floating rate\" expressed in Wad, e.g. 4% is encoded as 0.04*10**18 = 4*10**16"
        }
      },
      "getCurrentRateInRay()": {
        "details": "For convenience, the rate is normalised to Ray for storage, so that we can perform consistent math across all rates.This function should revert if a valid rate cannot be discerned",
        "returns": {
          "currentRate": "the rate in Ray (decimal scaled up by 10^27 for storage in a uint256)"
        }
      },
      "getLastUpdatedRate()": {
        "details": "FOr convenience, the rate is normalised to Ray for storage, so that we can perform consistent math across all rates.This function should revert if a valid rate cannot be discerned",
        "returns": {
          "resultRay": "the rate in Ray (decimal scaled up by 10^27 for storage in a uint256)",
          "timestamp": "the timestamp corresponding to the known rate (could be the current time, or a time in the past)"
        }
      },
      "getRateFrom(uint256)": {
        "details": "Reverts if we have no data point for `_from`",
        "params": {
          "_from": "The timestamp of the start of the period, in seconds"
        },
        "returns": {
          "_0": "The \"floating rate\" expressed in Wad, e.g. 4% is encoded as 0.04*10**18 = 4*10**16"
        }
      },
      "getRateFromTo(uint256,uint256)": {
        "details": "Reverts if we have no data point for either timestamp",
        "params": {
          "_from": "The timestamp of the start of the period, in seconds",
          "_to": "The timestamp of the end of the period, in seconds"
        },
        "returns": {
          "_0": "The \"floating rate\" expressed in Wad, e.g. 4% is encoded as 0.04*10**18 = 4*10**16"
        }
      },
      "increaseObservationCardinalityNext(uint16)": {
        "details": "This method is no-op if the RateOracle already has an observationCardinalityNext greater than or equal to the input observationCardinalityNext.",
        "params": {
          "rateCardinalityNext": "The desired minimum number of observations for the pool to store"
        }
      },
      "interpolateRateValue(uint256,uint256,uint256)": {
        "details": "Given [beforeOrAt, atOrAfter] where the timestamp for which the counterfactual is calculated is within that range (but does not touch any of the bounds)We can calculate the apy for [beforeOrAt, atOrAfter] --> refer to this value as apyFromBeforeOrAtToAtOrAfterThen we want a counterfactual rate value which results in apy_before_after if the apy is calculated between [beforeOrAt, timestampForCounterfactual]Hence (1+rateValueWei/beforeOrAtRateValueWei)^(1/timeInYears) = apyFromBeforeOrAtToAtOrAfterHence rateValueWei = beforeOrAtRateValueWei * (1+apyFromBeforeOrAtToAtOrAfter)^timeInYears - 1)",
        "params": {
          "apyFromBeforeOrAtToAtOrAfterWad": "Apy in the period between the timestamp of the beforeOrAt Rate and the atOrAfter Rate",
          "beforeOrAtRateValueRay": "Rate Value (in ray) before the timestamp for which we want to calculate the counterfactual rate value",
          "timeDeltaBeforeOrAtToQueriedTimeWad": "Time Delta (in wei seconds) between the timestamp of the beforeOrAt Rate and the atOrAfter Rate"
        },
        "returns": {
          "rateValueRay": "Counterfactual (interpolated) rate value in ray"
        }
      },
      "owner()": {
        "details": "Returns the address of the current owner."
      },
      "renounceOwnership()": {
        "details": "Leaves the contract without owner. It will not be possible to call `onlyOwner` functions anymore. Can only be called by the current owner. NOTE: Renouncing ownership will leave the contract without an owner, thereby removing any functionality that is only available to the owner."
      },
      "setMinSecondsSinceLastUpdate(uint256)": {
        "details": "Can only be set by the Factory Owner"
      },
      "transferOwnership(address)": {
        "details": "Transfers ownership of the contract to a new account (`newOwner`). Can only be called by the current owner."
      },
      "variableFactor(uint256,uint256)": {
        "details": "If the current block timestamp is beyond the maturity of the AMM, then the variableFactor is getRateFromTo(termStartTimestamp, termEndTimestamp). Term end timestamps are cached for quick retrieval later.If the current block timestamp is before the maturity of the AMM, then the variableFactor is getRateFromTo(termStartTimestamp,Time.blockTimestampScaled());if queried before maturity then returns the rate of return between pool initiation and current timestamp (in wad)if queried after maturity then returns the rate of return between pool initiation and maturity timestamp (in wad)",
        "returns": {
          "resultWad": "The variable factor"
        }
      },
      "variableFactorNoCache(uint256,uint256)": {
        "details": "If the current block timestamp is beyond the maturity of the AMM, then the variableFactor is getRateFromTo(termStartTimestamp, termEndTimestamp). No caching takes place.If the current block timestamp is before the maturity of the AMM, then the variableFactor is getRateFromTo(termStartTimestamp,Time.blockTimestampScaled());",
        "returns": {
          "resultWad": "The variable factor"
        }
      }
    },
    "stateVariables": {
      "UNDERLYING_YIELD_BEARING_PROTOCOL_ID": {
        "return": "yieldBearingProtocolID unique id of the underlying yield bearing protocol",
        "returns": {
          "_0": "yieldBearingProtocolID unique id of the underlying yield bearing protocol"
        }
      },
      "aaveLendingPool": {
        "return": "Address of the Aave Lending Pool",
        "returns": {
          "_0": "Address of the Aave Lending Pool"
        }
      }
    },
    "version": 1
  },
  "userdoc": {
    "errors": {
      "CannotLiquidate()": [
        {
          "notice": "The position/trader needs to be below the liquidation threshold to be liquidated"
        }
      ],
      "CannotSettleBeforeMaturity()": [
        {
          "notice": "Positions and Traders cannot be settled before the applicable interest rate swap has matured"
        }
      ],
      "InvalidMarginDelta()": [
        {
          "notice": "Margin delta must not equal zero"
        }
      ],
      "MarginRequirementNotMet(int256,int24,int256,int256,uint256,int256)": [
        {
          "notice": "The resulting margin does not meet minimum requirements"
        }
      ],
      "MarginRequirementNotMetFCM(int256)": [
        {
          "notice": "The resulting margin does not meet minimum requirements"
        }
      ],
      "OnlyOwnerCanUpdatePosition()": [
        {
          "notice": "Only the position/trade owner can update the LP/Trader margin"
        }
      ],
      "PRBMathUD60x18__Exp2InputTooBig(uint256)": [
        {
          "notice": "Emitted when the input is greater than 192."
        }
      ],
      "PRBMathUD60x18__FromUintOverflow(uint256)": [
        {
          "notice": "Emitted when converting a basic integer to the fixed-point format format overflows UD60x18."
        }
      ],
      "PRBMathUD60x18__LogInputTooSmall(uint256)": [
        {
          "notice": "Emitted when the input is less than 1."
        }
      ],
      "PRBMath__MulDivFixedPointOverflow(uint256)": [
        {
          "notice": "Emitted when the result overflows uint256."
        }
      ],
      "PRBMath__MulDivOverflow(uint256,uint256)": [
        {
          "notice": "Emitted when the result overflows uint256."
        }
      ]
    },
    "events": {
      "RateCardinalityNext(uint16)": {
        "notice": "Emitted by the rate oracle for increases to the number of observations that can be stored"
      }
    },
    "kind": "user",
    "methods": {
      "UNDERLYING_YIELD_BEARING_PROTOCOL_ID()": {
        "notice": "unique ID of the underlying yield bearing protocol (e.g. Aave v2 has id 1)"
      },
      "aaveLendingPool()": {
        "notice": "Gets the address of the Aave Lending Pool"
      },
      "getApyFrom(uint256)": {
        "notice": "Calculates the observed APY returned by the rate oracle between the given timestamp and the current time"
      },
      "getApyFromTo(uint256,uint256)": {
        "notice": "Calculates the observed APY returned by the rate oracle in a given period"
      },
      "getBlockSlope()": {
        "notice": "returns the last change in block number and timestamp  Some implementations may use this data to estimate timestamps for recent rate readings, if we only know the block number"
      },
      "getCurrentRateInRay()": {
        "notice": "Get the current \"rate\" in Ray at the current timestamp. This might be a direct reading if real-time readings are available, or it might be an extrapolation from recent known rates. The source and expected values of \"rate\" may differ by rate oracle type. All that matters is that we can divide one \"rate\" by another \"rate\" to get the factor of growth between the two timestamps. For example if we have rates of { (t=0, rate=5), (t=100, rate=5.5) }, we can divide 5.5 by 5 to get a growth factor of 1.1, suggesting that 10% growth in capital was experienced between timesamp 0 and timestamp 100."
      },
      "getLastRateSlope()": {
        "notice": "returns the last change in rate and time Gets the last two observations and returns the change in rate and time. This can help us to extrapolate an estiamte of the current rate from recent known rates. "
      },
      "getLastUpdatedRate()": {
        "notice": "Get the last updated rate in Ray with the accompanying truncated timestamp This data point must be a known data point from the source of the data, and not extrapolated or interpolated by us. The source and expected values of \"rate\" may differ by rate oracle type. All that matters is that we can divide one \"rate\" by another \"rate\" to get the factor of growth between the two timestamps. For example if we have rates of { (t=0, rate=5), (t=100, rate=5.5) }, we can divide 5.5 by 5 to get a growth factor of 1.1, suggesting that 10% growth in capital was experienced between timesamp 0 and timestamp 100."
      },
      "getRateFrom(uint256)": {
        "notice": "Calculates the observed interest returned by the underlying in a given period"
      },
      "getRateFromTo(uint256,uint256)": {
        "notice": "Calculates the observed interest returned by the underlying in a given period"
      },
      "increaseObservationCardinalityNext(uint16)": {
        "notice": "Increase the maximum number of rates observations that this RateOracle will store"
      },
      "interpolateRateValue(uint256,uint256,uint256)": {
        "notice": "Calculates the interpolated (counterfactual) rate value"
      },
      "observations(uint256)": {
        "notice": "the observations tracked over time by this oracle"
      },
      "setMinSecondsSinceLastUpdate(uint256)": {
        "notice": "Sets minSecondsSinceLastUpdate: The minimum number of seconds that need to pass since the last update to the rates array"
      },
      "settlementRateCache(uint32,uint32)": {
        "notice": "a cache of settlement rates for interest rate swaps associated with this rate oracle, indexed by start time and then end time"
      },
      "underlying()": {
        "notice": "Gets the address of the underlying token of the RateOracle"
      },
      "variableFactor(uint256,uint256)": {
        "notice": "Gets the variable factor between termStartTimestamp and termEndTimestamp"
      },
      "variableFactorNoCache(uint256,uint256)": {
        "notice": "Gets the variable factor between termStartTimestamp and termEndTimestamp"
      },
      "writeOracleEntry()": {
        "notice": "Writes a rate observation to the rates array given the current rate cardinality, rate index and rate cardinality next Write oracle entry is called whenever a new position is minted via the vamm or when a swap is initiated via the vamm That way the gas costs of Rate Oracle updates can be distributed across organic interactions with the protocol"
      }
    },
    "version": 1
  },
  "storageLayout": {
    "storage": [
      {
        "astId": 1160,
        "contract": "contracts/rate_oracles/AaveBorrowRateOracle.sol:AaveBorrowRateOracle",
        "label": "_owner",
        "offset": 0,
        "slot": "0",
        "type": "t_address"
      },
      {
        "astId": 21361,
        "contract": "contracts/rate_oracles/AaveBorrowRateOracle.sol:AaveBorrowRateOracle",
        "label": "settlementRateCache",
        "offset": 0,
        "slot": "1",
        "type": "t_mapping(t_uint32,t_mapping(t_uint32,t_uint256))"
      },
      {
        "astId": 21390,
        "contract": "contracts/rate_oracles/AaveBorrowRateOracle.sol:AaveBorrowRateOracle",
        "label": "minSecondsSinceLastUpdate",
        "offset": 0,
        "slot": "2",
        "type": "t_uint256"
      },
      {
        "astId": 21393,
        "contract": "contracts/rate_oracles/AaveBorrowRateOracle.sol:AaveBorrowRateOracle",
        "label": "oracleVars",
        "offset": 0,
        "slot": "3",
        "type": "t_struct(OracleVars)21371_storage"
      },
      {
        "astId": 21399,
        "contract": "contracts/rate_oracles/AaveBorrowRateOracle.sol:AaveBorrowRateOracle",
        "label": "observations",
        "offset": 0,
        "slot": "4",
        "type": "t_array(t_struct(Observation)23052_storage)65535_storage"
      },
      {
        "astId": 21402,
        "contract": "contracts/rate_oracles/AaveBorrowRateOracle.sol:AaveBorrowRateOracle",
        "label": "lastUpdatedBlock",
        "offset": 0,
        "slot": "65539",
        "type": "t_struct(BlockInfo)21376_storage"
      },
      {
        "astId": 21405,
        "contract": "contracts/rate_oracles/AaveBorrowRateOracle.sol:AaveBorrowRateOracle",
        "label": "currentBlockSlope",
        "offset": 0,
        "slot": "65541",
        "type": "t_struct(BlockSlopeInfo)21381_storage"
      },
      {
        "astId": 21132,
        "contract": "contracts/rate_oracles/AaveBorrowRateOracle.sol:AaveBorrowRateOracle",
        "label": "aaveLendingPool",
        "offset": 0,
        "slot": "65543",
        "type": "t_contract(IAaveV2LendingPool)19393"
      }
    ],
    "types": {
      "t_address": {
        "encoding": "inplace",
        "label": "address",
        "numberOfBytes": "20"
      },
      "t_array(t_struct(Observation)23052_storage)65535_storage": {
        "base": "t_struct(Observation)23052_storage",
        "encoding": "inplace",
        "label": "struct OracleBuffer.Observation[65535]",
        "numberOfBytes": "2097120"
      },
      "t_bool": {
        "encoding": "inplace",
        "label": "bool",
        "numberOfBytes": "1"
      },
      "t_contract(IAaveV2LendingPool)19393": {
        "encoding": "inplace",
        "label": "contract IAaveV2LendingPool",
        "numberOfBytes": "20"
      },
      "t_mapping(t_uint32,t_mapping(t_uint32,t_uint256))": {
        "encoding": "mapping",
        "key": "t_uint32",
        "label": "mapping(uint32 => mapping(uint32 => uint256))",
        "numberOfBytes": "32",
        "value": "t_mapping(t_uint32,t_uint256)"
      },
      "t_mapping(t_uint32,t_uint256)": {
        "encoding": "mapping",
        "key": "t_uint32",
        "label": "mapping(uint32 => uint256)",
        "numberOfBytes": "32",
        "value": "t_uint256"
      },
      "t_struct(BlockInfo)21376_storage": {
        "encoding": "inplace",
        "label": "struct BaseRateOracle.BlockInfo",
        "members": [
          {
            "astId": 21373,
            "contract": "contracts/rate_oracles/AaveBorrowRateOracle.sol:AaveBorrowRateOracle",
            "label": "timestamp",
            "offset": 0,
            "slot": "0",
            "type": "t_uint32"
          },
          {
            "astId": 21375,
            "contract": "contracts/rate_oracles/AaveBorrowRateOracle.sol:AaveBorrowRateOracle",
            "label": "number",
            "offset": 0,
            "slot": "1",
            "type": "t_uint256"
          }
        ],
        "numberOfBytes": "64"
      },
      "t_struct(BlockSlopeInfo)21381_storage": {
        "encoding": "inplace",
        "label": "struct BaseRateOracle.BlockSlopeInfo",
        "members": [
          {
            "astId": 21378,
            "contract": "contracts/rate_oracles/AaveBorrowRateOracle.sol:AaveBorrowRateOracle",
            "label": "timeChange",
            "offset": 0,
            "slot": "0",
            "type": "t_uint32"
          },
          {
            "astId": 21380,
            "contract": "contracts/rate_oracles/AaveBorrowRateOracle.sol:AaveBorrowRateOracle",
            "label": "blockChange",
            "offset": 0,
            "slot": "1",
            "type": "t_uint256"
          }
        ],
        "numberOfBytes": "64"
      },
      "t_struct(Observation)23052_storage": {
        "encoding": "inplace",
        "label": "struct OracleBuffer.Observation",
        "members": [
          {
            "astId": 23046,
            "contract": "contracts/rate_oracles/AaveBorrowRateOracle.sol:AaveBorrowRateOracle",
            "label": "blockTimestamp",
            "offset": 0,
            "slot": "0",
            "type": "t_uint32"
          },
          {
            "astId": 23049,
            "contract": "contracts/rate_oracles/AaveBorrowRateOracle.sol:AaveBorrowRateOracle",
            "label": "observedValue",
            "offset": 4,
            "slot": "0",
            "type": "t_uint216"
          },
          {
            "astId": 23051,
            "contract": "contracts/rate_oracles/AaveBorrowRateOracle.sol:AaveBorrowRateOracle",
            "label": "initialized",
            "offset": 31,
            "slot": "0",
            "type": "t_bool"
          }
        ],
        "numberOfBytes": "32"
      },
      "t_struct(OracleVars)21371_storage": {
        "encoding": "inplace",
        "label": "struct BaseRateOracle.OracleVars",
        "members": [
          {
            "astId": 21364,
            "contract": "contracts/rate_oracles/AaveBorrowRateOracle.sol:AaveBorrowRateOracle",
            "label": "rateIndex",
            "offset": 0,
            "slot": "0",
            "type": "t_uint16"
          },
          {
            "astId": 21367,
            "contract": "contracts/rate_oracles/AaveBorrowRateOracle.sol:AaveBorrowRateOracle",
            "label": "rateCardinality",
            "offset": 2,
            "slot": "0",
            "type": "t_uint16"
          },
          {
            "astId": 21370,
            "contract": "contracts/rate_oracles/AaveBorrowRateOracle.sol:AaveBorrowRateOracle",
            "label": "rateCardinalityNext",
            "offset": 4,
            "slot": "0",
            "type": "t_uint16"
          }
        ],
        "numberOfBytes": "32"
      },
      "t_uint16": {
        "encoding": "inplace",
        "label": "uint16",
        "numberOfBytes": "2"
      },
      "t_uint216": {
        "encoding": "inplace",
        "label": "uint216",
        "numberOfBytes": "27"
      },
      "t_uint256": {
        "encoding": "inplace",
        "label": "uint256",
        "numberOfBytes": "32"
      },
      "t_uint32": {
        "encoding": "inplace",
        "label": "uint32",
        "numberOfBytes": "4"
      }
    }
  }
}