{
  "address": "0xE0cde6BEd9e94EA527Fd3863B9f8b53146159E14",
  "abi": [
    {
      "inputs": [],
      "stateMutability": "nonpayable",
      "type": "constructor"
    },
    {
      "inputs": [],
      "name": "AavePoolGetReserveNormalizedIncomeReturnedZero",
      "type": "error"
    },
    {
      "inputs": [],
      "name": "AavePoolGetReserveNormalizedVariableDebtReturnedZero",
      "type": "error"
    },
    {
      "inputs": [],
      "name": "CTokenExchangeRateReturnedZero",
      "type": "error"
    },
    {
      "inputs": [
        {
          "internalType": "bool",
          "name": "unlocked",
          "type": "bool"
        }
      ],
      "name": "CanOnlyTradeIfUnlocked",
      "type": "error"
    },
    {
      "inputs": [],
      "name": "CannotLiquidate",
      "type": "error"
    },
    {
      "inputs": [],
      "name": "CannotSettleBeforeMaturity",
      "type": "error"
    },
    {
      "inputs": [
        {
          "internalType": "uint256",
          "name": "x",
          "type": "uint256"
        },
        {
          "internalType": "uint256",
          "name": "y",
          "type": "uint256"
        }
      ],
      "name": "DebugError",
      "type": "error"
    },
    {
      "inputs": [
        {
          "internalType": "int256",
          "name": "amount0",
          "type": "int256"
        },
        {
          "internalType": "int256",
          "name": "amount1",
          "type": "int256"
        }
      ],
      "name": "ExpectedOppositeSigns",
      "type": "error"
    },
    {
      "inputs": [
        {
          "internalType": "uint160",
          "name": "sqrtPriceX96",
          "type": "uint160"
        }
      ],
      "name": "ExpectedSqrtPriceZeroBeforeInit",
      "type": "error"
    },
    {
      "inputs": [],
      "name": "IRSNotionalAmountSpecifiedMustBeNonZero",
      "type": "error"
    },
    {
      "inputs": [],
      "name": "InvalidMarginDelta",
      "type": "error"
    },
    {
      "inputs": [],
      "name": "LidoGetPooledEthBySharesReturnedZero",
      "type": "error"
    },
    {
      "inputs": [
        {
          "internalType": "uint128",
          "name": "amount",
          "type": "uint128"
        }
      ],
      "name": "LiquidityDeltaMustBePositiveInBurn",
      "type": "error"
    },
    {
      "inputs": [
        {
          "internalType": "uint128",
          "name": "amount",
          "type": "uint128"
        }
      ],
      "name": "LiquidityDeltaMustBePositiveInMint",
      "type": "error"
    },
    {
      "inputs": [
        {
          "internalType": "int256",
          "name": "marginRequirement",
          "type": "int256"
        }
      ],
      "name": "MarginLessThanMinimum",
      "type": "error"
    },
    {
      "inputs": [
        {
          "internalType": "int256",
          "name": "marginRequirement",
          "type": "int256"
        },
        {
          "internalType": "int24",
          "name": "tick",
          "type": "int24"
        },
        {
          "internalType": "int256",
          "name": "fixedTokenDelta",
          "type": "int256"
        },
        {
          "internalType": "int256",
          "name": "variableTokenDelta",
          "type": "int256"
        },
        {
          "internalType": "uint256",
          "name": "cumulativeFeeIncurred",
          "type": "uint256"
        },
        {
          "internalType": "int256",
          "name": "fixedTokenDeltaUnbalanced",
          "type": "int256"
        }
      ],
      "name": "MarginRequirementNotMet",
      "type": "error"
    },
    {
      "inputs": [
        {
          "internalType": "int256",
          "name": "marginRequirement",
          "type": "int256"
        }
      ],
      "name": "MarginRequirementNotMetFCM",
      "type": "error"
    },
    {
      "inputs": [
        {
          "internalType": "uint256",
          "name": "requested",
          "type": "uint256"
        },
        {
          "internalType": "uint256",
          "name": "available",
          "type": "uint256"
        }
      ],
      "name": "NotEnoughFunds",
      "type": "error"
    },
    {
      "inputs": [],
      "name": "OOO",
      "type": "error"
    },
    {
      "inputs": [],
      "name": "OnlyFCM",
      "type": "error"
    },
    {
      "inputs": [],
      "name": "OnlyMarginEngine",
      "type": "error"
    },
    {
      "inputs": [],
      "name": "OnlyOwnerCanUpdatePosition",
      "type": "error"
    },
    {
      "inputs": [],
      "name": "OnlyVAMM",
      "type": "error"
    },
    {
      "inputs": [],
      "name": "PRBMathSD59x18__DivInputTooSmall",
      "type": "error"
    },
    {
      "inputs": [
        {
          "internalType": "uint256",
          "name": "rAbs",
          "type": "uint256"
        }
      ],
      "name": "PRBMathSD59x18__DivOverflow",
      "type": "error"
    },
    {
      "inputs": [
        {
          "internalType": "int256",
          "name": "x",
          "type": "int256"
        }
      ],
      "name": "PRBMathSD59x18__Exp2InputTooBig",
      "type": "error"
    },
    {
      "inputs": [
        {
          "internalType": "int256",
          "name": "x",
          "type": "int256"
        }
      ],
      "name": "PRBMathSD59x18__ExpInputTooBig",
      "type": "error"
    },
    {
      "inputs": [
        {
          "internalType": "int256",
          "name": "x",
          "type": "int256"
        }
      ],
      "name": "PRBMathSD59x18__FromIntOverflow",
      "type": "error"
    },
    {
      "inputs": [
        {
          "internalType": "int256",
          "name": "x",
          "type": "int256"
        }
      ],
      "name": "PRBMathSD59x18__FromIntUnderflow",
      "type": "error"
    },
    {
      "inputs": [],
      "name": "PRBMathSD59x18__MulInputTooSmall",
      "type": "error"
    },
    {
      "inputs": [
        {
          "internalType": "uint256",
          "name": "rAbs",
          "type": "uint256"
        }
      ],
      "name": "PRBMathSD59x18__MulOverflow",
      "type": "error"
    },
    {
      "inputs": [
        {
          "internalType": "int256",
          "name": "x",
          "type": "int256"
        }
      ],
      "name": "PRBMathSD59x18__SqrtNegativeInput",
      "type": "error"
    },
    {
      "inputs": [
        {
          "internalType": "int256",
          "name": "x",
          "type": "int256"
        }
      ],
      "name": "PRBMathSD59x18__SqrtOverflow",
      "type": "error"
    },
    {
      "inputs": [
        {
          "internalType": "uint256",
          "name": "x",
          "type": "uint256"
        }
      ],
      "name": "PRBMathUD60x18__FromUintOverflow",
      "type": "error"
    },
    {
      "inputs": [
        {
          "internalType": "uint256",
          "name": "prod1",
          "type": "uint256"
        }
      ],
      "name": "PRBMath__MulDivFixedPointOverflow",
      "type": "error"
    },
    {
      "inputs": [
        {
          "internalType": "uint256",
          "name": "prod1",
          "type": "uint256"
        },
        {
          "internalType": "uint256",
          "name": "denominator",
          "type": "uint256"
        }
      ],
      "name": "PRBMath__MulDivOverflow",
      "type": "error"
    },
    {
      "inputs": [],
      "name": "PositionNetZero",
      "type": "error"
    },
    {
      "inputs": [],
      "name": "PositionNotSettled",
      "type": "error"
    },
    {
      "inputs": [],
      "name": "RocketPoolGetEthValueReturnedZero",
      "type": "error"
    },
    {
      "inputs": [],
      "name": "WithdrawalExceedsCurrentMargin",
      "type": "error"
    },
    {
      "inputs": [],
      "name": "closeToOrBeyondMaturity",
      "type": "error"
    },
    {
      "anonymous": false,
      "inputs": [
        {
          "indexed": false,
          "internalType": "address",
          "name": "previousAdmin",
          "type": "address"
        },
        {
          "indexed": false,
          "internalType": "address",
          "name": "newAdmin",
          "type": "address"
        }
      ],
      "name": "AdminChanged",
      "type": "event"
    },
    {
      "anonymous": false,
      "inputs": [
        {
          "indexed": true,
          "internalType": "address",
          "name": "beacon",
          "type": "address"
        }
      ],
      "name": "BeaconUpgraded",
      "type": "event"
    },
    {
      "anonymous": false,
      "inputs": [
        {
          "indexed": false,
          "internalType": "uint256",
          "name": "cacheMaxAgeInSeconds",
          "type": "uint256"
        }
      ],
      "name": "CacheMaxAgeSetting",
      "type": "event"
    },
    {
      "anonymous": false,
      "inputs": [
        {
          "indexed": true,
          "internalType": "contract IFCM",
          "name": "fcm",
          "type": "address"
        }
      ],
      "name": "FCMSetting",
      "type": "event"
    },
    {
      "anonymous": false,
      "inputs": [
        {
          "indexed": false,
          "internalType": "uint256",
          "name": "value",
          "type": "uint256"
        }
      ],
      "name": "HistoricalApy",
      "type": "event"
    },
    {
      "anonymous": false,
      "inputs": [
        {
          "indexed": false,
          "internalType": "uint256",
          "name": "secondsAgo",
          "type": "uint256"
        }
      ],
      "name": "HistoricalApyWindowSetting",
      "type": "event"
    },
    {
      "anonymous": false,
      "inputs": [
        {
          "indexed": false,
          "internalType": "uint8",
          "name": "version",
          "type": "uint8"
        }
      ],
      "name": "Initialized",
      "type": "event"
    },
    {
      "anonymous": false,
      "inputs": [
        {
          "indexed": false,
          "internalType": "bool",
          "name": "__isAlpha",
          "type": "bool"
        }
      ],
      "name": "IsAlpha",
      "type": "event"
    },
    {
      "anonymous": false,
      "inputs": [
        {
          "indexed": false,
          "internalType": "uint256",
          "name": "liquidatorRewardWad",
          "type": "uint256"
        }
      ],
      "name": "LiquidatorRewardSetting",
      "type": "event"
    },
    {
      "anonymous": false,
      "inputs": [
        {
          "components": [
            {
              "internalType": "uint256",
              "name": "apyUpperMultiplierWad",
              "type": "uint256"
            },
            {
              "internalType": "uint256",
              "name": "apyLowerMultiplierWad",
              "type": "uint256"
            },
            {
              "internalType": "int256",
              "name": "sigmaSquaredWad",
              "type": "int256"
            },
            {
              "internalType": "int256",
              "name": "alphaWad",
              "type": "int256"
            },
            {
              "internalType": "int256",
              "name": "betaWad",
              "type": "int256"
            },
            {
              "internalType": "int256",
              "name": "xiUpperWad",
              "type": "int256"
            },
            {
              "internalType": "int256",
              "name": "xiLowerWad",
              "type": "int256"
            },
            {
              "internalType": "int256",
              "name": "tMaxWad",
              "type": "int256"
            },
            {
              "internalType": "uint256",
              "name": "devMulLeftUnwindLMWad",
              "type": "uint256"
            },
            {
              "internalType": "uint256",
              "name": "devMulRightUnwindLMWad",
              "type": "uint256"
            },
            {
              "internalType": "uint256",
              "name": "devMulLeftUnwindIMWad",
              "type": "uint256"
            },
            {
              "internalType": "uint256",
              "name": "devMulRightUnwindIMWad",
              "type": "uint256"
            },
            {
              "internalType": "uint256",
              "name": "fixedRateDeviationMinLeftUnwindLMWad",
              "type": "uint256"
            },
            {
              "internalType": "uint256",
              "name": "fixedRateDeviationMinRightUnwindLMWad",
              "type": "uint256"
            },
            {
              "internalType": "uint256",
              "name": "fixedRateDeviationMinLeftUnwindIMWad",
              "type": "uint256"
            },
            {
              "internalType": "uint256",
              "name": "fixedRateDeviationMinRightUnwindIMWad",
              "type": "uint256"
            },
            {
              "internalType": "uint256",
              "name": "gammaWad",
              "type": "uint256"
            },
            {
              "internalType": "uint256",
              "name": "minMarginToIncentiviseLiquidators",
              "type": "uint256"
            }
          ],
          "indexed": false,
          "internalType": "struct IMarginEngine.MarginCalculatorParameters",
          "name": "marginCalculatorParameters",
          "type": "tuple"
        }
      ],
      "name": "MarginCalculatorParametersSetting",
      "type": "event"
    },
    {
      "anonymous": false,
      "inputs": [
        {
          "indexed": true,
          "internalType": "address",
          "name": "previousOwner",
          "type": "address"
        },
        {
          "indexed": true,
          "internalType": "address",
          "name": "newOwner",
          "type": "address"
        }
      ],
      "name": "OwnershipTransferred",
      "type": "event"
    },
    {
      "anonymous": false,
      "inputs": [
        {
          "indexed": true,
          "internalType": "address",
          "name": "owner",
          "type": "address"
        },
        {
          "indexed": true,
          "internalType": "int24",
          "name": "tickLower",
          "type": "int24"
        },
        {
          "indexed": true,
          "internalType": "int24",
          "name": "tickUpper",
          "type": "int24"
        },
        {
          "indexed": false,
          "internalType": "address",
          "name": "liquidator",
          "type": "address"
        },
        {
          "indexed": false,
          "internalType": "int256",
          "name": "notionalUnwound",
          "type": "int256"
        },
        {
          "indexed": false,
          "internalType": "uint256",
          "name": "liquidatorReward",
          "type": "uint256"
        }
      ],
      "name": "PositionLiquidation",
      "type": "event"
    },
    {
      "anonymous": false,
      "inputs": [
        {
          "indexed": false,
          "internalType": "address",
          "name": "sender",
          "type": "address"
        },
        {
          "indexed": true,
          "internalType": "address",
          "name": "owner",
          "type": "address"
        },
        {
          "indexed": true,
          "internalType": "int24",
          "name": "tickLower",
          "type": "int24"
        },
        {
          "indexed": true,
          "internalType": "int24",
          "name": "tickUpper",
          "type": "int24"
        },
        {
          "indexed": false,
          "internalType": "int256",
          "name": "marginDelta",
          "type": "int256"
        }
      ],
      "name": "PositionMarginUpdate",
      "type": "event"
    },
    {
      "anonymous": false,
      "inputs": [
        {
          "indexed": true,
          "internalType": "address",
          "name": "owner",
          "type": "address"
        },
        {
          "indexed": true,
          "internalType": "int24",
          "name": "tickLower",
          "type": "int24"
        },
        {
          "indexed": true,
          "internalType": "int24",
          "name": "tickUpper",
          "type": "int24"
        },
        {
          "indexed": false,
          "internalType": "int256",
          "name": "settlementCashflow",
          "type": "int256"
        }
      ],
      "name": "PositionSettlement",
      "type": "event"
    },
    {
      "anonymous": false,
      "inputs": [
        {
          "indexed": true,
          "internalType": "address",
          "name": "owner",
          "type": "address"
        },
        {
          "indexed": true,
          "internalType": "int24",
          "name": "tickLower",
          "type": "int24"
        },
        {
          "indexed": true,
          "internalType": "int24",
          "name": "tickUpper",
          "type": "int24"
        },
        {
          "indexed": false,
          "internalType": "uint128",
          "name": "_liquidity",
          "type": "uint128"
        },
        {
          "indexed": false,
          "internalType": "int256",
          "name": "margin",
          "type": "int256"
        },
        {
          "indexed": false,
          "internalType": "int256",
          "name": "fixedTokenBalance",
          "type": "int256"
        },
        {
          "indexed": false,
          "internalType": "int256",
          "name": "variableTokenBalance",
          "type": "int256"
        },
        {
          "indexed": false,
          "internalType": "uint256",
          "name": "accumulatedFees",
          "type": "uint256"
        }
      ],
      "name": "PositionUpdate",
      "type": "event"
    },
    {
      "anonymous": false,
      "inputs": [
        {
          "indexed": false,
          "internalType": "address",
          "name": "sender",
          "type": "address"
        },
        {
          "indexed": true,
          "internalType": "address",
          "name": "recipient",
          "type": "address"
        },
        {
          "indexed": false,
          "internalType": "uint256",
          "name": "amount",
          "type": "uint256"
        }
      ],
      "name": "ProtocolCollection",
      "type": "event"
    },
    {
      "anonymous": false,
      "inputs": [
        {
          "indexed": false,
          "internalType": "uint256",
          "name": "cacheMaxAgeInSeconds",
          "type": "uint256"
        }
      ],
      "name": "RateOracle",
      "type": "event"
    },
    {
      "anonymous": false,
      "inputs": [
        {
          "indexed": true,
          "internalType": "contract IRateOracle",
          "name": "rateOracle",
          "type": "address"
        }
      ],
      "name": "RateOracleSetting",
      "type": "event"
    },
    {
      "anonymous": false,
      "inputs": [
        {
          "indexed": true,
          "internalType": "address",
          "name": "implementation",
          "type": "address"
        }
      ],
      "name": "Upgraded",
      "type": "event"
    },
    {
      "anonymous": false,
      "inputs": [
        {
          "indexed": true,
          "internalType": "contract IVAMM",
          "name": "vamm",
          "type": "address"
        }
      ],
      "name": "VAMMSetting",
      "type": "event"
    },
    {
      "inputs": [],
      "name": "MAX_CACHE_MAX_AGE_IN_SECONDS",
      "outputs": [
        {
          "internalType": "uint256",
          "name": "",
          "type": "uint256"
        }
      ],
      "stateMutability": "view",
      "type": "function"
    },
    {
      "inputs": [],
      "name": "MAX_FIXED_RATE_WAD",
      "outputs": [
        {
          "internalType": "uint256",
          "name": "",
          "type": "uint256"
        }
      ],
      "stateMutability": "view",
      "type": "function"
    },
    {
      "inputs": [],
      "name": "MAX_LIQUIDATOR_REWARD_WAD",
      "outputs": [
        {
          "internalType": "uint256",
          "name": "",
          "type": "uint256"
        }
      ],
      "stateMutability": "view",
      "type": "function"
    },
    {
      "inputs": [],
      "name": "MAX_LOOKBACK_WINDOW_IN_SECONDS",
      "outputs": [
        {
          "internalType": "uint256",
          "name": "",
          "type": "uint256"
        }
      ],
      "stateMutability": "view",
      "type": "function"
    },
    {
      "inputs": [],
      "name": "MIN_LOOKBACK_WINDOW_IN_SECONDS",
      "outputs": [
        {
          "internalType": "uint256",
          "name": "",
          "type": "uint256"
        }
      ],
      "stateMutability": "view",
      "type": "function"
    },
    {
      "inputs": [],
      "name": "ONE",
      "outputs": [
        {
          "internalType": "int256",
          "name": "",
          "type": "int256"
        }
      ],
      "stateMutability": "view",
      "type": "function"
    },
    {
      "inputs": [],
      "name": "ONE_UINT",
      "outputs": [
        {
          "internalType": "uint256",
          "name": "",
          "type": "uint256"
        }
      ],
      "stateMutability": "view",
      "type": "function"
    },
    {
      "inputs": [],
      "name": "SECONDS_IN_YEAR",
      "outputs": [
        {
          "internalType": "int256",
          "name": "",
          "type": "int256"
        }
      ],
      "stateMutability": "view",
      "type": "function"
    },
    {
      "inputs": [],
      "name": "cacheMaxAgeInSeconds",
      "outputs": [
        {
          "internalType": "uint256",
          "name": "",
          "type": "uint256"
        }
      ],
      "stateMutability": "view",
      "type": "function"
    },
    {
      "inputs": [
        {
          "internalType": "address",
          "name": "_recipient",
          "type": "address"
        },
        {
          "internalType": "uint256",
          "name": "_amount",
          "type": "uint256"
        }
      ],
      "name": "collectProtocol",
      "outputs": [],
      "stateMutability": "nonpayable",
      "type": "function"
    },
    {
      "inputs": [],
      "name": "factory",
      "outputs": [
        {
          "internalType": "contract IFactory",
          "name": "",
          "type": "address"
        }
      ],
      "stateMutability": "view",
      "type": "function"
    },
    {
      "inputs": [],
      "name": "fcm",
      "outputs": [
        {
          "internalType": "contract IFCM",
          "name": "",
          "type": "address"
        }
      ],
      "stateMutability": "view",
      "type": "function"
    },
    {
      "inputs": [],
      "name": "getHistoricalApy",
      "outputs": [
        {
          "internalType": "uint256",
          "name": "",
          "type": "uint256"
        }
      ],
      "stateMutability": "nonpayable",
      "type": "function"
    },
    {
      "inputs": [],
      "name": "getHistoricalApyReadOnly",
      "outputs": [
        {
          "internalType": "uint256",
          "name": "",
          "type": "uint256"
        }
      ],
      "stateMutability": "view",
      "type": "function"
    },
    {
      "inputs": [
        {
          "internalType": "address",
          "name": "_owner",
          "type": "address"
        },
        {
          "internalType": "int24",
          "name": "_tickLower",
          "type": "int24"
        },
        {
          "internalType": "int24",
          "name": "_tickUpper",
          "type": "int24"
        }
      ],
      "name": "getPosition",
      "outputs": [
        {
          "components": [
            {
              "internalType": "bool",
              "name": "isSettled",
              "type": "bool"
            },
            {
              "internalType": "uint128",
              "name": "_liquidity",
              "type": "uint128"
            },
            {
              "internalType": "int256",
              "name": "margin",
              "type": "int256"
            },
            {
              "internalType": "int256",
              "name": "fixedTokenGrowthInsideLastX128",
              "type": "int256"
            },
            {
              "internalType": "int256",
              "name": "variableTokenGrowthInsideLastX128",
              "type": "int256"
            },
            {
              "internalType": "int256",
              "name": "fixedTokenBalance",
              "type": "int256"
            },
            {
              "internalType": "int256",
              "name": "variableTokenBalance",
              "type": "int256"
            },
            {
              "internalType": "uint256",
              "name": "feeGrowthInsideLastX128",
              "type": "uint256"
            },
            {
              "internalType": "uint256",
              "name": "rewardPerAmount",
              "type": "uint256"
            },
            {
              "internalType": "uint256",
              "name": "accumulatedFees",
              "type": "uint256"
            }
          ],
          "internalType": "struct Position.Info",
          "name": "",
          "type": "tuple"
        }
      ],
      "stateMutability": "nonpayable",
      "type": "function"
    },
    {
      "inputs": [
        {
          "internalType": "address",
          "name": "_recipient",
          "type": "address"
        },
        {
          "internalType": "int24",
          "name": "_tickLower",
          "type": "int24"
        },
        {
          "internalType": "int24",
          "name": "_tickUpper",
          "type": "int24"
        },
        {
          "internalType": "bool",
          "name": "_isLM",
          "type": "bool"
        }
      ],
      "name": "getPositionMarginRequirement",
      "outputs": [
        {
          "internalType": "uint256",
          "name": "",
          "type": "uint256"
        }
      ],
      "stateMutability": "nonpayable",
      "type": "function"
    },
    {
      "inputs": [
        {
          "internalType": "contract IERC20Minimal",
          "name": "__underlyingToken",
          "type": "address"
        },
        {
          "internalType": "contract IRateOracle",
          "name": "__rateOracle",
          "type": "address"
        },
        {
          "internalType": "uint256",
          "name": "__termStartTimestampWad",
          "type": "uint256"
        },
        {
          "internalType": "uint256",
          "name": "__termEndTimestampWad",
          "type": "uint256"
        }
      ],
      "name": "initialize",
      "outputs": [],
      "stateMutability": "nonpayable",
      "type": "function"
    },
    {
      "inputs": [],
      "name": "isAlpha",
      "outputs": [
        {
          "internalType": "bool",
          "name": "",
          "type": "bool"
        }
      ],
      "stateMutability": "view",
      "type": "function"
    },
    {
      "inputs": [
        {
          "internalType": "address",
          "name": "_owner",
          "type": "address"
        },
        {
          "internalType": "int24",
          "name": "_tickLower",
          "type": "int24"
        },
        {
          "internalType": "int24",
          "name": "_tickUpper",
          "type": "int24"
        }
      ],
      "name": "liquidatePosition",
      "outputs": [
        {
          "internalType": "uint256",
          "name": "",
          "type": "uint256"
        }
      ],
      "stateMutability": "nonpayable",
      "type": "function"
    },
    {
      "inputs": [],
      "name": "liquidatorRewardWad",
      "outputs": [
        {
          "internalType": "uint256",
          "name": "",
          "type": "uint256"
        }
      ],
      "stateMutability": "view",
      "type": "function"
    },
    {
      "inputs": [],
      "name": "lookbackWindowInSeconds",
      "outputs": [
        {
          "internalType": "uint256",
          "name": "",
          "type": "uint256"
        }
      ],
      "stateMutability": "view",
      "type": "function"
    },
    {
      "inputs": [],
      "name": "owner",
      "outputs": [
        {
          "internalType": "address",
          "name": "",
          "type": "address"
        }
      ],
      "stateMutability": "view",
      "type": "function"
    },
    {
      "inputs": [],
      "name": "paused",
      "outputs": [
        {
          "internalType": "bool",
          "name": "",
          "type": "bool"
        }
      ],
      "stateMutability": "view",
      "type": "function"
    },
    {
      "inputs": [],
      "name": "proxiableUUID",
      "outputs": [
        {
          "internalType": "bytes32",
          "name": "",
          "type": "bytes32"
        }
      ],
      "stateMutability": "view",
      "type": "function"
    },
    {
      "inputs": [],
      "name": "rateOracle",
      "outputs": [
        {
          "internalType": "contract IRateOracle",
          "name": "",
          "type": "address"
        }
      ],
      "stateMutability": "view",
      "type": "function"
    },
    {
      "inputs": [],
      "name": "renounceOwnership",
      "outputs": [],
      "stateMutability": "nonpayable",
      "type": "function"
    },
    {
      "inputs": [
        {
          "internalType": "uint256",
          "name": "_newCacheMaxAgeInSeconds",
          "type": "uint256"
        }
      ],
      "name": "setCacheMaxAgeInSeconds",
      "outputs": [],
      "stateMutability": "nonpayable",
      "type": "function"
    },
    {
      "inputs": [
        {
          "internalType": "contract IFCM",
          "name": "_newFCM",
          "type": "address"
        }
      ],
      "name": "setFCM",
      "outputs": [],
      "stateMutability": "nonpayable",
      "type": "function"
    },
    {
      "inputs": [
        {
          "internalType": "bool",
          "name": "__isAlpha",
          "type": "bool"
        }
      ],
      "name": "setIsAlpha",
      "outputs": [],
      "stateMutability": "nonpayable",
      "type": "function"
    },
    {
      "inputs": [
        {
          "internalType": "uint256",
          "name": "_newLiquidatorRewardWad",
          "type": "uint256"
        }
      ],
      "name": "setLiquidatorReward",
      "outputs": [],
      "stateMutability": "nonpayable",
      "type": "function"
    },
    {
      "inputs": [
        {
          "internalType": "uint256",
          "name": "_newSecondsAgo",
          "type": "uint256"
        }
      ],
      "name": "setLookbackWindowInSeconds",
      "outputs": [],
      "stateMutability": "nonpayable",
      "type": "function"
    },
    {
      "inputs": [
        {
          "components": [
            {
              "internalType": "uint256",
              "name": "apyUpperMultiplierWad",
              "type": "uint256"
            },
            {
              "internalType": "uint256",
              "name": "apyLowerMultiplierWad",
              "type": "uint256"
            },
            {
              "internalType": "int256",
              "name": "sigmaSquaredWad",
              "type": "int256"
            },
            {
              "internalType": "int256",
              "name": "alphaWad",
              "type": "int256"
            },
            {
              "internalType": "int256",
              "name": "betaWad",
              "type": "int256"
            },
            {
              "internalType": "int256",
              "name": "xiUpperWad",
              "type": "int256"
            },
            {
              "internalType": "int256",
              "name": "xiLowerWad",
              "type": "int256"
            },
            {
              "internalType": "int256",
              "name": "tMaxWad",
              "type": "int256"
            },
            {
              "internalType": "uint256",
              "name": "devMulLeftUnwindLMWad",
              "type": "uint256"
            },
            {
              "internalType": "uint256",
              "name": "devMulRightUnwindLMWad",
              "type": "uint256"
            },
            {
              "internalType": "uint256",
              "name": "devMulLeftUnwindIMWad",
              "type": "uint256"
            },
            {
              "internalType": "uint256",
              "name": "devMulRightUnwindIMWad",
              "type": "uint256"
            },
            {
              "internalType": "uint256",
              "name": "fixedRateDeviationMinLeftUnwindLMWad",
              "type": "uint256"
            },
            {
              "internalType": "uint256",
              "name": "fixedRateDeviationMinRightUnwindLMWad",
              "type": "uint256"
            },
            {
              "internalType": "uint256",
              "name": "fixedRateDeviationMinLeftUnwindIMWad",
              "type": "uint256"
            },
            {
              "internalType": "uint256",
              "name": "fixedRateDeviationMinRightUnwindIMWad",
              "type": "uint256"
            },
            {
              "internalType": "uint256",
              "name": "gammaWad",
              "type": "uint256"
            },
            {
              "internalType": "uint256",
              "name": "minMarginToIncentiviseLiquidators",
              "type": "uint256"
            }
          ],
          "internalType": "struct IMarginEngine.MarginCalculatorParameters",
          "name": "_marginCalculatorParameters",
          "type": "tuple"
        }
      ],
      "name": "setMarginCalculatorParameters",
      "outputs": [],
      "stateMutability": "nonpayable",
      "type": "function"
    },
    {
      "inputs": [
        {
          "internalType": "bool",
          "name": "state",
          "type": "bool"
        }
      ],
      "name": "setPausability",
      "outputs": [],
      "stateMutability": "nonpayable",
      "type": "function"
    },
    {
      "inputs": [
        {
          "internalType": "contract IRateOracle",
          "name": "__rateOracle",
          "type": "address"
        }
      ],
      "name": "setRateOracle",
      "outputs": [],
      "stateMutability": "nonpayable",
      "type": "function"
    },
    {
      "inputs": [
        {
          "internalType": "contract IVAMM",
          "name": "_vAMM",
          "type": "address"
        }
      ],
      "name": "setVAMM",
      "outputs": [],
      "stateMutability": "nonpayable",
      "type": "function"
    },
    {
      "inputs": [
        {
          "internalType": "address",
          "name": "_owner",
          "type": "address"
        },
        {
          "internalType": "int24",
          "name": "_tickLower",
          "type": "int24"
        },
        {
          "internalType": "int24",
          "name": "_tickUpper",
          "type": "int24"
        }
      ],
      "name": "settlePosition",
      "outputs": [],
      "stateMutability": "nonpayable",
      "type": "function"
    },
    {
      "inputs": [],
      "name": "termEndTimestampWad",
      "outputs": [
        {
          "internalType": "uint256",
          "name": "",
          "type": "uint256"
        }
      ],
      "stateMutability": "view",
      "type": "function"
    },
    {
      "inputs": [],
      "name": "termStartTimestampWad",
      "outputs": [
        {
          "internalType": "uint256",
          "name": "",
          "type": "uint256"
        }
      ],
      "stateMutability": "view",
      "type": "function"
    },
    {
      "inputs": [
        {
          "internalType": "address",
          "name": "_account",
          "type": "address"
        },
        {
          "internalType": "uint256",
          "name": "_marginDelta",
          "type": "uint256"
        }
      ],
      "name": "transferMarginToFCMTrader",
      "outputs": [],
      "stateMutability": "nonpayable",
      "type": "function"
    },
    {
      "inputs": [
        {
          "internalType": "address",
          "name": "newOwner",
          "type": "address"
        }
      ],
      "name": "transferOwnership",
      "outputs": [],
      "stateMutability": "nonpayable",
      "type": "function"
    },
    {
      "inputs": [],
      "name": "underlyingToken",
      "outputs": [
        {
          "internalType": "contract IERC20Minimal",
          "name": "",
          "type": "address"
        }
      ],
      "stateMutability": "view",
      "type": "function"
    },
    {
      "inputs": [
        {
          "internalType": "address",
          "name": "_owner",
          "type": "address"
        },
        {
          "internalType": "int24",
          "name": "_tickLower",
          "type": "int24"
        },
        {
          "internalType": "int24",
          "name": "_tickUpper",
          "type": "int24"
        },
        {
          "internalType": "int256",
          "name": "_marginDelta",
          "type": "int256"
        }
      ],
      "name": "updatePositionMargin",
      "outputs": [],
      "stateMutability": "nonpayable",
      "type": "function"
    },
    {
      "inputs": [
        {
          "components": [
            {
              "internalType": "address",
              "name": "owner",
              "type": "address"
            },
            {
              "internalType": "int24",
              "name": "tickLower",
              "type": "int24"
            },
            {
              "internalType": "int24",
              "name": "tickUpper",
              "type": "int24"
            },
            {
              "internalType": "int128",
              "name": "liquidityDelta",
              "type": "int128"
            }
          ],
          "internalType": "struct IPositionStructs.ModifyPositionParams",
          "name": "_params",
          "type": "tuple"
        }
      ],
      "name": "updatePositionPostVAMMInducedMintBurn",
      "outputs": [
        {
          "internalType": "int256",
          "name": "_positionMarginRequirement",
          "type": "int256"
        }
      ],
      "stateMutability": "nonpayable",
      "type": "function"
    },
    {
      "inputs": [
        {
          "internalType": "address",
          "name": "_owner",
          "type": "address"
        },
        {
          "internalType": "int24",
          "name": "_tickLower",
          "type": "int24"
        },
        {
          "internalType": "int24",
          "name": "_tickUpper",
          "type": "int24"
        },
        {
          "internalType": "int256",
          "name": "_fixedTokenDelta",
          "type": "int256"
        },
        {
          "internalType": "int256",
          "name": "_variableTokenDelta",
          "type": "int256"
        },
        {
          "internalType": "uint256",
          "name": "_cumulativeFeeIncurred",
          "type": "uint256"
        },
        {
          "internalType": "int256",
          "name": "_fixedTokenDeltaUnbalanced",
          "type": "int256"
        }
      ],
      "name": "updatePositionPostVAMMInducedSwap",
      "outputs": [
        {
          "internalType": "int256",
          "name": "_positionMarginRequirement",
          "type": "int256"
        }
      ],
      "stateMutability": "nonpayable",
      "type": "function"
    },
    {
      "inputs": [
        {
          "internalType": "address",
          "name": "newImplementation",
          "type": "address"
        }
      ],
      "name": "upgradeTo",
      "outputs": [],
      "stateMutability": "nonpayable",
      "type": "function"
    },
    {
      "inputs": [
        {
          "internalType": "address",
          "name": "newImplementation",
          "type": "address"
        },
        {
          "internalType": "bytes",
          "name": "data",
          "type": "bytes"
        }
      ],
      "name": "upgradeToAndCall",
      "outputs": [],
      "stateMutability": "payable",
      "type": "function"
    },
    {
      "inputs": [],
      "name": "vamm",
      "outputs": [
        {
          "internalType": "contract IVAMM",
          "name": "",
          "type": "address"
        }
      ],
      "stateMutability": "view",
      "type": "function"
    }
  ],
  "transactionHash": "0x138a86d0e0672ea2899d309d1094f1a6c457bdb267422035ab2b264ed7d289b8",
  "args": [],
  "numDeployments": 3,
  "solcInputHash": "a6592ee8e82484198f62538fb5f6f87b",
  "bytecode": "0x60a0604052306080523480156200001557600080fd5b50606554610100900460ff1615808015620000375750606554600160ff909116105b8062000067575062000054306200014160201b620021911760201c565b15801562000067575060655460ff166001145b620000cf5760405162461bcd60e51b815260206004820152602e60248201527f496e697469616c697a61626c653a20636f6e747261637420697320616c72656160448201526d191e481a5b9a5d1a585b1a5e995960921b606482015260840160405180910390fd5b6065805460ff191660011790558015620000f3576065805461ff0019166101001790555b80156200013a576065805461ff0019169055604051600181527f7f26b83ff96e1f2b6a682f133852f6798a09c465da95921460cefb38474024989060200160405180910390a15b5062000150565b6001600160a01b03163b151590565b608051615fde6200018860003960008181610b8b01528181610bcb01528181610c5401528181610c940152610d100152615fde6000f3fe6080604052600436106102185760003560e01c80630d2119541461021d5780631656503e1461023f57806322d23b21146102725780632495a599146102995780633659cfe6146102b75780634f1ef286146102d757806352d1902d146102ea578063534d3375146102ff5780635c975abb1461031f5780635dcc93911461034e5780635f6a3e0c1461036d57806363f5738114610383578063652c30b71461039f578063715018a6146103b4578063754e2a8f146103c95780637717797f146103e957806386b127ee1461040957806387e1630314610420578063884287521461043c5780638da5cb5b146104545780639209e9ba1461046957806393edb4541461049657806398f4b1b2146104ab5780639cbff188146104c9578063a1ea6a20146104de578063a725b965146104fe578063b5c22d491461051e578063b623f5191461053e578063bfb5607d14610553578063c09617ae14610573578063c2ee3a0814610383578063c326189214610593578063c45a0155146105b3578063c7607a9c146105d1578063cd41b3d5146105f1578063cf3c99bd14610611578063d50d881114610631578063e087caf114610646578063e098372c1461065b578063e3f0837414610679578063e6e306c91461068e578063e9e441bb146106aa578063eb990c59146106ca578063efcfc3f9146106ea578063f12161051461070a578063f2fde38b1461072a578063f907bd6d1461074a575b600080fd5b34801561022957600080fd5b5061023d610238366004615469565b610762565b005b34801561024b57600080fd5b5061025f61025a3660046154aa565b61080c565b6040519081526020015b60405180910390f35b34801561027e57600080fd5b506004546001600160a01b03165b60405161026991906154f5565b3480156102a557600080fd5b506001546001600160a01b031661028c565b3480156102c357600080fd5b5061023d6102d2366004615509565b610b80565b61023d6102e5366004615595565b610c49565b3480156102f657600080fd5b5061025f610d03565b34801561030b57600080fd5b5061023d61031a366004615509565b610db1565b34801561032b57600080fd5b50601f5461033e90610100900460ff1681565b6040519015158152602001610269565b34801561035a57600080fd5b5061025f6a1a1601fc4ea7109e00000081565b34801561037957600080fd5b5061025f610e1081565b34801561038f57600080fd5b5061025f670de0b6b3a764000081565b3480156103ab57600080fd5b5060025461025f565b3480156103c057600080fd5b5061023d610e03565b3480156103d557600080fd5b5061023d6103e436600461563c565b610e17565b3480156103f557600080fd5b5061023d610404366004615668565b610f0a565b34801561041557600080fd5b5061025f6212750081565b34801561042c57600080fd5b5061025f670429d069189e000081565b34801561044857600080fd5b50601f5460ff1661033e565b34801561046057600080fd5b5061028c611241565b34801561047557600080fd5b506104896104843660046154aa565b611250565b60405161026991906156b9565b3480156104a257600080fd5b5060035461025f565b3480156104b757600080fd5b50600c546001600160a01b031661028c565b3480156104d557600080fd5b5060075461025f565b3480156104ea57600080fd5b5061023d6104f9366004615739565b611357565b34801561050a57600080fd5b5061023d6105193660046154aa565b611406565b34801561052a57600080fd5b5061023d610539366004615752565b611615565b34801561054a57600080fd5b50600a5461025f565b34801561055f57600080fd5b5061025f61056e36600461582e565b61179e565b34801561057f57600080fd5b5061025f61058e3660046158b9565b6118db565b34801561059f57600080fd5b5061023d6105ae366004615739565b611b1f565b3480156105bf57600080fd5b50600b546001600160a01b031661028c565b3480156105dd57600080fd5b5061023d6105ec366004615509565b611b99565b3480156105fd57600080fd5b5061023d61060c366004615469565b611beb565b34801561061d57600080fd5b5061023d61062c366004615509565b611c3a565b34801561063d57600080fd5b5061025f611c8c565b34801561065257600080fd5b5060005461025f565b34801561066757600080fd5b506006546001600160a01b031661028c565b34801561068557600080fd5b5061025f611cb9565b34801561069a57600080fd5b5061025f67d02ab486cedc000081565b3480156106b657600080fd5b5061023d6106c5366004615739565b611d1c565b3480156106d657600080fd5b5061023d6106e5366004615927565b611d9a565b3480156106f657600080fd5b5061023d61070536600461563c565b612014565b34801561071657600080fd5b5061025f61072536600461596d565b61207e565b34801561073657600080fd5b5061023d610745366004615509565b61211b565b34801561075657600080fd5b5061025f6312cc030081565b6006546001600160a01b0316331461078d57604051633dec6c6960e11b815260040160405180910390fd5b601f80548215156101000261ff001990911617905560048054604051630348465560e21b81526001600160a01b0390911691630d211954916107d791859101901515815260200190565b600060405180830381600087803b1580156107f157600080fd5b505af1158015610805573d6000803e3d6000fd5b5050505050565b601f54600090610100900460ff16156108405760405162461bcd60e51b8152600401610837906159c9565b60405180910390fd5b61084b6003546121a0565b15610869576040516314eb7aa760e21b815260040160405180910390fd5b61087383836121c8565b60006108826005868686612289565b905061089181858560006122f4565b600061089e8286866124f3565b509050806108bf5760405163bf87c7d560e01b815260040160405180910390fd5b6007820154610929576000808360050154126108df5782600501546108ed565b82600501546108ed906159ff565b905060008360010154131561091f5761091561090f846001015460005461251a565b82612526565b6007840155610927565b600060078401555b505b815460009061010090046001600160801b031615610a29576006548354604051631f2f089360e01b81526001600160a01b038a8116600483015260028a810b602484015289900b60448301526101009092046001600160801b03166064820152911690631f2f089390608401602060405180830381600087803b1580156109af57600080fd5b505af11580156109c3573d6000803e3d6000fd5b505050506040513d601f19601f820116820180604052508101906109e79190615a1c565b508254610a0c90610a059061010090046001600160801b0316615a35565b849061253b565b610a1c836001015460005461251a565b610a269082615a5d565b90505b6000610a378489898961263f565b90508015610a7d5760008112610a5a57610a5581856007015461251a565b610a70565b610a70610a66826159ff565b856007015461251a565b610a7a9083615a5d565b91505b8115610ab657610a9f610a8f836127cf565b610a98906159ff565b8590612818565b600154610ab6906001600160a01b03163384612835565b6040805133815260208101839052908101839052600287810b919089900b906001600160a01b038b16907f743fc9c78420f1cdcbbcb2ed0928d77e4a043cf392481c7e9edbf27bf7a3cea19060600160405180910390a48560020b8760020b896001600160a01b0316600080516020615f228339815191528760000160019054906101000a90046001600160801b0316886001015489600401548a600501548b60080154604051610b6b959493929190615a75565b60405180910390a450925050505b9392505050565b306001600160a01b037f0000000000000000000000000000000000000000000000000000000000000000161415610bc95760405162461bcd60e51b815260040161083790615aa3565b7f00000000000000000000000000000000000000000000000000000000000000006001600160a01b0316610bfb61288b565b6001600160a01b031614610c215760405162461bcd60e51b815260040161083790615add565b610c2a816128a7565b60408051600080825260208201909252610c46918391906128af565b50565b306001600160a01b037f0000000000000000000000000000000000000000000000000000000000000000161415610c925760405162461bcd60e51b815260040161083790615aa3565b7f00000000000000000000000000000000000000000000000000000000000000006001600160a01b0316610cc461288b565b6001600160a01b031614610cea5760405162461bcd60e51b815260040161083790615add565b610cf3826128a7565b610cff828260016128af565b5050565b6000306001600160a01b037f00000000000000000000000000000000000000000000000000000000000000001614610d9e5760405162461bcd60e51b815260206004820152603860248201527f555550535570677261646561626c653a206d757374206e6f742062652063616c6044820152771b1959081d1a1c9bdd59da0819195b1959d85d1958d85b1b60421b6064820152608401610837565b50600080516020615f6283398151915290565b610db9612a29565b600480546001600160a01b0319166001600160a01b0383169081179091556040517fb637eb25e9652bee83990e0c20b043e658d22a8b4739422ebd3862bf9ff53dc590600090a250565b610e0b612a29565b610e156000612a88565b565b601f54610100900460ff1615610e3f5760405162461bcd60e51b8152600401610837906159c9565b610e47612a29565b8015610ec357600654604051630867377160e41b8152600481018390526001600160a01b0390911690638673771090602401600060405180830381600087803b158015610e9357600080fd5b505af1158015610ea7573d6000803e3d6000fd5b5050600154610ec392506001600160a01b031690508383612835565b816001600160a01b03167fb78dfa45a5ff63131f1605e70c83cda5d70122e260919864eeee2ae01e3e459f3383604051610efe929190615b17565b60405180910390a25050565b601f54610100900460ff1615610f325760405162461bcd60e51b8152600401610837906159c9565b8080610f5157604051638acc6d7f60e01b815260040160405180910390fd5b6001600160a01b038516610f8c5760405162461bcd60e51b815260206004820152600260248201526104f360f41b6044820152606401610837565b610f9684846121c8565b6000610fa56005878787612289565b601f5490915060ff161561107957600b5460408051633bd5670d60e11b815290516000926001600160a01b0316916377aace1a916004808301926020929190829003018186803b158015610ff857600080fd5b505afa15801561100c573d6000803e3d6000fd5b505050506040513d601f19601f820116820180604052508101906110309190615b30565b9050336001600160a01b038216146110775760405162461bcd60e51b815260206004820152600a6024820152697070687279206f6e6c7960b01b6044820152606401610837565b505b61108681868660006122f4565b600083121561116a576001600160a01b03861633148015906111285750600b546040516351c4bc1f60e11b81526001600160a01b0388811660048301523360248301529091169063a389783e9060440160206040518083038186803b1580156110ee57600080fd5b505afa158015611102573d6000803e3d6000fd5b505050506040513d601f19601f820116820180604052508101906111269190615b4d565b155b1561114657604051637da45ce760e01b815260040160405180910390fd5b6111508184612818565b61115b818686612ada565b6111658684612b3d565b61117e565b6111748184612818565b61117e3384612b3d565b600081600701819055508360020b8560020b876001600160a01b03167f58fda8ef9050967ebeb4f3bc6baea53d849c21755d63a2abb4507c5db1b118ec33876040516111cb929190615b17565b60405180910390a48360020b8560020b876001600160a01b0316600080516020615f228339815191528460000160019054906101000a90046001600160801b03168560010154866004015487600501548860080154604051611231959493929190615a75565b60405180910390a4505050505050565b6098546001600160a01b031690565b6112b160405180610140016040528060001515815260200160006001600160801b0316815260200160008152602001600081526020016000815260200160008152602001600081526020016000815260200160008152602001600081525090565b60006112c06005868686612289565b90506112cf81858560006122f4565b6040805161014081018252825460ff811615158252610100908190046001600160801b031660208301526001840154928201929092526002830154606082015260038301546080820152600483015460a0820152600583015460c0820152600683015460e0820152600783015491810191909152600890910154610120820152949350505050565b61135f612a29565b6312cc030081111580156113755750610e108110155b6113aa5760405162461bcd60e51b815260206004820152600660248201526526211027a7a160d11b6044820152606401610837565b6007546113bb5760078190556113c8565b60078190556113c8612c97565b7f1615a39c548a63ced5cc405350ce2e18f4f50ce7d4aedb4bfb95b7e4a821a8c06007546040516113fb91815260200190565b60405180910390a150565b601f54610100900460ff161561142e5760405162461bcd60e51b8152600401610837906159c9565b611436612ca8565b6003541115611458576040516301730b8160e11b815260040160405180910390fd5b61146282826121c8565b60006114716005858585612289565b905061148081848460006122f4565b6004808201546005830154600254600354600c546040516325f258dd60e01b815260009661152196959493926001600160a01b0316916325f258dd916114ca918691869101615b6a565b602060405180830381600087803b1580156114e457600080fd5b505af11580156114f8573d6000803e3d6000fd5b505050506040513d601f19601f8201168201806040525081019061151c9190615a1c565b612cb3565b905061154a8260040154611534906159ff565b8360050154611542906159ff565b849190612d1f565b6115548282612818565b61155d82612d60565b8260020b8460020b866001600160a01b03167f970071e0d424aa8ce645bd8034df7db5eec3ce8fb9d83833a84320fb29b2c9fc846040516115a091815260200190565b60405180910390a48260020b8460020b866001600160a01b0316600080516020615f228339815191528560000160019054906101000a90046001600160801b03168660010154876004015488600501548960080154604051611606959493929190615a75565b60405180910390a45050505050565b61161d612a29565b8051600d9081556020820151600e55604080830151600f556060830151601055608083015160115560a083015160125560c083015160135560e08301516014556101008301516015556101208301516016556101408301516017556101608301516018556101808301516019556101a0830151601a556101c0830151601b556101e0830151601c55610200830151601d55610220830151601e55517f96fef58d97876707a1bd5650c97ca391d5558a8c30e1c96363c89486cb9aa8c2916113fb918154815260018201546020820152600282015460408201526003820154606082015260048201546080820152600582015460a0820152600682015460c0820152600782015460e082015260088201546101008201526009820154610120820152600a820154610140820152600b820154610160820152600c820154610180820152600d8201546101a0820152600e8201546101c0820152600f8201546101e082015260108201546102008201526011909101546102208201526102400190565b601f54600090610100900460ff16156117c95760405162461bcd60e51b8152600401610837906159c9565b6006546001600160a01b031633146117f457604051633dec6c6960e11b815260040160405180910390fd5b81516020830151604084015160009261180f92600592612289565b9050611826818460200151856040015160016122f4565b606083015161183690829061253b565b60008360600151600f0b131561185c576118598184602001518560400151612db1565b91505b60006007820155826040015160020b836020015160020b84600001516001600160a01b0316600080516020615f228339815191528460000160019054906101000a90046001600160801b031685600101548660040154876005015488600801546040516118cd959493929190615a75565b60405180910390a450919050565b601f54600090610100900460ff16156119065760405162461bcd60e51b8152600401610837906159c9565b6006546001600160a01b0316331461193157604051633dec6c6960e11b815260040160405180910390fd5b600061194060058a8a8a612289565b905061194f81898960006122f4565b60008082600501541380156119645750600086125b8061197e57506000826005015412801561197e5750600086135b905084156119a2576119a2611992866127cf565b61199b906159ff565b8390612818565b6119ad828888612d1f565b6119c26119bd838b8b6000612dec565b6127cf565b92508160010154831380156119d5575080155b15611aa257600654604080516320283ddb60e21b815290516000926001600160a01b0316916380a0f76c916004808301926060929190829003018186803b158015611a1f57600080fd5b505afa158015611a33573d6000803e3d6000fd5b505050506040513d601f19601f82011682018060405250810190611a579190615b78565b60208101516040516343f2832160e01b81526004810187905260029190910b6024820152604481018a9052606481018990526084810188905260a4810187905290915060c401610837565b600082600701819055508760020b8960020b8b6001600160a01b0316600080516020615f228339815191528560000160019054906101000a90046001600160801b03168660010154876004015488600501548960080154604051611b0a959493929190615a75565b60405180910390a45050979650505050505050565b611b27612a29565b62127500811115611b645760405162461bcd60e51b815260206004820152600760248201526621a6a09027a7a160c91b6044820152606401610837565b600a8190556040518181527f03f78e38097f23422a330825158a9cf778080b032c154a45063464b46a328f95906020016113fb565b611ba1612a29565b600680546001600160a01b0319166001600160a01b0383169081179091556040517f8bd432982306c1f9ddd987c98d3842200f8aa7668b030cbdea0a45fd31f5d69c90600090a250565b611bf3612a29565b601f805460ff191682151590811790915560405160ff909116151581527fa201234976cfdc556c03f06ca9366e09441724eae79256ad9da6b5f04cbdb058906020016113fb565b611c42612a29565b600c80546001600160a01b0319166001600160a01b0383169081179091556040517fbdf78832ed83738bb07ebf2c5671aa6b81e05ca40d52cbdf5cc9f327829a3d7090600090a250565b6000600a5460095442611c9f9190615bef565b1115611cb257611cad6131a0565b905090565b5060085490565b6000600a5460095442611ccc9190615bef565b1115611cb257611cda612c97565b7fa54badf52ad5c1729ee2a0e934e6b23e9a3a037d7a761ccd78b01a8db4bf3f14600854604051611d0d91815260200190565b60405180910390a15060085490565b611d24612a29565b670429d069189e0000811115611d655760405162461bcd60e51b815260206004820152600660248201526526291027a7a160d11b6044820152606401610837565b60008190556040518181527f7c1f79218de766d3f02f194836ae0d52b5b8a3fb34f3d76795d9fe9050fc2ea9906020016113fb565b606554610100900460ff1615808015611dba5750606554600160ff909116105b80611ddb5750611dc930612191565b158015611ddb575060655460ff166001145b611e3e5760405162461bcd60e51b815260206004820152602e60248201527f496e697469616c697a61626c653a20636f6e747261637420697320616c72656160448201526d191e481a5b9a5d1a585b1a5e995960921b6064820152608401610837565b6065805460ff191660011790558015611e61576065805461ff0019166101001790555b6001600160a01b038516611e9c5760405162461bcd60e51b8152602060048201526002602482015261155560f21b6044820152606401610837565b6001600160a01b038416611ed75760405162461bcd60e51b8152602060048201526002602482015261524f60f01b6044820152606401610837565b82611f095760405162461bcd60e51b8152602060048201526002602482015261545360f01b6044820152606401610837565b81611f3b5760405162461bcd60e51b8152602060048201526002602482015261544560f01b6044820152606401610837565b828211611f735760405162461bcd60e51b815260206004820152600660248201526554453c3d545360d01b6044820152606401610837565b600180546001600160a01b038088166001600160a01b03199283161790925560028590556003849055600c805492871692821692909217909155600b805490911633179055611fc0613239565b611fc8613268565b8015610805576065805461ff0019169055604051600181527f7f26b83ff96e1f2b6a682f133852f6798a09c465da95921460cefb38474024989060200160405180910390a15050505050565b601f54610100900460ff161561203c5760405162461bcd60e51b8152600401610837906159c9565b6004546001600160a01b0316331461206757604051635d8a367560e01b815260040160405180910390fd5b600154610cff906001600160a01b03168383612835565b60008061208e6005878787612289565b905061209d81868660006122f4565b8360020b8560020b876001600160a01b0316600080516020615f228339815191528460000160019054906101000a90046001600160801b031685600101548660040154876005015488600801546040516120fb959493929190615a75565b60405180910390a461210f81868686612dec565b9150505b949350505050565b612123612a29565b6001600160a01b0381166121885760405162461bcd60e51b815260206004820152602660248201527f4f776e61626c653a206e6577206f776e657220697320746865207a65726f206160448201526564647265737360d01b6064820152608401610837565b610c4681612a88565b6001600160a01b03163b151590565b60008169124bc0ddd92e560000006121b6612ca8565b6121c09190615a5d565b101592915050565b8060020b8260020b126122035760405162461bcd60e51b8152602060048201526003602482015262544c5560e81b6044820152606401610837565b62010deb19600283900b12156122415760405162461bcd60e51b8152602060048201526003602482015262544c4d60e81b6044820152606401610837565b61224e62010deb19615c06565b60020b8160020b1315610cff5760405162461bcd60e51b815260206004820152600360248201526254554d60e81b6044820152606401610837565b600061229583836121c8565b6040516001600160601b0319606086901b16602082015260e884811b603483015283901b60378201528590600090603a016040516020818303038152906040528051906020012081526020019081526020016000209050949350505050565b835461010090046001600160801b03161561244557600654604051631e47919f60e11b8152600285810b600483015284900b6024820152600091829182916001600160a01b031690633c8f233e9060440160606040518083038186803b15801561235d57600080fd5b505afa158015612371573d6000803e3d6000fd5b505050506040513d601f19601f820116820180604052508101906123959190615c20565b919450925090506000806123aa89868661328f565b909250905060006123bb8a8561337f565b90506123de6123cb600185615c4e565b6123d6600185615c4e565b8c9190612d1f565b60028a0186905560038a018590558015612435576123fd600182615bef565b8a60080160008282546124109190615a5d565b9091555061243590506001612424836127cf565b61242e9190615c4e565b8b90612818565b5050506006870155506124ed9050565b80156124ed57600654604051631e47919f60e11b8152600285810b600483015284900b6024820152600091829182916001600160a01b031690633c8f233e9060440160606040518083038186803b15801561249f57600080fd5b505afa1580156124b3573d6000803e3d6000fd5b505050506040513d601f19601f820116820180604052508101906124d79190615c20565b60028a0192909255600389015560068801555050505b50505050565b60008060006125086119bd8787876001612dec565b60019690960154861396945050505050565b6000610b798383613416565b6000610b7983670de0b6b3a7640000846134d9565b6040805161014081018252835460ff8116151582526001600160801b03610100918290041660208301526001850154928201929092526002840154606082015260038401546080820152600484015460a0820152600584015460c0820152600684015460e08201526007840154918101919091526008830154610120820152600f82900b61260a57600081602001516001600160801b0316116126055760405162461bcd60e51b815260206004820152600260248201526104e560f41b6044820152606401610837565b505050565b6126188160200151836135a1565b83546001600160801b039190911661010002610100600160881b0319909116178355505050565b600061264b83836121c8565b60058501541561211357600080600080886005015412905060006040518060a00160405280896001600160a01b031681526020018a600501548152602001836126ab576126a660016c1fa71f3f5f68a90479ee3f8fec615c8d565b6126c2565b6126c26b0816769404766de590afe04e6001615cb5565b6001600160a01b03908116825260028a810b6020808501919091528a820b60409485015260065484516333bac73760e11b815286518516600482015291860151602483015293850151831660448201526060850151820b6064820152608085015190910b608482015292935016906367758e6e9060a40160a060405180830381600087803b15801561275357600080fd5b505af1158015612767573d6000803e3d6000fd5b505050506040513d601f19601f8201168201806040525081019061278b9190615ce0565b509197509195509093505082156127b8576127b86127a8846127cf565b6127b1906159ff565b8a90612818565b6127c3898587612d1f565b50505050949350505050565b6000600160ff1b82106128145760405162461bcd60e51b815260206004820152600d60248201526c746f496e74323536206f666c6f60981b6044820152606401610837565b5090565b8082600101600082825461282c9190615d20565b90915550505050565b6126058363a9059cbb60e01b8484604051602401612854929190615b17565b60408051601f198184030181529190526020810180516001600160e01b03166001600160e01b0319909316929092179091526135cf565b600080516020615f62833981519152546001600160a01b031690565b610c46612a29565b7f4910fdfa16fed3260ed0e7147f7cc6da11a60208b5b9406d12a635614ffd91435460ff16156128e25761260583613650565b826001600160a01b03166352d1902d6040518163ffffffff1660e01b815260040160206040518083038186803b15801561291b57600080fd5b505afa92505050801561294b575060408051601f3d908101601f1916820190925261294891810190615a1c565b60015b6129ae5760405162461bcd60e51b815260206004820152602e60248201527f45524331393637557067726164653a206e657720696d706c656d656e7461746960448201526d6f6e206973206e6f74205555505360901b6064820152608401610837565b600080516020615f628339815191528114612a1d5760405162461bcd60e51b815260206004820152602960248201527f45524331393637557067726164653a20756e737570706f727465642070726f786044820152681a58589b195555525160ba1b6064820152608401610837565b506126058383836136ea565b33612a32611241565b6001600160a01b031614610e155760405162461bcd60e51b815260206004820181905260248201527f4f776e61626c653a2063616c6c6572206973206e6f7420746865206f776e65726044820152606401610837565b609880546001600160a01b038381166001600160a01b0319831681179093556040519116919082907f8be0079c531659141344cd1fd0a4f28419497f9722a3daafe3b4186f6b6457e090600090a35050565b600354612ae5612ca8565b10612b3257825460ff16612b0c5760405163169b07f760e21b815260040160405180910390fd5b60008360010154121561260557604051630a5f871f60e21b815260040160405180910390fd5b6124ed838383612db1565b6000811315612b5e57600154610cff906001600160a01b031683308461370f565b6001546040516370a0823160e01b81526000916001600160a01b0316906370a0823190612b8f9030906004016154f5565b60206040518083038186803b158015612ba757600080fd5b505afa158015612bbb573d6000803e3d6000fd5b505050506040513d601f19601f82011682018060405250810190612bdf9190615a1c565b9050600082900381811115612c80578115612c1857612bfe8282615bef565b600154909150612c18906001600160a01b03168584612835565b600480546040516318399f4d60e31b81526001600160a01b039091169163c1ccfa6891612c49918891869101615b17565b600060405180830381600087803b158015612c6357600080fd5b505af1158015612c77573d6000803e3d6000fd5b505050506124ed565b6001546124ed906001600160a01b03168583612835565b612c9f6131a0565b60085542600955565b6000611cad42613747565b600080612cbf87613794565b90506000612ccc87613794565b90506000612ce6612cdf60018989613811565b84906138cd565b90506000612cf483876138cd565b90506000612d028284615d20565b9050670de0b6b3a764000081055b9b9a5050505050505050505050565b818117156126055781836004016000828254612d3b9190615d20565b9250508190555080836005016000828254612d569190615d20565b9091555050505050565b805460ff1615612da45760405162461bcd60e51b815260206004820152600f60248201526e185b1c9958591e481cd95d1d1b1959608a1b6044820152606401610837565b805460ff19166001179055565b6000612dc36119bd8585856000612dec565b905080846001015413610b7957604051631ad3ffc960e21b815260048101829052602401610837565b6000612df884846121c8565b600654604080516320283ddb60e21b815290516000926001600160a01b0316916380a0f76c916004808301926060929190829003018186803b158015612e3d57600080fd5b505afa158015612e51573d6000803e3d6000fd5b505050506040513d601f19601f82011682018060405250810190612e759190615b78565b80516020820151600c546002546003546040516325f258dd60e01b8152959650939492936000936001600160a01b03909316926325f258dd92612ebc929091600401615b6a565b602060405180830381600087803b158015612ed657600080fd5b505af1158015612eea573d6000803e3d6000fd5b505050506040513d601f19601f82011682018060405250810190612f0e9190615a1c565b895490915061010090046001600160801b03161561318157612f7b6040518060e00160405280600060020b8152602001600081526020016000815260200160006001600160a01b03168152602001600081526020016000815260200160006001600160a01b031681525090565b8860020b8360020b12612fa1578760020b8360020b12612f9b5787612fa3565b82612fa3565b885b600290810b825260009081908a810b9086900b1215612fe15782518c54612fdb91908c9061010090046001600160801b031687613992565b90925090505b808c60050154612ff19190615d20565b602084015260048c0154613006908390615d20565b604084015260028b810b9086900b13156130435782518c5461303991908d9061010090046001600160801b031687613992565b909250905061304a565b5060009050805b808c6005015461305a9190615d20565b608084015260048c015461306f908390615d20565b60a0840152600061307f8c613a3e565b9050600061308c8c613a3e565b9050816001600160a01b0316886001600160a01b0316106130ad57816130af565b875b9150806001600160a01b0316886001600160a01b0316116130d057806130d2565b875b905060008560200151136130e657816130e8565b805b6001600160a01b031660608601526080850151600012613108578161310a565b805b6001600160a01b031660c08601526040850151602086015160608701516000926131379290918f90613dcb565b905060006131538760a0015188608001518f8a60c00151613dcb565b90508082111561316f5750995061211398505050505050505050565b9a506121139950505050505050505050565b61319589600401548a600501548886613dcb565b945050505050612113565b600080600754426131b19190615bef565b600c546040516393556dbd60e01b81529192506000916001600160a01b03909116906393556dbd906131e99085904290600401615b6a565b60206040518083038186803b15801561320157600080fd5b505afa158015613215573d6000803e3d6000fd5b505050506040513d601f19601f82011682018060405250810190610b799190615a1c565b606554610100900460ff166132605760405162461bcd60e51b815260040161083790615d61565b610e15613dff565b606554610100900460ff16610e155760405162461bcd60e51b815260040161083790615d61565b6040805161014081018252845460ff8116151582526001600160801b036101009182900416602083015260018601549282019290925260028501546060820181905260038601546080830152600486015460a0830152600586015460c0830152600686015460e0830152600786015492820192909252600885015461012082015260009182919082906133229087615c4e565b90506133408183602001516001600160801b0316600160801b613e2f565b935060008260800151866133549190615c4e565b90506133728184602001516001600160801b0316600160801b613e2f565b9350505050935093915050565b6040805161014081018252835460ff8116151582526001600160801b036101009182900416602083018190526001860154938301939093526002850154606083015260038501546080830152600485015460a0830152600585015460c0830152600685015460e08301819052600786015491830191909152600885015461012083015260009261211391850390600160801b613e63565b60008080600019848609848602925082811083820303915050670de0b6b3a7640000811061345a5760405163698d9a0160e11b815260048101829052602401610837565b600080670de0b6b3a76400008688099150506706f05b59d3b1ffff8111826134945780670de0b6b3a76400008504019450505050506134d3565b620400008285030493909111909103600160ee1b02919091177faccb18165bd6fe31ae1cf318dc5b51eee0e1ba569b88cd74c1773b91fac10669020190505b92915050565b6000808060001985870985870292508281108382030391505080600014156135145783828161350a5761350a615dac565b0492505050610b79565b838110613538578084604051631dcf306360e21b8152600401610837929190615b6a565b60008486880960026001871981018816978890046003810283188082028403028082028403028082028403028082028403028082028403029081029092039091026000889003889004909101858311909403939093029303949094049190911702949350505050565b60008082600f0b12156135c55760008290036135bd8185615dc2565b9150506134d3565b610b798284615de2565b60006135fb83836040518060400160405280600781526020016629aa261032b93960c91b815250613ef2565b80519091501561260557808060200190518101906136199190615b4d565b6126055760405162461bcd60e51b815260206004820152600860248201526714d5130819985a5b60c21b6044820152606401610837565b61365981612191565b6136bb5760405162461bcd60e51b815260206004820152602d60248201527f455243313936373a206e657720696d706c656d656e746174696f6e206973206e60448201526c1bdd08184818dbdb9d1c9858dd609a1b6064820152608401610837565b600080516020615f6283398151915280546001600160a01b0319166001600160a01b0392909216919091179055565b6136f383613fa0565b6000825111806137005750805b15612605576124ed8383613fe0565b6040516001600160a01b03808516602483015283166044820152606481018290526124ed9085906323b872dd60e01b90608401612854565b60007812725dd1d243aba0e75fe645cc4873f9e65afe688c928e1f2182111561378657604051633492ffd960e01b815260048101839052602401610837565b50670de0b6b3a76400000290565b60007809392ee8e921d5d073aff322e62439fcf32d7f344649470f8f198212156137d45760405163e608e18b60e01b815260048101839052602401610837565b7809392ee8e921d5d073aff322e62439fcf32d7f344649470f90821315613786576040516371f72a3160e01b815260048101839052602401610837565b60008282116138325760405162461bcd60e51b815260040161083790615e04565b600061383c612ca8565b9050838110156138765760405162461bcd60e51b8152602060048201526005602482015264422e543c5360d81b6044820152606401610837565b600085806138845750838210155b1561389a576138938585615bef565b90506138a7565b6138a48583615bef565b90505b6138c368056bc75e2d631000006138bd836140d2565b90612526565b9695505050505050565b6000600160ff1b8314806138e45750600160ff1b82145b1561390257604051630d01a11b60e21b815260040160405180910390fd5b600080600085126139135784613918565b846000035b915060008412613928578361392d565b836000035b9050600061393b8383613416565b90506001600160ff1b038111156139685760405163bf79e8d960e01b815260048101829052602401610837565b6000198087139086138082186001146139815782613986565b826000035b98975050505050505050565b6000808460020b8660020b14156139ae57506000905080613a35565b60006139b987613a3e565b905060006139c687613a3e565b905060006139f083838a60020b8c60020b126139e257896140e9565b6139eb8a615a35565b6140e9565b90506000613a1a84848b60020b8d60020b12613a1457613a0f8b615a35565b61412b565b8a61412b565b9050613a2d82828960025460035461415f565b955093505050505b94509492505050565b60008060008360020b12613a55578260020b613a62565b8260020b613a62906159ff565b9050613a7162010deb19615c06565b60020b811115613aa75760405162461bcd60e51b81526020600482015260016024820152601560fa1b6044820152606401610837565b600060018216613abb57600160801b613acd565b6ffffcb933bd6fad37aa2d162d1a5940015b6001600160881b031690506002821615613b02576080613afd826ffff97272373d413259a46990580e213a615e22565b901c90505b6004821615613b2c576080613b27826ffff2e50f5f656932ef12357cf3c7fdcc615e22565b901c90505b6008821615613b56576080613b51826fffe5caca7e10e4e61c3624eaa0941cd0615e22565b901c90505b6010821615613b80576080613b7b826fffcb9843d60f6159c9db58835c926644615e22565b901c90505b6020821615613baa576080613ba5826fff973b41fa98c081472e6896dfb254c0615e22565b901c90505b6040821615613bd4576080613bcf826fff2ea16466c96a3843ec78b326b52861615e22565b901c90505b6080821615613bfe576080613bf9826ffe5dee046a99a2a811c461f1969c3053615e22565b901c90505b610100821615613c29576080613c24826ffcbe86c7900a88aedcffc83b479aa3a4615e22565b901c90505b610200821615613c54576080613c4f826ff987a7253ac413176f2b074cf7815e54615e22565b901c90505b610400821615613c7f576080613c7a826ff3392b0822b70005940c7a398e4b70f3615e22565b901c90505b610800821615613caa576080613ca5826fe7159475a2c29b7443b29c7fa6e889d9615e22565b901c90505b611000821615613cd5576080613cd0826fd097f3bdfd2022b8845ad8f792aa5825615e22565b901c90505b612000821615613d00576080613cfb826fa9f746462d870fdf8a65dc1f90e061e5615e22565b901c90505b614000821615613d2b576080613d26826f70d869a156d2a1b890bb3df62baf32f7615e22565b901c90505b618000821615613d56576080613d51826f31be135f97d08fd981231505542fcfa6615e22565b901c90505b62010000821615613d82576080613d7d826f09aa508b5b7a84e1c677de54f3e99bc9615e22565b901c90505b60008460020b1315613d9d57613d9a81600019615e41565b90505b613dab600160201b82615e55565b15613db7576001613dba565b60005b6121139060ff16602083901c615a5d565b6000613dd88585856141eb565b90506000613de8868686866142b5565b905080821015613df6578091505b50949350505050565b606554610100900460ff16613e265760405162461bcd60e51b815260040161083790615d61565b610e1533612a88565b600080841215613e5c57613e4c613e45856159ff565b8484613e63565b613e55906159ff565b9050610b79565b6121138484845b600080806000198587098587029250828110838203039150508060001415613ed35760008411613ec85760405162461bcd60e51b815260206004820152601060248201526f4469766973696f6e206279207a65726f60801b6044820152606401610837565b508290049050610b79565b8084116135385760405162461bcd60e51b815260040161083790615e69565b6060833b613f315760405162461bcd60e51b815260206004820152600c60248201526b1b9bdb8b58dbdb9d1c9858dd60a21b6044820152606401610837565b600080856001600160a01b0316600086604051613f4e9190615eb7565b60006040518083038185875af1925050503d8060008114613f8b576040519150601f19603f3d011682016040523d82523d6000602084013e613f90565b606091505b50915091506138c382828661444c565b613fa981613650565b6040516001600160a01b038216907fbc7cd75a20ee27fd9adebab32041f755214dbc6bffa90cc0225b39da2e5c2d3b90600090a250565b6060613feb83612191565b6140465760405162461bcd60e51b815260206004820152602660248201527f416464726573733a2064656c65676174652063616c6c20746f206e6f6e2d636f6044820152651b9d1c9858dd60d21b6064820152608401610837565b600080846001600160a01b0316846040516140619190615eb7565b600060405180830381855af49150503d806000811461409c576040519150601f19603f3d011682016040523d82523d6000602084013e6140a1565b606091505b50915091506140c98282604051806060016040528060278152602001615f826027913961444c565b95945050505050565b60006134d3826a1a1601fc4ea7109e000000612526565b60008082600f0b1261410a576141056119bd8585856001614485565b612113565b6141226119bd858561411b86615a35565b6000614485565b612113906159ff565b60008082600f0b12614147576141056119bd8585856001614588565b6141226119bd858561415886615a35565b6000614588565b60008282116141805760405162461bcd60e51b815260040161083790615e04565b8515801561418c575084155b15614199575060006140c9565b60006141a487613794565b905060006141b187613794565b905060006141c283838989896145f8565b905060006141d284838989614624565b670de0b6b3a764000090059a9950505050505050505050565b60008084121580156141fe575060008312155b1561420b57506000610b79565b600061421685613794565b9050600061422385613794565b905060006142438361423e6119bd6001600254600354613811565b6138cd565b90506000861561426c576142698361423e6119bd60008b128a614264611cb9565b614665565b90505b60006142788284615d20565b905060008112156142a45761429d61428f826159ff565b670de0b6b3a7640000900490565b95506142a9565b600095505b50505050509392505050565b6000836142c457506000612113565b6000806000806000808913156143185760008a13156142eb57600095505050505050612113565b871561430157601554601954909450925061430d565b601754601b5490945092505b508790506001614346565b871561432e57601654601a54909450925061433a565b601854601c5490945092505b614343896159ff565b91505b6143566119bd83898787866146b4565b9450600061440e826143705761436b876159ff565b614372565b865b61437b8c6159ff565b600c546002546003546040516325f258dd60e01b81526001600160a01b03909316926325f258dd926143b1929091600401615b6a565b602060405180830381600087803b1580156143cb57600080fd5b505af11580156143df573d6000803e3d6000fd5b505050506040513d601f19601f820116820180604052508101906144039190615a1c565b60025460035461415f565b9050600061441c828d615d20565b905061442a8160008c6141eb565b601e5490985088101561443d57601e5497505b50505050505050949350505050565b6060831561445b575081610b79565b82511561446b5782518084602001fd5b8160405162461bcd60e51b81526004016108379190615ed3565b6000836001600160a01b0316856001600160a01b031611156144a5579293925b600160601b600160e01b03606084901b1660006144c28787615c8d565b6001600160a01b031690506000876001600160a01b03161161451b5760405162461bcd60e51b8152602060048201526012602482015271073717274526174696f4158393620213e20360741b6044820152606401610837565b8361455157866001600160a01b031661453e8383896001600160a01b0316613e63565b8161454b5761454b615dac565b0461457d565b61457d6145688383896001600160a01b03166147d4565b886001600160a01b0316808204910615150190565b979650505050505050565b6000836001600160a01b0316856001600160a01b031611156145a8579293925b816145d5576145d0836001600160801b03168686036001600160a01b0316600160601b613e63565b6140c9565b6140c9836001600160801b03168686036001600160a01b0316600160601b6147d4565b600061460485856138cd565b61461a61461360008686613811565b88906138cd565b6138c39190615d20565b60008282116146455760405162461bcd60e51b815260040161083790615e04565b61465b61465460018585613811565b8590614827565b6140c99086615c4e565b600061469261468260025460035461467d9190615bef565b6140d2565b61468c84876148ed565b9061251a565b905082610b7957612113846146a957600e546146ad565b600d545b829061251a565b6000806146d7670de0b6b3a7640000600160601b886001600160a01b0316613e63565b905060006146e5828061251a565b905067d02ab486cedc0000811115614702575067d02ab486cedc00005b600061470e828861251a565b9050600061478c61477861476161475c61472c600d601001546127cf565b614735906159ff565b6147566119bd600d60070154614749612ca8565b6003546138bd9190615bef565b906138cd565b6149f2565b61477390670de0b6b3a7640000615c4e565b614a62565b888410614785578361468c565b889061251a565b9050600086156147b757818411156147af576147a88285615bef565b90506147c4565b5060006147c4565b6147c18285615a5d565b90505b612d1061428f8261468c8e613747565b60006147e1848484613e63565b9050600082806147f3576147f3615dac565b8486091115610b7957600019811061481d5760405162461bcd60e51b815260040161083790615e69565b806140c981615f06565b6000600160ff1b83148061483e5750600160ff1b82145b1561485c5760405163b3c754a360e01b815260040160405180910390fd5b6000806000851261486d5784614872565b846000035b9150600084126148825783614887565b836000035b9050600061489e83670de0b6b3a7640000846134d9565b90506001600160ff1b038111156148cb57604051637cb4bef560e01b815260048101829052602401610837565b6000198087139086138082186001146148e45782613986565b613986836159ff565b6000806148f8614aa4565b600f546010549192506000916149149160029190911b90614827565b9050600061494f61492d84670de0b6b3a7640000615c4e565b600f54601154614949919082908b906147569060021b8a6138cd565b90614827565b9050600061497f8661496357601354614967565b6012545b61475660016149788787831b615d20565b901b614b51565b9050856149925761498f816159ff565b90505b60006149d4826149a28587615d20565b6149ac9190615d20565b6011546147569060021b6149496149cb8a670de0b6b3a7640000615c4e565b600f54906138cd565b9050600081126149e45780613986565b600098975050505050505050565b600068023f2fa8f6da5b9d3119821215614a0e57506000919050565b680736ea4425c11ac6318212614a3a576040516399bb754160e01b815260048101839052602401610837565b6714057b7ef767814f8202610b79670de0b6b3a76400006706f05b59d3b20000830105614bc7565b6000808212156128145760405162461bcd60e51b815260206004820152600d60248201526c0746f55696e74323536203c203609c1b6044820152606401610837565b600080614aaf612ca8565b9050600354811115614aeb5760405162461bcd60e51b815260206004820152600560248201526410d50f115560da1b6044820152606401610837565b601154614b1f5760405162461bcd60e51b8152602060048201526002602482015261042360f41b6044820152606401610837565b614b4b61475c600d60040154614b34906159ff565b614756600d60070154856003546149499190615c4e565b91505090565b600080821215614b775760405163608c83ff60e11b815260048101839052602401610837565b7809392ee8e921d5d073aff322e62439fcf32d7f344649470f90821315614bb457604051632c482c3960e01b815260048101839052602401610837565b6134d3670de0b6b3a76400008302614c5e565b600080821215614c1a5768033dd1780914b9711419821215614beb57506000919050565b614bf782600003614bc7565b6a0c097ce7bc90715b34b9f160241b81614c1357614c13615dac565b0592915050565b680a688906bd8b0000008212614c465760405163e69458f960e01b815260048101839052602401610837565b670de0b6b3a7640000604083901b04610b7981614dc9565b600081614c6d57506000919050565b50600181600160801b8110614c875760409190911b9060801c5b600160401b8110614c9d5760209190911b9060401c5b600160201b8110614cb35760109190911b9060201c5b620100008110614cc85760089190911b9060101c5b6101008110614cdc5760049190911b9060081c5b60108110614cef5760029190911b9060041c5b60088110614cff57600182901b91505b6001828481614d1057614d10615dac565b048301901c91506001828481614d2857614d28615dac565b048301901c91506001828481614d4057614d40615dac565b048301901c91506001828481614d5857614d58615dac565b048301901c91506001828481614d7057614d70615dac565b048301901c91506001828481614d8857614d88615dac565b048301901c91506001828481614da057614da0615dac565b048301901c91506000828481614db857614db8615dac565b04905080831015610b795782612113565b600160bf1b6001603f1b821615614de95768016a09e667f3bcc9090260401c5b6001603e1b821615614e04576801306fe0a31b7152df0260401c5b6001603d1b821615614e1f576801172b83c7d517adce0260401c5b6001603c1b821615614e3a5768010b5586cf9890f62a0260401c5b6001603b1b821615614e55576801059b0d31585743ae0260401c5b6001603a1b821615614e7057680102c9a3e778060ee70260401c5b600160391b821615614e8b5768010163da9fb33356d80260401c5b600160381b821615614ea657680100b1afa5abcbed610260401c5b600160371b821615614ec15768010058c86da1c09ea20260401c5b600160361b821615614edc576801002c605e2e8cec500260401c5b600160351b821615614ef757680100162f3904051fa10260401c5b600160341b821615614f12576801000b175effdc76ba0260401c5b600160331b821615614f2d57680100058ba01fb9f96d0260401c5b600160321b821615614f485768010002c5cc37da94920260401c5b600160311b821615614f63576801000162e525ee05470260401c5b600160301b821615614f7e5768010000b17255775c040260401c5b6001602f1b821615614f99576801000058b91b5bc9ae0260401c5b6001602e1b821615614fb457680100002c5c89d5ec6d0260401c5b6001602d1b821615614fcf5768010000162e43f4f8310260401c5b6001602c1b821615614fea57680100000b1721bcfc9a0260401c5b6001602b1b8216156150055768010000058b90cf1e6e0260401c5b6001602a1b821615615020576801000002c5c863b73f0260401c5b600160291b82161561503b57680100000162e430e5a20260401c5b600160281b821615615056576801000000b1721835510260401c5b600160271b82161561507157680100000058b90c0b490260401c5b600160261b82161561508c5768010000002c5c8601cc0260401c5b600160251b8216156150a7576801000000162e42fff00260401c5b600160241b8216156150c25768010000000b17217fbb0260401c5b600160231b8216156150dd576801000000058b90bfce0260401c5b600160221b8216156150f857680100000002c5c85fe30260401c5b600160211b8216156151135768010000000162e42ff10260401c5b600160201b82161561512e57680100000000b17217f80260401c5b63800000008216156151495768010000000058b90bfc0260401c5b6340000000821615615164576801000000002c5c85fe0260401c5b632000000082161561517f57680100000000162e42ff0260401c5b631000000082161561519a576801000000000b17217f0260401c5b63080000008216156151b557680100000000058b90c00260401c5b63040000008216156151d05768010000000002c5c8600260401c5b63020000008216156151eb576801000000000162e4300260401c5b63010000008216156152065768010000000000b172180260401c5b62800000821615615220576801000000000058b90c0260401c5b6240000082161561523a57680100000000002c5c860260401c5b622000008216156152545768010000000000162e430260401c5b6210000082161561526e57680100000000000b17210260401c5b620800008216156152885768010000000000058b910260401c5b620400008216156152a2576801000000000002c5c80260401c5b620200008216156152bc57680100000000000162e40260401c5b620100008216156152d55761b172600160401b010260401c5b6180008216156152ed576158b9600160401b010260401c5b61400082161561530557612c5d600160401b010260401c5b61200082161561531d5761162e600160401b010260401c5b61100082161561533557610b17600160401b010260401c5b61080082161561534d5761058c600160401b010260401c5b610400821615615365576102c6600160401b010260401c5b61020082161561537d57610163600160401b010260401c5b6101008216156153945760b1600160401b010260401c5b60808216156153aa576059600160401b010260401c5b60408216156153c057602c600160401b010260401c5b60208216156153d6576016600160401b010260401c5b60108216156153ec57600b600160401b010260401c5b6008821615615402576006600160401b010260401c5b6004821615615418576003600160401b010260401c5b600282161561542e576001600160401b010260401c5b6001821615615444576001600160401b010260401c5b670de0b6b3a76400000260409190911c60bf031c90565b8015158114610c4657600080fd5b60006020828403121561547b57600080fd5b8135610b798161545b565b6001600160a01b0381168114610c4657600080fd5b8060020b8114610c4657600080fd5b6000806000606084860312156154bf57600080fd5b83356154ca81615486565b925060208401356154da8161549b565b915060408401356154ea8161549b565b809150509250925092565b6001600160a01b0391909116815260200190565b60006020828403121561551b57600080fd5b8135610b7981615486565b634e487b7160e01b600052604160045260246000fd5b60405161024081016001600160401b038111828210171561555f5761555f615526565b60405290565b604051601f8201601f191681016001600160401b038111828210171561558d5761558d615526565b604052919050565b600080604083850312156155a857600080fd5b82356155b381615486565b91506020838101356001600160401b03808211156155d057600080fd5b818601915086601f8301126155e457600080fd5b8135818111156155f6576155f6615526565b615608601f8201601f19168501615565565b9150808252878482850101111561561e57600080fd5b80848401858401376000848284010152508093505050509250929050565b6000806040838503121561564f57600080fd5b823561565a81615486565b946020939093013593505050565b6000806000806080858703121561567e57600080fd5b843561568981615486565b935060208501356156998161549b565b925060408501356156a98161549b565b9396929550929360600135925050565b815115158152610140810160208301516156de60208401826001600160801b03169052565b5060408301516040830152606083015160608301526080830151608083015260a083015160a083015260c083015160c083015260e083015160e083015261010080840151818401525061012080840151818401525092915050565b60006020828403121561574b57600080fd5b5035919050565b6000610240828403121561576557600080fd5b61576d61553c565b823581526020808401359082015260408084013590820152606080840135908201526080808401359082015260a0808401359082015260c0808401359082015260e08084013590820152610100808401359082015261012080840135908201526101408084013590820152610160808401359082015261018080840135908201526101a080840135908201526101c080840135908201526101e080840135908201526102008084013590820152610220928301359281019290925250919050565b60006080828403121561584057600080fd5b604051608081016001600160401b038111828210171561586257615862615526565b604052823561587081615486565b815260208301356158808161549b565b602082015260408301356158938161549b565b60408201526060830135600f81900b81146158ad57600080fd5b60608201529392505050565b600080600080600080600060e0888a0312156158d457600080fd5b87356158df81615486565b965060208801356158ef8161549b565b955060408801356158ff8161549b565b969995985095966060810135965060808101359560a0820135955060c0909101359350915050565b6000806000806080858703121561593d57600080fd5b843561594881615486565b9350602085013561595881615486565b93969395505050506040820135916060013590565b6000806000806080858703121561598357600080fd5b843561598e81615486565b9350602085013561599e8161549b565b925060408501356159ae8161549b565b915060608501356159be8161545b565b939692955090935050565b60208082526006908201526514185d5cd95960d21b604082015260600190565b634e487b7160e01b600052601160045260246000fd5b6000600160ff1b821415615a1557615a156159e9565b5060000390565b600060208284031215615a2e57600080fd5b5051919050565b6000600f82900b60016001607f1b0319811415615a5457615a546159e9565b60000392915050565b60008219821115615a7057615a706159e9565b500190565b6001600160801b03959095168552602085019390935260408401919091526060830152608082015260a00190565b6020808252602c90820152600080516020615f4283398151915260408201526b19195b1959d85d1958d85b1b60a21b606082015260800190565b6020808252602c90820152600080516020615f4283398151915260408201526b6163746976652070726f787960a01b606082015260800190565b6001600160a01b03929092168252602082015260400190565b600060208284031215615b4257600080fd5b8151610b7981615486565b600060208284031215615b5f57600080fd5b8151610b798161545b565b918252602082015260400190565b600060608284031215615b8a57600080fd5b604051606081016001600160401b0381118282101715615bac57615bac615526565b6040528251615bba81615486565b81526020830151615bca8161549b565b6020820152604083015160ff81168114615be357600080fd5b60408201529392505050565b600082821015615c0157615c016159e9565b500390565b60008160020b627fffff19811415615a5457615a546159e9565b600080600060608486031215615c3557600080fd5b8351925060208401519150604084015190509250925092565b60008083128015600160ff1b850184121615615c6c57615c6c6159e9565b6001600160ff1b0384018313811615615c8757615c876159e9565b50500390565b60006001600160a01b0383811690831681811015615cad57615cad6159e9565b039392505050565b60006001600160a01b03828116848216808303821115615cd757615cd76159e9565b01949350505050565b600080600080600060a08688031215615cf857600080fd5b5050835160208501516040860151606087015160809097015192989197509594509092509050565b600080821280156001600160ff1b0384900385131615615d4257615d426159e9565b600160ff1b8390038412811615615d5b57615d5b6159e9565b50500190565b6020808252602b908201527f496e697469616c697a61626c653a20636f6e7472616374206973206e6f74206960408201526a6e697469616c697a696e6760a81b606082015260800190565b634e487b7160e01b600052601260045260246000fd5b60006001600160801b0383811690831681811015615cad57615cad6159e9565b60006001600160801b03828116848216808303821115615cd757615cd76159e9565b602080825260049082015263453c3d5360e01b604082015260600190565b6000816000190483118215151615615e3c57615e3c6159e9565b500290565b600082615e5057615e50615dac565b500490565b600082615e6457615e64615dac565b500690565b6020808252600890820152676f766572666c6f7760c01b604082015260600190565b60005b83811015615ea6578181015183820152602001615e8e565b838111156124ed5750506000910152565b60008251615ec9818460208701615e8b565b9190910192915050565b6020815260008251806020840152615ef2816040850160208701615e8b565b601f01601f19169190910160400192915050565b6000600019821415615f1a57615f1a6159e9565b506001019056fe4a0dd77e6cb2be1847de991681f679a59bbe3e047ecb337a8426980861f82c0f46756e6374696f6e206d7573742062652063616c6c6564207468726f75676820360894a13ba1a3210667c828492db98dca3e2076cc3735a920a3ca505d382bbc416464726573733a206c6f772d6c6576656c2064656c65676174652063616c6c206661696c6564a26469706673582212204ae81f8e497f46adbf491faa6ad42ae613a1ba1ebe17a0e44219c8bbec7865ac64736f6c63430008090033",
  "devdoc": {
    "errors": {
      "AavePoolGetReserveNormalizedIncomeReturnedZero()": [
        {
          "details": "getReserveNormalizedIncome() returned zero for underlying asset. Oracle only supports active Aave-V2 assets."
        }
      ],
      "AavePoolGetReserveNormalizedVariableDebtReturnedZero()": [
        {
          "details": "getReserveNormalizedVariableDebt() returned zero for underlying asset. Oracle only supports active Aave-V2 assets."
        }
      ],
      "CTokenExchangeRateReturnedZero()": [
        {
          "details": "ctoken.exchangeRateStored() returned zero for a given Compound ctoken. Oracle only supports active Compound assets."
        }
      ],
      "CanOnlyTradeIfUnlocked(bool)": [
        {
          "details": "Error which ensures the VAMM is unlocked"
        }
      ],
      "ExpectedOppositeSigns(int256,int256)": [
        {
          "details": "The two values were expected to have oppostite sigs, but do not"
        }
      ],
      "ExpectedSqrtPriceZeroBeforeInit(uint160)": [
        {
          "details": "Error which is reverted if the sqrt price of the vamm is non-zero before a vamm is initialized"
        }
      ],
      "IRSNotionalAmountSpecifiedMustBeNonZero()": [
        {
          "details": "Error which ensures the amount of notional specified when initiating an IRS contract (via the swap function in the vamm) is non-zero"
        }
      ],
      "LidoGetPooledEthBySharesReturnedZero()": [
        {
          "details": "getPooledEthByShares() returned zero for Lido's stETH."
        }
      ],
      "LiquidityDeltaMustBePositiveInBurn(uint128)": [
        {
          "details": "Error which ensures the liquidity delta is positive if a given LP wishes to burn liquidity in the vamm"
        }
      ],
      "LiquidityDeltaMustBePositiveInMint(uint128)": [
        {
          "details": "Error which ensures the liquidity delta is positive if a given LP wishes to mint further liquidity in the vamm"
        }
      ],
      "MarginLessThanMinimum(int256)": [
        {
          "details": "Cannot have less margin than the minimum requirement"
        }
      ],
      "NotEnoughFunds(uint256,uint256)": [
        {
          "details": "There are not enough funds available for the requested operation"
        }
      ],
      "OOO()": [
        {
          "details": "currentTime < queriedTime"
        }
      ],
      "OnlyMarginEngine()": [
        {
          "details": "only the margin engine can run a certain function"
        }
      ],
      "PositionNetZero()": [
        {
          "details": "No need to unwind a net zero position"
        }
      ],
      "PositionNotSettled()": [
        {
          "details": "Position must be settled after AMM has reached maturity"
        }
      ],
      "RocketPoolGetEthValueReturnedZero()": [
        {
          "details": "getEthValue() returned zero for RocketPool's RETH."
        }
      ],
      "WithdrawalExceedsCurrentMargin()": [
        {
          "details": "We can't withdraw more margin than we have"
        }
      ]
    },
    "kind": "dev",
    "methods": {
      "collectProtocol(address,uint256)": {
        "params": {
          "_amount": "the amount in terms of underlying tokens collected from the protocol's earnings",
          "_recipient": "the address which collects the protocol generated fees"
        }
      },
      "constructor": {
        "custom:oz-upgrades-unsafe-allow": "constructor"
      },
      "factory()": {
        "details": "the factory that deployed the master Margin Engine"
      },
      "fcm()": {
        "details": "The FCM is a smart contract that acts as an intermediary Position between the Voltz Core and traders who wish to take fully collateralised fixed taker positionsAn example FCM is the AaveFCM.sol module which inherits from the IFCM interface, it lets fixed takers deposit underlying yield bearing tokens (e.g.) aUSDC as margin to enter into a fixed taker swap without the need to worry about liquidationssince the MarginEngine is confident the FCM is always fully collateralised, it does not let liquidators liquidate the FCM Position",
        "returns": {
          "_0": "The Full Collateralisation Module linked to the MarginEngine"
        }
      },
      "getHistoricalApy()": {
        "details": "The lookback window used by this function is determined by `lookbackWindowInSeconds`refresh the historical apy cache if necessary",
        "returns": {
          "_0": "historicalAPY (Wad)"
        }
      },
      "getHistoricalApyReadOnly()": {
        "details": "The lookback window used by this function is determined by `lookbackWindowInSeconds`"
      },
      "getPosition(address,int24,int24)": {
        "params": {
          "_owner": "The address of the position owner",
          "_tickLower": "The lower tick boundary of the position",
          "_tickUpper": "The upper tick boundary of the position Returns position The Position.Info corresponding to the requested position"
        }
      },
      "initialize(address,address,uint256,uint256)": {
        "details": "\"constructor\" for proxy instances"
      },
      "isAlpha()": {
        "returns": {
          "_0": "If true, the Margin Engine Proxy is currently in alpha state, hence margin updates of LPs can only be done via the periphery. If false, lps can directly update their margin via Margin Engine."
        }
      },
      "liquidatePosition(address,int24,int24)": {
        "details": "Steps to liquidate: update position's fixed and variable token balances to account for balances accumulated throughout the trades made since the last mint/burn/poke,Check if the position is liquidatable by calling the isLiquidatablePosition function of the calculator, revert if that is not the case,Calculate the liquidation reward = current margin of the position * liquidatorReward, subtract the liquidator reward from the position margin,Burn the position's liquidity, unwind unnetted fixed and variable balances of a position, transfer the reward to the liquidator"
      },
      "liquidatorRewardWad()": {
        "details": "liquidatorReward (in wad) is the percentage of the margin (of a liquidated position) that is sent to the liquidatorfollowing a successful liquidation that results in a trader/position unwind; example value:  2 * 10**16 => 2% of position margin is used to cover liquidator reward",
        "returns": {
          "_0": "Liquidator Reward in Wad"
        }
      },
      "lookbackWindowInSeconds()": {
        "details": "The historical APY of the Rate Oracle is necessary for MarginEngine computationsThe look-back window is seconds from the current timestampThis value is only settable by the the Factory owner and may be unique for each MarginEngineWhen setting secondAgo, the setter needs to take into consideration the underlying volatility of the APYs in the reference yield-bearing pool (e.g. Aave v2 USDC)"
      },
      "owner()": {
        "details": "Returns the address of the current owner."
      },
      "proxiableUUID()": {
        "details": "Implementation of the ERC1822 {proxiableUUID} function. This returns the storage slot used by the implementation. It is used to validate that the this implementation remains valid after an upgrade. IMPORTANT: A proxy pointing at a proxiable contract should not be considered proxiable itself, because this risks bricking a proxy that upgrades to it, by delegating to itself until out of gas. Thus it is critical that this function revert if invoked through a proxy. This is guaranteed by the `notDelegated` modifier."
      },
      "rateOracle()": {
        "returns": {
          "_0": "The underlying ERC20 token (e.g. USDC)"
        }
      },
      "renounceOwnership()": {
        "details": "Leaves the contract without owner. It will not be possible to call `onlyOwner` functions anymore. Can only be called by the current owner. NOTE: Renouncing ownership will leave the contract without an owner, thereby removing any functionality that is only available to the owner."
      },
      "setCacheMaxAgeInSeconds(uint256)": {
        "params": {
          "_cacheMaxAgeInSeconds": "The new maximum age that the historical APY cache can be before being considered stale"
        }
      },
      "setIsAlpha(bool)": {
        "details": "if the Margin Engine is at the alpha state, lp margin updates can only be done via the periphery which in turn takes care of margin caps for the LPsthis function can only be called by the owner of the VAMM"
      },
      "setLookbackWindowInSeconds(uint256)": {
        "details": "Can only be set by the Factory Owner",
        "params": {
          "_secondsAgo": "the duration of the lookback window in seconds"
        }
      },
      "setMarginCalculatorParameters((uint256,uint256,int256,int256,int256,int256,int256,int256,uint256,uint256,uint256,uint256,uint256,uint256,uint256,uint256,uint256,uint256))": {
        "details": "marginCalculatorParameteres is of type MarginCalculatorParameters (refer to the definition of the struct for elaboration on what each parameter means)",
        "params": {
          "_marginCalculatorParameters": "the MarginCalculatorParameters to set"
        }
      },
      "setRateOracle(address)": {
        "details": "the VAMM is responsible for price discovery, whereas the management of the underlying collateral and liquidations are handled by the Margin Engine"
      },
      "setVAMM(address)": {
        "details": "the VAMM is responsible for price discovery, whereas the management of the underlying collateral and liquidations are handled by the Margin Engine"
      },
      "settlePosition(address,int24,int24)": {
        "details": "Can be called by anyoneA position cannot be settled before maturitySteps to settle a position:1. Retrieve the current fixed and variable token growth inside the tick range of a position2. Calculate accumulated fixed and variable balances of the position since the last mint/poke/burn3. Update the postion's fixed and variable token balances4. Update the postion's fixed and varaible token growth inside last to enable future updates5. Calculates the settlement cashflow from all of the IRS contracts the position has entered since entering the AMM6. Updates the fixed and variable token balances of the position to be zero, adds the settlement cashflow to the position's current margin"
      },
      "termEndTimestampWad()": {
        "returns": {
          "_0": "Term End Timestamp in Wad"
        }
      },
      "termStartTimestampWad()": {
        "returns": {
          "_0": "Term Start Timestamp in Wad"
        }
      },
      "transferMarginToFCMTrader(address,uint256)": {
        "details": "post maturity date of the MarginEngine, the traders from the Full Collateralisation module will be able to settle with the MarginEngineto ensure their fixed yield is guaranteed, in order to collect the funds from the MarginEngine, the FCM needs to invoke the transferMarginToFCMTrader function whcih is only callable by the FCM attached to a particular Margin Engine"
      },
      "transferOwnership(address)": {
        "details": "Transfers ownership of the contract to a new account (`newOwner`). Can only be called by the current owner."
      },
      "underlyingToken()": {
        "returns": {
          "_0": "The underlying ERC20 token (e.g. USDC)"
        }
      },
      "updatePositionMargin(address,int24,int24,int256)": {
        "details": "if the position has positive liquidity then before the margin update, we call the updatePositionTokenBalancesAndAccountForFees functon that calculates up to datemargin, fixed and variable token balances by taking into account the fee income from their tick range and fixed and variable deltas settled along their tick rangemarginDelta is the delta applied to the current margin of a position, if the marginDelta is negative, the position is withdrawing margin, if the marginDelta is positive, the position is depositing funds in terms of the underlying tokensif marginDelta is negative, we need to check if the msg.sender is either the _owner of the position or the msg.sender is apporved by the _owner to act on their behalf in Voltz Protocolthe approval logic is implemented in the Factory.solif marginDelta is negative, we additionally need to check if post the initial margin requirement is still satisfied post withdrawalif marginDelta is positive, the depositor of the margin is either the msg.sender or the owner who interacted through an approved peripheral contract"
      },
      "updatePositionPostVAMMInducedMintBurn((address,int24,int24,int128))": {
        "details": "Steps taken:1. Update position liquidity based on params.liquidityDelta2. Update fixed and variable token balances of the position based on how much has been accumulated since the last mint/burn/poke3. Update position's margin by taking into account the position accumulated fees since the last mint/burn/poke4. Update fixed and variable token growth + fee growth in the position info struct for future interactions with the position",
        "params": {
          "_params": "necessary for the purposes of referencing the position being updated (owner, tickLower, tickUpper, _) and the liquidity delta that needs to be applied to position._liquidity"
        }
      },
      "updatePositionPostVAMMInducedSwap(address,int24,int24,int256,int256,uint256,int256)": {
        "details": "Since every position can also engage in swaps with the VAMM, this function needs to be invoked after non-external calls are made to the VAMM's swap functionThis purpose of this function is to:1. updatePositionTokenBalancesAndAccountForFees2. update position margin to account for fees paid to execute the swap3. calculate the position margin requrement given the swap, check if the position marigin satisfies the most up to date requirement4. if all the requirements are satisfied then position gets updated to take into account the swap that it just entered, if the minimum margin requirement is not satisfied then the transaction will revert"
      },
      "upgradeTo(address)": {
        "details": "Upgrade the implementation of the proxy to `newImplementation`. Calls {_authorizeUpgrade}. Emits an {Upgraded} event."
      },
      "upgradeToAndCall(address,bytes)": {
        "details": "Upgrade the implementation of the proxy to `newImplementation`, and subsequently execute the function call encoded in `data`. Calls {_authorizeUpgrade}. Emits an {Upgraded} event."
      },
      "vamm()": {
        "details": "The VAMM is responsible for pricing only (determining the effective fixed rate at which a given Interest Rate Swap notional will be executed)",
        "returns": {
          "_0": "The VAMM"
        }
      }
    },
    "stateVariables": {
      "SECONDS_IN_YEAR": {
        "details": "Seconds in a year"
      }
    },
    "version": 1
  },
  "userdoc": {
    "errors": {
      "CannotLiquidate()": [
        {
          "notice": "The position/trader needs to be below the liquidation threshold to be liquidated"
        }
      ],
      "CannotSettleBeforeMaturity()": [
        {
          "notice": "Positions and Traders cannot be settled before the applicable interest rate swap has matured"
        }
      ],
      "InvalidMarginDelta()": [
        {
          "notice": "Margin delta must not equal zero"
        }
      ],
      "MarginRequirementNotMet(int256,int24,int256,int256,uint256,int256)": [
        {
          "notice": "The resulting margin does not meet minimum requirements"
        }
      ],
      "MarginRequirementNotMetFCM(int256)": [
        {
          "notice": "The resulting margin does not meet minimum requirements"
        }
      ],
      "OnlyOwnerCanUpdatePosition()": [
        {
          "notice": "Only the position/trade owner can update the LP/Trader margin"
        }
      ],
      "PRBMathSD59x18__DivInputTooSmall()": [
        {
          "notice": "Emitted when one of the inputs is MIN_SD59x18."
        }
      ],
      "PRBMathSD59x18__DivOverflow(uint256)": [
        {
          "notice": "Emitted when one of the intermediary unsigned results overflows SD59x18."
        }
      ],
      "PRBMathSD59x18__Exp2InputTooBig(int256)": [
        {
          "notice": "Emitted when the input is greater than 192."
        }
      ],
      "PRBMathSD59x18__ExpInputTooBig(int256)": [
        {
          "notice": "Emitted when the input is greater than 133.084258667509499441."
        }
      ],
      "PRBMathSD59x18__FromIntOverflow(int256)": [
        {
          "notice": "Emitted when converting a basic integer to the fixed-point format overflows SD59x18."
        }
      ],
      "PRBMathSD59x18__FromIntUnderflow(int256)": [
        {
          "notice": "Emitted when converting a basic integer to the fixed-point format underflows SD59x18."
        }
      ],
      "PRBMathSD59x18__MulInputTooSmall()": [
        {
          "notice": "Emitted when one of the inputs is MIN_SD59x18."
        }
      ],
      "PRBMathSD59x18__MulOverflow(uint256)": [
        {
          "notice": "Emitted when the intermediary absolute result overflows SD59x18."
        }
      ],
      "PRBMathSD59x18__SqrtNegativeInput(int256)": [
        {
          "notice": "Emitted when the input is negative."
        }
      ],
      "PRBMathSD59x18__SqrtOverflow(int256)": [
        {
          "notice": "Emitted when the calculating the square root overflows SD59x18."
        }
      ],
      "PRBMathUD60x18__FromUintOverflow(uint256)": [
        {
          "notice": "Emitted when converting a basic integer to the fixed-point format format overflows UD60x18."
        }
      ],
      "PRBMath__MulDivFixedPointOverflow(uint256)": [
        {
          "notice": "Emitted when the result overflows uint256."
        }
      ],
      "PRBMath__MulDivOverflow(uint256,uint256)": [
        {
          "notice": "Emitted when the result overflows uint256."
        }
      ]
    },
    "kind": "user",
    "methods": {
      "cacheMaxAgeInSeconds()": {
        "notice": "Gets the maximum age of the cached historical APY value can be without being refreshed"
      },
      "collectProtocol(address,uint256)": {
        "notice": "function that can only be called by the owner enables collection of protocol generated fees from any give margin engine"
      },
      "factory()": {
        "notice": "The Factory"
      },
      "fcm()": {
        "notice": "The Full Collateralisation Module (FCM)"
      },
      "getHistoricalApy()": {
        "notice": "Get Historical APY"
      },
      "getHistoricalApyReadOnly()": {
        "notice": "Computes the historical APY value of the RateOracle, without updating the cached value"
      },
      "getPosition(address,int24,int24)": {
        "notice": "Returns the information about a position by the position's key"
      },
      "liquidatePosition(address,int24,int24)": {
        "notice": "Liquidate a Position"
      },
      "liquidatorRewardWad()": {
        "notice": "The liquidator Reward Percentage (in Wad)"
      },
      "lookbackWindowInSeconds()": {
        "notice": "Gets the look-back window size that's used to request the historical APY from the rate Oracle"
      },
      "rateOracle()": {
        "notice": "The rateOracle contract which lets the protocol access historical apys in the yield bearing pools it is built on top of"
      },
      "setCacheMaxAgeInSeconds(uint256)": {
        "notice": "Sets the maximum age that the cached historical APY value"
      },
      "setFCM(address)": {
        "notice": "sets the Full Collateralisation Module"
      },
      "setIsAlpha(bool)": {
        "notice": "Function that sets the _isAlpha state variable, if it is set to true the protocol is in the Alpha State"
      },
      "setLiquidatorReward(uint256)": {
        "notice": "Sets the liquidator reward: proportion of liquidated position's margin paid as a reward to the liquidator"
      },
      "setLookbackWindowInSeconds(uint256)": {
        "notice": "Sets secondsAgo: The look-back window size used to calculate the historical APY for margin purposes"
      },
      "setMarginCalculatorParameters((uint256,uint256,int256,int256,int256,int256,int256,int256,uint256,uint256,uint256,uint256,uint256,uint256,uint256,uint256,uint256,uint256))": {
        "notice": "Set the MarginCalculatorParameters (each margin engine can have its own custom set of margin calculator parameters)"
      },
      "setRateOracle(address)": {
        "notice": "sets the Virtual Automated Market Maker (VAMM) attached to the MarginEngine"
      },
      "setVAMM(address)": {
        "notice": "sets the Virtual Automated Market Maker (VAMM) attached to the MarginEngine"
      },
      "settlePosition(address,int24,int24)": {
        "notice": "Settles a Position"
      },
      "termEndTimestampWad()": {
        "notice": "The unix termEndTimestamp of the MarginEngine in Wad"
      },
      "termStartTimestampWad()": {
        "notice": "The unix termStartTimestamp of the MarginEngine in Wad"
      },
      "transferMarginToFCMTrader(address,uint256)": {
        "notice": "transfers margin in terms of underlying tokens to a trader from the Full Collateralisation Module"
      },
      "underlyingToken()": {
        "notice": "The address of the underlying (non-yield bearing) token - e.g. USDC"
      },
      "updatePositionMargin(address,int24,int24,int256)": {
        "notice": "updates the margin account of a position which can be uniquily identified with its _owner, tickLower, tickUpper"
      },
      "updatePositionPostVAMMInducedMintBurn((address,int24,int24,int128))": {
        "notice": "Update a Position post VAMM induced mint or burn"
      },
      "vamm()": {
        "notice": "VAMM (Virtual Automated Market Maker) linked to the MarginEngine"
      }
    },
    "version": 1
  },
  "storageLayout": {
    "storage": [
      {
        "astId": 23190,
        "contract": "contracts/MarginEngine.sol:MarginEngine",
        "label": "_liquidatorRewardWad",
        "offset": 0,
        "slot": "0",
        "type": "t_uint256"
      },
      {
        "astId": 23193,
        "contract": "contracts/MarginEngine.sol:MarginEngine",
        "label": "_underlyingToken",
        "offset": 0,
        "slot": "1",
        "type": "t_contract(IERC20Minimal)17529"
      },
      {
        "astId": 23195,
        "contract": "contracts/MarginEngine.sol:MarginEngine",
        "label": "_termStartTimestampWad",
        "offset": 0,
        "slot": "2",
        "type": "t_uint256"
      },
      {
        "astId": 23197,
        "contract": "contracts/MarginEngine.sol:MarginEngine",
        "label": "_termEndTimestampWad",
        "offset": 0,
        "slot": "3",
        "type": "t_uint256"
      },
      {
        "astId": 23200,
        "contract": "contracts/MarginEngine.sol:MarginEngine",
        "label": "_fcm",
        "offset": 0,
        "slot": "4",
        "type": "t_contract(IFCM)19053"
      },
      {
        "astId": 23205,
        "contract": "contracts/MarginEngine.sol:MarginEngine",
        "label": "positions",
        "offset": 0,
        "slot": "5",
        "type": "t_mapping(t_bytes32,t_struct(Info)15328_storage)"
      },
      {
        "astId": 23208,
        "contract": "contracts/MarginEngine.sol:MarginEngine",
        "label": "_vamm",
        "offset": 0,
        "slot": "6",
        "type": "t_contract(IVAMM)18724"
      },
      {
        "astId": 23210,
        "contract": "contracts/MarginEngine.sol:MarginEngine",
        "label": "_secondsAgo",
        "offset": 0,
        "slot": "7",
        "type": "t_uint256"
      },
      {
        "astId": 23212,
        "contract": "contracts/MarginEngine.sol:MarginEngine",
        "label": "cachedHistoricalApyWad",
        "offset": 0,
        "slot": "8",
        "type": "t_uint256"
      },
      {
        "astId": 23214,
        "contract": "contracts/MarginEngine.sol:MarginEngine",
        "label": "cachedHistoricalApyWadRefreshTimestamp",
        "offset": 0,
        "slot": "9",
        "type": "t_uint256"
      },
      {
        "astId": 23216,
        "contract": "contracts/MarginEngine.sol:MarginEngine",
        "label": "_cacheMaxAgeInSeconds",
        "offset": 0,
        "slot": "10",
        "type": "t_uint256"
      },
      {
        "astId": 23219,
        "contract": "contracts/MarginEngine.sol:MarginEngine",
        "label": "_factory",
        "offset": 0,
        "slot": "11",
        "type": "t_contract(IFactory)17682"
      },
      {
        "astId": 23222,
        "contract": "contracts/MarginEngine.sol:MarginEngine",
        "label": "_rateOracle",
        "offset": 0,
        "slot": "12",
        "type": "t_contract(IRateOracle)19308"
      },
      {
        "astId": 23225,
        "contract": "contracts/MarginEngine.sol:MarginEngine",
        "label": "marginCalculatorParameters",
        "offset": 0,
        "slot": "13",
        "type": "t_struct(MarginCalculatorParameters)17756_storage"
      },
      {
        "astId": 23227,
        "contract": "contracts/MarginEngine.sol:MarginEngine",
        "label": "_isAlpha",
        "offset": 0,
        "slot": "31",
        "type": "t_bool"
      },
      {
        "astId": 23229,
        "contract": "contracts/MarginEngine.sol:MarginEngine",
        "label": "paused",
        "offset": 1,
        "slot": "31",
        "type": "t_bool"
      },
      {
        "astId": 23236,
        "contract": "contracts/MarginEngine.sol:MarginEngine",
        "label": "__gap",
        "offset": 0,
        "slot": "32",
        "type": "t_array(t_uint256)69_storage"
      },
      {
        "astId": 527,
        "contract": "contracts/MarginEngine.sol:MarginEngine",
        "label": "_initialized",
        "offset": 0,
        "slot": "101",
        "type": "t_uint8"
      },
      {
        "astId": 530,
        "contract": "contracts/MarginEngine.sol:MarginEngine",
        "label": "_initializing",
        "offset": 1,
        "slot": "101",
        "type": "t_bool"
      },
      {
        "astId": 1091,
        "contract": "contracts/MarginEngine.sol:MarginEngine",
        "label": "__gap",
        "offset": 0,
        "slot": "102",
        "type": "t_array(t_uint256)50_storage"
      },
      {
        "astId": 10,
        "contract": "contracts/MarginEngine.sol:MarginEngine",
        "label": "_owner",
        "offset": 0,
        "slot": "152",
        "type": "t_address"
      },
      {
        "astId": 130,
        "contract": "contracts/MarginEngine.sol:MarginEngine",
        "label": "__gap",
        "offset": 0,
        "slot": "153",
        "type": "t_array(t_uint256)49_storage"
      },
      {
        "astId": 509,
        "contract": "contracts/MarginEngine.sol:MarginEngine",
        "label": "__gap",
        "offset": 0,
        "slot": "202",
        "type": "t_array(t_uint256)50_storage"
      },
      {
        "astId": 806,
        "contract": "contracts/MarginEngine.sol:MarginEngine",
        "label": "__gap",
        "offset": 0,
        "slot": "252",
        "type": "t_array(t_uint256)50_storage"
      }
    ],
    "types": {
      "t_address": {
        "encoding": "inplace",
        "label": "address",
        "numberOfBytes": "20"
      },
      "t_array(t_uint256)49_storage": {
        "base": "t_uint256",
        "encoding": "inplace",
        "label": "uint256[49]",
        "numberOfBytes": "1568"
      },
      "t_array(t_uint256)50_storage": {
        "base": "t_uint256",
        "encoding": "inplace",
        "label": "uint256[50]",
        "numberOfBytes": "1600"
      },
      "t_array(t_uint256)69_storage": {
        "base": "t_uint256",
        "encoding": "inplace",
        "label": "uint256[69]",
        "numberOfBytes": "2208"
      },
      "t_bool": {
        "encoding": "inplace",
        "label": "bool",
        "numberOfBytes": "1"
      },
      "t_bytes32": {
        "encoding": "inplace",
        "label": "bytes32",
        "numberOfBytes": "32"
      },
      "t_contract(IERC20Minimal)17529": {
        "encoding": "inplace",
        "label": "contract IERC20Minimal",
        "numberOfBytes": "20"
      },
      "t_contract(IFCM)19053": {
        "encoding": "inplace",
        "label": "contract IFCM",
        "numberOfBytes": "20"
      },
      "t_contract(IFactory)17682": {
        "encoding": "inplace",
        "label": "contract IFactory",
        "numberOfBytes": "20"
      },
      "t_contract(IRateOracle)19308": {
        "encoding": "inplace",
        "label": "contract IRateOracle",
        "numberOfBytes": "20"
      },
      "t_contract(IVAMM)18724": {
        "encoding": "inplace",
        "label": "contract IVAMM",
        "numberOfBytes": "20"
      },
      "t_int256": {
        "encoding": "inplace",
        "label": "int256",
        "numberOfBytes": "32"
      },
      "t_mapping(t_bytes32,t_struct(Info)15328_storage)": {
        "encoding": "mapping",
        "key": "t_bytes32",
        "label": "mapping(bytes32 => struct Position.Info)",
        "numberOfBytes": "32",
        "value": "t_struct(Info)15328_storage"
      },
      "t_struct(Info)15328_storage": {
        "encoding": "inplace",
        "label": "struct Position.Info",
        "members": [
          {
            "astId": 15309,
            "contract": "contracts/MarginEngine.sol:MarginEngine",
            "label": "isSettled",
            "offset": 0,
            "slot": "0",
            "type": "t_bool"
          },
          {
            "astId": 15311,
            "contract": "contracts/MarginEngine.sol:MarginEngine",
            "label": "_liquidity",
            "offset": 1,
            "slot": "0",
            "type": "t_uint128"
          },
          {
            "astId": 15313,
            "contract": "contracts/MarginEngine.sol:MarginEngine",
            "label": "margin",
            "offset": 0,
            "slot": "1",
            "type": "t_int256"
          },
          {
            "astId": 15315,
            "contract": "contracts/MarginEngine.sol:MarginEngine",
            "label": "fixedTokenGrowthInsideLastX128",
            "offset": 0,
            "slot": "2",
            "type": "t_int256"
          },
          {
            "astId": 15317,
            "contract": "contracts/MarginEngine.sol:MarginEngine",
            "label": "variableTokenGrowthInsideLastX128",
            "offset": 0,
            "slot": "3",
            "type": "t_int256"
          },
          {
            "astId": 15319,
            "contract": "contracts/MarginEngine.sol:MarginEngine",
            "label": "fixedTokenBalance",
            "offset": 0,
            "slot": "4",
            "type": "t_int256"
          },
          {
            "astId": 15321,
            "contract": "contracts/MarginEngine.sol:MarginEngine",
            "label": "variableTokenBalance",
            "offset": 0,
            "slot": "5",
            "type": "t_int256"
          },
          {
            "astId": 15323,
            "contract": "contracts/MarginEngine.sol:MarginEngine",
            "label": "feeGrowthInsideLastX128",
            "offset": 0,
            "slot": "6",
            "type": "t_uint256"
          },
          {
            "astId": 15325,
            "contract": "contracts/MarginEngine.sol:MarginEngine",
            "label": "rewardPerAmount",
            "offset": 0,
            "slot": "7",
            "type": "t_uint256"
          },
          {
            "astId": 15327,
            "contract": "contracts/MarginEngine.sol:MarginEngine",
            "label": "accumulatedFees",
            "offset": 0,
            "slot": "8",
            "type": "t_uint256"
          }
        ],
        "numberOfBytes": "288"
      },
      "t_struct(MarginCalculatorParameters)17756_storage": {
        "encoding": "inplace",
        "label": "struct IMarginEngine.MarginCalculatorParameters",
        "members": [
          {
            "astId": 17704,
            "contract": "contracts/MarginEngine.sol:MarginEngine",
            "label": "apyUpperMultiplierWad",
            "offset": 0,
            "slot": "0",
            "type": "t_uint256"
          },
          {
            "astId": 17707,
            "contract": "contracts/MarginEngine.sol:MarginEngine",
            "label": "apyLowerMultiplierWad",
            "offset": 0,
            "slot": "1",
            "type": "t_uint256"
          },
          {
            "astId": 17710,
            "contract": "contracts/MarginEngine.sol:MarginEngine",
            "label": "sigmaSquaredWad",
            "offset": 0,
            "slot": "2",
            "type": "t_int256"
          },
          {
            "astId": 17713,
            "contract": "contracts/MarginEngine.sol:MarginEngine",
            "label": "alphaWad",
            "offset": 0,
            "slot": "3",
            "type": "t_int256"
          },
          {
            "astId": 17716,
            "contract": "contracts/MarginEngine.sol:MarginEngine",
            "label": "betaWad",
            "offset": 0,
            "slot": "4",
            "type": "t_int256"
          },
          {
            "astId": 17719,
            "contract": "contracts/MarginEngine.sol:MarginEngine",
            "label": "xiUpperWad",
            "offset": 0,
            "slot": "5",
            "type": "t_int256"
          },
          {
            "astId": 17722,
            "contract": "contracts/MarginEngine.sol:MarginEngine",
            "label": "xiLowerWad",
            "offset": 0,
            "slot": "6",
            "type": "t_int256"
          },
          {
            "astId": 17725,
            "contract": "contracts/MarginEngine.sol:MarginEngine",
            "label": "tMaxWad",
            "offset": 0,
            "slot": "7",
            "type": "t_int256"
          },
          {
            "astId": 17728,
            "contract": "contracts/MarginEngine.sol:MarginEngine",
            "label": "devMulLeftUnwindLMWad",
            "offset": 0,
            "slot": "8",
            "type": "t_uint256"
          },
          {
            "astId": 17731,
            "contract": "contracts/MarginEngine.sol:MarginEngine",
            "label": "devMulRightUnwindLMWad",
            "offset": 0,
            "slot": "9",
            "type": "t_uint256"
          },
          {
            "astId": 17734,
            "contract": "contracts/MarginEngine.sol:MarginEngine",
            "label": "devMulLeftUnwindIMWad",
            "offset": 0,
            "slot": "10",
            "type": "t_uint256"
          },
          {
            "astId": 17737,
            "contract": "contracts/MarginEngine.sol:MarginEngine",
            "label": "devMulRightUnwindIMWad",
            "offset": 0,
            "slot": "11",
            "type": "t_uint256"
          },
          {
            "astId": 17740,
            "contract": "contracts/MarginEngine.sol:MarginEngine",
            "label": "fixedRateDeviationMinLeftUnwindLMWad",
            "offset": 0,
            "slot": "12",
            "type": "t_uint256"
          },
          {
            "astId": 17743,
            "contract": "contracts/MarginEngine.sol:MarginEngine",
            "label": "fixedRateDeviationMinRightUnwindLMWad",
            "offset": 0,
            "slot": "13",
            "type": "t_uint256"
          },
          {
            "astId": 17746,
            "contract": "contracts/MarginEngine.sol:MarginEngine",
            "label": "fixedRateDeviationMinLeftUnwindIMWad",
            "offset": 0,
            "slot": "14",
            "type": "t_uint256"
          },
          {
            "astId": 17749,
            "contract": "contracts/MarginEngine.sol:MarginEngine",
            "label": "fixedRateDeviationMinRightUnwindIMWad",
            "offset": 0,
            "slot": "15",
            "type": "t_uint256"
          },
          {
            "astId": 17752,
            "contract": "contracts/MarginEngine.sol:MarginEngine",
            "label": "gammaWad",
            "offset": 0,
            "slot": "16",
            "type": "t_uint256"
          },
          {
            "astId": 17755,
            "contract": "contracts/MarginEngine.sol:MarginEngine",
            "label": "minMarginToIncentiviseLiquidators",
            "offset": 0,
            "slot": "17",
            "type": "t_uint256"
          }
        ],
        "numberOfBytes": "576"
      },
      "t_uint128": {
        "encoding": "inplace",
        "label": "uint128",
        "numberOfBytes": "16"
      },
      "t_uint256": {
        "encoding": "inplace",
        "label": "uint256",
        "numberOfBytes": "32"
      },
      "t_uint8": {
        "encoding": "inplace",
        "label": "uint8",
        "numberOfBytes": "1"
      }
    }
  }
}