{
  "address": "0x12872b785dBC464F56086aFAB2b3ff7c27a5d007",
  "abi": [
    {
      "inputs": [
        {
          "internalType": "uint256",
          "name": "_quorumVotes",
          "type": "uint256"
        },
        {
          "internalType": "bytes32",
          "name": "_merkleRoot",
          "type": "bytes32"
        },
        {
          "internalType": "uint256",
          "name": "_blockTimestampVotingEnd",
          "type": "uint256"
        }
      ],
      "stateMutability": "nonpayable",
      "type": "constructor"
    },
    {
      "anonymous": false,
      "inputs": [
        {
          "indexed": false,
          "internalType": "uint256",
          "name": "index",
          "type": "uint256"
        },
        {
          "indexed": false,
          "internalType": "address",
          "name": "account",
          "type": "address"
        },
        {
          "indexed": false,
          "internalType": "uint256",
          "name": "numberOfVotes",
          "type": "uint256"
        },
        {
          "indexed": false,
          "internalType": "bool",
          "name": "yesVote",
          "type": "bool"
        }
      ],
      "name": "Voted",
      "type": "event"
    },
    {
      "inputs": [],
      "name": "blockTimestampVotingEnd",
      "outputs": [
        {
          "internalType": "uint256",
          "name": "",
          "type": "uint256"
        }
      ],
      "stateMutability": "view",
      "type": "function"
    },
    {
      "inputs": [
        {
          "internalType": "uint256",
          "name": "_index",
          "type": "uint256"
        },
        {
          "internalType": "uint256",
          "name": "_numberOfVotes",
          "type": "uint256"
        },
        {
          "internalType": "bool",
          "name": "_yesVote",
          "type": "bool"
        },
        {
          "internalType": "bytes32[]",
          "name": "_merkleProof",
          "type": "bytes32[]"
        }
      ],
      "name": "castVote",
      "outputs": [],
      "stateMutability": "nonpayable",
      "type": "function"
    },
    {
      "inputs": [
        {
          "internalType": "uint256",
          "name": "",
          "type": "uint256"
        }
      ],
      "name": "hasTokenIdVoted",
      "outputs": [
        {
          "internalType": "bool",
          "name": "",
          "type": "bool"
        }
      ],
      "stateMutability": "view",
      "type": "function"
    },
    {
      "inputs": [
        {
          "internalType": "uint256",
          "name": "index",
          "type": "uint256"
        }
      ],
      "name": "hasVoted",
      "outputs": [
        {
          "internalType": "bool",
          "name": "",
          "type": "bool"
        }
      ],
      "stateMutability": "view",
      "type": "function"
    },
    {
      "inputs": [],
      "name": "merkleRoot",
      "outputs": [
        {
          "internalType": "bytes32",
          "name": "",
          "type": "bytes32"
        }
      ],
      "stateMutability": "view",
      "type": "function"
    },
    {
      "inputs": [],
      "name": "noVoteCount",
      "outputs": [
        {
          "internalType": "uint256",
          "name": "",
          "type": "uint256"
        }
      ],
      "stateMutability": "view",
      "type": "function"
    },
    {
      "inputs": [],
      "name": "quorumVotes",
      "outputs": [
        {
          "internalType": "uint256",
          "name": "",
          "type": "uint256"
        }
      ],
      "stateMutability": "view",
      "type": "function"
    },
    {
      "inputs": [],
      "name": "yesVoteCount",
      "outputs": [
        {
          "internalType": "uint256",
          "name": "",
          "type": "uint256"
        }
      ],
      "stateMutability": "view",
      "type": "function"
    }
  ],
  "transactionHash": "0x551b097ac2192bd340769d36c92bcdbc621a3b020203c4c6532cf7e4be891aa1",
  "args": [
    1825,
    "0x056b2b117ce3461219ff7519b11ce74348c47ba96d78e53beffec3176018bf6a",
    1688212800
  ],
  "numDeployments": 1,
  "solcInputHash": "78e42726ae422344af467a4e32a48513",
  "bytecode": "0x608060405234801561001057600080fd5b5060405161062238038061062283398101604081905261002f91610040565b60045560009190915560055561006e565b60008060006060848603121561005557600080fd5b8351925060208401519150604084015190509250925092565b6105a58061007d6000396000f3fe608060405234801561001057600080fd5b50600436106100785760003560e01c806324bc1a641461007d5780632eb4a7ab1461009957806344a0b3e7146100a2578063916e62f3146100ab57806392c7abb7146100b4578063b4395f83146100c9578063b8f2145f146100d2578063ecca031f14610105575b600080fd5b61008660005481565b6040519081526020015b60405180910390f35b61008660055481565b61008660015481565b61008660025481565b6100c76100c236600461041c565b610118565b005b61008660045481565b6100f56100e03660046104b9565b60036020526000908152604090205460ff1681565b6040519015158152602001610090565b6100f56101133660046104b9565b610308565b6004544211156101645760405162461bcd60e51b81526020600482015260126024820152713b37ba34b733903832b934b7b21037bb32b960711b60448201526064015b60405180910390fd5b61016d85610308565b156101ab5760405162461bcd60e51b815260206004820152600e60248201526d6475706c696361746520766f746560901b604482015260640161015b565b60408051602081018790526001600160601b03193360601b169181019190915260548101859052600090607401604051602081830303815290604052805190602001209050610231838380806020026020016040519081016040528093929190818152602001838360200280828437600092019190915250506005549150849050610349565b6102745760405162461bcd60e51b815260206004820152601460248201527334b73b30b634b21036b2b935b63290383937b7b360611b604482015260640161015b565b61027d8661035f565b83156102a057846001600082825461029591906104e8565b909155506102b89050565b84600260008282546102b291906104e8565b90915550505b6040805187815233602082015290810186905284151560608201527fb7086a9dd618ffa688aa9500720dfe31d3b288daba445664cecceaed4a1562c39060800160405180910390a1505050505050565b60008061031761010084610516565b905060006103276101008561052a565b60009283526006602052604090922054600190921b9182169091149392505050565b600082610356858461039d565b14949350505050565b600061036d61010083610516565b9050600061037d6101008461052a565b6000928352600660205260409092208054600190931b9092179091555050565b600081815b84518110156103e2576103ce828683815181106103c1576103c161053e565b60200260200101516103ea565b9150806103da81610554565b9150506103a2565b509392505050565b6000818310610406576000828152602084905260409020610415565b60008381526020839052604090205b9392505050565b60008060008060006080868803121561043457600080fd5b85359450602086013593506040860135801515811461045257600080fd5b925060608601356001600160401b038082111561046e57600080fd5b818801915088601f83011261048257600080fd5b81358181111561049157600080fd5b8960208260051b85010111156104a657600080fd5b9699959850939650602001949392505050565b6000602082840312156104cb57600080fd5b5035919050565b634e487b7160e01b600052601160045260246000fd5b600082198211156104fb576104fb6104d2565b500190565b634e487b7160e01b600052601260045260246000fd5b60008261052557610525610500565b500490565b60008261053957610539610500565b500690565b634e487b7160e01b600052603260045260246000fd5b6000600019821415610568576105686104d2565b506001019056fea26469706673582212204f082e7e91bab44de4fce560a615cb025a0d81f23c329a10c0fc0aff7ed72aad64736f6c63430008090033",
  "devdoc": {
    "kind": "dev",
    "methods": {
      "castVote(uint256,uint256,bool,bytes32[])": {
        "params": {
          "_index": "index of the voter",
          "_merkleProof": "merkle proof that needs to be verified against the merkle root to check the msg.sender against the snapshot",
          "_numberOfVotes": "number of voltz nfts and sbts held by the msg.sender before the snapshot was taken",
          "_yesVote": "if this boolean is true then the msg.sender is casting a yes vote, if the boolean is false the msg.sender is casting a no vote"
        }
      }
    },
    "version": 1
  },
  "userdoc": {
    "kind": "user",
    "methods": {
      "blockTimestampVotingEnd()": {
        "notice": "voting end block timestamp (once this contract is deployed, voting is considered to be officially started)"
      },
      "castVote(uint256,uint256,bool,bytes32[])": {
        "notice": "Vote for the proposal"
      },
      "hasTokenIdVoted(uint256)": {
        "notice": "mapping of voltz genesis token ids to a boolean, if true that means the token id has already voted"
      },
      "noVoteCount()": {
        "notice": "Total number of votes against the deployment of voltz protocol"
      },
      "quorumVotes()": {
        "notice": "The number of votes in support of a proposal required in order for a quorum to be reached and for a vote to succeed"
      },
      "yesVoteCount()": {
        "notice": "Total number of votes in favour of deploying voltz protocol"
      }
    },
    "version": 1
  },
  "storageLayout": {
    "storage": [
      {
        "astId": 35556,
        "contract": "contracts/voter/CommunityVoter.sol:CommunityVoter",
        "label": "quorumVotes",
        "offset": 0,
        "slot": "0",
        "type": "t_uint256"
      },
      {
        "astId": 35559,
        "contract": "contracts/voter/CommunityVoter.sol:CommunityVoter",
        "label": "yesVoteCount",
        "offset": 0,
        "slot": "1",
        "type": "t_uint256"
      },
      {
        "astId": 35562,
        "contract": "contracts/voter/CommunityVoter.sol:CommunityVoter",
        "label": "noVoteCount",
        "offset": 0,
        "slot": "2",
        "type": "t_uint256"
      },
      {
        "astId": 35567,
        "contract": "contracts/voter/CommunityVoter.sol:CommunityVoter",
        "label": "hasTokenIdVoted",
        "offset": 0,
        "slot": "3",
        "type": "t_mapping(t_uint256,t_bool)"
      },
      {
        "astId": 35570,
        "contract": "contracts/voter/CommunityVoter.sol:CommunityVoter",
        "label": "blockTimestampVotingEnd",
        "offset": 0,
        "slot": "4",
        "type": "t_uint256"
      },
      {
        "astId": 35572,
        "contract": "contracts/voter/CommunityVoter.sol:CommunityVoter",
        "label": "merkleRoot",
        "offset": 0,
        "slot": "5",
        "type": "t_bytes32"
      },
      {
        "astId": 35576,
        "contract": "contracts/voter/CommunityVoter.sol:CommunityVoter",
        "label": "votedBitMap",
        "offset": 0,
        "slot": "6",
        "type": "t_mapping(t_uint256,t_uint256)"
      }
    ],
    "types": {
      "t_bool": {
        "encoding": "inplace",
        "label": "bool",
        "numberOfBytes": "1"
      },
      "t_bytes32": {
        "encoding": "inplace",
        "label": "bytes32",
        "numberOfBytes": "32"
      },
      "t_mapping(t_uint256,t_bool)": {
        "encoding": "mapping",
        "key": "t_uint256",
        "label": "mapping(uint256 => bool)",
        "numberOfBytes": "32",
        "value": "t_bool"
      },
      "t_mapping(t_uint256,t_uint256)": {
        "encoding": "mapping",
        "key": "t_uint256",
        "label": "mapping(uint256 => uint256)",
        "numberOfBytes": "32",
        "value": "t_uint256"
      },
      "t_uint256": {
        "encoding": "inplace",
        "label": "uint256",
        "numberOfBytes": "32"
      }
    }
  }
}