{
  "address": "0xc20b5A3a74A967501F6C3C5CAee3460dFe3a249E",
  "abi": [
    {
      "anonymous": false,
      "inputs": [
        {
          "indexed": true,
          "internalType": "address",
          "name": "previousOwner",
          "type": "address"
        },
        {
          "indexed": true,
          "internalType": "address",
          "name": "newOwner",
          "type": "address"
        }
      ],
      "name": "OwnershipTransferred",
      "type": "event"
    },
    {
      "inputs": [
        {
          "internalType": "address",
          "name": "to",
          "type": "address"
        }
      ],
      "name": "grantPermission",
      "outputs": [],
      "stateMutability": "nonpayable",
      "type": "function"
    },
    {
      "inputs": [
        {
          "internalType": "address",
          "name": "addr",
          "type": "address"
        }
      ],
      "name": "isPauser",
      "outputs": [
        {
          "internalType": "bool",
          "name": "",
          "type": "bool"
        }
      ],
      "stateMutability": "view",
      "type": "function"
    },
    {
      "inputs": [],
      "name": "owner",
      "outputs": [
        {
          "internalType": "address",
          "name": "",
          "type": "address"
        }
      ],
      "stateMutability": "view",
      "type": "function"
    },
    {
      "inputs": [
        {
          "internalType": "contract VAMMInterface[]",
          "name": "vamms",
          "type": "address[]"
        }
      ],
      "name": "pauseContracts",
      "outputs": [],
      "stateMutability": "nonpayable",
      "type": "function"
    },
    {
      "inputs": [],
      "name": "renounceOwnership",
      "outputs": [],
      "stateMutability": "nonpayable",
      "type": "function"
    },
    {
      "inputs": [
        {
          "internalType": "address",
          "name": "to",
          "type": "address"
        }
      ],
      "name": "revokePermission",
      "outputs": [],
      "stateMutability": "nonpayable",
      "type": "function"
    },
    {
      "inputs": [
        {
          "internalType": "address",
          "name": "newOwner",
          "type": "address"
        }
      ],
      "name": "transferOwnership",
      "outputs": [],
      "stateMutability": "nonpayable",
      "type": "function"
    },
    {
      "inputs": [
        {
          "internalType": "contract VAMMInterface[]",
          "name": "vamms",
          "type": "address[]"
        }
      ],
      "name": "unpauseContracts",
      "outputs": [],
      "stateMutability": "nonpayable",
      "type": "function"
    }
  ],
  "transactionHash": "0xc2e02e18d59c575480677701706cd25bfa0da9e571030f0870a6de503f6fe371",
  "args": [],
  "numDeployments": 1,
  "solcInputHash": "ed2dc92f43fddec05d6b5c2fdd494855",
  "bytecode": "0x608060405234801561001057600080fd5b5061001a3361001f565b61006f565b600080546001600160a01b038381166001600160a01b0319831681178455604051919092169283917f8be0079c531659141344cd1fd0a4f28419497f9722a3daafe3b4186f6b6457e09190a35050565b61083b8061007e6000396000f3fe608060405234801561001057600080fd5b50600436106100785760003560e01c80632d8e32781461007d57806346fbf68e14610092578063715018a6146100d35780638da5cb5b146100db578063a3bf5b9a146100fb578063d1af28131461010e578063d9e4b35a14610121578063f2fde38b14610134575b600080fd5b61009061008b366004610670565b610147565b005b6100be6100a0366004610670565b6001600160a01b031660009081526001602052604090205460ff1690565b60405190151581526020015b60405180910390f35b6100906101d5565b6100e36101e9565b6040516001600160a01b0390911681526020016100ca565b610090610109366004610670565b6101f8565b61009061011c3660046106ba565b61027e565b61009061012f3660046106ba565b6103db565b610090610142366004610670565b610533565b61014f6105ac565b6001600160a01b03811660009081526001602052604090205460ff16156101ae5760405162461bcd60e51b815260206004820152600e60248201526d20b63932b0b23c903830bab9b2b960911b60448201526064015b60405180910390fd5b6001600160a01b03166000908152600160208190526040909120805460ff19169091179055565b6101dd6105ac565b6101e7600061060b565b565b6000546001600160a01b031690565b6102006105ac565b6001600160a01b03811660009081526001602052604090205460ff1661025d5760405162461bcd60e51b815260206004820152601260248201527120b63932b0b23c903737b716b830bab9b2b960711b60448201526064016101a5565b6001600160a01b03166000908152600160205260409020805460ff19169055565b3360009081526001602052604090205460ff166102ad5760405162461bcd60e51b81526004016101a59061077e565b60005b81518110156103d7578181815181106102cb576102cb6107a4565b60200260200101516001600160a01b0316635c975abb6040518163ffffffff1660e01b815260040160206040518083038186803b15801561030b57600080fd5b505afa15801561031f573d6000803e3d6000fd5b505050506040513d601f19601f8201168201806040525081019061034391906107ba565b156103c55781818151811061035a5761035a6107a4565b60200260200101516001600160a01b0316630d21195460006040518263ffffffff1660e01b8152600401610392911515815260200190565b600060405180830381600087803b1580156103ac57600080fd5b505af11580156103c0573d6000803e3d6000fd5b505050505b806103cf816107dc565b9150506102b0565b5050565b3360009081526001602052604090205460ff1661040a5760405162461bcd60e51b81526004016101a59061077e565b60005b81518110156103d757818181518110610428576104286107a4565b60200260200101516001600160a01b0316635c975abb6040518163ffffffff1660e01b815260040160206040518083038186803b15801561046857600080fd5b505afa15801561047c573d6000803e3d6000fd5b505050506040513d601f19601f820116820180604052508101906104a091906107ba565b610521578181815181106104b6576104b66107a4565b60200260200101516001600160a01b0316630d21195460016040518263ffffffff1660e01b81526004016104ee911515815260200190565b600060405180830381600087803b15801561050857600080fd5b505af115801561051c573d6000803e3d6000fd5b505050505b8061052b816107dc565b91505061040d565b61053b6105ac565b6001600160a01b0381166105a05760405162461bcd60e51b815260206004820152602660248201527f4f776e61626c653a206e6577206f776e657220697320746865207a65726f206160448201526564647265737360d01b60648201526084016101a5565b6105a98161060b565b50565b336105b56101e9565b6001600160a01b0316146101e75760405162461bcd60e51b815260206004820181905260248201527f4f776e61626c653a2063616c6c6572206973206e6f7420746865206f776e657260448201526064016101a5565b600080546001600160a01b038381166001600160a01b0319831681178455604051919092169283917f8be0079c531659141344cd1fd0a4f28419497f9722a3daafe3b4186f6b6457e09190a35050565b6001600160a01b03811681146105a957600080fd5b60006020828403121561068257600080fd5b813561068d8161065b565b9392505050565b634e487b7160e01b600052604160045260246000fd5b80356106b58161065b565b919050565b600060208083850312156106cd57600080fd5b82356001600160401b03808211156106e457600080fd5b818501915085601f8301126106f857600080fd5b81358181111561070a5761070a610694565b8060051b604051601f19603f8301168101818110858211171561072f5761072f610694565b60405291825284820192508381018501918883111561074d57600080fd5b938501935b8285101561077257610763856106aa565b84529385019392850192610752565b98975050505050505050565b6020808252600c908201526b4e6f2070726976696c65676560a01b604082015260600190565b634e487b7160e01b600052603260045260246000fd5b6000602082840312156107cc57600080fd5b8151801515811461068d57600080fd5b60006000198214156107fe57634e487b7160e01b600052601160045260246000fd5b506001019056fea264697066735822122068edff46877ba73c5640efb4c7f7e798b73d18d646490edc1c30920f9b91758c64736f6c63430008090033",
  "devdoc": {
    "kind": "dev",
    "methods": {
      "owner()": {
        "details": "Returns the address of the current owner."
      },
      "renounceOwnership()": {
        "details": "Leaves the contract without owner. It will not be possible to call `onlyOwner` functions anymore. Can only be called by the current owner. NOTE: Renouncing ownership will leave the contract without an owner, thereby removing any functionality that is only available to the owner."
      },
      "transferOwnership(address)": {
        "details": "Transfers ownership of the contract to a new account (`newOwner`). Can only be called by the current owner."
      }
    },
    "version": 1
  },
  "userdoc": {
    "kind": "user",
    "methods": {},
    "version": 1
  },
  "storageLayout": {
    "storage": [
      {
        "astId": 1160,
        "contract": "contracts/VoltzPausabilityWrapper.sol:VoltzPausabilityWrapper",
        "label": "_owner",
        "offset": 0,
        "slot": "0",
        "type": "t_address"
      },
      {
        "astId": 14639,
        "contract": "contracts/VoltzPausabilityWrapper.sol:VoltzPausabilityWrapper",
        "label": "pausers",
        "offset": 0,
        "slot": "1",
        "type": "t_mapping(t_address,t_bool)"
      }
    ],
    "types": {
      "t_address": {
        "encoding": "inplace",
        "label": "address",
        "numberOfBytes": "20"
      },
      "t_bool": {
        "encoding": "inplace",
        "label": "bool",
        "numberOfBytes": "1"
      },
      "t_mapping(t_address,t_bool)": {
        "encoding": "mapping",
        "key": "t_address",
        "label": "mapping(address => bool)",
        "numberOfBytes": "32",
        "value": "t_bool"
      }
    }
  }
}