{
  "address": "0xDe1DBCD2E1Ae5d6d4c31F9411C0d1c158fb49bc5",
  "abi": [
    {
      "inputs": [],
      "stateMutability": "nonpayable",
      "type": "constructor"
    },
    {
      "anonymous": false,
      "inputs": [
        {
          "indexed": false,
          "internalType": "address",
          "name": "previousAdmin",
          "type": "address"
        },
        {
          "indexed": false,
          "internalType": "address",
          "name": "newAdmin",
          "type": "address"
        }
      ],
      "name": "AdminChanged",
      "type": "event"
    },
    {
      "anonymous": false,
      "inputs": [
        {
          "indexed": true,
          "internalType": "address",
          "name": "beacon",
          "type": "address"
        }
      ],
      "name": "BeaconUpgraded",
      "type": "event"
    },
    {
      "anonymous": false,
      "inputs": [
        {
          "indexed": false,
          "internalType": "bool",
          "name": "_defaultFundPaused",
          "type": "bool"
        }
      ],
      "name": "DefaultFundPaused",
      "type": "event"
    },
    {
      "anonymous": false,
      "inputs": [
        {
          "indexed": false,
          "internalType": "address",
          "name": "asset",
          "type": "address"
        },
        {
          "indexed": false,
          "internalType": "bool",
          "name": "fromDefaultFund",
          "type": "bool"
        },
        {
          "indexed": false,
          "internalType": "uint256",
          "name": "collectedAmount",
          "type": "uint256"
        }
      ],
      "name": "FeeCollected",
      "type": "event"
    },
    {
      "anonymous": false,
      "inputs": [
        {
          "indexed": false,
          "internalType": "address",
          "name": "asset",
          "type": "address"
        },
        {
          "indexed": false,
          "internalType": "uint256",
          "name": "defaultFundsDelta",
          "type": "uint256"
        },
        {
          "indexed": false,
          "internalType": "uint256",
          "name": "protocolFeesDelta",
          "type": "uint256"
        }
      ],
      "name": "FeeDistributed",
      "type": "event"
    },
    {
      "anonymous": false,
      "inputs": [
        {
          "indexed": false,
          "internalType": "uint8",
          "name": "version",
          "type": "uint8"
        }
      ],
      "name": "Initialized",
      "type": "event"
    },
    {
      "anonymous": false,
      "inputs": [
        {
          "indexed": true,
          "internalType": "address",
          "name": "previousOwner",
          "type": "address"
        },
        {
          "indexed": true,
          "internalType": "address",
          "name": "newOwner",
          "type": "address"
        }
      ],
      "name": "OwnershipTransferred",
      "type": "event"
    },
    {
      "anonymous": false,
      "inputs": [
        {
          "indexed": true,
          "internalType": "address",
          "name": "implementation",
          "type": "address"
        }
      ],
      "name": "Upgraded",
      "type": "event"
    },
    {
      "inputs": [
        {
          "internalType": "address[]",
          "name": "assets",
          "type": "address[]"
        },
        {
          "internalType": "bool",
          "name": "fromDefaultFund",
          "type": "bool"
        }
      ],
      "name": "collectAllFees",
      "outputs": [],
      "stateMutability": "nonpayable",
      "type": "function"
    },
    {
      "inputs": [
        {
          "internalType": "address",
          "name": "asset",
          "type": "address"
        },
        {
          "internalType": "uint256",
          "name": "specifiedAmount",
          "type": "uint256"
        },
        {
          "internalType": "bool",
          "name": "fromDefaultFund",
          "type": "bool"
        }
      ],
      "name": "collectFees",
      "outputs": [
        {
          "internalType": "uint256",
          "name": "defaultFundsDelta",
          "type": "uint256"
        },
        {
          "internalType": "uint256",
          "name": "protocolFeesDelta",
          "type": "uint256"
        }
      ],
      "stateMutability": "nonpayable",
      "type": "function"
    },
    {
      "inputs": [
        {
          "internalType": "address[]",
          "name": "assets",
          "type": "address[]"
        }
      ],
      "name": "distributeAllFees",
      "outputs": [],
      "stateMutability": "nonpayable",
      "type": "function"
    },
    {
      "inputs": [
        {
          "internalType": "address",
          "name": "asset",
          "type": "address"
        }
      ],
      "name": "distributeFees",
      "outputs": [
        {
          "internalType": "uint256",
          "name": "defaultFundsDelta",
          "type": "uint256"
        },
        {
          "internalType": "uint256",
          "name": "protocolFeesDelta",
          "type": "uint256"
        }
      ],
      "stateMutability": "nonpayable",
      "type": "function"
    },
    {
      "inputs": [
        {
          "internalType": "address",
          "name": "asset",
          "type": "address"
        }
      ],
      "name": "getDefaultFund",
      "outputs": [
        {
          "internalType": "uint256",
          "name": "",
          "type": "uint256"
        }
      ],
      "stateMutability": "view",
      "type": "function"
    },
    {
      "inputs": [
        {
          "internalType": "address",
          "name": "asset",
          "type": "address"
        }
      ],
      "name": "getProtocolFees",
      "outputs": [
        {
          "internalType": "uint256",
          "name": "",
          "type": "uint256"
        }
      ],
      "stateMutability": "view",
      "type": "function"
    },
    {
      "inputs": [],
      "name": "initialize",
      "outputs": [],
      "stateMutability": "nonpayable",
      "type": "function"
    },
    {
      "inputs": [],
      "name": "owner",
      "outputs": [
        {
          "internalType": "address",
          "name": "",
          "type": "address"
        }
      ],
      "stateMutability": "view",
      "type": "function"
    },
    {
      "inputs": [],
      "name": "proxiableUUID",
      "outputs": [
        {
          "internalType": "bytes32",
          "name": "",
          "type": "bytes32"
        }
      ],
      "stateMutability": "view",
      "type": "function"
    },
    {
      "inputs": [],
      "name": "renounceOwnership",
      "outputs": [],
      "stateMutability": "nonpayable",
      "type": "function"
    },
    {
      "inputs": [
        {
          "internalType": "bool",
          "name": "_defaultFundPaused",
          "type": "bool"
        }
      ],
      "name": "setDefaultFundPaused",
      "outputs": [],
      "stateMutability": "nonpayable",
      "type": "function"
    },
    {
      "inputs": [
        {
          "internalType": "address",
          "name": "newOwner",
          "type": "address"
        }
      ],
      "name": "transferOwnership",
      "outputs": [],
      "stateMutability": "nonpayable",
      "type": "function"
    },
    {
      "inputs": [
        {
          "internalType": "address",
          "name": "newImplementation",
          "type": "address"
        }
      ],
      "name": "upgradeTo",
      "outputs": [],
      "stateMutability": "nonpayable",
      "type": "function"
    },
    {
      "inputs": [
        {
          "internalType": "address",
          "name": "newImplementation",
          "type": "address"
        },
        {
          "internalType": "bytes",
          "name": "data",
          "type": "bytes"
        }
      ],
      "name": "upgradeToAndCall",
      "outputs": [],
      "stateMutability": "payable",
      "type": "function"
    }
  ],
  "transactionHash": "0x873133d613d8b1bacbea3f136eac46f9e64ca7cbc6715522a6431be670deca99",
  "args": [],
  "numDeployments": 1,
  "solcInputHash": "728534d3a009217e8b2ac5a2a0322038",
  "bytecode": "0x60a0604052306080523480156200001557600080fd5b50603254610100900460ff1615808015620000375750603254600160ff909116105b8062000067575062000054306200014160201b62000adb1760201c565b15801562000067575060325460ff166001145b620000cf5760405162461bcd60e51b815260206004820152602e60248201527f496e697469616c697a61626c653a20636f6e747261637420697320616c72656160448201526d191e481a5b9a5d1a585b1a5e995960921b606482015260840160405180910390fd5b6032805460ff191660011790558015620000f3576032805461ff0019166101001790555b80156200013a576032805461ff0019169055604051600181527f7f26b83ff96e1f2b6a682f133852f6798a09c465da95921460cefb38474024989060200160405180910390a15b5062000150565b6001600160a01b03163b151590565b6080516116f1620001886000396000818161034d015281816103960152818161055501528181610595015261061101526116f16000f3fe6080604052600436106100ad5760003560e01c80630e56357f146100b2578063146b0b60146100fb578063342088bc1461011d5780633659cfe61461013d578063384411261461015d5780634f1ef2861461019257806352d1902d146101a5578063715018a6146101ba5780638129fc1c146101cf5780638da5cb5b146101e45780639413f25c14610206578063e2975c1d14610226578063f27dd8ab14610246578063f2fde38b1461027c575b600080fd5b3480156100be57600080fd5b506100e86100cd366004611198565b6001600160a01b031660009081526020819052604090205490565b6040519081526020015b60405180910390f35b34801561010757600080fd5b5061011b6101163660046111c1565b61029c565b005b34801561012957600080fd5b5061011b6101383660046112aa565b6102ec565b34801561014957600080fd5b5061011b610158366004611198565b610342565b34801561016957600080fd5b5061017d6101783660046112fb565b610414565b604080519283526020830191909152016100f2565b61011b6101a036600461133b565b61054a565b3480156101b157600080fd5b506100e8610604565b3480156101c657600080fd5b5061011b6106b2565b3480156101db57600080fd5b5061011b6106c6565b3480156101f057600080fd5b506101f96107df565b6040516100f291906113e0565b34801561021257600080fd5b5061017d610221366004611198565b6107ee565b34801561023257600080fd5b5061011b6102413660046113f4565b610a1a565b34801561025257600080fd5b506100e8610261366004611198565b6001600160a01b031660009081526001602052604090205490565b34801561028857600080fd5b5061011b610297366004611198565b610a65565b6102a4610aea565b6002805460ff19168215159081179091556040519081527f915eb32c822daa6252d6e90e20c9b3570154bf2def8003d4355d1f867cbf1273906020015b60405180910390a150565b6102f4610aea565b60005b825181101561033d5761032883828151811061031557610315611430565b6020026020010151600160ff1b84610414565b505080806103359061145c565b9150506102f7565b505050565b306001600160a01b037f00000000000000000000000000000000000000000000000000000000000000001614156103945760405162461bcd60e51b815260040161038b90611477565b60405180910390fd5b7f00000000000000000000000000000000000000000000000000000000000000006001600160a01b03166103c6610b49565b6001600160a01b0316146103ec5760405162461bcd60e51b815260040161038b906114b1565b6103f581610b65565b6040805160008082526020820190925261041191839190610b6d565b50565b60008061041f610aea565b6000600160ff1b8514610432578461046f565b83610455576001600160a01b03861660009081526001602052604090205461046f565b6001600160a01b0386166000908152602081905260409020545b905083156104af576001600160a01b0386166000908152602081905260408120805492945084928392906104a49084906114eb565b909155506104e29050565b6001600160a01b0386166000908152600160205260408120805492935083928392906104dc9084906114eb565b90915550505b6104f66001600160a01b0387163383610ce7565b604080516001600160a01b038816815285151560208201529081018290527f7c79f7e2d6a937218f79ecfcfa53746a3a6b942a3ac07439b606d982eb2fa6f09060600160405180910390a150935093915050565b306001600160a01b037f00000000000000000000000000000000000000000000000000000000000000001614156105935760405162461bcd60e51b815260040161038b90611477565b7f00000000000000000000000000000000000000000000000000000000000000006001600160a01b03166105c5610b49565b6001600160a01b0316146105eb5760405162461bcd60e51b815260040161038b906114b1565b6105f482610b65565b61060082826001610b6d565b5050565b6000306001600160a01b037f0000000000000000000000000000000000000000000000000000000000000000161461069f5760405162461bcd60e51b815260206004820152603860248201527f555550535570677261646561626c653a206d757374206e6f742062652063616c6044820152771b1959081d1a1c9bdd59da0819195b1959d85d1958d85b1b60421b606482015260840161038b565b5060008051602061167583398151915290565b6106ba610aea565b6106c46000610d39565b565b603254610100900460ff16158080156106e65750603254600160ff909116105b8061070757506106f530610adb565b158015610707575060325460ff166001145b61076a5760405162461bcd60e51b815260206004820152602e60248201527f496e697469616c697a61626c653a20636f6e747261637420697320616c72656160448201526d191e481a5b9a5d1a585b1a5e995960921b606482015260840161038b565b6032805460ff19166001179055801561078d576032805461ff0019166101001790555b610795610d8b565b61079d610dba565b8015610411576032805461ff0019169055604051600181527f7f26b83ff96e1f2b6a682f133852f6798a09c465da95921460cefb3847402498906020016102e1565b6065546001600160a01b031690565b6000806107f9610aea565b6040516370a0823160e01b81526000906001600160a01b038516906370a08231906108289030906004016113e0565b60206040518083038186803b15801561084057600080fd5b505afa158015610854573d6000803e3d6000fd5b505050506040513d601f19601f820116820180604052508101906108789190611502565b6001600160a01b03851660009081526020818152604080832054600190925282205492935090916108a9919061151b565b82116108b65760006108ed565b6001600160a01b038516600090815260208181526040808320546001909252909120546108e390846114eb565b6108ed91906114eb565b60025490915060ff1615610933576001600160a01b03851660009081526001602052604081208054929450849283929061092890849061151b565b909155506109c99050565b61093e600282611549565b61094960028361155d565b610953919061151b565b935061096060028261155d565b925083600080876001600160a01b03166001600160a01b031681526020019081526020016000206000828254610996919061151b565b90915550506001600160a01b038516600090815260016020526040812080548592906109c390849061151b565b90915550505b604080516001600160a01b0387168152602081018690529081018490527f891d4da69faf2cf5f9b5a4bceeeba1909237ad5d6222ebe54fbcab15067f8e689060600160405180910390a15050915091565b610a22610aea565b60005b815181101561060057610a50828281518110610a4357610a43611430565b60200260200101516107ee565b50508080610a5d9061145c565b915050610a25565b610a6d610aea565b6001600160a01b038116610ad25760405162461bcd60e51b815260206004820152602660248201527f4f776e61626c653a206e6577206f776e657220697320746865207a65726f206160448201526564647265737360d01b606482015260840161038b565b61041181610d39565b6001600160a01b03163b151590565b33610af36107df565b6001600160a01b0316146106c45760405162461bcd60e51b815260206004820181905260248201527f4f776e61626c653a2063616c6c6572206973206e6f7420746865206f776e6572604482015260640161038b565b600080516020611675833981519152546001600160a01b031690565b610411610aea565b7f4910fdfa16fed3260ed0e7147f7cc6da11a60208b5b9406d12a635614ffd91435460ff1615610ba05761033d83610de1565b826001600160a01b03166352d1902d6040518163ffffffff1660e01b815260040160206040518083038186803b158015610bd957600080fd5b505afa925050508015610c09575060408051601f3d908101601f19168201909252610c0691810190611502565b60015b610c6c5760405162461bcd60e51b815260206004820152602e60248201527f45524331393637557067726164653a206e657720696d706c656d656e7461746960448201526d6f6e206973206e6f74205555505360901b606482015260840161038b565b6000805160206116758339815191528114610cdb5760405162461bcd60e51b815260206004820152602960248201527f45524331393637557067726164653a20756e737570706f727465642070726f786044820152681a58589b195555525160ba1b606482015260840161038b565b5061033d838383610e7b565b604080516001600160a01b038416602482015260448082018490528251808303909101815260649091019091526020810180516001600160e01b031663a9059cbb60e01b17905261033d908490610ea6565b606580546001600160a01b038381166001600160a01b0319831681179093556040519116919082907f8be0079c531659141344cd1fd0a4f28419497f9722a3daafe3b4186f6b6457e090600090a35050565b603254610100900460ff16610db25760405162461bcd60e51b815260040161038b90611571565b6106c4610f27565b603254610100900460ff166106c45760405162461bcd60e51b815260040161038b90611571565b610dea81610adb565b610e4c5760405162461bcd60e51b815260206004820152602d60248201527f455243313936373a206e657720696d706c656d656e746174696f6e206973206e60448201526c1bdd08184818dbdb9d1c9858dd609a1b606482015260840161038b565b60008051602061167583398151915280546001600160a01b0319166001600160a01b0392909216919091179055565b610e8483610f57565b600082511180610e915750805b1561033d57610ea08383610f97565b50505050565b6000610ed283836040518060400160405280600781526020016629aa261032b93960c91b815250611089565b80519091501561033d5780806020019051810190610ef091906115bc565b61033d5760405162461bcd60e51b815260206004820152600860248201526714d5130819985a5b60c21b604482015260640161038b565b603254610100900460ff16610f4e5760405162461bcd60e51b815260040161038b90611571565b6106c433610d39565b610f6081610de1565b6040516001600160a01b038216907fbc7cd75a20ee27fd9adebab32041f755214dbc6bffa90cc0225b39da2e5c2d3b90600090a250565b6060610fa283610adb565b610ffd5760405162461bcd60e51b815260206004820152602660248201527f416464726573733a2064656c65676174652063616c6c20746f206e6f6e2d636f6044820152651b9d1c9858dd60d21b606482015260840161038b565b600080846001600160a01b0316846040516110189190611605565b600060405180830381855af49150503d8060008114611053576040519150601f19603f3d011682016040523d82523d6000602084013e611058565b606091505b5091509150611080828260405180606001604052806027815260200161169560279139611143565b95945050505050565b6060833b6110c85760405162461bcd60e51b815260206004820152600c60248201526b1b9bdb8b58dbdb9d1c9858dd60a21b604482015260640161038b565b600080856001600160a01b03166000866040516110e59190611605565b60006040518083038185875af1925050503d8060008114611122576040519150601f19603f3d011682016040523d82523d6000602084013e611127565b606091505b5091509150611137828286611143565b925050505b9392505050565b6060831561115257508161113c565b8251156111625782518084602001fd5b8160405162461bcd60e51b815260040161038b9190611621565b80356001600160a01b038116811461119357600080fd5b919050565b6000602082840312156111aa57600080fd5b61113c8261117c565b801515811461041157600080fd5b6000602082840312156111d357600080fd5b813561113c816111b3565b634e487b7160e01b600052604160045260246000fd5b604051601f8201601f191681016001600160401b038111828210171561121c5761121c6111de565b604052919050565b600082601f83011261123557600080fd5b813560206001600160401b03821115611250576112506111de565b8160051b61125f8282016111f4565b928352848101820192828101908785111561127957600080fd5b83870192505b8483101561129f576112908361117c565b8252918301919083019061127f565b979650505050505050565b600080604083850312156112bd57600080fd5b82356001600160401b038111156112d357600080fd5b6112df85828601611224565b92505060208301356112f0816111b3565b809150509250929050565b60008060006060848603121561131057600080fd5b6113198461117c565b9250602084013591506040840135611330816111b3565b809150509250925092565b6000806040838503121561134e57600080fd5b6113578361117c565b91506020838101356001600160401b038082111561137457600080fd5b818601915086601f83011261138857600080fd5b81358181111561139a5761139a6111de565b6113ac601f8201601f191685016111f4565b915080825287848285010111156113c257600080fd5b80848401858401376000848284010152508093505050509250929050565b6001600160a01b0391909116815260200190565b60006020828403121561140657600080fd5b81356001600160401b0381111561141c57600080fd5b61142884828501611224565b949350505050565b634e487b7160e01b600052603260045260246000fd5b634e487b7160e01b600052601160045260246000fd5b600060001982141561147057611470611446565b5060010190565b6020808252602c9082015260008051602061165583398151915260408201526b19195b1959d85d1958d85b1b60a21b606082015260800190565b6020808252602c9082015260008051602061165583398151915260408201526b6163746976652070726f787960a01b606082015260800190565b6000828210156114fd576114fd611446565b500390565b60006020828403121561151457600080fd5b5051919050565b6000821982111561152e5761152e611446565b500190565b634e487b7160e01b600052601260045260246000fd5b60008261155857611558611533565b500690565b60008261156c5761156c611533565b500490565b6020808252602b908201527f496e697469616c697a61626c653a20636f6e7472616374206973206e6f74206960408201526a6e697469616c697a696e6760a81b606082015260800190565b6000602082840312156115ce57600080fd5b815161113c816111b3565b60005b838110156115f45781810151838201526020016115dc565b83811115610ea05750506000910152565b600082516116178184602087016115d9565b9190910192915050565b60208152600082518060208401526116408160408501602087016115d9565b601f01601f1916919091016040019291505056fe46756e6374696f6e206d7573742062652063616c6c6564207468726f75676820360894a13ba1a3210667c828492db98dca3e2076cc3735a920a3ca505d382bbc416464726573733a206c6f772d6c6576656c2064656c65676174652063616c6c206661696c6564a26469706673582212204fec097b772d2c80a335060a9fff585990d235ad94263112cb6333698e0998f764736f6c63430008090033",
  "devdoc": {
    "kind": "dev",
    "methods": {
      "collectFees(address,uint256,bool)": {
        "params": {
          "amount": "Amount to be sent to owner",
          "asset": "Token address of asset that is transferred",
          "fromDefaultFund": "Flags the source of the funds"
        },
        "returns": {
          "defaultFundsDelta": "delta amount subtracted from the default fund",
          "protocolFeesDelta": "delta amounts subtracted from the protocol fee fund"
        }
      },
      "constructor": {
        "custom:oz-upgrades-unsafe-allow": "constructor"
      },
      "distributeFees(address)": {
        "details": "Funds are allocated as such: 50% to default fund (if the fund is not paused) and the rest to protocol fees",
        "params": {
          "asset": "Token address of interest"
        },
        "returns": {
          "defaultFundsDelta": "delta amount added to the default fund",
          "protocolFeesDelta": "delta amounts added to the protocol fee fund"
        }
      },
      "getDefaultFund(address)": {
        "params": {
          "asset": "Token address of interest"
        }
      },
      "getProtocolFees(address)": {
        "params": {
          "asset": "Token address of interest"
        }
      },
      "initialize()": {
        "details": "\"constructor\" for proxy instances"
      },
      "owner()": {
        "details": "Returns the address of the current owner."
      },
      "proxiableUUID()": {
        "details": "Implementation of the ERC1822 {proxiableUUID} function. This returns the storage slot used by the implementation. It is used to validate that the this implementation remains valid after an upgrade. IMPORTANT: A proxy pointing at a proxiable contract should not be considered proxiable itself, because this risks bricking a proxy that upgrades to it, by delegating to itself until out of gas. Thus it is critical that this function revert if invoked through a proxy. This is guaranteed by the `notDelegated` modifier."
      },
      "renounceOwnership()": {
        "details": "Leaves the contract without owner. It will not be possible to call `onlyOwner` functions anymore. Can only be called by the current owner. NOTE: Renouncing ownership will leave the contract without an owner, thereby removing any functionality that is only available to the owner."
      },
      "transferOwnership(address)": {
        "details": "Transfers ownership of the contract to a new account (`newOwner`). Can only be called by the current owner."
      },
      "upgradeTo(address)": {
        "details": "Upgrade the implementation of the proxy to `newImplementation`. Calls {_authorizeUpgrade}. Emits an {Upgraded} event."
      },
      "upgradeToAndCall(address,bytes)": {
        "details": "Upgrade the implementation of the proxy to `newImplementation`, and subsequently execute the function call encoded in `data`. Calls {_authorizeUpgrade}. Emits an {Upgraded} event."
      }
    },
    "stateVariables": {
      "ENTIRE_BALANCE": {
        "details": "Used for identifying cases when the entire fund's balance is to be used as an input This value is equivalent to 1<<255, i.e. a singular 1 in the most significant bit."
      }
    },
    "version": 1
  },
  "userdoc": {
    "kind": "user",
    "methods": {
      "collectAllFees(address[],bool)": {
        "notice": "Transfers the entire fund balance in the given assets to owner"
      },
      "collectFees(address,uint256,bool)": {
        "notice": "Transfers the specified amount in given asset to the owner"
      },
      "distributeAllFees(address[])": {
        "notice": "Allocated the entire contract's balance in spefied assets to the default fund and the protocol fees"
      },
      "distributeFees(address)": {
        "notice": "Allocated the contract's balance to the default fund and the protocol fees"
      },
      "getDefaultFund(address)": {
        "notice": "Returns the total value of the default fund"
      },
      "getProtocolFees(address)": {
        "notice": "Returns the total value of protocol fees"
      },
      "setDefaultFundPaused(bool)": {
        "notice": "Pauses/Restarts the accumulation of default funds"
      }
    },
    "version": 1
  },
  "storageLayout": {
    "storage": [
      {
        "astId": 1916,
        "contract": "contracts/FeeCollector.sol:FeeCollector",
        "label": "defaultFund",
        "offset": 0,
        "slot": "0",
        "type": "t_mapping(t_address,t_uint256)"
      },
      {
        "astId": 1920,
        "contract": "contracts/FeeCollector.sol:FeeCollector",
        "label": "protocolFees",
        "offset": 0,
        "slot": "1",
        "type": "t_mapping(t_address,t_uint256)"
      },
      {
        "astId": 1922,
        "contract": "contracts/FeeCollector.sol:FeeCollector",
        "label": "defaultFundPaused",
        "offset": 0,
        "slot": "2",
        "type": "t_bool"
      },
      {
        "astId": 1929,
        "contract": "contracts/FeeCollector.sol:FeeCollector",
        "label": "__gap",
        "offset": 0,
        "slot": "3",
        "type": "t_array(t_uint256)47_storage"
      },
      {
        "astId": 527,
        "contract": "contracts/FeeCollector.sol:FeeCollector",
        "label": "_initialized",
        "offset": 0,
        "slot": "50",
        "type": "t_uint8"
      },
      {
        "astId": 530,
        "contract": "contracts/FeeCollector.sol:FeeCollector",
        "label": "_initializing",
        "offset": 1,
        "slot": "50",
        "type": "t_bool"
      },
      {
        "astId": 1091,
        "contract": "contracts/FeeCollector.sol:FeeCollector",
        "label": "__gap",
        "offset": 0,
        "slot": "51",
        "type": "t_array(t_uint256)50_storage"
      },
      {
        "astId": 10,
        "contract": "contracts/FeeCollector.sol:FeeCollector",
        "label": "_owner",
        "offset": 0,
        "slot": "101",
        "type": "t_address"
      },
      {
        "astId": 130,
        "contract": "contracts/FeeCollector.sol:FeeCollector",
        "label": "__gap",
        "offset": 0,
        "slot": "102",
        "type": "t_array(t_uint256)49_storage"
      },
      {
        "astId": 509,
        "contract": "contracts/FeeCollector.sol:FeeCollector",
        "label": "__gap",
        "offset": 0,
        "slot": "151",
        "type": "t_array(t_uint256)50_storage"
      },
      {
        "astId": 806,
        "contract": "contracts/FeeCollector.sol:FeeCollector",
        "label": "__gap",
        "offset": 0,
        "slot": "201",
        "type": "t_array(t_uint256)50_storage"
      }
    ],
    "types": {
      "t_address": {
        "encoding": "inplace",
        "label": "address",
        "numberOfBytes": "20"
      },
      "t_array(t_uint256)47_storage": {
        "base": "t_uint256",
        "encoding": "inplace",
        "label": "uint256[47]",
        "numberOfBytes": "1504"
      },
      "t_array(t_uint256)49_storage": {
        "base": "t_uint256",
        "encoding": "inplace",
        "label": "uint256[49]",
        "numberOfBytes": "1568"
      },
      "t_array(t_uint256)50_storage": {
        "base": "t_uint256",
        "encoding": "inplace",
        "label": "uint256[50]",
        "numberOfBytes": "1600"
      },
      "t_bool": {
        "encoding": "inplace",
        "label": "bool",
        "numberOfBytes": "1"
      },
      "t_mapping(t_address,t_uint256)": {
        "encoding": "mapping",
        "key": "t_address",
        "label": "mapping(address => uint256)",
        "numberOfBytes": "32",
        "value": "t_uint256"
      },
      "t_uint256": {
        "encoding": "inplace",
        "label": "uint256",
        "numberOfBytes": "32"
      },
      "t_uint8": {
        "encoding": "inplace",
        "label": "uint8",
        "numberOfBytes": "1"
      }
    }
  }
}