{
  "address": "0xf28E795B214230ba192f7f9167d6CbEc2558B00c",
  "abi": [
    {
      "inputs": [],
      "stateMutability": "nonpayable",
      "type": "constructor"
    },
    {
      "inputs": [],
      "name": "AavePoolGetReserveNormalizedIncomeReturnedZero",
      "type": "error"
    },
    {
      "inputs": [
        {
          "internalType": "bool",
          "name": "unlocked",
          "type": "bool"
        }
      ],
      "name": "CanOnlyTradeIfUnlocked",
      "type": "error"
    },
    {
      "inputs": [],
      "name": "CannotLiquidate",
      "type": "error"
    },
    {
      "inputs": [],
      "name": "CannotSettleBeforeMaturity",
      "type": "error"
    },
    {
      "inputs": [
        {
          "internalType": "uint256",
          "name": "x",
          "type": "uint256"
        },
        {
          "internalType": "uint256",
          "name": "y",
          "type": "uint256"
        }
      ],
      "name": "DebugError",
      "type": "error"
    },
    {
      "inputs": [
        {
          "internalType": "int256",
          "name": "amount0",
          "type": "int256"
        },
        {
          "internalType": "int256",
          "name": "amount1",
          "type": "int256"
        }
      ],
      "name": "ExpectedOppositeSigns",
      "type": "error"
    },
    {
      "inputs": [
        {
          "internalType": "uint160",
          "name": "sqrtPriceX96",
          "type": "uint160"
        }
      ],
      "name": "ExpectedSqrtPriceZeroBeforeInit",
      "type": "error"
    },
    {
      "inputs": [],
      "name": "IRSNotionalAmountSpecifiedMustBeNonZero",
      "type": "error"
    },
    {
      "inputs": [],
      "name": "InvalidMarginDelta",
      "type": "error"
    },
    {
      "inputs": [
        {
          "internalType": "uint128",
          "name": "amount",
          "type": "uint128"
        }
      ],
      "name": "LiquidityDeltaMustBePositiveInBurn",
      "type": "error"
    },
    {
      "inputs": [
        {
          "internalType": "uint128",
          "name": "amount",
          "type": "uint128"
        }
      ],
      "name": "LiquidityDeltaMustBePositiveInMint",
      "type": "error"
    },
    {
      "inputs": [
        {
          "internalType": "int256",
          "name": "marginRequirement",
          "type": "int256"
        }
      ],
      "name": "MarginLessThanMinimum",
      "type": "error"
    },
    {
      "inputs": [
        {
          "internalType": "int256",
          "name": "marginRequirement",
          "type": "int256"
        },
        {
          "internalType": "int24",
          "name": "tick",
          "type": "int24"
        },
        {
          "internalType": "int256",
          "name": "fixedTokenDelta",
          "type": "int256"
        },
        {
          "internalType": "int256",
          "name": "variableTokenDelta",
          "type": "int256"
        },
        {
          "internalType": "uint256",
          "name": "cumulativeFeeIncurred",
          "type": "uint256"
        },
        {
          "internalType": "int256",
          "name": "fixedTokenDeltaUnbalanced",
          "type": "int256"
        }
      ],
      "name": "MarginRequirementNotMet",
      "type": "error"
    },
    {
      "inputs": [
        {
          "internalType": "int256",
          "name": "marginRequirement",
          "type": "int256"
        }
      ],
      "name": "MarginRequirementNotMetFCM",
      "type": "error"
    },
    {
      "inputs": [
        {
          "internalType": "uint256",
          "name": "requested",
          "type": "uint256"
        },
        {
          "internalType": "uint256",
          "name": "available",
          "type": "uint256"
        }
      ],
      "name": "NotEnoughFunds",
      "type": "error"
    },
    {
      "inputs": [],
      "name": "OOO",
      "type": "error"
    },
    {
      "inputs": [],
      "name": "OnlyFCM",
      "type": "error"
    },
    {
      "inputs": [],
      "name": "OnlyMarginEngine",
      "type": "error"
    },
    {
      "inputs": [],
      "name": "OnlyOwnerCanUpdatePosition",
      "type": "error"
    },
    {
      "inputs": [],
      "name": "OnlyVAMM",
      "type": "error"
    },
    {
      "inputs": [
        {
          "internalType": "int256",
          "name": "x",
          "type": "int256"
        }
      ],
      "name": "PRBMathSD59x18__FromIntOverflow",
      "type": "error"
    },
    {
      "inputs": [
        {
          "internalType": "int256",
          "name": "x",
          "type": "int256"
        }
      ],
      "name": "PRBMathSD59x18__FromIntUnderflow",
      "type": "error"
    },
    {
      "inputs": [],
      "name": "PRBMathSD59x18__MulInputTooSmall",
      "type": "error"
    },
    {
      "inputs": [
        {
          "internalType": "uint256",
          "name": "rAbs",
          "type": "uint256"
        }
      ],
      "name": "PRBMathSD59x18__MulOverflow",
      "type": "error"
    },
    {
      "inputs": [
        {
          "internalType": "uint256",
          "name": "x",
          "type": "uint256"
        }
      ],
      "name": "PRBMathUD60x18__FromUintOverflow",
      "type": "error"
    },
    {
      "inputs": [
        {
          "internalType": "uint256",
          "name": "prod1",
          "type": "uint256"
        }
      ],
      "name": "PRBMath__MulDivFixedPointOverflow",
      "type": "error"
    },
    {
      "inputs": [
        {
          "internalType": "uint256",
          "name": "prod1",
          "type": "uint256"
        },
        {
          "internalType": "uint256",
          "name": "denominator",
          "type": "uint256"
        }
      ],
      "name": "PRBMath__MulDivOverflow",
      "type": "error"
    },
    {
      "inputs": [],
      "name": "PositionNetZero",
      "type": "error"
    },
    {
      "inputs": [],
      "name": "PositionNotSettled",
      "type": "error"
    },
    {
      "inputs": [],
      "name": "WithdrawalExceedsCurrentMargin",
      "type": "error"
    },
    {
      "inputs": [],
      "name": "closeToOrBeyondMaturity",
      "type": "error"
    },
    {
      "anonymous": false,
      "inputs": [
        {
          "indexed": false,
          "internalType": "address",
          "name": "previousAdmin",
          "type": "address"
        },
        {
          "indexed": false,
          "internalType": "address",
          "name": "newAdmin",
          "type": "address"
        }
      ],
      "name": "AdminChanged",
      "type": "event"
    },
    {
      "anonymous": false,
      "inputs": [
        {
          "indexed": true,
          "internalType": "address",
          "name": "beacon",
          "type": "address"
        }
      ],
      "name": "BeaconUpgraded",
      "type": "event"
    },
    {
      "anonymous": false,
      "inputs": [
        {
          "indexed": true,
          "internalType": "address",
          "name": "trader",
          "type": "address"
        },
        {
          "indexed": false,
          "internalType": "uint256",
          "name": "marginInScaledYieldBearingTokens",
          "type": "uint256"
        },
        {
          "indexed": false,
          "internalType": "int256",
          "name": "fixedTokenBalance",
          "type": "int256"
        },
        {
          "indexed": false,
          "internalType": "int256",
          "name": "variableTokenBalance",
          "type": "int256"
        }
      ],
      "name": "FCMTraderUpdate",
      "type": "event"
    },
    {
      "anonymous": false,
      "inputs": [
        {
          "indexed": true,
          "internalType": "address",
          "name": "trader",
          "type": "address"
        },
        {
          "indexed": false,
          "internalType": "uint256",
          "name": "desiredNotional",
          "type": "uint256"
        },
        {
          "indexed": false,
          "internalType": "uint160",
          "name": "sqrtPriceLimitX96",
          "type": "uint160"
        },
        {
          "indexed": false,
          "internalType": "uint256",
          "name": "cumulativeFeeIncurred",
          "type": "uint256"
        },
        {
          "indexed": false,
          "internalType": "int256",
          "name": "fixedTokenDelta",
          "type": "int256"
        },
        {
          "indexed": false,
          "internalType": "int256",
          "name": "variableTokenDelta",
          "type": "int256"
        },
        {
          "indexed": false,
          "internalType": "int256",
          "name": "fixedTokenDeltaUnbalanced",
          "type": "int256"
        }
      ],
      "name": "FullyCollateralisedSwap",
      "type": "event"
    },
    {
      "anonymous": false,
      "inputs": [
        {
          "indexed": true,
          "internalType": "address",
          "name": "trader",
          "type": "address"
        },
        {
          "indexed": false,
          "internalType": "uint256",
          "name": "desiredNotional",
          "type": "uint256"
        },
        {
          "indexed": false,
          "internalType": "uint160",
          "name": "sqrtPriceLimitX96",
          "type": "uint160"
        },
        {
          "indexed": false,
          "internalType": "uint256",
          "name": "cumulativeFeeIncurred",
          "type": "uint256"
        },
        {
          "indexed": false,
          "internalType": "int256",
          "name": "fixedTokenDelta",
          "type": "int256"
        },
        {
          "indexed": false,
          "internalType": "int256",
          "name": "variableTokenDelta",
          "type": "int256"
        },
        {
          "indexed": false,
          "internalType": "int256",
          "name": "fixedTokenDeltaUnbalanced",
          "type": "int256"
        }
      ],
      "name": "FullyCollateralisedUnwind",
      "type": "event"
    },
    {
      "anonymous": false,
      "inputs": [
        {
          "indexed": true,
          "internalType": "address",
          "name": "previousOwner",
          "type": "address"
        },
        {
          "indexed": true,
          "internalType": "address",
          "name": "newOwner",
          "type": "address"
        }
      ],
      "name": "OwnershipTransferred",
      "type": "event"
    },
    {
      "anonymous": false,
      "inputs": [
        {
          "indexed": false,
          "internalType": "address",
          "name": "account",
          "type": "address"
        }
      ],
      "name": "Paused",
      "type": "event"
    },
    {
      "anonymous": false,
      "inputs": [
        {
          "indexed": false,
          "internalType": "address",
          "name": "account",
          "type": "address"
        }
      ],
      "name": "Unpaused",
      "type": "event"
    },
    {
      "anonymous": false,
      "inputs": [
        {
          "indexed": true,
          "internalType": "address",
          "name": "implementation",
          "type": "address"
        }
      ],
      "name": "Upgraded",
      "type": "event"
    },
    {
      "anonymous": false,
      "inputs": [
        {
          "indexed": true,
          "internalType": "address",
          "name": "trader",
          "type": "address"
        },
        {
          "indexed": false,
          "internalType": "int256",
          "name": "settlementCashflow",
          "type": "int256"
        }
      ],
      "name": "fcmPositionSettlement",
      "type": "event"
    },
    {
      "inputs": [],
      "name": "aaveLendingPool",
      "outputs": [
        {
          "internalType": "contract IAaveV2LendingPool",
          "name": "",
          "type": "address"
        }
      ],
      "stateMutability": "view",
      "type": "function"
    },
    {
      "inputs": [
        {
          "internalType": "address",
          "name": "traderAddress",
          "type": "address"
        }
      ],
      "name": "getTraderMarginInATokens",
      "outputs": [
        {
          "internalType": "uint256",
          "name": "marginInYieldBearingTokens",
          "type": "uint256"
        }
      ],
      "stateMutability": "view",
      "type": "function"
    },
    {
      "inputs": [
        {
          "internalType": "address",
          "name": "trader",
          "type": "address"
        }
      ],
      "name": "getTraderWithYieldBearingAssets",
      "outputs": [
        {
          "components": [
            {
              "internalType": "uint256",
              "name": "marginInScaledYieldBearingTokens",
              "type": "uint256"
            },
            {
              "internalType": "int256",
              "name": "fixedTokenBalance",
              "type": "int256"
            },
            {
              "internalType": "int256",
              "name": "variableTokenBalance",
              "type": "int256"
            },
            {
              "internalType": "bool",
              "name": "isSettled",
              "type": "bool"
            }
          ],
          "internalType": "struct TraderWithYieldBearingAssets.Info",
          "name": "traderInfo",
          "type": "tuple"
        }
      ],
      "stateMutability": "view",
      "type": "function"
    },
    {
      "inputs": [
        {
          "internalType": "contract IVAMM",
          "name": "__vamm",
          "type": "address"
        },
        {
          "internalType": "contract IMarginEngine",
          "name": "__marginEngine",
          "type": "address"
        }
      ],
      "name": "initialize",
      "outputs": [],
      "stateMutability": "nonpayable",
      "type": "function"
    },
    {
      "inputs": [
        {
          "internalType": "uint256",
          "name": "notional",
          "type": "uint256"
        },
        {
          "internalType": "uint160",
          "name": "sqrtPriceLimitX96",
          "type": "uint160"
        }
      ],
      "name": "initiateFullyCollateralisedFixedTakerSwap",
      "outputs": [
        {
          "internalType": "int256",
          "name": "fixedTokenDelta",
          "type": "int256"
        },
        {
          "internalType": "int256",
          "name": "variableTokenDelta",
          "type": "int256"
        },
        {
          "internalType": "uint256",
          "name": "cumulativeFeeIncurred",
          "type": "uint256"
        },
        {
          "internalType": "int256",
          "name": "fixedTokenDeltaUnbalanced",
          "type": "int256"
        }
      ],
      "stateMutability": "nonpayable",
      "type": "function"
    },
    {
      "inputs": [],
      "name": "marginEngine",
      "outputs": [
        {
          "internalType": "contract IMarginEngine",
          "name": "",
          "type": "address"
        }
      ],
      "stateMutability": "view",
      "type": "function"
    },
    {
      "inputs": [],
      "name": "owner",
      "outputs": [
        {
          "internalType": "address",
          "name": "",
          "type": "address"
        }
      ],
      "stateMutability": "view",
      "type": "function"
    },
    {
      "inputs": [],
      "name": "paused",
      "outputs": [
        {
          "internalType": "bool",
          "name": "",
          "type": "bool"
        }
      ],
      "stateMutability": "view",
      "type": "function"
    },
    {
      "inputs": [],
      "name": "rateOracle",
      "outputs": [
        {
          "internalType": "contract IRateOracle",
          "name": "",
          "type": "address"
        }
      ],
      "stateMutability": "view",
      "type": "function"
    },
    {
      "inputs": [],
      "name": "renounceOwnership",
      "outputs": [],
      "stateMutability": "nonpayable",
      "type": "function"
    },
    {
      "inputs": [],
      "name": "settleTrader",
      "outputs": [
        {
          "internalType": "int256",
          "name": "traderSettlementCashflow",
          "type": "int256"
        }
      ],
      "stateMutability": "nonpayable",
      "type": "function"
    },
    {
      "inputs": [
        {
          "internalType": "address",
          "name": "",
          "type": "address"
        }
      ],
      "name": "traders",
      "outputs": [
        {
          "internalType": "uint256",
          "name": "marginInScaledYieldBearingTokens",
          "type": "uint256"
        },
        {
          "internalType": "int256",
          "name": "fixedTokenBalance",
          "type": "int256"
        },
        {
          "internalType": "int256",
          "name": "variableTokenBalance",
          "type": "int256"
        },
        {
          "internalType": "bool",
          "name": "isSettled",
          "type": "bool"
        }
      ],
      "stateMutability": "view",
      "type": "function"
    },
    {
      "inputs": [
        {
          "internalType": "address",
          "name": "account",
          "type": "address"
        },
        {
          "internalType": "uint256",
          "name": "marginDeltaInUnderlyingTokens",
          "type": "uint256"
        }
      ],
      "name": "transferMarginToMarginEngineTrader",
      "outputs": [],
      "stateMutability": "nonpayable",
      "type": "function"
    },
    {
      "inputs": [
        {
          "internalType": "address",
          "name": "newOwner",
          "type": "address"
        }
      ],
      "name": "transferOwnership",
      "outputs": [],
      "stateMutability": "nonpayable",
      "type": "function"
    },
    {
      "inputs": [],
      "name": "underlyingToken",
      "outputs": [
        {
          "internalType": "contract IERC20Minimal",
          "name": "",
          "type": "address"
        }
      ],
      "stateMutability": "view",
      "type": "function"
    },
    {
      "inputs": [],
      "name": "underlyingYieldBearingToken",
      "outputs": [
        {
          "internalType": "contract IERC20Minimal",
          "name": "",
          "type": "address"
        }
      ],
      "stateMutability": "view",
      "type": "function"
    },
    {
      "inputs": [
        {
          "internalType": "uint256",
          "name": "notionalToUnwind",
          "type": "uint256"
        },
        {
          "internalType": "uint160",
          "name": "sqrtPriceLimitX96",
          "type": "uint160"
        }
      ],
      "name": "unwindFullyCollateralisedFixedTakerSwap",
      "outputs": [
        {
          "internalType": "int256",
          "name": "fixedTokenDelta",
          "type": "int256"
        },
        {
          "internalType": "int256",
          "name": "variableTokenDelta",
          "type": "int256"
        },
        {
          "internalType": "uint256",
          "name": "cumulativeFeeIncurred",
          "type": "uint256"
        },
        {
          "internalType": "int256",
          "name": "fixedTokenDeltaUnbalanced",
          "type": "int256"
        }
      ],
      "stateMutability": "nonpayable",
      "type": "function"
    },
    {
      "inputs": [
        {
          "internalType": "address",
          "name": "newImplementation",
          "type": "address"
        }
      ],
      "name": "upgradeTo",
      "outputs": [],
      "stateMutability": "nonpayable",
      "type": "function"
    },
    {
      "inputs": [
        {
          "internalType": "address",
          "name": "newImplementation",
          "type": "address"
        },
        {
          "internalType": "bytes",
          "name": "data",
          "type": "bytes"
        }
      ],
      "name": "upgradeToAndCall",
      "outputs": [],
      "stateMutability": "payable",
      "type": "function"
    },
    {
      "inputs": [],
      "name": "vamm",
      "outputs": [
        {
          "internalType": "contract IVAMM",
          "name": "",
          "type": "address"
        }
      ],
      "stateMutability": "view",
      "type": "function"
    }
  ],
  "transactionHash": "0x19b70b3ca9476c1e4de0fca56378f6f01200e1129851598e087fb784b688edd4",
  "args": [],
  "numDeployments": 1,
  "solcInputHash": "5758f2bc484cce506afaf5509146e92e",
  "bytecode": "0x60a0604052306080523480156200001557600080fd5b50606354610100900460ff16620000335760635460ff16156200003d565b6200003d620000e2565b620000a55760405162461bcd60e51b815260206004820152602e60248201527f496e697469616c697a61626c653a20636f6e747261637420697320616c72656160448201526d191e481a5b9a5d1a585b1a5e995960921b606482015260840160405180910390fd5b606354610100900460ff16158015620000c8576063805461ffff19166101011790555b8015620000db576063805461ff00191690555b5062000106565b6000620000fa306200010060201b620019451760201c565b15905090565b3b151590565b60805161322e62000137600039600081816107ad015281816107ed01528181610d1b0152610d5b015261322e6000f3fe6080604052600436106100ee5760003560e01c80624006e0146100f357806303742274146101235780632495a59914610163578063357d8b5e146101835780633659cfe6146101a15780634342891f146101c3578063485cc955146101f15780634f1ef2861461021157806355468a8b146102245780635c975abb14610244578063715018a6146102675780638da5cb5b1461027c57806392a88fa21461029157806398f4b1b2146102fa5780639a2f48f514610318578063c1ccfa681461036d578063e098372c1461038d578063e9d337b8146103ab578063ebc9b02e146103c9578063f2fde38b146103de575b600080fd5b3480156100ff57600080fd5b506001546001600160a01b03165b60405161011a9190612a19565b60405180910390f35b34801561012f57600080fd5b5061014361013e366004612a42565b6103fe565b60408051948552602085019390935291830152606082015260800161011a565b34801561016f57600080fd5b5060045461010d906001600160a01b031681565b34801561018f57600080fd5b506032546001600160a01b031661010d565b3480156101ad57600080fd5b506101c16101bc366004612a72565b6107a2565b005b3480156101cf57600080fd5b506101e36101de366004612a72565b61086b565b60405190815260200161011a565b3480156101fd57600080fd5b506101c161020c366004612a8f565b610895565b6101c161021f366004612b2c565b610d10565b34801561023057600080fd5b5061014361023f366004612a42565b610dca565b34801561025057600080fd5b5060c85460ff16604051901515815260200161011a565b34801561027357600080fd5b506101c16110e9565b34801561028857600080fd5b5061010d611124565b34801561029d57600080fd5b506102d86102ac366004612a72565b600360208190526000918252604090912080546001820154600283015492909301549092919060ff1684565b604080519485526020850193909352918301521515606082015260800161011a565b34801561030657600080fd5b506000546001600160a01b031661010d565b34801561032457600080fd5b50610338610333366004612a72565b611133565b60405161011a919081518152602080830151908201526040808301519082015260609182015115159181019190915260800190565b34801561037957600080fd5b506101c1610388366004612bd3565b6111b0565b34801561039957600080fd5b506002546001600160a01b031661010d565b3480156103b757600080fd5b506031546001600160a01b031661010d565b3480156103d557600080fd5b506101e3611356565b3480156103ea57600080fd5b506101c16103f9366004612a72565b6118a8565b33600090815260036020526040812060028101548291829182919082121561046a5760405162461bcd60e51b815260206004820152601a6024820152795472616465722056542062616c616e636520706f73697469766560301b60448201526064015b60405180910390fd5b86816002015461047990612c15565b10156104c75760405162461bcd60e51b815260206004820152601d60248201527f6e6f74696f6e616c20746f20756e77696e64203e206e6f74696f6e616c0000006044820152606401610461565b60006040518060a00160405280306001600160a01b031681526020016104ec8a61194b565b6104f590612c15565b81526001600160a01b038916602082015260015460409091019061052290600160a01b900460020b612c32565b600290810b8252600154600160a01b9004810b602090920191909152546040516333bac73760e11b81529192506001600160a01b0316906367758e6e9061056d908490600401612c55565b60a060405180830381600087803b15801561058757600080fd5b505af115801561059b573d6000803e3d6000fd5b505050506040513d601f19601f820116820180604052508101906105bf9190612ca1565b5092985090965094509250600085121561060f5760405162461bcd60e51b815260206004820152601160248201527056542064656c7461206e6567617469766560781b6044820152606401610461565b60008061061d8489896119b9565b6031546004805460405163d15e005360e01b81529496509294506000936001600160a01b039283169363d15e0053936106599391169101612a19565b60206040518083038186803b15801561067157600080fd5b505afa158015610685573d6000803e3d6000fd5b505050506040513d601f19601f820116820180604052508101906106a99190612ce1565b905060006106b789836119f4565b86546106c39190612cfa565b80875590506106d3848483611a73565b6001546004546106f2916001600160a01b03918216913391168b611aed565b603254610709906001600160a01b0316338b611b81565b336001600160a01b03167f6acfc9440f6cbb04b516cd21204df4411f56488a61afeb29b0f25531809ccdb28d8d8b8e8e8d60405161074c96959493929190612d11565b60405180910390a2336001600160a01b031660008051602061319283398151915287600001548860010154896002015460405161078b93929190612d42565b60405180910390a250505050505092959194509250565b306001600160a01b037f00000000000000000000000000000000000000000000000000000000000000001614156107eb5760405162461bcd60e51b815260040161046190612d58565b7f00000000000000000000000000000000000000000000000000000000000000006001600160a01b031661081d611c00565b6001600160a01b0316146108435760405162461bcd60e51b815260040161046190612d92565b61084c81611c1c565b6040805160008082526020820190925261086891839190611c4b565b50565b6001600160a01b0381166000908152600360205260408120805461088e90611d8b565b9392505050565b606354610100900460ff166108b05760635460ff16156108b4565b303b155b6109175760405162461bcd60e51b815260206004820152602e60248201527f496e697469616c697a61626c653a20636f6e747261637420697320616c72656160448201526d191e481a5b9a5d1a585b1a5e995960921b6064820152608401610461565b606354610100900460ff16158015610939576063805461ffff19166101011790555b6001600160a01b0383166109815760405162461bcd60e51b815260206004820152600f60248201526e1d985b5b481b5d5cdd08195e1a5cdd608a1b6044820152606401610461565b6001600160a01b0382166109d25760405162461bcd60e51b81526020600482015260186024820152771b585c99da5b88195b99da5b99481b5d5cdd08195e1a5cdd60421b6044820152606401610461565b600280546001600160a01b038086166001600160a01b03199283161790925560018054928516929091168217905560408051634c7a58d960e11b815290516398f4b1b291600480820192602092909190829003018186803b158015610a3657600080fd5b505afa158015610a4a573d6000803e3d6000fd5b505050506040513d601f19601f82011682018060405250810190610a6e9190612dcc565b600080546001600160a01b0319166001600160a01b0392909216918217905560408051631d3a66f760e31b8152905163e9d337b891600480820192602092909190829003018186803b158015610ac357600080fd5b505afa158015610ad7573d6000803e3d6000fd5b505050506040513d601f19601f82011682018060405250810190610afb9190612dcc565b603180546001600160a01b0319166001600160a01b0392831617905560015460408051632495a59960e01b815290519190921691632495a599916004808301926020929190829003018186803b158015610b5457600080fd5b505afa158015610b68573d6000803e3d6000fd5b505050506040513d601f19601f82011682018060405250810190610b8c9190612dcc565b600480546001600160a01b0319166001600160a01b0392831690811782556031546040516335ea6a7560e01b815260009491909116926335ea6a7592610bd492909101612a19565b6101806040518083038186803b158015610bed57600080fd5b505afa158015610c01573d6000803e3d6000fd5b505050506040513d601f19601f82011682018060405250810190610c259190612e77565b60e0810151603280546001600160a01b0319166001600160a01b03928316179055600254604080516334324e9f60e21b8152905193945091169163d0c93a7c91600480820192602092909190829003018186803b158015610c8557600080fd5b505afa158015610c99573d6000803e3d6000fd5b505050506040513d601f19601f82011682018060405250810190610cbd9190612f64565b6001805462ffffff92909216600160a01b0262ffffff60a01b19909216919091179055610ce8611e20565b610cf0611e57565b610cf8611e8e565b508015610d0b576063805461ff00191690555b505050565b306001600160a01b037f0000000000000000000000000000000000000000000000000000000000000000161415610d595760405162461bcd60e51b815260040161046190612d58565b7f00000000000000000000000000000000000000000000000000000000000000006001600160a01b0316610d8b611c00565b6001600160a01b031614610db15760405162461bcd60e51b815260040161046190612d92565b610dba82611c1c565b610dc682826001611c4b565b5050565b600080808085610e0b5760405162461bcd60e51b815260206004820152600c60248201526b06e6f74696f6e616c203d20360a41b6044820152606401610461565b60006040518060a00160405280306001600160a01b03168152602001610e308961194b565b81526001600160a01b0388166020820152600154604090910190610e5d90600160a01b900460020b612c32565b600290810b8252600154600160a01b9004810b602090920191909152546040516333bac73760e11b81529192506001600160a01b0316906367758e6e90610ea8908490600401612c55565b60a060405180830381600087803b158015610ec257600080fd5b505af1158015610ed6573d6000803e3d6000fd5b505050506040513d601f19601f82011682018060405250810190610efa9190612ca1565b50929750909550935091506000841315610f465760405162461bcd60e51b815260206004820152600d60248201526c2b2a103232b63a309039b4b3b760991b6044820152606401610461565b3360009081526003602052604080822060315460048054935163d15e005360e01b81529294936001600160a01b039283169363d15e005393610f8b9392169101612a19565b60206040518083038186803b158015610fa357600080fd5b505afa158015610fb7573d6000803e3d6000fd5b505050506040513d601f19601f82011682018060405250810190610fdb9190612ce1565b90506000610ff282610fec89612c15565b906119f4565b8354610ffe9190612f87565b808455905061100e8389896119b9565b505061103333308961101f90612c15565b6032546001600160a01b0316929190611aed565b600154600454611052916001600160a01b039182169133911689611aed565b336001600160a01b03167f3d4e16ab2c61731f475c393d983859da40555d340dbe3b2a164616aca9e75f988b8b898c8c8b60405161109596959493929190612d11565b60405180910390a2336001600160a01b03166000805160206131928339815191528460000154856001015486600201546040516110d493929190612d42565b60405180910390a25050505092959194509250565b336110f2611124565b6001600160a01b0316146111185760405162461bcd60e51b815260040161046190612f9f565b6111226000611ec5565b565b6096546001600160a01b031690565b61116060405180608001604052806000815260200160008152602001600081526020016000151581525090565b506001600160a01b031660009081526003602081815260409283902083516080810185528154815260018201549281019290925260028101549382019390935291015460ff161515606082015290565b6001546001600160a01b031633146111db57604051630a0d349f60e21b815260040160405180910390fd5b60c85460ff16156112215760405162461bcd60e51b815260206004820152601060248201526f14185d5cd8589b194e881c185d5cd95960821b6044820152606401610461565b600480546032546040516370a0823160e01b815284936001600160a01b03938416936370a08231936112569391169101612a19565b60206040518083038186803b15801561126e57600080fd5b505afa158015611282573d6000803e3d6000fd5b505050506040513d601f19601f820116820180604052508101906112a69190612ce1565b1061133f5760315460048054604051631a4ca37b60e21b81526001600160a01b0391821692810192909252602482018490528481166044830152909116906369328dec90606401602060405180830381600087803b15801561130757600080fd5b505af115801561131b573d6000803e3d6000fd5b505050506040513d601f19601f82011682018060405250810190610d0b9190612ce1565b603254610dc6906001600160a01b03168383611b81565b6000611360611f17565b600160009054906101000a90046001600160a01b03166001600160a01b03166393edb4546040518163ffffffff1660e01b815260040160206040518083038186803b1580156113ae57600080fd5b505afa1580156113c2573d6000803e3d6000fd5b505050506040513d601f19601f820116820180604052508101906113e69190612ce1565b1115611405576040516301730b8160e11b815260040160405180910390fd5b33600090815260036020908152604080832060018082015460028301549154845163652c30b760e01b815294519396956116ae9592946001600160a01b039092169263652c30b79260048083019392829003018186803b15801561146857600080fd5b505afa15801561147c573d6000803e3d6000fd5b505050506040513d601f19601f820116820180604052508101906114a09190612ce1565b600160009054906101000a90046001600160a01b03166001600160a01b03166393edb4546040518163ffffffff1660e01b815260040160206040518083038186803b1580156114ee57600080fd5b505afa158015611502573d6000803e3d6000fd5b505050506040513d601f19601f820116820180604052508101906115269190612ce1565b6000546001546040805163652c30b760e01b815290516001600160a01b03938416936325f258dd93169163652c30b7916004808301926020929190829003018186803b15801561157557600080fd5b505afa158015611589573d6000803e3d6000fd5b505050506040513d601f19601f820116820180604052508101906115ad9190612ce1565b600160009054906101000a90046001600160a01b03166001600160a01b03166393edb4546040518163ffffffff1660e01b815260040160206040518083038186803b1580156115fb57600080fd5b505afa15801561160f573d6000803e3d6000fd5b505050506040513d601f19601f820116820180604052508101906116339190612ce1565b6040516001600160e01b031960e085901b16815260048101929092526024820152604401602060405180830381600087803b15801561167157600080fd5b505af1158015611685573d6000803e3d6000fd5b505050506040513d601f19601f820116820180604052508101906116a99190612ce1565b611f27565b90506116d782600101546116c190612c15565b83600201546116cf90612c15565b8491906119b9565b5050600081121561178a576031546004805460405163d15e005360e01b81526000936001600160a01b039081169363d15e0053936117189392169101612a19565b60206040518083038186803b15801561173057600080fd5b505afa158015611744573d6000803e3d6000fd5b505050506040513d601f19601f820116820180604052508101906117689190612ce1565b9050600061177982610fec85612c15565b84546117859190612cfa565b845550505b60006117998360000154611d8b565b6000845590506117a883611f90565b6032546117bf906001600160a01b03163383611b81565b600082131561182d5760015460405163efcfc3f960e01b8152336004820152602481018490526001600160a01b039091169063efcfc3f990604401600060405180830381600087803b15801561181457600080fd5b505af1158015611828573d6000803e3d6000fd5b505050505b60405182815233907f2761931c2b8dc26fc26290447a831f72789013b635b9d8af518a0ff79bda796f9060200160405180910390a2336001600160a01b031660008051602061319283398151915284600001548560010154866002015460405161189993929190612d42565b60405180910390a25091505090565b336118b1611124565b6001600160a01b0316146118d75760405162461bcd60e51b815260040161046190612f9f565b6001600160a01b03811661193c5760405162461bcd60e51b815260206004820152602660248201527f4f776e61626c653a206e6577206f776e657220697320746865207a65726f206160448201526564647265737360d01b6064820152608401610461565b61086881611ec5565b3b151590565b60006001600160ff1b038211156119b55760405162461bcd60e51b815260206004820152602860248201527f53616665436173743a2076616c756520646f65736e27742066697420696e2061604482015267371034b73a191a9b60c11b6064820152608401610461565b5090565b6000808385600101546119cc9190612fd4565b91508285600201546119de9190612fd4565b6001860183905560029095018590555093915050565b604080518082019091526002815261035360f41b602082015260009082611a2e5760405162461bcd60e51b81526004016104619190613041565b506000611a3c60028461308a565b90508281611a55676765c793fa10079d601b1b876130ac565b611a5f9190612f87565b611a69919061308a565b9150505b92915050565b6000611a7e83612c15565b9050600081611a8c84611d8b565b611a9691906130cb565b90506000611aa48686611fe7565b90506000811215611ae55781611ab982612c15565b1315611ae557611ac98184612fd4565b6040516341d5a83b60e01b815260040161046191815260200190565b505050505050565b60006040516323b872dd60e01b81526001600160a01b03851660048201526001600160a01b038416602482015282604482015260008060648360008a5af1915050611b37816122e1565b611b7a5760405162461bcd60e51b81526020600482015260146024820152731514905394d1915497d19493d357d1905253115160621b6044820152606401610461565b5050505050565b600060405163a9059cbb60e01b81526001600160a01b03841660048201528260248201526000806044836000895af1915050611bbc816122e1565b611bfa5760405162461bcd60e51b815260206004820152600f60248201526e1514905394d1915497d19052531151608a1b6044820152606401610461565b50505050565b6000805160206131b2833981519152546001600160a01b031690565b33611c25611124565b6001600160a01b0316146108685760405162461bcd60e51b815260040161046190612f9f565b6000611c55611c00565b9050611c6084612328565b600083511180611c6d5750815b15611c7e57611c7c84846123bb565b505b7f4910fdfa16fed3260ed0e7147f7cc6da11a60208b5b9406d12a635614ffd9143805460ff16611b7a57805460ff19166001178155604051611cf9908690611cca908590602401612a19565b60408051601f198184030181529190526020810180516001600160e01b0316631b2ce7f360e11b1790526123bb565b50805460ff19168155611d0a611c00565b6001600160a01b0316826001600160a01b031614611d825760405162461bcd60e51b815260206004820152602f60248201527f45524331393637557067726164653a207570677261646520627265616b73206660448201526e75727468657220757067726164657360881b6064820152608401610461565b611b7a856124a6565b6031546004805460405163d15e005360e01b815260009384936001600160a01b039182169363d15e005393611dc4939091169101612a19565b60206040518083038186803b158015611ddc57600080fd5b505afa158015611df0573d6000803e3d6000fd5b505050506040513d601f19601f82011682018060405250810190611e149190612ce1565b905061088e83826124e6565b606354610100900460ff16611e475760405162461bcd60e51b81526004016104619061310a565b611e4f612535565b61112261255c565b606354610100900460ff16611e7e5760405162461bcd60e51b81526004016104619061310a565b611e86612535565b61112261258c565b606354610100900460ff16611eb55760405162461bcd60e51b81526004016104619061310a565b611ebd612535565b611122612535565b609680546001600160a01b038381166001600160a01b0319831681179093556040519116919082907f8be0079c531659141344cd1fd0a4f28419497f9722a3daafe3b4186f6b6457e090600090a35050565b6000611f22426125bf565b905090565b600080611f338761260c565b90506000611f408761260c565b90506000611f5a611f5360018989612689565b8490612763565b90506000611f688387612763565b90506000611f768284612fd4565b670de0b6b3a764000090059b9a5050505050505050505050565b600381015460ff1615611fd75760405162461bcd60e51b815260206004820152600f60248201526e185b1c9958591e481cd95d1d1b1959608a1b6044820152606401610461565b600301805460ff19166001179055565b600080611ff38461260c565b905060006120008461260c565b905060006121228361211d60018060009054906101000a90046001600160a01b03166001600160a01b031663652c30b76040518163ffffffff1660e01b815260040160206040518083038186803b15801561205a57600080fd5b505afa15801561206e573d6000803e3d6000fd5b505050506040513d601f19601f820116820180604052508101906120929190612ce1565b600160009054906101000a90046001600160a01b03166001600160a01b03166393edb4546040518163ffffffff1660e01b815260040160206040518083038186803b1580156120e057600080fd5b505afa1580156120f4573d6000803e3d6000fd5b505050506040513d601f19601f820116820180604052508101906121189190612ce1565b612689565b612763565b600080546001546040805163652c30b760e01b8152905194955092936001600160a01b03928316936325f258dd939092169163652c30b7916004808301926020929190829003018186803b15801561217957600080fd5b505afa15801561218d573d6000803e3d6000fd5b505050506040513d601f19601f820116820180604052508101906121b19190612ce1565b600160009054906101000a90046001600160a01b03166001600160a01b03166393edb4546040518163ffffffff1660e01b815260040160206040518083038186803b1580156121ff57600080fd5b505afa158015612213573d6000803e3d6000fd5b505050506040513d601f19601f820116820180604052508101906122379190612ce1565b6040516001600160e01b031960e085901b16815260048101929092526024820152604401602060405180830381600087803b15801561227557600080fd5b505af1158015612289573d6000803e3d6000fd5b505050506040513d601f19601f820116820180604052508101906122ad9190612ce1565b905060006122bb8483612763565b905060006122c98285612fd4565b670de0b6b3a764000090059998505050505050505050565b60003d826122f357806000803e806000fd5b806020811461230b57801561231c5760009250612321565b816000803e60005115159250612321565b600192505b5050919050565b803b61238c5760405162461bcd60e51b815260206004820152602d60248201527f455243313936373a206e657720696d706c656d656e746174696f6e206973206e60448201526c1bdd08184818dbdb9d1c9858dd609a1b6064820152608401610461565b6000805160206131b283398151915280546001600160a01b0319166001600160a01b0392909216919091179055565b6060823b61241a5760405162461bcd60e51b815260206004820152602660248201527f416464726573733a2064656c65676174652063616c6c20746f206e6f6e2d636f6044820152651b9d1c9858dd60d21b6064820152608401610461565b600080846001600160a01b0316846040516124359190613155565b600060405180830381855af49150503d8060008114612470576040519150601f19603f3d011682016040523d82523d6000602084013e612475565b606091505b509150915061249d82826040518060600160405280602781526020016131d260279139612828565b95945050505050565b6124af81612328565b6040516001600160a01b038216907fbc7cd75a20ee27fd9adebab32041f755214dbc6bffa90cc0225b39da2e5c2d3b90600090a250565b60008215806124f3575081155b1561250057506000611a6d565b676765c793fa10079d601b1b61251760028261308a565b61252184866130ac565b61252b9190612f87565b61088e919061308a565b606354610100900460ff166111225760405162461bcd60e51b81526004016104619061310a565b606354610100900460ff166125835760405162461bcd60e51b81526004016104619061310a565b61112233611ec5565b606354610100900460ff166125b35760405162461bcd60e51b81526004016104619061310a565b60c8805460ff19169055565b60007812725dd1d243aba0e75fe645cc4873f9e65afe688c928e1f218211156125fe57604051633492ffd960e01b815260048101839052602401610461565b50670de0b6b3a76400000290565b60007809392ee8e921d5d073aff322e62439fcf32d7f344649470f8f1982121561264c5760405163e608e18b60e01b815260048101839052602401610461565b7809392ee8e921d5d073aff322e62439fcf32d7f344649470f908213156125fe576040516371f72a3160e01b815260048101839052602401610461565b60008282116126c35760405162461bcd60e51b815260040161046190602080825260049082015263453c3d5360e01b604082015260600190565b60006126cd611f17565b9050838110156127075760405162461bcd60e51b8152602060048201526005602482015264422e543c5360d81b6044820152606401610461565b600085806127155750838210155b1561272b576127248585612cfa565b9050612738565b6127358583612cfa565b90505b600061274382612861565b90506127588168056bc75e2d63100000612874565b979650505050505050565b6000600160ff1b83148061277a5750600160ff1b82145b1561279857604051630d01a11b60e21b815260040160405180910390fd5b600080600085126127a957846127ae565b846000035b9150600084126127be57836127c3565b836000035b905060006127d18383612889565b90506001600160ff1b038111156127fe5760405163bf79e8d960e01b815260048101829052602401610461565b600019808713908613808218600114612817578261281c565b826000035b98975050505050505050565b6060831561283757508161088e565b8251156128475782518084602001fd5b8160405162461bcd60e51b81526004016104619190613041565b6000611a6d826a1a1601fc4ea7109e0000005b600061088e83670de0b6b3a76400008461294b565b60008080600019848609848602925082811083820303915050670de0b6b3a764000081106128cd5760405163698d9a0160e11b815260048101829052602401610461565b600080670de0b6b3a76400008688099150506706f05b59d3b1ffff8111826129075780670de0b6b3a7640000850401945050505050611a6d565b620400008285030493909111909103600160ee1b02919091177faccb18165bd6fe31ae1cf318dc5b51eee0e1ba569b88cd74c1773b91fac106690201905092915050565b6000808060001985870985870292508281108382030391505080600014156129865783828161297c5761297c613074565b049250505061088e565b8381106129b057604051631dcf306360e21b81526004810182905260248101859052604401610461565b60008486880960026001871981018816978890046003810283188082028403028082028403028082028403028082028403028082028403029081029092039091026000889003889004909101858311909403939093029303949094049190911702949350505050565b6001600160a01b0391909116815260200190565b6001600160a01b038116811461086857600080fd5b60008060408385031215612a5557600080fd5b823591506020830135612a6781612a2d565b809150509250929050565b600060208284031215612a8457600080fd5b813561088e81612a2d565b60008060408385031215612aa257600080fd5b8235612aad81612a2d565b91506020830135612a6781612a2d565b634e487b7160e01b600052604160045260246000fd5b60405161018081016001600160401b0381118282101715612af657612af6612abd565b60405290565b604051601f8201601f191681016001600160401b0381118282101715612b2457612b24612abd565b604052919050565b60008060408385031215612b3f57600080fd5b8235612b4a81612a2d565b91506020838101356001600160401b0380821115612b6757600080fd5b818601915086601f830112612b7b57600080fd5b813581811115612b8d57612b8d612abd565b612b9f601f8201601f19168501612afc565b91508082528784828501011115612bb557600080fd5b80848401858401376000848284010152508093505050509250929050565b60008060408385031215612be657600080fd5b8235612bf181612a2d565b946020939093013593505050565b634e487b7160e01b600052601160045260246000fd5b6000600160ff1b821415612c2b57612c2b612bff565b5060000390565b60008160020b627fffff19811415612c4c57612c4c612bff565b60000392915050565b600060a08201905060018060a01b038084511683526020840151602084015280604085015116604084015250606083015160020b6060830152608083015160020b608083015292915050565b600080600080600060a08688031215612cb957600080fd5b5050835160208501516040860151606087015160809097015192989197509594509092509050565b600060208284031215612cf357600080fd5b5051919050565b600082821015612d0c57612d0c612bff565b500390565b9586526001600160a01b0394909416602086015260408501929092526060840152608083015260a082015260c00190565b9283526020830191909152604082015260600190565b6020808252602c9082015260008051602061317283398151915260408201526b19195b1959d85d1958d85b1b60a21b606082015260800190565b6020808252602c9082015260008051602061317283398151915260408201526b6163746976652070726f787960a01b606082015260800190565b600060208284031215612dde57600080fd5b815161088e81612a2d565b600060208284031215612dfb57600080fd5b604051602081016001600160401b0381118282101715612e1d57612e1d612abd565b6040529151825250919050565b80516001600160801b0381168114612e4157600080fd5b919050565b805164ffffffffff81168114612e4157600080fd5b8051612e4181612a2d565b805160ff81168114612e4157600080fd5b60006101808284031215612e8a57600080fd5b612e92612ad3565b612e9c8484612de9565b8152612eaa60208401612e2a565b6020820152612ebb60408401612e2a565b6040820152612ecc60608401612e2a565b6060820152612edd60808401612e2a565b6080820152612eee60a08401612e2a565b60a0820152612eff60c08401612e46565b60c0820152612f1060e08401612e5b565b60e0820152610100612f23818501612e5b565b90820152610120612f35848201612e5b565b90820152610140612f47848201612e5b565b90820152610160612f59848201612e66565b908201529392505050565b600060208284031215612f7657600080fd5b81518060020b811461088e57600080fd5b60008219821115612f9a57612f9a612bff565b500190565b6020808252818101527f4f776e61626c653a2063616c6c6572206973206e6f7420746865206f776e6572604082015260600190565b600080821280156001600160ff1b0384900385131615612ff657612ff6612bff565b600160ff1b839003841281161561300f5761300f612bff565b50500190565b60005b83811015613030578181015183820152602001613018565b83811115611bfa5750506000910152565b6020815260008251806020840152613060816040850160208701613015565b601f01601f19169190910160400192915050565b634e487b7160e01b600052601260045260246000fd5b6000826130a757634e487b7160e01b600052601260045260246000fd5b500490565b60008160001904831182151516156130c6576130c6612bff565b500290565b60008083128015600160ff1b8501841216156130e9576130e9612bff565b6001600160ff1b038401831381161561310457613104612bff565b50500390565b6020808252602b908201527f496e697469616c697a61626c653a20636f6e7472616374206973206e6f74206960408201526a6e697469616c697a696e6760a81b606082015260800190565b60008251613167818460208701613015565b919091019291505056fe46756e6374696f6e206d7573742062652063616c6c6564207468726f7567682085f7a754cbb9fd93ae8f2b8606ccb555835a917e569742c9d2e818e3073c8c9d360894a13ba1a3210667c828492db98dca3e2076cc3735a920a3ca505d382bbc416464726573733a206c6f772d6c6576656c2064656c65676174652063616c6c206661696c6564a2646970667358221220d145b26d22365be7477575d62344c969779c50ff7b8ae472e662743bdf0e311464736f6c63430008090033",
  "devdoc": {
    "errors": {
      "AavePoolGetReserveNormalizedIncomeReturnedZero()": [
        {
          "details": "getReserveNormalizedIncome() returned zero for underlying asset. Oracle only supports active Aave-V2 assets."
        }
      ],
      "CanOnlyTradeIfUnlocked(bool)": [
        {
          "details": "Error which ensures the VAMM is unlocked"
        }
      ],
      "ExpectedOppositeSigns(int256,int256)": [
        {
          "details": "The two values were expected to have oppostite sigs, but do not"
        }
      ],
      "ExpectedSqrtPriceZeroBeforeInit(uint160)": [
        {
          "details": "Error which is reverted if the sqrt price of the vamm is non-zero before a vamm is initialized"
        }
      ],
      "IRSNotionalAmountSpecifiedMustBeNonZero()": [
        {
          "details": "Error which ensures the amount of notional specified when initiating an IRS contract (via the swap function in the vamm) is non-zero"
        }
      ],
      "LiquidityDeltaMustBePositiveInBurn(uint128)": [
        {
          "details": "Error which ensures the liquidity delta is positive if a given LP wishes to burn liquidity in the vamm"
        }
      ],
      "LiquidityDeltaMustBePositiveInMint(uint128)": [
        {
          "details": "Error which ensures the liquidity delta is positive if a given LP wishes to mint further liquidity in the vamm"
        }
      ],
      "MarginLessThanMinimum(int256)": [
        {
          "details": "Cannot have less margin than the minimum requirement"
        }
      ],
      "NotEnoughFunds(uint256,uint256)": [
        {
          "details": "There are not enough funds available for the requested operation"
        }
      ],
      "OOO()": [
        {
          "details": "currentTime < queriedTime"
        }
      ],
      "OnlyMarginEngine()": [
        {
          "details": "only the margin engine can run a certain function"
        }
      ],
      "PositionNetZero()": [
        {
          "details": "No need to unwind a net zero position"
        }
      ],
      "PositionNotSettled()": [
        {
          "details": "Position must be settled after AMM has reached maturity"
        }
      ],
      "WithdrawalExceedsCurrentMargin()": [
        {
          "details": "We can't withdraw more margin than we have"
        }
      ]
    },
    "kind": "dev",
    "methods": {
      "constructor": {
        "custom:oz-upgrades-unsafe-allow": "constructor"
      },
      "initialize(address,address)": {
        "details": "in the initialize function we set the vamm and the margiEngine associated with the fcm"
      },
      "initiateFullyCollateralisedFixedTakerSwap(uint256,uint160)": {
        "params": {
          "notional": "Notional that cover by a fully collateralised fixed taker interest rate swap",
          "sqrtPriceLimitX96": "The binary fixed point math representation of the sqrtPriceLimit beyond which the fixed taker swap will not be executed with the VAMM"
        }
      },
      "marginEngine()": {
        "returns": {
          "_0": "marginEngine Margine Engine linked to the Full Collateralisation Module"
        }
      },
      "owner()": {
        "details": "Returns the address of the current owner."
      },
      "paused()": {
        "details": "Returns true if the contract is paused, and false otherwise."
      },
      "rateOracle()": {
        "returns": {
          "_0": "Rate Oracle linked to the Full Collateralisation Module"
        }
      },
      "renounceOwnership()": {
        "details": "Leaves the contract without owner. It will not be possible to call `onlyOwner` functions anymore. Can only be called by the current owner. NOTE: Renouncing ownership will leave the contract without an owner, thereby removing any functionality that is only available to the owner."
      },
      "settleTrader()": {
        "details": "This function lets us settle a fully collateralised fixed taker position post term end timestamp of the MarginEnginethe settlement cashflow is calculated by invoking the calculateSettlementCashflow function of FixedAndVariableMath.sol (based on the fixed and variable token balance)if the settlement cashflow of the trader is positive, then the settleTrader() function invokes the transferMarginToFCMTrader function of the MarginEngine which transfers the settlement cashflow the trader in terms of the underlying tokensif settlement cashflow of the trader is negative, we need to update trader's margin in terms of scaled yield bearing tokens to account the settlement casflowonce settlement cashflows are accounted for, we safeTransfer the scaled yield bearing tokens in the margin account of the trader back to their wallet address"
      },
      "transferMarginToMarginEngineTrader(address,uint256)": {
        "details": "in case of aave this is done by withdrawing aTokens from the aaveLendingPools resulting in burning of the aTokens in exchange for the ability to transfer underlying tokens to the margin engine trader"
      },
      "transferOwnership(address)": {
        "details": "Transfers ownership of the contract to a new account (`newOwner`). Can only be called by the current owner."
      },
      "unwindFullyCollateralisedFixedTakerSwap(uint256,uint160)": {
        "params": {
          "notionalToUnwind": "The amount of notional to unwind (stop securing with a fixed rate)",
          "sqrtPriceLimitX96": "The sqrt price limit (binary fixed point notation) beyond which the unwind cannot progress"
        }
      },
      "upgradeTo(address)": {
        "details": "Upgrade the implementation of the proxy to `newImplementation`. Calls {_authorizeUpgrade}. Emits an {Upgraded} event."
      },
      "upgradeToAndCall(address,bytes)": {
        "details": "Upgrade the implementation of the proxy to `newImplementation`, and subsequently execute the function call encoded in `data`. Calls {_authorizeUpgrade}. Emits an {Upgraded} event."
      },
      "vamm()": {
        "returns": {
          "_0": "VAMM linked to the Full Collateralisation Module"
        }
      }
    },
    "version": 1
  },
  "userdoc": {
    "errors": {
      "CannotLiquidate()": [
        {
          "notice": "The position/trader needs to be below the liquidation threshold to be liquidated"
        }
      ],
      "CannotSettleBeforeMaturity()": [
        {
          "notice": "Positions and Traders cannot be settled before the applicable interest rate swap has matured"
        }
      ],
      "InvalidMarginDelta()": [
        {
          "notice": "Margin delta must not equal zero"
        }
      ],
      "MarginRequirementNotMet(int256,int24,int256,int256,uint256,int256)": [
        {
          "notice": "The resulting margin does not meet minimum requirements"
        }
      ],
      "MarginRequirementNotMetFCM(int256)": [
        {
          "notice": "The resulting margin does not meet minimum requirements"
        }
      ],
      "OnlyOwnerCanUpdatePosition()": [
        {
          "notice": "Only the position/trade owner can update the LP/Trader margin"
        }
      ],
      "PRBMathSD59x18__FromIntOverflow(int256)": [
        {
          "notice": "Emitted when converting a basic integer to the fixed-point format overflows SD59x18."
        }
      ],
      "PRBMathSD59x18__FromIntUnderflow(int256)": [
        {
          "notice": "Emitted when converting a basic integer to the fixed-point format underflows SD59x18."
        }
      ],
      "PRBMathSD59x18__MulInputTooSmall()": [
        {
          "notice": "Emitted when one of the inputs is MIN_SD59x18."
        }
      ],
      "PRBMathSD59x18__MulOverflow(uint256)": [
        {
          "notice": "Emitted when the intermediary absolute result overflows SD59x18."
        }
      ],
      "PRBMathUD60x18__FromUintOverflow(uint256)": [
        {
          "notice": "Emitted when converting a basic integer to the fixed-point format format overflows UD60x18."
        }
      ],
      "PRBMath__MulDivFixedPointOverflow(uint256)": [
        {
          "notice": "Emitted when the result overflows uint256."
        }
      ],
      "PRBMath__MulDivOverflow(uint256,uint256)": [
        {
          "notice": "Emitted when the result overflows uint256."
        }
      ]
    },
    "kind": "user",
    "methods": {
      "initiateFullyCollateralisedFixedTakerSwap(uint256,uint160)": {
        "notice": "Initiate a Fully Collateralised Fixed Taker Swap"
      },
      "marginEngine()": {
        "notice": "Margine Engine linked to the Full Collateralisation Module"
      },
      "rateOracle()": {
        "notice": "Rate Oracle linked to the Full Collateralisation Module"
      },
      "settleTrader()": {
        "notice": "Settle Trader"
      },
      "transferMarginToMarginEngineTrader(address,uint256)": {
        "notice": "Transfer Margin (in underlying tokens) from the FCM to a MarginEngine trader"
      },
      "unwindFullyCollateralisedFixedTakerSwap(uint256,uint160)": {
        "notice": "Unwind Fully Collateralised Fixed Taker Swap"
      },
      "vamm()": {
        "notice": "VAMM linked to the Full Collateralisation Module"
      }
    },
    "version": 1
  },
  "storageLayout": {
    "storage": [
      {
        "astId": 16030,
        "contract": "contracts/AaveFCM.sol:AaveFCM",
        "label": "_rateOracle",
        "offset": 0,
        "slot": "0",
        "type": "t_contract(IRateOracle)13885"
      },
      {
        "astId": 16033,
        "contract": "contracts/AaveFCM.sol:AaveFCM",
        "label": "_marginEngine",
        "offset": 0,
        "slot": "1",
        "type": "t_contract(IMarginEngine)13002"
      },
      {
        "astId": 16035,
        "contract": "contracts/AaveFCM.sol:AaveFCM",
        "label": "tickSpacing",
        "offset": 20,
        "slot": "1",
        "type": "t_int24"
      },
      {
        "astId": 16038,
        "contract": "contracts/AaveFCM.sol:AaveFCM",
        "label": "_vamm",
        "offset": 0,
        "slot": "2",
        "type": "t_contract(IVAMM)13505"
      },
      {
        "astId": 16043,
        "contract": "contracts/AaveFCM.sol:AaveFCM",
        "label": "traders",
        "offset": 0,
        "slot": "3",
        "type": "t_mapping(t_address,t_struct(Info)12302_storage)"
      },
      {
        "astId": 16046,
        "contract": "contracts/AaveFCM.sol:AaveFCM",
        "label": "underlyingToken",
        "offset": 0,
        "slot": "4",
        "type": "t_contract(IERC20Minimal)12457"
      },
      {
        "astId": 16060,
        "contract": "contracts/AaveFCM.sol:AaveFCM",
        "label": "__gap",
        "offset": 0,
        "slot": "5",
        "type": "t_array(t_uint256)44_storage"
      },
      {
        "astId": 16050,
        "contract": "contracts/AaveFCM.sol:AaveFCM",
        "label": "_aaveLendingPool",
        "offset": 0,
        "slot": "49",
        "type": "t_contract(IAaveV2LendingPool)13602"
      },
      {
        "astId": 16053,
        "contract": "contracts/AaveFCM.sol:AaveFCM",
        "label": "_underlyingYieldBearingToken",
        "offset": 0,
        "slot": "50",
        "type": "t_contract(IERC20Minimal)12457"
      },
      {
        "astId": 16069,
        "contract": "contracts/AaveFCM.sol:AaveFCM",
        "label": "__gap",
        "offset": 0,
        "slot": "51",
        "type": "t_array(t_uint256)48_storage"
      },
      {
        "astId": 540,
        "contract": "contracts/AaveFCM.sol:AaveFCM",
        "label": "_initialized",
        "offset": 0,
        "slot": "99",
        "type": "t_bool"
      },
      {
        "astId": 543,
        "contract": "contracts/AaveFCM.sol:AaveFCM",
        "label": "_initializing",
        "offset": 1,
        "slot": "99",
        "type": "t_bool"
      },
      {
        "astId": 1119,
        "contract": "contracts/AaveFCM.sol:AaveFCM",
        "label": "__gap",
        "offset": 0,
        "slot": "100",
        "type": "t_array(t_uint256)50_storage"
      },
      {
        "astId": 10,
        "contract": "contracts/AaveFCM.sol:AaveFCM",
        "label": "_owner",
        "offset": 0,
        "slot": "150",
        "type": "t_address"
      },
      {
        "astId": 124,
        "contract": "contracts/AaveFCM.sol:AaveFCM",
        "label": "__gap",
        "offset": 0,
        "slot": "151",
        "type": "t_array(t_uint256)49_storage"
      },
      {
        "astId": 739,
        "contract": "contracts/AaveFCM.sol:AaveFCM",
        "label": "_paused",
        "offset": 0,
        "slot": "200",
        "type": "t_bool"
      },
      {
        "astId": 830,
        "contract": "contracts/AaveFCM.sol:AaveFCM",
        "label": "__gap",
        "offset": 0,
        "slot": "201",
        "type": "t_array(t_uint256)49_storage"
      },
      {
        "astId": 522,
        "contract": "contracts/AaveFCM.sol:AaveFCM",
        "label": "__gap",
        "offset": 0,
        "slot": "250",
        "type": "t_array(t_uint256)50_storage"
      },
      {
        "astId": 717,
        "contract": "contracts/AaveFCM.sol:AaveFCM",
        "label": "__gap",
        "offset": 0,
        "slot": "300",
        "type": "t_array(t_uint256)50_storage"
      }
    ],
    "types": {
      "t_address": {
        "encoding": "inplace",
        "label": "address",
        "numberOfBytes": "20"
      },
      "t_array(t_uint256)44_storage": {
        "base": "t_uint256",
        "encoding": "inplace",
        "label": "uint256[44]",
        "numberOfBytes": "1408"
      },
      "t_array(t_uint256)48_storage": {
        "base": "t_uint256",
        "encoding": "inplace",
        "label": "uint256[48]",
        "numberOfBytes": "1536"
      },
      "t_array(t_uint256)49_storage": {
        "base": "t_uint256",
        "encoding": "inplace",
        "label": "uint256[49]",
        "numberOfBytes": "1568"
      },
      "t_array(t_uint256)50_storage": {
        "base": "t_uint256",
        "encoding": "inplace",
        "label": "uint256[50]",
        "numberOfBytes": "1600"
      },
      "t_bool": {
        "encoding": "inplace",
        "label": "bool",
        "numberOfBytes": "1"
      },
      "t_contract(IAaveV2LendingPool)13602": {
        "encoding": "inplace",
        "label": "contract IAaveV2LendingPool",
        "numberOfBytes": "20"
      },
      "t_contract(IERC20Minimal)12457": {
        "encoding": "inplace",
        "label": "contract IERC20Minimal",
        "numberOfBytes": "20"
      },
      "t_contract(IMarginEngine)13002": {
        "encoding": "inplace",
        "label": "contract IMarginEngine",
        "numberOfBytes": "20"
      },
      "t_contract(IRateOracle)13885": {
        "encoding": "inplace",
        "label": "contract IRateOracle",
        "numberOfBytes": "20"
      },
      "t_contract(IVAMM)13505": {
        "encoding": "inplace",
        "label": "contract IVAMM",
        "numberOfBytes": "20"
      },
      "t_int24": {
        "encoding": "inplace",
        "label": "int24",
        "numberOfBytes": "3"
      },
      "t_int256": {
        "encoding": "inplace",
        "label": "int256",
        "numberOfBytes": "32"
      },
      "t_mapping(t_address,t_struct(Info)12302_storage)": {
        "encoding": "mapping",
        "key": "t_address",
        "label": "mapping(address => struct TraderWithYieldBearingAssets.Info)",
        "numberOfBytes": "32",
        "value": "t_struct(Info)12302_storage"
      },
      "t_struct(Info)12302_storage": {
        "encoding": "inplace",
        "label": "struct TraderWithYieldBearingAssets.Info",
        "members": [
          {
            "astId": 12295,
            "contract": "contracts/AaveFCM.sol:AaveFCM",
            "label": "marginInScaledYieldBearingTokens",
            "offset": 0,
            "slot": "0",
            "type": "t_uint256"
          },
          {
            "astId": 12297,
            "contract": "contracts/AaveFCM.sol:AaveFCM",
            "label": "fixedTokenBalance",
            "offset": 0,
            "slot": "1",
            "type": "t_int256"
          },
          {
            "astId": 12299,
            "contract": "contracts/AaveFCM.sol:AaveFCM",
            "label": "variableTokenBalance",
            "offset": 0,
            "slot": "2",
            "type": "t_int256"
          },
          {
            "astId": 12301,
            "contract": "contracts/AaveFCM.sol:AaveFCM",
            "label": "isSettled",
            "offset": 0,
            "slot": "3",
            "type": "t_bool"
          }
        ],
        "numberOfBytes": "128"
      },
      "t_uint256": {
        "encoding": "inplace",
        "label": "uint256",
        "numberOfBytes": "32"
      }
    }
  }
}