{
  "address": "0x54B868B03c68A1307B24fB0A4b60b18A0714a94C",
  "abi": [
    {
      "inputs": [
        {
          "internalType": "address",
          "name": "_aaveLendingPool",
          "type": "address"
        },
        {
          "internalType": "address",
          "name": "underlying",
          "type": "address"
        }
      ],
      "stateMutability": "nonpayable",
      "type": "constructor"
    },
    {
      "inputs": [],
      "name": "AavePoolGetReserveNormalizedIncomeReturnedZero",
      "type": "error"
    },
    {
      "inputs": [
        {
          "internalType": "uint256",
          "name": "x",
          "type": "uint256"
        }
      ],
      "name": "PRBMathUD60x18__Exp2InputTooBig",
      "type": "error"
    },
    {
      "inputs": [
        {
          "internalType": "uint256",
          "name": "x",
          "type": "uint256"
        }
      ],
      "name": "PRBMathUD60x18__FromUintOverflow",
      "type": "error"
    },
    {
      "inputs": [
        {
          "internalType": "uint256",
          "name": "x",
          "type": "uint256"
        }
      ],
      "name": "PRBMathUD60x18__LogInputTooSmall",
      "type": "error"
    },
    {
      "inputs": [
        {
          "internalType": "uint256",
          "name": "prod1",
          "type": "uint256"
        }
      ],
      "name": "PRBMath__MulDivFixedPointOverflow",
      "type": "error"
    },
    {
      "inputs": [
        {
          "internalType": "uint256",
          "name": "prod1",
          "type": "uint256"
        },
        {
          "internalType": "uint256",
          "name": "denominator",
          "type": "uint256"
        }
      ],
      "name": "PRBMath__MulDivOverflow",
      "type": "error"
    },
    {
      "anonymous": false,
      "inputs": [
        {
          "indexed": false,
          "internalType": "uint16",
          "name": "observationCardinalityNextOld",
          "type": "uint16"
        },
        {
          "indexed": false,
          "internalType": "uint16",
          "name": "observationCardinalityNextNew",
          "type": "uint16"
        }
      ],
      "name": "IncreaserateCardinalityNext",
      "type": "event"
    },
    {
      "anonymous": false,
      "inputs": [
        {
          "indexed": false,
          "internalType": "uint256",
          "name": "_minSecondsSinceLastUpdate",
          "type": "uint256"
        }
      ],
      "name": "MinSecondsSinceLastUpdateSet",
      "type": "event"
    },
    {
      "anonymous": false,
      "inputs": [
        {
          "indexed": false,
          "internalType": "uint256",
          "name": "blockTimestampScaled",
          "type": "uint256"
        },
        {
          "indexed": false,
          "internalType": "address",
          "name": "source",
          "type": "address"
        },
        {
          "indexed": false,
          "internalType": "uint16",
          "name": "index",
          "type": "uint16"
        },
        {
          "indexed": false,
          "internalType": "uint32",
          "name": "blockTimestamp",
          "type": "uint32"
        },
        {
          "indexed": false,
          "internalType": "uint256",
          "name": "observedValue",
          "type": "uint256"
        },
        {
          "indexed": false,
          "internalType": "uint16",
          "name": "cardinality",
          "type": "uint16"
        },
        {
          "indexed": false,
          "internalType": "uint16",
          "name": "cardinalityNext",
          "type": "uint16"
        }
      ],
      "name": "OracleBufferWrite",
      "type": "event"
    },
    {
      "anonymous": false,
      "inputs": [
        {
          "indexed": true,
          "internalType": "address",
          "name": "previousOwner",
          "type": "address"
        },
        {
          "indexed": true,
          "internalType": "address",
          "name": "newOwner",
          "type": "address"
        }
      ],
      "name": "OwnershipTransferred",
      "type": "event"
    },
    {
      "inputs": [],
      "name": "ONE_WEI",
      "outputs": [
        {
          "internalType": "uint256",
          "name": "",
          "type": "uint256"
        }
      ],
      "stateMutability": "view",
      "type": "function"
    },
    {
      "inputs": [],
      "name": "aaveLendingPool",
      "outputs": [
        {
          "internalType": "address",
          "name": "",
          "type": "address"
        }
      ],
      "stateMutability": "view",
      "type": "function"
    },
    {
      "inputs": [
        {
          "internalType": "uint256",
          "name": "from",
          "type": "uint256"
        },
        {
          "internalType": "uint256",
          "name": "to",
          "type": "uint256"
        }
      ],
      "name": "getApyFromTo",
      "outputs": [
        {
          "internalType": "uint256",
          "name": "apyFromToWad",
          "type": "uint256"
        }
      ],
      "stateMutability": "view",
      "type": "function"
    },
    {
      "inputs": [
        {
          "internalType": "uint256",
          "name": "_from",
          "type": "uint256"
        },
        {
          "internalType": "uint256",
          "name": "_to",
          "type": "uint256"
        }
      ],
      "name": "getRateFromTo",
      "outputs": [
        {
          "internalType": "uint256",
          "name": "",
          "type": "uint256"
        }
      ],
      "stateMutability": "view",
      "type": "function"
    },
    {
      "inputs": [
        {
          "internalType": "uint16",
          "name": "rateCardinalityNext",
          "type": "uint16"
        }
      ],
      "name": "increaseObservationCardinalityNext",
      "outputs": [],
      "stateMutability": "nonpayable",
      "type": "function"
    },
    {
      "inputs": [
        {
          "internalType": "uint256",
          "name": "beforeOrAtRateValueRay",
          "type": "uint256"
        },
        {
          "internalType": "uint256",
          "name": "apyFromBeforeOrAtToAtOrAfterWad",
          "type": "uint256"
        },
        {
          "internalType": "uint256",
          "name": "timeDeltaBeforeOrAtToQueriedTimeWad",
          "type": "uint256"
        }
      ],
      "name": "interpolateRateValue",
      "outputs": [
        {
          "internalType": "uint256",
          "name": "rateValueRay",
          "type": "uint256"
        }
      ],
      "stateMutability": "pure",
      "type": "function"
    },
    {
      "inputs": [],
      "name": "minSecondsSinceLastUpdate",
      "outputs": [
        {
          "internalType": "uint256",
          "name": "",
          "type": "uint256"
        }
      ],
      "stateMutability": "view",
      "type": "function"
    },
    {
      "inputs": [
        {
          "internalType": "uint256",
          "name": "",
          "type": "uint256"
        }
      ],
      "name": "observations",
      "outputs": [
        {
          "internalType": "uint32",
          "name": "blockTimestamp",
          "type": "uint32"
        },
        {
          "internalType": "uint216",
          "name": "observedValue",
          "type": "uint216"
        },
        {
          "internalType": "bool",
          "name": "initialized",
          "type": "bool"
        }
      ],
      "stateMutability": "view",
      "type": "function"
    },
    {
      "inputs": [],
      "name": "oracleVars",
      "outputs": [
        {
          "internalType": "uint16",
          "name": "rateIndex",
          "type": "uint16"
        },
        {
          "internalType": "uint16",
          "name": "rateCardinality",
          "type": "uint16"
        },
        {
          "internalType": "uint16",
          "name": "rateCardinalityNext",
          "type": "uint16"
        }
      ],
      "stateMutability": "view",
      "type": "function"
    },
    {
      "inputs": [],
      "name": "owner",
      "outputs": [
        {
          "internalType": "address",
          "name": "",
          "type": "address"
        }
      ],
      "stateMutability": "view",
      "type": "function"
    },
    {
      "inputs": [],
      "name": "renounceOwnership",
      "outputs": [],
      "stateMutability": "nonpayable",
      "type": "function"
    },
    {
      "inputs": [
        {
          "internalType": "uint256",
          "name": "_minSecondsSinceLastUpdate",
          "type": "uint256"
        }
      ],
      "name": "setMinSecondsSinceLastUpdate",
      "outputs": [],
      "stateMutability": "nonpayable",
      "type": "function"
    },
    {
      "inputs": [
        {
          "internalType": "uint32",
          "name": "",
          "type": "uint32"
        },
        {
          "internalType": "uint32",
          "name": "",
          "type": "uint32"
        }
      ],
      "name": "settlementRateCache",
      "outputs": [
        {
          "internalType": "uint256",
          "name": "",
          "type": "uint256"
        }
      ],
      "stateMutability": "view",
      "type": "function"
    },
    {
      "inputs": [
        {
          "internalType": "address",
          "name": "newOwner",
          "type": "address"
        }
      ],
      "name": "transferOwnership",
      "outputs": [],
      "stateMutability": "nonpayable",
      "type": "function"
    },
    {
      "inputs": [],
      "name": "underlying",
      "outputs": [
        {
          "internalType": "address",
          "name": "",
          "type": "address"
        }
      ],
      "stateMutability": "view",
      "type": "function"
    },
    {
      "inputs": [],
      "name": "underlyingYieldBearingProtocolID",
      "outputs": [
        {
          "internalType": "uint8",
          "name": "",
          "type": "uint8"
        }
      ],
      "stateMutability": "view",
      "type": "function"
    },
    {
      "inputs": [
        {
          "internalType": "uint256",
          "name": "termStartTimestampInWeiSeconds",
          "type": "uint256"
        },
        {
          "internalType": "uint256",
          "name": "termEndTimestampInWeiSeconds",
          "type": "uint256"
        }
      ],
      "name": "variableFactor",
      "outputs": [
        {
          "internalType": "uint256",
          "name": "resultWad",
          "type": "uint256"
        }
      ],
      "stateMutability": "nonpayable",
      "type": "function"
    },
    {
      "inputs": [
        {
          "internalType": "uint256",
          "name": "termStartTimestampInWeiSeconds",
          "type": "uint256"
        },
        {
          "internalType": "uint256",
          "name": "termEndTimestampInWeiSeconds",
          "type": "uint256"
        }
      ],
      "name": "variableFactorNoCache",
      "outputs": [
        {
          "internalType": "uint256",
          "name": "resultWad",
          "type": "uint256"
        }
      ],
      "stateMutability": "view",
      "type": "function"
    },
    {
      "inputs": [],
      "name": "writeOracleEntry",
      "outputs": [],
      "stateMutability": "nonpayable",
      "type": "function"
    }
  ],
  "transactionHash": "0x1d1c5e134283f6e30a1e9c418f918d05a57663a6cc504aac6e79dac834c21acb",
  "args": [
    "0xE0fBa4Fc209b4948668006B2bE61711b7f465bAe",
    "0x13512979ADE267AB5100878E2e0f485B568328a4"
  ],
  "numDeployments": 1,
  "solcInputHash": "9f9566c0cdca10f3ecaa77aa61f80c3b",
  "bytecode": "0x60a06040523480156200001157600080fd5b5060405162002a5138038062002a51833981016040819052620000349162000346565b80620000403362000169565b60601b6001600160601b0319166080526201000380546001600160a01b0319166001600160a01b038416179055600062000085620001b9602090811b6200078a17901c565b620100035460405163d15e005360e01b81526001600160a01b0385811660048301529293506000929091169063d15e00539060240160206040518083038186803b158015620000d357600080fd5b505afa158015620000e8573d6000803e3d6000fd5b505050506040513d601f19601f820116820180604052508101906200010e91906200037d565b90506200012d82826004620001cb60201b6200079a179092919060201c565b6003805465ffffffff0000191664010000000061ffff9384160263ffff0000191617620100009390921692909202179055506200039692505050565b600080546001600160a01b038381166001600160a01b0319831681178455604051919092169283917f8be0079c531659141344cd1fd0a4f28419497f9722a3daafe3b4186f6b6457e09190a35050565b6000620001c64262000250565b905090565b600080620001da84846200029a565b8051865460208301516040909301511515600160f81b026001600160f81b036001600160d81b03909416640100000000027fff0000000000000000000000000000000000000000000000000000000000000090921663ffffffff9093169290921717919091161790945550600193849350915050565b600063ffffffff821115620002965760405162461bcd60e51b815260206004820152600760248201526654534f464c4f5760c81b60448201526064015b60405180910390fd5b5090565b60408051606081018252600080825260208201819052918101919091526001600160d81b03821115620002f95760405162461bcd60e51b81526004016200028d906020808252600490820152631f19189b60e11b604082015260600190565b506040805160608101825263ffffffff9390931683526001600160d81b0391909116602083015260019082015290565b80516001600160a01b03811681146200034157600080fd5b919050565b6000806040838503121562000359578182fd5b620003648362000329565b9150620003746020840162000329565b90509250929050565b6000602082840312156200038f578081fd5b5051919050565b60805160601c612687620003ca600039600081816101c601528181610d2101528181610fa0015261106101526126876000f3fe608060405234801561001057600080fd5b50600436106100f15760003560e01c80631195082e146100f6578063252c09d71461013457806325f258dd146101735780632d92c2db14610186578063414535281461019b57806354124c64146101ae5780636f307dc3146101c1578063715018a6146101f55780637aa4db13146101fd5780637cf2cc9f146102055780638da5cb5b1461020e57806393556dbd14610216578063b909f73214610229578063bdb0509214610238578063c7db359b1461024b578063dd9d05d114610293578063e9d337b8146102ad578063f2fde38b146102c2578063f739670c146102d5575b600080fd5b610121610104366004612438565b600160209081526000928352604080842090915290825290205481565b6040519081526020015b60405180910390f35b6101476101423660046123bc565b6102e8565b6040805163ffffffff90941684526001600160d81b03909216602084015215159082015260600161012b565b6101216101813660046123ec565b610322565b61019961019436600461239a565b610390565b005b6101216101a93660046123ec565b61041c565b6101216101bc36600461240d565b610430565b6101e87f000000000000000000000000000000000000000000000000000000000000000081565b60405161012b919061246a565b610199610487565b6101996104cb565b61012160025481565b6101e8610518565b6101216102243660046123ec565b610527565b610121670de0b6b3a764000081565b6101996102463660046123bc565b6105b7565b60035461026e9061ffff80821691620100008104821691600160201b9091041683565b6040805161ffff9485168152928416602084015292169181019190915260600161012b565b61029b600181565b60405160ff909116815260200161012b565b62010003546101e8906001600160a01b031681565b6101996102d0366004612373565b610621565b6101216102e33660046123ec565b6106c1565b60048161ffff81106102f957600080fd5b015463ffffffff81169150600160201b81046001600160d81b031690600160f81b900460ff1683565b60008061032f848461080b565b9092509050801561038857600061034d61034886610934565b610942565b9050600061035d61034886610934565b63ffffffff928316600090815260016020908152604080832095909316825293909352909120839055505b505b92915050565b600354600160201b900461ffff1660006103ac60048385610986565b6003805461ffff808416600160201b810261ffff60201b1990931692909217909255919250831614610417576040805161ffff8085168252831660208201527f1f0a33a4e18d81b29e729a440bc8de6a84b65d9fbdf81682d85c3a382296e55e910160405180910390a15b505050565b6000610428838361080b565b509392505050565b60008061043c83610a45565b9050600061044a6001610a5c565b610454908661252c565b905060006104628284610aa9565b9050600061046f82610ae8565b905061047b8882610b44565b98975050505050505050565b33610490610518565b6001600160a01b0316146104bf5760405162461bcd60e51b81526004016104b6906124d1565b60405180910390fd5b6104c96000610bfd565b565b6003546104f09061ffff80821691620100008104821691600160201b90910416610c4d565b6003805463ffffffff19166201000061ffff9384160261ffff19161792909116919091179055565b6000546001600160a01b031690565b60008183111561056c5760405162461bcd60e51b815260206004820152601060248201526f4d69736f72646572656420646174657360801b60448201526064016104b6565b600061057884846106c1565b90506000610586858561259a565b9050600061059382610a5c565b905060006105a082610a45565b90506105ac8482610e43565b979650505050505050565b336105c0610518565b6001600160a01b0316146105e65760405162461bcd60e51b81526004016104b6906124d1565b60028190556040518181527f19ede2e51d1531988bc60742b8bb97134e9f3a1ec45cf7cf4ea09953f80b2ac59060200160405180910390a150565b3361062a610518565b6001600160a01b0316146106505760405162461bcd60e51b81526004016104b6906124d1565b6001600160a01b0381166106b55760405162461bcd60e51b815260206004820152602660248201527f4f776e61626c653a206e6577206f776e657220697320746865207a65726f206160448201526564647265737360d01b60648201526084016104b6565b6106be81610bfd565b50565b6000818314156106d35750600061038a565b60006106dd61078a565b905060006106ea85610942565b905060006106f785610942565b60035490915060009061071b908590859061ffff8082169162010000900416610ea2565b60035490915060009061073f908690859061ffff8082169162010000900416610ea2565b90508181111561077c5761077061076b676765c793fa10079d601b1b610765848661123c565b90611310565b61131c565b9550505050505061038a565b60009550505050505061038a565b600061079542610942565b905090565b6000806107a7848461138a565b85600082519101805460208401516040909401511515600160f81b026001600160f81b036001600160d81b03909516600160201b026001600160f81b031990921663ffffffff9094169390931717929092161790555060019050805b935093915050565b600080600061081c61034886610934565b9050600061082c61034886610934565b905060008263ffffffff1611801561084a575060008163ffffffff16115b61087e5760405162461bcd60e51b8152602060048201526005602482015264554e49545360d81b60448201526064016104b6565b63ffffffff808316600090815260016020908152604080832093851683529290522054156108d05763ffffffff808316600090815260016020908152604080832093851683529290522054935061092b565b8063ffffffff166108df61078a565b63ffffffff161061090b576109008263ffffffff168263ffffffff166106c1565b93506001925061092b565b6109288263ffffffff1661091d61078a565b63ffffffff166106c1565b93505b50509250929050565b670de0b6b3a7640000900490565b600063ffffffff8211156109825760405162461bcd60e51b815260206004820152600760248201526654534f464c4f5760c81b60448201526064016104b6565b5090565b6000808361ffff16116109bf5760405162461bcd60e51b81526020600482015260016024820152604960f81b60448201526064016104b6565b8261ffff168261ffff16116109d5575081610a3e565b825b8261ffff168161ffff161015610a39576001858261ffff1661ffff8110610a0e57634e487b7160e01b600052603260045260246000fd5b01805463ffffffff191663ffffffff9290921691909117905580610a31816125ce565b9150506109d7565b508190505b9392505050565b600061038a826a1a1601fc4ea7109e000000611402565b60007812725dd1d243aba0e75fe645cc4873f9e65afe688c928e1f21821115610a9b57604051633492ffd960e01b8152600481018390526024016104b6565b50670de0b6b3a76400000290565b600082610ace578115610abd576000610ac7565b670de0b6b3a76400005b905061038a565b610a3e610ae3610add85611417565b846114c7565b6114d3565b600080610af9633b9aca0084612558565b905082610b0a633b9aca0083612544565b1460405180604001604052806002815260200161068760f31b815250906103885760405162461bcd60e51b81526004016104b6919061247e565b6000821580610b51575081155b15610b5e5750600061038a565b81610b756002676765c793fa10079d601b1b612544565b610b819060001961259a565b610b8b9190612544565b83111560405180604001604052806002815260200161068760f31b81525090610bc75760405162461bcd60e51b81526004016104b6919061247e565b50676765c793fa10079d601b1b610bdf600282612544565b610be98486612558565b610bf3919061252c565b610a3e9190612544565b600080546001600160a01b038381166001600160a01b0319831681178455604051919092169283917f8be0079c531659141344cd1fd0a4f28419497f9722a3daafe3b4186f6b6457e09190a35050565b600080600060048661ffff1661ffff8110610c7857634e487b7160e01b600052603260045260246000fd5b60408051606081018252929091015463ffffffff811683526001600160d81b03600160201b820416602084015260ff600160f81b9091041615159082015290506000610cc261078a565b9050816000015163ffffffff166002548263ffffffff16610ce3919061259a565b1015610cf6578686935093505050610803565b620100035460405163d15e005360e01b81526000916001600160a01b03169063d15e005390610d49907f00000000000000000000000000000000000000000000000000000000000000009060040161246a565b60206040518083038186803b158015610d6157600080fd5b505afa158015610d75573d6000803e3d6000fd5b505050506040513d601f19601f82011682018060405250810190610d9991906123d4565b905080610db95760405163bd89c5af60e01b815260040160405180910390fd5b7f43bca372be3e74f9c236cf54450ec01eb2d011690a24a7402ddff4e41267e447610de2611519565b6040805191825230602083015261ffff8b81168383015263ffffffff86166060840152608083018590528a811660a0840152891660c0830152519081900360e00190a1610e3460048984848b8b611524565b94509450505050935093915050565b600082610e525750600061038a565b6000610e66670de0b6b3a764000084611402565b90506000610e85610e7f86670de0b6b3a764000061252c565b83610aa9565b9050610e99670de0b6b3a76400008261259a565b95945050505050565b60008363ffffffff168563ffffffff161015610ee65760405162461bcd60e51b81526020600482015260036024820152624f4f4f60e81b60448201526064016104b6565b8363ffffffff168563ffffffff16141561103657610f0261233f565b60048461ffff1661ffff8110610f2857634e487b7160e01b600052603260045260246000fd5b60408051606081018252919092015463ffffffff808216808452600160201b83046001600160d81b03166020850152600160f81b90920460ff161515938301939093529092509087161461101f57620100035460405163d15e005360e01b81526001600160a01b039091169063d15e005390610fc8907f00000000000000000000000000000000000000000000000000000000000000009060040161246a565b60206040518083038186803b158015610fe057600080fd5b505afa158015610ff4573d6000803e3d6000fd5b505050506040513d601f19601f8201168201806040525081019061101891906123d4565b9150611030565b80602001516001600160d81b031691505b50611234565b620100035460405163d15e005360e01b81526000916001600160a01b03169063d15e005390611089907f00000000000000000000000000000000000000000000000000000000000000009060040161246a565b60206040518083038186803b1580156110a157600080fd5b505afa1580156110b5573d6000803e3d6000fd5b505050506040513d601f19601f820116820180604052508101906110d991906123d4565b90506000806110ec600488858989611688565b91509150816000015163ffffffff168763ffffffff16141561111d5781602001516001600160d81b03169350611230565b805163ffffffff888116911614156111445780602001516001600160d81b03169350611230565b600082602001516001600160d81b031682602001516001600160d81b031611156111ac57600061119d676765c793fa10079d601b1b61076585602001516001600160d81b031687602001516001600160d81b031661123c565b90506111a88161131c565b9150505b60006111dd670de0b6b3a7640000855185516111c891906125b1565b63ffffffff166111d89190612558565b610a45565b905060006111eb8383610e43565b905061122a85602001516001600160d81b03168261120e670de0b6b3a764000090565b885161121a908f6125b1565b63ffffffff166101bc9190612558565b96505050505b5050505b949350505050565b604080518082019091526002815261035360f41b6020820152600090826112765760405162461bcd60e51b81526004016104b6919061247e565b506000611284600284612544565b9050676765c793fa10079d601b1b61129e8260001961259a565b6112a89190612544565b84111560405180604001604052806002815260200161068760f31b815250906112e45760405162461bcd60e51b81526004016104b6919061247e565b5082816112fc676765c793fa10079d601b1b87612558565b611306919061252c565b6112349190612544565b6000610a3e828461259a565b60008061132e6002633b9aca00612544565b9050600061133c848361252c565b90508181101560405180604001604052806002815260200161343960f01b8152509061137b5760405162461bcd60e51b81526004016104b6919061247e565b50611234633b9aca0082612544565b61139261233f565b6001600160d81b038211156113d25760405162461bcd60e51b81526004016104b6906020808252600490820152631f19189b60e11b604082015260600190565b506040805160608101825263ffffffff9390931683526001600160d81b0391909116602083015260019082015290565b6000610a3e83670de0b6b3a764000084611856565b6000670de0b6b3a764000082101561144557604051633621413760e21b8152600481018390526024016104b6565b600061145a670de0b6b3a76400008404611932565b670de0b6b3a7640000808202935090915083821c9081141561147d575050919050565b6706f05b59d3b200005b80156114bf57670de0b6b3a7640000828002049150671bc16d674ec8000082106114b7579283019260019190911c905b60011c611487565b505050919050565b6000610a3e8383611a15565b6000680a688906bd8b000000821061150157604051634a4f26f160e01b8152600481018390526024016104b6565b670de0b6b3a7640000604083901b04610a3e81611ad7565b600061079542610a5c565b6000806000888861ffff1661ffff811061154e57634e487b7160e01b600052603260045260246000fd5b60408051606081018252919092015463ffffffff808216808452600160201b83046001600160d81b03166020850152600160f81b90920460ff1615159383019390935290925090881614156115a9578785925092505061167d565b8461ffff168461ffff161180156115d157506115c6600186612577565b61ffff168861ffff16145b156115de578391506115e2565b8491505b816115ee896001612506565b6115f891906125f0565b9250611604878761138a565b898461ffff1661ffff811061162957634e487b7160e01b600052603260045260246000fd5b82519101805460208401516040909401511515600160f81b026001600160f81b036001600160d81b03909516600160201b026001600160f81b031990921663ffffffff909416939093171792909216179055505b965096945050505050565b61169061233f565b61169861233f565b868461ffff1661ffff81106116bd57634e487b7160e01b600052603260045260246000fd5b60408051606081018252919092015463ffffffff808216808452600160201b83046001600160d81b03166020850152600160f81b90920460ff161515938301939093529093509087161061173c578563ffffffff16826000015163ffffffff1614156117285761184c565b81611733878761138a565b9150915061184c565b8683611749866001612506565b61175391906125f0565b61ffff1661ffff811061177657634e487b7160e01b600052603260045260246000fd5b60408051606081018252919092015463ffffffff81168252600160201b81046001600160d81b03166020830152600160f81b900460ff16151591810182905292506117fb5760408051606081018252885463ffffffff81168252600160201b81046001600160d81b03166020830152600160f81b900460ff1615159181019190915291505b815163ffffffff8088169116111561183b5760405162461bcd60e51b815260206004820152600360248201526213d31160ea1b60448201526064016104b6565b61184787878686612169565b915091505b9550959350505050565b60008080600019858709858702925082811083820303915050806000141561189f5783828161189557634e487b7160e01b600052601260045260246000fd5b0492505050610a3e565b8381106118c957604051631dcf306360e21b815260048101829052602481018590526044016104b6565b60008486880960026001871981018816978890046003810283188082028403028082028403028082028403028082028403028082028403029081029092039091026000889003889004909101858311909403939093029303949094049190911702949350505050565b6000600160801b821061195257608091821c9161194f908261252c565b90505b600160401b821061197057604091821c9161196d908261252c565b90505b600160201b821061198e57602091821c9161198b908261252c565b90505b6201000082106119ab57601091821c916119a8908261252c565b90505b61010082106119c757600891821c916119c4908261252c565b90505b601082106119e257600491821c916119df908261252c565b90505b600482106119fd57600291821c916119fa908261252c565b90505b60028210611a105761038a60018261252c565b919050565b60008080600019848609848602925082811083820303915050670de0b6b3a76400008110611a595760405163698d9a0160e11b8152600481018290526024016104b6565b600080670de0b6b3a76400008688099150506706f05b59d3b1ffff811182611a935780670de0b6b3a764000085040194505050505061038a565b620400008285030493909111909103600160ee1b02919091177faccb18165bd6fe31ae1cf318dc5b51eee0e1ba569b88cd74c1773b91fac106690201905092915050565b600160bf1b6001603f1b821615611af75768016a09e667f3bcc9090260401c5b6001603e1b821615611b12576801306fe0a31b7152df0260401c5b6001603d1b821615611b2d576801172b83c7d517adce0260401c5b6001603c1b821615611b485768010b5586cf9890f62a0260401c5b6001603b1b821615611b63576801059b0d31585743ae0260401c5b6001603a1b821615611b7e57680102c9a3e778060ee70260401c5b600160391b821615611b995768010163da9fb33356d80260401c5b600160381b821615611bb457680100b1afa5abcbed610260401c5b600160371b821615611bcf5768010058c86da1c09ea20260401c5b600160361b821615611bea576801002c605e2e8cec500260401c5b600160351b821615611c0557680100162f3904051fa10260401c5b600160341b821615611c20576801000b175effdc76ba0260401c5b600160331b821615611c3b57680100058ba01fb9f96d0260401c5b600160321b821615611c565768010002c5cc37da94920260401c5b600160311b821615611c71576801000162e525ee05470260401c5b600160301b821615611c8c5768010000b17255775c040260401c5b6001602f1b821615611ca7576801000058b91b5bc9ae0260401c5b6001602e1b821615611cc257680100002c5c89d5ec6d0260401c5b6001602d1b821615611cdd5768010000162e43f4f8310260401c5b6001602c1b821615611cf857680100000b1721bcfc9a0260401c5b6001602b1b821615611d135768010000058b90cf1e6e0260401c5b6001602a1b821615611d2e576801000002c5c863b73f0260401c5b600160291b821615611d4957680100000162e430e5a20260401c5b600160281b821615611d64576801000000b1721835510260401c5b600160271b821615611d7f57680100000058b90c0b490260401c5b600160261b821615611d9a5768010000002c5c8601cc0260401c5b600160251b821615611db5576801000000162e42fff00260401c5b600160241b821615611dd05768010000000b17217fbb0260401c5b600160231b821615611deb576801000000058b90bfce0260401c5b600160221b821615611e0657680100000002c5c85fe30260401c5b600160211b821615611e215768010000000162e42ff10260401c5b600160201b821615611e3c57680100000000b17217f80260401c5b6380000000821615611e575768010000000058b90bfc0260401c5b6340000000821615611e72576801000000002c5c85fe0260401c5b6320000000821615611e8d57680100000000162e42ff0260401c5b6310000000821615611ea8576801000000000b17217f0260401c5b6308000000821615611ec357680100000000058b90c00260401c5b6304000000821615611ede5768010000000002c5c8600260401c5b6302000000821615611ef9576801000000000162e4300260401c5b6301000000821615611f145768010000000000b172180260401c5b62800000821615611f2e576801000000000058b90c0260401c5b62400000821615611f4857680100000000002c5c860260401c5b62200000821615611f625768010000000000162e430260401c5b62100000821615611f7c57680100000000000b17210260401c5b62080000821615611f965768010000000000058b910260401c5b62040000821615611fb0576801000000000002c5c80260401c5b62020000821615611fca57680100000000000162e40260401c5b62010000821615611fe35761b172600160401b010260401c5b618000821615611ffb576158b9600160401b010260401c5b61400082161561201357612c5d600160401b010260401c5b61200082161561202b5761162e600160401b010260401c5b61100082161561204357610b17600160401b010260401c5b61080082161561205b5761058c600160401b010260401c5b610400821615612073576102c6600160401b010260401c5b61020082161561208b57610163600160401b010260401c5b6101008216156120a25760b1600160401b010260401c5b60808216156120b8576059600160401b010260401c5b60408216156120ce57602c600160401b010260401c5b60208216156120e4576016600160401b010260401c5b60108216156120fa57600b600160401b010260401c5b6008821615612110576006600160401b010260401c5b6004821615612126576003600160401b010260401c5b600282161561213c576001600160401b010260401c5b6001821615612152576001600160401b010260401c5b670de0b6b3a76400000260409190911c60bf031c90565b61217161233f565b61217961233f565b600083612187866001612506565b61219191906125f0565b61ffff169050600060018561ffff16836121ab919061252c565b6121b5919061259a565b905060005b60026121c6838561252c565b6121d09190612544565b9050886121e161ffff881683612611565b61ffff811061220057634e487b7160e01b600052603260045260246000fd5b60408051606081018252919092015463ffffffff81168252600160201b81046001600160d81b03166020830152600160f81b900460ff16151591810182905295506122575761225081600161252c565b92506121ba565b8861ffff871661226883600161252c565b6122729190612611565b61ffff811061229157634e487b7160e01b600052603260045260246000fd5b60408051606081018252919092015463ffffffff8082168352600160201b82046001600160d81b03166020840152600160f81b90910460ff16151592820192909252865190955089821691161180159081906122fd5750846000015163ffffffff168963ffffffff1611155b156123085750612333565b8061231f5761231860018361259a565b925061232d565b61232a82600161252c565b93505b506121ba565b50505094509492505050565b604080516060810182526000808252602082018190529181019190915290565b803563ffffffff81168114611a1057600080fd5b600060208284031215612384578081fd5b81356001600160a01b0381168114610a3e578182fd5b6000602082840312156123ab578081fd5b813561ffff81168114610a3e578182fd5b6000602082840312156123cd578081fd5b5035919050565b6000602082840312156123e5578081fd5b5051919050565b600080604083850312156123fe578081fd5b50508035926020909101359150565b600080600060608486031215612421578081fd5b505081359360208301359350604090920135919050565b6000806040838503121561244a578182fd5b6124538361235f565b91506124616020840161235f565b90509250929050565b6001600160a01b0391909116815260200190565b6000602080835283518082850152825b818110156124aa5785810183015185820160400152820161248e565b818111156124bb5783604083870101525b50601f01601f1916929092016040019392505050565b6020808252818101527f4f776e61626c653a2063616c6c6572206973206e6f7420746865206f776e6572604082015260600190565b600061ffff80831681851680830382111561252357612523612625565b01949350505050565b6000821982111561253f5761253f612625565b500190565b6000826125535761255361263b565b500490565b600081600019048311821515161561257257612572612625565b500290565b600061ffff8381169083168181101561259257612592612625565b039392505050565b6000828210156125ac576125ac612625565b500390565b600063ffffffff8381169083168181101561259257612592612625565b600061ffff808316818114156125e6576125e6612625565b6001019392505050565b600061ffff808416806126055761260561263b565b92169190910692915050565b6000826126205761262061263b565b500690565b634e487b7160e01b600052601160045260246000fd5b634e487b7160e01b600052601260045260246000fdfea26469706673582212202b6cc9586787797b631964bed55d35dc1e4b55037e35c0fe79d0f2fc657ba2c564736f6c63430008040033",
  "devdoc": {
    "errors": {
      "AavePoolGetReserveNormalizedIncomeReturnedZero()": [
        {
          "details": "getReserveNormalizedIncome() returned zero for underlying asset. Oracle only supports active Aave-V2 assets."
        }
      ]
    },
    "kind": "dev",
    "methods": {
      "getApyFromTo(uint256,uint256)": {
        "details": "Reverts if we have no data point for either timestamp",
        "params": {
          "from": "The timestamp of the start of the period, in seconds",
          "to": "The timestamp of the end of the period, in seconds"
        }
      },
      "getRateFromTo(uint256,uint256)": {
        "details": "Reverts if we have no data point for either timestamp",
        "params": {
          "_from": "The timestamp of the start of the period, in seconds",
          "_to": "The timestamp of the end of the period, in seconds"
        },
        "returns": {
          "_0": "The \"floating rate\" expressed in Wad, e.g. 4% is encoded as 0.04*10**18 = 4*10**16"
        }
      },
      "increaseObservationCardinalityNext(uint16)": {
        "details": "This method is no-op if the RateOracle already has an observationCardinalityNext greater than or equal to the input observationCardinalityNext.",
        "params": {
          "rateCardinalityNext": "The desired minimum number of observations for the pool to store"
        }
      },
      "interpolateRateValue(uint256,uint256,uint256)": {
        "details": "Given [beforeOrAt, atOrAfter] where the timestamp for which the counterfactual is calculated is within that range (but does not touch any of the bounds)We can calculate the apy for [beforeOrAt, atOrAfter] --> refer to this value as apyFromBeforeOrAtToAtOrAfterThen we want a counterfactual rate value which results in apy_before_after if the apy is calculated between [beforeOrAt, timestampForCounterfactual]Hence (1+rateValueWei/beforeOrAtRateValueWei)^(1/timeInYears) = apyFromBeforeOrAtToAtOrAfterHence rateValueWei = beforeOrAtRateValueWei * (1+apyFromBeforeOrAtToAtOrAfter)^timeInYears - 1)",
        "params": {
          "apyFromBeforeOrAtToAtOrAfterWad": "Apy in the period between the timestamp of the beforeOrAt Rate and the atOrAfter Rate",
          "beforeOrAtRateValueRay": "Rate Value (in ray) before the timestamp for which we want to calculate the counterfactual rate value",
          "timeDeltaBeforeOrAtToQueriedTimeWad": "Time Delta (in wei seconds) between the timestamp of the beforeOrAt Rate and the atOrAfter Rate"
        },
        "returns": {
          "rateValueRay": "Counterfactual (interpolated) rate value in ray"
        }
      },
      "owner()": {
        "details": "Returns the address of the current owner."
      },
      "renounceOwnership()": {
        "details": "Leaves the contract without owner. It will not be possible to call `onlyOwner` functions anymore. Can only be called by the current owner. NOTE: Renouncing ownership will leave the contract without an owner, thereby removing any functionality that is only available to the owner."
      },
      "setMinSecondsSinceLastUpdate(uint256)": {
        "details": "Can only be set by the Factory Owner"
      },
      "transferOwnership(address)": {
        "details": "Transfers ownership of the contract to a new account (`newOwner`). Can only be called by the current owner."
      },
      "variableFactor(uint256,uint256)": {
        "details": "If the current block timestamp is beyond the maturity of the AMM, then the variableFactor is getRateFromTo(termStartTimestamp, termEndTimestamp). Term end timestamps are cached for quick retrieval later.If the current block timestamp is before the maturity of the AMM, then the variableFactor is getRateFromTo(termStartTimestamp,Time.blockTimestampScaled());",
        "returns": {
          "resultWad": "The variable factor"
        }
      },
      "variableFactorNoCache(uint256,uint256)": {
        "details": "If the current block timestamp is beyond the maturity of the AMM, then the variableFactor is getRateFromTo(termStartTimestamp, termEndTimestamp). No caching takes place.If the current block timestamp is before the maturity of the AMM, then the variableFactor is getRateFromTo(termStartTimestamp,Time.blockTimestampScaled());",
        "returns": {
          "resultWad": "The variable factor"
        }
      }
    },
    "stateVariables": {
      "aaveLendingPool": {
        "return": "Address of the Aave Lending Pool",
        "returns": {
          "_0": "Address of the Aave Lending Pool"
        }
      },
      "underlyingYieldBearingProtocolID": {
        "return": "yieldBearingProtocolID unique id of the underlying yield bearing protocol",
        "returns": {
          "_0": "yieldBearingProtocolID unique id of the underlying yield bearing protocol"
        }
      }
    },
    "version": 1
  },
  "userdoc": {
    "errors": {
      "PRBMathUD60x18__Exp2InputTooBig(uint256)": [
        {
          "notice": "Emitted when the input is greater than 192."
        }
      ],
      "PRBMathUD60x18__FromUintOverflow(uint256)": [
        {
          "notice": "Emitted when converting a basic integer to the fixed-point format format overflows UD60x18."
        }
      ],
      "PRBMathUD60x18__LogInputTooSmall(uint256)": [
        {
          "notice": "Emitted when the input is less than 1."
        }
      ],
      "PRBMath__MulDivFixedPointOverflow(uint256)": [
        {
          "notice": "Emitted when the result overflows uint256."
        }
      ],
      "PRBMath__MulDivOverflow(uint256,uint256)": [
        {
          "notice": "Emitted when the result overflows uint256."
        }
      ]
    },
    "events": {
      "IncreaserateCardinalityNext(uint16,uint16)": {
        "notice": "Emitted by the rate oracle for increases to the number of observations that can be stored"
      }
    },
    "kind": "user",
    "methods": {
      "aaveLendingPool()": {
        "notice": "Gets the address of the Aave Lending Pool"
      },
      "getApyFromTo(uint256,uint256)": {
        "notice": "Calculates the observed APY returned by the rate oracle in a given period"
      },
      "getRateFromTo(uint256,uint256)": {
        "notice": "Calculates the observed interest returned by the underlying in a given period"
      },
      "increaseObservationCardinalityNext(uint16)": {
        "notice": "Increase the maximum number of rates observations that this RateOracle will store"
      },
      "interpolateRateValue(uint256,uint256,uint256)": {
        "notice": "Calculates the interpolated (counterfactual) rate value"
      },
      "observations(uint256)": {
        "notice": "the observations tracked over time by this oracle"
      },
      "setMinSecondsSinceLastUpdate(uint256)": {
        "notice": "Sets minSecondsSinceLastUpdate: The minimum number of seconds in wei that need to pass since the last update to the rates array"
      },
      "settlementRateCache(uint32,uint32)": {
        "notice": "a cache of settlement rates for interest rate swaps associated with this rate oracle, indexed by start time and then end time"
      },
      "underlying()": {
        "notice": "Gets the address of the underlying token of the RateOracle"
      },
      "underlyingYieldBearingProtocolID()": {
        "notice": "unique ID of the underlying yield bearing protocol (e.g. Aave v2 has id 1)"
      },
      "variableFactor(uint256,uint256)": {
        "notice": "Gets the variable factor between termStartTimestamp and termEndTimestamp"
      },
      "variableFactorNoCache(uint256,uint256)": {
        "notice": "Gets the variable factor between termStartTimestamp and termEndTimestamp"
      }
    },
    "version": 1
  },
  "storageLayout": {
    "storage": [
      {
        "astId": 601,
        "contract": "contracts/rate_oracles/AaveRateOracle.sol:AaveRateOracle",
        "label": "_owner",
        "offset": 0,
        "slot": "0",
        "type": "t_address"
      },
      {
        "astId": 11408,
        "contract": "contracts/rate_oracles/AaveRateOracle.sol:AaveRateOracle",
        "label": "settlementRateCache",
        "offset": 0,
        "slot": "1",
        "type": "t_mapping(t_uint32,t_mapping(t_uint32,t_uint256))"
      },
      {
        "astId": 11426,
        "contract": "contracts/rate_oracles/AaveRateOracle.sol:AaveRateOracle",
        "label": "minSecondsSinceLastUpdate",
        "offset": 0,
        "slot": "2",
        "type": "t_uint256"
      },
      {
        "astId": 11429,
        "contract": "contracts/rate_oracles/AaveRateOracle.sol:AaveRateOracle",
        "label": "oracleVars",
        "offset": 0,
        "slot": "3",
        "type": "t_struct(OracleVars)11418_storage"
      },
      {
        "astId": 11435,
        "contract": "contracts/rate_oracles/AaveRateOracle.sol:AaveRateOracle",
        "label": "observations",
        "offset": 0,
        "slot": "4",
        "type": "t_array(t_struct(Observation)11802_storage)65535_storage"
      },
      {
        "astId": 10907,
        "contract": "contracts/rate_oracles/AaveRateOracle.sol:AaveRateOracle",
        "label": "aaveLendingPool",
        "offset": 0,
        "slot": "65539",
        "type": "t_address"
      }
    ],
    "types": {
      "t_address": {
        "encoding": "inplace",
        "label": "address",
        "numberOfBytes": "20"
      },
      "t_array(t_struct(Observation)11802_storage)65535_storage": {
        "base": "t_struct(Observation)11802_storage",
        "encoding": "inplace",
        "label": "struct OracleBuffer.Observation[65535]",
        "numberOfBytes": "2097120"
      },
      "t_bool": {
        "encoding": "inplace",
        "label": "bool",
        "numberOfBytes": "1"
      },
      "t_mapping(t_uint32,t_mapping(t_uint32,t_uint256))": {
        "encoding": "mapping",
        "key": "t_uint32",
        "label": "mapping(uint32 => mapping(uint32 => uint256))",
        "numberOfBytes": "32",
        "value": "t_mapping(t_uint32,t_uint256)"
      },
      "t_mapping(t_uint32,t_uint256)": {
        "encoding": "mapping",
        "key": "t_uint32",
        "label": "mapping(uint32 => uint256)",
        "numberOfBytes": "32",
        "value": "t_uint256"
      },
      "t_struct(Observation)11802_storage": {
        "encoding": "inplace",
        "label": "struct OracleBuffer.Observation",
        "members": [
          {
            "astId": 11796,
            "contract": "contracts/rate_oracles/AaveRateOracle.sol:AaveRateOracle",
            "label": "blockTimestamp",
            "offset": 0,
            "slot": "0",
            "type": "t_uint32"
          },
          {
            "astId": 11799,
            "contract": "contracts/rate_oracles/AaveRateOracle.sol:AaveRateOracle",
            "label": "observedValue",
            "offset": 4,
            "slot": "0",
            "type": "t_uint216"
          },
          {
            "astId": 11801,
            "contract": "contracts/rate_oracles/AaveRateOracle.sol:AaveRateOracle",
            "label": "initialized",
            "offset": 31,
            "slot": "0",
            "type": "t_bool"
          }
        ],
        "numberOfBytes": "32"
      },
      "t_struct(OracleVars)11418_storage": {
        "encoding": "inplace",
        "label": "struct BaseRateOracle.OracleVars",
        "members": [
          {
            "astId": 11411,
            "contract": "contracts/rate_oracles/AaveRateOracle.sol:AaveRateOracle",
            "label": "rateIndex",
            "offset": 0,
            "slot": "0",
            "type": "t_uint16"
          },
          {
            "astId": 11414,
            "contract": "contracts/rate_oracles/AaveRateOracle.sol:AaveRateOracle",
            "label": "rateCardinality",
            "offset": 2,
            "slot": "0",
            "type": "t_uint16"
          },
          {
            "astId": 11417,
            "contract": "contracts/rate_oracles/AaveRateOracle.sol:AaveRateOracle",
            "label": "rateCardinalityNext",
            "offset": 4,
            "slot": "0",
            "type": "t_uint16"
          }
        ],
        "numberOfBytes": "32"
      },
      "t_uint16": {
        "encoding": "inplace",
        "label": "uint16",
        "numberOfBytes": "2"
      },
      "t_uint216": {
        "encoding": "inplace",
        "label": "uint216",
        "numberOfBytes": "27"
      },
      "t_uint256": {
        "encoding": "inplace",
        "label": "uint256",
        "numberOfBytes": "32"
      },
      "t_uint32": {
        "encoding": "inplace",
        "label": "uint32",
        "numberOfBytes": "4"
      }
    }
  }
}