{
  "address": "0xCBC0EbB5dDb1EC01f6014C68C675E754469387a0",
  "abi": [
    {
      "inputs": [
        {
          "internalType": "contract IAaveV2LendingPool",
          "name": "_aaveLendingPool",
          "type": "address"
        },
        {
          "internalType": "contract IERC20Minimal",
          "name": "_underlying",
          "type": "address"
        }
      ],
      "stateMutability": "nonpayable",
      "type": "constructor"
    },
    {
      "inputs": [],
      "name": "AavePoolGetReserveNormalizedIncomeReturnedZero",
      "type": "error"
    },
    {
      "inputs": [
        {
          "internalType": "bool",
          "name": "unlocked",
          "type": "bool"
        }
      ],
      "name": "CanOnlyTradeIfUnlocked",
      "type": "error"
    },
    {
      "inputs": [],
      "name": "CannotLiquidate",
      "type": "error"
    },
    {
      "inputs": [],
      "name": "CannotSettleBeforeMaturity",
      "type": "error"
    },
    {
      "inputs": [
        {
          "internalType": "uint256",
          "name": "x",
          "type": "uint256"
        },
        {
          "internalType": "uint256",
          "name": "y",
          "type": "uint256"
        }
      ],
      "name": "DebugError",
      "type": "error"
    },
    {
      "inputs": [
        {
          "internalType": "int256",
          "name": "amount0",
          "type": "int256"
        },
        {
          "internalType": "int256",
          "name": "amount1",
          "type": "int256"
        }
      ],
      "name": "ExpectedOppositeSigns",
      "type": "error"
    },
    {
      "inputs": [
        {
          "internalType": "uint160",
          "name": "sqrtPriceX96",
          "type": "uint160"
        }
      ],
      "name": "ExpectedSqrtPriceZeroBeforeInit",
      "type": "error"
    },
    {
      "inputs": [],
      "name": "IRSNotionalAmountSpecifiedMustBeNonZero",
      "type": "error"
    },
    {
      "inputs": [],
      "name": "InvalidMarginDelta",
      "type": "error"
    },
    {
      "inputs": [
        {
          "internalType": "uint128",
          "name": "amount",
          "type": "uint128"
        }
      ],
      "name": "LiquidityDeltaMustBePositiveInBurn",
      "type": "error"
    },
    {
      "inputs": [
        {
          "internalType": "uint128",
          "name": "amount",
          "type": "uint128"
        }
      ],
      "name": "LiquidityDeltaMustBePositiveInMint",
      "type": "error"
    },
    {
      "inputs": [
        {
          "internalType": "int256",
          "name": "marginRequirement",
          "type": "int256"
        }
      ],
      "name": "MarginLessThanMinimum",
      "type": "error"
    },
    {
      "inputs": [
        {
          "internalType": "int256",
          "name": "marginRequirement",
          "type": "int256"
        },
        {
          "internalType": "int24",
          "name": "tick",
          "type": "int24"
        },
        {
          "internalType": "int256",
          "name": "fixedTokenDelta",
          "type": "int256"
        },
        {
          "internalType": "int256",
          "name": "variableTokenDelta",
          "type": "int256"
        },
        {
          "internalType": "uint256",
          "name": "cumulativeFeeIncurred",
          "type": "uint256"
        },
        {
          "internalType": "int256",
          "name": "fixedTokenDeltaUnbalanced",
          "type": "int256"
        }
      ],
      "name": "MarginRequirementNotMet",
      "type": "error"
    },
    {
      "inputs": [
        {
          "internalType": "int256",
          "name": "marginRequirement",
          "type": "int256"
        }
      ],
      "name": "MarginRequirementNotMetFCM",
      "type": "error"
    },
    {
      "inputs": [
        {
          "internalType": "uint256",
          "name": "requested",
          "type": "uint256"
        },
        {
          "internalType": "uint256",
          "name": "available",
          "type": "uint256"
        }
      ],
      "name": "NotEnoughFunds",
      "type": "error"
    },
    {
      "inputs": [],
      "name": "OOO",
      "type": "error"
    },
    {
      "inputs": [],
      "name": "OnlyFCM",
      "type": "error"
    },
    {
      "inputs": [],
      "name": "OnlyMarginEngine",
      "type": "error"
    },
    {
      "inputs": [],
      "name": "OnlyOwnerCanUpdatePosition",
      "type": "error"
    },
    {
      "inputs": [],
      "name": "OnlyVAMM",
      "type": "error"
    },
    {
      "inputs": [
        {
          "internalType": "uint256",
          "name": "x",
          "type": "uint256"
        }
      ],
      "name": "PRBMathUD60x18__Exp2InputTooBig",
      "type": "error"
    },
    {
      "inputs": [
        {
          "internalType": "uint256",
          "name": "x",
          "type": "uint256"
        }
      ],
      "name": "PRBMathUD60x18__FromUintOverflow",
      "type": "error"
    },
    {
      "inputs": [
        {
          "internalType": "uint256",
          "name": "x",
          "type": "uint256"
        }
      ],
      "name": "PRBMathUD60x18__LogInputTooSmall",
      "type": "error"
    },
    {
      "inputs": [
        {
          "internalType": "uint256",
          "name": "prod1",
          "type": "uint256"
        }
      ],
      "name": "PRBMath__MulDivFixedPointOverflow",
      "type": "error"
    },
    {
      "inputs": [
        {
          "internalType": "uint256",
          "name": "prod1",
          "type": "uint256"
        },
        {
          "internalType": "uint256",
          "name": "denominator",
          "type": "uint256"
        }
      ],
      "name": "PRBMath__MulDivOverflow",
      "type": "error"
    },
    {
      "inputs": [],
      "name": "PositionNetZero",
      "type": "error"
    },
    {
      "inputs": [],
      "name": "PositionNotSettled",
      "type": "error"
    },
    {
      "inputs": [],
      "name": "WithdrawalExceedsCurrentMargin",
      "type": "error"
    },
    {
      "inputs": [],
      "name": "closeToOrBeyondMaturity",
      "type": "error"
    },
    {
      "anonymous": false,
      "inputs": [
        {
          "indexed": false,
          "internalType": "uint256",
          "name": "_minSecondsSinceLastUpdate",
          "type": "uint256"
        }
      ],
      "name": "MinSecondsSinceLastUpdate",
      "type": "event"
    },
    {
      "anonymous": false,
      "inputs": [
        {
          "indexed": false,
          "internalType": "uint256",
          "name": "blockTimestampScaled",
          "type": "uint256"
        },
        {
          "indexed": false,
          "internalType": "address",
          "name": "source",
          "type": "address"
        },
        {
          "indexed": false,
          "internalType": "uint16",
          "name": "index",
          "type": "uint16"
        },
        {
          "indexed": false,
          "internalType": "uint32",
          "name": "blockTimestamp",
          "type": "uint32"
        },
        {
          "indexed": false,
          "internalType": "uint256",
          "name": "observedValue",
          "type": "uint256"
        },
        {
          "indexed": false,
          "internalType": "uint16",
          "name": "cardinality",
          "type": "uint16"
        },
        {
          "indexed": false,
          "internalType": "uint16",
          "name": "cardinalityNext",
          "type": "uint16"
        }
      ],
      "name": "OracleBufferUpdate",
      "type": "event"
    },
    {
      "anonymous": false,
      "inputs": [
        {
          "indexed": true,
          "internalType": "address",
          "name": "previousOwner",
          "type": "address"
        },
        {
          "indexed": true,
          "internalType": "address",
          "name": "newOwner",
          "type": "address"
        }
      ],
      "name": "OwnershipTransferred",
      "type": "event"
    },
    {
      "anonymous": false,
      "inputs": [
        {
          "indexed": false,
          "internalType": "uint16",
          "name": "observationCardinalityNextNew",
          "type": "uint16"
        }
      ],
      "name": "RateCardinalityNext",
      "type": "event"
    },
    {
      "inputs": [],
      "name": "ONE_IN_WAD",
      "outputs": [
        {
          "internalType": "uint256",
          "name": "",
          "type": "uint256"
        }
      ],
      "stateMutability": "view",
      "type": "function"
    },
    {
      "inputs": [],
      "name": "UNDERLYING_YIELD_BEARING_PROTOCOL_ID",
      "outputs": [
        {
          "internalType": "uint8",
          "name": "",
          "type": "uint8"
        }
      ],
      "stateMutability": "view",
      "type": "function"
    },
    {
      "inputs": [],
      "name": "aaveLendingPool",
      "outputs": [
        {
          "internalType": "contract IAaveV2LendingPool",
          "name": "",
          "type": "address"
        }
      ],
      "stateMutability": "view",
      "type": "function"
    },
    {
      "inputs": [
        {
          "internalType": "uint256",
          "name": "from",
          "type": "uint256"
        },
        {
          "internalType": "uint256",
          "name": "to",
          "type": "uint256"
        }
      ],
      "name": "getApyFromTo",
      "outputs": [
        {
          "internalType": "uint256",
          "name": "apyFromToWad",
          "type": "uint256"
        }
      ],
      "stateMutability": "view",
      "type": "function"
    },
    {
      "inputs": [
        {
          "internalType": "uint256",
          "name": "_from",
          "type": "uint256"
        },
        {
          "internalType": "uint256",
          "name": "_to",
          "type": "uint256"
        }
      ],
      "name": "getRateFromTo",
      "outputs": [
        {
          "internalType": "uint256",
          "name": "",
          "type": "uint256"
        }
      ],
      "stateMutability": "view",
      "type": "function"
    },
    {
      "inputs": [
        {
          "internalType": "uint16",
          "name": "rateCardinalityNext",
          "type": "uint16"
        }
      ],
      "name": "increaseObservationCardinalityNext",
      "outputs": [],
      "stateMutability": "nonpayable",
      "type": "function"
    },
    {
      "inputs": [
        {
          "internalType": "uint256",
          "name": "beforeOrAtRateValueRay",
          "type": "uint256"
        },
        {
          "internalType": "uint256",
          "name": "apyFromBeforeOrAtToAtOrAfterWad",
          "type": "uint256"
        },
        {
          "internalType": "uint256",
          "name": "timeDeltaBeforeOrAtToQueriedTimeWad",
          "type": "uint256"
        }
      ],
      "name": "interpolateRateValue",
      "outputs": [
        {
          "internalType": "uint256",
          "name": "rateValueRay",
          "type": "uint256"
        }
      ],
      "stateMutability": "pure",
      "type": "function"
    },
    {
      "inputs": [],
      "name": "minSecondsSinceLastUpdate",
      "outputs": [
        {
          "internalType": "uint256",
          "name": "",
          "type": "uint256"
        }
      ],
      "stateMutability": "view",
      "type": "function"
    },
    {
      "inputs": [
        {
          "internalType": "uint256",
          "name": "",
          "type": "uint256"
        }
      ],
      "name": "observations",
      "outputs": [
        {
          "internalType": "uint32",
          "name": "blockTimestamp",
          "type": "uint32"
        },
        {
          "internalType": "uint216",
          "name": "observedValue",
          "type": "uint216"
        },
        {
          "internalType": "bool",
          "name": "initialized",
          "type": "bool"
        }
      ],
      "stateMutability": "view",
      "type": "function"
    },
    {
      "inputs": [],
      "name": "oracleVars",
      "outputs": [
        {
          "internalType": "uint16",
          "name": "rateIndex",
          "type": "uint16"
        },
        {
          "internalType": "uint16",
          "name": "rateCardinality",
          "type": "uint16"
        },
        {
          "internalType": "uint16",
          "name": "rateCardinalityNext",
          "type": "uint16"
        }
      ],
      "stateMutability": "view",
      "type": "function"
    },
    {
      "inputs": [],
      "name": "owner",
      "outputs": [
        {
          "internalType": "address",
          "name": "",
          "type": "address"
        }
      ],
      "stateMutability": "view",
      "type": "function"
    },
    {
      "inputs": [],
      "name": "renounceOwnership",
      "outputs": [],
      "stateMutability": "nonpayable",
      "type": "function"
    },
    {
      "inputs": [
        {
          "internalType": "uint256",
          "name": "_minSecondsSinceLastUpdate",
          "type": "uint256"
        }
      ],
      "name": "setMinSecondsSinceLastUpdate",
      "outputs": [],
      "stateMutability": "nonpayable",
      "type": "function"
    },
    {
      "inputs": [
        {
          "internalType": "uint32",
          "name": "",
          "type": "uint32"
        },
        {
          "internalType": "uint32",
          "name": "",
          "type": "uint32"
        }
      ],
      "name": "settlementRateCache",
      "outputs": [
        {
          "internalType": "uint256",
          "name": "",
          "type": "uint256"
        }
      ],
      "stateMutability": "view",
      "type": "function"
    },
    {
      "inputs": [
        {
          "internalType": "address",
          "name": "newOwner",
          "type": "address"
        }
      ],
      "name": "transferOwnership",
      "outputs": [],
      "stateMutability": "nonpayable",
      "type": "function"
    },
    {
      "inputs": [],
      "name": "underlying",
      "outputs": [
        {
          "internalType": "contract IERC20Minimal",
          "name": "",
          "type": "address"
        }
      ],
      "stateMutability": "view",
      "type": "function"
    },
    {
      "inputs": [
        {
          "internalType": "uint256",
          "name": "termStartTimestampInWeiSeconds",
          "type": "uint256"
        },
        {
          "internalType": "uint256",
          "name": "termEndTimestampInWeiSeconds",
          "type": "uint256"
        }
      ],
      "name": "variableFactor",
      "outputs": [
        {
          "internalType": "uint256",
          "name": "resultWad",
          "type": "uint256"
        }
      ],
      "stateMutability": "nonpayable",
      "type": "function"
    },
    {
      "inputs": [
        {
          "internalType": "uint256",
          "name": "termStartTimestampInWeiSeconds",
          "type": "uint256"
        },
        {
          "internalType": "uint256",
          "name": "termEndTimestampInWeiSeconds",
          "type": "uint256"
        }
      ],
      "name": "variableFactorNoCache",
      "outputs": [
        {
          "internalType": "uint256",
          "name": "resultWad",
          "type": "uint256"
        }
      ],
      "stateMutability": "view",
      "type": "function"
    },
    {
      "inputs": [],
      "name": "writeOracleEntry",
      "outputs": [],
      "stateMutability": "nonpayable",
      "type": "function"
    }
  ],
  "transactionHash": "0x33650f6b86648c3a7c001ac197d585235169ceb3a771aeba2169204ccb6c279a",
  "args": [
    "0xE0fBa4Fc209b4948668006B2bE61711b7f465bAe",
    "0x13512979ADE267AB5100878E2e0f485B568328a4"
  ],
  "numDeployments": 1,
  "solcInputHash": "5758f2bc484cce506afaf5509146e92e",
  "bytecode": "0x60a06040523480156200001157600080fd5b5060405162002a1d38038062002a1d8339810160408190526200003491620003e8565b80620000403362000212565b6001600160a01b038116620000725760405162461bcd60e51b8152600401620000699062000427565b60405180910390fd5b6001600160a01b039081166080528216620000d05760405162461bcd60e51b815260206004820152601460248201527f6161766520706f6f6c206d757374206578697374000000000000000000000000604482015260640162000069565b6001600160a01b038116620000f95760405162461bcd60e51b8152600401620000699062000427565b6201000380546001600160a01b0319166001600160a01b03841617905560006200012e62000262602090811b620007c917901c565b620100035460405163d15e005360e01b81526001600160a01b0385811660048301529293506000929091169063d15e00539060240160206040518083038186803b1580156200017c57600080fd5b505afa15801562000191573d6000803e3d6000fd5b505050506040513d601f19601f82011682018060405250810190620001b791906200045e565b9050620001d6828260046200027460201b620007d9179092919060201c565b6003805465ffffffff0000191664010000000061ffff9384160263ffff0000191617620100009390921692909202179055506200047892505050565b600080546001600160a01b038381166001600160a01b0319831681178455604051919092169283917f8be0079c531659141344cd1fd0a4f28419497f9722a3daafe3b4186f6b6457e09190a35050565b60006200026f42620002f9565b905090565b60008062000283848462000340565b8051865460208301516040909301511515600160f81b026001600160f81b036001600160d81b03909416640100000000027fff0000000000000000000000000000000000000000000000000000000000000090921663ffffffff9093169290921717919091161790945550600193849350915050565b8063ffffffff811681146200033b5760405162461bcd60e51b815260206004820152600760248201526654534f464c4f5760c81b604482015260640162000069565b919050565b60408051606081018252600080825260208201819052918101919091526001600160d81b038211156200039f5760405162461bcd60e51b815260040162000069906020808252600490820152631f19189b60e11b604082015260600190565b506040805160608101825263ffffffff9390931683526001600160d81b0391909116602083015260019082015290565b6001600160a01b0381168114620003e557600080fd5b50565b60008060408385031215620003fc57600080fd5b82516200040981620003cf565b60208401519092506200041c81620003cf565b809150509250929050565b60208082526015908201527f756e6465726c79696e67206d7573742065786973740000000000000000000000604082015260600190565b6000602082840312156200047157600080fd5b5051919050565b608051612574620004a9600039600081816101e001528181610c8f01528181610f3e0152610fff01526125746000f3fe608060405234801561001057600080fd5b50600436106100f15760003560e01c80631195082e146100f657806322ff656814610134578063252c09d71461014e57806325f258dd1461018d57806332148f67146101a057806341453528146101b557806354124c64146101c85780636f307dc3146101db578063715018a61461020f5780637aa4db13146102175780637cf2cc9f1461021f5780638da5cb5b1461022857806393556dbd14610230578063bdb0509214610243578063c330c98d14610256578063c7db359b14610265578063e9d337b8146102ad578063f2fde38b146102c2578063f739670c146102d5575b600080fd5b61012161010436600461223f565b600160209081526000928352604080842090915290825290205481565b6040519081526020015b60405180910390f35b61013c600181565b60405160ff909116815260200161012b565b61016161015c366004612272565b6102e8565b6040805163ffffffff90941684526001600160d81b03909216602084015215159082015260600161012b565b61012161019b36600461228b565b610322565b6101b36101ae3660046122ad565b610390565b005b6101216101c336600461228b565b610415565b6101216101d63660046122d1565b610429565b6102027f000000000000000000000000000000000000000000000000000000000000000081565b60405161012b91906122fd565b6101b361047e565b6101b36104c2565b61012160025481565b61020261050f565b61012161023e36600461228b565b61051e565b6101b3610251366004612272565b6105ae565b610121670de0b6b3a764000081565b6003546102889061ffff80821691620100008104821691600160201b9091041683565b6040805161ffff9485168152928416602084015292169181019190915260600161012b565b6201000354610202906001600160a01b031681565b6101b36102d0366004612311565b610622565b6101216102e336600461228b565b6106bf565b60048161ffff81106102f957600080fd5b015463ffffffff81169150600160201b81046001600160d81b031690600160f81b900460ff1683565b60008061032f848461084a565b9092509050801561038857600061034d6103488661097b565b610989565b9050600061035d6103488661097b565b63ffffffff928316600090815260016020908152604080832095909316825293909352909120839055505b505b92915050565b600354600160201b900461ffff1660006103ac600483856109ce565b6003805461ffff808416600160201b810261ffff60201b19909316929092179092559192508316146104105760405161ffff821681527f8a96a9c4bca0fb28be0fc5c84e95aff121a64e2533021e9d638bdc1f03b14ece9060200160405180910390a15b505050565b6000610421838361084a565b509392505050565b60008061043583610ac3565b9050600061044b670de0b6b3a764000086612350565b905060006104598284610ada565b9050600061046682610b19565b90506104728882610b2a565b98975050505050505050565b3361048761050f565b6001600160a01b0316146104b65760405162461bcd60e51b81526004016104ad90612368565b60405180910390fd5b6104c06000610b79565b565b6003546104e79061ffff80821691620100008104821691600160201b90910416610bc9565b6003805463ffffffff19166201000061ffff9384160261ffff19161792909116919091179055565b6000546001600160a01b031690565b6000818311156105635760405162461bcd60e51b815260206004820152601060248201526f4d69736f72646572656420646174657360801b60448201526064016104ad565b600061056f84846106bf565b9050600061057d858561239d565b9050600061058a82610db1565b9050600061059782610ac3565b90506105a38482610dfe565b979650505050505050565b336105b761050f565b6001600160a01b0316146105dd5760405162461bcd60e51b81526004016104ad90612368565b806002541461061f5760028190556040518181527f88bd1242a1ad7dbba4967e0120324f17c382e4e3006e01dc3ffc0bf43e4b2a399060200160405180910390a15b50565b3361062b61050f565b6001600160a01b0316146106515760405162461bcd60e51b81526004016104ad90612368565b6001600160a01b0381166106b65760405162461bcd60e51b815260206004820152602660248201527f4f776e61626c653a206e6577206f776e657220697320746865207a65726f206160448201526564647265737360d01b60648201526084016104ad565b61061f81610b79565b6000818311156106fd5760405162461bcd60e51b815260206004820152600960248201526866726f6d203e20746f60b81b60448201526064016104ad565b8183141561070d5750600061038a565b60006107176107c9565b9050600061072485610989565b9050600061073185610989565b600354909150600090610755908590859061ffff8082169162010000900416610e63565b600354909150600090610779908690859061ffff8082169162010000900416610e63565b9050818111156107bb5760006107ad676765c793fa10079d601b1b61079e84866111e2565b6107a8919061239d565b611257565b965061038a95505050505050565b60009550505050505061038a565b60006107d442610989565b905090565b6000806107e684846112c5565b85600082519101805460208401516040909401511515600160f81b026001600160f81b036001600160d81b03909516600160201b026001600160f81b031990921663ffffffff9094169390931717929092161790555060019050805b935093915050565b600080600061085b6103488661097b565b9050600061086b6103488661097b565b905060008263ffffffff16118015610889575060008163ffffffff16115b6108bd5760405162461bcd60e51b8152602060048201526005602482015264554e49545360d81b60448201526064016104ad565b63ffffffff808316600090815260016020908152604080832093851683529290522054156109135763ffffffff808316600090815260016020908152604080832093851683529290529081205494509250610972565b8063ffffffff166109226107c9565b63ffffffff161061094e576109438263ffffffff168263ffffffff166106bf565b935060019250610972565b61096b8263ffffffff166109606107c9565b63ffffffff166106bf565b9350600192505b50509250929050565b670de0b6b3a7640000900490565b8063ffffffff811681146109c95760405162461bcd60e51b815260206004820152600760248201526654534f464c4f5760c81b60448201526064016104ad565b919050565b6000808361ffff1611610a075760405162461bcd60e51b81526020600482015260016024820152604960f81b60448201526064016104ad565b61ffff8261ffff1610610a4b5760405162461bcd60e51b815260206004820152600c60248201526b189d5999995c881b1a5b5a5d60a21b60448201526064016104ad565b8261ffff168261ffff1611610a61575081610abc565b825b8261ffff168161ffff161015610ab7576001858261ffff1661ffff8110610a8c57610a8c6123b4565b01805463ffffffff191663ffffffff9290921691909117905580610aaf816123e0565b915050610a63565b508190505b9392505050565b600061038a826a1a1601fc4ea7109e00000061133d565b600082610aff578115610aee576000610af8565b670de0b6b3a76400005b905061038a565b610abc610b14610b0e85611352565b84611402565b61140e565b600080610abc633b9aca0084612402565b6000821580610b37575081155b15610b445750600061038a565b676765c793fa10079d601b1b610b5b600282612421565b610b658486612402565b610b6f9190612350565b610abc9190612421565b600080546001600160a01b038381166001600160a01b0319831681178455604051919092169283917f8be0079c531659141344cd1fd0a4f28419497f9722a3daafe3b4186f6b6457e09190a35050565b600080600060048661ffff1661ffff8110610be657610be66123b4565b60408051606081018252929091015463ffffffff811683526001600160d81b03600160201b820416602084015260ff600160f81b9091041615159082015290506000610c306107c9565b9050816000015163ffffffff166002548263ffffffff16610c51919061239d565b1015610c64578686935093505050610842565b620100035460405163d15e005360e01b81526000916001600160a01b03169063d15e005390610cb7907f0000000000000000000000000000000000000000000000000000000000000000906004016122fd565b60206040518083038186803b158015610ccf57600080fd5b505afa158015610ce3573d6000803e3d6000fd5b505050506040513d601f19601f82011682018060405250810190610d079190612435565b905080610d275760405163bd89c5af60e01b815260040160405180910390fd5b7f5aec68e6980e788266f2f59f6fddb85f3e256ce6da46fdfab920b9b06aaa7375610d50611454565b6040805191825230602083015261ffff8b81168383015263ffffffff86166060840152608083018590528a811660a0840152891660c0830152519081900360e00190a1610da260048984848b8b61145f565b94509450505050935093915050565b60007812725dd1d243aba0e75fe645cc4873f9e65afe688c928e1f21821115610df057604051633492ffd960e01b8152600481018390526024016104ad565b50670de0b6b3a76400000290565b600082610e0d5750600061038a565b6000610e22610e1c6001610db1565b8461133d565b90506000610e4485610e346001610db1565b610e3e9190612350565b83610ada565b9050610e506001610db1565b610e5a908261239d565b95945050505050565b60008363ffffffff168563ffffffff161015610e9257604051632ff198e560e21b815260040160405180910390fd5b8363ffffffff168563ffffffff161415610fd457610eae61220b565b60048461ffff1661ffff8110610ec657610ec66123b4565b60408051606081018252919092015463ffffffff808216808452600160201b83046001600160d81b03166020850152600160f81b90920460ff1615159383019390935290925090871614610fbd57620100035460405163d15e005360e01b81526001600160a01b039091169063d15e005390610f66907f0000000000000000000000000000000000000000000000000000000000000000906004016122fd565b60206040518083038186803b158015610f7e57600080fd5b505afa158015610f92573d6000803e3d6000fd5b505050506040513d601f19601f82011682018060405250810190610fb69190612435565b9150610fce565b80602001516001600160d81b031691505b506111da565b620100035460405163d15e005360e01b81526000916001600160a01b03169063d15e005390611027907f0000000000000000000000000000000000000000000000000000000000000000906004016122fd565b60206040518083038186803b15801561103f57600080fd5b505afa158015611053573d6000803e3d6000fd5b505050506040513d601f19601f820116820180604052508101906110779190612435565b905060008061108b6004888a868a8a6115a7565b91509150816000015163ffffffff168763ffffffff1614156110bc5781602001516001600160d81b031693506111d6565b805163ffffffff888116911614156110e35780602001516001600160d81b031693506111d6565b600082602001516001600160d81b031682602001516001600160d81b03161115611152576000676765c793fa10079d601b1b61113984602001516001600160d81b031686602001516001600160d81b03166111e2565b611143919061239d565b905061114e81611257565b9150505b6000611183670de0b6b3a76400008551855161116e919061244e565b63ffffffff1661117e9190612402565b610ac3565b905060006111918383610dfe565b90506111d085602001516001600160d81b0316826111b4670de0b6b3a764000090565b88516111c0908f61244e565b63ffffffff166101d69190612402565b96505050505b5050505b949350505050565b604080518082019091526002815261035360f41b60208201526000908261121c5760405162461bcd60e51b81526004016104ad9190612473565b50600061122a600284612421565b90508281611243676765c793fa10079d601b1b87612402565b61124d9190612350565b6111da9190612421565b6000806112696002633b9aca00612421565b905060006112778483612350565b90508181101560405180604001604052806002815260200161343960f01b815250906112b65760405162461bcd60e51b81526004016104ad9190612473565b506111da633b9aca0082612421565b6112cd61220b565b6001600160d81b0382111561130d5760405162461bcd60e51b81526004016104ad906020808252600490820152631f19189b60e11b604082015260600190565b506040805160608101825263ffffffff9390931683526001600160d81b0391909116602083015260019082015290565b6000610abc83670de0b6b3a764000084611759565b6000670de0b6b3a764000082101561138057604051633621413760e21b8152600481018390526024016104ad565b6000611395670de0b6b3a76400008404611827565b670de0b6b3a7640000808202935090915083821c908114156113b8575050919050565b6706f05b59d3b200005b80156113fa57670de0b6b3a7640000828002049150671bc16d674ec8000082106113f2579283019260019190911c905b60011c6113c2565b505050919050565b6000610abc8383611905565b6000680a688906bd8b000000821061143c57604051634a4f26f160e01b8152600481018390526024016104ad565b670de0b6b3a7640000604083901b04610abc816119c7565b60006107d442610db1565b6000806000888861ffff1661ffff811061147b5761147b6123b4565b60408051606081018252919092015463ffffffff808216808452600160201b83046001600160d81b03166020850152600160f81b90920460ff1615159383019390935290925090881614156114d6578785925092505061159c565b8461ffff168461ffff161180156114fe57506114f36001866124c8565b61ffff168861ffff16145b1561150b5783915061150f565b8491505b8161151b8960016124e3565b6115259190612509565b925061153187876112c5565b898461ffff1661ffff8110611548576115486123b4565b82519101805460208401516040909401511515600160f81b026001600160f81b036001600160d81b03909516600160201b026001600160f81b031990921663ffffffff909416939093171792909216179055505b965096945050505050565b6115af61220b565b6115b761220b565b878461ffff1661ffff81106115ce576115ce6123b4565b60408051606081018252919092015463ffffffff808216808452600160201b83046001600160d81b03166020850152600160f81b90920460ff161515938301939093529093509088161061164d578663ffffffff16826000015163ffffffff1614156116395761159c565b8161164487876112c5565b9150915061159c565b878361165a8660016124e3565b6116649190612509565b61ffff1661ffff8110611679576116796123b4565b60408051606081018252919092015463ffffffff81168252600160201b81046001600160d81b03166020830152600160f81b900460ff16151591810182905292506116fe5760408051606081018252895463ffffffff81168252600160201b81046001600160d81b03166020830152600160f81b900460ff1615159181019190915291505b815163ffffffff8089169116111561173e5760405162461bcd60e51b815260206004820152600360248201526213d31160ea1b60448201526064016104ad565b61174a88888686612059565b91509150965096945050505050565b6000808060001985870985870292508281108382030391505080600014156117945783828161178a5761178a6123ca565b0492505050610abc565b8381106117be57604051631dcf306360e21b815260048101829052602481018590526044016104ad565b60008486880960026001871981018816978890046003810283188082028403028082028403028082028403028082028403028082028403029081029092039091026000889003889004909101858311909403939093029303949094049190911702949350505050565b6000600160801b821061184757608091821c916118449082612350565b90505b600160401b821061186557604091821c916118629082612350565b90505b600160201b821061188357602091821c916118809082612350565b90505b6201000082106118a057601091821c9161189d9082612350565b90505b61010082106118bc57600891821c916118b99082612350565b90505b601082106118d757600491821c916118d49082612350565b90505b600482106118f257600291821c916118ef9082612350565b90505b600282106109c95761038a600182612350565b60008080600019848609848602925082811083820303915050670de0b6b3a764000081106119495760405163698d9a0160e11b8152600481018290526024016104ad565b600080670de0b6b3a76400008688099150506706f05b59d3b1ffff8111826119835780670de0b6b3a764000085040194505050505061038a565b620400008285030493909111909103600160ee1b02919091177faccb18165bd6fe31ae1cf318dc5b51eee0e1ba569b88cd74c1773b91fac106690201905092915050565b600160bf1b6001603f1b8216156119e75768016a09e667f3bcc9090260401c5b6001603e1b821615611a02576801306fe0a31b7152df0260401c5b6001603d1b821615611a1d576801172b83c7d517adce0260401c5b6001603c1b821615611a385768010b5586cf9890f62a0260401c5b6001603b1b821615611a53576801059b0d31585743ae0260401c5b6001603a1b821615611a6e57680102c9a3e778060ee70260401c5b600160391b821615611a895768010163da9fb33356d80260401c5b600160381b821615611aa457680100b1afa5abcbed610260401c5b600160371b821615611abf5768010058c86da1c09ea20260401c5b600160361b821615611ada576801002c605e2e8cec500260401c5b600160351b821615611af557680100162f3904051fa10260401c5b600160341b821615611b10576801000b175effdc76ba0260401c5b600160331b821615611b2b57680100058ba01fb9f96d0260401c5b600160321b821615611b465768010002c5cc37da94920260401c5b600160311b821615611b61576801000162e525ee05470260401c5b600160301b821615611b7c5768010000b17255775c040260401c5b6001602f1b821615611b97576801000058b91b5bc9ae0260401c5b6001602e1b821615611bb257680100002c5c89d5ec6d0260401c5b6001602d1b821615611bcd5768010000162e43f4f8310260401c5b6001602c1b821615611be857680100000b1721bcfc9a0260401c5b6001602b1b821615611c035768010000058b90cf1e6e0260401c5b6001602a1b821615611c1e576801000002c5c863b73f0260401c5b600160291b821615611c3957680100000162e430e5a20260401c5b600160281b821615611c54576801000000b1721835510260401c5b600160271b821615611c6f57680100000058b90c0b490260401c5b600160261b821615611c8a5768010000002c5c8601cc0260401c5b600160251b821615611ca5576801000000162e42fff00260401c5b600160241b821615611cc05768010000000b17217fbb0260401c5b600160231b821615611cdb576801000000058b90bfce0260401c5b600160221b821615611cf657680100000002c5c85fe30260401c5b600160211b821615611d115768010000000162e42ff10260401c5b600160201b821615611d2c57680100000000b17217f80260401c5b6380000000821615611d475768010000000058b90bfc0260401c5b6340000000821615611d62576801000000002c5c85fe0260401c5b6320000000821615611d7d57680100000000162e42ff0260401c5b6310000000821615611d98576801000000000b17217f0260401c5b6308000000821615611db357680100000000058b90c00260401c5b6304000000821615611dce5768010000000002c5c8600260401c5b6302000000821615611de9576801000000000162e4300260401c5b6301000000821615611e045768010000000000b172180260401c5b62800000821615611e1e576801000000000058b90c0260401c5b62400000821615611e3857680100000000002c5c860260401c5b62200000821615611e525768010000000000162e430260401c5b62100000821615611e6c57680100000000000b17210260401c5b62080000821615611e865768010000000000058b910260401c5b62040000821615611ea0576801000000000002c5c80260401c5b62020000821615611eba57680100000000000162e40260401c5b62010000821615611ed35761b172600160401b010260401c5b618000821615611eeb576158b9600160401b010260401c5b614000821615611f0357612c5d600160401b010260401c5b612000821615611f1b5761162e600160401b010260401c5b611000821615611f3357610b17600160401b010260401c5b610800821615611f4b5761058c600160401b010260401c5b610400821615611f63576102c6600160401b010260401c5b610200821615611f7b57610163600160401b010260401c5b610100821615611f925760b1600160401b010260401c5b6080821615611fa8576059600160401b010260401c5b6040821615611fbe57602c600160401b010260401c5b6020821615611fd4576016600160401b010260401c5b6010821615611fea57600b600160401b010260401c5b6008821615612000576006600160401b010260401c5b6004821615612016576003600160401b010260401c5b600282161561202c576001600160401b010260401c5b6001821615612042576001600160401b010260401c5b670de0b6b3a76400000260409190911c60bf031c90565b61206161220b565b61206961220b565b6000836120778660016124e3565b6120819190612509565b61ffff169050600060018561ffff168361209b9190612350565b6120a5919061239d565b905060005b60016120b68385612350565b901c9050886120c961ffff88168361252a565b61ffff81106120da576120da6123b4565b60408051606081018252919092015463ffffffff81168252600160201b81046001600160d81b03166020830152600160f81b900460ff16151591810182905295506121315761212a816001612350565b92506120aa565b8861ffff8716612142836001612350565b61214c919061252a565b61ffff811061215d5761215d6123b4565b60408051606081018252919092015463ffffffff8082168352600160201b82046001600160d81b03166020840152600160f81b90910460ff16151592820192909252865190955089821691161180159081906121c95750846000015163ffffffff168963ffffffff1611155b156121d457506121ff565b806121eb576121e460018361239d565b92506121f9565b6121f6826001612350565b93505b506120aa565b50505094509492505050565b604080516060810182526000808252602082018190529181019190915290565b803563ffffffff811681146109c957600080fd5b6000806040838503121561225257600080fd5b61225b8361222b565b91506122696020840161222b565b90509250929050565b60006020828403121561228457600080fd5b5035919050565b6000806040838503121561229e57600080fd5b50508035926020909101359150565b6000602082840312156122bf57600080fd5b813561ffff81168114610abc57600080fd5b6000806000606084860312156122e657600080fd5b505081359360208301359350604090920135919050565b6001600160a01b0391909116815260200190565b60006020828403121561232357600080fd5b81356001600160a01b0381168114610abc57600080fd5b634e487b7160e01b600052601160045260246000fd5b600082198211156123635761236361233a565b500190565b6020808252818101527f4f776e61626c653a2063616c6c6572206973206e6f7420746865206f776e6572604082015260600190565b6000828210156123af576123af61233a565b500390565b634e487b7160e01b600052603260045260246000fd5b634e487b7160e01b600052601260045260246000fd5b600061ffff808316818114156123f8576123f861233a565b6001019392505050565b600081600019048311821515161561241c5761241c61233a565b500290565b600082612430576124306123ca565b500490565b60006020828403121561244757600080fd5b5051919050565b600063ffffffff8381169083168181101561246b5761246b61233a565b039392505050565b600060208083528351808285015260005b818110156124a057858101830151858201604001528201612484565b818111156124b2576000604083870101525b50601f01601f1916929092016040019392505050565b600061ffff8381169083168181101561246b5761246b61233a565b600061ffff8083168185168083038211156125005761250061233a565b01949350505050565b600061ffff8084168061251e5761251e6123ca565b92169190910692915050565b600082612539576125396123ca565b50069056fea26469706673582212204ff3f77b83125aa51936f0496aecf0d0113a675afa36e3990755176aea2d442964736f6c63430008090033",
  "devdoc": {
    "errors": {
      "AavePoolGetReserveNormalizedIncomeReturnedZero()": [
        {
          "details": "getReserveNormalizedIncome() returned zero for underlying asset. Oracle only supports active Aave-V2 assets."
        }
      ],
      "CanOnlyTradeIfUnlocked(bool)": [
        {
          "details": "Error which ensures the VAMM is unlocked"
        }
      ],
      "ExpectedOppositeSigns(int256,int256)": [
        {
          "details": "The two values were expected to have oppostite sigs, but do not"
        }
      ],
      "ExpectedSqrtPriceZeroBeforeInit(uint160)": [
        {
          "details": "Error which is reverted if the sqrt price of the vamm is non-zero before a vamm is initialized"
        }
      ],
      "IRSNotionalAmountSpecifiedMustBeNonZero()": [
        {
          "details": "Error which ensures the amount of notional specified when initiating an IRS contract (via the swap function in the vamm) is non-zero"
        }
      ],
      "LiquidityDeltaMustBePositiveInBurn(uint128)": [
        {
          "details": "Error which ensures the liquidity delta is positive if a given LP wishes to burn liquidity in the vamm"
        }
      ],
      "LiquidityDeltaMustBePositiveInMint(uint128)": [
        {
          "details": "Error which ensures the liquidity delta is positive if a given LP wishes to mint further liquidity in the vamm"
        }
      ],
      "MarginLessThanMinimum(int256)": [
        {
          "details": "Cannot have less margin than the minimum requirement"
        }
      ],
      "NotEnoughFunds(uint256,uint256)": [
        {
          "details": "There are not enough funds available for the requested operation"
        }
      ],
      "OOO()": [
        {
          "details": "currentTime < queriedTime"
        }
      ],
      "OnlyMarginEngine()": [
        {
          "details": "only the margin engine can run a certain function"
        }
      ],
      "PositionNetZero()": [
        {
          "details": "No need to unwind a net zero position"
        }
      ],
      "PositionNotSettled()": [
        {
          "details": "Position must be settled after AMM has reached maturity"
        }
      ],
      "WithdrawalExceedsCurrentMargin()": [
        {
          "details": "We can't withdraw more margin than we have"
        }
      ]
    },
    "kind": "dev",
    "methods": {
      "getApyFromTo(uint256,uint256)": {
        "details": "Reverts if we have no data point for either timestamp",
        "params": {
          "from": "The timestamp of the start of the period, in seconds",
          "to": "The timestamp of the end of the period, in seconds"
        }
      },
      "getRateFromTo(uint256,uint256)": {
        "details": "Reverts if we have no data point for either timestamp",
        "params": {
          "_from": "The timestamp of the start of the period, in seconds",
          "_to": "The timestamp of the end of the period, in seconds"
        },
        "returns": {
          "_0": "The \"floating rate\" expressed in Wad, e.g. 4% is encoded as 0.04*10**18 = 4*10**16"
        }
      },
      "increaseObservationCardinalityNext(uint16)": {
        "details": "This method is no-op if the RateOracle already has an observationCardinalityNext greater than or equal to the input observationCardinalityNext.",
        "params": {
          "rateCardinalityNext": "The desired minimum number of observations for the pool to store"
        }
      },
      "interpolateRateValue(uint256,uint256,uint256)": {
        "details": "Given [beforeOrAt, atOrAfter] where the timestamp for which the counterfactual is calculated is within that range (but does not touch any of the bounds)We can calculate the apy for [beforeOrAt, atOrAfter] --> refer to this value as apyFromBeforeOrAtToAtOrAfterThen we want a counterfactual rate value which results in apy_before_after if the apy is calculated between [beforeOrAt, timestampForCounterfactual]Hence (1+rateValueWei/beforeOrAtRateValueWei)^(1/timeInYears) = apyFromBeforeOrAtToAtOrAfterHence rateValueWei = beforeOrAtRateValueWei * (1+apyFromBeforeOrAtToAtOrAfter)^timeInYears - 1)",
        "params": {
          "apyFromBeforeOrAtToAtOrAfterWad": "Apy in the period between the timestamp of the beforeOrAt Rate and the atOrAfter Rate",
          "beforeOrAtRateValueRay": "Rate Value (in ray) before the timestamp for which we want to calculate the counterfactual rate value",
          "timeDeltaBeforeOrAtToQueriedTimeWad": "Time Delta (in wei seconds) between the timestamp of the beforeOrAt Rate and the atOrAfter Rate"
        },
        "returns": {
          "rateValueRay": "Counterfactual (interpolated) rate value in ray"
        }
      },
      "owner()": {
        "details": "Returns the address of the current owner."
      },
      "renounceOwnership()": {
        "details": "Leaves the contract without owner. It will not be possible to call `onlyOwner` functions anymore. Can only be called by the current owner. NOTE: Renouncing ownership will leave the contract without an owner, thereby removing any functionality that is only available to the owner."
      },
      "setMinSecondsSinceLastUpdate(uint256)": {
        "details": "Can only be set by the Factory Owner"
      },
      "transferOwnership(address)": {
        "details": "Transfers ownership of the contract to a new account (`newOwner`). Can only be called by the current owner."
      },
      "variableFactor(uint256,uint256)": {
        "details": "If the current block timestamp is beyond the maturity of the AMM, then the variableFactor is getRateFromTo(termStartTimestamp, termEndTimestamp). Term end timestamps are cached for quick retrieval later.If the current block timestamp is before the maturity of the AMM, then the variableFactor is getRateFromTo(termStartTimestamp,Time.blockTimestampScaled());if queried before maturity then returns the rate of return between pool initiation and current timestamp (in wad)if queried after maturity then returns the rate of return between pool initiation and maturity timestamp (in wad)",
        "returns": {
          "resultWad": "The variable factor"
        }
      },
      "variableFactorNoCache(uint256,uint256)": {
        "details": "If the current block timestamp is beyond the maturity of the AMM, then the variableFactor is getRateFromTo(termStartTimestamp, termEndTimestamp). No caching takes place.If the current block timestamp is before the maturity of the AMM, then the variableFactor is getRateFromTo(termStartTimestamp,Time.blockTimestampScaled());returns the variable rate of returnif queried before maturity then returns the rate of return between pool initiation and current timestamp (in wad)if queried after maturity then returns the rate of return between pool initiation and maturity timestamp (in wad)",
        "returns": {
          "resultWad": "The variable factor"
        }
      }
    },
    "stateVariables": {
      "UNDERLYING_YIELD_BEARING_PROTOCOL_ID": {
        "return": "yieldBearingProtocolID unique id of the underlying yield bearing protocol",
        "returns": {
          "_0": "yieldBearingProtocolID unique id of the underlying yield bearing protocol"
        }
      },
      "aaveLendingPool": {
        "return": "Address of the Aave Lending Pool",
        "returns": {
          "_0": "Address of the Aave Lending Pool"
        }
      }
    },
    "version": 1
  },
  "userdoc": {
    "errors": {
      "CannotLiquidate()": [
        {
          "notice": "The position/trader needs to be below the liquidation threshold to be liquidated"
        }
      ],
      "CannotSettleBeforeMaturity()": [
        {
          "notice": "Positions and Traders cannot be settled before the applicable interest rate swap has matured"
        }
      ],
      "InvalidMarginDelta()": [
        {
          "notice": "Margin delta must not equal zero"
        }
      ],
      "MarginRequirementNotMet(int256,int24,int256,int256,uint256,int256)": [
        {
          "notice": "The resulting margin does not meet minimum requirements"
        }
      ],
      "MarginRequirementNotMetFCM(int256)": [
        {
          "notice": "The resulting margin does not meet minimum requirements"
        }
      ],
      "OnlyOwnerCanUpdatePosition()": [
        {
          "notice": "Only the position/trade owner can update the LP/Trader margin"
        }
      ],
      "PRBMathUD60x18__Exp2InputTooBig(uint256)": [
        {
          "notice": "Emitted when the input is greater than 192."
        }
      ],
      "PRBMathUD60x18__FromUintOverflow(uint256)": [
        {
          "notice": "Emitted when converting a basic integer to the fixed-point format format overflows UD60x18."
        }
      ],
      "PRBMathUD60x18__LogInputTooSmall(uint256)": [
        {
          "notice": "Emitted when the input is less than 1."
        }
      ],
      "PRBMath__MulDivFixedPointOverflow(uint256)": [
        {
          "notice": "Emitted when the result overflows uint256."
        }
      ],
      "PRBMath__MulDivOverflow(uint256,uint256)": [
        {
          "notice": "Emitted when the result overflows uint256."
        }
      ]
    },
    "events": {
      "RateCardinalityNext(uint16)": {
        "notice": "Emitted by the rate oracle for increases to the number of observations that can be stored"
      }
    },
    "kind": "user",
    "methods": {
      "UNDERLYING_YIELD_BEARING_PROTOCOL_ID()": {
        "notice": "unique ID of the underlying yield bearing protocol (e.g. Aave v2 has id 1)"
      },
      "aaveLendingPool()": {
        "notice": "Gets the address of the Aave Lending Pool"
      },
      "getApyFromTo(uint256,uint256)": {
        "notice": "Calculates the observed APY returned by the rate oracle in a given period"
      },
      "getRateFromTo(uint256,uint256)": {
        "notice": "Calculates the observed interest returned by the underlying in a given period"
      },
      "increaseObservationCardinalityNext(uint16)": {
        "notice": "Increase the maximum number of rates observations that this RateOracle will store"
      },
      "interpolateRateValue(uint256,uint256,uint256)": {
        "notice": "Calculates the interpolated (counterfactual) rate value"
      },
      "observations(uint256)": {
        "notice": "the observations tracked over time by this oracle"
      },
      "setMinSecondsSinceLastUpdate(uint256)": {
        "notice": "Sets minSecondsSinceLastUpdate: The minimum number of seconds that need to pass since the last update to the rates array"
      },
      "settlementRateCache(uint32,uint32)": {
        "notice": "a cache of settlement rates for interest rate swaps associated with this rate oracle, indexed by start time and then end time"
      },
      "underlying()": {
        "notice": "Gets the address of the underlying token of the RateOracle"
      },
      "variableFactor(uint256,uint256)": {
        "notice": "Gets the variable factor between termStartTimestamp and termEndTimestamp"
      },
      "variableFactorNoCache(uint256,uint256)": {
        "notice": "Gets the variable factor between termStartTimestamp and termEndTimestamp"
      }
    },
    "version": 1
  },
  "storageLayout": {
    "storage": [
      {
        "astId": 1188,
        "contract": "contracts/rate_oracles/AaveRateOracle.sol:AaveRateOracle",
        "label": "_owner",
        "offset": 0,
        "slot": "0",
        "type": "t_address"
      },
      {
        "astId": 15192,
        "contract": "contracts/rate_oracles/AaveRateOracle.sol:AaveRateOracle",
        "label": "settlementRateCache",
        "offset": 0,
        "slot": "1",
        "type": "t_mapping(t_uint32,t_mapping(t_uint32,t_uint256))"
      },
      {
        "astId": 15211,
        "contract": "contracts/rate_oracles/AaveRateOracle.sol:AaveRateOracle",
        "label": "minSecondsSinceLastUpdate",
        "offset": 0,
        "slot": "2",
        "type": "t_uint256"
      },
      {
        "astId": 15214,
        "contract": "contracts/rate_oracles/AaveRateOracle.sol:AaveRateOracle",
        "label": "oracleVars",
        "offset": 0,
        "slot": "3",
        "type": "t_struct(OracleVars)15202_storage"
      },
      {
        "astId": 15220,
        "contract": "contracts/rate_oracles/AaveRateOracle.sol:AaveRateOracle",
        "label": "observations",
        "offset": 0,
        "slot": "4",
        "type": "t_array(t_struct(Observation)15614_storage)65535_storage"
      },
      {
        "astId": 14662,
        "contract": "contracts/rate_oracles/AaveRateOracle.sol:AaveRateOracle",
        "label": "aaveLendingPool",
        "offset": 0,
        "slot": "65539",
        "type": "t_contract(IAaveV2LendingPool)13602"
      }
    ],
    "types": {
      "t_address": {
        "encoding": "inplace",
        "label": "address",
        "numberOfBytes": "20"
      },
      "t_array(t_struct(Observation)15614_storage)65535_storage": {
        "base": "t_struct(Observation)15614_storage",
        "encoding": "inplace",
        "label": "struct OracleBuffer.Observation[65535]",
        "numberOfBytes": "2097120"
      },
      "t_bool": {
        "encoding": "inplace",
        "label": "bool",
        "numberOfBytes": "1"
      },
      "t_contract(IAaveV2LendingPool)13602": {
        "encoding": "inplace",
        "label": "contract IAaveV2LendingPool",
        "numberOfBytes": "20"
      },
      "t_mapping(t_uint32,t_mapping(t_uint32,t_uint256))": {
        "encoding": "mapping",
        "key": "t_uint32",
        "label": "mapping(uint32 => mapping(uint32 => uint256))",
        "numberOfBytes": "32",
        "value": "t_mapping(t_uint32,t_uint256)"
      },
      "t_mapping(t_uint32,t_uint256)": {
        "encoding": "mapping",
        "key": "t_uint32",
        "label": "mapping(uint32 => uint256)",
        "numberOfBytes": "32",
        "value": "t_uint256"
      },
      "t_struct(Observation)15614_storage": {
        "encoding": "inplace",
        "label": "struct OracleBuffer.Observation",
        "members": [
          {
            "astId": 15608,
            "contract": "contracts/rate_oracles/AaveRateOracle.sol:AaveRateOracle",
            "label": "blockTimestamp",
            "offset": 0,
            "slot": "0",
            "type": "t_uint32"
          },
          {
            "astId": 15611,
            "contract": "contracts/rate_oracles/AaveRateOracle.sol:AaveRateOracle",
            "label": "observedValue",
            "offset": 4,
            "slot": "0",
            "type": "t_uint216"
          },
          {
            "astId": 15613,
            "contract": "contracts/rate_oracles/AaveRateOracle.sol:AaveRateOracle",
            "label": "initialized",
            "offset": 31,
            "slot": "0",
            "type": "t_bool"
          }
        ],
        "numberOfBytes": "32"
      },
      "t_struct(OracleVars)15202_storage": {
        "encoding": "inplace",
        "label": "struct BaseRateOracle.OracleVars",
        "members": [
          {
            "astId": 15195,
            "contract": "contracts/rate_oracles/AaveRateOracle.sol:AaveRateOracle",
            "label": "rateIndex",
            "offset": 0,
            "slot": "0",
            "type": "t_uint16"
          },
          {
            "astId": 15198,
            "contract": "contracts/rate_oracles/AaveRateOracle.sol:AaveRateOracle",
            "label": "rateCardinality",
            "offset": 2,
            "slot": "0",
            "type": "t_uint16"
          },
          {
            "astId": 15201,
            "contract": "contracts/rate_oracles/AaveRateOracle.sol:AaveRateOracle",
            "label": "rateCardinalityNext",
            "offset": 4,
            "slot": "0",
            "type": "t_uint16"
          }
        ],
        "numberOfBytes": "32"
      },
      "t_uint16": {
        "encoding": "inplace",
        "label": "uint16",
        "numberOfBytes": "2"
      },
      "t_uint216": {
        "encoding": "inplace",
        "label": "uint216",
        "numberOfBytes": "27"
      },
      "t_uint256": {
        "encoding": "inplace",
        "label": "uint256",
        "numberOfBytes": "32"
      },
      "t_uint32": {
        "encoding": "inplace",
        "label": "uint32",
        "numberOfBytes": "4"
      }
    }
  }
}