{
  "address": "0x4cd7e3fF2bF87E848d2f2F178f613e1391e189B1",
  "abi": [
    {
      "inputs": [
        {
          "internalType": "contract IMarginEngine",
          "name": "_masterMarginEngine",
          "type": "address"
        },
        {
          "internalType": "contract IVAMM",
          "name": "_masterVAMM",
          "type": "address"
        }
      ],
      "stateMutability": "nonpayable",
      "type": "constructor"
    },
    {
      "inputs": [],
      "name": "AavePoolGetReserveNormalizedIncomeReturnedZero",
      "type": "error"
    },
    {
      "inputs": [
        {
          "internalType": "bool",
          "name": "unlocked",
          "type": "bool"
        }
      ],
      "name": "CanOnlyTradeIfUnlocked",
      "type": "error"
    },
    {
      "inputs": [],
      "name": "CannotLiquidate",
      "type": "error"
    },
    {
      "inputs": [],
      "name": "CannotSettleBeforeMaturity",
      "type": "error"
    },
    {
      "inputs": [
        {
          "internalType": "uint256",
          "name": "x",
          "type": "uint256"
        },
        {
          "internalType": "uint256",
          "name": "y",
          "type": "uint256"
        }
      ],
      "name": "DebugError",
      "type": "error"
    },
    {
      "inputs": [
        {
          "internalType": "int256",
          "name": "amount0",
          "type": "int256"
        },
        {
          "internalType": "int256",
          "name": "amount1",
          "type": "int256"
        }
      ],
      "name": "ExpectedOppositeSigns",
      "type": "error"
    },
    {
      "inputs": [
        {
          "internalType": "uint160",
          "name": "sqrtPriceX96",
          "type": "uint160"
        }
      ],
      "name": "ExpectedSqrtPriceZeroBeforeInit",
      "type": "error"
    },
    {
      "inputs": [],
      "name": "IRSNotionalAmountSpecifiedMustBeNonZero",
      "type": "error"
    },
    {
      "inputs": [],
      "name": "InvalidMarginDelta",
      "type": "error"
    },
    {
      "inputs": [
        {
          "internalType": "uint128",
          "name": "amount",
          "type": "uint128"
        }
      ],
      "name": "LiquidityDeltaMustBePositiveInBurn",
      "type": "error"
    },
    {
      "inputs": [
        {
          "internalType": "uint128",
          "name": "amount",
          "type": "uint128"
        }
      ],
      "name": "LiquidityDeltaMustBePositiveInMint",
      "type": "error"
    },
    {
      "inputs": [
        {
          "internalType": "int256",
          "name": "marginRequirement",
          "type": "int256"
        }
      ],
      "name": "MarginLessThanMinimum",
      "type": "error"
    },
    {
      "inputs": [
        {
          "internalType": "int256",
          "name": "marginRequirement",
          "type": "int256"
        },
        {
          "internalType": "int24",
          "name": "tick",
          "type": "int24"
        },
        {
          "internalType": "int256",
          "name": "fixedTokenDelta",
          "type": "int256"
        },
        {
          "internalType": "int256",
          "name": "variableTokenDelta",
          "type": "int256"
        },
        {
          "internalType": "uint256",
          "name": "cumulativeFeeIncurred",
          "type": "uint256"
        },
        {
          "internalType": "int256",
          "name": "fixedTokenDeltaUnbalanced",
          "type": "int256"
        }
      ],
      "name": "MarginRequirementNotMet",
      "type": "error"
    },
    {
      "inputs": [
        {
          "internalType": "int256",
          "name": "marginRequirement",
          "type": "int256"
        }
      ],
      "name": "MarginRequirementNotMetFCM",
      "type": "error"
    },
    {
      "inputs": [
        {
          "internalType": "uint256",
          "name": "requested",
          "type": "uint256"
        },
        {
          "internalType": "uint256",
          "name": "available",
          "type": "uint256"
        }
      ],
      "name": "NotEnoughFunds",
      "type": "error"
    },
    {
      "inputs": [],
      "name": "OOO",
      "type": "error"
    },
    {
      "inputs": [],
      "name": "OnlyFCM",
      "type": "error"
    },
    {
      "inputs": [],
      "name": "OnlyMarginEngine",
      "type": "error"
    },
    {
      "inputs": [],
      "name": "OnlyOwnerCanUpdatePosition",
      "type": "error"
    },
    {
      "inputs": [],
      "name": "OnlyVAMM",
      "type": "error"
    },
    {
      "inputs": [],
      "name": "PositionNetZero",
      "type": "error"
    },
    {
      "inputs": [],
      "name": "PositionNotSettled",
      "type": "error"
    },
    {
      "inputs": [],
      "name": "WithdrawalExceedsCurrentMargin",
      "type": "error"
    },
    {
      "inputs": [],
      "name": "closeToOrBeyondMaturity",
      "type": "error"
    },
    {
      "anonymous": false,
      "inputs": [
        {
          "indexed": true,
          "internalType": "address",
          "name": "owner",
          "type": "address"
        },
        {
          "indexed": true,
          "internalType": "address",
          "name": "intAddress",
          "type": "address"
        },
        {
          "indexed": true,
          "internalType": "bool",
          "name": "isApproved",
          "type": "bool"
        }
      ],
      "name": "Approval",
      "type": "event"
    },
    {
      "anonymous": false,
      "inputs": [
        {
          "indexed": true,
          "internalType": "contract IERC20Minimal",
          "name": "underlyingToken",
          "type": "address"
        },
        {
          "indexed": true,
          "internalType": "contract IRateOracle",
          "name": "rateOracle",
          "type": "address"
        },
        {
          "indexed": false,
          "internalType": "uint256",
          "name": "termStartTimestampWad",
          "type": "uint256"
        },
        {
          "indexed": false,
          "internalType": "uint256",
          "name": "termEndTimestampWad",
          "type": "uint256"
        },
        {
          "indexed": false,
          "internalType": "int24",
          "name": "tickSpacing",
          "type": "int24"
        },
        {
          "indexed": false,
          "internalType": "contract IMarginEngine",
          "name": "marginEngine",
          "type": "address"
        },
        {
          "indexed": false,
          "internalType": "contract IVAMM",
          "name": "vamm",
          "type": "address"
        },
        {
          "indexed": false,
          "internalType": "contract IFCM",
          "name": "fcm",
          "type": "address"
        },
        {
          "indexed": false,
          "internalType": "uint8",
          "name": "yieldBearingProtocolID",
          "type": "uint8"
        },
        {
          "indexed": false,
          "internalType": "uint8",
          "name": "underlyingTokenDecimals",
          "type": "uint8"
        }
      ],
      "name": "IrsInstance",
      "type": "event"
    },
    {
      "anonymous": false,
      "inputs": [
        {
          "indexed": false,
          "internalType": "contract IFCM",
          "name": "masterFCMAddress",
          "type": "address"
        },
        {
          "indexed": false,
          "internalType": "uint8",
          "name": "yieldBearingProtocolID",
          "type": "uint8"
        }
      ],
      "name": "MasterFCM",
      "type": "event"
    },
    {
      "anonymous": false,
      "inputs": [
        {
          "indexed": true,
          "internalType": "address",
          "name": "previousOwner",
          "type": "address"
        },
        {
          "indexed": true,
          "internalType": "address",
          "name": "newOwner",
          "type": "address"
        }
      ],
      "name": "OwnershipTransferred",
      "type": "event"
    },
    {
      "anonymous": false,
      "inputs": [
        {
          "indexed": false,
          "internalType": "contract IPeriphery",
          "name": "periphery",
          "type": "address"
        }
      ],
      "name": "PeripheryUpdate",
      "type": "event"
    },
    {
      "inputs": [
        {
          "internalType": "contract IERC20Minimal",
          "name": "_underlyingToken",
          "type": "address"
        },
        {
          "internalType": "contract IRateOracle",
          "name": "_rateOracle",
          "type": "address"
        },
        {
          "internalType": "uint256",
          "name": "_termStartTimestampWad",
          "type": "uint256"
        },
        {
          "internalType": "uint256",
          "name": "_termEndTimestampWad",
          "type": "uint256"
        },
        {
          "internalType": "int24",
          "name": "_tickSpacing",
          "type": "int24"
        }
      ],
      "name": "deployIrsInstance",
      "outputs": [
        {
          "internalType": "contract IMarginEngine",
          "name": "marginEngineProxy",
          "type": "address"
        },
        {
          "internalType": "contract IVAMM",
          "name": "vammProxy",
          "type": "address"
        },
        {
          "internalType": "contract IFCM",
          "name": "fcmProxy",
          "type": "address"
        }
      ],
      "stateMutability": "nonpayable",
      "type": "function"
    },
    {
      "inputs": [
        {
          "internalType": "address",
          "name": "_owner",
          "type": "address"
        },
        {
          "internalType": "address",
          "name": "_intAddress",
          "type": "address"
        }
      ],
      "name": "isApproved",
      "outputs": [
        {
          "internalType": "bool",
          "name": "",
          "type": "bool"
        }
      ],
      "stateMutability": "view",
      "type": "function"
    },
    {
      "inputs": [
        {
          "internalType": "uint8",
          "name": "",
          "type": "uint8"
        }
      ],
      "name": "masterFCMs",
      "outputs": [
        {
          "internalType": "contract IFCM",
          "name": "",
          "type": "address"
        }
      ],
      "stateMutability": "view",
      "type": "function"
    },
    {
      "inputs": [],
      "name": "masterMarginEngine",
      "outputs": [
        {
          "internalType": "contract IMarginEngine",
          "name": "",
          "type": "address"
        }
      ],
      "stateMutability": "view",
      "type": "function"
    },
    {
      "inputs": [],
      "name": "masterVAMM",
      "outputs": [
        {
          "internalType": "contract IVAMM",
          "name": "",
          "type": "address"
        }
      ],
      "stateMutability": "view",
      "type": "function"
    },
    {
      "inputs": [],
      "name": "owner",
      "outputs": [
        {
          "internalType": "address",
          "name": "",
          "type": "address"
        }
      ],
      "stateMutability": "view",
      "type": "function"
    },
    {
      "inputs": [],
      "name": "periphery",
      "outputs": [
        {
          "internalType": "contract IPeriphery",
          "name": "",
          "type": "address"
        }
      ],
      "stateMutability": "view",
      "type": "function"
    },
    {
      "inputs": [],
      "name": "renounceOwnership",
      "outputs": [],
      "stateMutability": "nonpayable",
      "type": "function"
    },
    {
      "inputs": [
        {
          "internalType": "address",
          "name": "intAddress",
          "type": "address"
        },
        {
          "internalType": "bool",
          "name": "allowIntegration",
          "type": "bool"
        }
      ],
      "name": "setApproval",
      "outputs": [],
      "stateMutability": "nonpayable",
      "type": "function"
    },
    {
      "inputs": [
        {
          "internalType": "contract IFCM",
          "name": "_masterFCM",
          "type": "address"
        },
        {
          "internalType": "uint8",
          "name": "_yieldBearingProtocolID",
          "type": "uint8"
        }
      ],
      "name": "setMasterFCM",
      "outputs": [],
      "stateMutability": "nonpayable",
      "type": "function"
    },
    {
      "inputs": [
        {
          "internalType": "contract IMarginEngine",
          "name": "_masterMarginEngine",
          "type": "address"
        }
      ],
      "name": "setMasterMarginEngine",
      "outputs": [],
      "stateMutability": "nonpayable",
      "type": "function"
    },
    {
      "inputs": [
        {
          "internalType": "contract IVAMM",
          "name": "_masterVAMM",
          "type": "address"
        }
      ],
      "name": "setMasterVAMM",
      "outputs": [],
      "stateMutability": "nonpayable",
      "type": "function"
    },
    {
      "inputs": [
        {
          "internalType": "contract IPeriphery",
          "name": "_periphery",
          "type": "address"
        }
      ],
      "name": "setPeriphery",
      "outputs": [],
      "stateMutability": "nonpayable",
      "type": "function"
    },
    {
      "inputs": [
        {
          "internalType": "address",
          "name": "newOwner",
          "type": "address"
        }
      ],
      "name": "transferOwnership",
      "outputs": [],
      "stateMutability": "nonpayable",
      "type": "function"
    }
  ],
  "transactionHash": "0xa3623a1e555b618990741e6a1199eb32a3959d05bcb9da541d210e3105f517ed",
  "args": [
    "0x82ea0A9c578042154188D635D9C0E2e13FF6E846",
    "0x684726e3404287781968adbef01e06e9a3613e53"
  ],
  "numDeployments": 1,
  "solcInputHash": "5758f2bc484cce506afaf5509146e92e",
  "bytecode": "0x60806040523480156200001157600080fd5b5060405162001afe38038062001afe83398101604081905262000034916200018e565b6200003f3362000125565b6001600160a01b0382166200009b5760405162461bcd60e51b815260206004820152601460248201527f6d6173746572206d65206d75737420657869737400000000000000000000000060448201526064015b60405180910390fd5b6001600160a01b038116620000f35760405162461bcd60e51b815260206004820152601660248201527f6d61737465722076616d6d206d75737420657869737400000000000000000000604482015260640162000092565b600180546001600160a01b039384166001600160a01b03199182161790915560028054929093169116179055620001cd565b600080546001600160a01b038381166001600160a01b0319831681178455604051919092169283917f8be0079c531659141344cd1fd0a4f28419497f9722a3daafe3b4186f6b6457e09190a35050565b6001600160a01b03811681146200018b57600080fd5b50565b60008060408385031215620001a257600080fd5b8251620001af8162000175565b6020840151909250620001c28162000175565b809150509250929050565b61192180620001dd6000396000f3fe60806040523480156200001157600080fd5b5060043610620000ca5760003560e01c80630e8a064814620000cf578063715018a6146200011557806377aace1a14620001215780638da5cb5b146200014457806394a9b1f7146200014e57806395858f981462000165578063973cd931146200017c5780639fe1b3541462000193578063a389783e14620001a7578063aeb2293414620001cf578063ca5183b714620001e6578063db9b71701462000212578063f2fde38b1462000229578063febfe75e1462000240575b600080fd5b620000e6620000e036600462000f43565b62000254565b604080516001600160a01b03948516815292841660208401529216918101919091526060015b60405180910390f35b6200011f62000938565b005b60055462000135906001600160a01b031681565b6040516200010c919062000faf565b620001356200097a565b6200011f6200015f36600462000fc3565b62000989565b6200011f6200017636600462000ffa565b62000a43565b6200011f6200018d36600462000fc3565b62000b34565b60015462000135906001600160a01b031681565b620001be620001b836600462001038565b62000bed565b60405190151581526020016200010c565b6200011f620001e036600462000fc3565b62000cdc565b62000135620001f73660046200106b565b6003602052600090815260409020546001600160a01b031681565b6200011f620002233660046200108b565b62000dce565b6200011f6200023a36600462000fc3565b62000e2e565b60025462000135906001600160a01b031681565b6000808033620002636200097a565b6001600160a01b031614620002955760405162461bcd60e51b81526004016200028c90620010c2565b60405180910390fd5b6001546040516000916001600160a01b031690620002b39062000f1f565b620002bf9190620010f7565b604051809103906000f080158015620002dc573d6000803e3d6000fd5b506002546040519192506000916001600160a01b0390911690620003009062000f1f565b6200030c9190620010f7565b604051809103906000f08015801562000329573d6000803e3d6000fd5b5060405163eb990c5960e01b81526001600160a01b038c811660048301528b81166024830152604482018b9052606482018a90529192509083169063eb990c5990608401600060405180830381600087803b1580156200038857600080fd5b505af11580156200039d573d6000803e3d6000fd5b5050604051631b325b2160e31b81526001600160a01b03858116600483015260028a900b60248301528416925063d992d9089150604401600060405180830381600087803b158015620003ef57600080fd5b505af115801562000404573d6000803e3d6000fd5b50506040516331d81ea760e21b81526001600160a01b038516925063c7607a9c91506200043690849060040162000faf565b600060405180830381600087803b1580156200045157600080fd5b505af115801562000466573d6000803e3d6000fd5b5050505060008990508a6001600160a01b0316816001600160a01b0316636f307dc36040518163ffffffff1660e01b815260040160206040518083038186803b158015620004b357600080fd5b505afa158015620004c8573d6000803e3d6000fd5b505050506040513d601f19601f82011682018060405250810190620004ee91906200111a565b6001600160a01b0316146200053c5760405162461bcd60e51b81526020600482015260136024820152720a8ded6cadce640c8de40dcdee840dac2e8c6d606b1b60448201526064016200028c565b6000816001600160a01b03166322ff65686040518163ffffffff1660e01b815260040160206040518083038186803b1580156200057857600080fd5b505afa1580156200058d573d6000803e3d6000fd5b505050506040513d601f19601f82011682018060405250810190620005b391906200113a565b60ff81166000908152600360205260408120549192506001600160a01b03909116908115620007435781604051620005eb9062000f1f565b620005f79190620010f7565b604051809103906000f08015801562000614573d6000803e3d6000fd5b5060405163485cc95560e01b81526001600160a01b03878116600483015288811660248301529192509082169063485cc95590604401600060405180830381600087803b1580156200066557600080fd5b505af11580156200067a573d6000803e3d6000fd5b505060405163534d337560e01b81526001600160a01b038916925063534d33759150620006ac90849060040162000faf565b600060405180830381600087803b158015620006c757600080fd5b505af1158015620006dc573d6000803e3d6000fd5b505060405163f2fde38b60e01b81526001600160a01b038416925063f2fde38b91506200070e90339060040162000faf565b600060405180830381600087803b1580156200072957600080fd5b505af11580156200073e573d6000803e3d6000fd5b505050505b60008e6001600160a01b031663313ce5676040518163ffffffff1660e01b815260040160206040518083038186803b1580156200077f57600080fd5b505afa15801562000794573d6000803e3d6000fd5b505050506040513d601f19601f82011682018060405250810190620007ba91906200113a565b90508d6001600160a01b03168f6001600160a01b03167fe134804702afa0f02bd7f0687d4c2f662a1790b4904d1c2cd6f41fcffbfc05c38f8f8f8c8c898c8a60405162000854989796959493929190978852602088019690965260029490940b60408701526001600160a01b03928316606087015290821660808601521660a084015260ff90811660c08401521660e08201526101000190565b60405180910390a360405163f2fde38b60e01b81526001600160a01b0387169063f2fde38b906200088a90339060040162000faf565b600060405180830381600087803b158015620008a557600080fd5b505af1158015620008ba573d6000803e3d6000fd5b505060405163f2fde38b60e01b81526001600160a01b038a16925063f2fde38b9150620008ec90339060040162000faf565b600060405180830381600087803b1580156200090757600080fd5b505af11580156200091c573d6000803e3d6000fd5b50989b5096995091975050505050505050955095509592505050565b33620009436200097a565b6001600160a01b0316146200096c5760405162461bcd60e51b81526004016200028c90620010c2565b62000978600062000ecf565b565b6000546001600160a01b031690565b33620009946200097a565b6001600160a01b031614620009bd5760405162461bcd60e51b81526004016200028c90620010c2565b6001600160a01b03811662000a0e5760405162461bcd60e51b81526020600482015260166024820152751b585cdd195c881d985b5b481b5d5cdd08195e1a5cdd60521b60448201526064016200028c565b6002546001600160a01b0382811691161462000a4057600280546001600160a01b0319166001600160a01b0383161790555b50565b3362000a4e6200097a565b6001600160a01b03161462000a775760405162461bcd60e51b81526004016200028c90620010c2565b6001600160a01b03821662000ac75760405162461bcd60e51b81526020600482015260156024820152741b585cdd195c881998db481b5d5cdd08195e1a5cdd605a1b60448201526064016200028c565b60ff811660008181526003602090815260409182902080546001600160a01b0319166001600160a01b0387169081179091558251908152908101929092527fcece9976caa53e350e3311c87df72b4ed94d768ba03a4688cdf331121bf613c2910160405180910390a15050565b3362000b3f6200097a565b6001600160a01b03161462000b685760405162461bcd60e51b81526004016200028c90620010c2565b6001600160a01b03811662000bb75760405162461bcd60e51b81526020600482015260146024820152731b585cdd195c881b59481b5d5cdd08195e1a5cdd60621b60448201526064016200028c565b6001546001600160a01b0382811691161462000a4057600180546001600160a01b0383166001600160a01b031990911617905550565b60006001600160a01b03831662000c3e5760405162461bcd60e51b81526020600482015260146024820152731bdddb995c88191bd95cc81b9bdd08195e1a5cdd60621b60448201526064016200028c565b6001600160a01b03821662000c8b5760405162461bcd60e51b81526020600482015260126024820152711a5b9d08191bd95cc81b9bdd08195e1a5cdd60721b60448201526064016200028c565b6005546001600160a01b038381169116141562000cab5750600162000cd6565b506001600160a01b0380831660009081526004602090815260408083209385168352929052205460ff165b92915050565b3362000ce76200097a565b6001600160a01b03161462000d105760405162461bcd60e51b81526004016200028c90620010c2565b6001600160a01b03811662000d5f5760405162461bcd60e51b81526020600482015260146024820152731c195c9a5c1a195c9e481b5d5cdd08195e1a5cdd60621b60448201526064016200028c565b6005546001600160a01b0382811691161462000a4057600580546001600160a01b0319166001600160a01b0383169081179091556040517f9d41c928e1b7d55eb20c9906b2cc3223035dd4dc2c59e5fcd2282e857db1b0509162000dc39162000faf565b60405180910390a150565b3360008181526004602090815260408083206001600160a01b0387168085529252808320805460ff19168615159081179091559051909391927f1d3e246ebbc933bf65d3290db9f93d67ab91a12d2b19308a35806e04d1c174c591a45050565b3362000e396200097a565b6001600160a01b03161462000e625760405162461bcd60e51b81526004016200028c90620010c2565b6001600160a01b03811662000ec95760405162461bcd60e51b815260206004820152602660248201527f4f776e61626c653a206e6577206f776e657220697320746865207a65726f206160448201526564647265737360d01b60648201526084016200028c565b62000a40815b600080546001600160a01b038381166001600160a01b0319831681178455604051919092169283917f8be0079c531659141344cd1fd0a4f28419497f9722a3daafe3b4186f6b6457e09190a35050565b610791806200115b83390190565b6001600160a01b038116811462000a4057600080fd5b600080600080600060a0868803121562000f5c57600080fd5b853562000f698162000f2d565b9450602086013562000f7b8162000f2d565b935060408601359250606086013591506080860135600281900b811462000fa157600080fd5b809150509295509295909350565b6001600160a01b0391909116815260200190565b60006020828403121562000fd657600080fd5b813562000fe38162000f2d565b9392505050565b60ff8116811462000a4057600080fd5b600080604083850312156200100e57600080fd5b82356200101b8162000f2d565b915060208301356200102d8162000fea565b809150509250929050565b600080604083850312156200104c57600080fd5b8235620010598162000f2d565b915060208301356200102d8162000f2d565b6000602082840312156200107e57600080fd5b813562000fe38162000fea565b600080604083850312156200109f57600080fd5b8235620010ac8162000f2d565b9150602083013580151581146200102d57600080fd5b6020808252818101527f4f776e61626c653a2063616c6c6572206973206e6f7420746865206f776e6572604082015260600190565b6001600160a01b0391909116815260406020820181905260009082015260600190565b6000602082840312156200112d57600080fd5b815162000fe38162000f2d565b6000602082840312156200114d57600080fd5b815162000fe38162000fea56fe60806040526040516107913803806107918339810160408190526100229161033b565b818161004f60017f360894a13ba1a3210667c828492db98dca3e2076cc3735a920a3ca505d382bbd610409565b60008051602061074a8339815191521461006b5761006b61042e565b61007782826000610080565b50505050610493565b610089836100b6565b6000825111806100965750805b156100b1576100af83836100f660201b6100291760201c565b505b505050565b6100bf81610122565b6040516001600160a01b038216907fbc7cd75a20ee27fd9adebab32041f755214dbc6bffa90cc0225b39da2e5c2d3b90600090a250565b606061011b838360405180606001604052806027815260200161076a602791396101e2565b9392505050565b610135816102b760201b6100551760201c565b61019c5760405162461bcd60e51b815260206004820152602d60248201527f455243313936373a206e657720696d706c656d656e746174696f6e206973206e60448201526c1bdd08184818dbdb9d1c9858dd609a1b60648201526084015b60405180910390fd5b806101c160008051602061074a83398151915260001b6102bd60201b61005b1760201c565b80546001600160a01b0319166001600160a01b039290921691909117905550565b6060833b6102415760405162461bcd60e51b815260206004820152602660248201527f416464726573733a2064656c65676174652063616c6c20746f206e6f6e2d636f6044820152651b9d1c9858dd60d21b6064820152608401610193565b600080856001600160a01b03168560405161025c9190610444565b600060405180830381855af49150503d8060008114610297576040519150601f19603f3d011682016040523d82523d6000602084013e61029c565b606091505b5090925090506102ad8282866102c0565b9695505050505050565b3b151590565b90565b606083156102cf57508161011b565b8251156102df5782518084602001fd5b8160405162461bcd60e51b81526004016101939190610460565b634e487b7160e01b600052604160045260246000fd5b60005b8381101561032a578181015183820152602001610312565b838111156100af5750506000910152565b6000806040838503121561034e57600080fd5b82516001600160a01b038116811461036557600080fd5b60208401519092506001600160401b038082111561038257600080fd5b818501915085601f83011261039657600080fd5b8151818111156103a8576103a86102f9565b604051601f8201601f19908116603f011681019083821181831017156103d0576103d06102f9565b816040528281528860208487010111156103e957600080fd5b6103fa83602083016020880161030f565b80955050505050509250929050565b60008282101561042957634e487b7160e01b600052601160045260246000fd5b500390565b634e487b7160e01b600052600160045260246000fd5b6000825161045681846020870161030f565b9190910192915050565b602081526000825180602084015261047f81604085016020870161030f565b601f01601f19169190910160400192915050565b6102a8806104a26000396000f3fe60806040523661001357610011610017565b005b6100115b61002761002261005e565b610096565b565b606061004e838360405180606001604052806027815260200161024c602791396100ba565b9392505050565b3b151590565b90565b60006100917f360894a13ba1a3210667c828492db98dca3e2076cc3735a920a3ca505d382bbc546001600160a01b031690565b905090565b3660008037600080366000845af43d6000803e8080156100b5573d6000f35b3d6000fd5b6060833b61011e5760405162461bcd60e51b815260206004820152602660248201527f416464726573733a2064656c65676174652063616c6c20746f206e6f6e2d636f6044820152651b9d1c9858dd60d21b60648201526084015b60405180910390fd5b600080856001600160a01b03168560405161013991906101fc565b600060405180830381855af49150503d8060008114610174576040519150601f19603f3d011682016040523d82523d6000602084013e610179565b606091505b5091509150610189828286610193565b9695505050505050565b606083156101a257508161004e565b8251156101b25782518084602001fd5b8160405162461bcd60e51b81526004016101159190610218565b60005b838110156101e75781810151838201526020016101cf565b838111156101f6576000848401525b50505050565b6000825161020e8184602087016101cc565b9190910192915050565b60208152600082518060208401526102378160408501602087016101cc565b601f01601f1916919091016040019291505056fe416464726573733a206c6f772d6c6576656c2064656c65676174652063616c6c206661696c6564a26469706673582212207b46f7ec71845dd83c67bd877c7f6e3cb461424af33966618717e1db5f7bd13564736f6c63430008090033360894a13ba1a3210667c828492db98dca3e2076cc3735a920a3ca505d382bbc416464726573733a206c6f772d6c6576656c2064656c65676174652063616c6c206661696c6564a26469706673582212206f726e71baab854994502c4bf0d26f6fa1b142dc603884f51ad1117cc6aada2264736f6c63430008090033",
  "devdoc": {
    "errors": {
      "AavePoolGetReserveNormalizedIncomeReturnedZero()": [
        {
          "details": "getReserveNormalizedIncome() returned zero for underlying asset. Oracle only supports active Aave-V2 assets."
        }
      ],
      "CanOnlyTradeIfUnlocked(bool)": [
        {
          "details": "Error which ensures the VAMM is unlocked"
        }
      ],
      "ExpectedOppositeSigns(int256,int256)": [
        {
          "details": "The two values were expected to have oppostite sigs, but do not"
        }
      ],
      "ExpectedSqrtPriceZeroBeforeInit(uint160)": [
        {
          "details": "Error which is reverted if the sqrt price of the vamm is non-zero before a vamm is initialized"
        }
      ],
      "IRSNotionalAmountSpecifiedMustBeNonZero()": [
        {
          "details": "Error which ensures the amount of notional specified when initiating an IRS contract (via the swap function in the vamm) is non-zero"
        }
      ],
      "LiquidityDeltaMustBePositiveInBurn(uint128)": [
        {
          "details": "Error which ensures the liquidity delta is positive if a given LP wishes to burn liquidity in the vamm"
        }
      ],
      "LiquidityDeltaMustBePositiveInMint(uint128)": [
        {
          "details": "Error which ensures the liquidity delta is positive if a given LP wishes to mint further liquidity in the vamm"
        }
      ],
      "MarginLessThanMinimum(int256)": [
        {
          "details": "Cannot have less margin than the minimum requirement"
        }
      ],
      "NotEnoughFunds(uint256,uint256)": [
        {
          "details": "There are not enough funds available for the requested operation"
        }
      ],
      "OOO()": [
        {
          "details": "currentTime < queriedTime"
        }
      ],
      "OnlyMarginEngine()": [
        {
          "details": "only the margin engine can run a certain function"
        }
      ],
      "PositionNetZero()": [
        {
          "details": "No need to unwind a net zero position"
        }
      ],
      "PositionNotSettled()": [
        {
          "details": "Position must be settled after AMM has reached maturity"
        }
      ],
      "WithdrawalExceedsCurrentMargin()": [
        {
          "details": "We can't withdraw more margin than we have"
        }
      ]
    },
    "kind": "dev",
    "methods": {
      "owner()": {
        "details": "Returns the address of the current owner."
      },
      "renounceOwnership()": {
        "details": "Leaves the contract without owner. It will not be possible to call `onlyOwner` functions anymore. Can only be called by the current owner. NOTE: Renouncing ownership will leave the contract without an owner, thereby removing any functionality that is only available to the owner."
      },
      "transferOwnership(address)": {
        "details": "Transfers ownership of the contract to a new account (`newOwner`). Can only be called by the current owner."
      }
    },
    "stateVariables": {
      "_isApproved": {
        "details": "owner --> integration contract address --> isApprovedif an owner wishes to allow a given intergration contract to act on thir behalf with Voltz Corethey need to set the approval via the setApproval function"
      },
      "masterFCMs": {
        "details": "yieldBearingProtocolID --> master FCM implementation for the underlying yield bearing protocol with the corresponding id"
      },
      "masterMarginEngine": {
        "details": "master MarginEngine implementation that MarginEngine proxies can delegate call to"
      },
      "masterVAMM": {
        "details": "master VAMM implementation that VAMM proxies can delegate call to"
      },
      "periphery": {
        "details": "Voltz Periphery"
      }
    },
    "title": "Voltz Factory Contract",
    "version": 1
  },
  "userdoc": {
    "errors": {
      "CannotLiquidate()": [
        {
          "notice": "The position/trader needs to be below the liquidation threshold to be liquidated"
        }
      ],
      "CannotSettleBeforeMaturity()": [
        {
          "notice": "Positions and Traders cannot be settled before the applicable interest rate swap has matured"
        }
      ],
      "InvalidMarginDelta()": [
        {
          "notice": "Margin delta must not equal zero"
        }
      ],
      "MarginRequirementNotMet(int256,int24,int256,int256,uint256,int256)": [
        {
          "notice": "The resulting margin does not meet minimum requirements"
        }
      ],
      "MarginRequirementNotMetFCM(int256)": [
        {
          "notice": "The resulting margin does not meet minimum requirements"
        }
      ],
      "OnlyOwnerCanUpdatePosition()": [
        {
          "notice": "Only the position/trade owner can update the LP/Trader margin"
        }
      ]
    },
    "kind": "user",
    "methods": {
      "deployIrsInstance(address,address,uint256,uint256,int24)": {
        "notice": "Deploys the contracts required for a new Interest Rate Swap instance"
      }
    },
    "notice": "Deploys Voltz VAMMs and MarginEngines and manages ownership and control over amm protocol fees",
    "version": 1
  },
  "storageLayout": {
    "storage": [
      {
        "astId": 1188,
        "contract": "contracts/Factory.sol:Factory",
        "label": "_owner",
        "offset": 0,
        "slot": "0",
        "type": "t_address"
      },
      {
        "astId": 4518,
        "contract": "contracts/Factory.sol:Factory",
        "label": "masterMarginEngine",
        "offset": 0,
        "slot": "1",
        "type": "t_contract(IMarginEngine)13002"
      },
      {
        "astId": 4523,
        "contract": "contracts/Factory.sol:Factory",
        "label": "masterVAMM",
        "offset": 0,
        "slot": "2",
        "type": "t_contract(IVAMM)13505"
      },
      {
        "astId": 4530,
        "contract": "contracts/Factory.sol:Factory",
        "label": "masterFCMs",
        "offset": 0,
        "slot": "3",
        "type": "t_mapping(t_uint8,t_contract(IFCM)13761)"
      },
      {
        "astId": 4537,
        "contract": "contracts/Factory.sol:Factory",
        "label": "_isApproved",
        "offset": 0,
        "slot": "4",
        "type": "t_mapping(t_address,t_mapping(t_address,t_bool))"
      },
      {
        "astId": 4542,
        "contract": "contracts/Factory.sol:Factory",
        "label": "periphery",
        "offset": 0,
        "slot": "5",
        "type": "t_contract(IPeriphery)13114"
      }
    ],
    "types": {
      "t_address": {
        "encoding": "inplace",
        "label": "address",
        "numberOfBytes": "20"
      },
      "t_bool": {
        "encoding": "inplace",
        "label": "bool",
        "numberOfBytes": "1"
      },
      "t_contract(IFCM)13761": {
        "encoding": "inplace",
        "label": "contract IFCM",
        "numberOfBytes": "20"
      },
      "t_contract(IMarginEngine)13002": {
        "encoding": "inplace",
        "label": "contract IMarginEngine",
        "numberOfBytes": "20"
      },
      "t_contract(IPeriphery)13114": {
        "encoding": "inplace",
        "label": "contract IPeriphery",
        "numberOfBytes": "20"
      },
      "t_contract(IVAMM)13505": {
        "encoding": "inplace",
        "label": "contract IVAMM",
        "numberOfBytes": "20"
      },
      "t_mapping(t_address,t_bool)": {
        "encoding": "mapping",
        "key": "t_address",
        "label": "mapping(address => bool)",
        "numberOfBytes": "32",
        "value": "t_bool"
      },
      "t_mapping(t_address,t_mapping(t_address,t_bool))": {
        "encoding": "mapping",
        "key": "t_address",
        "label": "mapping(address => mapping(address => bool))",
        "numberOfBytes": "32",
        "value": "t_mapping(t_address,t_bool)"
      },
      "t_mapping(t_uint8,t_contract(IFCM)13761)": {
        "encoding": "mapping",
        "key": "t_uint8",
        "label": "mapping(uint8 => contract IFCM)",
        "numberOfBytes": "32",
        "value": "t_contract(IFCM)13761"
      },
      "t_uint8": {
        "encoding": "inplace",
        "label": "uint8",
        "numberOfBytes": "1"
      }
    }
  }
}