{
  "address": "0x9f30Ec6903F1728ca250f48f664e48c3f15038eD",
  "abi": [
    {
      "inputs": [
        {
          "internalType": "address",
          "name": "_masterMarginEngine",
          "type": "address"
        },
        {
          "internalType": "address",
          "name": "_masterVAMM",
          "type": "address"
        }
      ],
      "stateMutability": "nonpayable",
      "type": "constructor"
    },
    {
      "anonymous": false,
      "inputs": [
        {
          "indexed": true,
          "internalType": "address",
          "name": "underlyingToken",
          "type": "address"
        },
        {
          "indexed": true,
          "internalType": "address",
          "name": "rateOracle",
          "type": "address"
        },
        {
          "indexed": false,
          "internalType": "uint256",
          "name": "termStartTimestampWad",
          "type": "uint256"
        },
        {
          "indexed": false,
          "internalType": "uint256",
          "name": "termEndTimestampWad",
          "type": "uint256"
        },
        {
          "indexed": false,
          "internalType": "int24",
          "name": "tickSpacing",
          "type": "int24"
        },
        {
          "indexed": false,
          "internalType": "address",
          "name": "marginEngine",
          "type": "address"
        },
        {
          "indexed": false,
          "internalType": "address",
          "name": "vamm",
          "type": "address"
        },
        {
          "indexed": false,
          "internalType": "address",
          "name": "fcm",
          "type": "address"
        }
      ],
      "name": "IrsInstanceDeployed",
      "type": "event"
    },
    {
      "anonymous": false,
      "inputs": [
        {
          "indexed": false,
          "internalType": "address",
          "name": "masterFCMAddressOld",
          "type": "address"
        },
        {
          "indexed": false,
          "internalType": "address",
          "name": "masterFCMAddress",
          "type": "address"
        },
        {
          "indexed": false,
          "internalType": "uint8",
          "name": "yieldBearingProtocolID",
          "type": "uint8"
        }
      ],
      "name": "MasterFCMSet",
      "type": "event"
    },
    {
      "anonymous": false,
      "inputs": [
        {
          "indexed": true,
          "internalType": "address",
          "name": "previousOwner",
          "type": "address"
        },
        {
          "indexed": true,
          "internalType": "address",
          "name": "newOwner",
          "type": "address"
        }
      ],
      "name": "OwnershipTransferred",
      "type": "event"
    },
    {
      "inputs": [
        {
          "internalType": "address",
          "name": "_underlyingToken",
          "type": "address"
        },
        {
          "internalType": "address",
          "name": "_rateOracle",
          "type": "address"
        },
        {
          "internalType": "uint256",
          "name": "_termStartTimestampWad",
          "type": "uint256"
        },
        {
          "internalType": "uint256",
          "name": "_termEndTimestampWad",
          "type": "uint256"
        },
        {
          "internalType": "int24",
          "name": "_tickSpacing",
          "type": "int24"
        }
      ],
      "name": "deployIrsInstance",
      "outputs": [
        {
          "internalType": "address",
          "name": "marginEngineProxy",
          "type": "address"
        },
        {
          "internalType": "address",
          "name": "vammProxy",
          "type": "address"
        },
        {
          "internalType": "address",
          "name": "fcmProxy",
          "type": "address"
        }
      ],
      "stateMutability": "nonpayable",
      "type": "function"
    },
    {
      "inputs": [
        {
          "internalType": "address",
          "name": "_underlyingToken",
          "type": "address"
        },
        {
          "internalType": "address",
          "name": "_rateOracle",
          "type": "address"
        },
        {
          "internalType": "uint256",
          "name": "_termStartTimestampWad",
          "type": "uint256"
        },
        {
          "internalType": "uint256",
          "name": "_termEndTimestampWad",
          "type": "uint256"
        },
        {
          "internalType": "int24",
          "name": "_tickSpacing",
          "type": "int24"
        }
      ],
      "name": "getFCMAddress",
      "outputs": [
        {
          "internalType": "address",
          "name": "",
          "type": "address"
        }
      ],
      "stateMutability": "view",
      "type": "function"
    },
    {
      "inputs": [
        {
          "internalType": "address",
          "name": "_underlyingToken",
          "type": "address"
        },
        {
          "internalType": "address",
          "name": "_rateOracle",
          "type": "address"
        },
        {
          "internalType": "uint256",
          "name": "_termStartTimestampWad",
          "type": "uint256"
        },
        {
          "internalType": "uint256",
          "name": "_termEndTimestampWad",
          "type": "uint256"
        },
        {
          "internalType": "int24",
          "name": "_tickSpacing",
          "type": "int24"
        }
      ],
      "name": "getMarginEngineAddress",
      "outputs": [
        {
          "internalType": "address",
          "name": "",
          "type": "address"
        }
      ],
      "stateMutability": "view",
      "type": "function"
    },
    {
      "inputs": [
        {
          "internalType": "address",
          "name": "_underlyingToken",
          "type": "address"
        },
        {
          "internalType": "address",
          "name": "_rateOracle",
          "type": "address"
        },
        {
          "internalType": "uint256",
          "name": "_termStartTimestampWad",
          "type": "uint256"
        },
        {
          "internalType": "uint256",
          "name": "_termEndTimestampWad",
          "type": "uint256"
        },
        {
          "internalType": "int24",
          "name": "_tickSpacing",
          "type": "int24"
        }
      ],
      "name": "getVAMMAddress",
      "outputs": [
        {
          "internalType": "address",
          "name": "",
          "type": "address"
        }
      ],
      "stateMutability": "view",
      "type": "function"
    },
    {
      "inputs": [
        {
          "internalType": "address",
          "name": "_owner",
          "type": "address"
        },
        {
          "internalType": "address",
          "name": "intAddress",
          "type": "address"
        }
      ],
      "name": "isApproved",
      "outputs": [
        {
          "internalType": "bool",
          "name": "",
          "type": "bool"
        }
      ],
      "stateMutability": "view",
      "type": "function"
    },
    {
      "inputs": [
        {
          "internalType": "uint8",
          "name": "",
          "type": "uint8"
        }
      ],
      "name": "masterFCMs",
      "outputs": [
        {
          "internalType": "address",
          "name": "",
          "type": "address"
        }
      ],
      "stateMutability": "view",
      "type": "function"
    },
    {
      "inputs": [],
      "name": "masterMarginEngine",
      "outputs": [
        {
          "internalType": "address",
          "name": "",
          "type": "address"
        }
      ],
      "stateMutability": "view",
      "type": "function"
    },
    {
      "inputs": [],
      "name": "masterVAMM",
      "outputs": [
        {
          "internalType": "address",
          "name": "",
          "type": "address"
        }
      ],
      "stateMutability": "view",
      "type": "function"
    },
    {
      "inputs": [],
      "name": "owner",
      "outputs": [
        {
          "internalType": "address",
          "name": "",
          "type": "address"
        }
      ],
      "stateMutability": "view",
      "type": "function"
    },
    {
      "inputs": [],
      "name": "renounceOwnership",
      "outputs": [],
      "stateMutability": "nonpayable",
      "type": "function"
    },
    {
      "inputs": [
        {
          "internalType": "address",
          "name": "intAddress",
          "type": "address"
        },
        {
          "internalType": "bool",
          "name": "allowIntegration",
          "type": "bool"
        }
      ],
      "name": "setApproval",
      "outputs": [],
      "stateMutability": "nonpayable",
      "type": "function"
    },
    {
      "inputs": [
        {
          "internalType": "address",
          "name": "masterFCMAddress",
          "type": "address"
        },
        {
          "internalType": "address",
          "name": "_rateOracle",
          "type": "address"
        }
      ],
      "name": "setMasterFCM",
      "outputs": [],
      "stateMutability": "nonpayable",
      "type": "function"
    },
    {
      "inputs": [
        {
          "internalType": "address",
          "name": "newOwner",
          "type": "address"
        }
      ],
      "name": "transferOwnership",
      "outputs": [],
      "stateMutability": "nonpayable",
      "type": "function"
    }
  ],
  "transactionHash": "0x096c831e9bd0f377def5fec2130b1a44470237031a8b25bc2d557198d5969b58",
  "args": [
    "0xFa9DDF4569206625370D2A8546f42c1CC924063c",
    "0x36E3d9E6f22D9E02039FA6ec1CD073216E4D3E8C"
  ],
  "numDeployments": 1,
  "solcInputHash": "9f9566c0cdca10f3ecaa77aa61f80c3b",
  "bytecode": "0x608060405234801561001057600080fd5b506040516110b13803806110b183398101604081905261002f916100d5565b61003833610069565b600180546001600160a01b039384166001600160a01b03199182161790915560028054929093169116179055610107565b600080546001600160a01b038381166001600160a01b0319831681178455604051919092169283917f8be0079c531659141344cd1fd0a4f28419497f9722a3daafe3b4186f6b6457e09190a35050565b80516001600160a01b03811681146100d057600080fd5b919050565b600080604083850312156100e7578182fd5b6100f0836100b9565b91506100fe602084016100b9565b90509250929050565b610f9b806101166000396000f3fe608060405234801561001057600080fd5b50600436106100af5760003560e01c80630e8a0648146100b45780631b5aad6e146100f65780636f6b277d14610116578063715018a6146101295780638da5cb5b146101335780638e496b3e1461013b5780639fe1b3541461014e578063a389783e14610161578063ca5183b714610184578063db9b7170146101ad578063ef9c7efa146101f3578063f2fde38b14610206578063febfe75e14610219575b600080fd5b6100c76100c2366004610e3c565b61022c565b604080516001600160a01b03948516815292841660208401529216918101919091526060015b60405180910390f35b610109610104366004610e3c565b610729565b6040516100ed9190610f0d565b610109610124366004610e3c565b6107b7565b610131610834565b005b61010961086f565b610131610149366004610e0a565b61087e565b600154610109906001600160a01b031681565b61017461016f366004610e0a565b610a3c565b60405190151581526020016100ed565b610109610192366004610ed5565b6003602052600090815260409020546001600160a01b031681565b6101316101bb366004610e9b565b3360009081526004602090815260408083206001600160a01b0395909516835293905291909120805460ff1916911515919091179055565b610109610201366004610e3c565b610a6c565b610131610214366004610df0565b610b88565b600254610109906001600160a01b031681565b600080803361023961086f565b6001600160a01b0316146102685760405162461bcd60e51b815260040161025f90610f21565b60405180910390fd5b60008460020b13801561027f57506140008460020b125b61028857600080fd5b60006102978989898989610c28565b6001549091506000906102b3906001600160a01b031683610c7d565b6002549091506000906102cf906001600160a01b031684610c7d565b60405163eb990c5960e01b81526001600160a01b038d811660048301528c81166024830152604482018c9052606482018b90529192509083169063eb990c5990608401600060405180830381600087803b15801561032c57600080fd5b505af1158015610340573d6000803e3d6000fd5b5050604051631b325b2160e31b81526001600160a01b03858116600483015260028b900b60248301528416925063d992d9089150604401600060405180830381600087803b15801561039157600080fd5b505af11580156103a5573d6000803e3d6000fd5b50506040516331d81ea760e21b81526001600160a01b038516925063c7607a9c91506103d5908490600401610f0d565b600060405180830381600087803b1580156103ef57600080fd5b505af1158015610403573d6000803e3d6000fd5b5050505060008a6001600160a01b031663dd9d05d16040518163ffffffff1660e01b815260040160206040518083038186803b15801561044257600080fd5b505afa158015610456573d6000803e3d6000fd5b505050506040513d601f19601f8201168201806040525081019061047a9190610ef1565b60ff8116600090815260036020526040812054919250906001600160a01b0316156105ea5760ff82166000908152600360205260409020546001600160a01b03166104c58187610c7d565b60405163485cc95560e01b81526001600160a01b03868116600483015287811660248301529193509083169063485cc95590604401600060405180830381600087803b15801561051457600080fd5b505af1158015610528573d6000803e3d6000fd5b505060405163534d337560e01b81526001600160a01b038816925063534d33759150610558908590600401610f0d565b600060405180830381600087803b15801561057257600080fd5b505af1158015610586573d6000803e3d6000fd5b505060405163f2fde38b60e01b81526001600160a01b038516925063f2fde38b91506105b6903390600401610f0d565b600060405180830381600087803b1580156105d057600080fd5b505af11580156105e4573d6000803e3d6000fd5b50505050505b604080518c8152602081018c905260028b900b918101919091526001600160a01b038581166060830152848116608083015282811660a0830152808e1691908f16907f14d4b0b936537b44b27af24c11290cf74df8ecd45eb9b20d02282d66a51d51a79060c00160405180910390a360405163f2fde38b60e01b81526001600160a01b0384169063f2fde38b90610685903390600401610f0d565b600060405180830381600087803b15801561069f57600080fd5b505af11580156106b3573d6000803e3d6000fd5b505060405163f2fde38b60e01b81526001600160a01b038716925063f2fde38b91506106e3903390600401610f0d565b600060405180830381600087803b1580156106fd57600080fd5b505af1158015610711573d6000803e3d6000fd5b50959f949e50919c50929a5050505050505050505050565b6001546000906001600160a01b03166107845760405162461bcd60e51b815260206004820152601f60248201527f6d6173746572204d617267696e456e67696e65206d7573742062652073657400604482015260640161025f565b60006107938787878787610c28565b6001549091506107ac906001600160a01b031682610d17565b979650505050505050565b6002546000906001600160a01b031661080c5760405162461bcd60e51b81526020600482015260176024820152761b585cdd195c8815905353481b5d5cdd081899481cd95d604a1b604482015260640161025f565b600061081b8787878787610c28565b6002549091506107ac906001600160a01b031682610d17565b3361083d61086f565b6001600160a01b0316146108635760405162461bcd60e51b815260040161025f90610f21565b61086d6000610d84565b565b6000546001600160a01b031690565b3361088761086f565b6001600160a01b0316146108ad5760405162461bcd60e51b815260040161025f90610f21565b6001600160a01b0381166108fc5760405162461bcd60e51b81526020600482015260166024820152751c985d19481bdc9858db19481b5d5cdd08195e1a5cdd60521b604482015260640161025f565b6001600160a01b03821661094a5760405162461bcd60e51b81526020600482015260156024820152741b585cdd195c881998db481b5d5cdd08195e1a5cdd605a1b604482015260640161025f565b6000816001600160a01b031663dd9d05d16040518163ffffffff1660e01b815260040160206040518083038186803b15801561098557600080fd5b505afa158015610999573d6000803e3d6000fd5b505050506040513d601f19601f820116820180604052508101906109bd9190610ef1565b60ff811660008181526003602090815260409182902080546001600160a01b031981166001600160a01b038a81169182179093558451929091168083529282015291820192909252919250907f3b7fdd829c73ac5e9bb3826c82078b325cb172e3a07f7d8b9f715bce40862a7d9060600160405180910390a150505050565b6001600160a01b0380831660009081526004602090815260408083209385168352929052205460ff165b92915050565b600080856001600160a01b031663dd9d05d16040518163ffffffff1660e01b815260040160206040518083038186803b158015610aa857600080fd5b505afa158015610abc573d6000803e3d6000fd5b505050506040513d601f19601f82011682018060405250810190610ae09190610ef1565b60ff81166000908152600360205260409020549091506001600160a01b0316610b445760405162461bcd60e51b81526020600482015260166024820152751b585cdd195c881190d3481b5d5cdd081899481cd95d60521b604482015260640161025f565b6000610b538888888888610c28565b60ff8316600090815260036020526040902054909150610b7c906001600160a01b031682610d17565b98975050505050505050565b33610b9161086f565b6001600160a01b031614610bb75760405162461bcd60e51b815260040161025f90610f21565b6001600160a01b038116610c1c5760405162461bcd60e51b815260206004820152602660248201527f4f776e61626c653a206e6577206f776e657220697320746865207a65726f206160448201526564647265737360d01b606482015260840161025f565b610c2581610d84565b50565b604080516001600160a01b0396871660208083019190915295909616868201526060860193909352608085019190915260020b60a0808501919091528151808503909101815260c09093019052815191012090565b6000604051733d602d80600a3d3981f3363d3d373d3d3d363d7360601b81528360601b60148201526e5af43d82803e903d91602b57fd5bf360881b6028820152826037826000f59150506001600160a01b038116610a665760405162461bcd60e51b8152602060048201526017602482015276115490cc4c4d8dce8818dc99585d194c8819985a5b1959604a1b604482015260640161025f565b6000610d7d838330604051733d602d80600a3d3981f3363d3d373d3d3d363d7360601b8152606093841b60148201526f5af43d82803e903d91602b57fd5bf3ff60801b6028820152921b6038830152604c8201526037808220606c830152605591012090565b9392505050565b600080546001600160a01b038381166001600160a01b0319831681178455604051919092169283917f8be0079c531659141344cd1fd0a4f28419497f9722a3daafe3b4186f6b6457e09190a35050565b80356001600160a01b0381168114610deb57600080fd5b919050565b600060208284031215610e01578081fd5b610d7d82610dd4565b60008060408385031215610e1c578081fd5b610e2583610dd4565b9150610e3360208401610dd4565b90509250929050565b600080600080600060a08688031215610e53578081fd5b610e5c86610dd4565b9450610e6a60208701610dd4565b9350604086013592506060860135915060808601358060020b8114610e8d578182fd5b809150509295509295909350565b60008060408385031215610ead578182fd5b610eb683610dd4565b915060208301358015158114610eca578182fd5b809150509250929050565b600060208284031215610ee6578081fd5b8135610d7d81610f56565b600060208284031215610f02578081fd5b8151610d7d81610f56565b6001600160a01b0391909116815260200190565b6020808252818101527f4f776e61626c653a2063616c6c6572206973206e6f7420746865206f776e6572604082015260600190565b60ff81168114610c2557600080fdfea264697066735822122089e0be366f9330aadf5236cb2dbadfedbac5435ffc551c9e6b2350ea8d7a1b7664736f6c63430008040033",
  "devdoc": {
    "kind": "dev",
    "methods": {
      "owner()": {
        "details": "Returns the address of the current owner."
      },
      "renounceOwnership()": {
        "details": "Leaves the contract without owner. It will not be possible to call `onlyOwner` functions anymore. Can only be called by the current owner. NOTE: Renouncing ownership will leave the contract without an owner, thereby removing any functionality that is only available to the owner."
      },
      "transferOwnership(address)": {
        "details": "Transfers ownership of the contract to a new account (`newOwner`). Can only be called by the current owner."
      }
    },
    "title": "Voltz Factory Contract",
    "version": 1
  },
  "userdoc": {
    "kind": "user",
    "methods": {
      "deployIrsInstance(address,address,uint256,uint256,int24)": {
        "notice": "Deploys the contracts required for a new Interest Rate Swap instance"
      }
    },
    "notice": "Deploys Voltz VAMMs and MarginEngines and manages ownership and control over amm protocol fees",
    "version": 1
  },
  "storageLayout": {
    "storage": [
      {
        "astId": 601,
        "contract": "contracts/Factory.sol:Factory",
        "label": "_owner",
        "offset": 0,
        "slot": "0",
        "type": "t_address"
      },
      {
        "astId": 1937,
        "contract": "contracts/Factory.sol:Factory",
        "label": "masterMarginEngine",
        "offset": 0,
        "slot": "1",
        "type": "t_address"
      },
      {
        "astId": 1940,
        "contract": "contracts/Factory.sol:Factory",
        "label": "masterVAMM",
        "offset": 0,
        "slot": "2",
        "type": "t_address"
      },
      {
        "astId": 1945,
        "contract": "contracts/Factory.sol:Factory",
        "label": "masterFCMs",
        "offset": 0,
        "slot": "3",
        "type": "t_mapping(t_uint8,t_address)"
      },
      {
        "astId": 1951,
        "contract": "contracts/Factory.sol:Factory",
        "label": "_approvals",
        "offset": 0,
        "slot": "4",
        "type": "t_mapping(t_address,t_mapping(t_address,t_bool))"
      }
    ],
    "types": {
      "t_address": {
        "encoding": "inplace",
        "label": "address",
        "numberOfBytes": "20"
      },
      "t_bool": {
        "encoding": "inplace",
        "label": "bool",
        "numberOfBytes": "1"
      },
      "t_mapping(t_address,t_bool)": {
        "encoding": "mapping",
        "key": "t_address",
        "label": "mapping(address => bool)",
        "numberOfBytes": "32",
        "value": "t_bool"
      },
      "t_mapping(t_address,t_mapping(t_address,t_bool))": {
        "encoding": "mapping",
        "key": "t_address",
        "label": "mapping(address => mapping(address => bool))",
        "numberOfBytes": "32",
        "value": "t_mapping(t_address,t_bool)"
      },
      "t_mapping(t_uint8,t_address)": {
        "encoding": "mapping",
        "key": "t_uint8",
        "label": "mapping(uint8 => address)",
        "numberOfBytes": "32",
        "value": "t_address"
      },
      "t_uint8": {
        "encoding": "inplace",
        "label": "uint8",
        "numberOfBytes": "1"
      }
    }
  }
}