{
  "address": "0xFa9DDF4569206625370D2A8546f42c1CC924063c",
  "abi": [
    {
      "inputs": [],
      "stateMutability": "nonpayable",
      "type": "constructor"
    },
    {
      "inputs": [],
      "name": "AmountSignsSame",
      "type": "error"
    },
    {
      "inputs": [],
      "name": "CannotLiquidate",
      "type": "error"
    },
    {
      "inputs": [],
      "name": "CannotSettleBeforeMaturity",
      "type": "error"
    },
    {
      "inputs": [],
      "name": "InvalidMarginDelta",
      "type": "error"
    },
    {
      "inputs": [],
      "name": "MarginLessThanMinimum",
      "type": "error"
    },
    {
      "inputs": [],
      "name": "MarginRequirementNotMet",
      "type": "error"
    },
    {
      "inputs": [],
      "name": "OnlyFCM",
      "type": "error"
    },
    {
      "inputs": [],
      "name": "OnlyOwnerCanUpdatePosition",
      "type": "error"
    },
    {
      "inputs": [],
      "name": "OnlyVAMM",
      "type": "error"
    },
    {
      "inputs": [],
      "name": "PRBMathSD59x18__DivInputTooSmall",
      "type": "error"
    },
    {
      "inputs": [
        {
          "internalType": "uint256",
          "name": "rAbs",
          "type": "uint256"
        }
      ],
      "name": "PRBMathSD59x18__DivOverflow",
      "type": "error"
    },
    {
      "inputs": [
        {
          "internalType": "int256",
          "name": "x",
          "type": "int256"
        }
      ],
      "name": "PRBMathSD59x18__Exp2InputTooBig",
      "type": "error"
    },
    {
      "inputs": [
        {
          "internalType": "int256",
          "name": "x",
          "type": "int256"
        }
      ],
      "name": "PRBMathSD59x18__ExpInputTooBig",
      "type": "error"
    },
    {
      "inputs": [
        {
          "internalType": "int256",
          "name": "x",
          "type": "int256"
        }
      ],
      "name": "PRBMathSD59x18__FromIntOverflow",
      "type": "error"
    },
    {
      "inputs": [
        {
          "internalType": "int256",
          "name": "x",
          "type": "int256"
        }
      ],
      "name": "PRBMathSD59x18__FromIntUnderflow",
      "type": "error"
    },
    {
      "inputs": [],
      "name": "PRBMathSD59x18__MulInputTooSmall",
      "type": "error"
    },
    {
      "inputs": [
        {
          "internalType": "uint256",
          "name": "rAbs",
          "type": "uint256"
        }
      ],
      "name": "PRBMathSD59x18__MulOverflow",
      "type": "error"
    },
    {
      "inputs": [
        {
          "internalType": "int256",
          "name": "x",
          "type": "int256"
        }
      ],
      "name": "PRBMathSD59x18__SqrtNegativeInput",
      "type": "error"
    },
    {
      "inputs": [
        {
          "internalType": "int256",
          "name": "x",
          "type": "int256"
        }
      ],
      "name": "PRBMathSD59x18__SqrtOverflow",
      "type": "error"
    },
    {
      "inputs": [
        {
          "internalType": "uint256",
          "name": "x",
          "type": "uint256"
        }
      ],
      "name": "PRBMathUD60x18__FromUintOverflow",
      "type": "error"
    },
    {
      "inputs": [
        {
          "internalType": "uint256",
          "name": "prod1",
          "type": "uint256"
        }
      ],
      "name": "PRBMath__MulDivFixedPointOverflow",
      "type": "error"
    },
    {
      "inputs": [
        {
          "internalType": "uint256",
          "name": "prod1",
          "type": "uint256"
        },
        {
          "internalType": "uint256",
          "name": "denominator",
          "type": "uint256"
        }
      ],
      "name": "PRBMath__MulDivOverflow",
      "type": "error"
    },
    {
      "inputs": [],
      "name": "PositionNetZero",
      "type": "error"
    },
    {
      "inputs": [],
      "name": "PositionNotSettled",
      "type": "error"
    },
    {
      "inputs": [],
      "name": "WithdrawalExceedsCurrentMargin",
      "type": "error"
    },
    {
      "anonymous": false,
      "inputs": [
        {
          "indexed": false,
          "internalType": "uint256",
          "name": "cacheMaxAgeInSecondsOld",
          "type": "uint256"
        },
        {
          "indexed": false,
          "internalType": "uint256",
          "name": "cacheMaxAgeInSeconds",
          "type": "uint256"
        }
      ],
      "name": "CacheMaxAgeSet",
      "type": "event"
    },
    {
      "anonymous": false,
      "inputs": [
        {
          "indexed": false,
          "internalType": "address",
          "name": "sender",
          "type": "address"
        },
        {
          "indexed": false,
          "internalType": "address",
          "name": "recipient",
          "type": "address"
        },
        {
          "indexed": false,
          "internalType": "uint256",
          "name": "amount",
          "type": "uint256"
        }
      ],
      "name": "CollectProtocol",
      "type": "event"
    },
    {
      "anonymous": false,
      "inputs": [
        {
          "indexed": false,
          "internalType": "contract IFCM",
          "name": "fcmOld",
          "type": "address"
        },
        {
          "indexed": false,
          "internalType": "contract IFCM",
          "name": "fcm",
          "type": "address"
        }
      ],
      "name": "FCMSet",
      "type": "event"
    },
    {
      "anonymous": false,
      "inputs": [
        {
          "indexed": false,
          "internalType": "uint256",
          "name": "secondsAgoOld",
          "type": "uint256"
        },
        {
          "indexed": false,
          "internalType": "uint256",
          "name": "secondsAgo",
          "type": "uint256"
        }
      ],
      "name": "HistoricalApyWindowSet",
      "type": "event"
    },
    {
      "anonymous": false,
      "inputs": [
        {
          "indexed": false,
          "internalType": "address",
          "name": "owner",
          "type": "address"
        },
        {
          "indexed": false,
          "internalType": "int24",
          "name": "tickLower",
          "type": "int24"
        },
        {
          "indexed": false,
          "internalType": "int24",
          "name": "tickUpper",
          "type": "int24"
        },
        {
          "indexed": false,
          "internalType": "int256",
          "name": "fixedTokenBalance",
          "type": "int256"
        },
        {
          "indexed": false,
          "internalType": "int256",
          "name": "variableTokenBalance",
          "type": "int256"
        },
        {
          "indexed": false,
          "internalType": "int256",
          "name": "margin",
          "type": "int256"
        },
        {
          "indexed": false,
          "internalType": "uint128",
          "name": "liquidity",
          "type": "uint128"
        }
      ],
      "name": "LiquidatePosition",
      "type": "event"
    },
    {
      "anonymous": false,
      "inputs": [
        {
          "indexed": false,
          "internalType": "uint256",
          "name": "liquidatorRewardWadOld",
          "type": "uint256"
        },
        {
          "indexed": false,
          "internalType": "uint256",
          "name": "liquidatorRewardWad",
          "type": "uint256"
        }
      ],
      "name": "LiquidatorRewardSet",
      "type": "event"
    },
    {
      "anonymous": false,
      "inputs": [
        {
          "components": [
            {
              "internalType": "uint256",
              "name": "apyUpperMultiplierWad",
              "type": "uint256"
            },
            {
              "internalType": "uint256",
              "name": "apyLowerMultiplierWad",
              "type": "uint256"
            },
            {
              "internalType": "int256",
              "name": "sigmaSquaredWad",
              "type": "int256"
            },
            {
              "internalType": "int256",
              "name": "alphaWad",
              "type": "int256"
            },
            {
              "internalType": "int256",
              "name": "betaWad",
              "type": "int256"
            },
            {
              "internalType": "int256",
              "name": "xiUpperWad",
              "type": "int256"
            },
            {
              "internalType": "int256",
              "name": "xiLowerWad",
              "type": "int256"
            },
            {
              "internalType": "int256",
              "name": "tMaxWad",
              "type": "int256"
            },
            {
              "internalType": "uint256",
              "name": "devMulLeftUnwindLMWad",
              "type": "uint256"
            },
            {
              "internalType": "uint256",
              "name": "devMulRightUnwindLMWad",
              "type": "uint256"
            },
            {
              "internalType": "uint256",
              "name": "devMulLeftUnwindIMWad",
              "type": "uint256"
            },
            {
              "internalType": "uint256",
              "name": "devMulRightUnwindIMWad",
              "type": "uint256"
            },
            {
              "internalType": "uint256",
              "name": "fixedRateDeviationMinLeftUnwindLMWad",
              "type": "uint256"
            },
            {
              "internalType": "uint256",
              "name": "fixedRateDeviationMinRightUnwindLMWad",
              "type": "uint256"
            },
            {
              "internalType": "uint256",
              "name": "fixedRateDeviationMinLeftUnwindIMWad",
              "type": "uint256"
            },
            {
              "internalType": "uint256",
              "name": "fixedRateDeviationMinRightUnwindIMWad",
              "type": "uint256"
            },
            {
              "internalType": "uint256",
              "name": "gammaWad",
              "type": "uint256"
            },
            {
              "internalType": "uint256",
              "name": "minMarginToIncentiviseLiquidators",
              "type": "uint256"
            }
          ],
          "indexed": false,
          "internalType": "struct IMarginEngine.MarginCalculatorParameters",
          "name": "marginCalculatorParametersOld",
          "type": "tuple"
        },
        {
          "components": [
            {
              "internalType": "uint256",
              "name": "apyUpperMultiplierWad",
              "type": "uint256"
            },
            {
              "internalType": "uint256",
              "name": "apyLowerMultiplierWad",
              "type": "uint256"
            },
            {
              "internalType": "int256",
              "name": "sigmaSquaredWad",
              "type": "int256"
            },
            {
              "internalType": "int256",
              "name": "alphaWad",
              "type": "int256"
            },
            {
              "internalType": "int256",
              "name": "betaWad",
              "type": "int256"
            },
            {
              "internalType": "int256",
              "name": "xiUpperWad",
              "type": "int256"
            },
            {
              "internalType": "int256",
              "name": "xiLowerWad",
              "type": "int256"
            },
            {
              "internalType": "int256",
              "name": "tMaxWad",
              "type": "int256"
            },
            {
              "internalType": "uint256",
              "name": "devMulLeftUnwindLMWad",
              "type": "uint256"
            },
            {
              "internalType": "uint256",
              "name": "devMulRightUnwindLMWad",
              "type": "uint256"
            },
            {
              "internalType": "uint256",
              "name": "devMulLeftUnwindIMWad",
              "type": "uint256"
            },
            {
              "internalType": "uint256",
              "name": "devMulRightUnwindIMWad",
              "type": "uint256"
            },
            {
              "internalType": "uint256",
              "name": "fixedRateDeviationMinLeftUnwindLMWad",
              "type": "uint256"
            },
            {
              "internalType": "uint256",
              "name": "fixedRateDeviationMinRightUnwindLMWad",
              "type": "uint256"
            },
            {
              "internalType": "uint256",
              "name": "fixedRateDeviationMinLeftUnwindIMWad",
              "type": "uint256"
            },
            {
              "internalType": "uint256",
              "name": "fixedRateDeviationMinRightUnwindIMWad",
              "type": "uint256"
            },
            {
              "internalType": "uint256",
              "name": "gammaWad",
              "type": "uint256"
            },
            {
              "internalType": "uint256",
              "name": "minMarginToIncentiviseLiquidators",
              "type": "uint256"
            }
          ],
          "indexed": false,
          "internalType": "struct IMarginEngine.MarginCalculatorParameters",
          "name": "marginCalculatorParameters",
          "type": "tuple"
        }
      ],
      "name": "MarginCalculatorParametersSet",
      "type": "event"
    },
    {
      "anonymous": false,
      "inputs": [
        {
          "indexed": true,
          "internalType": "address",
          "name": "previousOwner",
          "type": "address"
        },
        {
          "indexed": true,
          "internalType": "address",
          "name": "newOwner",
          "type": "address"
        }
      ],
      "name": "OwnershipTransferred",
      "type": "event"
    },
    {
      "anonymous": false,
      "inputs": [
        {
          "indexed": false,
          "internalType": "address",
          "name": "account",
          "type": "address"
        }
      ],
      "name": "Paused",
      "type": "event"
    },
    {
      "anonymous": false,
      "inputs": [
        {
          "indexed": false,
          "internalType": "address",
          "name": "owner",
          "type": "address"
        },
        {
          "indexed": false,
          "internalType": "int24",
          "name": "tickLower",
          "type": "int24"
        },
        {
          "indexed": false,
          "internalType": "int24",
          "name": "tickUpper",
          "type": "int24"
        },
        {
          "indexed": false,
          "internalType": "int256",
          "name": "fixedTokenBalance",
          "type": "int256"
        },
        {
          "indexed": false,
          "internalType": "int256",
          "name": "variableTokenBalance",
          "type": "int256"
        },
        {
          "indexed": false,
          "internalType": "int256",
          "name": "margin",
          "type": "int256"
        },
        {
          "indexed": false,
          "internalType": "bool",
          "name": "isSettled",
          "type": "bool"
        }
      ],
      "name": "SettlePosition",
      "type": "event"
    },
    {
      "anonymous": false,
      "inputs": [
        {
          "indexed": false,
          "internalType": "address",
          "name": "account",
          "type": "address"
        }
      ],
      "name": "Unpaused",
      "type": "event"
    },
    {
      "anonymous": false,
      "inputs": [
        {
          "indexed": false,
          "internalType": "address",
          "name": "owner",
          "type": "address"
        },
        {
          "indexed": false,
          "internalType": "int24",
          "name": "tickLower",
          "type": "int24"
        },
        {
          "indexed": false,
          "internalType": "int24",
          "name": "tickUpper",
          "type": "int24"
        },
        {
          "indexed": false,
          "internalType": "int256",
          "name": "positionMargin",
          "type": "int256"
        }
      ],
      "name": "UpdatePositionMargin",
      "type": "event"
    },
    {
      "anonymous": false,
      "inputs": [
        {
          "indexed": false,
          "internalType": "address",
          "name": "owner",
          "type": "address"
        },
        {
          "indexed": false,
          "internalType": "int24",
          "name": "tickLower",
          "type": "int24"
        },
        {
          "indexed": false,
          "internalType": "int24",
          "name": "tickUpper",
          "type": "int24"
        },
        {
          "indexed": false,
          "internalType": "uint128",
          "name": "liquidity",
          "type": "uint128"
        }
      ],
      "name": "UpdatePositionPostMintBurn",
      "type": "event"
    },
    {
      "anonymous": false,
      "inputs": [
        {
          "indexed": false,
          "internalType": "address",
          "name": "owner",
          "type": "address"
        },
        {
          "indexed": false,
          "internalType": "int24",
          "name": "tickLower",
          "type": "int24"
        },
        {
          "indexed": false,
          "internalType": "int24",
          "name": "tickUpper",
          "type": "int24"
        },
        {
          "indexed": false,
          "internalType": "int256",
          "name": "fixedTokenBalance",
          "type": "int256"
        },
        {
          "indexed": false,
          "internalType": "int256",
          "name": "variableTokenBalance",
          "type": "int256"
        },
        {
          "indexed": false,
          "internalType": "int256",
          "name": "margin",
          "type": "int256"
        }
      ],
      "name": "UpdatePositionPostSwap",
      "type": "event"
    },
    {
      "anonymous": false,
      "inputs": [
        {
          "indexed": false,
          "internalType": "contract IVAMM",
          "name": "vammOld",
          "type": "address"
        },
        {
          "indexed": false,
          "internalType": "contract IVAMM",
          "name": "vamm",
          "type": "address"
        }
      ],
      "name": "VAMMSet",
      "type": "event"
    },
    {
      "inputs": [],
      "name": "cacheMaxAgeInSeconds",
      "outputs": [
        {
          "internalType": "uint256",
          "name": "",
          "type": "uint256"
        }
      ],
      "stateMutability": "view",
      "type": "function"
    },
    {
      "inputs": [
        {
          "internalType": "address",
          "name": "recipient",
          "type": "address"
        },
        {
          "internalType": "uint256",
          "name": "amount",
          "type": "uint256"
        }
      ],
      "name": "collectProtocol",
      "outputs": [],
      "stateMutability": "nonpayable",
      "type": "function"
    },
    {
      "inputs": [],
      "name": "factory",
      "outputs": [
        {
          "internalType": "contract IFactory",
          "name": "",
          "type": "address"
        }
      ],
      "stateMutability": "view",
      "type": "function"
    },
    {
      "inputs": [],
      "name": "fcm",
      "outputs": [
        {
          "internalType": "contract IFCM",
          "name": "",
          "type": "address"
        }
      ],
      "stateMutability": "view",
      "type": "function"
    },
    {
      "inputs": [],
      "name": "getHistoricalApy",
      "outputs": [
        {
          "internalType": "uint256",
          "name": "",
          "type": "uint256"
        }
      ],
      "stateMutability": "nonpayable",
      "type": "function"
    },
    {
      "inputs": [],
      "name": "getHistoricalApyReadOnly",
      "outputs": [
        {
          "internalType": "uint256",
          "name": "",
          "type": "uint256"
        }
      ],
      "stateMutability": "view",
      "type": "function"
    },
    {
      "inputs": [
        {
          "internalType": "address",
          "name": "_owner",
          "type": "address"
        },
        {
          "internalType": "int24",
          "name": "tickLower",
          "type": "int24"
        },
        {
          "internalType": "int24",
          "name": "tickUpper",
          "type": "int24"
        }
      ],
      "name": "getPosition",
      "outputs": [
        {
          "components": [
            {
              "internalType": "bool",
              "name": "isSettled",
              "type": "bool"
            },
            {
              "internalType": "uint128",
              "name": "_liquidity",
              "type": "uint128"
            },
            {
              "internalType": "int256",
              "name": "margin",
              "type": "int256"
            },
            {
              "internalType": "int256",
              "name": "fixedTokenGrowthInsideLastX128",
              "type": "int256"
            },
            {
              "internalType": "int256",
              "name": "variableTokenGrowthInsideLastX128",
              "type": "int256"
            },
            {
              "internalType": "int256",
              "name": "fixedTokenBalance",
              "type": "int256"
            },
            {
              "internalType": "int256",
              "name": "variableTokenBalance",
              "type": "int256"
            },
            {
              "internalType": "uint256",
              "name": "feeGrowthInsideLastX128",
              "type": "uint256"
            }
          ],
          "internalType": "struct Position.Info",
          "name": "position",
          "type": "tuple"
        }
      ],
      "stateMutability": "view",
      "type": "function"
    },
    {
      "inputs": [
        {
          "internalType": "address",
          "name": "_underlyingToken",
          "type": "address"
        },
        {
          "internalType": "address",
          "name": "_rateOracleAddress",
          "type": "address"
        },
        {
          "internalType": "uint256",
          "name": "_termStartTimestampWad",
          "type": "uint256"
        },
        {
          "internalType": "uint256",
          "name": "_termEndTimestampWad",
          "type": "uint256"
        }
      ],
      "name": "initialize",
      "outputs": [],
      "stateMutability": "nonpayable",
      "type": "function"
    },
    {
      "inputs": [
        {
          "internalType": "int24",
          "name": "tickLower",
          "type": "int24"
        },
        {
          "internalType": "int24",
          "name": "tickUpper",
          "type": "int24"
        },
        {
          "internalType": "address",
          "name": "_owner",
          "type": "address"
        }
      ],
      "name": "liquidatePosition",
      "outputs": [],
      "stateMutability": "nonpayable",
      "type": "function"
    },
    {
      "inputs": [],
      "name": "liquidatorRewardWad",
      "outputs": [
        {
          "internalType": "uint256",
          "name": "",
          "type": "uint256"
        }
      ],
      "stateMutability": "view",
      "type": "function"
    },
    {
      "inputs": [],
      "name": "owner",
      "outputs": [
        {
          "internalType": "address",
          "name": "",
          "type": "address"
        }
      ],
      "stateMutability": "view",
      "type": "function"
    },
    {
      "inputs": [],
      "name": "paused",
      "outputs": [
        {
          "internalType": "bool",
          "name": "",
          "type": "bool"
        }
      ],
      "stateMutability": "view",
      "type": "function"
    },
    {
      "inputs": [],
      "name": "rateOracle",
      "outputs": [
        {
          "internalType": "contract IRateOracle",
          "name": "",
          "type": "address"
        }
      ],
      "stateMutability": "view",
      "type": "function"
    },
    {
      "inputs": [],
      "name": "renounceOwnership",
      "outputs": [],
      "stateMutability": "nonpayable",
      "type": "function"
    },
    {
      "inputs": [],
      "name": "secondsAgo",
      "outputs": [
        {
          "internalType": "uint256",
          "name": "",
          "type": "uint256"
        }
      ],
      "stateMutability": "view",
      "type": "function"
    },
    {
      "inputs": [
        {
          "internalType": "uint256",
          "name": "_cacheMaxAgeInSeconds",
          "type": "uint256"
        }
      ],
      "name": "setCacheMaxAgeInSeconds",
      "outputs": [],
      "stateMutability": "nonpayable",
      "type": "function"
    },
    {
      "inputs": [
        {
          "internalType": "address",
          "name": "_fcm",
          "type": "address"
        }
      ],
      "name": "setFCM",
      "outputs": [],
      "stateMutability": "nonpayable",
      "type": "function"
    },
    {
      "inputs": [
        {
          "internalType": "uint256",
          "name": "_liquidatorRewardWad",
          "type": "uint256"
        }
      ],
      "name": "setLiquidatorReward",
      "outputs": [],
      "stateMutability": "nonpayable",
      "type": "function"
    },
    {
      "inputs": [
        {
          "components": [
            {
              "internalType": "uint256",
              "name": "apyUpperMultiplierWad",
              "type": "uint256"
            },
            {
              "internalType": "uint256",
              "name": "apyLowerMultiplierWad",
              "type": "uint256"
            },
            {
              "internalType": "int256",
              "name": "sigmaSquaredWad",
              "type": "int256"
            },
            {
              "internalType": "int256",
              "name": "alphaWad",
              "type": "int256"
            },
            {
              "internalType": "int256",
              "name": "betaWad",
              "type": "int256"
            },
            {
              "internalType": "int256",
              "name": "xiUpperWad",
              "type": "int256"
            },
            {
              "internalType": "int256",
              "name": "xiLowerWad",
              "type": "int256"
            },
            {
              "internalType": "int256",
              "name": "tMaxWad",
              "type": "int256"
            },
            {
              "internalType": "uint256",
              "name": "devMulLeftUnwindLMWad",
              "type": "uint256"
            },
            {
              "internalType": "uint256",
              "name": "devMulRightUnwindLMWad",
              "type": "uint256"
            },
            {
              "internalType": "uint256",
              "name": "devMulLeftUnwindIMWad",
              "type": "uint256"
            },
            {
              "internalType": "uint256",
              "name": "devMulRightUnwindIMWad",
              "type": "uint256"
            },
            {
              "internalType": "uint256",
              "name": "fixedRateDeviationMinLeftUnwindLMWad",
              "type": "uint256"
            },
            {
              "internalType": "uint256",
              "name": "fixedRateDeviationMinRightUnwindLMWad",
              "type": "uint256"
            },
            {
              "internalType": "uint256",
              "name": "fixedRateDeviationMinLeftUnwindIMWad",
              "type": "uint256"
            },
            {
              "internalType": "uint256",
              "name": "fixedRateDeviationMinRightUnwindIMWad",
              "type": "uint256"
            },
            {
              "internalType": "uint256",
              "name": "gammaWad",
              "type": "uint256"
            },
            {
              "internalType": "uint256",
              "name": "minMarginToIncentiviseLiquidators",
              "type": "uint256"
            }
          ],
          "internalType": "struct IMarginEngine.MarginCalculatorParameters",
          "name": "_marginCalculatorParameters",
          "type": "tuple"
        }
      ],
      "name": "setMarginCalculatorParameters",
      "outputs": [],
      "stateMutability": "nonpayable",
      "type": "function"
    },
    {
      "inputs": [
        {
          "internalType": "uint256",
          "name": "_secondsAgo",
          "type": "uint256"
        }
      ],
      "name": "setSecondsAgo",
      "outputs": [],
      "stateMutability": "nonpayable",
      "type": "function"
    },
    {
      "inputs": [
        {
          "internalType": "address",
          "name": "_vAMMAddress",
          "type": "address"
        }
      ],
      "name": "setVAMM",
      "outputs": [],
      "stateMutability": "nonpayable",
      "type": "function"
    },
    {
      "inputs": [
        {
          "internalType": "int24",
          "name": "tickLower",
          "type": "int24"
        },
        {
          "internalType": "int24",
          "name": "tickUpper",
          "type": "int24"
        },
        {
          "internalType": "address",
          "name": "_owner",
          "type": "address"
        }
      ],
      "name": "settlePosition",
      "outputs": [],
      "stateMutability": "nonpayable",
      "type": "function"
    },
    {
      "inputs": [],
      "name": "termEndTimestampWad",
      "outputs": [
        {
          "internalType": "uint256",
          "name": "",
          "type": "uint256"
        }
      ],
      "stateMutability": "view",
      "type": "function"
    },
    {
      "inputs": [],
      "name": "termStartTimestampWad",
      "outputs": [
        {
          "internalType": "uint256",
          "name": "",
          "type": "uint256"
        }
      ],
      "stateMutability": "view",
      "type": "function"
    },
    {
      "inputs": [
        {
          "internalType": "address",
          "name": "_account",
          "type": "address"
        },
        {
          "internalType": "uint256",
          "name": "marginDelta",
          "type": "uint256"
        }
      ],
      "name": "transferMarginToFCMTrader",
      "outputs": [],
      "stateMutability": "nonpayable",
      "type": "function"
    },
    {
      "inputs": [
        {
          "internalType": "address",
          "name": "newOwner",
          "type": "address"
        }
      ],
      "name": "transferOwnership",
      "outputs": [],
      "stateMutability": "nonpayable",
      "type": "function"
    },
    {
      "inputs": [],
      "name": "underlyingToken",
      "outputs": [
        {
          "internalType": "contract IERC20Minimal",
          "name": "",
          "type": "address"
        }
      ],
      "stateMutability": "view",
      "type": "function"
    },
    {
      "inputs": [
        {
          "internalType": "address",
          "name": "_owner",
          "type": "address"
        },
        {
          "internalType": "int24",
          "name": "tickLower",
          "type": "int24"
        },
        {
          "internalType": "int24",
          "name": "tickUpper",
          "type": "int24"
        },
        {
          "internalType": "int256",
          "name": "marginDelta",
          "type": "int256"
        }
      ],
      "name": "updatePositionMargin",
      "outputs": [],
      "stateMutability": "nonpayable",
      "type": "function"
    },
    {
      "inputs": [
        {
          "components": [
            {
              "internalType": "address",
              "name": "owner",
              "type": "address"
            },
            {
              "internalType": "int24",
              "name": "tickLower",
              "type": "int24"
            },
            {
              "internalType": "int24",
              "name": "tickUpper",
              "type": "int24"
            },
            {
              "internalType": "int128",
              "name": "liquidityDelta",
              "type": "int128"
            }
          ],
          "internalType": "struct IPositionStructs.ModifyPositionParams",
          "name": "params",
          "type": "tuple"
        }
      ],
      "name": "updatePositionPostVAMMInducedMintBurn",
      "outputs": [],
      "stateMutability": "nonpayable",
      "type": "function"
    },
    {
      "inputs": [
        {
          "internalType": "address",
          "name": "_owner",
          "type": "address"
        },
        {
          "internalType": "int24",
          "name": "tickLower",
          "type": "int24"
        },
        {
          "internalType": "int24",
          "name": "tickUpper",
          "type": "int24"
        },
        {
          "internalType": "int256",
          "name": "fixedTokenDelta",
          "type": "int256"
        },
        {
          "internalType": "int256",
          "name": "variableTokenDelta",
          "type": "int256"
        },
        {
          "internalType": "uint256",
          "name": "cumulativeFeeIncurred",
          "type": "uint256"
        }
      ],
      "name": "updatePositionPostVAMMInducedSwap",
      "outputs": [],
      "stateMutability": "nonpayable",
      "type": "function"
    },
    {
      "inputs": [],
      "name": "vamm",
      "outputs": [
        {
          "internalType": "contract IVAMM",
          "name": "",
          "type": "address"
        }
      ],
      "stateMutability": "view",
      "type": "function"
    }
  ],
  "transactionHash": "0x2b421bf62b022746051b47cce4ebda3fad63871b4069528b1b910e159200ba0a",
  "args": [],
  "numDeployments": 1,
  "solcInputHash": "9f9566c0cdca10f3ecaa77aa61f80c3b",
  "bytecode": "0x60806040523480156200001157600080fd5b50600054610100900460ff166200002f5760005460ff161562000039565b62000039620000f0565b620000a15760405162461bcd60e51b815260206004820152602e60248201527f496e697469616c697a61626c653a20636f6e747261637420697320616c72656160448201526d191e481a5b9a5d1a585b1a5e995960921b606482015260840160405180910390fd5b600054610100900460ff16158015620000c4576000805461ffff19166101011790555b60b480546001600160a01b031916331790558015620000e9576000805461ff00191690555b506200011d565b600062000108306200010e60201b6200150f1760201c565b15905090565b6001600160a01b03163b151590565b615252806200012d6000396000f3fe608060405234801561001057600080fd5b50600436106101755760003560e01c806322d23b211461017a5780632495a599146101a357806329c9a410146101b6578063534d3375146101cb5780635c975abb146101de578063633dd145146101f4578063652c30b71461020b578063715018a614610214578063754e2a8f1461021c5780637717797f1461022f5780637a55433c146102425780638da5cb5b146102555780639209e9ba1461025d57806393edb454146102d757806398f4b1b2146102e0578063b5c22d49146102f3578063b623f51914610306578063ba795d321461030f578063bfb5607d14610322578063c326189214610335578063c45a015514610348578063c7607a9c1461035b578063d1b565dc1461036e578063d50d881114610381578063e087caf114610389578063e098372c14610392578063e3f08374146103a5578063e9e441bb146103ad578063eb990c59146103c0578063efcfc3f9146103d3578063f2fde38b146103e6575b600080fd5b609b5461018d906001600160a01b031681565b60405161019a9190614e0e565b60405180910390f35b60985461018d906001600160a01b031681565b6101c96101c4366004614b0d565b6103f9565b005b6101c96101d9366004614a12565b610516565b60655460ff16604051901515815260200161019a565b6101fd60b05481565b60405190815260200161019a565b6101fd60995481565b6101c9610570565b6101c961022a366004614b71565b6105ab565b6101c961023d366004614abd565b6106a4565b6101c9610250366004614bbc565b610937565b61018d610b5b565b61027061026b366004614a73565b610b6a565b60405161019a91908151151581526020808301516001600160801b03169082015260408083015190820152606080830151908201526080808301519082015260a0808301519082015260c0808301519082015260e091820151918101919091526101000190565b6101fd609a5481565b60b65461018d906001600160a01b031681565b6101c9610301366004614c28565b610c38565b6101fd60b35481565b6101c961031d366004614dde565b610cff565b6101c9610330366004614d03565b610d68565b6101c9610343366004614dde565b610e50565b60b55461018d906001600160a01b031681565b6101c9610369366004614a12565b610eb9565b6101c961037c366004614bbc565b610f0a565b6101fd611152565b6101fd60975481565b609d5461018d906001600160a01b031681565b6101fd61117f565b6101c96103bb366004614dde565b6111a0565b6101c96103ce366004614a2e565b611209565b6101c96103e1366004614b71565b611429565b6101c96103f4366004614a12565b61146f565b609d546001600160a01b0316331461042457604051633dec6c6960e11b815260040160405180910390fd5b6000610433609c88888861151e565b9050610442818787600061157d565b811561045b5761045b610454836151b2565b8290611727565b6104668185856117a2565b60006104758288886000611845565b9050816001015481131561049c5760405163d9ce82ab60e01b815260040160405180910390fd5b600482015460058301546001840154604080516001600160a01b038d16815260028c810b60208301528b900b818301526060810194909452608084019290925260a0830152517fa6a26c171f0478962e0cfe711f994e7bb063211f49fe9387ff5d9f8c42b5abc99181900360c00190a15050505050505050565b3361051f610b5b565b6001600160a01b03161461054e5760405162461bcd60e51b815260040161054590614e6f565b60405180910390fd5b609b80546001600160a01b0319166001600160a01b0392909216919091179055565b33610579610b5b565b6001600160a01b03161461059f5760405162461bcd60e51b815260040161054590614e6f565b6105a96000611c0c565b565b336105b4610b5b565b6001600160a01b0316146105da5760405162461bcd60e51b815260040161054590614e6f565b801561065657609d54604051630867377160e41b8152600481018390526001600160a01b0390911690638673771090602401600060405180830381600087803b15801561062657600080fd5b505af115801561063a573d6000803e3d6000fd5b505060985461065692506001600160a01b031690508383611c5e565b604080513381526001600160a01b03841660208201529081018290527f4a18654a5039b989ca382f52bbf82bcdde698ffc4c11fe6c59652a4d1fe70f48906060015b60405180910390a15050565b80806106c357604051638acc6d7f60e01b815260040160405180910390fd5b6106cd8484611cd7565b60006106dc609c87878761151e565b90506106eb818686600061157d565b60008382600101546106fd9190614fcc565b121561074b5760405162461bcd60e51b815260206004820152601d60248201527f63616e2774207769746864726177206d6f7265207468616e20686176650000006044820152606401610545565b600083121561082e576001600160a01b03861633148015906107ec575060b5546040516351c4bc1f60e11b81526001600160a01b039091169063a389783e9061079a9089903390600401614e22565b60206040518083038186803b1580156107b257600080fd5b505afa1580156107c6573d6000803e3d6000fd5b505050506040513d601f19601f820116820180604052508101906107ea9190614b9c565b155b1561080a57604051637da45ce760e01b815260040160405180910390fd5b6108148184611727565b61081f818686611d98565b6108298684611dfb565b6108d6565b6108388184611727565b60b5546040516351c4bc1f60e11b81526000916001600160a01b03169063a389783e9061086b908a903390600401614e22565b60206040518083038186803b15801561088357600080fd5b505afa158015610897573d6000803e3d6000fd5b505050506040513d601f19601f820116820180604052508101906108bb9190614b9c565b156108c75750856108ca565b50335b6108d48185611dfb565b505b6001810154604080516001600160a01b0389168152600288810b602083015287900b818301526060810192909252517f9ed2335b5963496e2d16b7c4dbb12cd4000c2603f17e4df78f3c1973ce12a62a9181900360800190a1505050505050565b610942609a54611f72565b156109895760405162461bcd60e51b8152602060048201526017602482015276636c6f7365546f4f724265796f6e644d6174757269747960481b6044820152606401610545565b6109938383611cd7565b60006109a2609c83868661151e565b90506109b1818585600061157d565b60006109be828686611fbb565b9050806109de5760405163bf87c7d560e01b815260040160405180910390fd5b60006109f86109f08460010154611fef565b60975461203c565b9050670de0b6b3a76400008104610a18610a11826151b2565b8590611727565b835461010090046001600160801b031615610aa557609d548454604051631f2f089360e01b81526001600160a01b0390921691631f2f089391610a729189918c918c9161010090046001600160801b031690600401614e3c565b600060405180830381600087803b158015610a8c57600080fd5b505af1158015610aa0573d6000803e3d6000fd5b505050505b610ab184868989612048565b609854610ac8906001600160a01b03163383611c5e565b6004840154600585015460018601548654604080516001600160a01b038b16815260028d810b60208301528c900b918101919091526060810194909452608084019290925260a083015261010090046001600160801b031660c08201527f54e1aa9dab65a1673f75c6910ea071845b62a5cd1fa6a2bb09348ec2d00b14169060e00160405180910390a150505050505050565b6033546001600160a01b031690565b610bbd60405180610100016040528060001515815260200160006001600160801b031681526020016000815260200160008152602001600081526020016000815260200160008152602001600081525090565b610bca609c85858561151e565b604080516101008082018352835460ff811615158352046001600160801b031660208201526001830154918101919091526002820154606082015260038201546080820152600482015460a0820152600582015460c082015260069091015460e082015290505b9392505050565b33610c41610b5b565b6001600160a01b031614610c675760405162461bcd60e51b815260040161054590614e6f565b8051609e556020810151609f55604081015160a0908155606082015160a155608082015160a25581015160a35560c081015160a45560e081015160a55561010081015160a65561012081015160a75561014081015160a85561016081015160a95561018081015160aa556101a081015160ab556101c081015160ac556101e081015160ad5561020081015160ae55610220015160af55565b33610d08610b5b565b6001600160a01b031614610d2e5760405162461bcd60e51b815260040161054590614e6f565b60b08054908290556040517f4006ccfc8bf8f1556fc00b810abde999309f22813206397ad6d10430152817ed906106989083908590614f87565b609d546001600160a01b03163314610d9357604051633dec6c6960e11b815260040160405180910390fd5b805160208201516040830151600092610dae92609c9261151e565b9050610dc58183602001518460400151600161157d565b6060820151610dd5908290612278565b60008260600151600f0b1315610df857610df88183602001518460400151612375565b7f3eabc3706d08c6a8e3a01e0c047428e62f14c7c20a7fb49b2492fe8ac59f8bcd8260000151836020015184604001518460000160019054906101000a90046001600160801b03166040516106989493929190614e3c565b33610e59610b5b565b6001600160a01b031614610e7f5760405162461bcd60e51b815260040161054590614e6f565b60b38054908290556040517f4918c9706535b0901b483e33d83971ada066b087344ed55e16428d25acdb6e11906106989083908590614f87565b33610ec2610b5b565b6001600160a01b031614610ee85760405162461bcd60e51b815260040161054590614e6f565b609d80546001600160a01b0319166001600160a01b0392909216919091179055565b60655460ff1615610f505760405162461bcd60e51b815260206004820152601060248201526f14185d5cd8589b194e881c185d5cd95960821b6044820152606401610545565b610f586123aa565b609a541115610f7a576040516301730b8160e11b815260040160405180910390fd5b610f848383611cd7565b6000610f93609c83868661151e565b805490915060ff1615610fda5760405162461bcd60e51b815260206004820152600f60248201526e185b1c9958591e481cd95d1d1b1959608a1b6044820152606401610545565b610fe7818585600061157d565b6004808201546005830154609954609a5460b6546040516325f258dd60e01b815260009661108896959493926001600160a01b0316916325f258dd91611031918691869101614f87565b602060405180830381600087803b15801561104b57600080fd5b505af115801561105f573d6000803e3d6000fd5b505050506040513d601f19601f820116820180604052508101906110839190614df6565b6123b5565b90506110b1826004015461109b906151b2565b83600501546110a9906151b2565b8491906117a2565b6110bb8282611727565b6110cc82805460ff19166001179055565b6004820154600583015460018401548454604080516001600160a01b038916815260028b810b60208301528a900b818301526060810195909552608085019390935260a084019190915260ff16151560c0830152517ff8509b713e5189b4a0db0a68c687471fa8aeae7a70dbb0981f9e390e400631709181900360e00190a15050505050565b600060b35442611162919061512c565b60b254101561117857611173612420565b905090565b5060b15490565b600060b3544261118f919061512c565b60b2541015611178576111786124be565b336111a9610b5b565b6001600160a01b0316146111cf5760405162461bcd60e51b815260040161054590614e6f565b60978054908290556040517fb3eb2e4cbd291aa9b5b858b0d00e57a006f03b5a24ce306afc163d07ae1fc53e906106989083908590614f87565b600054610100900460ff166112245760005460ff161561122c565b61122c6124cf565b61128f5760405162461bcd60e51b815260206004820152602e60248201527f496e697469616c697a61626c653a20636f6e747261637420697320616c72656160448201526d191e481a5b9a5d1a585b1a5e995960921b6064820152608401610545565b600054610100900460ff161580156112b1576000805461ffff19166101011790555b6001600160a01b0385166112f85760405162461bcd60e51b815260206004820152600e60248201526d1555081b5d5cdd081899481cd95d60921b6044820152606401610545565b6001600160a01b03841661133f5760405162461bcd60e51b815260206004820152600e60248201526d1493c81b5d5cdd081899481cd95d60921b6044820152606401610545565b8261137d5760405162461bcd60e51b815260206004820152600e60248201526d1514c81b5d5cdd081899481cd95d60921b6044820152606401610545565b816113bb5760405162461bcd60e51b815260206004820152600e60248201526d1511481b5d5cdd081899481cd95d60921b6044820152606401610545565b609880546001600160a01b038088166001600160a01b0319928316179092556099859055609a84905560b680549287169282169290921790915560b58054909116331790556114086124e0565b61141061250f565b8015611422576000805461ff00191690555b5050505050565b609b546001600160a01b0316331461145457604051635d8a367560e01b815260040160405180910390fd5b60985461146b906001600160a01b03168383611c5e565b5050565b33611478610b5b565b6001600160a01b03161461149e5760405162461bcd60e51b815260040161054590614e6f565b6001600160a01b0381166115035760405162461bcd60e51b815260206004820152602660248201527f4f776e61626c653a206e6577206f776e657220697320746865207a65726f206160448201526564647265737360d01b6064820152608401610545565b61150c81611c0c565b50565b6001600160a01b03163b151590565b6040805160609490941b6001600160601b031916602080860191909152600293840b60e890811b60348701529290930b90911b60378401528051601a818503018152603a90930181528251928201929092206000908152929052902090565b835461010090046001600160801b03161561167957609d54604051631e47919f60e11b8152600285810b600483015284900b6024820152600091829182916001600160a01b031690633c8f233e9060440160606040518083038186803b1580156115e657600080fd5b505afa1580156115fa573d6000803e3d6000fd5b505050506040513d601f19601f8201168201806040525081019061161e9190614bfb565b9194509250905060008061163389868661253e565b909250905060006116448a8561268d565b90506116518a84846117a2565b60028a0186905560038a018590556116698a82611727565b5050506006870155506117219050565b801561172157609d54604051631e47919f60e11b8152600285810b600483015284900b6024820152600091829182916001600160a01b031690633c8f233e9060440160606040518083038186803b1580156116d357600080fd5b505afa1580156116e7573d6000803e3d6000fd5b505050506040513d601f19601f8201168201806040525081019061170b9190614bfb565b60028a0192909255600389015560068801555050505b50505050565b604080516101008082018352845460ff811615158352046001600160801b0316602082015260018401549181018290526002840154606082015260038401546080820152600484015460a0820152600584015460c0820152600684015460e082015290611795908390614fcc565b8360010181905550505050565b811515806117af57508015155b1561184057604080516101008082018352855460ff811615158352046001600160801b031660208201526001850154918101919091526002840154606082015260038401546080820152600484015460a08201819052600585015460c0830152600685015460e0830152611824908490614fcc565b600485015560c0810151611839908390614fcc565b6005850155505b505050565b60006118518484611cd7565b600080609d60009054906101000a90046001600160a01b03166001600160a01b03166380a0f76c6040518163ffffffff1660e01b815260040160606040518083038186803b1580156118a257600080fd5b505afa1580156118b6573d6000803e3d6000fd5b505050506040513d601f19601f820116820180604052508101906118da9190614d98565b5060b654609954609a546040516325f258dd60e01b81529496509294506000936001600160a01b03909216926325f258dd9261191a929190600401614f87565b602060405180830381600087803b15801561193457600080fd5b505af1158015611948573d6000803e3d6000fd5b505050506040513d601f19601f8201168201806040525081019061196c9190614df6565b885490915061010090046001600160801b031615611bea576119d96040518060e00160405280600060020b8152602001600081526020016000815260200160006001600160a01b03168152602001600081526020016000815260200160006001600160a01b031681525090565b8760020b8360020b126119ff578660020b8360020b126119f95786611a01565b82611a01565b875b600290810b900b80825289546000918291611a2d91908b9061010090046001600160801b031687612708565b91509150808b60050154611a419190614fcc565b602084015260048b0154611a56908390614fcc565b604084015282518b54611a7a91908c9061010090046001600160801b031687612708565b60058d01549193509150611a8f908290614fcc565b608084015260048b0154611aa4908390614fcc565b60a08401526000611ab48b6127b8565b90506000611ac18b6127b8565b90506000856020015113611af457816001600160a01b0316886001600160a01b031610611aee5781611b15565b87611b15565b806001600160a01b0316886001600160a01b031611611b135780611b15565b875b6001600160a01b031660608601526080850151600012611b5457816001600160a01b0316886001600160a01b031610611b4e5781611b75565b87611b75565b806001600160a01b0316886001600160a01b031611611b735780611b75565b875b6001600160a01b031660c0860152604085015160208601516060870151600092611ba29290918e90612bc2565b90506000611bbe8760a0015188608001518e8a60c00151612bc2565b905080821115611bd957509850611c04975050505050505050565b9950611c0498505050505050505050565b611bfe886004015489600501548786612bc2565b93505050505b949350505050565b603380546001600160a01b038381166001600160a01b0319831681179093556040519116919082907f8be0079c531659141344cd1fd0a4f28419497f9722a3daafe3b4186f6b6457e090600090a35050565b600060405163a9059cbb60e01b81526001600160a01b03841660048201528260248201526000806044836000895af1915050611c9981612bf6565b6117215760405162461bcd60e51b815260206004820152600f60248201526e1514905394d1915497d19052531151608a1b6044820152606401610545565b8060020b8260020b12611d125760405162461bcd60e51b8152602060048201526003602482015262544c5560e81b6044820152606401610545565b62010deb19600283900b1215611d505760405162461bcd60e51b8152602060048201526003602482015262544c4d60e81b6044820152606401610545565b611d5d62010deb19615198565b60020b8160020b131561146b5760405162461bcd60e51b815260206004820152600360248201526254554d60e81b6044820152606401610545565b609a54611da36123aa565b10611df057825460ff16611dca5760405163169b07f760e21b815260040160405180910390fd5b60008360010154121561184057604051630a5f871f60e21b815260040160405180910390fd5b611840838383612375565b6000811315611e1c5760985461146b906001600160a01b0316833084612c3b565b6098546040516370a0823160e01b81526000916001600160a01b0316906370a0823190611e4d903090600401614e0e565b60206040518083038186803b158015611e6557600080fd5b505afa158015611e79573d6000803e3d6000fd5b505050506040513d601f19601f82011682018060405250810190611e9d9190614df6565b905080611ea9836151b2565b1115611f52576000611eba836151b2565b90508115611ee657611ecc828261512c565b609854909150611ee6906001600160a01b03168584611c5e565b609b546040516318399f4d60e31b81526001600160a01b038681166004830152602482018490529091169063c1ccfa6890604401600060405180830381600087803b158015611f3457600080fd5b505af1158015611f48573d6000803e3d6000fd5b5050505050505050565b61184083611f5f846151b2565b6098546001600160a01b03169190611c5e565b600080611f7d6123aa565b9050828110611f8f5760019150611fb5565b6000611f9b828561512c565b905069124bc0ddd92e560000008111611fb357600192505b505b50919050565b600080611fcb8585856001611845565b90508085600101541215611fe25760019150611fe7565b600091505b509392505050565b60007812725dd1d243aba0e75fe645cc4873f9e65afe688c928e1f2182111561202e57604051633492ffd960e01b815260048101839052602401610545565b50670de0b6b3a76400000290565b6000610c318383612cc8565b6120528282611cd7565b60058401541561172157600080600080600088600501541290508015612165576040805160c0810182526001600160a01b038916815260058a0154602082015260009181016120ae6b0816769404766de590afe04e6001615038565b6001600160a01b0390811682526001602083015260028a810b604080850191909152908a900b606090930192909252609d549151638ef10c0360e01b81529293501690638ef10c0390612105908490600401614f2f565b606060405180830381600087803b15801561211f57600080fd5b505af1158015612133573d6000803e3d6000fd5b505050506040513d601f19601f820116820180604052508101906121579190614bfb565b919650945092506122549050565b6040805160c0810182526001600160a01b038916815260058a0154602082015260009181016121a260016c1fa71f3f5f68a90479ee3f8fec61510c565b6001600160a01b0390811682526001602083015260028a810b604080850191909152908a900b606090930192909252609d549151638ef10c0360e01b81529293501690638ef10c03906121f9908490600401614f2f565b606060405180830381600087803b15801561221357600080fd5b505af1158015612227573d6000803e3d6000fd5b505050506040513d601f19601f8201168201806040525081019061224b9190614bfb565b91965094509250505b811561226d5761226d612266836151b2565b8990611727565b611f488885856117a2565b604080516101008082018352845460ff811615158352046001600160801b031660208201526001840154918101919091526002830154606082015260038301546080820152600483015460a0820152600583015460c0820152600683015460e08201526000600f83900b61233357600082602001516001600160801b0316116123285760405162461bcd60e51b815260206004820152600260248201526104e560f41b6044820152606401610545565b506020810151612344565b612341826020015184612d8b565b90505b82600f0b6000146117215783546001600160801b03821661010002610100600160881b031990911617845550505050565b60006123848484846000611845565b90508084600101541361172157604051630a53e22f60e41b815260040160405180910390fd5b600061117342611fef565b6000806123c187612e4b565b905060006123ce87612e4b565b905060006123e7836123e260018a8a612ec8565b612f93565b905060006123f58387612f93565b905060006124038284614fcc565b9050670de0b6b3a764000081055b9b9a5050505050505050505050565b60b05460009042908290612434908361512c565b60b6546040516393556dbd60e01b81529192506001600160a01b0316906393556dbd906124679084908690600401614f87565b60206040518083038186803b15801561247f57600080fd5b505afa158015612493573d6000803e3d6000fd5b505050506040513d601f19601f820116820180604052508101906124b79190614df6565b9250505090565b6124c6612420565b60b1554260b255565b60006124da3061150f565b15905090565b600054610100900460ff166125075760405162461bcd60e51b815260040161054590614ec2565b6105a9613058565b600054610100900460ff166125365760405162461bcd60e51b815260040161054590614ec2565b6105a9613088565b604080516101008082018352855460ff811615158352046001600160801b0316602082015260018501549181019190915260028401546060820181905260038501546080830152600485015460a0830152600585015460c0830152600685015460e0830152600091829182906125b490876150a5565b905060008113156125e2576125db8183602001516001600160801b0316600160801b6130bb565b9350612612565b6126066125ee826151b2565b83602001516001600160801b0316600160801b6130bb565b61260f906151b2565b93505b600082608001518661262491906150a5565b905060008113156126525761264b8184602001516001600160801b0316600160801b6130bb565b9350612682565b61267661265e826151b2565b84602001516001600160801b0316600160801b6130bb565b61267f906151b2565b93505b505050935093915050565b604080516101008082018352845460ff811615158352046001600160801b0316602082018190526001850154928201929092526002840154606082015260038401546080820152600484015460a0820152600584015460c0820152600684015460e08201819052600092611c0491850390600160801b6130bb565b6000808460020b8660020b1415612724575060009050806127af565b600061275c612732886127b8565b61273b886127b8565b8860020b8a60020b1261274e57876131b3565b61275788615172565b6131b3565b9050600061279661276c896127b8565b612775896127b8565b8960020b8b60020b126127905761278b89615172565b6131fa565b886131fa565b90506127a9828287609954609a5461322e565b93509150505b94509492505050565b60008060008360020b126127cf578260020b6127dc565b8260020b6127dc906151b2565b90506127eb62010deb19615198565b60020b8111156128215760405162461bcd60e51b81526020600482015260016024820152601560fa1b6044820152606401610545565b60006001821661283557600160801b612847565b6ffffcb933bd6fad37aa2d162d1a5940015b6001600160881b03169050600282161561287c576080612877826ffff97272373d413259a46990580e213a615086565b901c90505b60048216156128a65760806128a1826ffff2e50f5f656932ef12357cf3c7fdcc615086565b901c90505b60088216156128d05760806128cb826fffe5caca7e10e4e61c3624eaa0941cd0615086565b901c90505b60108216156128fa5760806128f5826fffcb9843d60f6159c9db58835c926644615086565b901c90505b602082161561292457608061291f826fff973b41fa98c081472e6896dfb254c0615086565b901c90505b604082161561294e576080612949826fff2ea16466c96a3843ec78b326b52861615086565b901c90505b6080821615612978576080612973826ffe5dee046a99a2a811c461f1969c3053615086565b901c90505b6101008216156129a357608061299e826ffcbe86c7900a88aedcffc83b479aa3a4615086565b901c90505b6102008216156129ce5760806129c9826ff987a7253ac413176f2b074cf7815e54615086565b901c90505b6104008216156129f95760806129f4826ff3392b0822b70005940c7a398e4b70f3615086565b901c90505b610800821615612a24576080612a1f826fe7159475a2c29b7443b29c7fa6e889d9615086565b901c90505b611000821615612a4f576080612a4a826fd097f3bdfd2022b8845ad8f792aa5825615086565b901c90505b612000821615612a7a576080612a75826fa9f746462d870fdf8a65dc1f90e061e5615086565b901c90505b614000821615612aa5576080612aa0826f70d869a156d2a1b890bb3df62baf32f7615086565b901c90505b618000821615612ad0576080612acb826f31be135f97d08fd981231505542fcfa6615086565b901c90505b62010000821615612afc576080612af7826f09aa508b5b7a84e1c677de54f3e99bc9615086565b901c90505b62020000821615612b27576080612b22826e5d6af8dedb81196699c329225ee604615086565b901c90505b62040000821615612b51576080612b4c826d2216e584f5fa1ea926041bedfe98615086565b901c90505b62080000821615612b79576080612b74826b048a170391f7dc42444e8fa2615086565b901c90505b60008460020b1315612b9457612b9181600019615072565b90505b612ba2600160201b8261515e565b15612bae576001612bb1565b60005b611c049060ff16602083901c61505a565b6000612bcf8585856132f9565b90506000612bdf86868686613479565b905080821015612bed578091505b50949350505050565b60003d82612c0857806000803e806000fd5b8060208114612c20578015612c315760009250611fb3565b816000803e60005115159250611fb3565b5060019392505050565b60006040516323b872dd60e01b81526001600160a01b03851660048201526001600160a01b038416602482015282604482015260008060648360008a5af1915050612c8581612bf6565b6114225760405162461bcd60e51b81526020600482015260146024820152731514905394d1915497d19493d357d1905253115160621b6044820152606401610545565b60008080600019848609848602925082811083820303915050670de0b6b3a76400008110612d0c5760405163698d9a0160e11b815260048101829052602401610545565b600080670de0b6b3a76400008688099150506706f05b59d3b1ffff811182612d465780670de0b6b3a7640000850401945050505050612d85565b620400008285030493909111909103600160ee1b02919091177faccb18165bd6fe31ae1cf318dc5b51eee0e1ba569b88cd74c1773b91fac10669020190505b92915050565b60008082600f0b1215612df8576001600160801b038316612dab83615172565b612db590856150e4565b9150816001600160801b031610612df35760405162461bcd60e51b81526020600482015260026024820152614c5360f01b6044820152606401610545565b612d85565b6001600160801b038316612e0c838561500d565b9150816001600160801b03161015612d855760405162461bcd60e51b81526020600482015260026024820152614c4160f01b6044820152606401610545565b60007809392ee8e921d5d073aff322e62439fcf32d7f344649470f8f19821215612e8b5760405163e608e18b60e01b815260048101839052602401610545565b7809392ee8e921d5d073aff322e62439fcf32d7f344649470f9082131561202e576040516371f72a3160e01b815260048101839052602401610545565b6000828211612ee95760405162461bcd60e51b815260040161054590614ea4565b82612ef26123aa565b1015612f285760405162461bcd60e51b8152602060048201526005602482015264422e543c5360d81b6044820152606401610545565b60008480612f3d575082612f3a6123aa565b10155b15612f5357612f4c848461512c565b9050612f69565b83612f5c6123aa565b612f66919061512c565b90505b6000612f7482613631565b9050612f898168056bc75e2d63100000613644565b9695505050505050565b6000600160ff1b831480612faa5750600160ff1b82145b15612fc857604051630d01a11b60e21b815260040160405180910390fd5b60008060008512612fd95784612fde565b846000035b915060008412612fee5783612ff3565b836000035b905060006130018383612cc8565b90506001600160ff1b0381111561302e5760405163bf79e8d960e01b815260048101829052602401610545565b600019808713908613808218600114613047578261304c565b826000035b98975050505050505050565b600054610100900460ff1661307f5760405162461bcd60e51b815260040161054590614ec2565b6105a933611c0c565b600054610100900460ff166130af5760405162461bcd60e51b815260040161054590614ec2565b6065805460ff19169055565b60008080600019858709858702925082811083820303915050806000141561312b57600084116131205760405162461bcd60e51b815260206004820152601060248201526f4469766973696f6e206279207a65726f60801b6044820152606401610545565b508290049050610c31565b80841161314a5760405162461bcd60e51b815260040161054590614f0d565b60008486880960026001871981018816978890046003810283188082028403028082028403028082028403028082028403028082028403029081029092039091026000889003889004909101858311909403939093029303949094049190911702949350505050565b60008082600f0b126131d9576131d46131cf8585856001613659565b61376e565b611c04565b6131f16131cf85856131ea86615172565b6000613659565b611c04906151b2565b60008082600f0b12613216576131d46131cf85858560016137be565b6131f16131cf858561322786615172565b60006137be565b6000808613158015613241575060008512155b80613259575060008612158015613259575060008513155b8061326b57508515801561326b575084155b613288576040516301161e4160e01b815260040160405180910390fd5b600061329387612e4b565b905060006132a087612e4b565b90508484116132c15760405162461bcd60e51b815260040161054590614ea4565b60006132d08383898989613837565b905060006132e08483898961389f565b670de0b6b3a764000090059a9950505050505050505050565b600080841215801561330c575060008312155b1561331957506000610c31565b600061332485612e4b565b9050600061333185612e4b565b90506000609954609a54613345919061512c565b9050600061335d846123e26001609954609a54612ec8565b9050600061342d846123e285609a546133746123aa565b60008e128d61338161117f565b6040805161024081018252609e548152609f54602082015260a080549282019290925260a154606082015260a254608082015260a3549181019190915260a45460c082015260a55460e082015260a65461010082015260a75461012082015260a85461014082015260a95461016082015260aa5461018082015260ab546101a082015260ac546101c082015260ad546101e082015260ae5461020082015260af546102208201526138f7565b9050600061343b8284614fcc565b9050600081121561346757613460613452826151b2565b670de0b6b3a7640000900490565b965061346c565b600096505b5050505050509392505050565b60008361348857506000611c04565b6000806000808713156134ec5760008813156134aa5760009350505050611c04565b85156134bd57505060a65460aa546134c6565b505060a85460ac545b6134e587868484609a546134d86123aa565b60a55460ae54600161398e565b925061353b565b85156134ff57505060a75460ab54613508565b505060a95460ad545b61352f613514886151b2565b868484609a546135226123aa565b60a55460ae54600061398e565b613538906151b2565b92505b6000613546886151b2565b60b654609954609a546040516325f258dd60e01b81529394506000936135e693899387936001600160a01b03909216926325f258dd926135899291600401614f87565b602060405180830381600087803b1580156135a357600080fd5b505af11580156135b7573d6000803e3d6000fd5b505050506040513d601f19601f820116820180604052508101906135db9190614df6565b609954609a5461322e565b905060006135f4838b614fcc565b90506000613602838d614fcc565b905061360f81838c6132f9565b60af549098508810156136225760af5497505b50505050505050949350505050565b6000612d85826a1a1601fc4ea7109e0000005b6000610c3183670de0b6b3a764000084613b3b565b6000836001600160a01b0316856001600160a01b03161115613679579293925b600160601b600160e01b03606084901b166000613696878761510c565b6001600160a01b031690506000876001600160a01b0316116136f35760405162461bcd60e51b8152602060048201526016602482015275073717274207072696365206d757374206265203e20360541b6044820152606401610545565b8361373757866001600160a01b03166137168383896001600160a01b03166130bb565b8161373157634e487b7160e01b600052601260045260246000fd5b04613763565b61376361374e8383896001600160a01b0316613ba8565b886001600160a01b0316808204910615150190565b979650505050505050565b6000600160ff1b82106137ba5760405162461bcd60e51b815260206004820152601460248201527337bb32b9333637bb9034b7103a37a4b73a191a9b60611b6044820152606401610545565b5090565b6000836001600160a01b0316856001600160a01b031611156137de579293925b8161380b57613806836001600160801b03168686036001600160a01b0316600160601b6130bb565b61382e565b61382e836001600160801b03168686036001600160a01b0316600160601b613ba8565b95945050505050565b600061385d60405180606001604052806000815260200160008152602001600081525090565b61386d876123e260008787612ec8565b81526138798686612f93565b60208201819052815161388c9190614fcc565b6040909101819052905095945050505050565b60008282116138c05760405162461bcd60e51b815260040161054590614ea4565b60006138d2866123e260018787612ec8565b905060006138e086836150a5565b9050613763816138f260018888612ec8565b613c09565b60008061390389613631565b9050851561394a57841561392f57613928613922898987600188613ccf565b8261203c565b9150613982565b6139286139226139438a8a88600189613ccf565b855161203c565b841561396157613928613922898987600088613ccf565b61397f6139226139758a8a88600089613ccf565b856020015161203c565b91505b50979650505050505050565b60006139df6040518061012001604052806000815260200160008152602001600081526020016000815260200160008152602001600081526020016000815260200160008152602001600081525090565b613a006139ec6001611fef565b8b6001600160a01b0316600160601b6130bb565b8152613a20613a0f6001611fef565b8251613a1b908061203c565b613644565b60208201819052613a31908a61203c565b60408201819052881115613a4757604081018890525b613a5a613a54878961512c565b86613644565b6060820152613a75613a6b856151b2565b8260600151612f93565b60808201819052613a8590613efa565b613a8f6001612e4b565b613a9991906150a5565b60a082018190526040820151613aae9161203c565b60c08201528215613af3578060c0015181602001511115613ae7578060c001518160200151613add919061512c565b60e0820152613b0d565b600060e0820152613b0d565b8060c001518160200151613b07919061505a565b60e08201525b613b23613b198c611fef565b8260e0015161203c565b6101008201819052670de0b6b3a76400009004612411565b600080806000198587098587029250828110838203039150508060001415613b8457838281613b7a57634e487b7160e01b600052601260045260246000fd5b0492505050610c31565b83811061314a578084604051631dcf306360e21b8152600401610545929190614f87565b6000613bb58484846130bb565b905060008280613bd557634e487b7160e01b600052601260045260246000fd5b8486091115610c31576000198110613bff5760405162461bcd60e51b815260040161054590614f0d565b8061382e81615143565b6000600160ff1b831480613c205750600160ff1b82145b15613c3e5760405163b3c754a360e01b815260040160405180910390fd5b60008060008512613c4f5784613c54565b846000035b915060008412613c645783613c69565b836000035b90506000613c8083670de0b6b3a764000084613b3b565b90506001600160ff1b03811115613cad57604051637cb4bef560e01b815260048101829052602401610545565b600019808713908613808218600114613cc6578261304c565b61304c836151b2565b6000613d206040518061012001604052806000815260200160008152602001600081526020016000815260200160008152602001600081526020016000815260200160008152602001600081525090565b6000613d3484608001516123e26004612e4b565b90506000613d4a85606001516123e26004612e4b565b9050613d57898987613f6a565b808452613d646001612e4b565b613d6e91906150a5565b60208401526040850151613d83908290613c09565b836040018181525050613da7613da186604001518560200151612f93565b83613c09565b60608401528251613dc390613dbd908490612f93565b88612f93565b608084015260408501516020840151613ddc9190612f93565b60a084018190526080840151613df191613c09565b60c08401526040830151613e2a90613e16613e0c6002612e4b565b8660c00151612f93565b613e209190614fcc565b6123e26002612e4b565b60e08401528515613e5557613e4a8560a001516123e28560e0015161408a565b610100840152613e71565b613e6a8560c001516123e28560e0015161408a565b6101008401525b600086613ea957613ea484606001518561010001518660c001518760400151613e9a9190614fcc565b6123e291906150a5565b613ed5565b613ed584606001518561010001518660c001518760400151613ecb9190614fcc565b6123e29190614fcc565b90506000811215613ee95760009450613eed565b8094505b5050505095945050505050565b600068023f2fa8f6da5b9d3119821215613f1657506000919050565b680736ea4425c11ac6318212613f42576040516399bb754160e01b815260048101839052602401610545565b6714057b7ef767814f8202610c31670de0b6b3a76400006706f05b59d3b20000830105614100565b6000808411613fba5760405162461bcd60e51b815260206004820152601c60248201527b07465726d456e6454696d657374616d70206d757374206265203e20360241b6044820152606401610545565b8383111561400a5760405162461bcd60e51b815260206004820152601d60248201527f656e6454696d65206d757374206265203e2063757272656e7454696d650000006044820152606401610545565b60808201516140505760405162461bcd60e51b81526020600482015260126024820152711c185c985b595d195c9cc81b9bdd081cd95d60721b6044820152606401610545565b608082015160e08301516000614069613da187896150a5565b9050600061407f614079856151b2565b83612f93565b905061304c81613efa565b6000808212156140b05760405163608c83ff60e11b815260048101839052602401610545565b7809392ee8e921d5d073aff322e62439fcf32d7f344649470f908213156140ed57604051632c482c3960e01b815260048101839052602401610545565b612d85670de0b6b3a764000083026141a5565b6000808212156141615768033dd1780914b971141982121561412457506000919050565b61413082600003614100565b6a0c097ce7bc90715b34b9f160241b8161415a57634e487b7160e01b600052601260045260246000fd5b0592915050565b680a688906bd8b000000821261418d5760405163e69458f960e01b815260048101839052602401610545565b670de0b6b3a7640000604083901b04610c3181614380565b6000816141b457506000919050565b50600181600160801b81106141ce5760409190911b9060801c5b600160401b81106141e45760209190911b9060401c5b600160201b81106141fa5760109190911b9060201c5b62010000811061420f5760089190911b9060101c5b61010081106142235760049190911b9060081c5b601081106142365760029190911b9060041c5b6008811061424657600182901b91505b600182848161426557634e487b7160e01b600052601260045260246000fd5b048301901c9150600182848161428b57634e487b7160e01b600052601260045260246000fd5b048301901c915060018284816142b157634e487b7160e01b600052601260045260246000fd5b048301901c915060018284816142d757634e487b7160e01b600052601260045260246000fd5b048301901c915060018284816142fd57634e487b7160e01b600052601260045260246000fd5b048301901c9150600182848161432357634e487b7160e01b600052601260045260246000fd5b048301901c9150600182848161434957634e487b7160e01b600052601260045260246000fd5b048301901c9150600082848161436f57634e487b7160e01b600052601260045260246000fd5b04905080831015610c315782611c04565b600160bf1b6001603f1b8216156143a05768016a09e667f3bcc9090260401c5b6001603e1b8216156143bb576801306fe0a31b7152df0260401c5b6001603d1b8216156143d6576801172b83c7d517adce0260401c5b6001603c1b8216156143f15768010b5586cf9890f62a0260401c5b6001603b1b82161561440c576801059b0d31585743ae0260401c5b6001603a1b82161561442757680102c9a3e778060ee70260401c5b600160391b8216156144425768010163da9fb33356d80260401c5b600160381b82161561445d57680100b1afa5abcbed610260401c5b600160371b8216156144785768010058c86da1c09ea20260401c5b600160361b821615614493576801002c605e2e8cec500260401c5b600160351b8216156144ae57680100162f3904051fa10260401c5b600160341b8216156144c9576801000b175effdc76ba0260401c5b600160331b8216156144e457680100058ba01fb9f96d0260401c5b600160321b8216156144ff5768010002c5cc37da94920260401c5b600160311b82161561451a576801000162e525ee05470260401c5b600160301b8216156145355768010000b17255775c040260401c5b6001602f1b821615614550576801000058b91b5bc9ae0260401c5b6001602e1b82161561456b57680100002c5c89d5ec6d0260401c5b6001602d1b8216156145865768010000162e43f4f8310260401c5b6001602c1b8216156145a157680100000b1721bcfc9a0260401c5b6001602b1b8216156145bc5768010000058b90cf1e6e0260401c5b6001602a1b8216156145d7576801000002c5c863b73f0260401c5b600160291b8216156145f257680100000162e430e5a20260401c5b600160281b82161561460d576801000000b1721835510260401c5b600160271b82161561462857680100000058b90c0b490260401c5b600160261b8216156146435768010000002c5c8601cc0260401c5b600160251b82161561465e576801000000162e42fff00260401c5b600160241b8216156146795768010000000b17217fbb0260401c5b600160231b821615614694576801000000058b90bfce0260401c5b600160221b8216156146af57680100000002c5c85fe30260401c5b600160211b8216156146ca5768010000000162e42ff10260401c5b600160201b8216156146e557680100000000b17217f80260401c5b63800000008216156147005768010000000058b90bfc0260401c5b634000000082161561471b576801000000002c5c85fe0260401c5b632000000082161561473657680100000000162e42ff0260401c5b6310000000821615614751576801000000000b17217f0260401c5b630800000082161561476c57680100000000058b90c00260401c5b63040000008216156147875768010000000002c5c8600260401c5b63020000008216156147a2576801000000000162e4300260401c5b63010000008216156147bd5768010000000000b172180260401c5b628000008216156147d7576801000000000058b90c0260401c5b624000008216156147f157680100000000002c5c860260401c5b6220000082161561480b5768010000000000162e430260401c5b6210000082161561482557680100000000000b17210260401c5b6208000082161561483f5768010000000000058b910260401c5b62040000821615614859576801000000000002c5c80260401c5b6202000082161561487357680100000000000162e40260401c5b6201000082161561488c5761b172600160401b010260401c5b6180008216156148a4576158b9600160401b010260401c5b6140008216156148bc57612c5d600160401b010260401c5b6120008216156148d45761162e600160401b010260401c5b6110008216156148ec57610b17600160401b010260401c5b6108008216156149045761058c600160401b010260401c5b61040082161561491c576102c6600160401b010260401c5b61020082161561493457610163600160401b010260401c5b61010082161561494b5760b1600160401b010260401c5b6080821615614961576059600160401b010260401c5b604082161561497757602c600160401b010260401c5b602082161561498d576016600160401b010260401c5b60108216156149a357600b600160401b010260401c5b60088216156149b9576006600160401b010260401c5b60048216156149cf576003600160401b010260401c5b60028216156149e5576001600160401b010260401c5b60018216156149fb576001600160401b010260401c5b670de0b6b3a76400000260409190911c60bf031c90565b600060208284031215614a23578081fd5b8135610c31816151f8565b60008060008060808587031215614a43578283fd5b8435614a4e816151f8565b93506020850135614a5e816151f8565b93969395505050506040820135916060013590565b600080600060608486031215614a87578283fd5b8335614a92816151f8565b92506020840135614aa28161520d565b91506040840135614ab28161520d565b809150509250925092565b60008060008060808587031215614ad2578384fd5b8435614add816151f8565b93506020850135614aed8161520d565b92506040850135614afd8161520d565b9396929550929360600135925050565b60008060008060008060c08789031215614b25578182fd5b8635614b30816151f8565b95506020870135614b408161520d565b94506040870135614b508161520d565b959894975094956060810135955060808101359460a0909101359350915050565b60008060408385031215614b83578081fd5b8235614b8e816151f8565b946020939093013593505050565b600060208284031215614bad578081fd5b81518015158114610c31578182fd5b600080600060608486031215614bd0578081fd5b8335614bdb8161520d565b92506020840135614beb8161520d565b91506040840135614ab2816151f8565b600080600060608486031215614c0f578081fd5b8351925060208401519150604084015190509250925092565b60006102408284031215614c3a578081fd5b614c42614f95565b823581526020808401359082015260408084013590820152606080840135908201526080808401359082015260a0808401359082015260c0808401359082015260e08084013590820152610100808401359082015261012080840135908201526101408084013590820152610160808401359082015261018080840135908201526101a080840135908201526101c080840135908201526101e080840135908201526102008084013590820152610220928301359281019290925250919050565b600060808284031215614d14578081fd5b604051608081016001600160401b0381118282101715614d4257634e487b7160e01b83526041600452602483fd5b6040528235614d50816151f8565b81526020830135614d608161520d565b60208201526040830135614d738161520d565b60408201526060830135600f81900b8114614d8c578283fd5b60608201529392505050565b600080600060608486031215614dac578081fd5b8351614db7816151f8565b6020850151909350614dc88161520d565b604085015190925060ff81168114614ab2578182fd5b600060208284031215614def578081fd5b5035919050565b600060208284031215614e07578081fd5b5051919050565b6001600160a01b0391909116815260200190565b6001600160a01b0392831681529116602082015260400190565b6001600160a01b03949094168452600292830b6020850152910b60408301526001600160801b0316606082015260800190565b6020808252818101527f4f776e61626c653a2063616c6c6572206973206e6f7420746865206f776e6572604082015260600190565b602080825260049082015263453c3d5360e01b604082015260600190565b6020808252602b908201527f496e697469616c697a61626c653a20636f6e7472616374206973206e6f74206960408201526a6e697469616c697a696e6760a81b606082015260800190565b6020808252600890820152676f766572666c6f7760c01b604082015260600190565b600060c08201905060018060a01b038084511683526020840151602084015280604085015116604084015250606083015115156060830152608083015160020b608083015260a083015160020b60a083015292915050565b918252602082015260400190565b60405161024081016001600160401b0381118282101715614fc657634e487b7160e01b600052604160045260246000fd5b60405290565b600080821280156001600160ff1b0384900385131615614fee57614fee6151cc565b600160ff1b8390038412811615615007576150076151cc565b50500190565b60006001600160801b0382811684821680830382111561502f5761502f6151cc565b01949350505050565b60006001600160a01b0382811684821680830382111561502f5761502f6151cc565b6000821982111561506d5761506d6151cc565b500190565b600082615081576150816151e2565b500490565b60008160001904831182151516156150a0576150a06151cc565b500290565b60008083128015600160ff1b8501841216156150c3576150c36151cc565b6001600160ff1b03840183138116156150de576150de6151cc565b50500390565b60006001600160801b0383811690831681811015615104576151046151cc565b039392505050565b60006001600160a01b0383811690831681811015615104576151046151cc565b60008282101561513e5761513e6151cc565b500390565b6000600019821415615157576151576151cc565b5060010190565b60008261516d5761516d6151e2565b500690565b6000600f82900b60016001607f1b0319811415615191576151916151cc565b9003919050565b60008160020b627fffff19811415615191576151916151cc565b6000600160ff1b8214156151c8576151c86151cc565b0390565b634e487b7160e01b600052601160045260246000fd5b634e487b7160e01b600052601260045260246000fd5b6001600160a01b038116811461150c57600080fd5b8060020b811461150c57600080fdfea2646970667358221220338cacc19a358a4559f503d74ecca14a2c2d8259f96fc66f1c16a10dd8b604f964736f6c63430008040033",
  "devdoc": {
    "errors": {
      "MarginLessThanMinimum()": [
        {
          "details": "Cannot have less margin than the minimum requirement"
        }
      ],
      "PositionNetZero()": [
        {
          "details": "No need to unwind a net zero position"
        }
      ],
      "PositionNotSettled()": [
        {
          "details": "Position must be settled after AMM has reached maturity"
        }
      ],
      "WithdrawalExceedsCurrentMargin()": [
        {
          "details": "We can't withdraw more margin than we have"
        }
      ]
    },
    "kind": "dev",
    "methods": {
      "collectProtocol(address,uint256)": {
        "params": {
          "amount": "the amount in terms of underlying tokens collected from the protocol's earnings",
          "recipient": "the address which collects the protocol generated fees"
        }
      },
      "constructor": {
        "custom:oz-upgrades-unsafe-allow": "constructor"
      },
      "getHistoricalApy()": {
        "details": "The lookback window used by this function is determined by the secondsAgo state variable"
      },
      "getHistoricalApyReadOnly()": {
        "details": "The lookback window used by this function is determined by the secondsAgo state variable"
      },
      "getPosition(address,int24,int24)": {
        "params": {
          "_owner": "The address of the position owner",
          "tickLower": "The lower tick boundary of the position",
          "tickUpper": "The upper tick boundary of the position Returns position The Position.Info corresponding to the requested position"
        }
      },
      "initialize(address,address,uint256,uint256)": {
        "details": "\"constructor\" for proxy instances"
      },
      "liquidatePosition(int24,int24,address)": {
        "details": "Steps to liquidate: update position's fixed and variable token balances to account for balances accumulated throughout the trades made since the last mint/burn/poke,Check if the position is liquidatable by calling the isLiquidatablePosition function of the calculator, revert if that is not the case,Calculate the liquidation reward = current margin of the position * liquidatorReward, subtract the liquidator reward from the position margin,Burn the position's liquidity, unwind unnetted fixed and variable balances of a position, transfer the reward to the liquidator"
      },
      "owner()": {
        "details": "Returns the address of the current owner."
      },
      "paused()": {
        "details": "Returns true if the contract is paused, and false otherwise."
      },
      "renounceOwnership()": {
        "details": "Leaves the contract without owner. It will not be possible to call `onlyOwner` functions anymore. Can only be called by the current owner. NOTE: Renouncing ownership will leave the contract without an owner, thereby removing any functionality that is only available to the owner."
      },
      "setCacheMaxAgeInSeconds(uint256)": {
        "params": {
          "_cacheMaxAgeInSeconds": "The new maximum age that the historical APY cache can be before being considered stale"
        }
      },
      "setMarginCalculatorParameters((uint256,uint256,int256,int256,int256,int256,int256,int256,uint256,uint256,uint256,uint256,uint256,uint256,uint256,uint256,uint256,uint256))": {
        "details": "marginCalculatorParameteres is of type MarginCalculatorParameters (refer to the definition of the struct for elaboration on what each parameter means)",
        "params": {
          "_marginCalculatorParameters": "the MarginCalculatorParameters to set"
        }
      },
      "setSecondsAgo(uint256)": {
        "details": "Can only be set by the Factory Owner",
        "params": {
          "_secondsAgo": "the duration of the lookback window in seconds"
        }
      },
      "setVAMM(address)": {
        "details": "the VAMM is responsible for price discovery, whereas the management of the underlying collateral and liquidations are handled by the Margin Engine"
      },
      "settlePosition(int24,int24,address)": {
        "details": "Can be called by anyoneA position cannot be settled before maturitySteps to settle a position:1. Retrieve the current fixed and variable token growth inside the tick range of a position2. Calculate accumulated fixed and variable balances of the position since the last mint/poke/burn3. Update the postion's fixed and variable token balances4. Update the postion's fixed and varaible token growth inside last to enable future updates5. Calculates the settlement cashflow from all of the IRS contracts the position has entered since entering the AMM6. Updates the fixed and variable token balances of the position to be zero, adds the settlement cashflow to the position's current margin"
      },
      "transferMarginToFCMTrader(address,uint256)": {
        "details": "post maturity date of the MarginEngine, the traders from the Full Collateralisation module will be able to settle with the MarginEngineto ensure their fixed yield is guaranteed, in order to collect the funds from the MarginEngine, the FCM needs to invoke the transferMarginToFCMTrader function whcih is only callable by the FCM attached to a particular Margin Engine"
      },
      "transferOwnership(address)": {
        "details": "Transfers ownership of the contract to a new account (`newOwner`). Can only be called by the current owner."
      },
      "updatePositionMargin(address,int24,int24,int256)": {
        "details": "if the position has positive liquidity then before the margin update, we call the updatePositionTokenBalancesAndAccountForFees functon that calculates up to datemargin, fixed and variable token balances by taking into account the fee income from their tick range and fixed and variable deltas settled along their tick rangemarginDelta is the delta applied to the current margin of a positioin, if the marginDelta is negative, the position is withdrawing margin, if the marginDelta is positive, the position is depositing funds in terms of the underlying tokensif marginDelta is negative, we need to check if the msg.sender is either the _owner of the position or the msg.sender is apporved by the _owner to act on their behalf in Voltz Protocolthe approval logic is implemented in the Factory.solif marginDelta is negative, we additionally need to check if post the initial margin requirement is still satisfied post withdrawalif marginDelta is positive, the depositor of the margin is either the msg.sender or the owner who interacted through an approved peripheral contract"
      },
      "updatePositionPostVAMMInducedMintBurn((address,int24,int24,int128))": {
        "details": "Steps taken:1. Update position liquidity based on params.liquidityDelta2. Update fixed and variable token balances of the position based on how much has been accumulated since the last mint/burn/poke3. Update position's margin by taking into account the position accumulated fees since the last mint/burn/poke4. Update fixed and variable token growth + fee growth in the position info struct for future interactions with the position",
        "params": {
          "params": "necessary for the purposes of referencing the position being updated (owner, tickLower, tickUpper, _) and the liquidity delta that needs to be applied to position._liquidity"
        }
      },
      "updatePositionPostVAMMInducedSwap(address,int24,int24,int256,int256,uint256)": {
        "details": "Since every position can also engage in swaps with the VAMM, this function needs to be invoked after non-external calls are made to the VAMM's swap functionThis purpose of this function is to:1. updatePositionTokenBalancesAndAccountForFees2. update position margin to account for fees paid to execute the swap3. calculate the position margin requrement given the swap, check if the position marigin satisfies the most up to date requirement4. if all the requirements are satisfied then position gets updated to take into account the swap that it just entered, if the minimum margin requirement is not satisfied then the transaction will revert"
      }
    },
    "stateVariables": {
      "factory": {
        "details": "the factory that deployed the master Margin Engine"
      },
      "fcm": {
        "details": "The FCM is a smart contract that acts as an intermediary Position between the Voltz Core and traders who wish to take fully collateralised fixed taker positionsAn example FCM is the AaveFCM.sol module which inherits from the IFCM interface, it lets fixed takers deposit underlying yield bearing tokens (e.g.) aUSDC as margin to enter into a fixed taker swap without the need to worry about liquidationssince the MarginEngine is confident the FCM is always fully collateralised, it does not let liquidators liquidate the FCM Position",
        "return": "The Full Collateralisation Module linked to the MarginEngine",
        "returns": {
          "_0": "The Full Collateralisation Module linked to the MarginEngine"
        }
      },
      "liquidatorRewardWad": {
        "details": "liquidatorReward (in wad) is the percentage of the margin (of a liquidated position) that is sent to the liquidatorfollowing a successful liquidation that results in a trader/position unwind; example value:  2 * 10**16 => 2% of position margin is used to cover liquidator reward",
        "return": "Liquidator Reward in Wad",
        "returns": {
          "_0": "Liquidator Reward in Wad"
        }
      },
      "rateOracle": {
        "return": "The underlying ERC20 token (e.g. USDC)",
        "returns": {
          "_0": "The underlying ERC20 token (e.g. USDC)"
        }
      },
      "secondsAgo": {
        "details": "The historical APY of the Rate Oracle is necessary for MarginEngine computationsThe look-back window is seconds from the current timestampThis value is only settable by the the Factory owner and may be unique for each MarginEngineWhen setting secondAgo, the setter needs to take into consideration the underlying volatility of the APYs in the reference yield-bearing pool (e.g. Aave v2 USDC)"
      },
      "termEndTimestampWad": {
        "return": "Term End Timestamp in Wad",
        "returns": {
          "_0": "Term End Timestamp in Wad"
        }
      },
      "termStartTimestampWad": {
        "return": "Term Start Timestamp in Wad",
        "returns": {
          "_0": "Term Start Timestamp in Wad"
        }
      },
      "underlyingToken": {
        "return": "The underlying ERC20 token (e.g. USDC)",
        "returns": {
          "_0": "The underlying ERC20 token (e.g. USDC)"
        }
      },
      "vamm": {
        "details": "The VAMM is responsible for pricing only (determining the effective fixed rate at which a given Interest Rate Swap notional will be executed)",
        "return": "The VAMM",
        "returns": {
          "_0": "The VAMM"
        }
      }
    },
    "version": 1
  },
  "userdoc": {
    "errors": {
      "AmountSignsSame()": [
        {
          "notice": "amount0 and amount1 must have different signs"
        }
      ],
      "CannotLiquidate()": [
        {
          "notice": "The position/trader needs to be below the liquidation threshold to be liquidated"
        }
      ],
      "CannotSettleBeforeMaturity()": [
        {
          "notice": "Positions and Traders cannot be settled before the applicable interest rate swap has matured"
        }
      ],
      "InvalidMarginDelta()": [
        {
          "notice": "Margin delta must not equal zero"
        }
      ],
      "MarginRequirementNotMet()": [
        {
          "notice": "The resulting margin does not meet minimum requirements"
        }
      ],
      "OnlyOwnerCanUpdatePosition()": [
        {
          "notice": "Only the position/trade owner can update the LP/Trader margin"
        }
      ],
      "PRBMathSD59x18__DivInputTooSmall()": [
        {
          "notice": "Emitted when one of the inputs is MIN_SD59x18."
        }
      ],
      "PRBMathSD59x18__DivOverflow(uint256)": [
        {
          "notice": "Emitted when one of the intermediary unsigned results overflows SD59x18."
        }
      ],
      "PRBMathSD59x18__Exp2InputTooBig(int256)": [
        {
          "notice": "Emitted when the input is greater than 192."
        }
      ],
      "PRBMathSD59x18__ExpInputTooBig(int256)": [
        {
          "notice": "Emitted when the input is greater than 133.084258667509499441."
        }
      ],
      "PRBMathSD59x18__FromIntOverflow(int256)": [
        {
          "notice": "Emitted when converting a basic integer to the fixed-point format overflows SD59x18."
        }
      ],
      "PRBMathSD59x18__FromIntUnderflow(int256)": [
        {
          "notice": "Emitted when converting a basic integer to the fixed-point format underflows SD59x18."
        }
      ],
      "PRBMathSD59x18__MulInputTooSmall()": [
        {
          "notice": "Emitted when one of the inputs is MIN_SD59x18."
        }
      ],
      "PRBMathSD59x18__MulOverflow(uint256)": [
        {
          "notice": "Emitted when the intermediary absolute result overflows SD59x18."
        }
      ],
      "PRBMathSD59x18__SqrtNegativeInput(int256)": [
        {
          "notice": "Emitted when the input is negative."
        }
      ],
      "PRBMathSD59x18__SqrtOverflow(int256)": [
        {
          "notice": "Emitted when the calculating the square root overflows SD59x18."
        }
      ],
      "PRBMathUD60x18__FromUintOverflow(uint256)": [
        {
          "notice": "Emitted when converting a basic integer to the fixed-point format format overflows UD60x18."
        }
      ],
      "PRBMath__MulDivFixedPointOverflow(uint256)": [
        {
          "notice": "Emitted when the result overflows uint256."
        }
      ],
      "PRBMath__MulDivOverflow(uint256,uint256)": [
        {
          "notice": "Emitted when the result overflows uint256."
        }
      ]
    },
    "kind": "user",
    "methods": {
      "collectProtocol(address,uint256)": {
        "notice": "function that can only be called by the owner enables collection of protocol generated fees from any give margin engine"
      },
      "factory()": {
        "notice": "The Factory"
      },
      "fcm()": {
        "notice": "The Full Collateralisation Module (FCM)"
      },
      "getHistoricalApy()": {
        "notice": "Computes the historical APY value of the RateOracle"
      },
      "getHistoricalApyReadOnly()": {
        "notice": "Computes the historical APY value of the RateOracle"
      },
      "getPosition(address,int24,int24)": {
        "notice": "Returns the information about a position by the position's key"
      },
      "liquidatePosition(int24,int24,address)": {
        "notice": "Liquidate a Position"
      },
      "liquidatorRewardWad()": {
        "notice": "The liquidator Reward Percentage (in Wad)"
      },
      "rateOracle()": {
        "notice": "The rateOracle contract which lets the protocol access historical apys in the yield bearing pools it is built on top of"
      },
      "secondsAgo()": {
        "notice": "Gets the look-back window size that's used to request the historical APY from the rate Oracle"
      },
      "setCacheMaxAgeInSeconds(uint256)": {
        "notice": "Sets the maximum age that the cached historical APY value"
      },
      "setFCM(address)": {
        "notice": "sets the Full Collateralisation Module"
      },
      "setLiquidatorReward(uint256)": {
        "notice": "Sets the liquidator reward: proportion of liquidated position's margin paid as a reward to the liquidator"
      },
      "setMarginCalculatorParameters((uint256,uint256,int256,int256,int256,int256,int256,int256,uint256,uint256,uint256,uint256,uint256,uint256,uint256,uint256,uint256,uint256))": {
        "notice": "Set the MarginCalculatorParameters (each margin engine can have its own custom set of margin calculator parameters)"
      },
      "setSecondsAgo(uint256)": {
        "notice": "Sets secondsAgo: The look-back window size used to calculate the historical APY for margin purposes"
      },
      "setVAMM(address)": {
        "notice": "sets the Virtual Automated Market Maker (VAMM) attached to the MarginEngine"
      },
      "settlePosition(int24,int24,address)": {
        "notice": "Settles a Position"
      },
      "termEndTimestampWad()": {
        "notice": "The unix termEndTimestamp of the MarginEngine in Wad"
      },
      "termStartTimestampWad()": {
        "notice": "The unix termStartTimestamp of the MarginEngine in Wad"
      },
      "transferMarginToFCMTrader(address,uint256)": {
        "notice": "transfers margin in terms of underlying tokens to a trader from the Full Collateralisation Module"
      },
      "underlyingToken()": {
        "notice": "The address of the underlying (non-yield bearing) token - e.g. USDC"
      },
      "updatePositionMargin(address,int24,int24,int256)": {
        "notice": "updates the margin account of a position which can be uniquily identified with its _owner, tickLower, tickUpper"
      },
      "updatePositionPostVAMMInducedMintBurn((address,int24,int24,int128))": {
        "notice": "Update a Position post VAMM induced mint or burn"
      },
      "vamm()": {
        "notice": "VAMM (Virtual Automated Market Maker) linked to the MarginEngine"
      }
    },
    "version": 1
  },
  "storageLayout": {
    "storage": [
      {
        "astId": 130,
        "contract": "contracts/MarginEngine.sol:MarginEngine",
        "label": "_initialized",
        "offset": 0,
        "slot": "0",
        "type": "t_bool"
      },
      {
        "astId": 133,
        "contract": "contracts/MarginEngine.sol:MarginEngine",
        "label": "_initializing",
        "offset": 1,
        "slot": "0",
        "type": "t_bool"
      },
      {
        "astId": 592,
        "contract": "contracts/MarginEngine.sol:MarginEngine",
        "label": "__gap",
        "offset": 0,
        "slot": "1",
        "type": "t_array(t_uint256)50_storage"
      },
      {
        "astId": 10,
        "contract": "contracts/MarginEngine.sol:MarginEngine",
        "label": "_owner",
        "offset": 0,
        "slot": "51",
        "type": "t_address"
      },
      {
        "astId": 122,
        "contract": "contracts/MarginEngine.sol:MarginEngine",
        "label": "__gap",
        "offset": 0,
        "slot": "52",
        "type": "t_array(t_uint256)49_storage"
      },
      {
        "astId": 218,
        "contract": "contracts/MarginEngine.sol:MarginEngine",
        "label": "_paused",
        "offset": 0,
        "slot": "101",
        "type": "t_bool"
      },
      {
        "astId": 307,
        "contract": "contracts/MarginEngine.sol:MarginEngine",
        "label": "__gap",
        "offset": 0,
        "slot": "102",
        "type": "t_array(t_uint256)49_storage"
      },
      {
        "astId": 2496,
        "contract": "contracts/MarginEngine.sol:MarginEngine",
        "label": "liquidatorRewardWad",
        "offset": 0,
        "slot": "151",
        "type": "t_uint256"
      },
      {
        "astId": 2500,
        "contract": "contracts/MarginEngine.sol:MarginEngine",
        "label": "underlyingToken",
        "offset": 0,
        "slot": "152",
        "type": "t_contract(IERC20Minimal)9332"
      },
      {
        "astId": 2504,
        "contract": "contracts/MarginEngine.sol:MarginEngine",
        "label": "termStartTimestampWad",
        "offset": 0,
        "slot": "153",
        "type": "t_uint256"
      },
      {
        "astId": 2508,
        "contract": "contracts/MarginEngine.sol:MarginEngine",
        "label": "termEndTimestampWad",
        "offset": 0,
        "slot": "154",
        "type": "t_uint256"
      },
      {
        "astId": 2513,
        "contract": "contracts/MarginEngine.sol:MarginEngine",
        "label": "fcm",
        "offset": 0,
        "slot": "155",
        "type": "t_contract(IFCM)9379"
      },
      {
        "astId": 2518,
        "contract": "contracts/MarginEngine.sol:MarginEngine",
        "label": "positions",
        "offset": 0,
        "slot": "156",
        "type": "t_mapping(t_bytes32,t_struct(Info)7461_storage)"
      },
      {
        "astId": 2522,
        "contract": "contracts/MarginEngine.sol:MarginEngine",
        "label": "vamm",
        "offset": 0,
        "slot": "157",
        "type": "t_contract(IVAMM)10331"
      },
      {
        "astId": 2525,
        "contract": "contracts/MarginEngine.sol:MarginEngine",
        "label": "marginCalculatorParameters",
        "offset": 0,
        "slot": "158",
        "type": "t_struct(MarginCalculatorParameters)9595_storage"
      },
      {
        "astId": 2529,
        "contract": "contracts/MarginEngine.sol:MarginEngine",
        "label": "secondsAgo",
        "offset": 0,
        "slot": "176",
        "type": "t_uint256"
      },
      {
        "astId": 2531,
        "contract": "contracts/MarginEngine.sol:MarginEngine",
        "label": "cachedHistoricalApy",
        "offset": 0,
        "slot": "177",
        "type": "t_uint256"
      },
      {
        "astId": 2533,
        "contract": "contracts/MarginEngine.sol:MarginEngine",
        "label": "cachedHistoricalApyRefreshTimestamp",
        "offset": 0,
        "slot": "178",
        "type": "t_uint256"
      },
      {
        "astId": 2535,
        "contract": "contracts/MarginEngine.sol:MarginEngine",
        "label": "cacheMaxAgeInSeconds",
        "offset": 0,
        "slot": "179",
        "type": "t_uint256"
      },
      {
        "astId": 2537,
        "contract": "contracts/MarginEngine.sol:MarginEngine",
        "label": "deployer",
        "offset": 0,
        "slot": "180",
        "type": "t_address"
      },
      {
        "astId": 2542,
        "contract": "contracts/MarginEngine.sol:MarginEngine",
        "label": "factory",
        "offset": 0,
        "slot": "181",
        "type": "t_contract(IFactory)9514"
      },
      {
        "astId": 2547,
        "contract": "contracts/MarginEngine.sol:MarginEngine",
        "label": "rateOracle",
        "offset": 0,
        "slot": "182",
        "type": "t_contract(IRateOracle)10545"
      }
    ],
    "types": {
      "t_address": {
        "encoding": "inplace",
        "label": "address",
        "numberOfBytes": "20"
      },
      "t_array(t_uint256)49_storage": {
        "base": "t_uint256",
        "encoding": "inplace",
        "label": "uint256[49]",
        "numberOfBytes": "1568"
      },
      "t_array(t_uint256)50_storage": {
        "base": "t_uint256",
        "encoding": "inplace",
        "label": "uint256[50]",
        "numberOfBytes": "1600"
      },
      "t_bool": {
        "encoding": "inplace",
        "label": "bool",
        "numberOfBytes": "1"
      },
      "t_bytes32": {
        "encoding": "inplace",
        "label": "bytes32",
        "numberOfBytes": "32"
      },
      "t_contract(IERC20Minimal)9332": {
        "encoding": "inplace",
        "label": "contract IERC20Minimal",
        "numberOfBytes": "20"
      },
      "t_contract(IFCM)9379": {
        "encoding": "inplace",
        "label": "contract IFCM",
        "numberOfBytes": "20"
      },
      "t_contract(IFactory)9514": {
        "encoding": "inplace",
        "label": "contract IFactory",
        "numberOfBytes": "20"
      },
      "t_contract(IRateOracle)10545": {
        "encoding": "inplace",
        "label": "contract IRateOracle",
        "numberOfBytes": "20"
      },
      "t_contract(IVAMM)10331": {
        "encoding": "inplace",
        "label": "contract IVAMM",
        "numberOfBytes": "20"
      },
      "t_int256": {
        "encoding": "inplace",
        "label": "int256",
        "numberOfBytes": "32"
      },
      "t_mapping(t_bytes32,t_struct(Info)7461_storage)": {
        "encoding": "mapping",
        "key": "t_bytes32",
        "label": "mapping(bytes32 => struct Position.Info)",
        "numberOfBytes": "32",
        "value": "t_struct(Info)7461_storage"
      },
      "t_struct(Info)7461_storage": {
        "encoding": "inplace",
        "label": "struct Position.Info",
        "members": [
          {
            "astId": 7446,
            "contract": "contracts/MarginEngine.sol:MarginEngine",
            "label": "isSettled",
            "offset": 0,
            "slot": "0",
            "type": "t_bool"
          },
          {
            "astId": 7448,
            "contract": "contracts/MarginEngine.sol:MarginEngine",
            "label": "_liquidity",
            "offset": 1,
            "slot": "0",
            "type": "t_uint128"
          },
          {
            "astId": 7450,
            "contract": "contracts/MarginEngine.sol:MarginEngine",
            "label": "margin",
            "offset": 0,
            "slot": "1",
            "type": "t_int256"
          },
          {
            "astId": 7452,
            "contract": "contracts/MarginEngine.sol:MarginEngine",
            "label": "fixedTokenGrowthInsideLastX128",
            "offset": 0,
            "slot": "2",
            "type": "t_int256"
          },
          {
            "astId": 7454,
            "contract": "contracts/MarginEngine.sol:MarginEngine",
            "label": "variableTokenGrowthInsideLastX128",
            "offset": 0,
            "slot": "3",
            "type": "t_int256"
          },
          {
            "astId": 7456,
            "contract": "contracts/MarginEngine.sol:MarginEngine",
            "label": "fixedTokenBalance",
            "offset": 0,
            "slot": "4",
            "type": "t_int256"
          },
          {
            "astId": 7458,
            "contract": "contracts/MarginEngine.sol:MarginEngine",
            "label": "variableTokenBalance",
            "offset": 0,
            "slot": "5",
            "type": "t_int256"
          },
          {
            "astId": 7460,
            "contract": "contracts/MarginEngine.sol:MarginEngine",
            "label": "feeGrowthInsideLastX128",
            "offset": 0,
            "slot": "6",
            "type": "t_uint256"
          }
        ],
        "numberOfBytes": "224"
      },
      "t_struct(MarginCalculatorParameters)9595_storage": {
        "encoding": "inplace",
        "label": "struct IMarginEngine.MarginCalculatorParameters",
        "members": [
          {
            "astId": 9543,
            "contract": "contracts/MarginEngine.sol:MarginEngine",
            "label": "apyUpperMultiplierWad",
            "offset": 0,
            "slot": "0",
            "type": "t_uint256"
          },
          {
            "astId": 9546,
            "contract": "contracts/MarginEngine.sol:MarginEngine",
            "label": "apyLowerMultiplierWad",
            "offset": 0,
            "slot": "1",
            "type": "t_uint256"
          },
          {
            "astId": 9549,
            "contract": "contracts/MarginEngine.sol:MarginEngine",
            "label": "sigmaSquaredWad",
            "offset": 0,
            "slot": "2",
            "type": "t_int256"
          },
          {
            "astId": 9552,
            "contract": "contracts/MarginEngine.sol:MarginEngine",
            "label": "alphaWad",
            "offset": 0,
            "slot": "3",
            "type": "t_int256"
          },
          {
            "astId": 9555,
            "contract": "contracts/MarginEngine.sol:MarginEngine",
            "label": "betaWad",
            "offset": 0,
            "slot": "4",
            "type": "t_int256"
          },
          {
            "astId": 9558,
            "contract": "contracts/MarginEngine.sol:MarginEngine",
            "label": "xiUpperWad",
            "offset": 0,
            "slot": "5",
            "type": "t_int256"
          },
          {
            "astId": 9561,
            "contract": "contracts/MarginEngine.sol:MarginEngine",
            "label": "xiLowerWad",
            "offset": 0,
            "slot": "6",
            "type": "t_int256"
          },
          {
            "astId": 9564,
            "contract": "contracts/MarginEngine.sol:MarginEngine",
            "label": "tMaxWad",
            "offset": 0,
            "slot": "7",
            "type": "t_int256"
          },
          {
            "astId": 9567,
            "contract": "contracts/MarginEngine.sol:MarginEngine",
            "label": "devMulLeftUnwindLMWad",
            "offset": 0,
            "slot": "8",
            "type": "t_uint256"
          },
          {
            "astId": 9570,
            "contract": "contracts/MarginEngine.sol:MarginEngine",
            "label": "devMulRightUnwindLMWad",
            "offset": 0,
            "slot": "9",
            "type": "t_uint256"
          },
          {
            "astId": 9573,
            "contract": "contracts/MarginEngine.sol:MarginEngine",
            "label": "devMulLeftUnwindIMWad",
            "offset": 0,
            "slot": "10",
            "type": "t_uint256"
          },
          {
            "astId": 9576,
            "contract": "contracts/MarginEngine.sol:MarginEngine",
            "label": "devMulRightUnwindIMWad",
            "offset": 0,
            "slot": "11",
            "type": "t_uint256"
          },
          {
            "astId": 9579,
            "contract": "contracts/MarginEngine.sol:MarginEngine",
            "label": "fixedRateDeviationMinLeftUnwindLMWad",
            "offset": 0,
            "slot": "12",
            "type": "t_uint256"
          },
          {
            "astId": 9582,
            "contract": "contracts/MarginEngine.sol:MarginEngine",
            "label": "fixedRateDeviationMinRightUnwindLMWad",
            "offset": 0,
            "slot": "13",
            "type": "t_uint256"
          },
          {
            "astId": 9585,
            "contract": "contracts/MarginEngine.sol:MarginEngine",
            "label": "fixedRateDeviationMinLeftUnwindIMWad",
            "offset": 0,
            "slot": "14",
            "type": "t_uint256"
          },
          {
            "astId": 9588,
            "contract": "contracts/MarginEngine.sol:MarginEngine",
            "label": "fixedRateDeviationMinRightUnwindIMWad",
            "offset": 0,
            "slot": "15",
            "type": "t_uint256"
          },
          {
            "astId": 9591,
            "contract": "contracts/MarginEngine.sol:MarginEngine",
            "label": "gammaWad",
            "offset": 0,
            "slot": "16",
            "type": "t_uint256"
          },
          {
            "astId": 9594,
            "contract": "contracts/MarginEngine.sol:MarginEngine",
            "label": "minMarginToIncentiviseLiquidators",
            "offset": 0,
            "slot": "17",
            "type": "t_uint256"
          }
        ],
        "numberOfBytes": "576"
      },
      "t_uint128": {
        "encoding": "inplace",
        "label": "uint128",
        "numberOfBytes": "16"
      },
      "t_uint256": {
        "encoding": "inplace",
        "label": "uint256",
        "numberOfBytes": "32"
      }
    }
  }
}