{
  "address": "0x82ea0A9c578042154188D635D9C0E2e13FF6E846",
  "abi": [
    {
      "inputs": [],
      "stateMutability": "nonpayable",
      "type": "constructor"
    },
    {
      "inputs": [],
      "name": "AavePoolGetReserveNormalizedIncomeReturnedZero",
      "type": "error"
    },
    {
      "inputs": [
        {
          "internalType": "bool",
          "name": "unlocked",
          "type": "bool"
        }
      ],
      "name": "CanOnlyTradeIfUnlocked",
      "type": "error"
    },
    {
      "inputs": [],
      "name": "CannotLiquidate",
      "type": "error"
    },
    {
      "inputs": [],
      "name": "CannotSettleBeforeMaturity",
      "type": "error"
    },
    {
      "inputs": [
        {
          "internalType": "uint256",
          "name": "x",
          "type": "uint256"
        },
        {
          "internalType": "uint256",
          "name": "y",
          "type": "uint256"
        }
      ],
      "name": "DebugError",
      "type": "error"
    },
    {
      "inputs": [
        {
          "internalType": "int256",
          "name": "amount0",
          "type": "int256"
        },
        {
          "internalType": "int256",
          "name": "amount1",
          "type": "int256"
        }
      ],
      "name": "ExpectedOppositeSigns",
      "type": "error"
    },
    {
      "inputs": [
        {
          "internalType": "uint160",
          "name": "sqrtPriceX96",
          "type": "uint160"
        }
      ],
      "name": "ExpectedSqrtPriceZeroBeforeInit",
      "type": "error"
    },
    {
      "inputs": [],
      "name": "IRSNotionalAmountSpecifiedMustBeNonZero",
      "type": "error"
    },
    {
      "inputs": [],
      "name": "InvalidMarginDelta",
      "type": "error"
    },
    {
      "inputs": [
        {
          "internalType": "uint128",
          "name": "amount",
          "type": "uint128"
        }
      ],
      "name": "LiquidityDeltaMustBePositiveInBurn",
      "type": "error"
    },
    {
      "inputs": [
        {
          "internalType": "uint128",
          "name": "amount",
          "type": "uint128"
        }
      ],
      "name": "LiquidityDeltaMustBePositiveInMint",
      "type": "error"
    },
    {
      "inputs": [
        {
          "internalType": "int256",
          "name": "marginRequirement",
          "type": "int256"
        }
      ],
      "name": "MarginLessThanMinimum",
      "type": "error"
    },
    {
      "inputs": [
        {
          "internalType": "int256",
          "name": "marginRequirement",
          "type": "int256"
        },
        {
          "internalType": "int24",
          "name": "tick",
          "type": "int24"
        },
        {
          "internalType": "int256",
          "name": "fixedTokenDelta",
          "type": "int256"
        },
        {
          "internalType": "int256",
          "name": "variableTokenDelta",
          "type": "int256"
        },
        {
          "internalType": "uint256",
          "name": "cumulativeFeeIncurred",
          "type": "uint256"
        },
        {
          "internalType": "int256",
          "name": "fixedTokenDeltaUnbalanced",
          "type": "int256"
        }
      ],
      "name": "MarginRequirementNotMet",
      "type": "error"
    },
    {
      "inputs": [
        {
          "internalType": "int256",
          "name": "marginRequirement",
          "type": "int256"
        }
      ],
      "name": "MarginRequirementNotMetFCM",
      "type": "error"
    },
    {
      "inputs": [
        {
          "internalType": "uint256",
          "name": "requested",
          "type": "uint256"
        },
        {
          "internalType": "uint256",
          "name": "available",
          "type": "uint256"
        }
      ],
      "name": "NotEnoughFunds",
      "type": "error"
    },
    {
      "inputs": [],
      "name": "OOO",
      "type": "error"
    },
    {
      "inputs": [],
      "name": "OnlyFCM",
      "type": "error"
    },
    {
      "inputs": [],
      "name": "OnlyMarginEngine",
      "type": "error"
    },
    {
      "inputs": [],
      "name": "OnlyOwnerCanUpdatePosition",
      "type": "error"
    },
    {
      "inputs": [],
      "name": "OnlyVAMM",
      "type": "error"
    },
    {
      "inputs": [],
      "name": "PRBMathSD59x18__DivInputTooSmall",
      "type": "error"
    },
    {
      "inputs": [
        {
          "internalType": "uint256",
          "name": "rAbs",
          "type": "uint256"
        }
      ],
      "name": "PRBMathSD59x18__DivOverflow",
      "type": "error"
    },
    {
      "inputs": [
        {
          "internalType": "int256",
          "name": "x",
          "type": "int256"
        }
      ],
      "name": "PRBMathSD59x18__Exp2InputTooBig",
      "type": "error"
    },
    {
      "inputs": [
        {
          "internalType": "int256",
          "name": "x",
          "type": "int256"
        }
      ],
      "name": "PRBMathSD59x18__ExpInputTooBig",
      "type": "error"
    },
    {
      "inputs": [
        {
          "internalType": "int256",
          "name": "x",
          "type": "int256"
        }
      ],
      "name": "PRBMathSD59x18__FromIntOverflow",
      "type": "error"
    },
    {
      "inputs": [
        {
          "internalType": "int256",
          "name": "x",
          "type": "int256"
        }
      ],
      "name": "PRBMathSD59x18__FromIntUnderflow",
      "type": "error"
    },
    {
      "inputs": [],
      "name": "PRBMathSD59x18__MulInputTooSmall",
      "type": "error"
    },
    {
      "inputs": [
        {
          "internalType": "uint256",
          "name": "rAbs",
          "type": "uint256"
        }
      ],
      "name": "PRBMathSD59x18__MulOverflow",
      "type": "error"
    },
    {
      "inputs": [
        {
          "internalType": "int256",
          "name": "x",
          "type": "int256"
        }
      ],
      "name": "PRBMathSD59x18__SqrtNegativeInput",
      "type": "error"
    },
    {
      "inputs": [
        {
          "internalType": "int256",
          "name": "x",
          "type": "int256"
        }
      ],
      "name": "PRBMathSD59x18__SqrtOverflow",
      "type": "error"
    },
    {
      "inputs": [
        {
          "internalType": "uint256",
          "name": "x",
          "type": "uint256"
        }
      ],
      "name": "PRBMathUD60x18__FromUintOverflow",
      "type": "error"
    },
    {
      "inputs": [
        {
          "internalType": "uint256",
          "name": "prod1",
          "type": "uint256"
        }
      ],
      "name": "PRBMath__MulDivFixedPointOverflow",
      "type": "error"
    },
    {
      "inputs": [
        {
          "internalType": "uint256",
          "name": "prod1",
          "type": "uint256"
        },
        {
          "internalType": "uint256",
          "name": "denominator",
          "type": "uint256"
        }
      ],
      "name": "PRBMath__MulDivOverflow",
      "type": "error"
    },
    {
      "inputs": [],
      "name": "PositionNetZero",
      "type": "error"
    },
    {
      "inputs": [],
      "name": "PositionNotSettled",
      "type": "error"
    },
    {
      "inputs": [],
      "name": "WithdrawalExceedsCurrentMargin",
      "type": "error"
    },
    {
      "inputs": [],
      "name": "closeToOrBeyondMaturity",
      "type": "error"
    },
    {
      "anonymous": false,
      "inputs": [
        {
          "indexed": false,
          "internalType": "address",
          "name": "previousAdmin",
          "type": "address"
        },
        {
          "indexed": false,
          "internalType": "address",
          "name": "newAdmin",
          "type": "address"
        }
      ],
      "name": "AdminChanged",
      "type": "event"
    },
    {
      "anonymous": false,
      "inputs": [
        {
          "indexed": true,
          "internalType": "address",
          "name": "beacon",
          "type": "address"
        }
      ],
      "name": "BeaconUpgraded",
      "type": "event"
    },
    {
      "anonymous": false,
      "inputs": [
        {
          "indexed": false,
          "internalType": "uint256",
          "name": "cacheMaxAgeInSeconds",
          "type": "uint256"
        }
      ],
      "name": "CacheMaxAgeSetting",
      "type": "event"
    },
    {
      "anonymous": false,
      "inputs": [
        {
          "indexed": true,
          "internalType": "contract IFCM",
          "name": "fcm",
          "type": "address"
        }
      ],
      "name": "FCMSetting",
      "type": "event"
    },
    {
      "anonymous": false,
      "inputs": [
        {
          "indexed": false,
          "internalType": "uint256",
          "name": "value",
          "type": "uint256"
        }
      ],
      "name": "HistoricalApy",
      "type": "event"
    },
    {
      "anonymous": false,
      "inputs": [
        {
          "indexed": false,
          "internalType": "uint256",
          "name": "secondsAgo",
          "type": "uint256"
        }
      ],
      "name": "HistoricalApyWindowSetting",
      "type": "event"
    },
    {
      "anonymous": false,
      "inputs": [
        {
          "indexed": false,
          "internalType": "uint256",
          "name": "liquidatorRewardWad",
          "type": "uint256"
        }
      ],
      "name": "LiquidatorRewardSetting",
      "type": "event"
    },
    {
      "anonymous": false,
      "inputs": [
        {
          "components": [
            {
              "internalType": "uint256",
              "name": "apyUpperMultiplierWad",
              "type": "uint256"
            },
            {
              "internalType": "uint256",
              "name": "apyLowerMultiplierWad",
              "type": "uint256"
            },
            {
              "internalType": "int256",
              "name": "sigmaSquaredWad",
              "type": "int256"
            },
            {
              "internalType": "int256",
              "name": "alphaWad",
              "type": "int256"
            },
            {
              "internalType": "int256",
              "name": "betaWad",
              "type": "int256"
            },
            {
              "internalType": "int256",
              "name": "xiUpperWad",
              "type": "int256"
            },
            {
              "internalType": "int256",
              "name": "xiLowerWad",
              "type": "int256"
            },
            {
              "internalType": "int256",
              "name": "tMaxWad",
              "type": "int256"
            },
            {
              "internalType": "uint256",
              "name": "devMulLeftUnwindLMWad",
              "type": "uint256"
            },
            {
              "internalType": "uint256",
              "name": "devMulRightUnwindLMWad",
              "type": "uint256"
            },
            {
              "internalType": "uint256",
              "name": "devMulLeftUnwindIMWad",
              "type": "uint256"
            },
            {
              "internalType": "uint256",
              "name": "devMulRightUnwindIMWad",
              "type": "uint256"
            },
            {
              "internalType": "uint256",
              "name": "fixedRateDeviationMinLeftUnwindLMWad",
              "type": "uint256"
            },
            {
              "internalType": "uint256",
              "name": "fixedRateDeviationMinRightUnwindLMWad",
              "type": "uint256"
            },
            {
              "internalType": "uint256",
              "name": "fixedRateDeviationMinLeftUnwindIMWad",
              "type": "uint256"
            },
            {
              "internalType": "uint256",
              "name": "fixedRateDeviationMinRightUnwindIMWad",
              "type": "uint256"
            },
            {
              "internalType": "uint256",
              "name": "gammaWad",
              "type": "uint256"
            },
            {
              "internalType": "uint256",
              "name": "minMarginToIncentiviseLiquidators",
              "type": "uint256"
            }
          ],
          "indexed": false,
          "internalType": "struct IMarginEngine.MarginCalculatorParameters",
          "name": "marginCalculatorParameters",
          "type": "tuple"
        }
      ],
      "name": "MarginCalculatorParametersSetting",
      "type": "event"
    },
    {
      "anonymous": false,
      "inputs": [
        {
          "indexed": true,
          "internalType": "address",
          "name": "previousOwner",
          "type": "address"
        },
        {
          "indexed": true,
          "internalType": "address",
          "name": "newOwner",
          "type": "address"
        }
      ],
      "name": "OwnershipTransferred",
      "type": "event"
    },
    {
      "anonymous": false,
      "inputs": [
        {
          "indexed": false,
          "internalType": "address",
          "name": "account",
          "type": "address"
        }
      ],
      "name": "Paused",
      "type": "event"
    },
    {
      "anonymous": false,
      "inputs": [
        {
          "indexed": true,
          "internalType": "address",
          "name": "owner",
          "type": "address"
        },
        {
          "indexed": true,
          "internalType": "int24",
          "name": "tickLower",
          "type": "int24"
        },
        {
          "indexed": true,
          "internalType": "int24",
          "name": "tickUpper",
          "type": "int24"
        },
        {
          "indexed": false,
          "internalType": "address",
          "name": "liquidator",
          "type": "address"
        },
        {
          "indexed": false,
          "internalType": "int256",
          "name": "notionalUnwound",
          "type": "int256"
        },
        {
          "indexed": false,
          "internalType": "uint256",
          "name": "liquidatorReward",
          "type": "uint256"
        }
      ],
      "name": "PositionLiquidation",
      "type": "event"
    },
    {
      "anonymous": false,
      "inputs": [
        {
          "indexed": false,
          "internalType": "address",
          "name": "sender",
          "type": "address"
        },
        {
          "indexed": true,
          "internalType": "address",
          "name": "owner",
          "type": "address"
        },
        {
          "indexed": true,
          "internalType": "int24",
          "name": "tickLower",
          "type": "int24"
        },
        {
          "indexed": true,
          "internalType": "int24",
          "name": "tickUpper",
          "type": "int24"
        },
        {
          "indexed": false,
          "internalType": "int256",
          "name": "marginDelta",
          "type": "int256"
        }
      ],
      "name": "PositionMarginUpdate",
      "type": "event"
    },
    {
      "anonymous": false,
      "inputs": [
        {
          "indexed": true,
          "internalType": "address",
          "name": "owner",
          "type": "address"
        },
        {
          "indexed": true,
          "internalType": "int24",
          "name": "tickLower",
          "type": "int24"
        },
        {
          "indexed": true,
          "internalType": "int24",
          "name": "tickUpper",
          "type": "int24"
        },
        {
          "indexed": false,
          "internalType": "int256",
          "name": "settlementCashflow",
          "type": "int256"
        }
      ],
      "name": "PositionSettlement",
      "type": "event"
    },
    {
      "anonymous": false,
      "inputs": [
        {
          "indexed": true,
          "internalType": "address",
          "name": "owner",
          "type": "address"
        },
        {
          "indexed": true,
          "internalType": "int24",
          "name": "tickLower",
          "type": "int24"
        },
        {
          "indexed": true,
          "internalType": "int24",
          "name": "tickUpper",
          "type": "int24"
        },
        {
          "indexed": false,
          "internalType": "uint128",
          "name": "_liquidity",
          "type": "uint128"
        },
        {
          "indexed": false,
          "internalType": "int256",
          "name": "margin",
          "type": "int256"
        },
        {
          "indexed": false,
          "internalType": "int256",
          "name": "fixedTokenBalance",
          "type": "int256"
        },
        {
          "indexed": false,
          "internalType": "int256",
          "name": "variableTokenBalance",
          "type": "int256"
        },
        {
          "indexed": false,
          "internalType": "uint256",
          "name": "accumulatedFees",
          "type": "uint256"
        }
      ],
      "name": "PositionUpdate",
      "type": "event"
    },
    {
      "anonymous": false,
      "inputs": [
        {
          "indexed": false,
          "internalType": "address",
          "name": "sender",
          "type": "address"
        },
        {
          "indexed": true,
          "internalType": "address",
          "name": "recipient",
          "type": "address"
        },
        {
          "indexed": false,
          "internalType": "uint256",
          "name": "amount",
          "type": "uint256"
        }
      ],
      "name": "ProtocolCollection",
      "type": "event"
    },
    {
      "anonymous": false,
      "inputs": [
        {
          "indexed": false,
          "internalType": "address",
          "name": "account",
          "type": "address"
        }
      ],
      "name": "Unpaused",
      "type": "event"
    },
    {
      "anonymous": false,
      "inputs": [
        {
          "indexed": true,
          "internalType": "address",
          "name": "implementation",
          "type": "address"
        }
      ],
      "name": "Upgraded",
      "type": "event"
    },
    {
      "anonymous": false,
      "inputs": [
        {
          "indexed": true,
          "internalType": "contract IVAMM",
          "name": "vamm",
          "type": "address"
        }
      ],
      "name": "VAMMSetting",
      "type": "event"
    },
    {
      "inputs": [],
      "name": "MAX_CACHE_MAX_AGE_IN_SECONDS",
      "outputs": [
        {
          "internalType": "uint256",
          "name": "",
          "type": "uint256"
        }
      ],
      "stateMutability": "view",
      "type": "function"
    },
    {
      "inputs": [],
      "name": "MAX_LIQUIDATOR_REWARD_WAD",
      "outputs": [
        {
          "internalType": "uint256",
          "name": "",
          "type": "uint256"
        }
      ],
      "stateMutability": "view",
      "type": "function"
    },
    {
      "inputs": [],
      "name": "MAX_LOOKBACK_WINDOW_IN_SECONDS",
      "outputs": [
        {
          "internalType": "uint256",
          "name": "",
          "type": "uint256"
        }
      ],
      "stateMutability": "view",
      "type": "function"
    },
    {
      "inputs": [],
      "name": "MIN_LOOKBACK_WINDOW_IN_SECONDS",
      "outputs": [
        {
          "internalType": "uint256",
          "name": "",
          "type": "uint256"
        }
      ],
      "stateMutability": "view",
      "type": "function"
    },
    {
      "inputs": [],
      "name": "cacheMaxAgeInSeconds",
      "outputs": [
        {
          "internalType": "uint256",
          "name": "",
          "type": "uint256"
        }
      ],
      "stateMutability": "view",
      "type": "function"
    },
    {
      "inputs": [
        {
          "internalType": "address",
          "name": "_recipient",
          "type": "address"
        },
        {
          "internalType": "uint256",
          "name": "_amount",
          "type": "uint256"
        }
      ],
      "name": "collectProtocol",
      "outputs": [],
      "stateMutability": "nonpayable",
      "type": "function"
    },
    {
      "inputs": [],
      "name": "factory",
      "outputs": [
        {
          "internalType": "contract IFactory",
          "name": "",
          "type": "address"
        }
      ],
      "stateMutability": "view",
      "type": "function"
    },
    {
      "inputs": [],
      "name": "fcm",
      "outputs": [
        {
          "internalType": "contract IFCM",
          "name": "",
          "type": "address"
        }
      ],
      "stateMutability": "view",
      "type": "function"
    },
    {
      "inputs": [],
      "name": "getHistoricalApy",
      "outputs": [
        {
          "internalType": "uint256",
          "name": "",
          "type": "uint256"
        }
      ],
      "stateMutability": "nonpayable",
      "type": "function"
    },
    {
      "inputs": [],
      "name": "getHistoricalApyReadOnly",
      "outputs": [
        {
          "internalType": "uint256",
          "name": "",
          "type": "uint256"
        }
      ],
      "stateMutability": "view",
      "type": "function"
    },
    {
      "inputs": [
        {
          "internalType": "address",
          "name": "_owner",
          "type": "address"
        },
        {
          "internalType": "int24",
          "name": "_tickLower",
          "type": "int24"
        },
        {
          "internalType": "int24",
          "name": "_tickUpper",
          "type": "int24"
        }
      ],
      "name": "getPosition",
      "outputs": [
        {
          "components": [
            {
              "internalType": "bool",
              "name": "isSettled",
              "type": "bool"
            },
            {
              "internalType": "uint128",
              "name": "_liquidity",
              "type": "uint128"
            },
            {
              "internalType": "int256",
              "name": "margin",
              "type": "int256"
            },
            {
              "internalType": "int256",
              "name": "fixedTokenGrowthInsideLastX128",
              "type": "int256"
            },
            {
              "internalType": "int256",
              "name": "variableTokenGrowthInsideLastX128",
              "type": "int256"
            },
            {
              "internalType": "int256",
              "name": "fixedTokenBalance",
              "type": "int256"
            },
            {
              "internalType": "int256",
              "name": "variableTokenBalance",
              "type": "int256"
            },
            {
              "internalType": "uint256",
              "name": "feeGrowthInsideLastX128",
              "type": "uint256"
            },
            {
              "internalType": "uint256",
              "name": "rewardPerAmount",
              "type": "uint256"
            },
            {
              "internalType": "uint256",
              "name": "accumulatedFees",
              "type": "uint256"
            }
          ],
          "internalType": "struct Position.Info",
          "name": "",
          "type": "tuple"
        }
      ],
      "stateMutability": "nonpayable",
      "type": "function"
    },
    {
      "inputs": [
        {
          "internalType": "address",
          "name": "_recipient",
          "type": "address"
        },
        {
          "internalType": "int24",
          "name": "_tickLower",
          "type": "int24"
        },
        {
          "internalType": "int24",
          "name": "_tickUpper",
          "type": "int24"
        },
        {
          "internalType": "bool",
          "name": "_isLM",
          "type": "bool"
        }
      ],
      "name": "getPositionMarginRequirement",
      "outputs": [
        {
          "internalType": "uint256",
          "name": "",
          "type": "uint256"
        }
      ],
      "stateMutability": "nonpayable",
      "type": "function"
    },
    {
      "inputs": [
        {
          "internalType": "contract IERC20Minimal",
          "name": "__underlyingToken",
          "type": "address"
        },
        {
          "internalType": "contract IRateOracle",
          "name": "__rateOracle",
          "type": "address"
        },
        {
          "internalType": "uint256",
          "name": "__termStartTimestampWad",
          "type": "uint256"
        },
        {
          "internalType": "uint256",
          "name": "__termEndTimestampWad",
          "type": "uint256"
        }
      ],
      "name": "initialize",
      "outputs": [],
      "stateMutability": "nonpayable",
      "type": "function"
    },
    {
      "inputs": [
        {
          "internalType": "address",
          "name": "_owner",
          "type": "address"
        },
        {
          "internalType": "int24",
          "name": "_tickLower",
          "type": "int24"
        },
        {
          "internalType": "int24",
          "name": "_tickUpper",
          "type": "int24"
        }
      ],
      "name": "liquidatePosition",
      "outputs": [
        {
          "internalType": "uint256",
          "name": "",
          "type": "uint256"
        }
      ],
      "stateMutability": "nonpayable",
      "type": "function"
    },
    {
      "inputs": [],
      "name": "liquidatorRewardWad",
      "outputs": [
        {
          "internalType": "uint256",
          "name": "",
          "type": "uint256"
        }
      ],
      "stateMutability": "view",
      "type": "function"
    },
    {
      "inputs": [],
      "name": "lookbackWindowInSeconds",
      "outputs": [
        {
          "internalType": "uint256",
          "name": "",
          "type": "uint256"
        }
      ],
      "stateMutability": "view",
      "type": "function"
    },
    {
      "inputs": [],
      "name": "owner",
      "outputs": [
        {
          "internalType": "address",
          "name": "",
          "type": "address"
        }
      ],
      "stateMutability": "view",
      "type": "function"
    },
    {
      "inputs": [],
      "name": "paused",
      "outputs": [
        {
          "internalType": "bool",
          "name": "",
          "type": "bool"
        }
      ],
      "stateMutability": "view",
      "type": "function"
    },
    {
      "inputs": [],
      "name": "rateOracle",
      "outputs": [
        {
          "internalType": "contract IRateOracle",
          "name": "",
          "type": "address"
        }
      ],
      "stateMutability": "view",
      "type": "function"
    },
    {
      "inputs": [],
      "name": "renounceOwnership",
      "outputs": [],
      "stateMutability": "nonpayable",
      "type": "function"
    },
    {
      "inputs": [
        {
          "internalType": "uint256",
          "name": "_newCacheMaxAgeInSeconds",
          "type": "uint256"
        }
      ],
      "name": "setCacheMaxAgeInSeconds",
      "outputs": [],
      "stateMutability": "nonpayable",
      "type": "function"
    },
    {
      "inputs": [
        {
          "internalType": "contract IFCM",
          "name": "_newFCM",
          "type": "address"
        }
      ],
      "name": "setFCM",
      "outputs": [],
      "stateMutability": "nonpayable",
      "type": "function"
    },
    {
      "inputs": [
        {
          "internalType": "uint256",
          "name": "_newLiquidatorRewardWad",
          "type": "uint256"
        }
      ],
      "name": "setLiquidatorReward",
      "outputs": [],
      "stateMutability": "nonpayable",
      "type": "function"
    },
    {
      "inputs": [
        {
          "internalType": "uint256",
          "name": "_newSecondsAgo",
          "type": "uint256"
        }
      ],
      "name": "setLookbackWindowInSeconds",
      "outputs": [],
      "stateMutability": "nonpayable",
      "type": "function"
    },
    {
      "inputs": [
        {
          "components": [
            {
              "internalType": "uint256",
              "name": "apyUpperMultiplierWad",
              "type": "uint256"
            },
            {
              "internalType": "uint256",
              "name": "apyLowerMultiplierWad",
              "type": "uint256"
            },
            {
              "internalType": "int256",
              "name": "sigmaSquaredWad",
              "type": "int256"
            },
            {
              "internalType": "int256",
              "name": "alphaWad",
              "type": "int256"
            },
            {
              "internalType": "int256",
              "name": "betaWad",
              "type": "int256"
            },
            {
              "internalType": "int256",
              "name": "xiUpperWad",
              "type": "int256"
            },
            {
              "internalType": "int256",
              "name": "xiLowerWad",
              "type": "int256"
            },
            {
              "internalType": "int256",
              "name": "tMaxWad",
              "type": "int256"
            },
            {
              "internalType": "uint256",
              "name": "devMulLeftUnwindLMWad",
              "type": "uint256"
            },
            {
              "internalType": "uint256",
              "name": "devMulRightUnwindLMWad",
              "type": "uint256"
            },
            {
              "internalType": "uint256",
              "name": "devMulLeftUnwindIMWad",
              "type": "uint256"
            },
            {
              "internalType": "uint256",
              "name": "devMulRightUnwindIMWad",
              "type": "uint256"
            },
            {
              "internalType": "uint256",
              "name": "fixedRateDeviationMinLeftUnwindLMWad",
              "type": "uint256"
            },
            {
              "internalType": "uint256",
              "name": "fixedRateDeviationMinRightUnwindLMWad",
              "type": "uint256"
            },
            {
              "internalType": "uint256",
              "name": "fixedRateDeviationMinLeftUnwindIMWad",
              "type": "uint256"
            },
            {
              "internalType": "uint256",
              "name": "fixedRateDeviationMinRightUnwindIMWad",
              "type": "uint256"
            },
            {
              "internalType": "uint256",
              "name": "gammaWad",
              "type": "uint256"
            },
            {
              "internalType": "uint256",
              "name": "minMarginToIncentiviseLiquidators",
              "type": "uint256"
            }
          ],
          "internalType": "struct IMarginEngine.MarginCalculatorParameters",
          "name": "_marginCalculatorParameters",
          "type": "tuple"
        }
      ],
      "name": "setMarginCalculatorParameters",
      "outputs": [],
      "stateMutability": "nonpayable",
      "type": "function"
    },
    {
      "inputs": [
        {
          "internalType": "contract IVAMM",
          "name": "_vAMM",
          "type": "address"
        }
      ],
      "name": "setVAMM",
      "outputs": [],
      "stateMutability": "nonpayable",
      "type": "function"
    },
    {
      "inputs": [
        {
          "internalType": "address",
          "name": "_owner",
          "type": "address"
        },
        {
          "internalType": "int24",
          "name": "_tickLower",
          "type": "int24"
        },
        {
          "internalType": "int24",
          "name": "_tickUpper",
          "type": "int24"
        }
      ],
      "name": "settlePosition",
      "outputs": [],
      "stateMutability": "nonpayable",
      "type": "function"
    },
    {
      "inputs": [],
      "name": "termEndTimestampWad",
      "outputs": [
        {
          "internalType": "uint256",
          "name": "",
          "type": "uint256"
        }
      ],
      "stateMutability": "view",
      "type": "function"
    },
    {
      "inputs": [],
      "name": "termStartTimestampWad",
      "outputs": [
        {
          "internalType": "uint256",
          "name": "",
          "type": "uint256"
        }
      ],
      "stateMutability": "view",
      "type": "function"
    },
    {
      "inputs": [
        {
          "internalType": "address",
          "name": "_account",
          "type": "address"
        },
        {
          "internalType": "uint256",
          "name": "_marginDelta",
          "type": "uint256"
        }
      ],
      "name": "transferMarginToFCMTrader",
      "outputs": [],
      "stateMutability": "nonpayable",
      "type": "function"
    },
    {
      "inputs": [
        {
          "internalType": "address",
          "name": "newOwner",
          "type": "address"
        }
      ],
      "name": "transferOwnership",
      "outputs": [],
      "stateMutability": "nonpayable",
      "type": "function"
    },
    {
      "inputs": [],
      "name": "underlyingToken",
      "outputs": [
        {
          "internalType": "contract IERC20Minimal",
          "name": "",
          "type": "address"
        }
      ],
      "stateMutability": "view",
      "type": "function"
    },
    {
      "inputs": [
        {
          "internalType": "address",
          "name": "_owner",
          "type": "address"
        },
        {
          "internalType": "int24",
          "name": "_tickLower",
          "type": "int24"
        },
        {
          "internalType": "int24",
          "name": "_tickUpper",
          "type": "int24"
        },
        {
          "internalType": "int256",
          "name": "_marginDelta",
          "type": "int256"
        }
      ],
      "name": "updatePositionMargin",
      "outputs": [],
      "stateMutability": "nonpayable",
      "type": "function"
    },
    {
      "inputs": [
        {
          "components": [
            {
              "internalType": "address",
              "name": "owner",
              "type": "address"
            },
            {
              "internalType": "int24",
              "name": "tickLower",
              "type": "int24"
            },
            {
              "internalType": "int24",
              "name": "tickUpper",
              "type": "int24"
            },
            {
              "internalType": "int128",
              "name": "liquidityDelta",
              "type": "int128"
            }
          ],
          "internalType": "struct IPositionStructs.ModifyPositionParams",
          "name": "_params",
          "type": "tuple"
        }
      ],
      "name": "updatePositionPostVAMMInducedMintBurn",
      "outputs": [
        {
          "internalType": "int256",
          "name": "_positionMarginRequirement",
          "type": "int256"
        }
      ],
      "stateMutability": "nonpayable",
      "type": "function"
    },
    {
      "inputs": [
        {
          "internalType": "address",
          "name": "_owner",
          "type": "address"
        },
        {
          "internalType": "int24",
          "name": "_tickLower",
          "type": "int24"
        },
        {
          "internalType": "int24",
          "name": "_tickUpper",
          "type": "int24"
        },
        {
          "internalType": "int256",
          "name": "_fixedTokenDelta",
          "type": "int256"
        },
        {
          "internalType": "int256",
          "name": "_variableTokenDelta",
          "type": "int256"
        },
        {
          "internalType": "uint256",
          "name": "_cumulativeFeeIncurred",
          "type": "uint256"
        },
        {
          "internalType": "int256",
          "name": "_fixedTokenDeltaUnbalanced",
          "type": "int256"
        }
      ],
      "name": "updatePositionPostVAMMInducedSwap",
      "outputs": [
        {
          "internalType": "int256",
          "name": "_positionMarginRequirement",
          "type": "int256"
        }
      ],
      "stateMutability": "nonpayable",
      "type": "function"
    },
    {
      "inputs": [
        {
          "internalType": "address",
          "name": "newImplementation",
          "type": "address"
        }
      ],
      "name": "upgradeTo",
      "outputs": [],
      "stateMutability": "nonpayable",
      "type": "function"
    },
    {
      "inputs": [
        {
          "internalType": "address",
          "name": "newImplementation",
          "type": "address"
        },
        {
          "internalType": "bytes",
          "name": "data",
          "type": "bytes"
        }
      ],
      "name": "upgradeToAndCall",
      "outputs": [],
      "stateMutability": "payable",
      "type": "function"
    },
    {
      "inputs": [],
      "name": "vamm",
      "outputs": [
        {
          "internalType": "contract IVAMM",
          "name": "",
          "type": "address"
        }
      ],
      "stateMutability": "view",
      "type": "function"
    }
  ],
  "transactionHash": "0xfdbcd7291282a3e6c2a4f04f9454e67f8ecf33c11eb3ed1ef813a2e91a9d3c80",
  "args": [],
  "numDeployments": 1,
  "solcInputHash": "5758f2bc484cce506afaf5509146e92e",
  "bytecode": "0x60a0604052306080523480156200001557600080fd5b50606454610100900460ff16620000335760645460ff16156200003d565b6200003d620000e2565b620000a55760405162461bcd60e51b815260206004820152602e60248201527f496e697469616c697a61626c653a20636f6e747261637420697320616c72656160448201526d191e481a5b9a5d1a585b1a5e995960921b606482015260840160405180910390fd5b606454610100900460ff16158015620000c8576064805461ffff19166101011790555b8015620000db576064805461ff00191690555b5062000106565b6000620000fa306200010060201b62001e591760201c565b15905090565b3b151590565b608051615fb16200013760003960008181610969015281816109a901528181610a320152610a720152615fb16000f3fe6080604052600436106101b55760003560e01c80631656503e146101ba57806322d23b21146101ed5780632495a599146102145780633659cfe6146102325780634f1ef28614610254578063534d3375146102675780635c975abb146102875780635f6a3e0c146102aa578063652c30b7146102c0578063715018a6146102d5578063754e2a8f146102ea5780637717797f1461030a57806386b127ee1461032a57806387e16303146103415780638da5cb5b1461035d5780639209e9ba1461037257806393edb4541461039f57806398f4b1b2146103b45780639cbff188146103d2578063a1ea6a20146103e7578063a725b96514610407578063b5c22d4914610427578063b623f51914610447578063bfb5607d1461045c578063c09617ae1461047c578063c32618921461049c578063c45a0155146104bc578063c7607a9c146104da578063d50d8811146104fa578063e087caf11461050f578063e098372c14610524578063e3f0837414610542578063e9e441bb14610557578063eb990c5914610577578063efcfc3f914610597578063f1216105146105b7578063f2fde38b146105d7578063f907bd6d146105f7575b600080fd5b3480156101c657600080fd5b506101da6101d536600461544d565b61060f565b6040519081526020015b60405180910390f35b3480156101f957600080fd5b506004546001600160a01b03165b6040516101e49190615498565b34801561022057600080fd5b506001546001600160a01b0316610207565b34801561023e57600080fd5b5061025261024d3660046154ac565b61095e565b005b610252610262366004615538565b610a27565b34801561027357600080fd5b506102526102823660046154ac565b610ae1565b34801561029357600080fd5b5060c95460ff1660405190151581526020016101e4565b3480156102b657600080fd5b506101da610e1081565b3480156102cc57600080fd5b506002546101da565b3480156102e157600080fd5b50610252610b5a565b3480156102f657600080fd5b506102526103053660046155df565b610b95565b34801561031657600080fd5b5061025261032536600461560b565b610caa565b34801561033657600080fd5b506101da6212750081565b34801561034d57600080fd5b506101da670429d069189e000081565b34801561036957600080fd5b50610207610f18565b34801561037e57600080fd5b5061039261038d36600461544d565b610f27565b6040516101e4919061565c565b3480156103ab57600080fd5b506003546101da565b3480156103c057600080fd5b50600c546001600160a01b0316610207565b3480156103de57600080fd5b506007546101da565b3480156103f357600080fd5b506102526104023660046156dc565b61102e565b34801561041357600080fd5b5061025261042236600461544d565b6110eb565b34801561043357600080fd5b506102526104423660046156f5565b6112f5565b34801561045357600080fd5b50600a546101da565b34801561046857600080fd5b506101da6104773660046157d1565b6114a5565b34801561048857600080fd5b506101da61049736600461585c565b6115e2565b3480156104a857600080fd5b506102526104b73660046156dc565b611826565b3480156104c857600080fd5b50600b546001600160a01b0316610207565b3480156104e657600080fd5b506102526104f53660046154ac565b6118d1565b34801561050657600080fd5b506101da61194a565b34801561051b57600080fd5b506000546101da565b34801561053057600080fd5b506006546001600160a01b0316610207565b34801561054e57600080fd5b506101da611977565b34801561056357600080fd5b506102526105723660046156dc565b6119da565b34801561058357600080fd5b506102526105923660046158ca565b611a8e565b3480156105a357600080fd5b506102526105b23660046155df565b611cba565b3480156105c357600080fd5b506101da6105d236600461591e565b611d1f565b3480156105e357600080fd5b506102526105f23660046154ac565b611dbc565b34801561060357600080fd5b506101da6312cc030081565b600061061d60c95460ff1690565b156106435760405162461bcd60e51b815260040161063a9061597a565b60405180910390fd5b61064e600354611e5f565b1561066c576040516314eb7aa760e21b815260040160405180910390fd5b6106768383611e87565b60006106856005868686611f48565b90506106948185856000611fb3565b60006106a18286866121b2565b509050806106c25760405163bf87c7d560e01b815260040160405180910390fd5b600782015461072c576000808360050154126106e25782600501546106f0565b82600501546106f0906159ba565b90506000836001015413156107225761071861071284600101546000546121d9565b826121e5565b600784015561072a565b600060078401555b505b815461010090046001600160801b03161561080c576006548254604051631f2f089360e01b81526001600160a01b038981166004830152600289810b602484015288900b60448301526101009092046001600160801b03166064820152911690631f2f089390608401602060405180830381600087803b1580156107af57600080fd5b505af11580156107c3573d6000803e3d6000fd5b505050506040513d601f19601f820116820180604052508101906107e791906159d7565b50815461080c906108059061010090046001600160801b03166159f0565b83906121fa565b600061081a838888886122fe565b90508061082d5760009350505050610957565b6000808212610849576108448285600701546121d9565b61085f565b61085f610855836159ba565b85600701546121d9565b905061087d61086d8261248e565b610876906159ba565b85906124fc565b600154610894906001600160a01b03163383612519565b6040805133815260208101849052908101829052600287810b919089900b906001600160a01b038b16907f743fc9c78420f1cdcbbcb2ed0928d77e4a043cf392481c7e9edbf27bf7a3cea19060600160405180910390a48560020b8760020b896001600160a01b0316600080516020615ef58339815191528760000160019054906101000a90046001600160801b0316886001015489600401548a600501548b60080154604051610949959493929190615a18565b60405180910390a493505050505b9392505050565b306001600160a01b037f00000000000000000000000000000000000000000000000000000000000000001614156109a75760405162461bcd60e51b815260040161063a90615a46565b7f00000000000000000000000000000000000000000000000000000000000000006001600160a01b03166109d9612592565b6001600160a01b0316146109ff5760405162461bcd60e51b815260040161063a90615a80565b610a08816125ae565b60408051600080825260208201909252610a24918391906125dd565b50565b306001600160a01b037f0000000000000000000000000000000000000000000000000000000000000000161415610a705760405162461bcd60e51b815260040161063a90615a46565b7f00000000000000000000000000000000000000000000000000000000000000006001600160a01b0316610aa2612592565b6001600160a01b031614610ac85760405162461bcd60e51b815260040161063a90615a80565b610ad1826125ae565b610add828260016125dd565b5050565b33610aea610f18565b6001600160a01b031614610b105760405162461bcd60e51b815260040161063a90615aba565b600480546001600160a01b0319166001600160a01b0383169081179091556040517fb637eb25e9652bee83990e0c20b043e658d22a8b4739422ebd3862bf9ff53dc590600090a250565b33610b63610f18565b6001600160a01b031614610b895760405162461bcd60e51b815260040161063a90615aba565b610b93600061271d565b565b60c95460ff1615610bb85760405162461bcd60e51b815260040161063a9061597a565b33610bc1610f18565b6001600160a01b031614610be75760405162461bcd60e51b815260040161063a90615aba565b8015610c6357600654604051630867377160e41b8152600481018390526001600160a01b0390911690638673771090602401600060405180830381600087803b158015610c3357600080fd5b505af1158015610c47573d6000803e3d6000fd5b5050600154610c6392506001600160a01b031690508383612519565b816001600160a01b03167fb78dfa45a5ff63131f1605e70c83cda5d70122e260919864eeee2ae01e3e459f3383604051610c9e929190615aef565b60405180910390a25050565b60c95460ff1615610ccd5760405162461bcd60e51b815260040161063a9061597a565b8080610cec57604051638acc6d7f60e01b815260040160405180910390fd5b6001600160a01b038516610d355760405162461bcd60e51b815260206004820152601060248201526f1bdddb995c881b5d5cdd08195e1a5cdd60821b604482015260640161063a565b610d3f8484611e87565b6000610d4e6005878787611f48565b9050610d5d8186866000611fb3565b6000831215610e41576001600160a01b0386163314801590610dff5750600b546040516351c4bc1f60e11b81526001600160a01b0388811660048301523360248301529091169063a389783e9060440160206040518083038186803b158015610dc557600080fd5b505afa158015610dd9573d6000803e3d6000fd5b505050506040513d601f19601f82011682018060405250810190610dfd9190615b08565b155b15610e1d57604051637da45ce760e01b815260040160405180910390fd5b610e2781846124fc565b610e3281868661276f565b610e3c86846127d2565b610e55565b610e4b81846124fc565b610e5533846127d2565b600081600701819055508360020b8560020b876001600160a01b03167f58fda8ef9050967ebeb4f3bc6baea53d849c21755d63a2abb4507c5db1b118ec3387604051610ea2929190615aef565b60405180910390a48360020b8560020b876001600160a01b0316600080516020615ef58339815191528460000160019054906101000a90046001600160801b03168560010154866004015487600501548860080154604051610f08959493929190615a18565b60405180910390a4505050505050565b6097546001600160a01b031690565b610f8860405180610140016040528060001515815260200160006001600160801b0316815260200160008152602001600081526020016000815260200160008152602001600081526020016000815260200160008152602001600081525090565b6000610f976005868686611f48565b9050610fa68185856000611fb3565b6040805161014081018252825460ff811615158252610100908190046001600160801b031660208301526001840154928201929092526002830154606082015260038301546080820152600483015460a0820152600583015460c0820152600683015460e0820152600783015491810191909152600890910154610120820152949350505050565b33611037610f18565b6001600160a01b03161461105d5760405162461bcd60e51b815260040161063a90615aba565b6312cc030081111580156110735750610e108110155b6110af5760405162461bcd60e51b815260206004820152600d60248201526c3637b7b5903130b1b59027a7a160991b604482015260640161063a565b60078190556040518181527f1615a39c548a63ced5cc405350ce2e18f4f50ce7d4aedb4bfb95b7e4a821a8c0906020015b60405180910390a150565b60c95460ff161561110e5760405162461bcd60e51b815260040161063a9061597a565b61111661292c565b6003541115611138576040516301730b8160e11b815260040160405180910390fd5b6111428282611e87565b60006111516005858585611f48565b90506111608184846000611fb3565b6004808201546005830154600254600354600c546040516325f258dd60e01b815260009661120196959493926001600160a01b0316916325f258dd916111aa918691869101615b25565b602060405180830381600087803b1580156111c457600080fd5b505af11580156111d8573d6000803e3d6000fd5b505050506040513d601f19601f820116820180604052508101906111fc91906159d7565b612937565b905061122a8260040154611214906159ba565b8360050154611222906159ba565b8491906129a3565b61123482826124fc565b61123d826129e4565b8260020b8460020b866001600160a01b03167f970071e0d424aa8ce645bd8034df7db5eec3ce8fb9d83833a84320fb29b2c9fc8460405161128091815260200190565b60405180910390a48260020b8460020b866001600160a01b0316600080516020615ef58339815191528560000160019054906101000a90046001600160801b031686600101548760040154886005015489600801546040516112e6959493929190615a18565b60405180910390a45050505050565b336112fe610f18565b6001600160a01b0316146113245760405162461bcd60e51b815260040161063a90615aba565b8051600d9081556020820151600e55604080830151600f556060830151601055608083015160115560a083015160125560c083015160135560e08301516014556101008301516015556101208301516016556101408301516017556101608301516018556101808301516019556101a0830151601a556101c0830151601b556101e0830151601c55610200830151601d55610220830151601e55517f96fef58d97876707a1bd5650c97ca391d5558a8c30e1c96363c89486cb9aa8c2916110e0918154815260018201546020820152600282015460408201526003820154606082015260048201546080820152600582015460a0820152600682015460c0820152600782015460e082015260088201546101008201526009820154610120820152600a820154610140820152600b820154610160820152600c820154610180820152600d8201546101a0820152600e8201546101c0820152600f8201546101e082015260108201546102008201526011909101546102208201526102400190565b60006114b360c95460ff1690565b156114d05760405162461bcd60e51b815260040161063a9061597a565b6006546001600160a01b031633146114fb57604051633dec6c6960e11b815260040160405180910390fd5b81516020830151604084015160009261151692600592611f48565b905061152d81846020015185604001516001611fb3565b606083015161153d9082906121fa565b60008360600151600f0b1315611563576115608184602001518560400151612a35565b91505b60006007820155826040015160020b836020015160020b84600001516001600160a01b0316600080516020615ef58339815191528460000160019054906101000a90046001600160801b031685600101548660040154876005015488600801546040516115d4959493929190615a18565b60405180910390a450919050565b60006115f060c95460ff1690565b1561160d5760405162461bcd60e51b815260040161063a9061597a565b6006546001600160a01b0316331461163857604051633dec6c6960e11b815260040160405180910390fd5b600061164760058a8a8a611f48565b90506116568189896000611fb3565b600080826005015413801561166b5750600086125b806116855750600082600501541280156116855750600086135b905084156116a9576116a96116998661248e565b6116a2906159ba565b83906124fc565b6116b48288886129a3565b6116c96116c4838b8b6000612a70565b61248e565b92508160010154831380156116dc575080155b156117a957600654604080516320283ddb60e21b815290516000926001600160a01b0316916380a0f76c916004808301926060929190829003018186803b15801561172657600080fd5b505afa15801561173a573d6000803e3d6000fd5b505050506040513d601f19601f8201168201806040525081019061175e9190615b33565b60208101516040516343f2832160e01b81526004810187905260029190910b6024820152604481018a9052606481018990526084810188905260a4810187905290915060c40161063a565b600082600701819055508760020b8960020b8b6001600160a01b0316600080516020615ef58339815191528560000160019054906101000a90046001600160801b03168660010154876004015488600501548960080154604051611811959493929190615a18565b60405180910390a45050979650505050505050565b3361182f610f18565b6001600160a01b0316146118555760405162461bcd60e51b815260040161063a90615aba565b6212750081111561189c5760405162461bcd60e51b815260206004820152601160248201527031b0b1b4329036b0bc1030b3b29027a7a160791b604482015260640161063a565b600a8190556040518181527f03f78e38097f23422a330825158a9cf778080b032c154a45063464b46a328f95906020016110e0565b336118da610f18565b6001600160a01b0316146119005760405162461bcd60e51b815260040161063a90615aba565b600680546001600160a01b0319166001600160a01b0383169081179091556040517f8bd432982306c1f9ddd987c98d3842200f8aa7668b030cbdea0a45fd31f5d69c90600090a250565b6000600a546009544261195d9190615baa565b11156119705761196b612e24565b905090565b5060085490565b6000600a546009544261198a9190615baa565b111561197057611998612ebd565b7fa54badf52ad5c1729ee2a0e934e6b23e9a3a037d7a761ccd78b01a8db4bf3f146008546040516119cb91815260200190565b60405180910390a15060085490565b336119e3610f18565b6001600160a01b031614611a095760405162461bcd60e51b815260040161063a90615aba565b670429d069189e0000811115611a595760405162461bcd60e51b81526020600482015260156024820152743634b8bab4b230ba37b9103932bbb0b9321027a7a160591b604482015260640161063a565b60008190556040518181527f7c1f79218de766d3f02f194836ae0d52b5b8a3fb34f3d76795d9fe9050fc2ea9906020016110e0565b606454610100900460ff16611aa95760645460ff1615611aad565b303b155b611b105760405162461bcd60e51b815260206004820152602e60248201527f496e697469616c697a61626c653a20636f6e747261637420697320616c72656160448201526d191e481a5b9a5d1a585b1a5e995960921b606482015260840161063a565b606454610100900460ff16158015611b32576064805461ffff19166101011790555b6001600160a01b038516611b6d5760405162461bcd60e51b8152602060048201526002602482015261155560f21b604482015260640161063a565b6001600160a01b038416611ba85760405162461bcd60e51b8152602060048201526002602482015261524f60f01b604482015260640161063a565b82611bda5760405162461bcd60e51b8152602060048201526002602482015261545360f01b604482015260640161063a565b81611c0c5760405162461bcd60e51b8152602060048201526002602482015261544560f01b604482015260640161063a565b828211611c445760405162461bcd60e51b815260206004820152600660248201526554453c3d545360d01b604482015260640161063a565b600180546001600160a01b038088166001600160a01b03199283161790925560028590556003849055600c805492871692821692909217909155600b805490911633179055611c91612ece565b611c99612f05565b611ca1612f3c565b8015611cb3576064805461ff00191690555b5050505050565b60c95460ff1615611cdd5760405162461bcd60e51b815260040161063a9061597a565b6004546001600160a01b03163314611d0857604051635d8a367560e01b815260040160405180910390fd5b600154610add906001600160a01b03168383612519565b600080611d2f6005878787611f48565b9050611d3e8186866000611fb3565b8360020b8560020b876001600160a01b0316600080516020615ef58339815191528460000160019054906101000a90046001600160801b03168560010154866004015487600501548860080154604051611d9c959493929190615a18565b60405180910390a4611db081868686612a70565b9150505b949350505050565b33611dc5610f18565b6001600160a01b031614611deb5760405162461bcd60e51b815260040161063a90615aba565b6001600160a01b038116611e505760405162461bcd60e51b815260206004820152602660248201527f4f776e61626c653a206e6577206f776e657220697320746865207a65726f206160448201526564647265737360d01b606482015260840161063a565b610a248161271d565b3b151590565b60008169124bc0ddd92e56000000611e7561292c565b611e7f9190615bc1565b101592915050565b8060020b8260020b12611ec25760405162461bcd60e51b8152602060048201526003602482015262544c5560e81b604482015260640161063a565b62010deb19600283900b1215611f005760405162461bcd60e51b8152602060048201526003602482015262544c4d60e81b604482015260640161063a565b611f0d62010deb19615bd9565b60020b8160020b1315610add5760405162461bcd60e51b815260206004820152600360248201526254554d60e81b604482015260640161063a565b6000611f548383611e87565b6040516001600160601b0319606086901b16602082015260e884811b603483015283901b60378201528590600090603a016040516020818303038152906040528051906020012081526020019081526020016000209050949350505050565b835461010090046001600160801b03161561210457600654604051631e47919f60e11b8152600285810b600483015284900b6024820152600091829182916001600160a01b031690633c8f233e9060440160606040518083038186803b15801561201c57600080fd5b505afa158015612030573d6000803e3d6000fd5b505050506040513d601f19601f820116820180604052508101906120549190615bf3565b91945092509050600080612069898686612f73565b9092509050600061207a8a85613063565b905061209d61208a600185615c21565b612095600185615c21565b8c91906129a3565b60028a0186905560038a0185905580156120f4576120bc600182615baa565b8a60080160008282546120cf9190615bc1565b909155506120f4905060016120e38361248e565b6120ed9190615c21565b8b906124fc565b5050506006870155506121ac9050565b80156121ac57600654604051631e47919f60e11b8152600285810b600483015284900b6024820152600091829182916001600160a01b031690633c8f233e9060440160606040518083038186803b15801561215e57600080fd5b505afa158015612172573d6000803e3d6000fd5b505050506040513d601f19601f820116820180604052508101906121969190615bf3565b60028a0192909255600389015560068801555050505b50505050565b60008060006121c76116c48787876001612a70565b60019690960154861396945050505050565b600061095783836130fa565b600061095783670de0b6b3a7640000846131bd565b6040805161014081018252835460ff8116151582526001600160801b03610100918290041660208301526001850154928201929092526002840154606082015260038401546080820152600484015460a0820152600584015460c0820152600684015460e08201526007840154918101919091526008830154610120820152600f82900b6122c957600081602001516001600160801b0316116122c45760405162461bcd60e51b815260206004820152600260248201526104e560f41b604482015260640161063a565b505050565b6122d7816020015183613285565b83546001600160801b039190911661010002610100600160881b0319909116178355505050565b600061230a8383611e87565b600585015415611db457600080600080886005015412905060006040518060a00160405280896001600160a01b031681526020018a6005015481526020018361236a5761236560016c1fa71f3f5f68a90479ee3f8fec615c60565b612381565b6123816b0816769404766de590afe04e6001615c88565b6001600160a01b03908116825260028a810b6020808501919091528a820b60409485015260065484516333bac73760e11b815286518516600482015291860151602483015293850151831660448201526060850151820b6064820152608085015190910b608482015292935016906367758e6e9060a40160a060405180830381600087803b15801561241257600080fd5b505af1158015612426573d6000803e3d6000fd5b505050506040513d601f19601f8201168201806040525081019061244a9190615cb3565b50919750919550909350508215612477576124776124678461248e565b612470906159ba565b8a906124fc565b6124828985876129a3565b50505050949350505050565b60006001600160ff1b038211156124f85760405162461bcd60e51b815260206004820152602860248201527f53616665436173743a2076616c756520646f65736e27742066697420696e2061604482015267371034b73a191a9b60c11b606482015260840161063a565b5090565b808260010160008282546125109190615cf3565b90915550505050565b600060405163a9059cbb60e01b81526001600160a01b03841660048201528260248201526000806044836000895af1915050612554816132b3565b6121ac5760405162461bcd60e51b815260206004820152600f60248201526e1514905394d1915497d19052531151608a1b604482015260640161063a565b600080516020615f35833981519152546001600160a01b031690565b336125b7610f18565b6001600160a01b031614610a245760405162461bcd60e51b815260040161063a90615aba565b60006125e7612592565b90506125f2846132fa565b6000835111806125ff5750815b156126105761260e848461338d565b505b7f4910fdfa16fed3260ed0e7147f7cc6da11a60208b5b9406d12a635614ffd9143805460ff16611cb357805460ff1916600117815560405161268b90869061265c908590602401615498565b60408051601f198184030181529190526020810180516001600160e01b0316631b2ce7f360e11b17905261338d565b50805460ff1916815561269c612592565b6001600160a01b0316826001600160a01b0316146127145760405162461bcd60e51b815260206004820152602f60248201527f45524331393637557067726164653a207570677261646520627265616b73206660448201526e75727468657220757067726164657360881b606482015260840161063a565b611cb385613478565b609780546001600160a01b038381166001600160a01b0319831681179093556040519116919082907f8be0079c531659141344cd1fd0a4f28419497f9722a3daafe3b4186f6b6457e090600090a35050565b60035461277a61292c565b106127c757825460ff166127a15760405163169b07f760e21b815260040160405180910390fd5b6000836001015412156122c457604051630a5f871f60e21b815260040160405180910390fd5b6121ac838383612a35565b60008113156127f357600154610add906001600160a01b03168330846134b8565b6001546040516370a0823160e01b81526000916001600160a01b0316906370a0823190612824903090600401615498565b60206040518083038186803b15801561283c57600080fd5b505afa158015612850573d6000803e3d6000fd5b505050506040513d601f19601f8201168201806040525081019061287491906159d7565b90506000829003818111156129155781156128ad576128938282615baa565b6001549091506128ad906001600160a01b03168584612519565b600480546040516318399f4d60e31b81526001600160a01b039091169163c1ccfa68916128de918891869101615aef565b600060405180830381600087803b1580156128f857600080fd5b505af115801561290c573d6000803e3d6000fd5b505050506121ac565b6001546121ac906001600160a01b03168583612519565b600061196b42613545565b60008061294387613592565b9050600061295087613592565b9050600061296a6129636001898961360f565b84906136d0565b9050600061297883876136d0565b905060006129868284615cf3565b9050670de0b6b3a764000081055b9b9a5050505050505050505050565b818117156122c457818360040160008282546129bf9190615cf3565b92505081905550808360050160008282546129da9190615cf3565b9091555050505050565b805460ff1615612a285760405162461bcd60e51b815260206004820152600f60248201526e185b1c9958591e481cd95d1d1b1959608a1b604482015260640161063a565b805460ff19166001179055565b6000612a476116c48585856000612a70565b90508084600101541361095757604051631ad3ffc960e21b81526004810182905260240161063a565b6000612a7c8484611e87565b600654604080516320283ddb60e21b815290516000926001600160a01b0316916380a0f76c916004808301926060929190829003018186803b158015612ac157600080fd5b505afa158015612ad5573d6000803e3d6000fd5b505050506040513d601f19601f82011682018060405250810190612af99190615b33565b80516020820151600c546002546003546040516325f258dd60e01b8152959650939492936000936001600160a01b03909316926325f258dd92612b40929091600401615b25565b602060405180830381600087803b158015612b5a57600080fd5b505af1158015612b6e573d6000803e3d6000fd5b505050506040513d601f19601f82011682018060405250810190612b9291906159d7565b895490915061010090046001600160801b031615612e0557612bff6040518060e00160405280600060020b8152602001600081526020016000815260200160006001600160a01b03168152602001600081526020016000815260200160006001600160a01b031681525090565b8860020b8360020b12612c25578760020b8360020b12612c1f5787612c27565b82612c27565b885b600290810b825260009081908a810b9086900b1215612c655782518c54612c5f91908c9061010090046001600160801b031687613795565b90925090505b808c60050154612c759190615cf3565b602084015260048c0154612c8a908390615cf3565b604084015260028b810b9086900b1315612cc75782518c54612cbd91908d9061010090046001600160801b031687613795565b9092509050612cce565b5060009050805b808c60050154612cde9190615cf3565b608084015260048c0154612cf3908390615cf3565b60a08401526000612d038c613841565b90506000612d108c613841565b9050816001600160a01b0316886001600160a01b031610612d315781612d33565b875b9150806001600160a01b0316886001600160a01b031611612d545780612d56565b875b90506000856020015113612d6a5781612d6c565b805b6001600160a01b031660608601526080850151600012612d8c5781612d8e565b805b6001600160a01b031660c0860152604085015160208601516060870151600092612dbb9290918f90613c4b565b90506000612dd78760a0015188608001518f8a60c00151613c4b565b905080821115612df357509950611db498505050505050505050565b9a50611db49950505050505050505050565b612e1989600401548a600501548886613c4b565b945050505050611db4565b60008060075442612e359190615baa565b600c546040516393556dbd60e01b81529192506000916001600160a01b03909116906393556dbd90612e6d9085904290600401615b25565b60206040518083038186803b158015612e8557600080fd5b505afa158015612e99573d6000803e3d6000fd5b505050506040513d601f19601f8201168201806040525081019061095791906159d7565b612ec5612e24565b60085542600955565b606454610100900460ff16612ef55760405162461bcd60e51b815260040161063a90615d34565b612efd613c7f565b610b93613ca6565b606454610100900460ff16612f2c5760405162461bcd60e51b815260040161063a90615d34565b612f34613c7f565b610b93613cd6565b606454610100900460ff16612f635760405162461bcd60e51b815260040161063a90615d34565b612f6b613c7f565b610b93613c7f565b6040805161014081018252845460ff8116151582526001600160801b036101009182900416602083015260018601549282019290925260028501546060820181905260038601546080830152600486015460a0830152600586015460c0830152600686015460e0830152600786015492820192909252600885015461012082015260009182919082906130069087615c21565b90506130248183602001516001600160801b0316600160801b613d09565b935060008260800151866130389190615c21565b90506130568184602001516001600160801b0316600160801b613d09565b9350505050935093915050565b6040805161014081018252835460ff8116151582526001600160801b036101009182900416602083018190526001860154938301939093526002850154606083015260038501546080830152600485015460a0830152600585015460c0830152600685015460e083018190526007860154918301919091526008850154610120830152600092611db491850390600160801b613d3d565b60008080600019848609848602925082811083820303915050670de0b6b3a7640000811061313e5760405163698d9a0160e11b81526004810182905260240161063a565b600080670de0b6b3a76400008688099150506706f05b59d3b1ffff8111826131785780670de0b6b3a76400008504019450505050506131b7565b620400008285030493909111909103600160ee1b02919091177faccb18165bd6fe31ae1cf318dc5b51eee0e1ba569b88cd74c1773b91fac10669020190505b92915050565b6000808060001985870985870292508281108382030391505080600014156131f8578382816131ee576131ee615d7f565b0492505050610957565b83811061321c578084604051631dcf306360e21b815260040161063a929190615b25565b60008486880960026001871981018816978890046003810283188082028403028082028403028082028403028082028403028082028403029081029092039091026000889003889004909101858311909403939093029303949094049190911702949350505050565b60008082600f0b12156132a95760008290036132a18185615d95565b9150506131b7565b6109578284615db5565b60003d826132c557806000803e806000fd5b80602081146132dd5780156132ee57600092506132f3565b816000803e600051151592506132f3565b600192505b5050919050565b803b61335e5760405162461bcd60e51b815260206004820152602d60248201527f455243313936373a206e657720696d706c656d656e746174696f6e206973206e60448201526c1bdd08184818dbdb9d1c9858dd609a1b606482015260840161063a565b600080516020615f3583398151915280546001600160a01b0319166001600160a01b0392909216919091179055565b6060823b6133ec5760405162461bcd60e51b815260206004820152602660248201527f416464726573733a2064656c65676174652063616c6c20746f206e6f6e2d636f6044820152651b9d1c9858dd60d21b606482015260840161063a565b600080846001600160a01b0316846040516134079190615e03565b600060405180830381855af49150503d8060008114613442576040519150601f19603f3d011682016040523d82523d6000602084013e613447565b606091505b509150915061346f8282604051806060016040528060278152602001615f5560279139613dcc565b95945050505050565b613481816132fa565b6040516001600160a01b038216907fbc7cd75a20ee27fd9adebab32041f755214dbc6bffa90cc0225b39da2e5c2d3b90600090a250565b60006040516323b872dd60e01b81526001600160a01b03851660048201526001600160a01b038416602482015282604482015260008060648360008a5af1915050613502816132b3565b611cb35760405162461bcd60e51b81526020600482015260146024820152731514905394d1915497d19493d357d1905253115160621b604482015260640161063a565b60007812725dd1d243aba0e75fe645cc4873f9e65afe688c928e1f2182111561358457604051633492ffd960e01b81526004810183905260240161063a565b50670de0b6b3a76400000290565b60007809392ee8e921d5d073aff322e62439fcf32d7f344649470f8f198212156135d25760405163e608e18b60e01b81526004810183905260240161063a565b7809392ee8e921d5d073aff322e62439fcf32d7f344649470f90821315613584576040516371f72a3160e01b81526004810183905260240161063a565b60008282116136305760405162461bcd60e51b815260040161063a90615e1f565b600061363a61292c565b9050838110156136745760405162461bcd60e51b8152602060048201526005602482015264422e543c5360d81b604482015260640161063a565b600085806136825750838210155b15613698576136918585615baa565b90506136a5565b6136a28583615baa565b90505b60006136b082613e05565b90506136c58168056bc75e2d631000006121e5565b979650505050505050565b6000600160ff1b8314806136e75750600160ff1b82145b1561370557604051630d01a11b60e21b815260040160405180910390fd5b60008060008512613716578461371b565b846000035b91506000841261372b5783613730565b836000035b9050600061373e83836130fa565b90506001600160ff1b0381111561376b5760405163bf79e8d960e01b81526004810182905260240161063a565b6000198087139086138082186001146137845782613789565b826000035b98975050505050505050565b6000808460020b8660020b14156137b157506000905080613838565b60006137bc87613841565b905060006137c987613841565b905060006137f383838a60020b8c60020b126137e55789613e1c565b6137ee8a6159f0565b613e1c565b9050600061381d84848b60020b8d60020b12613817576138128b6159f0565b613e63565b8a613e63565b9050613830828289600254600354613e97565b955093505050505b94509492505050565b60008060008360020b12613858578260020b613865565b8260020b613865906159ba565b905061387462010deb19615bd9565b60020b8111156138aa5760405162461bcd60e51b81526020600482015260016024820152601560fa1b604482015260640161063a565b6000600182166138be57600160801b6138d0565b6ffffcb933bd6fad37aa2d162d1a5940015b6001600160881b031690506002821615613905576080613900826ffff97272373d413259a46990580e213a615e3d565b901c90505b600482161561392f57608061392a826ffff2e50f5f656932ef12357cf3c7fdcc615e3d565b901c90505b6008821615613959576080613954826fffe5caca7e10e4e61c3624eaa0941cd0615e3d565b901c90505b601082161561398357608061397e826fffcb9843d60f6159c9db58835c926644615e3d565b901c90505b60208216156139ad5760806139a8826fff973b41fa98c081472e6896dfb254c0615e3d565b901c90505b60408216156139d75760806139d2826fff2ea16466c96a3843ec78b326b52861615e3d565b901c90505b6080821615613a015760806139fc826ffe5dee046a99a2a811c461f1969c3053615e3d565b901c90505b610100821615613a2c576080613a27826ffcbe86c7900a88aedcffc83b479aa3a4615e3d565b901c90505b610200821615613a57576080613a52826ff987a7253ac413176f2b074cf7815e54615e3d565b901c90505b610400821615613a82576080613a7d826ff3392b0822b70005940c7a398e4b70f3615e3d565b901c90505b610800821615613aad576080613aa8826fe7159475a2c29b7443b29c7fa6e889d9615e3d565b901c90505b611000821615613ad8576080613ad3826fd097f3bdfd2022b8845ad8f792aa5825615e3d565b901c90505b612000821615613b03576080613afe826fa9f746462d870fdf8a65dc1f90e061e5615e3d565b901c90505b614000821615613b2e576080613b29826f70d869a156d2a1b890bb3df62baf32f7615e3d565b901c90505b618000821615613b59576080613b54826f31be135f97d08fd981231505542fcfa6615e3d565b901c90505b62010000821615613b85576080613b80826f09aa508b5b7a84e1c677de54f3e99bc9615e3d565b901c90505b62020000821615613bb0576080613bab826e5d6af8dedb81196699c329225ee604615e3d565b901c90505b62040000821615613bda576080613bd5826d2216e584f5fa1ea926041bedfe98615e3d565b901c90505b62080000821615613c02576080613bfd826b048a170391f7dc42444e8fa2615e3d565b901c90505b60008460020b1315613c1d57613c1a81600019615e5c565b90505b613c2b600160201b82615e70565b15613c37576001613c3a565b60005b611db49060ff16602083901c615bc1565b6000613c58858585613f23565b90506000613c68868686866140ab565b905080821015613c76578091505b50949350505050565b606454610100900460ff16610b935760405162461bcd60e51b815260040161063a90615d34565b606454610100900460ff16613ccd5760405162461bcd60e51b815260040161063a90615d34565b610b933361271d565b606454610100900460ff16613cfd5760405162461bcd60e51b815260040161063a90615d34565b60c9805460ff19169055565b600080841215613d3657613d26613d1f856159ba565b8484613d3d565b613d2f906159ba565b9050610957565b611db48484845b600080806000198587098587029250828110838203039150508060001415613dad5760008411613da25760405162461bcd60e51b815260206004820152601060248201526f4469766973696f6e206279207a65726f60801b604482015260640161063a565b508290049050610957565b80841161321c5760405162461bcd60e51b815260040161063a90615e84565b60608315613ddb575081610957565b825115613deb5782518084602001fd5b8160405162461bcd60e51b815260040161063a9190615ea6565b60006131b7826a1a1601fc4ea7109e0000006121e5565b60008082600f0b12613e4257613e3d613e388585856001614257565b614353565b611db4565b613e5a613e388585613e53866159f0565b6000614257565b611db4906159ba565b60008082600f0b12613e7f57613e3d613e38858585600161439f565b613e5a613e388585613e90866159f0565b600061439f565b6000828211613eb85760405162461bcd60e51b815260040161063a90615e1f565b85158015613ec4575084155b15613ed15750600061346f565b6000613edc87613592565b90506000613ee987613592565b90506000613efa838389898961440f565b90506000613f0a84838989614450565b670de0b6b3a764000090059a9950505050505050505050565b6000808412158015613f36575060008312155b15613f4357506000610957565b6000613f4e85613592565b90506000613f5b85613592565b90506000600254600354613f6f9190615baa565b90506000613f8f84613f8a6116c4600160025460035461360f565b6136d0565b9050600061405f84613f8a6116c486600354613fa961292c565b60008f128e613fb6611977565b6040805161024081018252600d548152600e546020820152600f54918101919091526010546060820152601154608082015260125460a082015260135460c082015260145460e0820152601554610100820152601654610120820152601754610140820152601854610160820152601954610180820152601a546101a0820152601b546101c0820152601c546101e0820152601d54610200820152601e54610220820152614491565b9050600061406d8284615cf3565b9050600081121561409957614092614084826159ba565b670de0b6b3a7640000900490565b965061409e565b600096505b5050505050509392505050565b6000836140ba57506000611db4565b60008060008060008089131561410e5760008a13156140e157600095505050505050611db4565b87156140f7576015546019549094509250614103565b601754601b5490945092505b508790506001614140565b871561412457601654601a549094509250614130565b601854601c5490945092505b614139896159ba565b9150600090505b6141616116c48389878760035461415561292c565b601454601d548a6144e8565b945060006142198261417b57614176876159ba565b61417d565b865b6141868c6159ba565b600c546002546003546040516325f258dd60e01b81526001600160a01b03909316926325f258dd926141bc929091600401615b25565b602060405180830381600087803b1580156141d657600080fd5b505af11580156141ea573d6000803e3d6000fd5b505050506040513d601f19601f8201168201806040525081019061420e91906159d7565b600254600354613e97565b90506000614227828d615cf3565b90506142358160008c613f23565b601e5490985088101561424857601e5497505b50505050505050949350505050565b6000836001600160a01b0316856001600160a01b03161115614277579293925b600160601b600160e01b03606084901b1660006142948787615c60565b6001600160a01b031690506000876001600160a01b0316116142f15760405162461bcd60e51b8152602060048201526016602482015275073717274207072696365206d757374206265203e20360541b604482015260640161063a565b8361432757866001600160a01b03166143148383896001600160a01b0316613d3d565b8161432157614321615d7f565b046136c5565b6136c561433e8383896001600160a01b03166146aa565b886001600160a01b0316808204910615150190565b6000600160ff1b82106124f85760405162461bcd60e51b815260206004820152601460248201527337bb32b9333637bb9034b7103a37a4b73a191a9b60611b604482015260640161063a565b6000836001600160a01b0316856001600160a01b031611156143bf579293925b816143ec576143e7836001600160801b03168686036001600160a01b0316600160601b613d3d565b61346f565b61346f836001600160801b03168686036001600160a01b0316600160601b6146aa565b60008060008061442b6144246000888861360f565b8a906136d0565b925061443788886136d0565b91506144438284615cf3565b9998505050505050505050565b60008282116144715760405162461bcd60e51b815260040161063a90615e1f565b6144876144806001858561360f565b85906146fd565b61346f9086615c21565b60008061449d89613e05565b90506144b6816144b08a8a888b896147c3565b906121d9565b9150846144dc576144d9866144cf5783602001516144d2565b83515b83906121d9565b91505b50979650505050505050565b60006145396040518061012001604052806000815260200160008152602001600081526020016000815260200160008152602001600081526020016000815260200160008152602001600081525090565b614559670de0b6b3a76400008b6001600160a01b0316600160601b613d3d565b8082526145799061456a90806121d9565b670de0b6b3a7640000906121e5565b6020820181905261458a908a6121d9565b604082018190528811156145a057604081018890525b6145b4856145ae888a615baa565b906121e5565b60608201526145e16145c58561248e565b6145ce906159ba565b6145db836060015161248e565b906136d0565b608082018190526145f19061498d565b61460390670de0b6b3a7640000615c21565b60a0820181905261462290614617906149fd565b6040830151906121d9565b60c08201528215614667578060c001518160200151111561465b578060c0015181602001516146519190615baa565b60e0820152614681565b600060e0820152614681565b8060c00151816020015161467b9190615bc1565b60e08201525b6146928160e001516144b08d613545565b6101008201819052670de0b6b3a76400009004612994565b60006146b7848484613d3d565b9050600082806146c9576146c9615d7f565b84860911156109575760001981106146f35760405162461bcd60e51b815260040161063a90615e84565b8061346f81615ed9565b6000600160ff1b8314806147145750600160ff1b82145b156147325760405163b3c754a360e01b815260040160405180910390fd5b600080600085126147435784614748565b846000035b915060008412614758578361475d565b836000035b9050600061477483670de0b6b3a7640000846131bd565b90506001600160ff1b038111156147a157604051637cb4bef560e01b81526004810182905260240161063a565b6000198087139086138082186001146147ba5782613789565b613789836159ba565b60006148146040518061012001604052806000815260200160008152602001600081526020016000815260200160008152602001600081526020016000815260200160008152602001600081525090565b60808301516060840151600291821b911b614830898987614a4f565b80845261484590670de0b6b3a7640000615c21565b6020840152604085015161485a9082906146fd565b83604001818152505061488882614882856020015188604001516136d090919063ffffffff16565b906146fd565b606084015282516148a09088906145db9085906136d0565b6080840152602083015160408601516148b8916136d0565b60a0840181905260808401516148cd916146fd565b60c0840181905260408401516001916148e89190831b615cf3565b901b60e084015261491486614901578560c00151614907565b8560a001515b6145db8560e00151614b1f565b61010084015260006149688761493857846101000151614933906159ba565b61493f565b8461010001515b8560c0015186604001516149539190615cf3565b61495d9190615cf3565b6060860151906136d0565b9050600081121561497c5760009450614980565b8094505b5050505095945050505050565b600068023f2fa8f6da5b9d31198212156149a957506000919050565b680736ea4425c11ac63182126149d5576040516399bb754160e01b81526004810183905260240161063a565b6714057b7ef767814f8202610957670de0b6b3a76400006706f05b59d3b20000830105614b95565b6000808212156124f85760405162461bcd60e51b815260206004820181905260248201527f53616665436173743a2076616c7565206d75737420626520706f736974697665604482015260640161063a565b600083831115614aa15760405162461bcd60e51b815260206004820152601e60248201527f656e6454696d65206d757374206265203e3d2063757272656e7454696d650000604482015260640161063a565b608082015180614ae85760405162461bcd60e51b81526020600482015260126024820152711c185c985b595d195c9cc81b9bdd081cd95d60721b604482015260640161063a565b60e08301516000614afd82614882888a615c21565b90506000614b14614b0d856159ba565b83906136d0565b90506137898161498d565b600080821215614b455760405163608c83ff60e11b81526004810183905260240161063a565b7809392ee8e921d5d073aff322e62439fcf32d7f344649470f90821315614b8257604051632c482c3960e01b81526004810183905260240161063a565b6131b7670de0b6b3a76400008302614c2c565b600080821215614be85768033dd1780914b9711419821215614bb957506000919050565b614bc582600003614b95565b6a0c097ce7bc90715b34b9f160241b81614be157614be1615d7f565b0592915050565b680a688906bd8b0000008212614c145760405163e69458f960e01b81526004810183905260240161063a565b670de0b6b3a7640000604083901b0461095781614d97565b600081614c3b57506000919050565b50600181600160801b8110614c555760409190911b9060801c5b600160401b8110614c6b5760209190911b9060401c5b600160201b8110614c815760109190911b9060201c5b620100008110614c965760089190911b9060101c5b6101008110614caa5760049190911b9060081c5b60108110614cbd5760029190911b9060041c5b60088110614ccd57600182901b91505b6001828481614cde57614cde615d7f565b048301901c91506001828481614cf657614cf6615d7f565b048301901c91506001828481614d0e57614d0e615d7f565b048301901c91506001828481614d2657614d26615d7f565b048301901c91506001828481614d3e57614d3e615d7f565b048301901c91506001828481614d5657614d56615d7f565b048301901c91506001828481614d6e57614d6e615d7f565b048301901c91506000828481614d8657614d86615d7f565b049050808310156109575782611db4565b600160bf1b6001603f1b821615614db75768016a09e667f3bcc9090260401c5b6001603e1b821615614dd2576801306fe0a31b7152df0260401c5b6001603d1b821615614ded576801172b83c7d517adce0260401c5b6001603c1b821615614e085768010b5586cf9890f62a0260401c5b6001603b1b821615614e23576801059b0d31585743ae0260401c5b6001603a1b821615614e3e57680102c9a3e778060ee70260401c5b600160391b821615614e595768010163da9fb33356d80260401c5b600160381b821615614e7457680100b1afa5abcbed610260401c5b600160371b821615614e8f5768010058c86da1c09ea20260401c5b600160361b821615614eaa576801002c605e2e8cec500260401c5b600160351b821615614ec557680100162f3904051fa10260401c5b600160341b821615614ee0576801000b175effdc76ba0260401c5b600160331b821615614efb57680100058ba01fb9f96d0260401c5b600160321b821615614f165768010002c5cc37da94920260401c5b600160311b821615614f31576801000162e525ee05470260401c5b600160301b821615614f4c5768010000b17255775c040260401c5b6001602f1b821615614f67576801000058b91b5bc9ae0260401c5b6001602e1b821615614f8257680100002c5c89d5ec6d0260401c5b6001602d1b821615614f9d5768010000162e43f4f8310260401c5b6001602c1b821615614fb857680100000b1721bcfc9a0260401c5b6001602b1b821615614fd35768010000058b90cf1e6e0260401c5b6001602a1b821615614fee576801000002c5c863b73f0260401c5b600160291b82161561500957680100000162e430e5a20260401c5b600160281b821615615024576801000000b1721835510260401c5b600160271b82161561503f57680100000058b90c0b490260401c5b600160261b82161561505a5768010000002c5c8601cc0260401c5b600160251b821615615075576801000000162e42fff00260401c5b600160241b8216156150905768010000000b17217fbb0260401c5b600160231b8216156150ab576801000000058b90bfce0260401c5b600160221b8216156150c657680100000002c5c85fe30260401c5b600160211b8216156150e15768010000000162e42ff10260401c5b600160201b8216156150fc57680100000000b17217f80260401c5b63800000008216156151175768010000000058b90bfc0260401c5b6340000000821615615132576801000000002c5c85fe0260401c5b632000000082161561514d57680100000000162e42ff0260401c5b6310000000821615615168576801000000000b17217f0260401c5b630800000082161561518357680100000000058b90c00260401c5b630400000082161561519e5768010000000002c5c8600260401c5b63020000008216156151b9576801000000000162e4300260401c5b63010000008216156151d45768010000000000b172180260401c5b628000008216156151ee576801000000000058b90c0260401c5b6240000082161561520857680100000000002c5c860260401c5b622000008216156152225768010000000000162e430260401c5b6210000082161561523c57680100000000000b17210260401c5b620800008216156152565768010000000000058b910260401c5b62040000821615615270576801000000000002c5c80260401c5b6202000082161561528a57680100000000000162e40260401c5b620100008216156152a35761b172600160401b010260401c5b6180008216156152bb576158b9600160401b010260401c5b6140008216156152d357612c5d600160401b010260401c5b6120008216156152eb5761162e600160401b010260401c5b61100082161561530357610b17600160401b010260401c5b61080082161561531b5761058c600160401b010260401c5b610400821615615333576102c6600160401b010260401c5b61020082161561534b57610163600160401b010260401c5b6101008216156153625760b1600160401b010260401c5b6080821615615378576059600160401b010260401c5b604082161561538e57602c600160401b010260401c5b60208216156153a4576016600160401b010260401c5b60108216156153ba57600b600160401b010260401c5b60088216156153d0576006600160401b010260401c5b60048216156153e6576003600160401b010260401c5b60028216156153fc576001600160401b010260401c5b6001821615615412576001600160401b010260401c5b670de0b6b3a76400000260409190911c60bf031c90565b6001600160a01b0381168114610a2457600080fd5b8060020b8114610a2457600080fd5b60008060006060848603121561546257600080fd5b833561546d81615429565b9250602084013561547d8161543e565b9150604084013561548d8161543e565b809150509250925092565b6001600160a01b0391909116815260200190565b6000602082840312156154be57600080fd5b813561095781615429565b634e487b7160e01b600052604160045260246000fd5b60405161024081016001600160401b0381118282101715615502576155026154c9565b60405290565b604051601f8201601f191681016001600160401b0381118282101715615530576155306154c9565b604052919050565b6000806040838503121561554b57600080fd5b823561555681615429565b91506020838101356001600160401b038082111561557357600080fd5b818601915086601f83011261558757600080fd5b813581811115615599576155996154c9565b6155ab601f8201601f19168501615508565b915080825287848285010111156155c157600080fd5b80848401858401376000848284010152508093505050509250929050565b600080604083850312156155f257600080fd5b82356155fd81615429565b946020939093013593505050565b6000806000806080858703121561562157600080fd5b843561562c81615429565b9350602085013561563c8161543e565b9250604085013561564c8161543e565b9396929550929360600135925050565b8151151581526101408101602083015161568160208401826001600160801b03169052565b5060408301516040830152606083015160608301526080830151608083015260a083015160a083015260c083015160c083015260e083015160e083015261010080840151818401525061012080840151818401525092915050565b6000602082840312156156ee57600080fd5b5035919050565b6000610240828403121561570857600080fd5b6157106154df565b823581526020808401359082015260408084013590820152606080840135908201526080808401359082015260a0808401359082015260c0808401359082015260e08084013590820152610100808401359082015261012080840135908201526101408084013590820152610160808401359082015261018080840135908201526101a080840135908201526101c080840135908201526101e080840135908201526102008084013590820152610220928301359281019290925250919050565b6000608082840312156157e357600080fd5b604051608081016001600160401b0381118282101715615805576158056154c9565b604052823561581381615429565b815260208301356158238161543e565b602082015260408301356158368161543e565b60408201526060830135600f81900b811461585057600080fd5b60608201529392505050565b600080600080600080600060e0888a03121561587757600080fd5b873561588281615429565b965060208801356158928161543e565b955060408801356158a28161543e565b969995985095966060810135965060808101359560a0820135955060c0909101359350915050565b600080600080608085870312156158e057600080fd5b84356158eb81615429565b935060208501356158fb81615429565b93969395505050506040820135916060013590565b8015158114610a2457600080fd5b6000806000806080858703121561593457600080fd5b843561593f81615429565b9350602085013561594f8161543e565b9250604085013561595f8161543e565b9150606085013561596f81615910565b939692955090935050565b60208082526010908201526f14185d5cd8589b194e881c185d5cd95960821b604082015260600190565b634e487b7160e01b600052601160045260246000fd5b6000600160ff1b8214156159d0576159d06159a4565b5060000390565b6000602082840312156159e957600080fd5b5051919050565b6000600f82900b60016001607f1b0319811415615a0f57615a0f6159a4565b60000392915050565b6001600160801b03959095168552602085019390935260408401919091526060830152608082015260a00190565b6020808252602c90820152600080516020615f1583398151915260408201526b19195b1959d85d1958d85b1b60a21b606082015260800190565b6020808252602c90820152600080516020615f1583398151915260408201526b6163746976652070726f787960a01b606082015260800190565b6020808252818101527f4f776e61626c653a2063616c6c6572206973206e6f7420746865206f776e6572604082015260600190565b6001600160a01b03929092168252602082015260400190565b600060208284031215615b1a57600080fd5b815161095781615910565b918252602082015260400190565b600060608284031215615b4557600080fd5b604051606081016001600160401b0381118282101715615b6757615b676154c9565b6040528251615b7581615429565b81526020830151615b858161543e565b6020820152604083015160ff81168114615b9e57600080fd5b60408201529392505050565b600082821015615bbc57615bbc6159a4565b500390565b60008219821115615bd457615bd46159a4565b500190565b60008160020b627fffff19811415615a0f57615a0f6159a4565b600080600060608486031215615c0857600080fd5b8351925060208401519150604084015190509250925092565b60008083128015600160ff1b850184121615615c3f57615c3f6159a4565b6001600160ff1b0384018313811615615c5a57615c5a6159a4565b50500390565b60006001600160a01b0383811690831681811015615c8057615c806159a4565b039392505050565b60006001600160a01b03828116848216808303821115615caa57615caa6159a4565b01949350505050565b600080600080600060a08688031215615ccb57600080fd5b5050835160208501516040860151606087015160809097015192989197509594509092509050565b600080821280156001600160ff1b0384900385131615615d1557615d156159a4565b600160ff1b8390038412811615615d2e57615d2e6159a4565b50500190565b6020808252602b908201527f496e697469616c697a61626c653a20636f6e7472616374206973206e6f74206960408201526a6e697469616c697a696e6760a81b606082015260800190565b634e487b7160e01b600052601260045260246000fd5b60006001600160801b0383811690831681811015615c8057615c806159a4565b60006001600160801b03828116848216808303821115615caa57615caa6159a4565b60005b83811015615df2578181015183820152602001615dda565b838111156121ac5750506000910152565b60008251615e15818460208701615dd7565b9190910192915050565b602080825260049082015263453c3d5360e01b604082015260600190565b6000816000190483118215151615615e5757615e576159a4565b500290565b600082615e6b57615e6b615d7f565b500490565b600082615e7f57615e7f615d7f565b500690565b6020808252600890820152676f766572666c6f7760c01b604082015260600190565b6020815260008251806020840152615ec5816040850160208701615dd7565b601f01601f19169190910160400192915050565b6000600019821415615eed57615eed6159a4565b506001019056fe4a0dd77e6cb2be1847de991681f679a59bbe3e047ecb337a8426980861f82c0f46756e6374696f6e206d7573742062652063616c6c6564207468726f75676820360894a13ba1a3210667c828492db98dca3e2076cc3735a920a3ca505d382bbc416464726573733a206c6f772d6c6576656c2064656c65676174652063616c6c206661696c6564a2646970667358221220ea9c95f5f157e9517ab83d7445d3dad8b411d4fb295643024ecbc18e0e2575c264736f6c63430008090033",
  "devdoc": {
    "errors": {
      "AavePoolGetReserveNormalizedIncomeReturnedZero()": [
        {
          "details": "getReserveNormalizedIncome() returned zero for underlying asset. Oracle only supports active Aave-V2 assets."
        }
      ],
      "CanOnlyTradeIfUnlocked(bool)": [
        {
          "details": "Error which ensures the VAMM is unlocked"
        }
      ],
      "ExpectedOppositeSigns(int256,int256)": [
        {
          "details": "The two values were expected to have oppostite sigs, but do not"
        }
      ],
      "ExpectedSqrtPriceZeroBeforeInit(uint160)": [
        {
          "details": "Error which is reverted if the sqrt price of the vamm is non-zero before a vamm is initialized"
        }
      ],
      "IRSNotionalAmountSpecifiedMustBeNonZero()": [
        {
          "details": "Error which ensures the amount of notional specified when initiating an IRS contract (via the swap function in the vamm) is non-zero"
        }
      ],
      "LiquidityDeltaMustBePositiveInBurn(uint128)": [
        {
          "details": "Error which ensures the liquidity delta is positive if a given LP wishes to burn liquidity in the vamm"
        }
      ],
      "LiquidityDeltaMustBePositiveInMint(uint128)": [
        {
          "details": "Error which ensures the liquidity delta is positive if a given LP wishes to mint further liquidity in the vamm"
        }
      ],
      "MarginLessThanMinimum(int256)": [
        {
          "details": "Cannot have less margin than the minimum requirement"
        }
      ],
      "NotEnoughFunds(uint256,uint256)": [
        {
          "details": "There are not enough funds available for the requested operation"
        }
      ],
      "OOO()": [
        {
          "details": "currentTime < queriedTime"
        }
      ],
      "OnlyMarginEngine()": [
        {
          "details": "only the margin engine can run a certain function"
        }
      ],
      "PositionNetZero()": [
        {
          "details": "No need to unwind a net zero position"
        }
      ],
      "PositionNotSettled()": [
        {
          "details": "Position must be settled after AMM has reached maturity"
        }
      ],
      "WithdrawalExceedsCurrentMargin()": [
        {
          "details": "We can't withdraw more margin than we have"
        }
      ]
    },
    "kind": "dev",
    "methods": {
      "collectProtocol(address,uint256)": {
        "params": {
          "_amount": "the amount in terms of underlying tokens collected from the protocol's earnings",
          "_recipient": "the address which collects the protocol generated fees"
        }
      },
      "constructor": {
        "custom:oz-upgrades-unsafe-allow": "constructor"
      },
      "factory()": {
        "details": "the factory that deployed the master Margin Engine"
      },
      "fcm()": {
        "details": "The FCM is a smart contract that acts as an intermediary Position between the Voltz Core and traders who wish to take fully collateralised fixed taker positionsAn example FCM is the AaveFCM.sol module which inherits from the IFCM interface, it lets fixed takers deposit underlying yield bearing tokens (e.g.) aUSDC as margin to enter into a fixed taker swap without the need to worry about liquidationssince the MarginEngine is confident the FCM is always fully collateralised, it does not let liquidators liquidate the FCM Position",
        "returns": {
          "_0": "The Full Collateralisation Module linked to the MarginEngine"
        }
      },
      "getHistoricalApy()": {
        "details": "The lookback window used by this function is determined by the secondsAgo state variablerefresh the historical apy cache if necessary",
        "returns": {
          "_0": "historicalAPY (Wad)"
        }
      },
      "getHistoricalApyReadOnly()": {
        "details": "The lookback window used by this function is determined by the _secondsAgo state variable"
      },
      "getPosition(address,int24,int24)": {
        "params": {
          "_owner": "The address of the position owner",
          "_tickLower": "The lower tick boundary of the position",
          "_tickUpper": "The upper tick boundary of the position Returns position The Position.Info corresponding to the requested position"
        }
      },
      "initialize(address,address,uint256,uint256)": {
        "details": "\"constructor\" for proxy instances"
      },
      "liquidatePosition(address,int24,int24)": {
        "details": "Steps to liquidate: update position's fixed and variable token balances to account for balances accumulated throughout the trades made since the last mint/burn/poke,Check if the position is liquidatable by calling the isLiquidatablePosition function of the calculator, revert if that is not the case,Calculate the liquidation reward = current margin of the position * liquidatorReward, subtract the liquidator reward from the position margin,Burn the position's liquidity, unwind unnetted fixed and variable balances of a position, transfer the reward to the liquidator"
      },
      "liquidatorRewardWad()": {
        "details": "liquidatorReward (in wad) is the percentage of the margin (of a liquidated position) that is sent to the liquidatorfollowing a successful liquidation that results in a trader/position unwind; example value:  2 * 10**16 => 2% of position margin is used to cover liquidator reward",
        "returns": {
          "_0": "Liquidator Reward in Wad"
        }
      },
      "lookbackWindowInSeconds()": {
        "details": "The historical APY of the Rate Oracle is necessary for MarginEngine computationsThe look-back window is seconds from the current timestampThis value is only settable by the the Factory owner and may be unique for each MarginEngineWhen setting secondAgo, the setter needs to take into consideration the underlying volatility of the APYs in the reference yield-bearing pool (e.g. Aave v2 USDC)"
      },
      "owner()": {
        "details": "Returns the address of the current owner."
      },
      "paused()": {
        "details": "Returns true if the contract is paused, and false otherwise."
      },
      "rateOracle()": {
        "returns": {
          "_0": "The underlying ERC20 token (e.g. USDC)"
        }
      },
      "renounceOwnership()": {
        "details": "Leaves the contract without owner. It will not be possible to call `onlyOwner` functions anymore. Can only be called by the current owner. NOTE: Renouncing ownership will leave the contract without an owner, thereby removing any functionality that is only available to the owner."
      },
      "setCacheMaxAgeInSeconds(uint256)": {
        "params": {
          "_cacheMaxAgeInSeconds": "The new maximum age that the historical APY cache can be before being considered stale"
        }
      },
      "setLookbackWindowInSeconds(uint256)": {
        "details": "Can only be set by the Factory Owner",
        "params": {
          "_secondsAgo": "the duration of the lookback window in seconds"
        }
      },
      "setMarginCalculatorParameters((uint256,uint256,int256,int256,int256,int256,int256,int256,uint256,uint256,uint256,uint256,uint256,uint256,uint256,uint256,uint256,uint256))": {
        "details": "marginCalculatorParameteres is of type MarginCalculatorParameters (refer to the definition of the struct for elaboration on what each parameter means)",
        "params": {
          "_marginCalculatorParameters": "the MarginCalculatorParameters to set"
        }
      },
      "setVAMM(address)": {
        "details": "the VAMM is responsible for price discovery, whereas the management of the underlying collateral and liquidations are handled by the Margin Engine"
      },
      "settlePosition(address,int24,int24)": {
        "details": "Can be called by anyoneA position cannot be settled before maturitySteps to settle a position:1. Retrieve the current fixed and variable token growth inside the tick range of a position2. Calculate accumulated fixed and variable balances of the position since the last mint/poke/burn3. Update the postion's fixed and variable token balances4. Update the postion's fixed and varaible token growth inside last to enable future updates5. Calculates the settlement cashflow from all of the IRS contracts the position has entered since entering the AMM6. Updates the fixed and variable token balances of the position to be zero, adds the settlement cashflow to the position's current margin"
      },
      "termEndTimestampWad()": {
        "returns": {
          "_0": "Term End Timestamp in Wad"
        }
      },
      "termStartTimestampWad()": {
        "returns": {
          "_0": "Term Start Timestamp in Wad"
        }
      },
      "transferMarginToFCMTrader(address,uint256)": {
        "details": "post maturity date of the MarginEngine, the traders from the Full Collateralisation module will be able to settle with the MarginEngineto ensure their fixed yield is guaranteed, in order to collect the funds from the MarginEngine, the FCM needs to invoke the transferMarginToFCMTrader function whcih is only callable by the FCM attached to a particular Margin Engine"
      },
      "transferOwnership(address)": {
        "details": "Transfers ownership of the contract to a new account (`newOwner`). Can only be called by the current owner."
      },
      "underlyingToken()": {
        "returns": {
          "_0": "The underlying ERC20 token (e.g. USDC)"
        }
      },
      "updatePositionMargin(address,int24,int24,int256)": {
        "details": "if the position has positive liquidity then before the margin update, we call the updatePositionTokenBalancesAndAccountForFees functon that calculates up to datemargin, fixed and variable token balances by taking into account the fee income from their tick range and fixed and variable deltas settled along their tick rangemarginDelta is the delta applied to the current margin of a position, if the marginDelta is negative, the position is withdrawing margin, if the marginDelta is positive, the position is depositing funds in terms of the underlying tokensif marginDelta is negative, we need to check if the msg.sender is either the _owner of the position or the msg.sender is apporved by the _owner to act on their behalf in Voltz Protocolthe approval logic is implemented in the Factory.solif marginDelta is negative, we additionally need to check if post the initial margin requirement is still satisfied post withdrawalif marginDelta is positive, the depositor of the margin is either the msg.sender or the owner who interacted through an approved peripheral contract"
      },
      "updatePositionPostVAMMInducedMintBurn((address,int24,int24,int128))": {
        "details": "Steps taken:1. Update position liquidity based on params.liquidityDelta2. Update fixed and variable token balances of the position based on how much has been accumulated since the last mint/burn/poke3. Update position's margin by taking into account the position accumulated fees since the last mint/burn/poke4. Update fixed and variable token growth + fee growth in the position info struct for future interactions with the position",
        "params": {
          "_params": "necessary for the purposes of referencing the position being updated (owner, tickLower, tickUpper, _) and the liquidity delta that needs to be applied to position._liquidity"
        }
      },
      "updatePositionPostVAMMInducedSwap(address,int24,int24,int256,int256,uint256,int256)": {
        "details": "Since every position can also engage in swaps with the VAMM, this function needs to be invoked after non-external calls are made to the VAMM's swap functionThis purpose of this function is to:1. updatePositionTokenBalancesAndAccountForFees2. update position margin to account for fees paid to execute the swap3. calculate the position margin requrement given the swap, check if the position marigin satisfies the most up to date requirement4. if all the requirements are satisfied then position gets updated to take into account the swap that it just entered, if the minimum margin requirement is not satisfied then the transaction will revert"
      },
      "upgradeTo(address)": {
        "details": "Upgrade the implementation of the proxy to `newImplementation`. Calls {_authorizeUpgrade}. Emits an {Upgraded} event."
      },
      "upgradeToAndCall(address,bytes)": {
        "details": "Upgrade the implementation of the proxy to `newImplementation`, and subsequently execute the function call encoded in `data`. Calls {_authorizeUpgrade}. Emits an {Upgraded} event."
      },
      "vamm()": {
        "details": "The VAMM is responsible for pricing only (determining the effective fixed rate at which a given Interest Rate Swap notional will be executed)",
        "returns": {
          "_0": "The VAMM"
        }
      }
    },
    "version": 1
  },
  "userdoc": {
    "errors": {
      "CannotLiquidate()": [
        {
          "notice": "The position/trader needs to be below the liquidation threshold to be liquidated"
        }
      ],
      "CannotSettleBeforeMaturity()": [
        {
          "notice": "Positions and Traders cannot be settled before the applicable interest rate swap has matured"
        }
      ],
      "InvalidMarginDelta()": [
        {
          "notice": "Margin delta must not equal zero"
        }
      ],
      "MarginRequirementNotMet(int256,int24,int256,int256,uint256,int256)": [
        {
          "notice": "The resulting margin does not meet minimum requirements"
        }
      ],
      "MarginRequirementNotMetFCM(int256)": [
        {
          "notice": "The resulting margin does not meet minimum requirements"
        }
      ],
      "OnlyOwnerCanUpdatePosition()": [
        {
          "notice": "Only the position/trade owner can update the LP/Trader margin"
        }
      ],
      "PRBMathSD59x18__DivInputTooSmall()": [
        {
          "notice": "Emitted when one of the inputs is MIN_SD59x18."
        }
      ],
      "PRBMathSD59x18__DivOverflow(uint256)": [
        {
          "notice": "Emitted when one of the intermediary unsigned results overflows SD59x18."
        }
      ],
      "PRBMathSD59x18__Exp2InputTooBig(int256)": [
        {
          "notice": "Emitted when the input is greater than 192."
        }
      ],
      "PRBMathSD59x18__ExpInputTooBig(int256)": [
        {
          "notice": "Emitted when the input is greater than 133.084258667509499441."
        }
      ],
      "PRBMathSD59x18__FromIntOverflow(int256)": [
        {
          "notice": "Emitted when converting a basic integer to the fixed-point format overflows SD59x18."
        }
      ],
      "PRBMathSD59x18__FromIntUnderflow(int256)": [
        {
          "notice": "Emitted when converting a basic integer to the fixed-point format underflows SD59x18."
        }
      ],
      "PRBMathSD59x18__MulInputTooSmall()": [
        {
          "notice": "Emitted when one of the inputs is MIN_SD59x18."
        }
      ],
      "PRBMathSD59x18__MulOverflow(uint256)": [
        {
          "notice": "Emitted when the intermediary absolute result overflows SD59x18."
        }
      ],
      "PRBMathSD59x18__SqrtNegativeInput(int256)": [
        {
          "notice": "Emitted when the input is negative."
        }
      ],
      "PRBMathSD59x18__SqrtOverflow(int256)": [
        {
          "notice": "Emitted when the calculating the square root overflows SD59x18."
        }
      ],
      "PRBMathUD60x18__FromUintOverflow(uint256)": [
        {
          "notice": "Emitted when converting a basic integer to the fixed-point format format overflows UD60x18."
        }
      ],
      "PRBMath__MulDivFixedPointOverflow(uint256)": [
        {
          "notice": "Emitted when the result overflows uint256."
        }
      ],
      "PRBMath__MulDivOverflow(uint256,uint256)": [
        {
          "notice": "Emitted when the result overflows uint256."
        }
      ]
    },
    "kind": "user",
    "methods": {
      "cacheMaxAgeInSeconds()": {
        "notice": "Gets the maximum age of the cached historical APY value can be without being refreshed"
      },
      "collectProtocol(address,uint256)": {
        "notice": "function that can only be called by the owner enables collection of protocol generated fees from any give margin engine"
      },
      "factory()": {
        "notice": "The Factory"
      },
      "fcm()": {
        "notice": "The Full Collateralisation Module (FCM)"
      },
      "getHistoricalApy()": {
        "notice": "Get Historical APY"
      },
      "getHistoricalApyReadOnly()": {
        "notice": "Computes the historical APY value of the RateOracle"
      },
      "getPosition(address,int24,int24)": {
        "notice": "Returns the information about a position by the position's key"
      },
      "liquidatePosition(address,int24,int24)": {
        "notice": "Liquidate a Position"
      },
      "liquidatorRewardWad()": {
        "notice": "The liquidator Reward Percentage (in Wad)"
      },
      "lookbackWindowInSeconds()": {
        "notice": "Gets the look-back window size that's used to request the historical APY from the rate Oracle"
      },
      "rateOracle()": {
        "notice": "The rateOracle contract which lets the protocol access historical apys in the yield bearing pools it is built on top of"
      },
      "setCacheMaxAgeInSeconds(uint256)": {
        "notice": "Sets the maximum age that the cached historical APY value"
      },
      "setFCM(address)": {
        "notice": "sets the Full Collateralisation Module"
      },
      "setLiquidatorReward(uint256)": {
        "notice": "Sets the liquidator reward: proportion of liquidated position's margin paid as a reward to the liquidator"
      },
      "setLookbackWindowInSeconds(uint256)": {
        "notice": "Sets secondsAgo: The look-back window size used to calculate the historical APY for margin purposes"
      },
      "setMarginCalculatorParameters((uint256,uint256,int256,int256,int256,int256,int256,int256,uint256,uint256,uint256,uint256,uint256,uint256,uint256,uint256,uint256,uint256))": {
        "notice": "Set the MarginCalculatorParameters (each margin engine can have its own custom set of margin calculator parameters)"
      },
      "setVAMM(address)": {
        "notice": "sets the Virtual Automated Market Maker (VAMM) attached to the MarginEngine"
      },
      "settlePosition(address,int24,int24)": {
        "notice": "Settles a Position"
      },
      "termEndTimestampWad()": {
        "notice": "The unix termEndTimestamp of the MarginEngine in Wad"
      },
      "termStartTimestampWad()": {
        "notice": "The unix termStartTimestamp of the MarginEngine in Wad"
      },
      "transferMarginToFCMTrader(address,uint256)": {
        "notice": "transfers margin in terms of underlying tokens to a trader from the Full Collateralisation Module"
      },
      "underlyingToken()": {
        "notice": "The address of the underlying (non-yield bearing) token - e.g. USDC"
      },
      "updatePositionMargin(address,int24,int24,int256)": {
        "notice": "updates the margin account of a position which can be uniquily identified with its _owner, tickLower, tickUpper"
      },
      "updatePositionPostVAMMInducedMintBurn((address,int24,int24,int128))": {
        "notice": "Update a Position post VAMM induced mint or burn"
      },
      "vamm()": {
        "notice": "VAMM (Virtual Automated Market Maker) linked to the MarginEngine"
      }
    },
    "version": 1
  },
  "storageLayout": {
    "storage": [
      {
        "astId": 16078,
        "contract": "contracts/MarginEngine.sol:MarginEngine",
        "label": "_liquidatorRewardWad",
        "offset": 0,
        "slot": "0",
        "type": "t_uint256"
      },
      {
        "astId": 16081,
        "contract": "contracts/MarginEngine.sol:MarginEngine",
        "label": "_underlyingToken",
        "offset": 0,
        "slot": "1",
        "type": "t_contract(IERC20Minimal)12457"
      },
      {
        "astId": 16083,
        "contract": "contracts/MarginEngine.sol:MarginEngine",
        "label": "_termStartTimestampWad",
        "offset": 0,
        "slot": "2",
        "type": "t_uint256"
      },
      {
        "astId": 16085,
        "contract": "contracts/MarginEngine.sol:MarginEngine",
        "label": "_termEndTimestampWad",
        "offset": 0,
        "slot": "3",
        "type": "t_uint256"
      },
      {
        "astId": 16088,
        "contract": "contracts/MarginEngine.sol:MarginEngine",
        "label": "_fcm",
        "offset": 0,
        "slot": "4",
        "type": "t_contract(IFCM)13761"
      },
      {
        "astId": 16093,
        "contract": "contracts/MarginEngine.sol:MarginEngine",
        "label": "positions",
        "offset": 0,
        "slot": "5",
        "type": "t_mapping(t_bytes32,t_struct(Info)10672_storage)"
      },
      {
        "astId": 16096,
        "contract": "contracts/MarginEngine.sol:MarginEngine",
        "label": "_vamm",
        "offset": 0,
        "slot": "6",
        "type": "t_contract(IVAMM)13505"
      },
      {
        "astId": 16098,
        "contract": "contracts/MarginEngine.sol:MarginEngine",
        "label": "_secondsAgo",
        "offset": 0,
        "slot": "7",
        "type": "t_uint256"
      },
      {
        "astId": 16100,
        "contract": "contracts/MarginEngine.sol:MarginEngine",
        "label": "cachedHistoricalApyWad",
        "offset": 0,
        "slot": "8",
        "type": "t_uint256"
      },
      {
        "astId": 16102,
        "contract": "contracts/MarginEngine.sol:MarginEngine",
        "label": "cachedHistoricalApyWadRefreshTimestamp",
        "offset": 0,
        "slot": "9",
        "type": "t_uint256"
      },
      {
        "astId": 16104,
        "contract": "contracts/MarginEngine.sol:MarginEngine",
        "label": "_cacheMaxAgeInSeconds",
        "offset": 0,
        "slot": "10",
        "type": "t_uint256"
      },
      {
        "astId": 16107,
        "contract": "contracts/MarginEngine.sol:MarginEngine",
        "label": "_factory",
        "offset": 0,
        "slot": "11",
        "type": "t_contract(IFactory)12610"
      },
      {
        "astId": 16110,
        "contract": "contracts/MarginEngine.sol:MarginEngine",
        "label": "_rateOracle",
        "offset": 0,
        "slot": "12",
        "type": "t_contract(IRateOracle)13885"
      },
      {
        "astId": 16113,
        "contract": "contracts/MarginEngine.sol:MarginEngine",
        "label": "marginCalculatorParameters",
        "offset": 0,
        "slot": "13",
        "type": "t_struct(MarginCalculatorParameters)12679_storage"
      },
      {
        "astId": 16120,
        "contract": "contracts/MarginEngine.sol:MarginEngine",
        "label": "__gap",
        "offset": 0,
        "slot": "31",
        "type": "t_array(t_uint256)69_storage"
      },
      {
        "astId": 540,
        "contract": "contracts/MarginEngine.sol:MarginEngine",
        "label": "_initialized",
        "offset": 0,
        "slot": "100",
        "type": "t_bool"
      },
      {
        "astId": 543,
        "contract": "contracts/MarginEngine.sol:MarginEngine",
        "label": "_initializing",
        "offset": 1,
        "slot": "100",
        "type": "t_bool"
      },
      {
        "astId": 1119,
        "contract": "contracts/MarginEngine.sol:MarginEngine",
        "label": "__gap",
        "offset": 0,
        "slot": "101",
        "type": "t_array(t_uint256)50_storage"
      },
      {
        "astId": 10,
        "contract": "contracts/MarginEngine.sol:MarginEngine",
        "label": "_owner",
        "offset": 0,
        "slot": "151",
        "type": "t_address"
      },
      {
        "astId": 124,
        "contract": "contracts/MarginEngine.sol:MarginEngine",
        "label": "__gap",
        "offset": 0,
        "slot": "152",
        "type": "t_array(t_uint256)49_storage"
      },
      {
        "astId": 739,
        "contract": "contracts/MarginEngine.sol:MarginEngine",
        "label": "_paused",
        "offset": 0,
        "slot": "201",
        "type": "t_bool"
      },
      {
        "astId": 830,
        "contract": "contracts/MarginEngine.sol:MarginEngine",
        "label": "__gap",
        "offset": 0,
        "slot": "202",
        "type": "t_array(t_uint256)49_storage"
      },
      {
        "astId": 522,
        "contract": "contracts/MarginEngine.sol:MarginEngine",
        "label": "__gap",
        "offset": 0,
        "slot": "251",
        "type": "t_array(t_uint256)50_storage"
      },
      {
        "astId": 717,
        "contract": "contracts/MarginEngine.sol:MarginEngine",
        "label": "__gap",
        "offset": 0,
        "slot": "301",
        "type": "t_array(t_uint256)50_storage"
      }
    ],
    "types": {
      "t_address": {
        "encoding": "inplace",
        "label": "address",
        "numberOfBytes": "20"
      },
      "t_array(t_uint256)49_storage": {
        "base": "t_uint256",
        "encoding": "inplace",
        "label": "uint256[49]",
        "numberOfBytes": "1568"
      },
      "t_array(t_uint256)50_storage": {
        "base": "t_uint256",
        "encoding": "inplace",
        "label": "uint256[50]",
        "numberOfBytes": "1600"
      },
      "t_array(t_uint256)69_storage": {
        "base": "t_uint256",
        "encoding": "inplace",
        "label": "uint256[69]",
        "numberOfBytes": "2208"
      },
      "t_bool": {
        "encoding": "inplace",
        "label": "bool",
        "numberOfBytes": "1"
      },
      "t_bytes32": {
        "encoding": "inplace",
        "label": "bytes32",
        "numberOfBytes": "32"
      },
      "t_contract(IERC20Minimal)12457": {
        "encoding": "inplace",
        "label": "contract IERC20Minimal",
        "numberOfBytes": "20"
      },
      "t_contract(IFCM)13761": {
        "encoding": "inplace",
        "label": "contract IFCM",
        "numberOfBytes": "20"
      },
      "t_contract(IFactory)12610": {
        "encoding": "inplace",
        "label": "contract IFactory",
        "numberOfBytes": "20"
      },
      "t_contract(IRateOracle)13885": {
        "encoding": "inplace",
        "label": "contract IRateOracle",
        "numberOfBytes": "20"
      },
      "t_contract(IVAMM)13505": {
        "encoding": "inplace",
        "label": "contract IVAMM",
        "numberOfBytes": "20"
      },
      "t_int256": {
        "encoding": "inplace",
        "label": "int256",
        "numberOfBytes": "32"
      },
      "t_mapping(t_bytes32,t_struct(Info)10672_storage)": {
        "encoding": "mapping",
        "key": "t_bytes32",
        "label": "mapping(bytes32 => struct Position.Info)",
        "numberOfBytes": "32",
        "value": "t_struct(Info)10672_storage"
      },
      "t_struct(Info)10672_storage": {
        "encoding": "inplace",
        "label": "struct Position.Info",
        "members": [
          {
            "astId": 10653,
            "contract": "contracts/MarginEngine.sol:MarginEngine",
            "label": "isSettled",
            "offset": 0,
            "slot": "0",
            "type": "t_bool"
          },
          {
            "astId": 10655,
            "contract": "contracts/MarginEngine.sol:MarginEngine",
            "label": "_liquidity",
            "offset": 1,
            "slot": "0",
            "type": "t_uint128"
          },
          {
            "astId": 10657,
            "contract": "contracts/MarginEngine.sol:MarginEngine",
            "label": "margin",
            "offset": 0,
            "slot": "1",
            "type": "t_int256"
          },
          {
            "astId": 10659,
            "contract": "contracts/MarginEngine.sol:MarginEngine",
            "label": "fixedTokenGrowthInsideLastX128",
            "offset": 0,
            "slot": "2",
            "type": "t_int256"
          },
          {
            "astId": 10661,
            "contract": "contracts/MarginEngine.sol:MarginEngine",
            "label": "variableTokenGrowthInsideLastX128",
            "offset": 0,
            "slot": "3",
            "type": "t_int256"
          },
          {
            "astId": 10663,
            "contract": "contracts/MarginEngine.sol:MarginEngine",
            "label": "fixedTokenBalance",
            "offset": 0,
            "slot": "4",
            "type": "t_int256"
          },
          {
            "astId": 10665,
            "contract": "contracts/MarginEngine.sol:MarginEngine",
            "label": "variableTokenBalance",
            "offset": 0,
            "slot": "5",
            "type": "t_int256"
          },
          {
            "astId": 10667,
            "contract": "contracts/MarginEngine.sol:MarginEngine",
            "label": "feeGrowthInsideLastX128",
            "offset": 0,
            "slot": "6",
            "type": "t_uint256"
          },
          {
            "astId": 10669,
            "contract": "contracts/MarginEngine.sol:MarginEngine",
            "label": "rewardPerAmount",
            "offset": 0,
            "slot": "7",
            "type": "t_uint256"
          },
          {
            "astId": 10671,
            "contract": "contracts/MarginEngine.sol:MarginEngine",
            "label": "accumulatedFees",
            "offset": 0,
            "slot": "8",
            "type": "t_uint256"
          }
        ],
        "numberOfBytes": "288"
      },
      "t_struct(MarginCalculatorParameters)12679_storage": {
        "encoding": "inplace",
        "label": "struct IMarginEngine.MarginCalculatorParameters",
        "members": [
          {
            "astId": 12627,
            "contract": "contracts/MarginEngine.sol:MarginEngine",
            "label": "apyUpperMultiplierWad",
            "offset": 0,
            "slot": "0",
            "type": "t_uint256"
          },
          {
            "astId": 12630,
            "contract": "contracts/MarginEngine.sol:MarginEngine",
            "label": "apyLowerMultiplierWad",
            "offset": 0,
            "slot": "1",
            "type": "t_uint256"
          },
          {
            "astId": 12633,
            "contract": "contracts/MarginEngine.sol:MarginEngine",
            "label": "sigmaSquaredWad",
            "offset": 0,
            "slot": "2",
            "type": "t_int256"
          },
          {
            "astId": 12636,
            "contract": "contracts/MarginEngine.sol:MarginEngine",
            "label": "alphaWad",
            "offset": 0,
            "slot": "3",
            "type": "t_int256"
          },
          {
            "astId": 12639,
            "contract": "contracts/MarginEngine.sol:MarginEngine",
            "label": "betaWad",
            "offset": 0,
            "slot": "4",
            "type": "t_int256"
          },
          {
            "astId": 12642,
            "contract": "contracts/MarginEngine.sol:MarginEngine",
            "label": "xiUpperWad",
            "offset": 0,
            "slot": "5",
            "type": "t_int256"
          },
          {
            "astId": 12645,
            "contract": "contracts/MarginEngine.sol:MarginEngine",
            "label": "xiLowerWad",
            "offset": 0,
            "slot": "6",
            "type": "t_int256"
          },
          {
            "astId": 12648,
            "contract": "contracts/MarginEngine.sol:MarginEngine",
            "label": "tMaxWad",
            "offset": 0,
            "slot": "7",
            "type": "t_int256"
          },
          {
            "astId": 12651,
            "contract": "contracts/MarginEngine.sol:MarginEngine",
            "label": "devMulLeftUnwindLMWad",
            "offset": 0,
            "slot": "8",
            "type": "t_uint256"
          },
          {
            "astId": 12654,
            "contract": "contracts/MarginEngine.sol:MarginEngine",
            "label": "devMulRightUnwindLMWad",
            "offset": 0,
            "slot": "9",
            "type": "t_uint256"
          },
          {
            "astId": 12657,
            "contract": "contracts/MarginEngine.sol:MarginEngine",
            "label": "devMulLeftUnwindIMWad",
            "offset": 0,
            "slot": "10",
            "type": "t_uint256"
          },
          {
            "astId": 12660,
            "contract": "contracts/MarginEngine.sol:MarginEngine",
            "label": "devMulRightUnwindIMWad",
            "offset": 0,
            "slot": "11",
            "type": "t_uint256"
          },
          {
            "astId": 12663,
            "contract": "contracts/MarginEngine.sol:MarginEngine",
            "label": "fixedRateDeviationMinLeftUnwindLMWad",
            "offset": 0,
            "slot": "12",
            "type": "t_uint256"
          },
          {
            "astId": 12666,
            "contract": "contracts/MarginEngine.sol:MarginEngine",
            "label": "fixedRateDeviationMinRightUnwindLMWad",
            "offset": 0,
            "slot": "13",
            "type": "t_uint256"
          },
          {
            "astId": 12669,
            "contract": "contracts/MarginEngine.sol:MarginEngine",
            "label": "fixedRateDeviationMinLeftUnwindIMWad",
            "offset": 0,
            "slot": "14",
            "type": "t_uint256"
          },
          {
            "astId": 12672,
            "contract": "contracts/MarginEngine.sol:MarginEngine",
            "label": "fixedRateDeviationMinRightUnwindIMWad",
            "offset": 0,
            "slot": "15",
            "type": "t_uint256"
          },
          {
            "astId": 12675,
            "contract": "contracts/MarginEngine.sol:MarginEngine",
            "label": "gammaWad",
            "offset": 0,
            "slot": "16",
            "type": "t_uint256"
          },
          {
            "astId": 12678,
            "contract": "contracts/MarginEngine.sol:MarginEngine",
            "label": "minMarginToIncentiviseLiquidators",
            "offset": 0,
            "slot": "17",
            "type": "t_uint256"
          }
        ],
        "numberOfBytes": "576"
      },
      "t_uint128": {
        "encoding": "inplace",
        "label": "uint128",
        "numberOfBytes": "16"
      },
      "t_uint256": {
        "encoding": "inplace",
        "label": "uint256",
        "numberOfBytes": "32"
      }
    }
  }
}