{
  "address": "0x15e3484EB4Ae66B9186699DB76024cBC363c1f2B",
  "abi": [
    {
      "inputs": [],
      "stateMutability": "nonpayable",
      "type": "constructor"
    },
    {
      "inputs": [],
      "name": "AavePoolGetReserveNormalizedIncomeReturnedZero",
      "type": "error"
    },
    {
      "inputs": [],
      "name": "CTokenExchangeRateReturnedZero",
      "type": "error"
    },
    {
      "inputs": [
        {
          "internalType": "bool",
          "name": "unlocked",
          "type": "bool"
        }
      ],
      "name": "CanOnlyTradeIfUnlocked",
      "type": "error"
    },
    {
      "inputs": [],
      "name": "CannotLiquidate",
      "type": "error"
    },
    {
      "inputs": [],
      "name": "CannotSettleBeforeMaturity",
      "type": "error"
    },
    {
      "inputs": [
        {
          "internalType": "uint256",
          "name": "x",
          "type": "uint256"
        },
        {
          "internalType": "uint256",
          "name": "y",
          "type": "uint256"
        }
      ],
      "name": "DebugError",
      "type": "error"
    },
    {
      "inputs": [
        {
          "internalType": "int256",
          "name": "amount0",
          "type": "int256"
        },
        {
          "internalType": "int256",
          "name": "amount1",
          "type": "int256"
        }
      ],
      "name": "ExpectedOppositeSigns",
      "type": "error"
    },
    {
      "inputs": [
        {
          "internalType": "uint160",
          "name": "sqrtPriceX96",
          "type": "uint160"
        }
      ],
      "name": "ExpectedSqrtPriceZeroBeforeInit",
      "type": "error"
    },
    {
      "inputs": [],
      "name": "IRSNotionalAmountSpecifiedMustBeNonZero",
      "type": "error"
    },
    {
      "inputs": [],
      "name": "InvalidMarginDelta",
      "type": "error"
    },
    {
      "inputs": [
        {
          "internalType": "uint128",
          "name": "amount",
          "type": "uint128"
        }
      ],
      "name": "LiquidityDeltaMustBePositiveInBurn",
      "type": "error"
    },
    {
      "inputs": [
        {
          "internalType": "uint128",
          "name": "amount",
          "type": "uint128"
        }
      ],
      "name": "LiquidityDeltaMustBePositiveInMint",
      "type": "error"
    },
    {
      "inputs": [
        {
          "internalType": "int256",
          "name": "marginRequirement",
          "type": "int256"
        }
      ],
      "name": "MarginLessThanMinimum",
      "type": "error"
    },
    {
      "inputs": [
        {
          "internalType": "int256",
          "name": "marginRequirement",
          "type": "int256"
        },
        {
          "internalType": "int24",
          "name": "tick",
          "type": "int24"
        },
        {
          "internalType": "int256",
          "name": "fixedTokenDelta",
          "type": "int256"
        },
        {
          "internalType": "int256",
          "name": "variableTokenDelta",
          "type": "int256"
        },
        {
          "internalType": "uint256",
          "name": "cumulativeFeeIncurred",
          "type": "uint256"
        },
        {
          "internalType": "int256",
          "name": "fixedTokenDeltaUnbalanced",
          "type": "int256"
        }
      ],
      "name": "MarginRequirementNotMet",
      "type": "error"
    },
    {
      "inputs": [
        {
          "internalType": "int256",
          "name": "marginRequirement",
          "type": "int256"
        }
      ],
      "name": "MarginRequirementNotMetFCM",
      "type": "error"
    },
    {
      "inputs": [
        {
          "internalType": "uint256",
          "name": "requested",
          "type": "uint256"
        },
        {
          "internalType": "uint256",
          "name": "available",
          "type": "uint256"
        }
      ],
      "name": "NotEnoughFunds",
      "type": "error"
    },
    {
      "inputs": [],
      "name": "OOO",
      "type": "error"
    },
    {
      "inputs": [],
      "name": "OnlyFCM",
      "type": "error"
    },
    {
      "inputs": [],
      "name": "OnlyMarginEngine",
      "type": "error"
    },
    {
      "inputs": [],
      "name": "OnlyOwnerCanUpdatePosition",
      "type": "error"
    },
    {
      "inputs": [],
      "name": "OnlyVAMM",
      "type": "error"
    },
    {
      "inputs": [],
      "name": "PRBMathSD59x18__DivInputTooSmall",
      "type": "error"
    },
    {
      "inputs": [
        {
          "internalType": "uint256",
          "name": "rAbs",
          "type": "uint256"
        }
      ],
      "name": "PRBMathSD59x18__DivOverflow",
      "type": "error"
    },
    {
      "inputs": [
        {
          "internalType": "int256",
          "name": "x",
          "type": "int256"
        }
      ],
      "name": "PRBMathSD59x18__Exp2InputTooBig",
      "type": "error"
    },
    {
      "inputs": [
        {
          "internalType": "int256",
          "name": "x",
          "type": "int256"
        }
      ],
      "name": "PRBMathSD59x18__ExpInputTooBig",
      "type": "error"
    },
    {
      "inputs": [
        {
          "internalType": "int256",
          "name": "x",
          "type": "int256"
        }
      ],
      "name": "PRBMathSD59x18__FromIntOverflow",
      "type": "error"
    },
    {
      "inputs": [
        {
          "internalType": "int256",
          "name": "x",
          "type": "int256"
        }
      ],
      "name": "PRBMathSD59x18__FromIntUnderflow",
      "type": "error"
    },
    {
      "inputs": [],
      "name": "PRBMathSD59x18__MulInputTooSmall",
      "type": "error"
    },
    {
      "inputs": [
        {
          "internalType": "uint256",
          "name": "rAbs",
          "type": "uint256"
        }
      ],
      "name": "PRBMathSD59x18__MulOverflow",
      "type": "error"
    },
    {
      "inputs": [
        {
          "internalType": "int256",
          "name": "x",
          "type": "int256"
        }
      ],
      "name": "PRBMathSD59x18__SqrtNegativeInput",
      "type": "error"
    },
    {
      "inputs": [
        {
          "internalType": "int256",
          "name": "x",
          "type": "int256"
        }
      ],
      "name": "PRBMathSD59x18__SqrtOverflow",
      "type": "error"
    },
    {
      "inputs": [
        {
          "internalType": "uint256",
          "name": "x",
          "type": "uint256"
        }
      ],
      "name": "PRBMathUD60x18__FromUintOverflow",
      "type": "error"
    },
    {
      "inputs": [
        {
          "internalType": "uint256",
          "name": "prod1",
          "type": "uint256"
        }
      ],
      "name": "PRBMath__MulDivFixedPointOverflow",
      "type": "error"
    },
    {
      "inputs": [
        {
          "internalType": "uint256",
          "name": "prod1",
          "type": "uint256"
        },
        {
          "internalType": "uint256",
          "name": "denominator",
          "type": "uint256"
        }
      ],
      "name": "PRBMath__MulDivOverflow",
      "type": "error"
    },
    {
      "inputs": [],
      "name": "PositionNetZero",
      "type": "error"
    },
    {
      "inputs": [],
      "name": "PositionNotSettled",
      "type": "error"
    },
    {
      "inputs": [],
      "name": "WithdrawalExceedsCurrentMargin",
      "type": "error"
    },
    {
      "inputs": [],
      "name": "closeToOrBeyondMaturity",
      "type": "error"
    },
    {
      "anonymous": false,
      "inputs": [
        {
          "indexed": false,
          "internalType": "address",
          "name": "previousAdmin",
          "type": "address"
        },
        {
          "indexed": false,
          "internalType": "address",
          "name": "newAdmin",
          "type": "address"
        }
      ],
      "name": "AdminChanged",
      "type": "event"
    },
    {
      "anonymous": false,
      "inputs": [
        {
          "indexed": true,
          "internalType": "address",
          "name": "beacon",
          "type": "address"
        }
      ],
      "name": "BeaconUpgraded",
      "type": "event"
    },
    {
      "anonymous": false,
      "inputs": [
        {
          "indexed": false,
          "internalType": "uint256",
          "name": "cacheMaxAgeInSeconds",
          "type": "uint256"
        }
      ],
      "name": "CacheMaxAgeSetting",
      "type": "event"
    },
    {
      "anonymous": false,
      "inputs": [
        {
          "indexed": true,
          "internalType": "contract IFCM",
          "name": "fcm",
          "type": "address"
        }
      ],
      "name": "FCMSetting",
      "type": "event"
    },
    {
      "anonymous": false,
      "inputs": [
        {
          "indexed": false,
          "internalType": "uint256",
          "name": "value",
          "type": "uint256"
        }
      ],
      "name": "HistoricalApy",
      "type": "event"
    },
    {
      "anonymous": false,
      "inputs": [
        {
          "indexed": false,
          "internalType": "uint256",
          "name": "secondsAgo",
          "type": "uint256"
        }
      ],
      "name": "HistoricalApyWindowSetting",
      "type": "event"
    },
    {
      "anonymous": false,
      "inputs": [
        {
          "indexed": false,
          "internalType": "uint256",
          "name": "liquidatorRewardWad",
          "type": "uint256"
        }
      ],
      "name": "LiquidatorRewardSetting",
      "type": "event"
    },
    {
      "anonymous": false,
      "inputs": [
        {
          "components": [
            {
              "internalType": "uint256",
              "name": "apyUpperMultiplierWad",
              "type": "uint256"
            },
            {
              "internalType": "uint256",
              "name": "apyLowerMultiplierWad",
              "type": "uint256"
            },
            {
              "internalType": "int256",
              "name": "sigmaSquaredWad",
              "type": "int256"
            },
            {
              "internalType": "int256",
              "name": "alphaWad",
              "type": "int256"
            },
            {
              "internalType": "int256",
              "name": "betaWad",
              "type": "int256"
            },
            {
              "internalType": "int256",
              "name": "xiUpperWad",
              "type": "int256"
            },
            {
              "internalType": "int256",
              "name": "xiLowerWad",
              "type": "int256"
            },
            {
              "internalType": "int256",
              "name": "tMaxWad",
              "type": "int256"
            },
            {
              "internalType": "uint256",
              "name": "devMulLeftUnwindLMWad",
              "type": "uint256"
            },
            {
              "internalType": "uint256",
              "name": "devMulRightUnwindLMWad",
              "type": "uint256"
            },
            {
              "internalType": "uint256",
              "name": "devMulLeftUnwindIMWad",
              "type": "uint256"
            },
            {
              "internalType": "uint256",
              "name": "devMulRightUnwindIMWad",
              "type": "uint256"
            },
            {
              "internalType": "uint256",
              "name": "fixedRateDeviationMinLeftUnwindLMWad",
              "type": "uint256"
            },
            {
              "internalType": "uint256",
              "name": "fixedRateDeviationMinRightUnwindLMWad",
              "type": "uint256"
            },
            {
              "internalType": "uint256",
              "name": "fixedRateDeviationMinLeftUnwindIMWad",
              "type": "uint256"
            },
            {
              "internalType": "uint256",
              "name": "fixedRateDeviationMinRightUnwindIMWad",
              "type": "uint256"
            },
            {
              "internalType": "uint256",
              "name": "gammaWad",
              "type": "uint256"
            },
            {
              "internalType": "uint256",
              "name": "minMarginToIncentiviseLiquidators",
              "type": "uint256"
            }
          ],
          "indexed": false,
          "internalType": "struct IMarginEngine.MarginCalculatorParameters",
          "name": "marginCalculatorParameters",
          "type": "tuple"
        }
      ],
      "name": "MarginCalculatorParametersSetting",
      "type": "event"
    },
    {
      "anonymous": false,
      "inputs": [
        {
          "indexed": true,
          "internalType": "address",
          "name": "previousOwner",
          "type": "address"
        },
        {
          "indexed": true,
          "internalType": "address",
          "name": "newOwner",
          "type": "address"
        }
      ],
      "name": "OwnershipTransferred",
      "type": "event"
    },
    {
      "anonymous": false,
      "inputs": [
        {
          "indexed": false,
          "internalType": "address",
          "name": "account",
          "type": "address"
        }
      ],
      "name": "Paused",
      "type": "event"
    },
    {
      "anonymous": false,
      "inputs": [
        {
          "indexed": true,
          "internalType": "address",
          "name": "owner",
          "type": "address"
        },
        {
          "indexed": true,
          "internalType": "int24",
          "name": "tickLower",
          "type": "int24"
        },
        {
          "indexed": true,
          "internalType": "int24",
          "name": "tickUpper",
          "type": "int24"
        },
        {
          "indexed": false,
          "internalType": "address",
          "name": "liquidator",
          "type": "address"
        },
        {
          "indexed": false,
          "internalType": "int256",
          "name": "notionalUnwound",
          "type": "int256"
        },
        {
          "indexed": false,
          "internalType": "uint256",
          "name": "liquidatorReward",
          "type": "uint256"
        }
      ],
      "name": "PositionLiquidation",
      "type": "event"
    },
    {
      "anonymous": false,
      "inputs": [
        {
          "indexed": false,
          "internalType": "address",
          "name": "sender",
          "type": "address"
        },
        {
          "indexed": true,
          "internalType": "address",
          "name": "owner",
          "type": "address"
        },
        {
          "indexed": true,
          "internalType": "int24",
          "name": "tickLower",
          "type": "int24"
        },
        {
          "indexed": true,
          "internalType": "int24",
          "name": "tickUpper",
          "type": "int24"
        },
        {
          "indexed": false,
          "internalType": "int256",
          "name": "marginDelta",
          "type": "int256"
        }
      ],
      "name": "PositionMarginUpdate",
      "type": "event"
    },
    {
      "anonymous": false,
      "inputs": [
        {
          "indexed": true,
          "internalType": "address",
          "name": "owner",
          "type": "address"
        },
        {
          "indexed": true,
          "internalType": "int24",
          "name": "tickLower",
          "type": "int24"
        },
        {
          "indexed": true,
          "internalType": "int24",
          "name": "tickUpper",
          "type": "int24"
        },
        {
          "indexed": false,
          "internalType": "int256",
          "name": "settlementCashflow",
          "type": "int256"
        }
      ],
      "name": "PositionSettlement",
      "type": "event"
    },
    {
      "anonymous": false,
      "inputs": [
        {
          "indexed": true,
          "internalType": "address",
          "name": "owner",
          "type": "address"
        },
        {
          "indexed": true,
          "internalType": "int24",
          "name": "tickLower",
          "type": "int24"
        },
        {
          "indexed": true,
          "internalType": "int24",
          "name": "tickUpper",
          "type": "int24"
        },
        {
          "indexed": false,
          "internalType": "uint128",
          "name": "_liquidity",
          "type": "uint128"
        },
        {
          "indexed": false,
          "internalType": "int256",
          "name": "margin",
          "type": "int256"
        },
        {
          "indexed": false,
          "internalType": "int256",
          "name": "fixedTokenBalance",
          "type": "int256"
        },
        {
          "indexed": false,
          "internalType": "int256",
          "name": "variableTokenBalance",
          "type": "int256"
        },
        {
          "indexed": false,
          "internalType": "uint256",
          "name": "accumulatedFees",
          "type": "uint256"
        }
      ],
      "name": "PositionUpdate",
      "type": "event"
    },
    {
      "anonymous": false,
      "inputs": [
        {
          "indexed": false,
          "internalType": "address",
          "name": "sender",
          "type": "address"
        },
        {
          "indexed": true,
          "internalType": "address",
          "name": "recipient",
          "type": "address"
        },
        {
          "indexed": false,
          "internalType": "uint256",
          "name": "amount",
          "type": "uint256"
        }
      ],
      "name": "ProtocolCollection",
      "type": "event"
    },
    {
      "anonymous": false,
      "inputs": [
        {
          "indexed": false,
          "internalType": "uint256",
          "name": "cacheMaxAgeInSeconds",
          "type": "uint256"
        }
      ],
      "name": "RateOracle",
      "type": "event"
    },
    {
      "anonymous": false,
      "inputs": [
        {
          "indexed": true,
          "internalType": "contract IRateOracle",
          "name": "rateOracle",
          "type": "address"
        }
      ],
      "name": "RateOracleSetting",
      "type": "event"
    },
    {
      "anonymous": false,
      "inputs": [
        {
          "indexed": false,
          "internalType": "address",
          "name": "account",
          "type": "address"
        }
      ],
      "name": "Unpaused",
      "type": "event"
    },
    {
      "anonymous": false,
      "inputs": [
        {
          "indexed": true,
          "internalType": "address",
          "name": "implementation",
          "type": "address"
        }
      ],
      "name": "Upgraded",
      "type": "event"
    },
    {
      "anonymous": false,
      "inputs": [
        {
          "indexed": true,
          "internalType": "contract IVAMM",
          "name": "vamm",
          "type": "address"
        }
      ],
      "name": "VAMMSetting",
      "type": "event"
    },
    {
      "inputs": [],
      "name": "MAX_CACHE_MAX_AGE_IN_SECONDS",
      "outputs": [
        {
          "internalType": "uint256",
          "name": "",
          "type": "uint256"
        }
      ],
      "stateMutability": "view",
      "type": "function"
    },
    {
      "inputs": [],
      "name": "MAX_LIQUIDATOR_REWARD_WAD",
      "outputs": [
        {
          "internalType": "uint256",
          "name": "",
          "type": "uint256"
        }
      ],
      "stateMutability": "view",
      "type": "function"
    },
    {
      "inputs": [],
      "name": "MAX_LOOKBACK_WINDOW_IN_SECONDS",
      "outputs": [
        {
          "internalType": "uint256",
          "name": "",
          "type": "uint256"
        }
      ],
      "stateMutability": "view",
      "type": "function"
    },
    {
      "inputs": [],
      "name": "MIN_LOOKBACK_WINDOW_IN_SECONDS",
      "outputs": [
        {
          "internalType": "uint256",
          "name": "",
          "type": "uint256"
        }
      ],
      "stateMutability": "view",
      "type": "function"
    },
    {
      "inputs": [],
      "name": "cacheMaxAgeInSeconds",
      "outputs": [
        {
          "internalType": "uint256",
          "name": "",
          "type": "uint256"
        }
      ],
      "stateMutability": "view",
      "type": "function"
    },
    {
      "inputs": [
        {
          "internalType": "address",
          "name": "_recipient",
          "type": "address"
        },
        {
          "internalType": "uint256",
          "name": "_amount",
          "type": "uint256"
        }
      ],
      "name": "collectProtocol",
      "outputs": [],
      "stateMutability": "nonpayable",
      "type": "function"
    },
    {
      "inputs": [],
      "name": "factory",
      "outputs": [
        {
          "internalType": "contract IFactory",
          "name": "",
          "type": "address"
        }
      ],
      "stateMutability": "view",
      "type": "function"
    },
    {
      "inputs": [],
      "name": "fcm",
      "outputs": [
        {
          "internalType": "contract IFCM",
          "name": "",
          "type": "address"
        }
      ],
      "stateMutability": "view",
      "type": "function"
    },
    {
      "inputs": [],
      "name": "getHistoricalApy",
      "outputs": [
        {
          "internalType": "uint256",
          "name": "",
          "type": "uint256"
        }
      ],
      "stateMutability": "nonpayable",
      "type": "function"
    },
    {
      "inputs": [],
      "name": "getHistoricalApyReadOnly",
      "outputs": [
        {
          "internalType": "uint256",
          "name": "",
          "type": "uint256"
        }
      ],
      "stateMutability": "view",
      "type": "function"
    },
    {
      "inputs": [
        {
          "internalType": "address",
          "name": "_owner",
          "type": "address"
        },
        {
          "internalType": "int24",
          "name": "_tickLower",
          "type": "int24"
        },
        {
          "internalType": "int24",
          "name": "_tickUpper",
          "type": "int24"
        }
      ],
      "name": "getPosition",
      "outputs": [
        {
          "components": [
            {
              "internalType": "bool",
              "name": "isSettled",
              "type": "bool"
            },
            {
              "internalType": "uint128",
              "name": "_liquidity",
              "type": "uint128"
            },
            {
              "internalType": "int256",
              "name": "margin",
              "type": "int256"
            },
            {
              "internalType": "int256",
              "name": "fixedTokenGrowthInsideLastX128",
              "type": "int256"
            },
            {
              "internalType": "int256",
              "name": "variableTokenGrowthInsideLastX128",
              "type": "int256"
            },
            {
              "internalType": "int256",
              "name": "fixedTokenBalance",
              "type": "int256"
            },
            {
              "internalType": "int256",
              "name": "variableTokenBalance",
              "type": "int256"
            },
            {
              "internalType": "uint256",
              "name": "feeGrowthInsideLastX128",
              "type": "uint256"
            },
            {
              "internalType": "uint256",
              "name": "rewardPerAmount",
              "type": "uint256"
            },
            {
              "internalType": "uint256",
              "name": "accumulatedFees",
              "type": "uint256"
            }
          ],
          "internalType": "struct Position.Info",
          "name": "",
          "type": "tuple"
        }
      ],
      "stateMutability": "nonpayable",
      "type": "function"
    },
    {
      "inputs": [
        {
          "internalType": "address",
          "name": "_recipient",
          "type": "address"
        },
        {
          "internalType": "int24",
          "name": "_tickLower",
          "type": "int24"
        },
        {
          "internalType": "int24",
          "name": "_tickUpper",
          "type": "int24"
        },
        {
          "internalType": "bool",
          "name": "_isLM",
          "type": "bool"
        }
      ],
      "name": "getPositionMarginRequirement",
      "outputs": [
        {
          "internalType": "uint256",
          "name": "",
          "type": "uint256"
        }
      ],
      "stateMutability": "nonpayable",
      "type": "function"
    },
    {
      "inputs": [
        {
          "internalType": "contract IERC20Minimal",
          "name": "__underlyingToken",
          "type": "address"
        },
        {
          "internalType": "contract IRateOracle",
          "name": "__rateOracle",
          "type": "address"
        },
        {
          "internalType": "uint256",
          "name": "__termStartTimestampWad",
          "type": "uint256"
        },
        {
          "internalType": "uint256",
          "name": "__termEndTimestampWad",
          "type": "uint256"
        }
      ],
      "name": "initialize",
      "outputs": [],
      "stateMutability": "nonpayable",
      "type": "function"
    },
    {
      "inputs": [
        {
          "internalType": "address",
          "name": "_owner",
          "type": "address"
        },
        {
          "internalType": "int24",
          "name": "_tickLower",
          "type": "int24"
        },
        {
          "internalType": "int24",
          "name": "_tickUpper",
          "type": "int24"
        }
      ],
      "name": "liquidatePosition",
      "outputs": [
        {
          "internalType": "uint256",
          "name": "",
          "type": "uint256"
        }
      ],
      "stateMutability": "nonpayable",
      "type": "function"
    },
    {
      "inputs": [],
      "name": "liquidatorRewardWad",
      "outputs": [
        {
          "internalType": "uint256",
          "name": "",
          "type": "uint256"
        }
      ],
      "stateMutability": "view",
      "type": "function"
    },
    {
      "inputs": [],
      "name": "lookbackWindowInSeconds",
      "outputs": [
        {
          "internalType": "uint256",
          "name": "",
          "type": "uint256"
        }
      ],
      "stateMutability": "view",
      "type": "function"
    },
    {
      "inputs": [],
      "name": "owner",
      "outputs": [
        {
          "internalType": "address",
          "name": "",
          "type": "address"
        }
      ],
      "stateMutability": "view",
      "type": "function"
    },
    {
      "inputs": [],
      "name": "paused",
      "outputs": [
        {
          "internalType": "bool",
          "name": "",
          "type": "bool"
        }
      ],
      "stateMutability": "view",
      "type": "function"
    },
    {
      "inputs": [],
      "name": "rateOracle",
      "outputs": [
        {
          "internalType": "contract IRateOracle",
          "name": "",
          "type": "address"
        }
      ],
      "stateMutability": "view",
      "type": "function"
    },
    {
      "inputs": [],
      "name": "renounceOwnership",
      "outputs": [],
      "stateMutability": "nonpayable",
      "type": "function"
    },
    {
      "inputs": [
        {
          "internalType": "uint256",
          "name": "_newCacheMaxAgeInSeconds",
          "type": "uint256"
        }
      ],
      "name": "setCacheMaxAgeInSeconds",
      "outputs": [],
      "stateMutability": "nonpayable",
      "type": "function"
    },
    {
      "inputs": [
        {
          "internalType": "contract IFCM",
          "name": "_newFCM",
          "type": "address"
        }
      ],
      "name": "setFCM",
      "outputs": [],
      "stateMutability": "nonpayable",
      "type": "function"
    },
    {
      "inputs": [
        {
          "internalType": "uint256",
          "name": "_newLiquidatorRewardWad",
          "type": "uint256"
        }
      ],
      "name": "setLiquidatorReward",
      "outputs": [],
      "stateMutability": "nonpayable",
      "type": "function"
    },
    {
      "inputs": [
        {
          "internalType": "uint256",
          "name": "_newSecondsAgo",
          "type": "uint256"
        }
      ],
      "name": "setLookbackWindowInSeconds",
      "outputs": [],
      "stateMutability": "nonpayable",
      "type": "function"
    },
    {
      "inputs": [
        {
          "components": [
            {
              "internalType": "uint256",
              "name": "apyUpperMultiplierWad",
              "type": "uint256"
            },
            {
              "internalType": "uint256",
              "name": "apyLowerMultiplierWad",
              "type": "uint256"
            },
            {
              "internalType": "int256",
              "name": "sigmaSquaredWad",
              "type": "int256"
            },
            {
              "internalType": "int256",
              "name": "alphaWad",
              "type": "int256"
            },
            {
              "internalType": "int256",
              "name": "betaWad",
              "type": "int256"
            },
            {
              "internalType": "int256",
              "name": "xiUpperWad",
              "type": "int256"
            },
            {
              "internalType": "int256",
              "name": "xiLowerWad",
              "type": "int256"
            },
            {
              "internalType": "int256",
              "name": "tMaxWad",
              "type": "int256"
            },
            {
              "internalType": "uint256",
              "name": "devMulLeftUnwindLMWad",
              "type": "uint256"
            },
            {
              "internalType": "uint256",
              "name": "devMulRightUnwindLMWad",
              "type": "uint256"
            },
            {
              "internalType": "uint256",
              "name": "devMulLeftUnwindIMWad",
              "type": "uint256"
            },
            {
              "internalType": "uint256",
              "name": "devMulRightUnwindIMWad",
              "type": "uint256"
            },
            {
              "internalType": "uint256",
              "name": "fixedRateDeviationMinLeftUnwindLMWad",
              "type": "uint256"
            },
            {
              "internalType": "uint256",
              "name": "fixedRateDeviationMinRightUnwindLMWad",
              "type": "uint256"
            },
            {
              "internalType": "uint256",
              "name": "fixedRateDeviationMinLeftUnwindIMWad",
              "type": "uint256"
            },
            {
              "internalType": "uint256",
              "name": "fixedRateDeviationMinRightUnwindIMWad",
              "type": "uint256"
            },
            {
              "internalType": "uint256",
              "name": "gammaWad",
              "type": "uint256"
            },
            {
              "internalType": "uint256",
              "name": "minMarginToIncentiviseLiquidators",
              "type": "uint256"
            }
          ],
          "internalType": "struct IMarginEngine.MarginCalculatorParameters",
          "name": "_marginCalculatorParameters",
          "type": "tuple"
        }
      ],
      "name": "setMarginCalculatorParameters",
      "outputs": [],
      "stateMutability": "nonpayable",
      "type": "function"
    },
    {
      "inputs": [
        {
          "internalType": "contract IRateOracle",
          "name": "__rateOracle",
          "type": "address"
        }
      ],
      "name": "setRateOracle",
      "outputs": [],
      "stateMutability": "nonpayable",
      "type": "function"
    },
    {
      "inputs": [
        {
          "internalType": "contract IVAMM",
          "name": "_vAMM",
          "type": "address"
        }
      ],
      "name": "setVAMM",
      "outputs": [],
      "stateMutability": "nonpayable",
      "type": "function"
    },
    {
      "inputs": [
        {
          "internalType": "address",
          "name": "_owner",
          "type": "address"
        },
        {
          "internalType": "int24",
          "name": "_tickLower",
          "type": "int24"
        },
        {
          "internalType": "int24",
          "name": "_tickUpper",
          "type": "int24"
        }
      ],
      "name": "settlePosition",
      "outputs": [],
      "stateMutability": "nonpayable",
      "type": "function"
    },
    {
      "inputs": [],
      "name": "termEndTimestampWad",
      "outputs": [
        {
          "internalType": "uint256",
          "name": "",
          "type": "uint256"
        }
      ],
      "stateMutability": "view",
      "type": "function"
    },
    {
      "inputs": [],
      "name": "termStartTimestampWad",
      "outputs": [
        {
          "internalType": "uint256",
          "name": "",
          "type": "uint256"
        }
      ],
      "stateMutability": "view",
      "type": "function"
    },
    {
      "inputs": [
        {
          "internalType": "address",
          "name": "_account",
          "type": "address"
        },
        {
          "internalType": "uint256",
          "name": "_marginDelta",
          "type": "uint256"
        }
      ],
      "name": "transferMarginToFCMTrader",
      "outputs": [],
      "stateMutability": "nonpayable",
      "type": "function"
    },
    {
      "inputs": [
        {
          "internalType": "address",
          "name": "newOwner",
          "type": "address"
        }
      ],
      "name": "transferOwnership",
      "outputs": [],
      "stateMutability": "nonpayable",
      "type": "function"
    },
    {
      "inputs": [],
      "name": "underlyingToken",
      "outputs": [
        {
          "internalType": "contract IERC20Minimal",
          "name": "",
          "type": "address"
        }
      ],
      "stateMutability": "view",
      "type": "function"
    },
    {
      "inputs": [
        {
          "internalType": "address",
          "name": "_owner",
          "type": "address"
        },
        {
          "internalType": "int24",
          "name": "_tickLower",
          "type": "int24"
        },
        {
          "internalType": "int24",
          "name": "_tickUpper",
          "type": "int24"
        },
        {
          "internalType": "int256",
          "name": "_marginDelta",
          "type": "int256"
        }
      ],
      "name": "updatePositionMargin",
      "outputs": [],
      "stateMutability": "nonpayable",
      "type": "function"
    },
    {
      "inputs": [
        {
          "components": [
            {
              "internalType": "address",
              "name": "owner",
              "type": "address"
            },
            {
              "internalType": "int24",
              "name": "tickLower",
              "type": "int24"
            },
            {
              "internalType": "int24",
              "name": "tickUpper",
              "type": "int24"
            },
            {
              "internalType": "int128",
              "name": "liquidityDelta",
              "type": "int128"
            }
          ],
          "internalType": "struct IPositionStructs.ModifyPositionParams",
          "name": "_params",
          "type": "tuple"
        }
      ],
      "name": "updatePositionPostVAMMInducedMintBurn",
      "outputs": [
        {
          "internalType": "int256",
          "name": "_positionMarginRequirement",
          "type": "int256"
        }
      ],
      "stateMutability": "nonpayable",
      "type": "function"
    },
    {
      "inputs": [
        {
          "internalType": "address",
          "name": "_owner",
          "type": "address"
        },
        {
          "internalType": "int24",
          "name": "_tickLower",
          "type": "int24"
        },
        {
          "internalType": "int24",
          "name": "_tickUpper",
          "type": "int24"
        },
        {
          "internalType": "int256",
          "name": "_fixedTokenDelta",
          "type": "int256"
        },
        {
          "internalType": "int256",
          "name": "_variableTokenDelta",
          "type": "int256"
        },
        {
          "internalType": "uint256",
          "name": "_cumulativeFeeIncurred",
          "type": "uint256"
        },
        {
          "internalType": "int256",
          "name": "_fixedTokenDeltaUnbalanced",
          "type": "int256"
        }
      ],
      "name": "updatePositionPostVAMMInducedSwap",
      "outputs": [
        {
          "internalType": "int256",
          "name": "_positionMarginRequirement",
          "type": "int256"
        }
      ],
      "stateMutability": "nonpayable",
      "type": "function"
    },
    {
      "inputs": [
        {
          "internalType": "address",
          "name": "newImplementation",
          "type": "address"
        }
      ],
      "name": "upgradeTo",
      "outputs": [],
      "stateMutability": "nonpayable",
      "type": "function"
    },
    {
      "inputs": [
        {
          "internalType": "address",
          "name": "newImplementation",
          "type": "address"
        },
        {
          "internalType": "bytes",
          "name": "data",
          "type": "bytes"
        }
      ],
      "name": "upgradeToAndCall",
      "outputs": [],
      "stateMutability": "payable",
      "type": "function"
    },
    {
      "inputs": [],
      "name": "vamm",
      "outputs": [
        {
          "internalType": "contract IVAMM",
          "name": "",
          "type": "address"
        }
      ],
      "stateMutability": "view",
      "type": "function"
    }
  ],
  "transactionHash": "0x98371b79c6631d9f2ee2dab98b430eae638b86c98ffa5d4c8d2f589ad0e46560",
  "args": [],
  "numDeployments": 1,
  "solcInputHash": "c7b7f0e1ae79cd671cc1025134bbe009",
  "bytecode": "0x60a0604052306080523480156200001557600080fd5b50606454610100900460ff16620000335760645460ff16156200003d565b6200003d620000e2565b620000a55760405162461bcd60e51b815260206004820152602e60248201527f496e697469616c697a61626c653a20636f6e747261637420697320616c72656160448201526d191e481a5b9a5d1a585b1a5e995960921b606482015260840160405180910390fd5b606454610100900460ff16158015620000c8576064805461ffff19166101011790555b8015620000db576064805461ff00191690555b5062000106565b6000620000fa306200010060201b62001f261760201c565b15905090565b3b151590565b608051615ffe62000137600039600081816109e901528181610a2901528181610ab20152610af20152615ffe6000f3fe6080604052600436106101f05760003560e01c8063a1ea6a201161010e578063d50d88111161009b578063d50d881114610555578063e087caf11461056a578063e098372c1461057f578063e3f083741461059d578063e9e441bb146105b2578063eb990c59146105d2578063efcfc3f9146105f2578063f121610514610612578063f2fde38b14610632578063f907bd6d1461065257600080fd5b8063a1ea6a2014610422578063a725b96514610442578063b5c22d4914610462578063b623f51914610482578063bfb5607d14610497578063c09617ae146104b7578063c3261892146104d7578063c45a0155146104f7578063c7607a9c14610515578063cf3c99bd1461053557600080fd5b8063715018a61161018c578063715018a614610310578063754e2a8f146103255780637717797f1461034557806386b127ee1461036557806387e163031461037c5780638da5cb5b146103985780639209e9ba146103ad57806393edb454146103da57806398f4b1b2146103ef5780639cbff1881461040d57600080fd5b80631656503e146101f557806322d23b21146102285780632495a5991461024f5780633659cfe61461026d5780634f1ef2861461028f578063534d3375146102a25780635c975abb146102c25780635f6a3e0c146102e5578063652c30b7146102fb575b600080fd5b34801561020157600080fd5b506102156102103660046154c4565b61066a565b6040519081526020015b60405180910390f35b34801561023457600080fd5b506004546001600160a01b03165b60405161021f919061550f565b34801561025b57600080fd5b506001546001600160a01b0316610242565b34801561027957600080fd5b5061028d610288366004615523565b6109de565b005b61028d61029d3660046155af565b610aa7565b3480156102ae57600080fd5b5061028d6102bd366004615523565b610b61565b3480156102ce57600080fd5b5060c95460ff16604051901515815260200161021f565b3480156102f157600080fd5b50610215610e1081565b34801561030757600080fd5b50600254610215565b34801561031c57600080fd5b5061028d610bda565b34801561033157600080fd5b5061028d610340366004615656565b610c15565b34801561035157600080fd5b5061028d610360366004615682565b610d2a565b34801561037157600080fd5b506102156212750081565b34801561038857600080fd5b50610215670429d069189e000081565b3480156103a457600080fd5b50610242610f8a565b3480156103b957600080fd5b506103cd6103c83660046154c4565b610f99565b60405161021f91906156d3565b3480156103e657600080fd5b50600354610215565b3480156103fb57600080fd5b50600c546001600160a01b0316610242565b34801561041957600080fd5b50600754610215565b34801561042e57600080fd5b5061028d61043d366004615753565b6110a0565b34801561044e57600080fd5b5061028d61045d3660046154c4565b611156565b34801561046e57600080fd5b5061028d61047d36600461576c565b611362565b34801561048e57600080fd5b50600a54610215565b3480156104a357600080fd5b506102156104b2366004615848565b611512565b3480156104c357600080fd5b506102156104d23660046158d3565b61164f565b3480156104e357600080fd5b5061028d6104f2366004615753565b611893565b34801561050357600080fd5b50600b546001600160a01b0316610242565b34801561052157600080fd5b5061028d610530366004615523565b611934565b34801561054157600080fd5b5061028d610550366004615523565b6119ad565b34801561056157600080fd5b50610215611a26565b34801561057657600080fd5b50600054610215565b34801561058b57600080fd5b506006546001600160a01b0316610242565b3480156105a957600080fd5b50610215611a53565b3480156105be57600080fd5b5061028d6105cd366004615753565b611ab6565b3480156105de57600080fd5b5061028d6105ed366004615941565b611b5b565b3480156105fe57600080fd5b5061028d61060d366004615656565b611d87565b34801561061e57600080fd5b5061021561062d366004615995565b611dec565b34801561063e57600080fd5b5061028d61064d366004615523565b611e89565b34801561065e57600080fd5b506102156312cc030081565b600061067860c95460ff1690565b1561069e5760405162461bcd60e51b8152600401610695906159f1565b60405180910390fd5b6106a9600354611f2c565b156106c7576040516314eb7aa760e21b815260040160405180910390fd5b6106d18383611f54565b60006106e06005868686612015565b90506106ef8185856000612080565b60006106fc82868661227f565b5090508061071d5760405163bf87c7d560e01b815260040160405180910390fd5b60078201546107875760008083600501541261073d57826005015461074b565b826005015461074b90615a31565b905060008360010154131561077d5761077361076d84600101546000546122a6565b826122b2565b6007840155610785565b600060078401555b505b815460009061010090046001600160801b031615610887576006548354604051631f2f089360e01b81526001600160a01b038a8116600483015260028a810b602484015289900b60448301526101009092046001600160801b03166064820152911690631f2f089390608401602060405180830381600087803b15801561080d57600080fd5b505af1158015610821573d6000803e3d6000fd5b505050506040513d601f19601f820116820180604052508101906108459190615a4e565b50825461086a906108639061010090046001600160801b0316615a67565b84906122c7565b61087a83600101546000546122a6565b6108849082615a8f565b90505b6000610895848989896123cb565b905080156108db57600081126108b8576108b38185600701546122a6565b6108ce565b6108ce6108c482615a31565b85600701546122a6565b6108d89083615a8f565b91505b8115610914576108fd6108ed8361255b565b6108f690615a31565b85906125c9565b600154610914906001600160a01b031633846125e6565b6040805133815260208101839052908101839052600287810b919089900b906001600160a01b038b16907f743fc9c78420f1cdcbbcb2ed0928d77e4a043cf392481c7e9edbf27bf7a3cea19060600160405180910390a48560020b8760020b896001600160a01b0316600080516020615f828339815191528760000160019054906101000a90046001600160801b0316886001015489600401548a600501548b600801546040516109c9959493929190615aa7565b60405180910390a450925050505b9392505050565b306001600160a01b037f0000000000000000000000000000000000000000000000000000000000000000161415610a275760405162461bcd60e51b815260040161069590615ad5565b7f00000000000000000000000000000000000000000000000000000000000000006001600160a01b0316610a5961265f565b6001600160a01b031614610a7f5760405162461bcd60e51b815260040161069590615b21565b610a888161268d565b60408051600080825260208201909252610aa4918391906126bc565b50565b306001600160a01b037f0000000000000000000000000000000000000000000000000000000000000000161415610af05760405162461bcd60e51b815260040161069590615ad5565b7f00000000000000000000000000000000000000000000000000000000000000006001600160a01b0316610b2261265f565b6001600160a01b031614610b485760405162461bcd60e51b815260040161069590615b21565b610b518261268d565b610b5d828260016126bc565b5050565b33610b6a610f8a565b6001600160a01b031614610b905760405162461bcd60e51b815260040161069590615b6d565b600480546001600160a01b0319166001600160a01b0383169081179091556040517fb637eb25e9652bee83990e0c20b043e658d22a8b4739422ebd3862bf9ff53dc590600090a250565b33610be3610f8a565b6001600160a01b031614610c095760405162461bcd60e51b815260040161069590615b6d565b610c1360006127fc565b565b60c95460ff1615610c385760405162461bcd60e51b8152600401610695906159f1565b33610c41610f8a565b6001600160a01b031614610c675760405162461bcd60e51b815260040161069590615b6d565b8015610ce357600654604051630867377160e41b8152600481018390526001600160a01b0390911690638673771090602401600060405180830381600087803b158015610cb357600080fd5b505af1158015610cc7573d6000803e3d6000fd5b5050600154610ce392506001600160a01b0316905083836125e6565b816001600160a01b03167fb78dfa45a5ff63131f1605e70c83cda5d70122e260919864eeee2ae01e3e459f3383604051610d1e929190615ba2565b60405180910390a25050565b60c95460ff1615610d4d5760405162461bcd60e51b8152600401610695906159f1565b8080610d6c57604051638acc6d7f60e01b815260040160405180910390fd5b6001600160a01b038516610da75760405162461bcd60e51b815260206004820152600260248201526104f360f41b6044820152606401610695565b610db18484611f54565b6000610dc06005878787612015565b9050610dcf8186866000612080565b6000831215610eb3576001600160a01b0386163314801590610e715750600b546040516351c4bc1f60e11b81526001600160a01b0388811660048301523360248301529091169063a389783e9060440160206040518083038186803b158015610e3757600080fd5b505afa158015610e4b573d6000803e3d6000fd5b505050506040513d601f19601f82011682018060405250810190610e6f9190615bbb565b155b15610e8f57604051637da45ce760e01b815260040160405180910390fd5b610e9981846125c9565b610ea481868661284e565b610eae86846128b1565b610ec7565b610ebd81846125c9565b610ec733846128b1565b600081600701819055508360020b8560020b876001600160a01b03167f58fda8ef9050967ebeb4f3bc6baea53d849c21755d63a2abb4507c5db1b118ec3387604051610f14929190615ba2565b60405180910390a48360020b8560020b876001600160a01b0316600080516020615f828339815191528460000160019054906101000a90046001600160801b03168560010154866004015487600501548860080154604051610f7a959493929190615aa7565b60405180910390a4505050505050565b6097546001600160a01b031690565b610ffa60405180610140016040528060001515815260200160006001600160801b0316815260200160008152602001600081526020016000815260200160008152602001600081526020016000815260200160008152602001600081525090565b60006110096005868686612015565b90506110188185856000612080565b6040805161014081018252825460ff811615158252610100908190046001600160801b031660208301526001840154928201929092526002830154606082015260038301546080820152600483015460a0820152600583015460c0820152600683015460e0820152600783015491810191909152600890910154610120820152949350505050565b336110a9610f8a565b6001600160a01b0316146110cf5760405162461bcd60e51b815260040161069590615b6d565b6312cc030081111580156110e55750610e108110155b61111a5760405162461bcd60e51b815260206004820152600660248201526526211027a7a160d11b6044820152606401610695565b60078190556040518181527f1615a39c548a63ced5cc405350ce2e18f4f50ce7d4aedb4bfb95b7e4a821a8c0906020015b60405180910390a150565b60c95460ff16156111795760405162461bcd60e51b8152600401610695906159f1565b611181612a0b565b60035411156111a3576040516301730b8160e11b815260040160405180910390fd5b6111ad8282611f54565b60006111bc6005858585612015565b90506111cb8184846000612080565b6004818101546005830154600254600354600c546040516325f258dd60e01b81529586018390526024860182905260009561126e95949392916001600160a01b0316906325f258dd90604401602060405180830381600087803b15801561123157600080fd5b505af1158015611245573d6000803e3d6000fd5b505050506040513d601f19601f820116820180604052508101906112699190615a4e565b612a16565b9050611297826004015461128190615a31565b836005015461128f90615a31565b849190612a82565b6112a182826125c9565b6112aa82612ac3565b8260020b8460020b866001600160a01b03167f970071e0d424aa8ce645bd8034df7db5eec3ce8fb9d83833a84320fb29b2c9fc846040516112ed91815260200190565b60405180910390a48260020b8460020b866001600160a01b0316600080516020615f828339815191528560000160019054906101000a90046001600160801b03168660010154876004015488600501548960080154604051611353959493929190615aa7565b60405180910390a45050505050565b3361136b610f8a565b6001600160a01b0316146113915760405162461bcd60e51b815260040161069590615b6d565b8051600d9081556020820151600e55604080830151600f556060830151601055608083015160115560a083015160125560c083015160135560e08301516014556101008301516015556101208301516016556101408301516017556101608301516018556101808301516019556101a0830151601a556101c0830151601b556101e0830151601c55610200830151601d55610220830151601e55517f96fef58d97876707a1bd5650c97ca391d5558a8c30e1c96363c89486cb9aa8c29161114b918154815260018201546020820152600282015460408201526003820154606082015260048201546080820152600582015460a0820152600682015460c0820152600782015460e082015260088201546101008201526009820154610120820152600a820154610140820152600b820154610160820152600c820154610180820152600d8201546101a0820152600e8201546101c0820152600f8201546101e082015260108201546102008201526011909101546102208201526102400190565b600061152060c95460ff1690565b1561153d5760405162461bcd60e51b8152600401610695906159f1565b6006546001600160a01b0316331461156857604051633dec6c6960e11b815260040160405180910390fd5b81516020830151604084015160009261158392600592612015565b905061159a81846020015185604001516001612080565b60608301516115aa9082906122c7565b60008360600151600f0b13156115d0576115cd8184602001518560400151612b14565b91505b60006007820155826040015160020b836020015160020b84600001516001600160a01b0316600080516020615f828339815191528460000160019054906101000a90046001600160801b03168560010154866004015487600501548860080154604051611641959493929190615aa7565b60405180910390a450919050565b600061165d60c95460ff1690565b1561167a5760405162461bcd60e51b8152600401610695906159f1565b6006546001600160a01b031633146116a557604051633dec6c6960e11b815260040160405180910390fd5b60006116b460058a8a8a612015565b90506116c38189896000612080565b60008082600501541380156116d85750600086125b806116f25750600082600501541280156116f25750600086135b90508415611716576117166117068661255b565b61170f90615a31565b83906125c9565b611721828888612a82565b611736611731838b8b6000612b4f565b61255b565b9250816001015483138015611749575080155b1561181657600654604080516320283ddb60e21b815290516000926001600160a01b0316916380a0f76c916004808301926060929190829003018186803b15801561179357600080fd5b505afa1580156117a7573d6000803e3d6000fd5b505050506040513d601f19601f820116820180604052508101906117cb9190615bd8565b60208101516040516343f2832160e01b81526004810187905260029190910b6024820152604481018a9052606481018990526084810188905260a4810187905290915060c401610695565b600082600701819055508760020b8960020b8b6001600160a01b0316600080516020615f828339815191528560000160019054906101000a90046001600160801b0316866001015487600401548860050154896008015460405161187e959493929190615aa7565b60405180910390a45050979650505050505050565b3361189c610f8a565b6001600160a01b0316146118c25760405162461bcd60e51b815260040161069590615b6d565b621275008111156118ff5760405162461bcd60e51b815260206004820152600760248201526621a6a09027a7a160c91b6044820152606401610695565b600a8190556040518181527f03f78e38097f23422a330825158a9cf778080b032c154a45063464b46a328f959060200161114b565b3361193d610f8a565b6001600160a01b0316146119635760405162461bcd60e51b815260040161069590615b6d565b600680546001600160a01b0319166001600160a01b0383169081179091556040517f8bd432982306c1f9ddd987c98d3842200f8aa7668b030cbdea0a45fd31f5d69c90600090a250565b336119b6610f8a565b6001600160a01b0316146119dc5760405162461bcd60e51b815260040161069590615b6d565b600c80546001600160a01b0319166001600160a01b0383169081179091556040517fbdf78832ed83738bb07ebf2c5671aa6b81e05ca40d52cbdf5cc9f327829a3d7090600090a250565b6000600a5460095442611a399190615c4f565b1115611a4c57611a47612f05565b905090565b5060085490565b6000600a5460095442611a669190615c4f565b1115611a4c57611a74612f9e565b7fa54badf52ad5c1729ee2a0e934e6b23e9a3a037d7a761ccd78b01a8db4bf3f14600854604051611aa791815260200190565b60405180910390a15060085490565b33611abf610f8a565b6001600160a01b031614611ae55760405162461bcd60e51b815260040161069590615b6d565b670429d069189e0000811115611b265760405162461bcd60e51b815260206004820152600660248201526526291027a7a160d11b6044820152606401610695565b60008190556040518181527f7c1f79218de766d3f02f194836ae0d52b5b8a3fb34f3d76795d9fe9050fc2ea99060200161114b565b606454610100900460ff16611b765760645460ff1615611b7a565b303b155b611bdd5760405162461bcd60e51b815260206004820152602e60248201527f496e697469616c697a61626c653a20636f6e747261637420697320616c72656160448201526d191e481a5b9a5d1a585b1a5e995960921b6064820152608401610695565b606454610100900460ff16158015611bff576064805461ffff19166101011790555b6001600160a01b038516611c3a5760405162461bcd60e51b8152602060048201526002602482015261155560f21b6044820152606401610695565b6001600160a01b038416611c755760405162461bcd60e51b8152602060048201526002602482015261524f60f01b6044820152606401610695565b82611ca75760405162461bcd60e51b8152602060048201526002602482015261545360f01b6044820152606401610695565b81611cd95760405162461bcd60e51b8152602060048201526002602482015261544560f01b6044820152606401610695565b828211611d115760405162461bcd60e51b815260206004820152600660248201526554453c3d545360d01b6044820152606401610695565b600180546001600160a01b038088166001600160a01b03199283161790925560028590556003849055600c805492871692821692909217909155600b805490911633179055611d5e612faf565b611d66612fe6565b611d6e61301d565b8015611d80576064805461ff00191690555b5050505050565b60c95460ff1615611daa5760405162461bcd60e51b8152600401610695906159f1565b6004546001600160a01b03163314611dd557604051635d8a367560e01b815260040160405180910390fd5b600154610b5d906001600160a01b031683836125e6565b600080611dfc6005878787612015565b9050611e0b8186866000612080565b8360020b8560020b876001600160a01b0316600080516020615f828339815191528460000160019054906101000a90046001600160801b03168560010154866004015487600501548860080154604051611e69959493929190615aa7565b60405180910390a4611e7d81868686612b4f565b9150505b949350505050565b33611e92610f8a565b6001600160a01b031614611eb85760405162461bcd60e51b815260040161069590615b6d565b6001600160a01b038116611f1d5760405162461bcd60e51b815260206004820152602660248201527f4f776e61626c653a206e6577206f776e657220697320746865207a65726f206160448201526564647265737360d01b6064820152608401610695565b610aa4816127fc565b3b151590565b60008169124bc0ddd92e56000000611f42612a0b565b611f4c9190615a8f565b101592915050565b8060020b8260020b12611f8f5760405162461bcd60e51b8152602060048201526003602482015262544c5560e81b6044820152606401610695565b62010deb19600283900b1215611fcd5760405162461bcd60e51b8152602060048201526003602482015262544c4d60e81b6044820152606401610695565b611fda62010deb19615c66565b60020b8160020b1315610b5d5760405162461bcd60e51b815260206004820152600360248201526254554d60e81b6044820152606401610695565b60006120218383611f54565b6040516001600160601b0319606086901b16602082015260e884811b603483015283901b60378201528590600090603a016040516020818303038152906040528051906020012081526020019081526020016000209050949350505050565b835461010090046001600160801b0316156121d157600654604051631e47919f60e11b8152600285810b600483015284900b6024820152600091829182916001600160a01b031690633c8f233e9060440160606040518083038186803b1580156120e957600080fd5b505afa1580156120fd573d6000803e3d6000fd5b505050506040513d601f19601f820116820180604052508101906121219190615c80565b91945092509050600080612136898686613054565b909250905060006121478a85613144565b905061216a612157600185615cae565b612162600185615cae565b8c9190612a82565b60028a0186905560038a0185905580156121c157612189600182615c4f565b8a600801600082825461219c9190615a8f565b909155506121c1905060016121b08361255b565b6121ba9190615cae565b8b906125c9565b5050506006870155506122799050565b801561227957600654604051631e47919f60e11b8152600285810b600483015284900b6024820152600091829182916001600160a01b031690633c8f233e9060440160606040518083038186803b15801561222b57600080fd5b505afa15801561223f573d6000803e3d6000fd5b505050506040513d601f19601f820116820180604052508101906122639190615c80565b60028a0192909255600389015560068801555050505b50505050565b60008060006122946117318787876001612b4f565b60019690960154861396945050505050565b60006109d783836131db565b60006109d783670de0b6b3a76400008461329e565b6040805161014081018252835460ff8116151582526001600160801b03610100918290041660208301526001850154928201929092526002840154606082015260038401546080820152600484015460a0820152600584015460c0820152600684015460e08201526007840154918101919091526008830154610120820152600f82900b61239657600081602001516001600160801b0316116123915760405162461bcd60e51b815260206004820152600260248201526104e560f41b6044820152606401610695565b505050565b6123a481602001518361336c565b83546001600160801b039190911661010002610100600160881b0319909116178355505050565b60006123d78383611f54565b600585015415611e8157600080600080886005015412905060006040518060a00160405280896001600160a01b031681526020018a600501548152602001836124375761243260016c1fa71f3f5f68a90479ee3f8fec615ced565b61244e565b61244e6b0816769404766de590afe04e6001615d15565b6001600160a01b03908116825260028a810b6020808501919091528a820b60409485015260065484516333bac73760e11b815286518516600482015291860151602483015293850151831660448201526060850151820b6064820152608085015190910b608482015292935016906367758e6e9060a40160a060405180830381600087803b1580156124df57600080fd5b505af11580156124f3573d6000803e3d6000fd5b505050506040513d601f19601f820116820180604052508101906125179190615d40565b50919750919550909350508215612544576125446125348461255b565b61253d90615a31565b8a906125c9565b61254f898587612a82565b50505050949350505050565b60006001600160ff1b038211156125c55760405162461bcd60e51b815260206004820152602860248201527f53616665436173743a2076616c756520646f65736e27742066697420696e2061604482015267371034b73a191a9b60c11b6064820152608401610695565b5090565b808260010160008282546125dd9190615d80565b90915550505050565b600060405163a9059cbb60e01b81526001600160a01b03841660048201528260248201526000806044836000895af19150506126218161339a565b6122795760405162461bcd60e51b815260206004820152600f60248201526e1514905394d1915497d19052531151608a1b6044820152606401610695565b7f360894a13ba1a3210667c828492db98dca3e2076cc3735a920a3ca505d382bbc546001600160a01b031690565b33612696610f8a565b6001600160a01b031614610aa45760405162461bcd60e51b815260040161069590615b6d565b60006126c661265f565b90506126d1846133e1565b6000835111806126de5750815b156126ef576126ed8484613486565b505b7f4910fdfa16fed3260ed0e7147f7cc6da11a60208b5b9406d12a635614ffd9143805460ff16611d8057805460ff1916600117815560405161276a90869061273b90859060240161550f565b60408051601f198184030181529190526020810180516001600160e01b0316631b2ce7f360e11b179052613486565b50805460ff1916815561277b61265f565b6001600160a01b0316826001600160a01b0316146127f35760405162461bcd60e51b815260206004820152602f60248201527f45524331393637557067726164653a207570677261646520627265616b73206660448201526e75727468657220757067726164657360881b6064820152608401610695565b611d8085613571565b609780546001600160a01b038381166001600160a01b0319831681179093556040519116919082907f8be0079c531659141344cd1fd0a4f28419497f9722a3daafe3b4186f6b6457e090600090a35050565b600354612859612a0b565b106128a657825460ff166128805760405163169b07f760e21b815260040160405180910390fd5b60008360010154121561239157604051630a5f871f60e21b815260040160405180910390fd5b612279838383612b14565b60008113156128d257600154610b5d906001600160a01b03168330846135b1565b6001546040516370a0823160e01b81526000916001600160a01b0316906370a082319061290390309060040161550f565b60206040518083038186803b15801561291b57600080fd5b505afa15801561292f573d6000803e3d6000fd5b505050506040513d601f19601f820116820180604052508101906129539190615a4e565b90506000829003818111156129f457811561298c576129728282615c4f565b60015490915061298c906001600160a01b031685846125e6565b600480546040516318399f4d60e31b81526001600160a01b039091169163c1ccfa68916129bd918891869101615ba2565b600060405180830381600087803b1580156129d757600080fd5b505af11580156129eb573d6000803e3d6000fd5b50505050612279565b600154612279906001600160a01b031685836125e6565b6000611a474261363e565b600080612a228761368b565b90506000612a2f8761368b565b90506000612a49612a4260018989613708565b84906137c9565b90506000612a5783876137c9565b90506000612a658284615d80565b9050670de0b6b3a764000081055b9b9a5050505050505050505050565b818117156123915781836004016000828254612a9e9190615d80565b9250508190555080836005016000828254612ab99190615d80565b9091555050505050565b805460ff1615612b075760405162461bcd60e51b815260206004820152600f60248201526e185b1c9958591e481cd95d1d1b1959608a1b6044820152606401610695565b805460ff19166001179055565b6000612b266117318585856000612b4f565b9050808460010154136109d757604051631ad3ffc960e21b815260048101829052602401610695565b6000612b5b8484611f54565b600654604080516320283ddb60e21b815290516000926001600160a01b0316916380a0f76c916004808301926060929190829003018186803b158015612ba057600080fd5b505afa158015612bb4573d6000803e3d6000fd5b505050506040513d601f19601f82011682018060405250810190612bd89190615bd8565b80516020820151600c546002546003546040516325f258dd60e01b815260048101929092526024820152939450919290916000916001600160a01b03909116906325f258dd90604401602060405180830381600087803b158015612c3b57600080fd5b505af1158015612c4f573d6000803e3d6000fd5b505050506040513d601f19601f82011682018060405250810190612c739190615a4e565b895490915061010090046001600160801b031615612ee657612ce06040518060e00160405280600060020b8152602001600081526020016000815260200160006001600160a01b03168152602001600081526020016000815260200160006001600160a01b031681525090565b8860020b8360020b12612d06578760020b8360020b12612d005787612d08565b82612d08565b885b600290810b825260009081908a810b9086900b1215612d465782518c54612d4091908c9061010090046001600160801b03168761388e565b90925090505b808c60050154612d569190615d80565b602084015260048c0154612d6b908390615d80565b604084015260028b810b9086900b1315612da85782518c54612d9e91908d9061010090046001600160801b03168761388e565b9092509050612daf565b5060009050805b808c60050154612dbf9190615d80565b608084015260048c0154612dd4908390615d80565b60a08401526000612de48c61393a565b90506000612df18c61393a565b9050816001600160a01b0316886001600160a01b031610612e125781612e14565b875b9150806001600160a01b0316886001600160a01b031611612e355780612e37565b875b90506000856020015113612e4b5781612e4d565b805b6001600160a01b031660608601526080850151600012612e6d5781612e6f565b805b6001600160a01b031660c0860152604085015160208601516060870151600092612e9c9290918f90613cc7565b90506000612eb88760a0015188608001518f8a60c00151613cc7565b905080821115612ed457509950611e8198505050505050505050565b9a50611e819950505050505050505050565b612efa89600401548a600501548886613cc7565b945050505050611e81565b60008060075442612f169190615c4f565b600c546040516393556dbd60e01b8152600481018390524260248201529192506000916001600160a01b03909116906393556dbd9060440160206040518083038186803b158015612f6657600080fd5b505afa158015612f7a573d6000803e3d6000fd5b505050506040513d601f19601f820116820180604052508101906109d79190615a4e565b612fa6612f05565b60085542600955565b606454610100900460ff16612fd65760405162461bcd60e51b815260040161069590615dc1565b612fde613cfb565b610c13613d22565b606454610100900460ff1661300d5760405162461bcd60e51b815260040161069590615dc1565b613015613cfb565b610c13613d52565b606454610100900460ff166130445760405162461bcd60e51b815260040161069590615dc1565b61304c613cfb565b610c13613cfb565b6040805161014081018252845460ff8116151582526001600160801b036101009182900416602083015260018601549282019290925260028501546060820181905260038601546080830152600486015460a0830152600586015460c0830152600686015460e0830152600786015492820192909252600885015461012082015260009182919082906130e79087615cae565b90506131058183602001516001600160801b0316600160801b613d85565b935060008260800151866131199190615cae565b90506131378184602001516001600160801b0316600160801b613d85565b9350505050935093915050565b6040805161014081018252835460ff8116151582526001600160801b036101009182900416602083018190526001860154938301939093526002850154606083015260038501546080830152600485015460a0830152600585015460c0830152600685015460e083018190526007860154918301919091526008850154610120830152600092611e8191850390600160801b613db9565b60008080600019848609848602925082811083820303915050670de0b6b3a7640000811061321f5760405163698d9a0160e11b815260048101829052602401610695565b600080670de0b6b3a76400008688099150506706f05b59d3b1ffff8111826132595780670de0b6b3a7640000850401945050505050613298565b620400008285030493909111909103600160ee1b02919091177faccb18165bd6fe31ae1cf318dc5b51eee0e1ba569b88cd74c1773b91fac10669020190505b92915050565b6000808060001985870985870292508281108382030391505080600014156132d9578382816132cf576132cf615e0c565b04925050506109d7565b83811061330357604051631dcf306360e21b81526004810182905260248101859052604401610695565b60008486880960026001871981018816978890046003810283188082028403028082028403028082028403028082028403028082028403029081029092039091026000889003889004909101858311909403939093029303949094049190911702949350505050565b60008082600f0b12156133905760008290036133888185615e22565b915050613298565b6109d78284615e42565b60003d826133ac57806000803e806000fd5b80602081146133c45780156133d557600092506133da565b816000803e600051151592506133da565b600192505b5050919050565b803b6134455760405162461bcd60e51b815260206004820152602d60248201527f455243313936373a206e657720696d706c656d656e746174696f6e206973206e60448201526c1bdd08184818dbdb9d1c9858dd609a1b6064820152608401610695565b7f360894a13ba1a3210667c828492db98dca3e2076cc3735a920a3ca505d382bbc80546001600160a01b0319166001600160a01b0392909216919091179055565b6060823b6134e55760405162461bcd60e51b815260206004820152602660248201527f416464726573733a2064656c65676174652063616c6c20746f206e6f6e2d636f6044820152651b9d1c9858dd60d21b6064820152608401610695565b600080846001600160a01b0316846040516135009190615e90565b600060405180830381855af49150503d806000811461353b576040519150601f19603f3d011682016040523d82523d6000602084013e613540565b606091505b50915091506135688282604051806060016040528060278152602001615fa260279139613e48565b95945050505050565b61357a816133e1565b6040516001600160a01b038216907fbc7cd75a20ee27fd9adebab32041f755214dbc6bffa90cc0225b39da2e5c2d3b90600090a250565b60006040516323b872dd60e01b81526001600160a01b03851660048201526001600160a01b038416602482015282604482015260008060648360008a5af19150506135fb8161339a565b611d805760405162461bcd60e51b81526020600482015260146024820152731514905394d1915497d19493d357d1905253115160621b6044820152606401610695565b60007812725dd1d243aba0e75fe645cc4873f9e65afe688c928e1f2182111561367d57604051633492ffd960e01b815260048101839052602401610695565b50670de0b6b3a76400000290565b60007809392ee8e921d5d073aff322e62439fcf32d7f344649470f8f198212156136cb5760405163e608e18b60e01b815260048101839052602401610695565b7809392ee8e921d5d073aff322e62439fcf32d7f344649470f9082131561367d576040516371f72a3160e01b815260048101839052602401610695565b60008282116137295760405162461bcd60e51b815260040161069590615eac565b6000613733612a0b565b90508381101561376d5760405162461bcd60e51b8152602060048201526005602482015264422e543c5360d81b6044820152606401610695565b6000858061377b5750838210155b156137915761378a8585615c4f565b905061379e565b61379b8583615c4f565b90505b60006137a982613e81565b90506137be8168056bc75e2d631000006122b2565b979650505050505050565b6000600160ff1b8314806137e05750600160ff1b82145b156137fe57604051630d01a11b60e21b815260040160405180910390fd5b6000806000851261380f5784613814565b846000035b9150600084126138245783613829565b836000035b9050600061383783836131db565b90506001600160ff1b038111156138645760405163bf79e8d960e01b815260048101829052602401610695565b60001980871390861380821860011461387d5782613882565b826000035b98975050505050505050565b6000808460020b8660020b14156138aa57506000905080613931565b60006138b58761393a565b905060006138c28761393a565b905060006138ec83838a60020b8c60020b126138de5789613e98565b6138e78a615a67565b613e98565b9050600061391684848b60020b8d60020b126139105761390b8b615a67565b613edf565b8a613edf565b9050613929828289600254600354613f13565b955093505050505b94509492505050565b60008060008360020b12613951578260020b61395e565b8260020b61395e90615a31565b905061396d62010deb19615c66565b60020b8111156139a35760405162461bcd60e51b81526020600482015260016024820152601560fa1b6044820152606401610695565b6000600182166139b757600160801b6139c9565b6ffffcb933bd6fad37aa2d162d1a5940015b6001600160881b0316905060028216156139fe5760806139f9826ffff97272373d413259a46990580e213a615eca565b901c90505b6004821615613a28576080613a23826ffff2e50f5f656932ef12357cf3c7fdcc615eca565b901c90505b6008821615613a52576080613a4d826fffe5caca7e10e4e61c3624eaa0941cd0615eca565b901c90505b6010821615613a7c576080613a77826fffcb9843d60f6159c9db58835c926644615eca565b901c90505b6020821615613aa6576080613aa1826fff973b41fa98c081472e6896dfb254c0615eca565b901c90505b6040821615613ad0576080613acb826fff2ea16466c96a3843ec78b326b52861615eca565b901c90505b6080821615613afa576080613af5826ffe5dee046a99a2a811c461f1969c3053615eca565b901c90505b610100821615613b25576080613b20826ffcbe86c7900a88aedcffc83b479aa3a4615eca565b901c90505b610200821615613b50576080613b4b826ff987a7253ac413176f2b074cf7815e54615eca565b901c90505b610400821615613b7b576080613b76826ff3392b0822b70005940c7a398e4b70f3615eca565b901c90505b610800821615613ba6576080613ba1826fe7159475a2c29b7443b29c7fa6e889d9615eca565b901c90505b611000821615613bd1576080613bcc826fd097f3bdfd2022b8845ad8f792aa5825615eca565b901c90505b612000821615613bfc576080613bf7826fa9f746462d870fdf8a65dc1f90e061e5615eca565b901c90505b614000821615613c27576080613c22826f70d869a156d2a1b890bb3df62baf32f7615eca565b901c90505b618000821615613c52576080613c4d826f31be135f97d08fd981231505542fcfa6615eca565b901c90505b62010000821615613c7e576080613c79826f09aa508b5b7a84e1c677de54f3e99bc9615eca565b901c90505b60008460020b1315613c9957613c9681600019615ee9565b90505b613ca7600160201b82615efd565b15613cb3576001613cb6565b60005b611e819060ff16602083901c615a8f565b6000613cd4858585613f9f565b90506000613ce48686868661412e565b905080821015613cf2578091505b50949350505050565b606454610100900460ff16610c135760405162461bcd60e51b815260040161069590615dc1565b606454610100900460ff16613d495760405162461bcd60e51b815260040161069590615dc1565b610c13336127fc565b606454610100900460ff16613d795760405162461bcd60e51b815260040161069590615dc1565b60c9805460ff19169055565b600080841215613db257613da2613d9b85615a31565b8484613db9565b613dab90615a31565b90506109d7565b611e818484845b600080806000198587098587029250828110838203039150508060001415613e295760008411613e1e5760405162461bcd60e51b815260206004820152601060248201526f4469766973696f6e206279207a65726f60801b6044820152606401610695565b5082900490506109d7565b8084116133035760405162461bcd60e51b815260040161069590615f11565b60608315613e575750816109d7565b825115613e675782518084602001fd5b8160405162461bcd60e51b81526004016106959190615f33565b6000613298826a1a1601fc4ea7109e0000006122b2565b60008082600f0b12613ebe57613eb9613eb485858560016142d8565b6143d4565b611e81565b613ed6613eb48585613ecf86615a67565b60006142d8565b611e8190615a31565b60008082600f0b12613efb57613eb9613eb48585856001614420565b613ed6613eb48585613f0c86615a67565b6000614420565b6000828211613f345760405162461bcd60e51b815260040161069590615eac565b85158015613f40575084155b15613f4d57506000613568565b6000613f588761368b565b90506000613f658761368b565b90506000613f768383898989614490565b90506000613f86848389896144d1565b670de0b6b3a764000090059a9950505050505050505050565b6000808412158015613fb2575060008312155b15613fbf575060006109d7565b6000613fca8561368b565b90506000613fd78561368b565b90506000600254600354613feb9190615c4f565b9050600061400b846140066117316001600254600354613708565b6137c9565b9050600087156140e4576140e1846140066117318660035461402b612a0b565b60008f128e614038611a53565b6040805161024081018252600d548152600e546020820152600f54918101919091526010546060820152601154608082015260125460a082015260135460c082015260145460e0820152601554610100820152601654610120820152601754610140820152601854610160820152601954610180820152601a546101a0820152601b546101c0820152601c546101e0820152601d54610200820152601e54610220820152614512565b90505b60006140f08284615d80565b9050600081121561411c5761411561410782615a31565b670de0b6b3a7640000900490565b9650614121565b600096505b5050505050509392505050565b60008361413d57506000611e81565b6000806000806000808913156141915760008a131561416457600095505050505050611e81565b871561417a576015546019549094509250614186565b601754601b5490945092505b5087905060016141bf565b87156141a757601654601a5490945092506141b3565b601854601c5490945092505b6141bc89615a31565b91505b6141e0611731838987876003546141d4612a0b565b601454601d548a614569565b9450600061429a826141fa576141f587615a31565b6141fc565b865b6142058c615a31565b600c546002546003546040516325f258dd60e01b8152600481019290925260248201526001600160a01b03909116906325f258dd90604401602060405180830381600087803b15801561425757600080fd5b505af115801561426b573d6000803e3d6000fd5b505050506040513d601f19601f8201168201806040525081019061428f9190615a4e565b600254600354613f13565b905060006142a8828d615d80565b90506142b68160008c613f9f565b601e549098508810156142c957601e5497505b50505050505050949350505050565b6000836001600160a01b0316856001600160a01b031611156142f8579293925b600160601b600160e01b03606084901b1660006143158787615ced565b6001600160a01b031690506000876001600160a01b0316116143725760405162461bcd60e51b8152602060048201526016602482015275073717274207072696365206d757374206265203e20360541b6044820152606401610695565b836143a857866001600160a01b03166143958383896001600160a01b0316613db9565b816143a2576143a2615e0c565b046137be565b6137be6143bf8383896001600160a01b031661472b565b886001600160a01b0316808204910615150190565b6000600160ff1b82106125c55760405162461bcd60e51b815260206004820152601460248201527337bb32b9333637bb9034b7103a37a4b73a191a9b60611b6044820152606401610695565b6000836001600160a01b0316856001600160a01b03161115614440579293925b8161446d57614468836001600160801b03168686036001600160a01b0316600160601b613db9565b613568565b613568836001600160801b03168686036001600160a01b0316600160601b61472b565b6000806000806144ac6144a560008888613708565b8a906137c9565b92506144b888886137c9565b91506144c48284615d80565b9998505050505050505050565b60008282116144f25760405162461bcd60e51b815260040161069590615eac565b61450861450160018585613708565b859061477e565b6135689086615cae565b60008061451e89613e81565b9050614537816145318a8a888b89614844565b906122a6565b91508461455d5761455a86614550578360200151614553565b83515b83906122a6565b91505b50979650505050505050565b60006145ba6040518061012001604052806000815260200160008152602001600081526020016000815260200160008152602001600081526020016000815260200160008152602001600081525090565b6145da670de0b6b3a76400008b6001600160a01b0316600160601b613db9565b8082526145fa906145eb90806122a6565b670de0b6b3a7640000906122b2565b6020820181905261460b908a6122a6565b6040820181905288111561462157604081018890525b6146358561462f888a615c4f565b906122b2565b60608201526146626146468561255b565b61464f90615a31565b61465c836060015161255b565b906137c9565b6080820181905261467290614a0e565b61468490670de0b6b3a7640000615cae565b60a082018190526146a39061469890614a7e565b6040830151906122a6565b60c082015282156146e8578060c00151816020015111156146dc578060c0015181602001516146d29190615c4f565b60e0820152614702565b600060e0820152614702565b8060c0015181602001516146fc9190615a8f565b60e08201525b6147138160e001516145318d61363e565b6101008201819052670de0b6b3a76400009004612a73565b6000614738848484613db9565b90506000828061474a5761474a615e0c565b84860911156109d75760001981106147745760405162461bcd60e51b815260040161069590615f11565b8061356881615f66565b6000600160ff1b8314806147955750600160ff1b82145b156147b35760405163b3c754a360e01b815260040160405180910390fd5b600080600085126147c457846147c9565b846000035b9150600084126147d957836147de565b836000035b905060006147f583670de0b6b3a76400008461329e565b90506001600160ff1b0381111561482257604051637cb4bef560e01b815260048101829052602401610695565b60001980871390861380821860011461483b5782613882565b61388283615a31565b60006148956040518061012001604052806000815260200160008152602001600081526020016000815260200160008152602001600081526020016000815260200160008152602001600081525090565b60808301516060840151600291821b911b6148b1898987614ad0565b8084526148c690670de0b6b3a7640000615cae565b602084015260408501516148db90829061477e565b83604001818152505061490982614903856020015188604001516137c990919063ffffffff16565b9061477e565b6060840152825161492190889061465c9085906137c9565b608084015260208301516040860151614939916137c9565b60a08401819052608084015161494e9161477e565b60c0840181905260408401516001916149699190831b615d80565b901b60e084015261499586614982578560c00151614988565b8560a001515b61465c8560e00151614b78565b61010084015260006149e9876149b9578461010001516149b490615a31565b6149c0565b8461010001515b8560c0015186604001516149d49190615d80565b6149de9190615d80565b6060860151906137c9565b905060008112156149fd5760009450614a01565b8094505b5050505095945050505050565b600068023f2fa8f6da5b9d3119821215614a2a57506000919050565b680736ea4425c11ac6318212614a56576040516399bb754160e01b815260048101839052602401610695565b6714057b7ef767814f82026109d7670de0b6b3a76400006706f05b59d3b20000830105614bee565b6000808212156125c55760405162461bcd60e51b815260206004820181905260248201527f53616665436173743a2076616c7565206d75737420626520706f7369746976656044820152606401610695565b600083831115614b0a5760405162461bcd60e51b815260206004820152600560248201526410d50f115560da1b6044820152606401610695565b608082015180614b415760405162461bcd60e51b8152602060048201526002602482015261042360f41b6044820152606401610695565b60e08301516000614b5682614903888a615cae565b90506000614b6d614b6685615a31565b83906137c9565b905061388281614a0e565b600080821215614b9e5760405163608c83ff60e11b815260048101839052602401610695565b7809392ee8e921d5d073aff322e62439fcf32d7f344649470f90821315614bdb57604051632c482c3960e01b815260048101839052602401610695565b613298670de0b6b3a76400008302614c86565b600080821215614c425768033dd1780914b9711419821215614c1257506000919050565b614c1e82600003614bee565b6ec097ce7bc90715b34b9f100000000081614c3b57614c3b615e0c565b0592915050565b680a688906bd8b0000008212614c6e5760405163e69458f960e01b815260048101839052602401610695565b670de0b6b3a7640000604083901b046109d781614df1565b600081614c9557506000919050565b50600181600160801b8110614caf5760409190911b9060801c5b600160401b8110614cc55760209190911b9060401c5b600160201b8110614cdb5760109190911b9060201c5b620100008110614cf05760089190911b9060101c5b6101008110614d045760049190911b9060081c5b60108110614d175760029190911b9060041c5b60088110614d2757600182901b91505b6001828481614d3857614d38615e0c565b048301901c91506001828481614d5057614d50615e0c565b048301901c91506001828481614d6857614d68615e0c565b048301901c91506001828481614d8057614d80615e0c565b048301901c91506001828481614d9857614d98615e0c565b048301901c91506001828481614db057614db0615e0c565b048301901c91506001828481614dc857614dc8615e0c565b048301901c91506000828481614de057614de0615e0c565b049050808310156109d75782611e81565b600160bf1b6001603f1b821615614e115768016a09e667f3bcc9090260401c5b6001603e1b821615614e2c576801306fe0a31b7152df0260401c5b6001603d1b821615614e47576801172b83c7d517adce0260401c5b6001603c1b821615614e625768010b5586cf9890f62a0260401c5b6001603b1b821615614e7d576801059b0d31585743ae0260401c5b6001603a1b821615614e9857680102c9a3e778060ee70260401c5b600160391b821615614eb35768010163da9fb33356d80260401c5b600160381b821615614ece57680100b1afa5abcbed610260401c5b600160371b821615614ee95768010058c86da1c09ea20260401c5b600160361b821615614f04576801002c605e2e8cec500260401c5b600160351b821615614f1f57680100162f3904051fa10260401c5b600160341b821615614f3a576801000b175effdc76ba0260401c5b600160331b821615614f5557680100058ba01fb9f96d0260401c5b600160321b821615614f705768010002c5cc37da94920260401c5b600160311b821615614f8b576801000162e525ee05470260401c5b600160301b821615614fa65768010000b17255775c040260401c5b6001602f1b821615614fc1576801000058b91b5bc9ae0260401c5b6001602e1b821615614fdc57680100002c5c89d5ec6d0260401c5b6001602d1b821615614ff75768010000162e43f4f8310260401c5b6001602c1b82161561501257680100000b1721bcfc9a0260401c5b6001602b1b82161561502d5768010000058b90cf1e6e0260401c5b6001602a1b821615615048576801000002c5c863b73f0260401c5b600160291b82161561506357680100000162e430e5a20260401c5b600160281b82161561507e576801000000b1721835510260401c5b64800000000082161561509a57680100000058b90c0b490260401c5b6440000000008216156150b65768010000002c5c8601cc0260401c5b6420000000008216156150d2576801000000162e42fff00260401c5b6410000000008216156150ee5768010000000b17217fbb0260401c5b64080000000082161561510a576801000000058b90bfce0260401c5b64040000000082161561512657680100000002c5c85fe30260401c5b6402000000008216156151425768010000000162e42ff10260401c5b600160201b82161561515d57680100000000b17217f80260401c5b63800000008216156151785768010000000058b90bfc0260401c5b6340000000821615615193576801000000002c5c85fe0260401c5b63200000008216156151ae57680100000000162e42ff0260401c5b63100000008216156151c9576801000000000b17217f0260401c5b63080000008216156151e457680100000000058b90c00260401c5b63040000008216156151ff5768010000000002c5c8600260401c5b630200000082161561521a576801000000000162e4300260401c5b63010000008216156152355768010000000000b172180260401c5b6280000082161561524f576801000000000058b90c0260401c5b6240000082161561526957680100000000002c5c860260401c5b622000008216156152835768010000000000162e430260401c5b6210000082161561529d57680100000000000b17210260401c5b620800008216156152b75768010000000000058b910260401c5b620400008216156152d1576801000000000002c5c80260401c5b620200008216156152eb57680100000000000162e40260401c5b62010000821615615305576801000000000000b1720260401c5b61800082161561531e57680100000000000058b90260401c5b6140008216156153375768010000000000002c5d0260401c5b612000821615615350576801000000000000162e0260401c5b6110008216156153695768010000000000000b170260401c5b610800821615615382576801000000000000058c0260401c5b61040082161561539b57680100000000000002c60260401c5b6102008216156153b457680100000000000001630260401c5b6101008216156153cd57680100000000000000b10260401c5b60808216156153e557680100000000000000590260401c5b60408216156153fd576801000000000000002c0260401c5b602082161561541557680100000000000000160260401c5b601082161561542d576801000000000000000b0260401c5b600882161561544557680100000000000000060260401c5b600482161561545d57680100000000000000030260401c5b6002821615615473576001600160401b010260401c5b6001821615615489576001600160401b010260401c5b670de0b6b3a76400000260409190911c60bf031c90565b6001600160a01b0381168114610aa457600080fd5b8060020b8114610aa457600080fd5b6000806000606084860312156154d957600080fd5b83356154e4816154a0565b925060208401356154f4816154b5565b91506040840135615504816154b5565b809150509250925092565b6001600160a01b0391909116815260200190565b60006020828403121561553557600080fd5b81356109d7816154a0565b634e487b7160e01b600052604160045260246000fd5b60405161024081016001600160401b038111828210171561557957615579615540565b60405290565b604051601f8201601f191681016001600160401b03811182821017156155a7576155a7615540565b604052919050565b600080604083850312156155c257600080fd5b82356155cd816154a0565b91506020838101356001600160401b03808211156155ea57600080fd5b818601915086601f8301126155fe57600080fd5b81358181111561561057615610615540565b615622601f8201601f1916850161557f565b9150808252878482850101111561563857600080fd5b80848401858401376000848284010152508093505050509250929050565b6000806040838503121561566957600080fd5b8235615674816154a0565b946020939093013593505050565b6000806000806080858703121561569857600080fd5b84356156a3816154a0565b935060208501356156b3816154b5565b925060408501356156c3816154b5565b9396929550929360600135925050565b815115158152610140810160208301516156f860208401826001600160801b03169052565b5060408301516040830152606083015160608301526080830151608083015260a083015160a083015260c083015160c083015260e083015160e083015261010080840151818401525061012080840151818401525092915050565b60006020828403121561576557600080fd5b5035919050565b6000610240828403121561577f57600080fd5b615787615556565b823581526020808401359082015260408084013590820152606080840135908201526080808401359082015260a0808401359082015260c0808401359082015260e08084013590820152610100808401359082015261012080840135908201526101408084013590820152610160808401359082015261018080840135908201526101a080840135908201526101c080840135908201526101e080840135908201526102008084013590820152610220928301359281019290925250919050565b60006080828403121561585a57600080fd5b604051608081018181106001600160401b038211171561587c5761587c615540565b604052823561588a816154a0565b8152602083013561589a816154b5565b602082015260408301356158ad816154b5565b60408201526060830135600f81900b81146158c757600080fd5b60608201529392505050565b600080600080600080600060e0888a0312156158ee57600080fd5b87356158f9816154a0565b96506020880135615909816154b5565b95506040880135615919816154b5565b969995985095966060810135965060808101359560a0820135955060c0909101359350915050565b6000806000806080858703121561595757600080fd5b8435615962816154a0565b93506020850135615972816154a0565b93969395505050506040820135916060013590565b8015158114610aa457600080fd5b600080600080608085870312156159ab57600080fd5b84356159b6816154a0565b935060208501356159c6816154b5565b925060408501356159d6816154b5565b915060608501356159e681615987565b939692955090935050565b60208082526010908201526f14185d5cd8589b194e881c185d5cd95960821b604082015260600190565b634e487b7160e01b600052601160045260246000fd5b6000600160ff1b821415615a4757615a47615a1b565b5060000390565b600060208284031215615a6057600080fd5b5051919050565b6000600f82900b60016001607f1b0319811415615a8657615a86615a1b565b60000392915050565b60008219821115615aa257615aa2615a1b565b500190565b6001600160801b03959095168552602085019390935260408401919091526060830152608082015260a00190565b6020808252602c908201527f46756e6374696f6e206d7573742062652063616c6c6564207468726f7567682060408201526b19195b1959d85d1958d85b1b60a21b606082015260800190565b6020808252602c908201527f46756e6374696f6e206d7573742062652063616c6c6564207468726f7567682060408201526b6163746976652070726f787960a01b606082015260800190565b6020808252818101527f4f776e61626c653a2063616c6c6572206973206e6f7420746865206f776e6572604082015260600190565b6001600160a01b03929092168252602082015260400190565b600060208284031215615bcd57600080fd5b81516109d781615987565b600060608284031215615bea57600080fd5b604051606081018181106001600160401b0382111715615c0c57615c0c615540565b6040528251615c1a816154a0565b81526020830151615c2a816154b5565b6020820152604083015160ff81168114615c4357600080fd5b60408201529392505050565b600082821015615c6157615c61615a1b565b500390565b60008160020b627fffff19811415615a8657615a86615a1b565b600080600060608486031215615c9557600080fd5b8351925060208401519150604084015190509250925092565b60008083128015600160ff1b850184121615615ccc57615ccc615a1b565b6001600160ff1b0384018313811615615ce757615ce7615a1b565b50500390565b60006001600160a01b0383811690831681811015615d0d57615d0d615a1b565b039392505050565b60006001600160a01b03828116848216808303821115615d3757615d37615a1b565b01949350505050565b600080600080600060a08688031215615d5857600080fd5b5050835160208501516040860151606087015160809097015192989197509594509092509050565b600080821280156001600160ff1b0384900385131615615da257615da2615a1b565b600160ff1b8390038412811615615dbb57615dbb615a1b565b50500190565b6020808252602b908201527f496e697469616c697a61626c653a20636f6e7472616374206973206e6f74206960408201526a6e697469616c697a696e6760a81b606082015260800190565b634e487b7160e01b600052601260045260246000fd5b60006001600160801b0383811690831681811015615d0d57615d0d615a1b565b60006001600160801b03828116848216808303821115615d3757615d37615a1b565b60005b83811015615e7f578181015183820152602001615e67565b838111156122795750506000910152565b60008251615ea2818460208701615e64565b9190910192915050565b602080825260049082015263453c3d5360e01b604082015260600190565b6000816000190483118215151615615ee457615ee4615a1b565b500290565b600082615ef857615ef8615e0c565b500490565b600082615f0c57615f0c615e0c565b500690565b6020808252600890820152676f766572666c6f7760c01b604082015260600190565b6020815260008251806020840152615f52816040850160208701615e64565b601f01601f19169190910160400192915050565b6000600019821415615f7a57615f7a615a1b565b506001019056fe4a0dd77e6cb2be1847de991681f679a59bbe3e047ecb337a8426980861f82c0f416464726573733a206c6f772d6c6576656c2064656c65676174652063616c6c206661696c6564a2646970667358221220d18d75d8390b41aab4700e80d068d3ba6cea3da194a447e3921ca32979f8c9fe64736f6c63430008090033",
  "devdoc": {
    "errors": {
      "AavePoolGetReserveNormalizedIncomeReturnedZero()": [
        {
          "details": "getReserveNormalizedIncome() returned zero for underlying asset. Oracle only supports active Aave-V2 assets."
        }
      ],
      "CTokenExchangeRateReturnedZero()": [
        {
          "details": "ctoken.exchangeRateStored() returned zero for a given Compound ctoken. Oracle only supports active Compound assets."
        }
      ],
      "CanOnlyTradeIfUnlocked(bool)": [
        {
          "details": "Error which ensures the VAMM is unlocked"
        }
      ],
      "ExpectedOppositeSigns(int256,int256)": [
        {
          "details": "The two values were expected to have oppostite sigs, but do not"
        }
      ],
      "ExpectedSqrtPriceZeroBeforeInit(uint160)": [
        {
          "details": "Error which is reverted if the sqrt price of the vamm is non-zero before a vamm is initialized"
        }
      ],
      "IRSNotionalAmountSpecifiedMustBeNonZero()": [
        {
          "details": "Error which ensures the amount of notional specified when initiating an IRS contract (via the swap function in the vamm) is non-zero"
        }
      ],
      "LiquidityDeltaMustBePositiveInBurn(uint128)": [
        {
          "details": "Error which ensures the liquidity delta is positive if a given LP wishes to burn liquidity in the vamm"
        }
      ],
      "LiquidityDeltaMustBePositiveInMint(uint128)": [
        {
          "details": "Error which ensures the liquidity delta is positive if a given LP wishes to mint further liquidity in the vamm"
        }
      ],
      "MarginLessThanMinimum(int256)": [
        {
          "details": "Cannot have less margin than the minimum requirement"
        }
      ],
      "NotEnoughFunds(uint256,uint256)": [
        {
          "details": "There are not enough funds available for the requested operation"
        }
      ],
      "OOO()": [
        {
          "details": "currentTime < queriedTime"
        }
      ],
      "OnlyMarginEngine()": [
        {
          "details": "only the margin engine can run a certain function"
        }
      ],
      "PositionNetZero()": [
        {
          "details": "No need to unwind a net zero position"
        }
      ],
      "PositionNotSettled()": [
        {
          "details": "Position must be settled after AMM has reached maturity"
        }
      ],
      "WithdrawalExceedsCurrentMargin()": [
        {
          "details": "We can't withdraw more margin than we have"
        }
      ]
    },
    "kind": "dev",
    "methods": {
      "collectProtocol(address,uint256)": {
        "params": {
          "_amount": "the amount in terms of underlying tokens collected from the protocol's earnings",
          "_recipient": "the address which collects the protocol generated fees"
        }
      },
      "constructor": {
        "custom:oz-upgrades-unsafe-allow": "constructor"
      },
      "factory()": {
        "details": "the factory that deployed the master Margin Engine"
      },
      "fcm()": {
        "details": "The FCM is a smart contract that acts as an intermediary Position between the Voltz Core and traders who wish to take fully collateralised fixed taker positionsAn example FCM is the AaveFCM.sol module which inherits from the IFCM interface, it lets fixed takers deposit underlying yield bearing tokens (e.g.) aUSDC as margin to enter into a fixed taker swap without the need to worry about liquidationssince the MarginEngine is confident the FCM is always fully collateralised, it does not let liquidators liquidate the FCM Position",
        "returns": {
          "_0": "The Full Collateralisation Module linked to the MarginEngine"
        }
      },
      "getHistoricalApy()": {
        "details": "The lookback window used by this function is determined by the secondsAgo state variablerefresh the historical apy cache if necessary",
        "returns": {
          "_0": "historicalAPY (Wad)"
        }
      },
      "getHistoricalApyReadOnly()": {
        "details": "The lookback window used by this function is determined by the _secondsAgo state variable"
      },
      "getPosition(address,int24,int24)": {
        "params": {
          "_owner": "The address of the position owner",
          "_tickLower": "The lower tick boundary of the position",
          "_tickUpper": "The upper tick boundary of the position Returns position The Position.Info corresponding to the requested position"
        }
      },
      "initialize(address,address,uint256,uint256)": {
        "details": "\"constructor\" for proxy instances"
      },
      "liquidatePosition(address,int24,int24)": {
        "details": "Steps to liquidate: update position's fixed and variable token balances to account for balances accumulated throughout the trades made since the last mint/burn/poke,Check if the position is liquidatable by calling the isLiquidatablePosition function of the calculator, revert if that is not the case,Calculate the liquidation reward = current margin of the position * liquidatorReward, subtract the liquidator reward from the position margin,Burn the position's liquidity, unwind unnetted fixed and variable balances of a position, transfer the reward to the liquidator"
      },
      "liquidatorRewardWad()": {
        "details": "liquidatorReward (in wad) is the percentage of the margin (of a liquidated position) that is sent to the liquidatorfollowing a successful liquidation that results in a trader/position unwind; example value:  2 * 10**16 => 2% of position margin is used to cover liquidator reward",
        "returns": {
          "_0": "Liquidator Reward in Wad"
        }
      },
      "lookbackWindowInSeconds()": {
        "details": "The historical APY of the Rate Oracle is necessary for MarginEngine computationsThe look-back window is seconds from the current timestampThis value is only settable by the the Factory owner and may be unique for each MarginEngineWhen setting secondAgo, the setter needs to take into consideration the underlying volatility of the APYs in the reference yield-bearing pool (e.g. Aave v2 USDC)"
      },
      "owner()": {
        "details": "Returns the address of the current owner."
      },
      "paused()": {
        "details": "Returns true if the contract is paused, and false otherwise."
      },
      "rateOracle()": {
        "returns": {
          "_0": "The underlying ERC20 token (e.g. USDC)"
        }
      },
      "renounceOwnership()": {
        "details": "Leaves the contract without owner. It will not be possible to call `onlyOwner` functions anymore. Can only be called by the current owner. NOTE: Renouncing ownership will leave the contract without an owner, thereby removing any functionality that is only available to the owner."
      },
      "setCacheMaxAgeInSeconds(uint256)": {
        "params": {
          "_cacheMaxAgeInSeconds": "The new maximum age that the historical APY cache can be before being considered stale"
        }
      },
      "setLookbackWindowInSeconds(uint256)": {
        "details": "Can only be set by the Factory Owner",
        "params": {
          "_secondsAgo": "the duration of the lookback window in seconds"
        }
      },
      "setMarginCalculatorParameters((uint256,uint256,int256,int256,int256,int256,int256,int256,uint256,uint256,uint256,uint256,uint256,uint256,uint256,uint256,uint256,uint256))": {
        "details": "marginCalculatorParameteres is of type MarginCalculatorParameters (refer to the definition of the struct for elaboration on what each parameter means)",
        "params": {
          "_marginCalculatorParameters": "the MarginCalculatorParameters to set"
        }
      },
      "setRateOracle(address)": {
        "details": "the VAMM is responsible for price discovery, whereas the management of the underlying collateral and liquidations are handled by the Margin Engine"
      },
      "setVAMM(address)": {
        "details": "the VAMM is responsible for price discovery, whereas the management of the underlying collateral and liquidations are handled by the Margin Engine"
      },
      "settlePosition(address,int24,int24)": {
        "details": "Can be called by anyoneA position cannot be settled before maturitySteps to settle a position:1. Retrieve the current fixed and variable token growth inside the tick range of a position2. Calculate accumulated fixed and variable balances of the position since the last mint/poke/burn3. Update the postion's fixed and variable token balances4. Update the postion's fixed and varaible token growth inside last to enable future updates5. Calculates the settlement cashflow from all of the IRS contracts the position has entered since entering the AMM6. Updates the fixed and variable token balances of the position to be zero, adds the settlement cashflow to the position's current margin"
      },
      "termEndTimestampWad()": {
        "returns": {
          "_0": "Term End Timestamp in Wad"
        }
      },
      "termStartTimestampWad()": {
        "returns": {
          "_0": "Term Start Timestamp in Wad"
        }
      },
      "transferMarginToFCMTrader(address,uint256)": {
        "details": "post maturity date of the MarginEngine, the traders from the Full Collateralisation module will be able to settle with the MarginEngineto ensure their fixed yield is guaranteed, in order to collect the funds from the MarginEngine, the FCM needs to invoke the transferMarginToFCMTrader function whcih is only callable by the FCM attached to a particular Margin Engine"
      },
      "transferOwnership(address)": {
        "details": "Transfers ownership of the contract to a new account (`newOwner`). Can only be called by the current owner."
      },
      "underlyingToken()": {
        "returns": {
          "_0": "The underlying ERC20 token (e.g. USDC)"
        }
      },
      "updatePositionMargin(address,int24,int24,int256)": {
        "details": "if the position has positive liquidity then before the margin update, we call the updatePositionTokenBalancesAndAccountForFees functon that calculates up to datemargin, fixed and variable token balances by taking into account the fee income from their tick range and fixed and variable deltas settled along their tick rangemarginDelta is the delta applied to the current margin of a position, if the marginDelta is negative, the position is withdrawing margin, if the marginDelta is positive, the position is depositing funds in terms of the underlying tokensif marginDelta is negative, we need to check if the msg.sender is either the _owner of the position or the msg.sender is apporved by the _owner to act on their behalf in Voltz Protocolthe approval logic is implemented in the Factory.solif marginDelta is negative, we additionally need to check if post the initial margin requirement is still satisfied post withdrawalif marginDelta is positive, the depositor of the margin is either the msg.sender or the owner who interacted through an approved peripheral contract"
      },
      "updatePositionPostVAMMInducedMintBurn((address,int24,int24,int128))": {
        "details": "Steps taken:1. Update position liquidity based on params.liquidityDelta2. Update fixed and variable token balances of the position based on how much has been accumulated since the last mint/burn/poke3. Update position's margin by taking into account the position accumulated fees since the last mint/burn/poke4. Update fixed and variable token growth + fee growth in the position info struct for future interactions with the position",
        "params": {
          "_params": "necessary for the purposes of referencing the position being updated (owner, tickLower, tickUpper, _) and the liquidity delta that needs to be applied to position._liquidity"
        }
      },
      "updatePositionPostVAMMInducedSwap(address,int24,int24,int256,int256,uint256,int256)": {
        "details": "Since every position can also engage in swaps with the VAMM, this function needs to be invoked after non-external calls are made to the VAMM's swap functionThis purpose of this function is to:1. updatePositionTokenBalancesAndAccountForFees2. update position margin to account for fees paid to execute the swap3. calculate the position margin requrement given the swap, check if the position marigin satisfies the most up to date requirement4. if all the requirements are satisfied then position gets updated to take into account the swap that it just entered, if the minimum margin requirement is not satisfied then the transaction will revert"
      },
      "upgradeTo(address)": {
        "details": "Upgrade the implementation of the proxy to `newImplementation`. Calls {_authorizeUpgrade}. Emits an {Upgraded} event."
      },
      "upgradeToAndCall(address,bytes)": {
        "details": "Upgrade the implementation of the proxy to `newImplementation`, and subsequently execute the function call encoded in `data`. Calls {_authorizeUpgrade}. Emits an {Upgraded} event."
      },
      "vamm()": {
        "details": "The VAMM is responsible for pricing only (determining the effective fixed rate at which a given Interest Rate Swap notional will be executed)",
        "returns": {
          "_0": "The VAMM"
        }
      }
    },
    "version": 1
  },
  "userdoc": {
    "errors": {
      "CannotLiquidate()": [
        {
          "notice": "The position/trader needs to be below the liquidation threshold to be liquidated"
        }
      ],
      "CannotSettleBeforeMaturity()": [
        {
          "notice": "Positions and Traders cannot be settled before the applicable interest rate swap has matured"
        }
      ],
      "InvalidMarginDelta()": [
        {
          "notice": "Margin delta must not equal zero"
        }
      ],
      "MarginRequirementNotMet(int256,int24,int256,int256,uint256,int256)": [
        {
          "notice": "The resulting margin does not meet minimum requirements"
        }
      ],
      "MarginRequirementNotMetFCM(int256)": [
        {
          "notice": "The resulting margin does not meet minimum requirements"
        }
      ],
      "OnlyOwnerCanUpdatePosition()": [
        {
          "notice": "Only the position/trade owner can update the LP/Trader margin"
        }
      ],
      "PRBMathSD59x18__DivInputTooSmall()": [
        {
          "notice": "Emitted when one of the inputs is MIN_SD59x18."
        }
      ],
      "PRBMathSD59x18__DivOverflow(uint256)": [
        {
          "notice": "Emitted when one of the intermediary unsigned results overflows SD59x18."
        }
      ],
      "PRBMathSD59x18__Exp2InputTooBig(int256)": [
        {
          "notice": "Emitted when the input is greater than 192."
        }
      ],
      "PRBMathSD59x18__ExpInputTooBig(int256)": [
        {
          "notice": "Emitted when the input is greater than 133.084258667509499441."
        }
      ],
      "PRBMathSD59x18__FromIntOverflow(int256)": [
        {
          "notice": "Emitted when converting a basic integer to the fixed-point format overflows SD59x18."
        }
      ],
      "PRBMathSD59x18__FromIntUnderflow(int256)": [
        {
          "notice": "Emitted when converting a basic integer to the fixed-point format underflows SD59x18."
        }
      ],
      "PRBMathSD59x18__MulInputTooSmall()": [
        {
          "notice": "Emitted when one of the inputs is MIN_SD59x18."
        }
      ],
      "PRBMathSD59x18__MulOverflow(uint256)": [
        {
          "notice": "Emitted when the intermediary absolute result overflows SD59x18."
        }
      ],
      "PRBMathSD59x18__SqrtNegativeInput(int256)": [
        {
          "notice": "Emitted when the input is negative."
        }
      ],
      "PRBMathSD59x18__SqrtOverflow(int256)": [
        {
          "notice": "Emitted when the calculating the square root overflows SD59x18."
        }
      ],
      "PRBMathUD60x18__FromUintOverflow(uint256)": [
        {
          "notice": "Emitted when converting a basic integer to the fixed-point format format overflows UD60x18."
        }
      ],
      "PRBMath__MulDivFixedPointOverflow(uint256)": [
        {
          "notice": "Emitted when the result overflows uint256."
        }
      ],
      "PRBMath__MulDivOverflow(uint256,uint256)": [
        {
          "notice": "Emitted when the result overflows uint256."
        }
      ]
    },
    "kind": "user",
    "methods": {
      "cacheMaxAgeInSeconds()": {
        "notice": "Gets the maximum age of the cached historical APY value can be without being refreshed"
      },
      "collectProtocol(address,uint256)": {
        "notice": "function that can only be called by the owner enables collection of protocol generated fees from any give margin engine"
      },
      "factory()": {
        "notice": "The Factory"
      },
      "fcm()": {
        "notice": "The Full Collateralisation Module (FCM)"
      },
      "getHistoricalApy()": {
        "notice": "Get Historical APY"
      },
      "getHistoricalApyReadOnly()": {
        "notice": "Computes the historical APY value of the RateOracle"
      },
      "getPosition(address,int24,int24)": {
        "notice": "Returns the information about a position by the position's key"
      },
      "liquidatePosition(address,int24,int24)": {
        "notice": "Liquidate a Position"
      },
      "liquidatorRewardWad()": {
        "notice": "The liquidator Reward Percentage (in Wad)"
      },
      "lookbackWindowInSeconds()": {
        "notice": "Gets the look-back window size that's used to request the historical APY from the rate Oracle"
      },
      "rateOracle()": {
        "notice": "The rateOracle contract which lets the protocol access historical apys in the yield bearing pools it is built on top of"
      },
      "setCacheMaxAgeInSeconds(uint256)": {
        "notice": "Sets the maximum age that the cached historical APY value"
      },
      "setFCM(address)": {
        "notice": "sets the Full Collateralisation Module"
      },
      "setLiquidatorReward(uint256)": {
        "notice": "Sets the liquidator reward: proportion of liquidated position's margin paid as a reward to the liquidator"
      },
      "setLookbackWindowInSeconds(uint256)": {
        "notice": "Sets secondsAgo: The look-back window size used to calculate the historical APY for margin purposes"
      },
      "setMarginCalculatorParameters((uint256,uint256,int256,int256,int256,int256,int256,int256,uint256,uint256,uint256,uint256,uint256,uint256,uint256,uint256,uint256,uint256))": {
        "notice": "Set the MarginCalculatorParameters (each margin engine can have its own custom set of margin calculator parameters)"
      },
      "setRateOracle(address)": {
        "notice": "sets the Virtual Automated Market Maker (VAMM) attached to the MarginEngine"
      },
      "setVAMM(address)": {
        "notice": "sets the Virtual Automated Market Maker (VAMM) attached to the MarginEngine"
      },
      "settlePosition(address,int24,int24)": {
        "notice": "Settles a Position"
      },
      "termEndTimestampWad()": {
        "notice": "The unix termEndTimestamp of the MarginEngine in Wad"
      },
      "termStartTimestampWad()": {
        "notice": "The unix termStartTimestamp of the MarginEngine in Wad"
      },
      "transferMarginToFCMTrader(address,uint256)": {
        "notice": "transfers margin in terms of underlying tokens to a trader from the Full Collateralisation Module"
      },
      "underlyingToken()": {
        "notice": "The address of the underlying (non-yield bearing) token - e.g. USDC"
      },
      "updatePositionMargin(address,int24,int24,int256)": {
        "notice": "updates the margin account of a position which can be uniquily identified with its _owner, tickLower, tickUpper"
      },
      "updatePositionPostVAMMInducedMintBurn((address,int24,int24,int128))": {
        "notice": "Update a Position post VAMM induced mint or burn"
      },
      "vamm()": {
        "notice": "VAMM (Virtual Automated Market Maker) linked to the MarginEngine"
      }
    },
    "version": 1
  },
  "storageLayout": {
    "storage": [
      {
        "astId": 17946,
        "contract": "contracts/MarginEngine.sol:MarginEngine",
        "label": "_liquidatorRewardWad",
        "offset": 0,
        "slot": "0",
        "type": "t_uint256"
      },
      {
        "astId": 17949,
        "contract": "contracts/MarginEngine.sol:MarginEngine",
        "label": "_underlyingToken",
        "offset": 0,
        "slot": "1",
        "type": "t_contract(IERC20Minimal)13463"
      },
      {
        "astId": 17951,
        "contract": "contracts/MarginEngine.sol:MarginEngine",
        "label": "_termStartTimestampWad",
        "offset": 0,
        "slot": "2",
        "type": "t_uint256"
      },
      {
        "astId": 17953,
        "contract": "contracts/MarginEngine.sol:MarginEngine",
        "label": "_termEndTimestampWad",
        "offset": 0,
        "slot": "3",
        "type": "t_uint256"
      },
      {
        "astId": 17956,
        "contract": "contracts/MarginEngine.sol:MarginEngine",
        "label": "_fcm",
        "offset": 0,
        "slot": "4",
        "type": "t_contract(IFCM)14823"
      },
      {
        "astId": 17961,
        "contract": "contracts/MarginEngine.sol:MarginEngine",
        "label": "positions",
        "offset": 0,
        "slot": "5",
        "type": "t_mapping(t_bytes32,t_struct(Info)11678_storage)"
      },
      {
        "astId": 17964,
        "contract": "contracts/MarginEngine.sol:MarginEngine",
        "label": "_vamm",
        "offset": 0,
        "slot": "6",
        "type": "t_contract(IVAMM)14527"
      },
      {
        "astId": 17966,
        "contract": "contracts/MarginEngine.sol:MarginEngine",
        "label": "_secondsAgo",
        "offset": 0,
        "slot": "7",
        "type": "t_uint256"
      },
      {
        "astId": 17968,
        "contract": "contracts/MarginEngine.sol:MarginEngine",
        "label": "cachedHistoricalApyWad",
        "offset": 0,
        "slot": "8",
        "type": "t_uint256"
      },
      {
        "astId": 17970,
        "contract": "contracts/MarginEngine.sol:MarginEngine",
        "label": "cachedHistoricalApyWadRefreshTimestamp",
        "offset": 0,
        "slot": "9",
        "type": "t_uint256"
      },
      {
        "astId": 17972,
        "contract": "contracts/MarginEngine.sol:MarginEngine",
        "label": "_cacheMaxAgeInSeconds",
        "offset": 0,
        "slot": "10",
        "type": "t_uint256"
      },
      {
        "astId": 17975,
        "contract": "contracts/MarginEngine.sol:MarginEngine",
        "label": "_factory",
        "offset": 0,
        "slot": "11",
        "type": "t_contract(IFactory)13616"
      },
      {
        "astId": 17978,
        "contract": "contracts/MarginEngine.sol:MarginEngine",
        "label": "_rateOracle",
        "offset": 0,
        "slot": "12",
        "type": "t_contract(IRateOracle)14967"
      },
      {
        "astId": 17981,
        "contract": "contracts/MarginEngine.sol:MarginEngine",
        "label": "marginCalculatorParameters",
        "offset": 0,
        "slot": "13",
        "type": "t_struct(MarginCalculatorParameters)13685_storage"
      },
      {
        "astId": 17988,
        "contract": "contracts/MarginEngine.sol:MarginEngine",
        "label": "__gap",
        "offset": 0,
        "slot": "31",
        "type": "t_array(t_uint256)69_storage"
      },
      {
        "astId": 540,
        "contract": "contracts/MarginEngine.sol:MarginEngine",
        "label": "_initialized",
        "offset": 0,
        "slot": "100",
        "type": "t_bool"
      },
      {
        "astId": 543,
        "contract": "contracts/MarginEngine.sol:MarginEngine",
        "label": "_initializing",
        "offset": 1,
        "slot": "100",
        "type": "t_bool"
      },
      {
        "astId": 1119,
        "contract": "contracts/MarginEngine.sol:MarginEngine",
        "label": "__gap",
        "offset": 0,
        "slot": "101",
        "type": "t_array(t_uint256)50_storage"
      },
      {
        "astId": 10,
        "contract": "contracts/MarginEngine.sol:MarginEngine",
        "label": "_owner",
        "offset": 0,
        "slot": "151",
        "type": "t_address"
      },
      {
        "astId": 124,
        "contract": "contracts/MarginEngine.sol:MarginEngine",
        "label": "__gap",
        "offset": 0,
        "slot": "152",
        "type": "t_array(t_uint256)49_storage"
      },
      {
        "astId": 739,
        "contract": "contracts/MarginEngine.sol:MarginEngine",
        "label": "_paused",
        "offset": 0,
        "slot": "201",
        "type": "t_bool"
      },
      {
        "astId": 830,
        "contract": "contracts/MarginEngine.sol:MarginEngine",
        "label": "__gap",
        "offset": 0,
        "slot": "202",
        "type": "t_array(t_uint256)49_storage"
      },
      {
        "astId": 522,
        "contract": "contracts/MarginEngine.sol:MarginEngine",
        "label": "__gap",
        "offset": 0,
        "slot": "251",
        "type": "t_array(t_uint256)50_storage"
      },
      {
        "astId": 717,
        "contract": "contracts/MarginEngine.sol:MarginEngine",
        "label": "__gap",
        "offset": 0,
        "slot": "301",
        "type": "t_array(t_uint256)50_storage"
      }
    ],
    "types": {
      "t_address": {
        "encoding": "inplace",
        "label": "address",
        "numberOfBytes": "20"
      },
      "t_array(t_uint256)49_storage": {
        "base": "t_uint256",
        "encoding": "inplace",
        "label": "uint256[49]",
        "numberOfBytes": "1568"
      },
      "t_array(t_uint256)50_storage": {
        "base": "t_uint256",
        "encoding": "inplace",
        "label": "uint256[50]",
        "numberOfBytes": "1600"
      },
      "t_array(t_uint256)69_storage": {
        "base": "t_uint256",
        "encoding": "inplace",
        "label": "uint256[69]",
        "numberOfBytes": "2208"
      },
      "t_bool": {
        "encoding": "inplace",
        "label": "bool",
        "numberOfBytes": "1"
      },
      "t_bytes32": {
        "encoding": "inplace",
        "label": "bytes32",
        "numberOfBytes": "32"
      },
      "t_contract(IERC20Minimal)13463": {
        "encoding": "inplace",
        "label": "contract IERC20Minimal",
        "numberOfBytes": "20"
      },
      "t_contract(IFCM)14823": {
        "encoding": "inplace",
        "label": "contract IFCM",
        "numberOfBytes": "20"
      },
      "t_contract(IFactory)13616": {
        "encoding": "inplace",
        "label": "contract IFactory",
        "numberOfBytes": "20"
      },
      "t_contract(IRateOracle)14967": {
        "encoding": "inplace",
        "label": "contract IRateOracle",
        "numberOfBytes": "20"
      },
      "t_contract(IVAMM)14527": {
        "encoding": "inplace",
        "label": "contract IVAMM",
        "numberOfBytes": "20"
      },
      "t_int256": {
        "encoding": "inplace",
        "label": "int256",
        "numberOfBytes": "32"
      },
      "t_mapping(t_bytes32,t_struct(Info)11678_storage)": {
        "encoding": "mapping",
        "key": "t_bytes32",
        "label": "mapping(bytes32 => struct Position.Info)",
        "numberOfBytes": "32",
        "value": "t_struct(Info)11678_storage"
      },
      "t_struct(Info)11678_storage": {
        "encoding": "inplace",
        "label": "struct Position.Info",
        "members": [
          {
            "astId": 11659,
            "contract": "contracts/MarginEngine.sol:MarginEngine",
            "label": "isSettled",
            "offset": 0,
            "slot": "0",
            "type": "t_bool"
          },
          {
            "astId": 11661,
            "contract": "contracts/MarginEngine.sol:MarginEngine",
            "label": "_liquidity",
            "offset": 1,
            "slot": "0",
            "type": "t_uint128"
          },
          {
            "astId": 11663,
            "contract": "contracts/MarginEngine.sol:MarginEngine",
            "label": "margin",
            "offset": 0,
            "slot": "1",
            "type": "t_int256"
          },
          {
            "astId": 11665,
            "contract": "contracts/MarginEngine.sol:MarginEngine",
            "label": "fixedTokenGrowthInsideLastX128",
            "offset": 0,
            "slot": "2",
            "type": "t_int256"
          },
          {
            "astId": 11667,
            "contract": "contracts/MarginEngine.sol:MarginEngine",
            "label": "variableTokenGrowthInsideLastX128",
            "offset": 0,
            "slot": "3",
            "type": "t_int256"
          },
          {
            "astId": 11669,
            "contract": "contracts/MarginEngine.sol:MarginEngine",
            "label": "fixedTokenBalance",
            "offset": 0,
            "slot": "4",
            "type": "t_int256"
          },
          {
            "astId": 11671,
            "contract": "contracts/MarginEngine.sol:MarginEngine",
            "label": "variableTokenBalance",
            "offset": 0,
            "slot": "5",
            "type": "t_int256"
          },
          {
            "astId": 11673,
            "contract": "contracts/MarginEngine.sol:MarginEngine",
            "label": "feeGrowthInsideLastX128",
            "offset": 0,
            "slot": "6",
            "type": "t_uint256"
          },
          {
            "astId": 11675,
            "contract": "contracts/MarginEngine.sol:MarginEngine",
            "label": "rewardPerAmount",
            "offset": 0,
            "slot": "7",
            "type": "t_uint256"
          },
          {
            "astId": 11677,
            "contract": "contracts/MarginEngine.sol:MarginEngine",
            "label": "accumulatedFees",
            "offset": 0,
            "slot": "8",
            "type": "t_uint256"
          }
        ],
        "numberOfBytes": "288"
      },
      "t_struct(MarginCalculatorParameters)13685_storage": {
        "encoding": "inplace",
        "label": "struct IMarginEngine.MarginCalculatorParameters",
        "members": [
          {
            "astId": 13633,
            "contract": "contracts/MarginEngine.sol:MarginEngine",
            "label": "apyUpperMultiplierWad",
            "offset": 0,
            "slot": "0",
            "type": "t_uint256"
          },
          {
            "astId": 13636,
            "contract": "contracts/MarginEngine.sol:MarginEngine",
            "label": "apyLowerMultiplierWad",
            "offset": 0,
            "slot": "1",
            "type": "t_uint256"
          },
          {
            "astId": 13639,
            "contract": "contracts/MarginEngine.sol:MarginEngine",
            "label": "sigmaSquaredWad",
            "offset": 0,
            "slot": "2",
            "type": "t_int256"
          },
          {
            "astId": 13642,
            "contract": "contracts/MarginEngine.sol:MarginEngine",
            "label": "alphaWad",
            "offset": 0,
            "slot": "3",
            "type": "t_int256"
          },
          {
            "astId": 13645,
            "contract": "contracts/MarginEngine.sol:MarginEngine",
            "label": "betaWad",
            "offset": 0,
            "slot": "4",
            "type": "t_int256"
          },
          {
            "astId": 13648,
            "contract": "contracts/MarginEngine.sol:MarginEngine",
            "label": "xiUpperWad",
            "offset": 0,
            "slot": "5",
            "type": "t_int256"
          },
          {
            "astId": 13651,
            "contract": "contracts/MarginEngine.sol:MarginEngine",
            "label": "xiLowerWad",
            "offset": 0,
            "slot": "6",
            "type": "t_int256"
          },
          {
            "astId": 13654,
            "contract": "contracts/MarginEngine.sol:MarginEngine",
            "label": "tMaxWad",
            "offset": 0,
            "slot": "7",
            "type": "t_int256"
          },
          {
            "astId": 13657,
            "contract": "contracts/MarginEngine.sol:MarginEngine",
            "label": "devMulLeftUnwindLMWad",
            "offset": 0,
            "slot": "8",
            "type": "t_uint256"
          },
          {
            "astId": 13660,
            "contract": "contracts/MarginEngine.sol:MarginEngine",
            "label": "devMulRightUnwindLMWad",
            "offset": 0,
            "slot": "9",
            "type": "t_uint256"
          },
          {
            "astId": 13663,
            "contract": "contracts/MarginEngine.sol:MarginEngine",
            "label": "devMulLeftUnwindIMWad",
            "offset": 0,
            "slot": "10",
            "type": "t_uint256"
          },
          {
            "astId": 13666,
            "contract": "contracts/MarginEngine.sol:MarginEngine",
            "label": "devMulRightUnwindIMWad",
            "offset": 0,
            "slot": "11",
            "type": "t_uint256"
          },
          {
            "astId": 13669,
            "contract": "contracts/MarginEngine.sol:MarginEngine",
            "label": "fixedRateDeviationMinLeftUnwindLMWad",
            "offset": 0,
            "slot": "12",
            "type": "t_uint256"
          },
          {
            "astId": 13672,
            "contract": "contracts/MarginEngine.sol:MarginEngine",
            "label": "fixedRateDeviationMinRightUnwindLMWad",
            "offset": 0,
            "slot": "13",
            "type": "t_uint256"
          },
          {
            "astId": 13675,
            "contract": "contracts/MarginEngine.sol:MarginEngine",
            "label": "fixedRateDeviationMinLeftUnwindIMWad",
            "offset": 0,
            "slot": "14",
            "type": "t_uint256"
          },
          {
            "astId": 13678,
            "contract": "contracts/MarginEngine.sol:MarginEngine",
            "label": "fixedRateDeviationMinRightUnwindIMWad",
            "offset": 0,
            "slot": "15",
            "type": "t_uint256"
          },
          {
            "astId": 13681,
            "contract": "contracts/MarginEngine.sol:MarginEngine",
            "label": "gammaWad",
            "offset": 0,
            "slot": "16",
            "type": "t_uint256"
          },
          {
            "astId": 13684,
            "contract": "contracts/MarginEngine.sol:MarginEngine",
            "label": "minMarginToIncentiviseLiquidators",
            "offset": 0,
            "slot": "17",
            "type": "t_uint256"
          }
        ],
        "numberOfBytes": "576"
      },
      "t_uint128": {
        "encoding": "inplace",
        "label": "uint128",
        "numberOfBytes": "16"
      },
      "t_uint256": {
        "encoding": "inplace",
        "label": "uint256",
        "numberOfBytes": "32"
      }
    }
  }
}