{
  "address": "0x4cb93ed60a3Dd9013979c6251C14117e02A6DfA1",
  "abi": [
    {
      "inputs": [],
      "name": "AavePoolGetReserveNormalizedIncomeReturnedZero",
      "type": "error"
    },
    {
      "inputs": [
        {
          "internalType": "bool",
          "name": "unlocked",
          "type": "bool"
        }
      ],
      "name": "CanOnlyTradeIfUnlocked",
      "type": "error"
    },
    {
      "inputs": [
        {
          "internalType": "uint256",
          "name": "marginRequirement",
          "type": "uint256"
        }
      ],
      "name": "CannotLiquidate",
      "type": "error"
    },
    {
      "inputs": [],
      "name": "CannotSettleBeforeMaturity",
      "type": "error"
    },
    {
      "inputs": [
        {
          "internalType": "uint256",
          "name": "x",
          "type": "uint256"
        },
        {
          "internalType": "uint256",
          "name": "y",
          "type": "uint256"
        }
      ],
      "name": "DebugError",
      "type": "error"
    },
    {
      "inputs": [
        {
          "internalType": "int256",
          "name": "amount0",
          "type": "int256"
        },
        {
          "internalType": "int256",
          "name": "amount1",
          "type": "int256"
        }
      ],
      "name": "ExpectedOppositeSigns",
      "type": "error"
    },
    {
      "inputs": [
        {
          "internalType": "uint160",
          "name": "sqrtPriceX96",
          "type": "uint160"
        }
      ],
      "name": "ExpectedSqrtPriceZeroBeforeInit",
      "type": "error"
    },
    {
      "inputs": [],
      "name": "IRSNotionalAmountSpecifiedMustBeNonZero",
      "type": "error"
    },
    {
      "inputs": [],
      "name": "InvalidMarginDelta",
      "type": "error"
    },
    {
      "inputs": [
        {
          "internalType": "uint128",
          "name": "amount",
          "type": "uint128"
        }
      ],
      "name": "LiquidityDeltaMustBePositiveInBurn",
      "type": "error"
    },
    {
      "inputs": [
        {
          "internalType": "uint128",
          "name": "amount",
          "type": "uint128"
        }
      ],
      "name": "LiquidityDeltaMustBePositiveInMint",
      "type": "error"
    },
    {
      "inputs": [
        {
          "internalType": "int256",
          "name": "marginRequirement",
          "type": "int256"
        }
      ],
      "name": "MarginLessThanMinimum",
      "type": "error"
    },
    {
      "inputs": [
        {
          "internalType": "int256",
          "name": "marginRequirement",
          "type": "int256"
        },
        {
          "internalType": "int24",
          "name": "tick",
          "type": "int24"
        },
        {
          "internalType": "int256",
          "name": "fixedTokenDelta",
          "type": "int256"
        },
        {
          "internalType": "int256",
          "name": "variableTokenDelta",
          "type": "int256"
        },
        {
          "internalType": "uint256",
          "name": "cumulativeFeeIncurred",
          "type": "uint256"
        },
        {
          "internalType": "int256",
          "name": "fixedTokenDeltaUnbalanced",
          "type": "int256"
        }
      ],
      "name": "MarginRequirementNotMet",
      "type": "error"
    },
    {
      "inputs": [
        {
          "internalType": "int256",
          "name": "marginRequirement",
          "type": "int256"
        }
      ],
      "name": "MarginRequirementNotMetFCM",
      "type": "error"
    },
    {
      "inputs": [
        {
          "internalType": "uint256",
          "name": "requested",
          "type": "uint256"
        },
        {
          "internalType": "uint256",
          "name": "available",
          "type": "uint256"
        }
      ],
      "name": "NotEnoughFunds",
      "type": "error"
    },
    {
      "inputs": [],
      "name": "OOO",
      "type": "error"
    },
    {
      "inputs": [],
      "name": "OnlyFCM",
      "type": "error"
    },
    {
      "inputs": [],
      "name": "OnlyMarginEngine",
      "type": "error"
    },
    {
      "inputs": [],
      "name": "OnlyOwnerCanUpdatePosition",
      "type": "error"
    },
    {
      "inputs": [],
      "name": "OnlyVAMM",
      "type": "error"
    },
    {
      "inputs": [],
      "name": "PositionNetZero",
      "type": "error"
    },
    {
      "inputs": [],
      "name": "PositionNotSettled",
      "type": "error"
    },
    {
      "inputs": [],
      "name": "WithdrawalExceedsCurrentMargin",
      "type": "error"
    },
    {
      "inputs": [],
      "name": "closeToOrBeyondMaturity",
      "type": "error"
    },
    {
      "inputs": [
        {
          "internalType": "contract IMarginEngine",
          "name": "marginEngine",
          "type": "address"
        }
      ],
      "name": "getCurrentTick",
      "outputs": [
        {
          "internalType": "int24",
          "name": "currentTick",
          "type": "int24"
        }
      ],
      "stateMutability": "view",
      "type": "function"
    },
    {
      "inputs": [
        {
          "components": [
            {
              "internalType": "contract IMarginEngine",
              "name": "marginEngine",
              "type": "address"
            },
            {
              "internalType": "int24",
              "name": "tickLower",
              "type": "int24"
            },
            {
              "internalType": "int24",
              "name": "tickUpper",
              "type": "int24"
            },
            {
              "internalType": "uint256",
              "name": "notional",
              "type": "uint256"
            },
            {
              "internalType": "bool",
              "name": "isMint",
              "type": "bool"
            },
            {
              "internalType": "uint256",
              "name": "marginDelta",
              "type": "uint256"
            }
          ],
          "internalType": "struct IPeriphery.MintOrBurnParams",
          "name": "params",
          "type": "tuple"
        }
      ],
      "name": "mintOrBurn",
      "outputs": [
        {
          "internalType": "int256",
          "name": "positionMarginRequirement",
          "type": "int256"
        }
      ],
      "stateMutability": "nonpayable",
      "type": "function"
    },
    {
      "inputs": [
        {
          "components": [
            {
              "internalType": "contract IMarginEngine",
              "name": "marginEngine",
              "type": "address"
            },
            {
              "internalType": "bool",
              "name": "isFT",
              "type": "bool"
            },
            {
              "internalType": "uint256",
              "name": "notional",
              "type": "uint256"
            },
            {
              "internalType": "uint160",
              "name": "sqrtPriceLimitX96",
              "type": "uint160"
            },
            {
              "internalType": "int24",
              "name": "tickLower",
              "type": "int24"
            },
            {
              "internalType": "int24",
              "name": "tickUpper",
              "type": "int24"
            },
            {
              "internalType": "uint256",
              "name": "marginDelta",
              "type": "uint256"
            }
          ],
          "internalType": "struct IPeriphery.SwapPeripheryParams",
          "name": "params",
          "type": "tuple"
        }
      ],
      "name": "swap",
      "outputs": [
        {
          "internalType": "int256",
          "name": "_fixedTokenDelta",
          "type": "int256"
        },
        {
          "internalType": "int256",
          "name": "_variableTokenDelta",
          "type": "int256"
        },
        {
          "internalType": "uint256",
          "name": "_cumulativeFeeIncurred",
          "type": "uint256"
        },
        {
          "internalType": "int256",
          "name": "_fixedTokenDeltaUnbalanced",
          "type": "int256"
        },
        {
          "internalType": "int256",
          "name": "_marginRequirement",
          "type": "int256"
        },
        {
          "internalType": "int24",
          "name": "_tickAfter",
          "type": "int24"
        }
      ],
      "stateMutability": "nonpayable",
      "type": "function"
    }
  ],
  "transactionHash": "0xfa515afb39e1b7fc8ed82cf74d57199b0924ce7c71db3a83f79257209b41a235",
  "args": [],
  "numDeployments": 1,
  "solcInputHash": "bfe15dd2306c725cddaf5d78c62edf81",
  "bytecode": "0x608060405234801561001057600080fd5b506117f8806100206000396000f3fe608060405234801561001057600080fd5b50600436106100415760003560e01c8063040a5dc11461004657806314d2348e1461007157806334907e3414610092575b600080fd5b610059610054366004611310565b6100d5565b60405160029190910b81526020015b60405180910390f35b61008461007f36600461139f565b6101c7565b604051908152602001610068565b6100a56100a0366004611444565b610506565b604080519687526020870195909552938501929092526060840152608083015260020b60a082015260c001610068565b600080826001600160a01b031663e098372c6040518163ffffffff1660e01b815260040160206040518083038186803b15801561011157600080fd5b505afa158015610125573d6000803e3d6000fd5b505050506040513d601f19601f8201168201806040525081019061014991906112f4565b9050806001600160a01b03166380a0f76c6040518163ffffffff1660e01b815260040160606040518083038186803b15801561018457600080fd5b505afa158015610198573d6000803e3d6000fd5b505050506040513d601f19601f820116820180604052508101906101bc91906114f9565b602001519392505050565b60006101db82602001518360400151610989565b600082600001516001600160a01b031663e098372c6040518163ffffffff1660e01b815260040160206040518083038186803b15801561021a57600080fd5b505afa15801561022e573d6000803e3d6000fd5b505050506040513d601f19601f8201168201806040525081019061025291906112f4565b90506000816001600160a01b03166380a0f76c6040518163ffffffff1660e01b815260040160606040518083038186803b15801561028f57600080fd5b505afa1580156102a3573d6000803e3d6000fd5b505050506040513d601f19601f820116820180604052508101906102c791906114f9565b805160208601519192506001600160a01b03161515906000906102e990610a53565b905060006102fa8760400151610a53565b90508261039257600060028860400151896020015161031991906115ad565b6103239190611636565b9050600061033082610a53565b6040516323fbaf6f60e11b81526001600160a01b038083166004830152919250908816906347f75ede90602401600060405180830381600087803b15801561037757600080fd5b505af115801561038b573d6000803e3d6000fd5b5050505050505b60a0870151156103b8576103b88760000151886020015189604001518a60a00151610e65565b60006103c983838a60600151611003565b90506000965087608001511561046c5760208801516040808a01519051635c6651a760e11b81526001600160a01b0389169263b8cca34e926104139233929190879060040161157a565b602060405180830381600087803b15801561042d57600080fd5b505af1158015610441573d6000803e3d6000fd5b505050506040513d601f19601f820116820180604052508101906104659190611348565b96506104fb565b60208801516040808a01519051631f2f089360e01b81526001600160a01b03891692631f2f0893926104a69233929190879060040161157a565b602060405180830381600087803b1580156104c057600080fd5b505af11580156104d4573d6000803e3d6000fd5b505050506040513d601f19601f820116820180604052508101906104f89190611348565b96505b505050505050919050565b60008060008060008061052187608001518860a00151610989565b600087600001516001600160a01b031663e098372c6040518163ffffffff1660e01b815260040160206040518083038186803b15801561056057600080fd5b505afa158015610574573d6000803e3d6000fd5b505050506040513d601f19601f8201168201806040525081019061059891906112f4565b9050876080015160020b60001480156105b6575060a088015160020b155b15610727576000816001600160a01b031663d0c93a7c6040518163ffffffff1660e01b815260040160206040518083038186803b1580156105f657600080fd5b505afa15801561060a573d6000803e3d6000fd5b505050506040513d601f19601f8201168201806040525081019061062e919061132c565b90506000826001600160a01b03166380a0f76c6040518163ffffffff1660e01b815260040160606040518083038186803b15801561066b57600080fd5b505afa15801561067f573d6000803e3d6000fd5b505050506040513d601f19601f820116820180604052508101906106a391906114f9565b905060008282602001516106b791906116a3565b905060008383602001516106cb91906115ad565b905062010deb19600283900b12156106e55762010deb1991505b6106f262010deb19611726565b60020b8160020b131561070f5761070c62010deb19611726565b90505b600291820b820b60808d0152810b900b60a08b015250505b60c08801511561074d5761074d886000015189608001518a60a001518b60c00151610e65565b600088602001511561076d576107668960400151611056565b9050610786565b61077a8960400151611056565b61078390611747565b90505b60006040518060a00160405280336001600160a01b031681526020018381526020018b606001516001600160a01b03166000146107c7578b60600151610805565b8b60200151156107ee576107e960016c1fa71f3f5f68a90479ee3f8fec6116ea565b610805565b6108056b0816769404766de590afe04e60016115f3565b6001600160a01b031681526020018b6080015160020b81526020018b60a0015160020b8152509050826001600160a01b03166367758e6e826040518263ffffffff1660e01b81526004016108a09190600060a08201905060018060a01b038084511683526020840151602084015280604085015116604084015250606083015160020b6060830152608083015160020b608083015292915050565b60a060405180830381600087803b1580156108ba57600080fd5b505af11580156108ce573d6000803e3d6000fd5b505050506040513d601f19601f820116820180604052508101906108f29190611360565b809950819a50829b50839c50849d505050505050826001600160a01b03166380a0f76c6040518163ffffffff1660e01b815260040160606040518083038186803b15801561093f57600080fd5b505afa158015610953573d6000803e3d6000fd5b505050506040513d601f19601f8201168201806040525081019061097791906114f9565b60200151935050505091939550919395565b8060020b8260020b126109c95760405162461bcd60e51b8152602060048201526003602482015262544c5560e81b60448201526064015b60405180910390fd5b62010deb19600283900b1215610a075760405162461bcd60e51b8152602060048201526003602482015262544c4d60e81b60448201526064016109c0565b610a1462010deb19611726565b60020b8160020b1315610a4f5760405162461bcd60e51b815260206004820152600360248201526254554d60e81b60448201526064016109c0565b5050565b60008060008360020b12610a6a578260020b610a77565b8260020b610a7790611747565b9050610a8662010deb19611726565b60020b811115610abc5760405162461bcd60e51b81526020600482015260016024820152601560fa1b60448201526064016109c0565b600060018216610ad057600160801b610ae2565b6ffffcb933bd6fad37aa2d162d1a5940015b6001600160881b031690506002821615610b17576080610b12826ffff97272373d413259a46990580e213a611684565b901c90505b6004821615610b41576080610b3c826ffff2e50f5f656932ef12357cf3c7fdcc611684565b901c90505b6008821615610b6b576080610b66826fffe5caca7e10e4e61c3624eaa0941cd0611684565b901c90505b6010821615610b95576080610b90826fffcb9843d60f6159c9db58835c926644611684565b901c90505b6020821615610bbf576080610bba826fff973b41fa98c081472e6896dfb254c0611684565b901c90505b6040821615610be9576080610be4826fff2ea16466c96a3843ec78b326b52861611684565b901c90505b6080821615610c13576080610c0e826ffe5dee046a99a2a811c461f1969c3053611684565b901c90505b610100821615610c3e576080610c39826ffcbe86c7900a88aedcffc83b479aa3a4611684565b901c90505b610200821615610c69576080610c64826ff987a7253ac413176f2b074cf7815e54611684565b901c90505b610400821615610c94576080610c8f826ff3392b0822b70005940c7a398e4b70f3611684565b901c90505b610800821615610cbf576080610cba826fe7159475a2c29b7443b29c7fa6e889d9611684565b901c90505b611000821615610cea576080610ce5826fd097f3bdfd2022b8845ad8f792aa5825611684565b901c90505b612000821615610d15576080610d10826fa9f746462d870fdf8a65dc1f90e061e5611684565b901c90505b614000821615610d40576080610d3b826f70d869a156d2a1b890bb3df62baf32f7611684565b901c90505b618000821615610d6b576080610d66826f31be135f97d08fd981231505542fcfa6611684565b901c90505b62010000821615610d97576080610d92826f09aa508b5b7a84e1c677de54f3e99bc9611684565b901c90505b62020000821615610dc2576080610dbd826e5d6af8dedb81196699c329225ee604611684565b901c90505b62040000821615610dec576080610de7826d2216e584f5fa1ea926041bedfe98611684565b901c90505b62080000821615610e14576080610e0f826b048a170391f7dc42444e8fa2611684565b901c90505b60008460020b1315610e2f57610e2c81600019611670565b90505b610e3d600160201b82611712565b15610e49576001610e4c565b60005b610e5d9060ff16602083901c61161e565b949350505050565b6000846001600160a01b0316632495a5996040518163ffffffff1660e01b815260040160206040518083038186803b158015610ea057600080fd5b505afa158015610eb4573d6000803e3d6000fd5b505050506040513d601f19601f82011682018060405250810190610ed891906112f4565b9050610eef6001600160a01b0382163330856110c4565b60405163095ea7b360e01b81526001600160a01b0386811660048301526024820184905282169063095ea7b390604401602060405180830381600087803b158015610f3957600080fd5b505af1158015610f4d573d6000803e3d6000fd5b505050506040513d601f19601f82011682018060405250810190610f7191906112d8565b50846001600160a01b0316637717797f338686610f8d87611056565b6040516001600160e01b031960e087901b1681526001600160a01b039094166004850152600292830b6024850152910b60448301526064820152608401600060405180830381600087803b158015610fe457600080fd5b505af1158015610ff8573d6000803e3d6000fd5b505050505050505050565b6000826001600160a01b0316846001600160a01b03161115611023579192915b61104c61104783600160601b61103988886116ea565b6001600160a01b0316611158565b61126b565b90505b9392505050565b60006001600160ff1b038211156110c05760405162461bcd60e51b815260206004820152602860248201527f53616665436173743a2076616c756520646f65736e27742066697420696e2061604482015267371034b73a191a9b60c11b60648201526084016109c0565b5090565b60006040516323b872dd60e01b81526001600160a01b03851660048201526001600160a01b038416602482015282604482015260008060648360008a5af191505061110e81611286565b6111515760405162461bcd60e51b81526020600482015260146024820152731514905394d1915497d19493d357d1905253115160621b60448201526064016109c0565b5050505050565b6000808060001985870985870292508281108382030391505080600014156111c857600084116111bd5760405162461bcd60e51b815260206004820152601060248201526f4469766973696f6e206279207a65726f60801b60448201526064016109c0565b50829004905061104f565b8084116112025760405162461bcd60e51b81526020600482015260086024820152676f766572666c6f7760c01b60448201526064016109c0565b60008486880960026001871981018816978890046003810283188082028403028082028403028082028403028082028403028082028403029081029092039091026000889003889004909101858311909403939093029303949094049190911702949350505050565b806001600160801b038116811461128157600080fd5b919050565b60003d8261129857806000803e806000fd5b80602081146112b05780156112c157600092506112c6565b816000803e600051151592506112c6565b600192505b5050919050565b8035611281816117b3565b6000602082840312156112e9578081fd5b815161104f8161178d565b600060208284031215611305578081fd5b815161104f8161179e565b600060208284031215611321578081fd5b813561104f8161179e565b60006020828403121561133d578081fd5b815161104f816117b3565b600060208284031215611359578081fd5b5051919050565b600080600080600060a08688031215611377578081fd5b5050835160208501516040860151606087015160809097015192989197509594509092509050565b600060c082840312156113b0578081fd5b60405160c081016001600160401b03811182821017156113de57634e487b7160e01b83526041600452602483fd5b60405282356113ec8161179e565b815260208301356113fc816117b3565b6020820152604083013561140f816117b3565b604082015260608381013590820152608083013561142c8161178d565b608082015260a0928301359281019290925250919050565b600060e08284031215611455578081fd5b60405160e081016001600160401b038111828210171561148357634e487b7160e01b83526041600452602483fd5b60405282356114918161179e565b815260208301356114a18161178d565b60208201526040838101359082015260608301356114be8161179e565b60608201526114cf608084016112cd565b60808201526114e060a084016112cd565b60a082015260c083013560c08201528091505092915050565b60006060828403121561150a578081fd5b604051606081016001600160401b038111828210171561153857634e487b7160e01b83526041600452602483fd5b60405282516115468161179e565b81526020830151611556816117b3565b6020820152604083015160ff8116811461156e578283fd5b60408201529392505050565b6001600160a01b03949094168452600292830b6020850152910b60408301526001600160801b0316606082015260800190565b60008160020b8360020b82821282627fffff038213811516156115d2576115d2611761565b82627fffff190382128116156115ea576115ea611761565b50019392505050565b60006001600160a01b0382811684821680830382111561161557611615611761565b01949350505050565b6000821982111561163157611631611761565b500190565b60008160020b8360020b8061164d5761164d611777565b627fffff1982146000198214161561166757611667611761565b90059392505050565b60008261167f5761167f611777565b500490565b600081600019048311821515161561169e5761169e611761565b500290565b60008160020b8360020b82811281627fffff19018312811516156116c9576116c9611761565b81627fffff0183138116156116e0576116e0611761565b5090039392505050565b60006001600160a01b038381169083168181101561170a5761170a611761565b039392505050565b60008261172157611721611777565b500690565b60008160020b627fffff1981141561174057611740611761565b9003919050565b6000600160ff1b82141561175d5761175d611761565b0390565b634e487b7160e01b600052601160045260246000fd5b634e487b7160e01b600052601260045260246000fd5b801515811461179b57600080fd5b50565b6001600160a01b038116811461179b57600080fd5b8060020b811461179b57600080fdfea264697066735822122077ed06a30e642db1bcbc0adeef0d2dc256dcecae31d92d8b78da692c4f74252064736f6c63430008040033",
  "devdoc": {
    "errors": {
      "AavePoolGetReserveNormalizedIncomeReturnedZero()": [
        {
          "details": "getReserveNormalizedIncome() returned zero for underlying asset. Oracle only supports active Aave-V2 assets."
        }
      ],
      "CanOnlyTradeIfUnlocked(bool)": [
        {
          "details": "Error which ensures the VAMM is unlocked"
        }
      ],
      "ExpectedOppositeSigns(int256,int256)": [
        {
          "details": "The two values were expected to have oppostite sigs, but do not"
        }
      ],
      "ExpectedSqrtPriceZeroBeforeInit(uint160)": [
        {
          "details": "Error which is reverted if the sqrt price of the vamm is non-zero before a vamm is initialized"
        }
      ],
      "IRSNotionalAmountSpecifiedMustBeNonZero()": [
        {
          "details": "Error which ensures the amount of notional specified when initiating an IRS contract (via the swap function in the vamm) is non-zero"
        }
      ],
      "LiquidityDeltaMustBePositiveInBurn(uint128)": [
        {
          "details": "Error which ensures the liquidity delta is positive if a given LP wishes to burn liquidity in the vamm"
        }
      ],
      "LiquidityDeltaMustBePositiveInMint(uint128)": [
        {
          "details": "Error which ensures the liquidity delta is positive if a given LP wishes to mint further liquidity in the vamm"
        }
      ],
      "MarginLessThanMinimum(int256)": [
        {
          "details": "Cannot have less margin than the minimum requirement"
        }
      ],
      "NotEnoughFunds(uint256,uint256)": [
        {
          "details": "There are not enough funds available for the requested operation"
        }
      ],
      "OOO()": [
        {
          "details": "currentTime < queriedTime"
        }
      ],
      "OnlyMarginEngine()": [
        {
          "details": "only the margin engine can run a certain function"
        }
      ],
      "PositionNetZero()": [
        {
          "details": "No need to unwind a net zero position"
        }
      ],
      "PositionNotSettled()": [
        {
          "details": "Position must be settled after AMM has reached maturity"
        }
      ],
      "WithdrawalExceedsCurrentMargin()": [
        {
          "details": "We can't withdraw more margin than we have"
        }
      ]
    },
    "kind": "dev",
    "methods": {},
    "version": 1
  },
  "userdoc": {
    "errors": {
      "CannotLiquidate(uint256)": [
        {
          "notice": "The position/trader needs to be below the liquidation threshold to be liquidated"
        }
      ],
      "CannotSettleBeforeMaturity()": [
        {
          "notice": "Positions and Traders cannot be settled before the applicable interest rate swap has matured"
        }
      ],
      "InvalidMarginDelta()": [
        {
          "notice": "Margin delta must not equal zero"
        }
      ],
      "MarginRequirementNotMet(int256,int24,int256,int256,uint256,int256)": [
        {
          "notice": "The resulting margin does not meet minimum requirements"
        }
      ],
      "MarginRequirementNotMetFCM(int256)": [
        {
          "notice": "The resulting margin does not meet minimum requirements"
        }
      ],
      "OnlyOwnerCanUpdatePosition()": [
        {
          "notice": "Only the position/trade owner can update the LP/Trader margin"
        }
      ]
    },
    "kind": "user",
    "methods": {
      "mintOrBurn((address,int24,int24,uint256,bool,uint256))": {
        "notice": "Add liquidity to an initialized pool"
      }
    },
    "version": 1
  },
  "storageLayout": {
    "storage": [],
    "types": null
  }
}