{
  "address": "0x13E9053D9090ed6a1FAE3f59f9bD3C1FCa4c5726",
  "abi": [
    {
      "inputs": [
        {
          "internalType": "bool",
          "name": "unlocked",
          "type": "bool"
        }
      ],
      "name": "CanOnlyTradeIfUnlocked",
      "type": "error"
    },
    {
      "inputs": [
        {
          "internalType": "uint256",
          "name": "marginRequirement",
          "type": "uint256"
        }
      ],
      "name": "CannotLiquidate",
      "type": "error"
    },
    {
      "inputs": [],
      "name": "CannotSettleBeforeMaturity",
      "type": "error"
    },
    {
      "inputs": [
        {
          "internalType": "int256",
          "name": "amount0",
          "type": "int256"
        },
        {
          "internalType": "int256",
          "name": "amount1",
          "type": "int256"
        }
      ],
      "name": "ExpectedOppositeSigns",
      "type": "error"
    },
    {
      "inputs": [
        {
          "internalType": "uint160",
          "name": "sqrtPriceX96",
          "type": "uint160"
        }
      ],
      "name": "ExpectedSqrtPriceZeroBeforeInit",
      "type": "error"
    },
    {
      "inputs": [
        {
          "internalType": "int256",
          "name": "amountSpecified",
          "type": "int256"
        }
      ],
      "name": "IRSNotionalAmountSpecifiedMustBeNonZero",
      "type": "error"
    },
    {
      "inputs": [],
      "name": "InvalidMarginDelta",
      "type": "error"
    },
    {
      "inputs": [
        {
          "internalType": "uint128",
          "name": "amount",
          "type": "uint128"
        }
      ],
      "name": "LiquidityDeltaMustBePositiveInBurn",
      "type": "error"
    },
    {
      "inputs": [
        {
          "internalType": "uint128",
          "name": "amount",
          "type": "uint128"
        }
      ],
      "name": "LiquidityDeltaMustBePositiveInMint",
      "type": "error"
    },
    {
      "inputs": [
        {
          "internalType": "int256",
          "name": "marginRequirement",
          "type": "int256"
        }
      ],
      "name": "MarginLessThanMinimum",
      "type": "error"
    },
    {
      "inputs": [
        {
          "internalType": "int256",
          "name": "marginRequirement",
          "type": "int256"
        },
        {
          "internalType": "int24",
          "name": "tick",
          "type": "int24"
        },
        {
          "internalType": "int256",
          "name": "fixedTokenDelta",
          "type": "int256"
        },
        {
          "internalType": "int256",
          "name": "variableTokenDelta",
          "type": "int256"
        },
        {
          "internalType": "uint256",
          "name": "cumulativeFeeIncurred",
          "type": "uint256"
        },
        {
          "internalType": "int256",
          "name": "fixedTokenDeltaUnbalanced",
          "type": "int256"
        }
      ],
      "name": "MarginRequirementNotMet",
      "type": "error"
    },
    {
      "inputs": [
        {
          "internalType": "uint256",
          "name": "requested",
          "type": "uint256"
        },
        {
          "internalType": "uint256",
          "name": "available",
          "type": "uint256"
        }
      ],
      "name": "NotEnoughFunds",
      "type": "error"
    },
    {
      "inputs": [],
      "name": "OnlyFCM",
      "type": "error"
    },
    {
      "inputs": [],
      "name": "OnlyMarginEngine",
      "type": "error"
    },
    {
      "inputs": [],
      "name": "OnlyOwnerCanUpdatePosition",
      "type": "error"
    },
    {
      "inputs": [],
      "name": "OnlyVAMM",
      "type": "error"
    },
    {
      "inputs": [],
      "name": "PositionNetZero",
      "type": "error"
    },
    {
      "inputs": [],
      "name": "PositionNotSettled",
      "type": "error"
    },
    {
      "inputs": [],
      "name": "WithdrawalExceedsCurrentMargin",
      "type": "error"
    },
    {
      "inputs": [],
      "name": "closeToOrBeyondMaturity",
      "type": "error"
    },
    {
      "inputs": [
        {
          "internalType": "address",
          "name": "marginEngineAddress",
          "type": "address"
        }
      ],
      "name": "getMarginEngine",
      "outputs": [
        {
          "internalType": "contract IMarginEngine",
          "name": "",
          "type": "address"
        }
      ],
      "stateMutability": "pure",
      "type": "function"
    },
    {
      "inputs": [
        {
          "internalType": "address",
          "name": "marginEngineAddress",
          "type": "address"
        }
      ],
      "name": "getVAMM",
      "outputs": [
        {
          "internalType": "contract IVAMM",
          "name": "",
          "type": "address"
        }
      ],
      "stateMutability": "view",
      "type": "function"
    },
    {
      "inputs": [
        {
          "components": [
            {
              "internalType": "address",
              "name": "marginEngineAddress",
              "type": "address"
            },
            {
              "internalType": "address",
              "name": "recipient",
              "type": "address"
            },
            {
              "internalType": "int24",
              "name": "tickLower",
              "type": "int24"
            },
            {
              "internalType": "int24",
              "name": "tickUpper",
              "type": "int24"
            },
            {
              "internalType": "uint256",
              "name": "notional",
              "type": "uint256"
            },
            {
              "internalType": "bool",
              "name": "isMint",
              "type": "bool"
            }
          ],
          "internalType": "struct IPeriphery.MintOrBurnParams",
          "name": "params",
          "type": "tuple"
        }
      ],
      "name": "mintOrBurn",
      "outputs": [
        {
          "internalType": "int256",
          "name": "positionMarginRequirement",
          "type": "int256"
        }
      ],
      "stateMutability": "nonpayable",
      "type": "function"
    },
    {
      "inputs": [
        {
          "components": [
            {
              "internalType": "address",
              "name": "marginEngineAddress",
              "type": "address"
            },
            {
              "internalType": "address",
              "name": "recipient",
              "type": "address"
            },
            {
              "internalType": "bool",
              "name": "isFT",
              "type": "bool"
            },
            {
              "internalType": "uint256",
              "name": "notional",
              "type": "uint256"
            },
            {
              "internalType": "uint160",
              "name": "sqrtPriceLimitX96",
              "type": "uint160"
            },
            {
              "internalType": "int24",
              "name": "tickLower",
              "type": "int24"
            },
            {
              "internalType": "int24",
              "name": "tickUpper",
              "type": "int24"
            }
          ],
          "internalType": "struct IPeriphery.SwapPeripheryParams",
          "name": "params",
          "type": "tuple"
        }
      ],
      "name": "swap",
      "outputs": [
        {
          "internalType": "int256",
          "name": "_fixedTokenDelta",
          "type": "int256"
        },
        {
          "internalType": "int256",
          "name": "_variableTokenDelta",
          "type": "int256"
        },
        {
          "internalType": "uint256",
          "name": "_cumulativeFeeIncurred",
          "type": "uint256"
        },
        {
          "internalType": "int256",
          "name": "_fixedTokenDeltaUnbalanced",
          "type": "int256"
        },
        {
          "internalType": "int256",
          "name": "_marginRequirement",
          "type": "int256"
        }
      ],
      "stateMutability": "nonpayable",
      "type": "function"
    }
  ],
  "transactionHash": "0x668f2746a412c74de29655838b9fb41cd3f0c2fd33667bb6ab8acafbfc8ef240",
  "args": [],
  "numDeployments": 1,
  "solcInputHash": "d28da3b9022e0b435e35096f552ed6ae",
  "bytecode": "0x608060405234801561001057600080fd5b50610f51806100206000396000f3fe608060405234801561001057600080fd5b506004361061004c5760003560e01c80630ccba0af146100515780630ebc11a91461007f5780633ec0a1a1146100ba578063add915c9146100cd575b600080fd5b61006261005f366004610b65565b90565b6040516001600160a01b0390911681526020015b60405180910390f35b61009261008d366004610cba565b6100ee565b604080519586526020860194909452928401919091526060830152608082015260a001610076565b6100626100c8366004610b65565b610382565b6100e06100db366004610c10565b610403565b604051908152602001610076565b600080600080600085602001516001600160a01b0316336001600160a01b0316146101345760405162461bcd60e51b815260040161012b90610da6565b60405180910390fd5b60006101438760000151610382565b9050600087604001511561015c5750606087015161016d565b876060015161016a90610eae565b90505b6000826001600160a01b031663d0c93a7c6040518163ffffffff1660e01b815260040160206040518083038186803b1580156101a857600080fd5b505afa1580156101bc573d6000803e3d6000fd5b505050506040513d601f19601f820116820180604052508101906101e09190610b9d565b905060006040518060a00160405280336001600160a01b031681526020018481526020018b608001516001600160a01b0316600014610223578b60800151610261565b8b604001511561024a5761024560016c1fa71f3f5f68a90479ee3f8fec610e51565b610261565b6102616b0816769404766de590afe04e6001610ddb565b6001600160a01b031681526020018b60a0015160020b600014610288578b60a00151610291565b61029184610e8d565b60020b81526020018b60c0015160020b6000146102b2578b60c001516102b4565b835b600290810b909152604080516333bac73760e11b815283516001600160a01b0390811660048301526020850151602483015291840151821660448201526060840151830b6064820152608084015190920b6084830152919250908516906367758e6e9060a40160a060405180830381600087803b15801561033457600080fd5b505af1158015610348573d6000803e3d6000fd5b505050506040513d601f19601f8201168201806040525081019061036c9190610bd1565b939e929d50909b50995090975095505050505050565b6000808290506000816001600160a01b031663e098372c6040518163ffffffff1660e01b815260040160206040518083038186803b1580156103c357600080fd5b505afa1580156103d7573d6000803e3d6000fd5b505050506040513d601f19601f820116820180604052508101906103fb9190610b81565b949350505050565b600081602001516001600160a01b0316336001600160a01b03161461043a5760405162461bcd60e51b815260040161012b90610da6565b60006104498360000151610382565b9050600061045a84604001516105bf565b9050600061046b85606001516105bf565b9050600061047e838388608001516109c9565b9050600094508560a001511561052457602086015160408088015160608901519151635c6651a760e11b81526001600160a01b0388169363b8cca34e936104cb9391928790600401610d73565b602060405180830381600087803b1580156104e557600080fd5b505af11580156104f9573d6000803e3d6000fd5b505050506040513d601f19601f8201168201806040525081019061051d9190610bb9565b94506105b6565b602086015160408088015160608901519151631f2f089360e01b81526001600160a01b03881693631f2f0893936105619391928790600401610d73565b602060405180830381600087803b15801561057b57600080fd5b505af115801561058f573d6000803e3d6000fd5b505050506040513d601f19601f820116820180604052508101906105b39190610bb9565b94505b50505050919050565b60008060008360020b126105d6578260020b6105e3565b8260020b6105e390610eae565b90506105f262010deb19610e8d565b60020b8111156106285760405162461bcd60e51b81526020600482015260016024820152601560fa1b604482015260640161012b565b60006001821661063c57600160801b61064e565b6ffffcb933bd6fad37aa2d162d1a5940015b6001600160881b03169050600282161561068357608061067e826ffff97272373d413259a46990580e213a610e32565b901c90505b60048216156106ad5760806106a8826ffff2e50f5f656932ef12357cf3c7fdcc610e32565b901c90505b60088216156106d75760806106d2826fffe5caca7e10e4e61c3624eaa0941cd0610e32565b901c90505b60108216156107015760806106fc826fffcb9843d60f6159c9db58835c926644610e32565b901c90505b602082161561072b576080610726826fff973b41fa98c081472e6896dfb254c0610e32565b901c90505b6040821615610755576080610750826fff2ea16466c96a3843ec78b326b52861610e32565b901c90505b608082161561077f57608061077a826ffe5dee046a99a2a811c461f1969c3053610e32565b901c90505b6101008216156107aa5760806107a5826ffcbe86c7900a88aedcffc83b479aa3a4610e32565b901c90505b6102008216156107d55760806107d0826ff987a7253ac413176f2b074cf7815e54610e32565b901c90505b6104008216156108005760806107fb826ff3392b0822b70005940c7a398e4b70f3610e32565b901c90505b61080082161561082b576080610826826fe7159475a2c29b7443b29c7fa6e889d9610e32565b901c90505b611000821615610856576080610851826fd097f3bdfd2022b8845ad8f792aa5825610e32565b901c90505b61200082161561088157608061087c826fa9f746462d870fdf8a65dc1f90e061e5610e32565b901c90505b6140008216156108ac5760806108a7826f70d869a156d2a1b890bb3df62baf32f7610e32565b901c90505b6180008216156108d75760806108d2826f31be135f97d08fd981231505542fcfa6610e32565b901c90505b620100008216156109035760806108fe826f09aa508b5b7a84e1c677de54f3e99bc9610e32565b901c90505b6202000082161561092e576080610929826e5d6af8dedb81196699c329225ee604610e32565b901c90505b62040000821615610958576080610953826d2216e584f5fa1ea926041bedfe98610e32565b901c90505b6208000082161561098057608061097b826b048a170391f7dc42444e8fa2610e32565b901c90505b60008460020b131561099b5761099881600019610e1e565b90505b6109a9600160201b82610e79565b156109b55760016109b8565b60005b6103fb9060ff16602083901c610e06565b6000826001600160a01b0316846001600160a01b031611156109e9579192915b610a12610a0d83600160601b6109ff8888610e51565b6001600160a01b0316610a1c565b610b2f565b90505b9392505050565b600080806000198587098587029250828110838203039150508060001415610a8c5760008411610a815760405162461bcd60e51b815260206004820152601060248201526f4469766973696f6e206279207a65726f60801b604482015260640161012b565b508290049050610a15565b808411610ac65760405162461bcd60e51b81526020600482015260086024820152676f766572666c6f7760c01b604482015260640161012b565b60008486880960026001871981018816978890046003810283188082028403028082028403028082028403028082028403028082028403029081029092039091026000889003889004909101858311909403939093029303949094049190911702949350505050565b806001600160801b0381168114610b4557600080fd5b919050565b80358015158114610b4557600080fd5b8035610b4581610f0c565b600060208284031215610b76578081fd5b8135610a1581610ef4565b600060208284031215610b92578081fd5b8151610a1581610ef4565b600060208284031215610bae578081fd5b8151610a1581610f0c565b600060208284031215610bca578081fd5b5051919050565b600080600080600060a08688031215610be8578081fd5b5050835160208501516040860151606087015160809097015192989197509594509092509050565b600060c08284031215610c21578081fd5b60405160c081016001600160401b0381118282101715610c4f57634e487b7160e01b83526041600452602483fd5b6040528235610c5d81610ef4565b81526020830135610c6d81610ef4565b60208201526040830135610c8081610f0c565b60408201526060830135610c9381610f0c565b606082015260808381013590820152610cae60a08401610b4a565b60a08201529392505050565b600060e08284031215610ccb578081fd5b60405160e081016001600160401b0381118282101715610cf957634e487b7160e01b83526041600452602483fd5b6040528235610d0781610ef4565b81526020830135610d1781610ef4565b6020820152610d2860408401610b4a565b6040820152606083013560608201526080830135610d4581610ef4565b6080820152610d5660a08401610b5a565b60a0820152610d6760c08401610b5a565b60c08201529392505050565b6001600160a01b03949094168452600292830b6020850152910b60408301526001600160801b0316606082015260800190565b6020808252818101527f6d73672e73656e646572206d7573742062652074686520726563697069656e74604082015260600190565b60006001600160a01b03828116848216808303821115610dfd57610dfd610ec8565b01949350505050565b60008219821115610e1957610e19610ec8565b500190565b600082610e2d57610e2d610ede565b500490565b6000816000190483118215151615610e4c57610e4c610ec8565b500290565b60006001600160a01b0383811690831681811015610e7157610e71610ec8565b039392505050565b600082610e8857610e88610ede565b500690565b60008160020b627fffff19811415610ea757610ea7610ec8565b9003919050565b6000600160ff1b821415610ec457610ec4610ec8565b0390565b634e487b7160e01b600052601160045260246000fd5b634e487b7160e01b600052601260045260246000fd5b6001600160a01b0381168114610f0957600080fd5b50565b8060020b8114610f0957600080fdfea2646970667358221220ded64acfe7b2ed355e29940d24b691d01c97d555852008026251c040df2c2e4c64736f6c63430008040033",
  "devdoc": {
    "errors": {
      "CanOnlyTradeIfUnlocked(bool)": [
        {
          "details": "Error which ensures the VAMM is unlocked"
        }
      ],
      "ExpectedOppositeSigns(int256,int256)": [
        {
          "details": "The two values were expected to have oppostite sigs, but do not"
        }
      ],
      "ExpectedSqrtPriceZeroBeforeInit(uint160)": [
        {
          "details": "Error which is reverted if the sqrt price of the vamm is non-zero before a vamm is initialized"
        }
      ],
      "IRSNotionalAmountSpecifiedMustBeNonZero(int256)": [
        {
          "details": "Error which ensures the amount of notional specified when initiating an IRS contract (via the swap function in the vamm) is non-zero"
        }
      ],
      "LiquidityDeltaMustBePositiveInBurn(uint128)": [
        {
          "details": "Error which ensures the liquidity delta is positive if a given LP wishes to burn liquidity in the vamm"
        }
      ],
      "LiquidityDeltaMustBePositiveInMint(uint128)": [
        {
          "details": "Error which ensures the liquidity delta is positive if a given LP wishes to mint further liquidity in the vamm"
        }
      ],
      "MarginLessThanMinimum(int256)": [
        {
          "details": "Cannot have less margin than the minimum requirement"
        }
      ],
      "NotEnoughFunds(uint256,uint256)": [
        {
          "details": "There are not enough funds available for the requested operation"
        }
      ],
      "OnlyMarginEngine()": [
        {
          "details": "only the margin engine can run a certain function"
        }
      ],
      "PositionNetZero()": [
        {
          "details": "No need to unwind a net zero position"
        }
      ],
      "PositionNotSettled()": [
        {
          "details": "Position must be settled after AMM has reached maturity"
        }
      ],
      "WithdrawalExceedsCurrentMargin()": [
        {
          "details": "We can't withdraw more margin than we have"
        }
      ]
    },
    "kind": "dev",
    "methods": {},
    "version": 1
  },
  "userdoc": {
    "errors": {
      "CannotLiquidate(uint256)": [
        {
          "notice": "The position/trader needs to be below the liquidation threshold to be liquidated"
        }
      ],
      "CannotSettleBeforeMaturity()": [
        {
          "notice": "Positions and Traders cannot be settled before the applicable interest rate swap has matured"
        }
      ],
      "InvalidMarginDelta()": [
        {
          "notice": "Margin delta must not equal zero"
        }
      ],
      "MarginRequirementNotMet(int256,int24,int256,int256,uint256,int256)": [
        {
          "notice": "The resulting margin does not meet minimum requirements"
        }
      ],
      "OnlyOwnerCanUpdatePosition()": [
        {
          "notice": "Only the position/trade owner can update the LP/Trader margin"
        }
      ]
    },
    "kind": "user",
    "methods": {
      "mintOrBurn((address,address,int24,int24,uint256,bool))": {
        "notice": "Add liquidity to an initialized pool"
      }
    },
    "version": 1
  },
  "storageLayout": {
    "storage": [],
    "types": null
  }
}