{
  "address": "0x36E3d9E6f22D9E02039FA6ec1CD073216E4D3E8C",
  "abi": [
    {
      "inputs": [],
      "stateMutability": "nonpayable",
      "type": "constructor"
    },
    {
      "inputs": [],
      "name": "AmountSignsSame",
      "type": "error"
    },
    {
      "inputs": [
        {
          "internalType": "bool",
          "name": "unlocked",
          "type": "bool"
        }
      ],
      "name": "CanOnlyTradeIfUnlocked",
      "type": "error"
    },
    {
      "inputs": [
        {
          "internalType": "int256",
          "name": "amount0",
          "type": "int256"
        },
        {
          "internalType": "int256",
          "name": "amount1",
          "type": "int256"
        }
      ],
      "name": "ExpectedOppositeSigns",
      "type": "error"
    },
    {
      "inputs": [
        {
          "internalType": "uint160",
          "name": "sqrtPriceX96",
          "type": "uint160"
        }
      ],
      "name": "ExpectedSqrtPriceZeroBeforeInit",
      "type": "error"
    },
    {
      "inputs": [
        {
          "internalType": "int256",
          "name": "amountSpecified",
          "type": "int256"
        }
      ],
      "name": "IRSNotionalAmountSpecifiedMustBeNonZero",
      "type": "error"
    },
    {
      "inputs": [
        {
          "internalType": "uint128",
          "name": "amount",
          "type": "uint128"
        }
      ],
      "name": "LiquidityDeltaMustBePositiveInBurn",
      "type": "error"
    },
    {
      "inputs": [
        {
          "internalType": "uint128",
          "name": "amount",
          "type": "uint128"
        }
      ],
      "name": "LiquidityDeltaMustBePositiveInMint",
      "type": "error"
    },
    {
      "inputs": [
        {
          "internalType": "uint256",
          "name": "requested",
          "type": "uint256"
        },
        {
          "internalType": "uint256",
          "name": "available",
          "type": "uint256"
        }
      ],
      "name": "NotEnoughFunds",
      "type": "error"
    },
    {
      "inputs": [],
      "name": "OnlyMarginEngine",
      "type": "error"
    },
    {
      "inputs": [],
      "name": "PRBMathSD59x18__DivInputTooSmall",
      "type": "error"
    },
    {
      "inputs": [
        {
          "internalType": "uint256",
          "name": "rAbs",
          "type": "uint256"
        }
      ],
      "name": "PRBMathSD59x18__DivOverflow",
      "type": "error"
    },
    {
      "inputs": [
        {
          "internalType": "int256",
          "name": "x",
          "type": "int256"
        }
      ],
      "name": "PRBMathSD59x18__FromIntOverflow",
      "type": "error"
    },
    {
      "inputs": [
        {
          "internalType": "int256",
          "name": "x",
          "type": "int256"
        }
      ],
      "name": "PRBMathSD59x18__FromIntUnderflow",
      "type": "error"
    },
    {
      "inputs": [],
      "name": "PRBMathSD59x18__MulInputTooSmall",
      "type": "error"
    },
    {
      "inputs": [
        {
          "internalType": "uint256",
          "name": "rAbs",
          "type": "uint256"
        }
      ],
      "name": "PRBMathSD59x18__MulOverflow",
      "type": "error"
    },
    {
      "inputs": [
        {
          "internalType": "uint256",
          "name": "x",
          "type": "uint256"
        }
      ],
      "name": "PRBMathUD60x18__FromUintOverflow",
      "type": "error"
    },
    {
      "inputs": [
        {
          "internalType": "uint256",
          "name": "prod1",
          "type": "uint256"
        }
      ],
      "name": "PRBMath__MulDivFixedPointOverflow",
      "type": "error"
    },
    {
      "inputs": [
        {
          "internalType": "uint256",
          "name": "prod1",
          "type": "uint256"
        },
        {
          "internalType": "uint256",
          "name": "denominator",
          "type": "uint256"
        }
      ],
      "name": "PRBMath__MulDivOverflow",
      "type": "error"
    },
    {
      "anonymous": false,
      "inputs": [
        {
          "indexed": false,
          "internalType": "address",
          "name": "sender",
          "type": "address"
        },
        {
          "indexed": true,
          "internalType": "address",
          "name": "owner",
          "type": "address"
        },
        {
          "indexed": true,
          "internalType": "int24",
          "name": "tickLower",
          "type": "int24"
        },
        {
          "indexed": true,
          "internalType": "int24",
          "name": "tickUpper",
          "type": "int24"
        },
        {
          "indexed": false,
          "internalType": "uint128",
          "name": "amount",
          "type": "uint128"
        }
      ],
      "name": "Burn",
      "type": "event"
    },
    {
      "anonymous": false,
      "inputs": [
        {
          "indexed": false,
          "internalType": "uint256",
          "name": "feeWadOld",
          "type": "uint256"
        },
        {
          "indexed": false,
          "internalType": "uint256",
          "name": "feeWad",
          "type": "uint256"
        }
      ],
      "name": "FeeSet",
      "type": "event"
    },
    {
      "anonymous": false,
      "inputs": [
        {
          "indexed": false,
          "internalType": "uint160",
          "name": "sqrtPriceX96",
          "type": "uint160"
        },
        {
          "indexed": false,
          "internalType": "int24",
          "name": "tick",
          "type": "int24"
        }
      ],
      "name": "InitializeVAMM",
      "type": "event"
    },
    {
      "anonymous": false,
      "inputs": [
        {
          "indexed": false,
          "internalType": "address",
          "name": "sender",
          "type": "address"
        },
        {
          "indexed": true,
          "internalType": "address",
          "name": "owner",
          "type": "address"
        },
        {
          "indexed": true,
          "internalType": "int24",
          "name": "tickLower",
          "type": "int24"
        },
        {
          "indexed": true,
          "internalType": "int24",
          "name": "tickUpper",
          "type": "int24"
        },
        {
          "indexed": false,
          "internalType": "uint128",
          "name": "amount",
          "type": "uint128"
        }
      ],
      "name": "Mint",
      "type": "event"
    },
    {
      "anonymous": false,
      "inputs": [
        {
          "indexed": true,
          "internalType": "address",
          "name": "previousOwner",
          "type": "address"
        },
        {
          "indexed": true,
          "internalType": "address",
          "name": "newOwner",
          "type": "address"
        }
      ],
      "name": "OwnershipTransferred",
      "type": "event"
    },
    {
      "anonymous": false,
      "inputs": [
        {
          "indexed": false,
          "internalType": "address",
          "name": "account",
          "type": "address"
        }
      ],
      "name": "Paused",
      "type": "event"
    },
    {
      "anonymous": false,
      "inputs": [
        {
          "indexed": false,
          "internalType": "uint8",
          "name": "feeProtocolOld",
          "type": "uint8"
        },
        {
          "indexed": false,
          "internalType": "uint8",
          "name": "feeProtocol",
          "type": "uint8"
        }
      ],
      "name": "SetFeeProtocol",
      "type": "event"
    },
    {
      "anonymous": false,
      "inputs": [
        {
          "indexed": true,
          "internalType": "address",
          "name": "sender",
          "type": "address"
        },
        {
          "indexed": true,
          "internalType": "address",
          "name": "recipient",
          "type": "address"
        },
        {
          "indexed": false,
          "internalType": "uint160",
          "name": "sqrtPriceX96",
          "type": "uint160"
        },
        {
          "indexed": false,
          "internalType": "uint128",
          "name": "liquidity",
          "type": "uint128"
        },
        {
          "indexed": false,
          "internalType": "int24",
          "name": "tick",
          "type": "int24"
        },
        {
          "indexed": false,
          "internalType": "int24",
          "name": "tickLower",
          "type": "int24"
        },
        {
          "indexed": false,
          "internalType": "int24",
          "name": "tickUpper",
          "type": "int24"
        }
      ],
      "name": "Swap",
      "type": "event"
    },
    {
      "anonymous": false,
      "inputs": [
        {
          "indexed": false,
          "internalType": "address",
          "name": "account",
          "type": "address"
        }
      ],
      "name": "Unpaused",
      "type": "event"
    },
    {
      "inputs": [
        {
          "internalType": "address",
          "name": "recipient",
          "type": "address"
        },
        {
          "internalType": "int24",
          "name": "tickLower",
          "type": "int24"
        },
        {
          "internalType": "int24",
          "name": "tickUpper",
          "type": "int24"
        },
        {
          "internalType": "uint128",
          "name": "amount",
          "type": "uint128"
        }
      ],
      "name": "burn",
      "outputs": [],
      "stateMutability": "nonpayable",
      "type": "function"
    },
    {
      "inputs": [
        {
          "internalType": "int24",
          "name": "tickLower",
          "type": "int24"
        },
        {
          "internalType": "int24",
          "name": "tickUpper",
          "type": "int24"
        }
      ],
      "name": "computeGrowthInside",
      "outputs": [
        {
          "internalType": "int256",
          "name": "fixedTokenGrowthInsideX128",
          "type": "int256"
        },
        {
          "internalType": "int256",
          "name": "variableTokenGrowthInsideX128",
          "type": "int256"
        },
        {
          "internalType": "uint256",
          "name": "feeGrowthInsideX128",
          "type": "uint256"
        }
      ],
      "stateMutability": "view",
      "type": "function"
    },
    {
      "inputs": [],
      "name": "factory",
      "outputs": [
        {
          "internalType": "contract IFactory",
          "name": "",
          "type": "address"
        }
      ],
      "stateMutability": "view",
      "type": "function"
    },
    {
      "inputs": [],
      "name": "feeGrowthGlobalX128",
      "outputs": [
        {
          "internalType": "uint256",
          "name": "",
          "type": "uint256"
        }
      ],
      "stateMutability": "view",
      "type": "function"
    },
    {
      "inputs": [],
      "name": "feeWad",
      "outputs": [
        {
          "internalType": "uint256",
          "name": "",
          "type": "uint256"
        }
      ],
      "stateMutability": "view",
      "type": "function"
    },
    {
      "inputs": [],
      "name": "fixedTokenGrowthGlobalX128",
      "outputs": [
        {
          "internalType": "int256",
          "name": "",
          "type": "int256"
        }
      ],
      "stateMutability": "view",
      "type": "function"
    },
    {
      "inputs": [
        {
          "internalType": "address",
          "name": "_marginEngineAddress",
          "type": "address"
        },
        {
          "internalType": "int24",
          "name": "_tickSpacing",
          "type": "int24"
        }
      ],
      "name": "initialize",
      "outputs": [],
      "stateMutability": "nonpayable",
      "type": "function"
    },
    {
      "inputs": [
        {
          "internalType": "uint160",
          "name": "sqrtPriceX96",
          "type": "uint160"
        }
      ],
      "name": "initializeVAMM",
      "outputs": [],
      "stateMutability": "nonpayable",
      "type": "function"
    },
    {
      "inputs": [],
      "name": "liquidity",
      "outputs": [
        {
          "internalType": "uint128",
          "name": "",
          "type": "uint128"
        }
      ],
      "stateMutability": "view",
      "type": "function"
    },
    {
      "inputs": [],
      "name": "marginEngine",
      "outputs": [
        {
          "internalType": "contract IMarginEngine",
          "name": "",
          "type": "address"
        }
      ],
      "stateMutability": "view",
      "type": "function"
    },
    {
      "inputs": [],
      "name": "maxLiquidityPerTick",
      "outputs": [
        {
          "internalType": "uint128",
          "name": "",
          "type": "uint128"
        }
      ],
      "stateMutability": "view",
      "type": "function"
    },
    {
      "inputs": [
        {
          "internalType": "address",
          "name": "recipient",
          "type": "address"
        },
        {
          "internalType": "int24",
          "name": "tickLower",
          "type": "int24"
        },
        {
          "internalType": "int24",
          "name": "tickUpper",
          "type": "int24"
        },
        {
          "internalType": "uint128",
          "name": "amount",
          "type": "uint128"
        }
      ],
      "name": "mint",
      "outputs": [],
      "stateMutability": "nonpayable",
      "type": "function"
    },
    {
      "inputs": [],
      "name": "owner",
      "outputs": [
        {
          "internalType": "address",
          "name": "",
          "type": "address"
        }
      ],
      "stateMutability": "view",
      "type": "function"
    },
    {
      "inputs": [],
      "name": "paused",
      "outputs": [
        {
          "internalType": "bool",
          "name": "",
          "type": "bool"
        }
      ],
      "stateMutability": "view",
      "type": "function"
    },
    {
      "inputs": [],
      "name": "protocolFees",
      "outputs": [
        {
          "internalType": "uint256",
          "name": "",
          "type": "uint256"
        }
      ],
      "stateMutability": "view",
      "type": "function"
    },
    {
      "inputs": [],
      "name": "renounceOwnership",
      "outputs": [],
      "stateMutability": "nonpayable",
      "type": "function"
    },
    {
      "inputs": [
        {
          "internalType": "uint256",
          "name": "_feeWad",
          "type": "uint256"
        }
      ],
      "name": "setFee",
      "outputs": [],
      "stateMutability": "nonpayable",
      "type": "function"
    },
    {
      "inputs": [
        {
          "internalType": "uint8",
          "name": "feeProtocol",
          "type": "uint8"
        }
      ],
      "name": "setFeeProtocol",
      "outputs": [],
      "stateMutability": "nonpayable",
      "type": "function"
    },
    {
      "inputs": [
        {
          "components": [
            {
              "internalType": "address",
              "name": "recipient",
              "type": "address"
            },
            {
              "internalType": "int256",
              "name": "amountSpecified",
              "type": "int256"
            },
            {
              "internalType": "uint160",
              "name": "sqrtPriceLimitX96",
              "type": "uint160"
            },
            {
              "internalType": "bool",
              "name": "isExternal",
              "type": "bool"
            },
            {
              "internalType": "int24",
              "name": "tickLower",
              "type": "int24"
            },
            {
              "internalType": "int24",
              "name": "tickUpper",
              "type": "int24"
            }
          ],
          "internalType": "struct IVAMM.SwapParams",
          "name": "params",
          "type": "tuple"
        }
      ],
      "name": "swap",
      "outputs": [
        {
          "internalType": "int256",
          "name": "_fixedTokenDelta",
          "type": "int256"
        },
        {
          "internalType": "int256",
          "name": "_variableTokenDelta",
          "type": "int256"
        },
        {
          "internalType": "uint256",
          "name": "_cumulativeFeeIncurred",
          "type": "uint256"
        }
      ],
      "stateMutability": "nonpayable",
      "type": "function"
    },
    {
      "inputs": [
        {
          "internalType": "int16",
          "name": "",
          "type": "int16"
        }
      ],
      "name": "tickBitmap",
      "outputs": [
        {
          "internalType": "uint256",
          "name": "",
          "type": "uint256"
        }
      ],
      "stateMutability": "view",
      "type": "function"
    },
    {
      "inputs": [],
      "name": "tickSpacing",
      "outputs": [
        {
          "internalType": "int24",
          "name": "",
          "type": "int24"
        }
      ],
      "stateMutability": "view",
      "type": "function"
    },
    {
      "inputs": [
        {
          "internalType": "int24",
          "name": "",
          "type": "int24"
        }
      ],
      "name": "ticks",
      "outputs": [
        {
          "internalType": "uint128",
          "name": "liquidityGross",
          "type": "uint128"
        },
        {
          "internalType": "int128",
          "name": "liquidityNet",
          "type": "int128"
        },
        {
          "internalType": "int256",
          "name": "fixedTokenGrowthOutsideX128",
          "type": "int256"
        },
        {
          "internalType": "int256",
          "name": "variableTokenGrowthOutsideX128",
          "type": "int256"
        },
        {
          "internalType": "uint256",
          "name": "feeGrowthOutsideX128",
          "type": "uint256"
        },
        {
          "internalType": "bool",
          "name": "initialized",
          "type": "bool"
        }
      ],
      "stateMutability": "view",
      "type": "function"
    },
    {
      "inputs": [
        {
          "internalType": "address",
          "name": "newOwner",
          "type": "address"
        }
      ],
      "name": "transferOwnership",
      "outputs": [],
      "stateMutability": "nonpayable",
      "type": "function"
    },
    {
      "inputs": [],
      "name": "unlocked",
      "outputs": [
        {
          "internalType": "bool",
          "name": "",
          "type": "bool"
        }
      ],
      "stateMutability": "view",
      "type": "function"
    },
    {
      "inputs": [
        {
          "internalType": "uint256",
          "name": "protocolFeesCollected",
          "type": "uint256"
        }
      ],
      "name": "updateProtocolFees",
      "outputs": [],
      "stateMutability": "nonpayable",
      "type": "function"
    },
    {
      "inputs": [],
      "name": "vammVars",
      "outputs": [
        {
          "internalType": "uint160",
          "name": "sqrtPriceX96",
          "type": "uint160"
        },
        {
          "internalType": "int24",
          "name": "tick",
          "type": "int24"
        },
        {
          "internalType": "uint8",
          "name": "feeProtocol",
          "type": "uint8"
        }
      ],
      "stateMutability": "view",
      "type": "function"
    },
    {
      "inputs": [],
      "name": "variableTokenGrowthGlobalX128",
      "outputs": [
        {
          "internalType": "int256",
          "name": "",
          "type": "int256"
        }
      ],
      "stateMutability": "view",
      "type": "function"
    }
  ],
  "transactionHash": "0x47d73f45b4b8b669b23ca78bbc20c7b802fc952dfaa7db730766558e7caeb522",
  "args": [],
  "numDeployments": 1,
  "solcInputHash": "9f9566c0cdca10f3ecaa77aa61f80c3b",
  "bytecode": "0x60806040523480156200001157600080fd5b50600054610100900460ff166200002f5760005460ff161562000039565b62000039620000f5565b620000a15760405162461bcd60e51b815260206004820152602e60248201527f496e697469616c697a61626c653a20636f6e747261637420697320616c72656160448201526d191e481a5b9a5d1a585b1a5e995960921b606482015260840160405180910390fd5b600054610100900460ff16158015620000c4576000805461ffff19166101011790555b609b8054610100600160a81b03191633610100021790558015620000ee576000805461ff00191690555b5062000122565b60006200010d306200011360201b62001b691760201c565b15905090565b6001600160a01b03163b151590565b614d8580620001326000396000f3fe608060405234801561001057600080fd5b50600436106101485760003560e01c80624006e01461014d57806309d7b622146101765780631a6865021461018d5780631ad8b03b146101ad5780631f2f0893146101b65780633c8f233e146101cb57806347f75ede146101f95780634e65b4081461020c5780635339c296146102155780635c975abb1461023557806369fe0e2d1461024c5780636a5e26501461025f57806370cf754a1461026c578063715018a61461028657806380a0f76c1461028e57806386737710146102e35780638da5cb5b146102f65780638ef10c03146102fe578063ad23b41614610311578063b613a1411461031a578063b8cca34e1461032d578063c45a015514610340578063d0c93a7c14610353578063d992d90814610373578063f2fde38b14610386578063f30dba9314610399578063f3f9499014610426575b600080fd5b60a654610160906001600160a01b031681565b60405161016d9190614599565b60405180910390f35b61017f60a15481565b60405190815260200161016d565b60a4546101a0906001600160801b031681565b60405161016d91906147ab565b61017f60a55481565b6101c96101c43660046143b6565b61042f565b005b6101de6101d936600461448b565b610642565b6040805193845260208401929092529082015260600161016d565b6101c9610207366004614366565b6106fd565b61017f60a25481565b61017f610223366004614450565b609a6020526000908152604090205481565b60655460ff165b604051901515815260200161016d565b6101c961025a366004614548565b6107e6565b609b5461023c9060ff1681565b6098546101a090630100000090046001600160801b031681565b6101c9610894565b60a0546102b8906001600160a01b03811690600160a01b810460020b90600160b81b900460ff1683565b604080516001600160a01b03909416845260029290920b602084015260ff169082015260600161016d565b6101c96102f1366004614548565b6108cf565b610160610936565b6101de61030c3660046144a6565b610945565b61017f60a35481565b6101c9610328366004614578565b6114e5565b6101c961033b3660046143b6565b61159c565b609d54610160906001600160a01b031681565b6098546103609060020b81565b60405160029190910b815260200161016d565b6101c9610381366004614382565b6117ac565b6101c9610394366004614366565b611ac9565b6103ea6103a7366004614471565b609960205260009081526040902080546001820154600283015460038401546004909401546001600160801b03841694600160801b909404600f0b939060ff1686565b604080516001600160801b039097168752600f9590950b60208701529385019290925260608401526080830152151560a082015260c00161016d565b61017f60975481565b60655460ff161561045b5760405162461bcd60e51b815260040161045290614675565b60405180910390fd5b609b5460ff1661047d5760405162461bcd60e51b81526004016104529061476c565b609b805460ff191690556001600160801b0381166104b0578060405163c09d260960e01b815260040161045291906147ab565b336001600160a01b03851614806104d1575060a6546001600160a01b031633145b806105595750609d546040516351c4bc1f60e11b81526001600160a01b039091169063a389783e9061050990879033906004016145ad565b60206040518083038186803b15801561052157600080fd5b505afa158015610535573d6000803e3d6000fd5b505050506040513d601f19601f820116820180604052508101906105599190614418565b6105905760405162461bcd60e51b81526020600482015260086024820152674d53206f72204d4560c01b6044820152606401610452565b6105e46040518060800160405280866001600160a01b031681526020018560020b81526020018460020b81526020016105d1846001600160801b0316611b78565b6105da90614ca6565b600f0b9052611bc8565b8160020b8360020b856001600160a01b03167ff57f161c6404e7a58d089003a260456719af3caac502550a59509b4c9d8d462833856040516106279291906145c7565b60405180910390a45050609b805460ff191660011790555050565b60408051608081018252600284810b825283810b602083015260a054600160a01b9004810b900b9181019190915260a15460608201526000908190819061068b90609990611def565b60408051608081018252600288810b825287810b602083015260a054600160a01b9004810b900b9181019190915260a25460608201529093506106d090609990611eac565b60a05460a3549193506106f49160999188918891600160a01b900460020b90611f42565b90509250925092565b60a0546001600160a01b0316156107345760a0546040516328be1c0f60e21b8152610452916001600160a01b031690600401614599565b600061073f82611fb8565b604080516060810182526001600160a01b038516808252600284810b602080850182905260009486019490945260a0805460ff60b81b199383900b62ffffff16600160a01b026001600160b81b031990911685171792909216909155609b805460ff191660011790558351918252918101919091529192507f16297fce196320ffd737429fd5a57f993d2febecd59a0280c5552838e7c2fa92910160405180910390a15050565b336107ef610936565b6001600160a01b0316146108155760405162461bcd60e51b8152600401610452906146ce565b609b5460ff166108375760405162461bcd60e51b81526004016104529061476c565b609b805460ff1916905560978054908290556040517f74dbbbe280ef27b79a8a0c449d5ae2ba7a31849103241d0f98df70bbc9d03e379061087b90839085906147bf565b60405180910390a15050609b805460ff19166001179055565b3361089d610936565b6001600160a01b0316146108c35760405162461bcd60e51b8152600401610452906146ce565b6108cd60006122f0565b565b60a6546001600160a01b031633146108fa57604051630a0d349f60e21b815260040160405180910390fd5b8060a55410156109225760a5546040516311920a6d60e31b81526104529183916004016147bf565b8060a5546109309190614bf7565b60a55550565b6033546001600160a01b031690565b600080600061095660655460ff1690565b156109735760405162461bcd60e51b815260040161045290614675565b61097e609f54612342565b1561099b5760405162461bcd60e51b815260040161045290614644565b6040805160608101825260a0546001600160a01b0381168252600160a01b8104600290810b810b900b602080840191909152600160b81b90910460ff16928201929092529085015160009081126109f35760006109f6565b60015b9050610a0386838361238b565b856060015115610afe5760a6546001600160a01b0316331480610abc575060a660009054906101000a90046001600160a01b03166001600160a01b03166322d23b216040518163ffffffff1660e01b815260040160206040518083038186803b158015610a6f57600080fd5b505afa158015610a83573d6000803e3d6000fd5b505050506040513d601f19601f82011682018060405250810190610aa79190614434565b6001600160a01b0316336001600160a01b0316145b610af95760405162461bcd60e51b815260206004820152600e60248201526d6f6e6c79204d45206f722046434d60901b6044820152606401610452565b610beb565b85516001600160a01b0316331480610b935750609d5486516040516351c4bc1f60e11b81526001600160a01b039092169163a389783e91610b439133906004016145ad565b60206040518083038186803b158015610b5b57600080fd5b505afa158015610b6f573d6000803e3d6000fd5b505050506040513d601f19601f82011682018060405250810190610b939190614418565b610beb5760405162461bcd60e51b815260206004820152602360248201527f6f6e6c792073656e646572206f7220617070726f76656420696e74656772617460448201526234b7b760e91b6064820152608401610452565b610bfd86608001518760a001516124b4565b609b805460ff1916905560408051808201825260a4546001600160801b03908116825260a08054600160b81b900460ff166020808501919091528451610180810186528b8201518152600081830181905288516001600160a01b03908116838901529289015160020b606083015260a154608083015260a25493820193909352845190931660c084015260a35460e08401526101008301829052610120830182905261014083018290526101608301829052609c548551637aa4db1360e01b8152955194959394911692637aa4db1392600480830193919282900301818387803b158015610cea57600080fd5b505af1158015610cfe573d6000803e3d6000fd5b505050505b805115801590610d2d575087604001516001600160a01b031681604001516001600160a01b031614155b1561126057610da660405180610160016040528060006001600160a01b03168152602001600060020b815260200160001515815260200160006001600160a01b03168152602001600081526020016000815260200160008152602001600081526020016000815260200160008152602001600081525090565b60408201516001600160a01b031681526060820151609854610dcf91609a9160020b8715612579565b15156040830152600290810b810b6020830181905262010deb19910b1215610e005762010deb196020820152610e38565b610e0d62010deb19614ccc565b60020b816020015160020b1315610e3857610e2b62010deb19614ccc565b600290810b900b60208201525b610e45816020015161273a565b6001600160a01b031660608201526040820151610eda908515610e84578a604001516001600160a01b031683606001516001600160a01b031611610ea2565b8a604001516001600160a01b031683606001516001600160a01b0316105b610eb0578260600151610eb6565b8a604001515b60c08501518551609754610ec8612b4c565b609f54610ed59190614bf7565b612b5c565b60c085015260a084015260808301526001600160a01b03166040830152602089015160001215610f7b57610f118160800151612d1e565b82518390610f20908390614b70565b90525060a0810151610f3190612d1e565b82602001818151610f429190614b70565b9052506080810151610f5390612d1e565b61014082015260a0810151610f6790612d1e565b610f7090614ce6565b610100820152610fee565b610f888160a00151612d1e565b82518390610f9790839061485b565b9052506080810151610fa890612d1e565b82602001818151610fb9919061485b565b90525060a0810151610fca90612d1e565b610fd390614ce6565b6101408201526080810151610fe790612d1e565b6101008201525b8060c001518261012001516110039190614907565b610120830152602083015160ff161561106357826020015160ff168160c0015161102d91906149a4565b60e0820181905260c082018051611045908390614bf7565b90525060e08101516101008301805161105f908390614907565b9052505b60c08201516001600160801b03161561116457609c54609e54609f546040516325f258dd60e01b81526000936001600160a01b0316926325f258dd926110ab926004016147bf565b602060405180830381600087803b1580156110c557600080fd5b505af11580156110d9573d6000803e3d6000fd5b505050506040513d601f19601f820116820180604052508101906110fd9190614560565b905061111185848484609e54609f54612d6e565b6101208601908152608087019190915260a086019190915260e08501919091525161014084018051611144908390614b70565b9052506101408201516101608401805161115f908390614b70565b905250505b80606001516001600160a01b031682604001516001600160a01b0316141561121f578060400151156111ed5760006111bc826020015184608001518560a001518660e001516099612ea790949392919063ffffffff16565b9050846111cf576111cc81614ca6565b90505b6111dd8360c0015182612f0d565b6001600160801b031660c0840152505b83156111fd57806020015161120e565b6001816020015161120e9190614b33565b600290810b900b606083015261125a565b80600001516001600160a01b031682604001516001600160a01b03161461125a5761124d8260400151611fb8565b600290810b900b60608301525b50610d03565b836020015160020b816060015160020b146112b757604081015160a08054606084015160020b62ffffff16600160a01b026001600160b81b03199091166001600160a01b03909316929092179190911790556112dc565b604081015160a080546001600160a01b0319166001600160a01b039092169190911790555b8060c001516001600160801b031682600001516001600160801b0316146113225760c081015160a480546001600160801b0319166001600160801b039092169190911790555b60e081015160a35560a081015160a255608081015160a15561012081015161014082015161016083015161010084015191995097509095501561137c5780610100015160a560008282546113769190614907565b90915550505b876060015161142a5760a654885160808a015160a08b015161014085015161016086015161012087015160405163029c9a4160e41b81526001600160a01b039687166004820152600295860b60248201529390940b60448401526064830191909152608482015260a48101919091529116906329c9a4109060c401600060405180830381600087803b15801561141157600080fd5b505af1158015611425573d6000803e3d6000fd5b505050505b87600001516001600160a01b0316336001600160a01b03167f380dad71c375c4cd7fc8e31561c907eaa396f52c1d012bceaefc703b71fc240583604001518460c0015185606001518d608001518e60a001516040516114c49594939291906001600160a01b039590951685526001600160801b03939093166020850152600291820b6040850152810b60608401520b608082015260a00190565b60405180910390a35050609b805460ff191660011790555092949193509150565b336114ee610936565b6001600160a01b0316146115145760405162461bcd60e51b8152600401610452906146ce565b609b5460ff166115365760405162461bcd60e51b81526004016104529061476c565b609b805460ff1916905560a0805460ff838116600160b81b81810260ff60b81b1985161790945560408051949093049091168084526020840191909152917f7a8f5b6a3fe6312faf94330e829a331301dbd2ce6947e915be63bf67b473ed5f910161087b565b60655460ff16156115bf5760405162461bcd60e51b815260040161045290614675565b6115ca609f54612342565b156115e75760405162461bcd60e51b815260040161045290614644565b609b5460ff166116095760405162461bcd60e51b81526004016104529061476c565b609b805460ff191690556001600160801b03811661163c5780604051633611668d60e21b815260040161045291906147ab565b336001600160a01b03851614806116d05750609d546040516351c4bc1f60e11b81526001600160a01b039091169063a389783e9061168090879033906004016145ad565b60206040518083038186803b15801561169857600080fd5b505afa1580156116ac573d6000803e3d6000fd5b505050506040513d601f19601f820116820180604052508101906116d09190614418565b6117285760405162461bcd60e51b8152602060048201526024808201527f6f6e6c79206d73672e73656e646572206f7220617070726f7665642063616e206044820152631b5a5b9d60e21b6064820152608401610452565b6117696040518060800160405280866001600160a01b031681526020018560020b81526020018460020b81526020016105da846001600160801b0316611b78565b8160020b8360020b856001600160a01b03167f712faa344eac6399174fdfa887d9e1451e9b55ce58ee440c91c660229962a5a633856040516106279291906145c7565b600054610100900460ff166117c75760005460ff16156117cf565b6117cf612fd3565b6118325760405162461bcd60e51b815260206004820152602e60248201527f496e697469616c697a61626c653a20636f6e747261637420697320616c72656160448201526d191e481a5b9a5d1a585b1a5e995960921b6064820152608401610452565b600054610100900460ff16158015611854576000805461ffff19166101011790555b6001600160a01b03831661189b5760405162461bcd60e51b815260206004820152600e60248201526d1351481b5d5cdd081899481cd95d60921b6044820152606401610452565b60a680546001600160a01b0319166001600160a01b03851690811790915560408051634c7a58d960e11b815290516398f4b1b291600480820192602092909190829003018186803b1580156118ef57600080fd5b505afa158015611903573d6000803e3d6000fd5b505050506040513d601f19601f820116820180604052508101906119279190614434565b609c80546001600160a01b03929092166001600160a01b0319928316179055609d80549091163317905560988054600284900b62ffffff1662ffffff1990911617905561197382612fe4565b609860036101000a8154816001600160801b0302191690836001600160801b0316021790555060a660009054906101000a90046001600160a01b03166001600160a01b031663652c30b76040518163ffffffff1660e01b815260040160206040518083038186803b1580156119e757600080fd5b505afa1580156119fb573d6000803e3d6000fd5b505050506040513d601f19601f82011682018060405250810190611a1f9190614560565b609e5560a654604080516324fb6d1560e21b815290516001600160a01b03909216916393edb45491600480820192602092909190829003018186803b158015611a6757600080fd5b505afa158015611a7b573d6000803e3d6000fd5b505050506040513d601f19601f82011682018060405250810190611a9f9190614560565b609f55611aaa61306c565b611ab261309b565b8015611ac4576000805461ff00191690555b505050565b33611ad2610936565b6001600160a01b031614611af85760405162461bcd60e51b8152600401610452906146ce565b6001600160a01b038116611b5d5760405162461bcd60e51b815260206004820152602660248201527f4f776e61626c653a206e6577206f776e657220697320746865207a65726f206160448201526564647265737360d01b6064820152608401610452565b611b66816122f0565b50565b6001600160a01b03163b151590565b80600f81900b8114611bc35760405162461bcd60e51b81526020600482015260146024820152730deeccae4ccd8deee40d2dc40e8de92dce86264760631b6044820152606401610452565b919050565b611bda816020015182604001516124b4565b604080516060808201835260a0546001600160a01b0381168352600160a01b8104600290810b810b900b6020840152600160b81b900460ff1692820192909252908201516000908190600f0b15611c3a57611c34846130ca565b90925090505b60a6546040805163bfb5607d60e01b815286516001600160a01b0390811660048301526020880151600290810b60248401529288015190920b60448201526060870151600f0b606482015291169063bfb5607d90608401600060405180830381600087803b158015611cab57600080fd5b505af1158015611cbf573d6000803e3d6000fd5b5050505060008460600151600f0b1215611d01578115611cea576020840151611cea906099906131a2565b8015611d01576040840151611d01906099906131a2565b609c60009054906101000a90046001600160a01b03166001600160a01b0316637aa4db136040518163ffffffff1660e01b8152600401600060405180830381600087803b158015611d5157600080fd5b505af1158015611d65573d6000803e3d6000fd5b505050508360600151600f0b600014611de957836020015160020b836020015160020b12158015611da35750836040015160020b836020015160020b125b15611de95760a45460608501516001600160801b0390911690611dc7908290612f0d565b60a480546001600160801b0319166001600160801b0392909216919091179055505b50505050565b8051600290810b810b60009081526020848152604080832091850151840b840b83528083208551918601519394929390928592810b91900b12611e3757506001820154611e4e565b82600101548560600151611e4b9190614b70565b90505b6000856020015160020b866040015160020b1215611e7157506001820154611e88565b82600101548660600151611e859190614b70565b90505b611e92818361485b565b8660600151611ea19190614b70565b979650505050505050565b8051600290810b810b60009081526020848152604080832091850151840b840b83528083208551918601519394929390928592810b91900b12611ef457506002820154611f0b565b82600201548560600151611f089190614b70565b90505b6000856020015160020b866040015160020b1215611f2e57506002820154611e88565b82600201548660600151611e859190614b70565b600284810b80820b60009081526020889052604080822087850b850b835290822091939092849187900b12611f7c57506003820154611f85565b50600382015484035b60008760020b8760020b1215611fa057506003820154611fa9565b50600382015485035b01909303979650505050505050565b60006b0816769404766de590afe04e6001600160a01b03831610801590611ff457506c1fa71f3f5f68a90479ee3f8fec6001600160a01b038316105b6120245760405162461bcd60e51b81526020600482015260016024820152602960f91b6044820152606401610452565b600160201b600160c01b03602083901b166001600160801b03811160071b81811c6001600160401b03811160061b90811c63ffffffff811160051b90811c61ffff811160041b90811c60ff8111600390811b91821c600f811160021b90811c918211600190811b92831c979088119617909417909217179091171717608081106120bd576120b3607f82614bf7565b83901c91506120ce565b6120c881607f614bf7565b83901b91505b600060406120dd608084614b70565b901b9050828302607f1c92508260801c80603f1b8217915083811c935050828302607f1c92508260801c80603e1b8217915083811c935050828302607f1c92508260801c80603d1b8217915083811c935050828302607f1c92508260801c80603c1b8217915083811c935050828302607f1c92508260801c80603b1b8217915083811c935050828302607f1c92508260801c80603a1b8217915083811c935050828302607f1c92508260801c8060391b8217915083811c935050828302607f1c92508260801c8060381b8217915083811c935050828302607f1c92508260801c8060371b8217915083811c935050828302607f1c92508260801c8060361b8217915083811c935050828302607f1c92508260801c8060351b8217915083811c935050828302607f1c92508260801c8060341b8217915083811c935050828302607f1c92508260801c8060331b8217915083811c935050828302607f1c92508260801c8060321b8217915050600081693627a301d71055774c856122609190614a41565b9050600060806122806f028f6481ab7f045a5af012a19d003aaa84614b70565b901d9050600060806122a2846fdb2df09e81959a81455e260799a0632f61485b565b901d90508060020b8260020b146122e157886001600160a01b03166122c68261273a565b6001600160a01b031611156122db57816122e3565b806122e3565b815b9998505050505050505050565b603380546001600160a01b038381166001600160a01b0319831681179093556040519116919082907f8be0079c531659141344cd1fd0a4f28419497f9722a3daafe3b4186f6b6457e090600090a35050565b60008061234d612b4c565b905082811061235f5760019150612385565b600061236b8285614bf7565b905069124bc0ddd92e56000000811161238357600192505b505b50919050565b60208301516123b557826020015160405163437f5cdd60e11b815260040161045291815260200190565b609b5460ff166123e357609b54604051633cc7822f60e11b815260ff90911615156004820152602401610452565b806124375781600001516001600160a01b031683604001516001600160a01b031610801561243257506b0816769404766de590afe04e6001600160a01b031683604001516001600160a01b0316115b612482565b81600001516001600160a01b031683604001516001600160a01b031611801561248257506c1fa71f3f5f68a90479ee3f8fec6001600160a01b031683604001516001600160a01b0316105b611ac45760405162461bcd60e51b815260206004820152600360248201526214d41360ea1b6044820152606401610452565b8060020b8260020b126124ef5760405162461bcd60e51b8152602060048201526003602482015262544c5560e81b6044820152606401610452565b62010deb19600283900b121561252d5760405162461bcd60e51b8152602060048201526003602482015262544c4d60e81b6044820152606401610452565b61253a62010deb19614ccc565b60020b8160020b13156125755760405162461bcd60e51b815260206004820152600360248201526254554d60e81b6044820152606401610452565b5050565b600080806125878587614944565b905060008660020b1280156125a757506125a18587614c70565b60020b15155b156125ba57806125b681614c31565b9150505b8315612669576000806125cc836131dd565b90925090506000600160ff831681901b906125e79082614bf7565b6125f19190614907565b600184810b900b600090815260208c905260409020548116801515965090915085612633578861262460ff851687614b33565b61262e91906149b8565b61265e565b8861263d826131fa565b6126479085614c0e565b6126549060ff1687614b33565b61265e91906149b8565b965050505050612730565b60008061267f61267a84600161481e565b6131dd565b90925090506000612697600160ff841681901b614bf7565b600184810b900b600090815260208c9052604090205490199081168015159650909150856126f257886126cb8460ff614c0e565b60ff166126d987600161481e565b6126e3919061481e565b6126ed91906149b8565b612729565b88836126fd836132f7565b6127079190614c0e565b60ff1661271587600161481e565b61271f919061481e565b61272991906149b8565b9650505050505b5094509492505050565b60008060008360020b12612751578260020b61275e565b8260020b61275e90614ce6565b905061276d62010deb19614ccc565b60020b8111156127a35760405162461bcd60e51b81526020600482015260016024820152601560fa1b6044820152606401610452565b6000600182166127b757600160801b6127c9565b6ffffcb933bd6fad37aa2d162d1a5940015b6001600160881b0316905060028216156127fe5760806127f9826ffff97272373d413259a46990580e213a614ac4565b901c90505b6004821615612828576080612823826ffff2e50f5f656932ef12357cf3c7fdcc614ac4565b901c90505b600882161561285257608061284d826fffe5caca7e10e4e61c3624eaa0941cd0614ac4565b901c90505b601082161561287c576080612877826fffcb9843d60f6159c9db58835c926644614ac4565b901c90505b60208216156128a65760806128a1826fff973b41fa98c081472e6896dfb254c0614ac4565b901c90505b60408216156128d05760806128cb826fff2ea16466c96a3843ec78b326b52861614ac4565b901c90505b60808216156128fa5760806128f5826ffe5dee046a99a2a811c461f1969c3053614ac4565b901c90505b610100821615612925576080612920826ffcbe86c7900a88aedcffc83b479aa3a4614ac4565b901c90505b61020082161561295057608061294b826ff987a7253ac413176f2b074cf7815e54614ac4565b901c90505b61040082161561297b576080612976826ff3392b0822b70005940c7a398e4b70f3614ac4565b901c90505b6108008216156129a65760806129a1826fe7159475a2c29b7443b29c7fa6e889d9614ac4565b901c90505b6110008216156129d15760806129cc826fd097f3bdfd2022b8845ad8f792aa5825614ac4565b901c90505b6120008216156129fc5760806129f7826fa9f746462d870fdf8a65dc1f90e061e5614ac4565b901c90505b614000821615612a27576080612a22826f70d869a156d2a1b890bb3df62baf32f7614ac4565b901c90505b618000821615612a52576080612a4d826f31be135f97d08fd981231505542fcfa6614ac4565b901c90505b62010000821615612a7e576080612a79826f09aa508b5b7a84e1c677de54f3e99bc9614ac4565b901c90505b62020000821615612aa9576080612aa4826e5d6af8dedb81196699c329225ee604614ac4565b901c90505b62040000821615612ad3576080612ace826d2216e584f5fa1ea926041bedfe98614ac4565b901c90505b62080000821615612afb576080612af6826b048a170391f7dc42444e8fa2614ac4565b901c90505b60008460020b1315612b1657612b13816000196149a4565b90505b612b24600160201b82614c92565b15612b30576001612b33565b60005b612b449060ff16602083901c614907565b949350505050565b6000612b5742613434565b905090565b60008080806001600160a01b03808a16908b161015818812801590612bc35781612b9257612b8d8c8c8c6001613481565b612b9f565b612b9f8b8d8c60016134f1565b9450848910612bb0578a9550612c17565b612bbc8c8b8b856135fb565b9550612c17565b81612bda57612bd58c8c8c60006134f1565b612be7565b612be78b8d8c6000613481565b935083612bf38a614ce6565b10612c00578a9550612c17565b612c148c8b612c0e8c614ce6565b8561366d565b95505b6001600160a01b038b81169087161460008315612c7f57818015612c385750825b612c4e57612c49888f8e60016134f1565b612c50565b865b9650818015612c5d575082155b612c7357612c6e888f8e6000613481565b612c75565b855b9550859050612ccc565b818015612c895750825b612c9f57612c9a8e898e6001613481565b612ca1565b865b9650818015612cae575082155b612cc457612cbf8e898e60006134f1565b612cc6565b855b95508690505b82158015612ce15750612cde8b614ce6565b86115b15612cf257612cef8b614ce6565b95505b6000612cfd82613434565b9050612d0a818b8d6136df565b955050505050509650965096509692505050565b6000600160ff1b8210612d6a5760405162461bcd60e51b815260206004820152601460248201527337bb32b9333637bb9034b7103a37a4b73a191a9b60611b6044820152606401610452565b5090565b600080600080612d948860c00151600160801b8b60c001516001600160801b031661371a565b8960e00151612da39190614907565b93508915612e3057612dcc886101400151600160801b8b60c001516001600160801b031661371a565b8960a00151612ddb919061485b565b9250612df4886101000151896101400151898989613818565b9050612e1a612e0282614ce6565b600160801b8b60c001516001600160801b031661371a565b8960800151612e299190614b70565b9150612e9a565b612e42886101400151612e0290614ce6565b8960a00151612e519190614b70565b9250612e6a886101000151896101400151898989613818565b9050612e8881600160801b8b60c001516001600160801b031661371a565b8960800151612e97919061485b565b91505b9650965096509692505050565b600284810b900b60009081526020869052604081206003810154612ecb9084614bf7565b60038201556001810154612edf9086614b70565b60018201556002810154612ef39085614b70565b600282015554600160801b9004600f0b9695505050505050565b60008082600f0b1215612f7a576001600160801b038316612f2d83614ca6565b612f379085614baf565b9150816001600160801b031610612f755760405162461bcd60e51b81526020600482015260026024820152614c5360f01b6044820152606401610452565b612fcd565b6001600160801b038316612f8e838561489c565b9150816001600160801b03161015612fcd5760405162461bcd60e51b81526020600482015260026024820152614c4160f01b6044820152606401610452565b92915050565b6000612fde30611b69565b15905090565b60008082612ff68162010deb19614944565b61300091906149b8565b90506000838061301362010deb19614ccc565b61301d9190614944565b61302791906149b8565b90506000846130368484614b33565b6130409190614944565b61304b9060016148e9565b905061306362ffffff82166001600160801b0361497e565b95945050505050565b600054610100900460ff166130935760405162461bcd60e51b815260040161045290614721565b6108cd6138e3565b600054610100900460ff166130c25760405162461bcd60e51b815260040161045290614721565b6108cd613913565b602081015160a054606083015160a15460a25460a3546098546000968796613116966099969295600160a01b90920460020b9490938990630100000090046001600160801b0316613946565b604084015160a054606086015160a15460a25460a3546098549698506131619660999695600160a01b900460020b9493929190600190630100000090046001600160801b0316613946565b9050811561318057602083015160985461318091609a9160020b613a87565b801561319d57604083015160985461319d91609a9160020b613a87565b915091565b600290810b810b600090815260209290925260408220828155600181018390559081018290556003810191909155600401805460ff19169055565b600281900b60081d60006131f361010084614c70565b9050915091565b600080821161321b5760405162461bcd60e51b81526004016104529061461d565b600160801b821061323957608091821c91613236908261491f565b90505b600160401b821061325757604091821c91613254908261491f565b90505b600160201b821061327557602091821c91613272908261491f565b90505b62010000821061329257601091821c9161328f908261491f565b90505b61010082106132ae57600891821c916132ab908261491f565b90505b601082106132c957600491821c916132c6908261491f565b90505b600482106132e457600291821c916132e1908261491f565b90505b60028210611bc357612fcd60018261491f565b60008082116133185760405162461bcd60e51b81526004016104529061461d565b5060ff6001600160801b0382161561333c57613335608082614c0e565b9050613344565b608082901c91505b6001600160401b038216156133655761335e604082614c0e565b905061336d565b604082901c91505b63ffffffff82161561338b57613384602082614c0e565b9050613393565b602082901c91505b61ffff8216156133af576133a8601082614c0e565b90506133b7565b601082901c91505b60ff8216156133d2576133cb600882614c0e565b90506133da565b600882901c91505b600f8216156133f5576133ee600482614c0e565b90506133fd565b600482901c91505b600382161561341857613411600282614c0e565b9050613420565b600282901c91505b6001821615611bc357612fcd600182614c0e565b60007812725dd1d243aba0e75fe645cc4873f9e65afe688c928e1f2182111561347357604051633492ffd960e01b815260048101839052602401610452565b50670de0b6b3a76400000290565b6000836001600160a01b0316856001600160a01b031611156134a1579293925b816134ce576134c9836001600160801b03168686036001600160a01b0316600160601b61371a565b613063565b613063836001600160801b03168686036001600160a01b0316600160601b613b1e565b6000836001600160a01b0316856001600160a01b03161115613511579293925b600160601b600160e01b03606084901b16600061352e8787614bd7565b6001600160a01b031690506000876001600160a01b03161161358b5760405162461bcd60e51b8152602060048201526016602482015275073717274207072696365206d757374206265203e20360541b6044820152606401610452565b836135cf57866001600160a01b03166135ae8383896001600160a01b031661371a565b816135c957634e487b7160e01b600052601260045260246000fd5b04611ea1565b611ea16135e68383896001600160a01b0316613b1e565b886001600160a01b0316808204910615150190565b600080856001600160a01b0316116136255760405162461bcd60e51b8152600401610452906145e9565b6000846001600160801b03161161364e5760405162461bcd60e51b81526004016104529061469f565b81613660576134c98585856001613b7f565b6130638585856001613ca1565b600080856001600160a01b0316116136975760405162461bcd60e51b8152600401610452906145e9565b6000846001600160801b0316116136c05760405162461bcd60e51b81526004016104529061469f565b816136d2576134c98585856000613ca1565b6130638585856000613b7f565b6000806136eb84613df8565b90506000613702866136fd8685613e0f565b613e0f565b9050670de0b6b3a764000081045b9695505050505050565b60008080600019858709858702925082811083820303915050806000141561378a576000841161377f5760405162461bcd60e51b815260206004820152601060248201526f4469766973696f6e206279207a65726f60801b6044820152606401610452565b508290049050613811565b8084116137a95760405162461bcd60e51b815260040161045290614789565b600084868809851960019081018716968790049682860381900495909211909303600082900391909104909201919091029190911760038402600290811880860282030280860282030280860282030280860282030280860282030280860290910302029150505b9392505050565b600080861315801561382b575060008512155b80613843575060008612158015613843575060008513155b80613855575085158015613855575084155b613872576040516301161e4160e01b815260040160405180910390fd5b600061387d87613e1b565b9050600061388a87613e1b565b90508484116138ab5760405162461bcd60e51b815260040161045290614703565b60006138ba8383898989613e98565b905060006138ca84838989613f05565b670de0b6b3a764000090059a9950505050505050505050565b600054610100900460ff1661390a5760405162461bcd60e51b815260040161045290614721565b6108cd336122f0565b600054610100900460ff1661393a5760405162461bcd60e51b815260040161045290614721565b6065805460ff19169055565b600288810b900b600090815260208a90526040812080546001600160801b031682613971828b612f0d565b9050846001600160801b0316816001600160801b031611156139ba5760405162461bcd60e51b81526020600482015260026024820152614c4f60f01b6044820152606401610452565b6001600160801b038281161590821615811415945015613a07578a60020b8c60020b136139f7576003830187905560018301899055600283018890555b60048301805460ff191660011790555b82546001600160801b0319166001600160801b03821617835585613a41578254613a3c908b90600160801b9004600f0b6147cd565b613a58565b8254613a58908b90600160801b9004600f0b614ae3565b8354600f9190910b6001600160801b03908116600160801b0291161790925550909a9950505050505050505050565b613a918183614c70565b60020b15613ae05760405162461bcd60e51b815260206004820152601c60248201527b1d1a58dac81b5d5cdd081899481c1c9bdc195c9b1e481cdc1858d95960221b6044820152606401610452565b600080613af061267a8486614944565b600191820b820b60009081526020979097526040909620805460ff9097169190911b90951890945550505050565b6000613b2b84848461371a565b905060008280613b4b57634e487b7160e01b600052601260045260246000fd5b8486091115613811576000198110613b755760405162461bcd60e51b815260040161045290614789565b8061306381614c55565b60008115613be95760006001600160a01b03841115613bb557613bb084600160601b876001600160801b031661371a565b613bcc565b613bcc6001600160801b038616606086901b6149a4565b9050613bd781613f5d565b613be190876148c7565b915050612b44565b60006001600160a01b03841115613c1757613c1284600160601b876001600160801b0316613b1e565b613c34565b613c34606085901b6001600160801b038716808204910615150190565b905080866001600160a01b031611613c8e5760405162461bcd60e51b815260206004820152601e60248201527f7374617274696e67207078206d757374206265203e2071756f7469656e7400006044820152606401610452565b613be1816001600160a01b038816614bf7565b600082613caf575083612b44565b600160601b600160e01b03606085901b168215613d5a5760006001600160a01b03871685613cdd8282614ac4565b9250613ce990836149a4565b1415613d24576000613cfb8284614907565b9050828110613d2257613d1883896001600160a01b031683613b1e565b9350505050612b44565b505b613d518286613d3c6001600160a01b038b16836149a4565b613d469190614907565b808204910615150190565b92505050612b44565b60006001600160a01b03871685613d718282614ac4565b9250613d7d90836149a4565b148015613d8957508082115b613dce5760405162461bcd60e51b815260206004820152601660248201527564656e6f6d696e61746f7220756e646572666c6f777360501b6044820152606401610452565b6000613dda8284614bf7565b9050613d18613df3848a6001600160a01b031684613b1e565b613f5d565b6000612fcd826a1a1601fc4ea7109e000000613fae565b60006138118383613fc3565b60007809392ee8e921d5d073aff322e62439fcf32d7f344649470f8f19821215613e5b5760405163e608e18b60e01b815260048101839052602401610452565b7809392ee8e921d5d073aff322e62439fcf32d7f344649470f90821315613473576040516371f72a3160e01b815260048101839052602401610452565b6000613ebe60405180606001604052806000815260200160008152602001600081525090565b613ed387613ece60008787614085565b614146565b8152613edf8686614146565b602082018190528151613ef2919061485b565b6040909101819052905095945050505050565b6000828211613f265760405162461bcd60e51b815260040161045290614703565b6000613f3886613ece60018787614085565b90506000613f468683614b70565b9050611ea181613f5860018888614085565b61420b565b806001600160a01b0381168114611bc35760405162461bcd60e51b815260206004820152601560248201527406f766572666c6f7720696e20746f55696e7431363605c1b6044820152606401610452565b600061381183670de0b6b3a7640000846142d1565b60008080600019848609848602925082811083820303915050670de0b6b3a764000081106140075760405163698d9a0160e11b815260048101829052602401610452565b600080670de0b6b3a76400008688099150506706f05b59d3b1ffff8111826140415780670de0b6b3a7640000850401945050505050612fcd565b620400008285030493909111909103600160ee1b02919091177faccb18165bd6fe31ae1cf318dc5b51eee0e1ba569b88cd74c1773b91fac106690201905092915050565b60008282116140a65760405162461bcd60e51b815260040161045290614703565b826140af612b4c565b10156140e55760405162461bcd60e51b8152602060048201526005602482015264422e543c5360d81b6044820152606401610452565b600084806140fa5750826140f7612b4c565b10155b15614110576141098484614bf7565b9050614126565b83614119612b4c565b6141239190614bf7565b90505b600061413182613df8565b90506137108168056bc75e2d63100000613fae565b6000600160ff1b83148061415d5750600160ff1b82145b1561417b57604051630d01a11b60e21b815260040160405180910390fd5b6000806000851261418c5784614191565b846000035b9150600084126141a157836141a6565b836000035b905060006141b48383613fc3565b90506001600160ff1b038111156141e15760405163bf79e8d960e01b815260048101829052602401610452565b6000198087139086138082186001146141fa57826141ff565b826000035b98975050505050505050565b6000600160ff1b8314806142225750600160ff1b82145b156142405760405163b3c754a360e01b815260040160405180910390fd5b600080600085126142515784614256565b846000035b915060008412614266578361426b565b836000035b9050600061428283670de0b6b3a7640000846142d1565b90506001600160ff1b038111156142af57604051637cb4bef560e01b815260048101829052602401610452565b6000198087139086138082186001146142c857826141ff565b6141ff83614ce6565b60008080600019858709858702925082811083820303915050806000141561431a5783828161431057634e487b7160e01b600052601260045260246000fd5b0492505050613811565b8381106137a9578084604051631dcf306360e21b81526004016104529291906147bf565b8035611bc381614d2c565b8035611bc381614d41565b8035600281900b8114611bc357600080fd5b600060208284031215614377578081fd5b813561381181614d2c565b60008060408385031215614394578081fd5b823561439f81614d2c565b91506143ad60208401614354565b90509250929050565b600080600080608085870312156143cb578182fd5b84356143d681614d2c565b93506143e460208601614354565b92506143f260408601614354565b915060608501356001600160801b038116811461440d578182fd5b939692955090935050565b600060208284031215614429578081fd5b815161381181614d41565b600060208284031215614445578081fd5b815161381181614d2c565b600060208284031215614461578081fd5b81358060010b8114613811578182fd5b600060208284031215614482578081fd5b61381182614354565b6000806040838503121561449d578182fd5b61439f83614354565b600060c082840312156144b7578081fd5b60405160c081016001600160401b03811182821017156144e557634e487b7160e01b83526041600452602483fd5b6040526144f18361433e565b8152602083013560208201526145096040840161433e565b604082015261451a60608401614349565b606082015261452b60808401614354565b608082015261453c60a08401614354565b60a08201529392505050565b600060208284031215614559578081fd5b5035919050565b600060208284031215614571578081fd5b5051919050565b600060208284031215614589578081fd5b813560ff81168114613811578182fd5b6001600160a01b0391909116815260200190565b6001600160a01b0392831681529116602082015260400190565b6001600160a01b039290921682526001600160801b0316602082015260400190565b6020808252601a908201527907374617274696e67207072696365206d757374206265203e20360341b604082015260600190565b6020808252600d908201526c078206d757374206265203e203609c1b604082015260600190565b602080825260179082015276636c6f7365546f4f724265796f6e644d6174757269747960481b604082015260600190565b60208082526010908201526f14185d5cd8589b194e881c185d5cd95960821b604082015260600190565b60208082526015908201527406c6971756964697479206d757374206265203e203605c1b604082015260600190565b6020808252818101527f4f776e61626c653a2063616c6c6572206973206e6f7420746865206f776e6572604082015260600190565b602080825260049082015263453c3d5360e01b604082015260600190565b6020808252602b908201527f496e697469616c697a61626c653a20636f6e7472616374206973206e6f74206960408201526a6e697469616c697a696e6760a81b606082015260800190565b6020808252600390820152624c4f4b60e81b604082015260600190565b6020808252600890820152676f766572666c6f7760c01b604082015260600190565b6001600160801b0391909116815260200190565b918252602082015260400190565b6000600f82810b9084900b828212801560016001607f1b03849003831316156147f8576147f8614d00565b60016001607f1b0319839003821281161561481557614815614d00565b50019392505050565b60008160020b8360020b82821282627fffff0382138115161561484357614843614d00565b82627fffff1903821281161561481557614815614d00565b600080821280156001600160ff1b038490038513161561487d5761487d614d00565b600160ff1b839003841281161561489657614896614d00565b50500190565b60006001600160801b038281168482168083038211156148be576148be614d00565b01949350505050565b60006001600160a01b038281168482168083038211156148be576148be614d00565b600062ffffff8083168185168083038211156148be576148be614d00565b6000821982111561491a5761491a614d00565b500190565b600060ff821660ff84168060ff0382111561493c5761493c614d00565b019392505050565b60008160020b8360020b8061495b5761495b614d16565b627fffff1982146000198214161561497557614975614d00565b90059392505050565b60006001600160801b038381168061499857614998614d16565b92169190910492915050565b6000826149b3576149b3614d16565b500490565b60008160020b8360020b627fffff838213848413838304851182821616156149e2576149e2614d00565b627fffff1986851282811687830587121615614a0057614a00614d00565b878712925085820587128484161615614a1b57614a1b614d00565b85850587128184161615614a3157614a31614d00565b5050509290910295945050505050565b60006001600160ff1b0381841382841380821686840486111615614a6757614a67614d00565b600160ff1b84871282811687830589121615614a8557614a85614d00565b858712925087820587128484161615614aa057614aa0614d00565b87850587128184161615614ab657614ab6614d00565b505050929093029392505050565b6000816000190483118215151615614ade57614ade614d00565b500290565b6000600f82810b9084900b828112801560016001607f1b0319830184121615614b0e57614b0e614d00565b60016001607f1b0382018313811615614b2957614b29614d00565b5090039392505050565b60008160020b8360020b82811281627fffff1901831281151615614b5957614b59614d00565b81627fffff018313811615614b2957614b29614d00565b60008083128015600160ff1b850184121615614b8e57614b8e614d00565b6001600160ff1b0384018313811615614ba957614ba9614d00565b50500390565b60006001600160801b0383811690831681811015614bcf57614bcf614d00565b039392505050565b60006001600160a01b0383811690831681811015614bcf57614bcf614d00565b600082821015614c0957614c09614d00565b500390565b600060ff821660ff841680821015614c2857614c28614d00565b90039392505050565b60008160020b627fffff19811415614c4b57614c4b614d00565b6000190192915050565b6000600019821415614c6957614c69614d00565b5060010190565b60008260020b80614c8357614c83614d16565b808360020b0791505092915050565b600082614ca157614ca1614d16565b500690565b6000600f82900b60016001607f1b0319811415614cc557614cc5614d00565b9003919050565b60008160020b627fffff19811415614cc557614cc5614d00565b6000600160ff1b821415614cfc57614cfc614d00565b0390565b634e487b7160e01b600052601160045260246000fd5b634e487b7160e01b600052601260045260246000fd5b6001600160a01b0381168114611b6657600080fd5b8015158114611b6657600080fdfea2646970667358221220c0f964b3a7a3f71cd74e908cd0c9067003f58189a089d7c64122f589de8e279c64736f6c63430008040033",
  "devdoc": {
    "errors": {
      "CanOnlyTradeIfUnlocked(bool)": [
        {
          "details": "Error which ensures the VAMM is unlocked"
        }
      ],
      "ExpectedOppositeSigns(int256,int256)": [
        {
          "details": "The two values were expected to have oppostite sigs, but do not"
        }
      ],
      "ExpectedSqrtPriceZeroBeforeInit(uint160)": [
        {
          "details": "Error which is reverted if the sqrt price of the vamm is non-zero before a vamm is initialized"
        }
      ],
      "IRSNotionalAmountSpecifiedMustBeNonZero(int256)": [
        {
          "details": "Error which ensures the amount of notional specified when initiating an IRS contract (via the swap function in the vamm) is non-zero"
        }
      ],
      "LiquidityDeltaMustBePositiveInBurn(uint128)": [
        {
          "details": "Error which ensures the liquidity delta is positive if a given LP wishes to burn liquidity in the vamm"
        }
      ],
      "LiquidityDeltaMustBePositiveInMint(uint128)": [
        {
          "details": "Error which ensures the liquidity delta is positive if a given LP wishes to mint further liquidity in the vamm"
        }
      ],
      "NotEnoughFunds(uint256,uint256)": [
        {
          "details": "There are not enough funds available for the requested operation"
        }
      ],
      "OnlyMarginEngine()": [
        {
          "details": "only the margin engine can run a certain function"
        }
      ]
    },
    "kind": "dev",
    "methods": {
      "burn(address,int24,int24,uint128)": {
        "params": {
          "amount": "The amount of liquidity to burn",
          "recipient": "The address for which the liquidity will be created",
          "tickLower": "The lower tick of the position in which to add liquidity",
          "tickUpper": "The upper tick of the position in which to add liquidity"
        }
      },
      "computeGrowthInside(int24,int24)": {
        "params": {
          "tickLower": "The lower tick of the position",
          "tickUpper": "The upper tick of the position"
        },
        "returns": {
          "feeGrowthInsideX128": "Fee Growth Inside given tick range",
          "fixedTokenGrowthInsideX128": "Fixed Token Growth inside the given tick range",
          "variableTokenGrowthInsideX128": "Variable Token Growth inside the given tick range"
        }
      },
      "constructor": {
        "custom:oz-upgrades-unsafe-allow": "constructor"
      },
      "initialize(address,int24)": {
        "details": "\"constructor\" for proxy instances"
      },
      "initializeVAMM(uint160)": {
        "details": "not locked because it initializes unlocked"
      },
      "mint(address,int24,int24,uint128)": {
        "params": {
          "amount": "The amount of liquidity to mint",
          "recipient": "The address for which the liquidity will be created",
          "tickLower": "The lower tick of the position in which to add liquidity",
          "tickUpper": "The upper tick of the position in which to add liquidity"
        }
      },
      "owner()": {
        "details": "Returns the address of the current owner."
      },
      "paused()": {
        "details": "Returns true if the contract is paused, and false otherwise."
      },
      "renounceOwnership()": {
        "details": "Leaves the contract without owner. It will not be possible to call `onlyOwner` functions anymore. Can only be called by the current owner. NOTE: Renouncing ownership will leave the contract without an owner, thereby removing any functionality that is only available to the owner."
      },
      "swap((address,int256,uint160,bool,int24,int24))": {
        "params": {
          "params": "SwapParams necessary to initiate an Interest Rate Swap"
        },
        "returns": {
          "_cumulativeFeeIncurred": "Cumulative Fee Incurred",
          "_fixedTokenDelta": "Fixed Token Delta",
          "_variableTokenDelta": "Variable Token Delta"
        }
      },
      "transferOwnership(address)": {
        "details": "Transfers ownership of the contract to a new account (`newOwner`). Can only be called by the current owner."
      },
      "updateProtocolFees(uint256)": {
        "details": "can only be done via the collectProtocol function of the parent AMM of the vamm"
      }
    },
    "stateVariables": {
      "feeGrowthGlobalX128": {
        "details": "This value can overflow the uint256"
      },
      "feeWad": {
        "return": "The fee in wei",
        "returns": {
          "_0": "The fee in wei"
        }
      },
      "fixedTokenGrowthGlobalX128": {
        "details": "This value can overflow the uint256"
      },
      "maxLiquidityPerTick": {
        "details": "This parameter should be enforced per tick (when setting) to prevent liquidity from overflowing a uint128 at any point, and also prevents out-of-range liquidity from being used to prevent adding in-range liquidity to the vamm",
        "return": "The max amount of liquidity per tick",
        "returns": {
          "_0": "The max amount of liquidity per tick"
        }
      },
      "protocolFees": {
        "details": "Protocol fees will never exceed uint256"
      },
      "tickSpacing": {
        "details": "Ticks can only be used at multiples of this value, minimum of 1 and always positive e.g.: a tickSpacing of 3 means ticks can be initialized every 3rd tick, i.e., ..., -6, -3, 0, 3, 6, ... This value is an int24 to avoid casting even though it is always positive.",
        "return": "The tick spacing",
        "returns": {
          "_0": "The tick spacing"
        }
      },
      "ticks": {
        "params": {
          "tick": "The tick to look up"
        },
        "return": "liquidityGross the total amount of position liquidity that uses the vamm either as tick lower or tick upper, liquidityNet how much liquidity changes when the vamm price crosses the tick, feeGrowthOutsideX128 the fee growth on the other side of the tick from the current tick in underlying token i.e. if liquidityGross is greater than 0. In addition, these values are only relative.",
        "returns": {
          "liquidityGross": "the total amount of position liquidity that uses the vamm either as tick lower or tick upper, liquidityNet how much liquidity changes when the vamm price crosses the tick, feeGrowthOutsideX128 the fee growth on the other side of the tick from the current tick in underlying token i.e. if liquidityGross is greater than 0. In addition, these values are only relative."
        }
      },
      "unlocked": {
        "return": "The boolean, true if the vamm is unlocked",
        "returns": {
          "_0": "The boolean, true if the vamm is unlocked"
        }
      },
      "vammVars": {
        "returns": {
          "feeProtocol": "feeProtocol",
          "sqrtPriceX96": "The current price of the pool as a sqrt(variableToken/fixedToken) Q64.96 value",
          "tick": "The current tick of the vamm, i.e. according to the last tick transition that was run."
        }
      },
      "variableTokenGrowthGlobalX128": {
        "details": "This value can overflow the uint256"
      }
    },
    "version": 1
  },
  "userdoc": {
    "errors": {
      "AmountSignsSame()": [
        {
          "notice": "amount0 and amount1 must have different signs"
        }
      ],
      "PRBMathSD59x18__DivInputTooSmall()": [
        {
          "notice": "Emitted when one of the inputs is MIN_SD59x18."
        }
      ],
      "PRBMathSD59x18__DivOverflow(uint256)": [
        {
          "notice": "Emitted when one of the intermediary unsigned results overflows SD59x18."
        }
      ],
      "PRBMathSD59x18__FromIntOverflow(int256)": [
        {
          "notice": "Emitted when converting a basic integer to the fixed-point format overflows SD59x18."
        }
      ],
      "PRBMathSD59x18__FromIntUnderflow(int256)": [
        {
          "notice": "Emitted when converting a basic integer to the fixed-point format underflows SD59x18."
        }
      ],
      "PRBMathSD59x18__MulInputTooSmall()": [
        {
          "notice": "Emitted when one of the inputs is MIN_SD59x18."
        }
      ],
      "PRBMathSD59x18__MulOverflow(uint256)": [
        {
          "notice": "Emitted when the intermediary absolute result overflows SD59x18."
        }
      ],
      "PRBMathUD60x18__FromUintOverflow(uint256)": [
        {
          "notice": "Emitted when converting a basic integer to the fixed-point format format overflows UD60x18."
        }
      ],
      "PRBMath__MulDivFixedPointOverflow(uint256)": [
        {
          "notice": "Emitted when the result overflows uint256."
        }
      ],
      "PRBMath__MulDivOverflow(uint256,uint256)": [
        {
          "notice": "Emitted when the result overflows uint256."
        }
      ]
    },
    "kind": "user",
    "methods": {
      "burn(address,int24,int24,uint128)": {
        "notice": "removes liquidity given recipient/tickLower/tickUpper of the position"
      },
      "computeGrowthInside(int24,int24)": {
        "notice": "Computes the current fixed and variable token growth inside a given tick range given the current tick in the vamm"
      },
      "feeGrowthGlobalX128()": {
        "notice": "The fee growth in wei, collected per unit of liquidity for the entire life of the vamm"
      },
      "feeWad()": {
        "notice": "The vamm's fee (proportion) in wei"
      },
      "fixedTokenGrowthGlobalX128()": {
        "notice": "The fixed token growth in wei, accumulated per unit of liquidity for the entire life of the vamm"
      },
      "liquidity()": {
        "notice": "The currently in range liquidity available to the vamm"
      },
      "maxLiquidityPerTick()": {
        "notice": "The maximum amount of position liquidity that can use any tick in the range"
      },
      "mint(address,int24,int24,uint128)": {
        "notice": "Adds liquidity for the given recipient/tickLower/tickUpper position"
      },
      "protocolFees()": {
        "notice": "The amount underlying token that are owed to the protocol"
      },
      "setFeeProtocol(uint8)": {
        "notice": "Function that sets the feeProtocol of the vamm"
      },
      "swap((address,int256,uint160,bool,int24,int24))": {
        "notice": "Initiate an Interest Rate Swap"
      },
      "tickBitmap(int16)": {
        "notice": "Returns 256 packed tick initialized boolean values. See TickBitmap for more information"
      },
      "tickSpacing()": {
        "notice": "The vamm tick spacing"
      },
      "ticks(int24)": {
        "notice": "Look up information about a specific tick in the amm"
      },
      "unlocked()": {
        "notice": "whether the vamm is locked"
      },
      "updateProtocolFees(uint256)": {
        "notice": "Updates internal accounting to reflect a collection of protocol fees. The actual transfer of fees must happen separately in the AMM"
      },
      "variableTokenGrowthGlobalX128()": {
        "notice": "The variable token growth in wei, accumulated per unit of liquidity for the entire life of the vamm"
      }
    },
    "version": 1
  },
  "storageLayout": {
    "storage": [
      {
        "astId": 130,
        "contract": "contracts/VAMM.sol:VAMM",
        "label": "_initialized",
        "offset": 0,
        "slot": "0",
        "type": "t_bool"
      },
      {
        "astId": 133,
        "contract": "contracts/VAMM.sol:VAMM",
        "label": "_initializing",
        "offset": 1,
        "slot": "0",
        "type": "t_bool"
      },
      {
        "astId": 592,
        "contract": "contracts/VAMM.sol:VAMM",
        "label": "__gap",
        "offset": 0,
        "slot": "1",
        "type": "t_array(t_uint256)50_storage"
      },
      {
        "astId": 10,
        "contract": "contracts/VAMM.sol:VAMM",
        "label": "_owner",
        "offset": 0,
        "slot": "51",
        "type": "t_address"
      },
      {
        "astId": 122,
        "contract": "contracts/VAMM.sol:VAMM",
        "label": "__gap",
        "offset": 0,
        "slot": "52",
        "type": "t_array(t_uint256)49_storage"
      },
      {
        "astId": 218,
        "contract": "contracts/VAMM.sol:VAMM",
        "label": "_paused",
        "offset": 0,
        "slot": "101",
        "type": "t_bool"
      },
      {
        "astId": 307,
        "contract": "contracts/VAMM.sol:VAMM",
        "label": "__gap",
        "offset": 0,
        "slot": "102",
        "type": "t_array(t_uint256)49_storage"
      },
      {
        "astId": 4726,
        "contract": "contracts/VAMM.sol:VAMM",
        "label": "feeWad",
        "offset": 0,
        "slot": "151",
        "type": "t_uint256"
      },
      {
        "astId": 4730,
        "contract": "contracts/VAMM.sol:VAMM",
        "label": "tickSpacing",
        "offset": 0,
        "slot": "152",
        "type": "t_int24"
      },
      {
        "astId": 4734,
        "contract": "contracts/VAMM.sol:VAMM",
        "label": "maxLiquidityPerTick",
        "offset": 3,
        "slot": "152",
        "type": "t_uint128"
      },
      {
        "astId": 4741,
        "contract": "contracts/VAMM.sol:VAMM",
        "label": "ticks",
        "offset": 0,
        "slot": "153",
        "type": "t_mapping(t_int24,t_struct(Info)8237_storage)"
      },
      {
        "astId": 4747,
        "contract": "contracts/VAMM.sol:VAMM",
        "label": "tickBitmap",
        "offset": 0,
        "slot": "154",
        "type": "t_mapping(t_int16,t_uint256)"
      },
      {
        "astId": 4751,
        "contract": "contracts/VAMM.sol:VAMM",
        "label": "unlocked",
        "offset": 0,
        "slot": "155",
        "type": "t_bool"
      },
      {
        "astId": 4753,
        "contract": "contracts/VAMM.sol:VAMM",
        "label": "deployer",
        "offset": 1,
        "slot": "155",
        "type": "t_address"
      },
      {
        "astId": 4756,
        "contract": "contracts/VAMM.sol:VAMM",
        "label": "rateOracle",
        "offset": 0,
        "slot": "156",
        "type": "t_contract(IRateOracle)10545"
      },
      {
        "astId": 4761,
        "contract": "contracts/VAMM.sol:VAMM",
        "label": "factory",
        "offset": 0,
        "slot": "157",
        "type": "t_contract(IFactory)9514"
      },
      {
        "astId": 4763,
        "contract": "contracts/VAMM.sol:VAMM",
        "label": "termStartTimestampWad",
        "offset": 0,
        "slot": "158",
        "type": "t_uint256"
      },
      {
        "astId": 4765,
        "contract": "contracts/VAMM.sol:VAMM",
        "label": "termEndTimestampWad",
        "offset": 0,
        "slot": "159",
        "type": "t_uint256"
      },
      {
        "astId": 4885,
        "contract": "contracts/VAMM.sol:VAMM",
        "label": "vammVars",
        "offset": 0,
        "slot": "160",
        "type": "t_struct(VAMMVars)10049_storage"
      },
      {
        "astId": 4889,
        "contract": "contracts/VAMM.sol:VAMM",
        "label": "fixedTokenGrowthGlobalX128",
        "offset": 0,
        "slot": "161",
        "type": "t_int256"
      },
      {
        "astId": 4893,
        "contract": "contracts/VAMM.sol:VAMM",
        "label": "variableTokenGrowthGlobalX128",
        "offset": 0,
        "slot": "162",
        "type": "t_int256"
      },
      {
        "astId": 4897,
        "contract": "contracts/VAMM.sol:VAMM",
        "label": "feeGrowthGlobalX128",
        "offset": 0,
        "slot": "163",
        "type": "t_uint256"
      },
      {
        "astId": 4901,
        "contract": "contracts/VAMM.sol:VAMM",
        "label": "liquidity",
        "offset": 0,
        "slot": "164",
        "type": "t_uint128"
      },
      {
        "astId": 4905,
        "contract": "contracts/VAMM.sol:VAMM",
        "label": "protocolFees",
        "offset": 0,
        "slot": "165",
        "type": "t_uint256"
      },
      {
        "astId": 4910,
        "contract": "contracts/VAMM.sol:VAMM",
        "label": "marginEngine",
        "offset": 0,
        "slot": "166",
        "type": "t_contract(IMarginEngine)9916"
      }
    ],
    "types": {
      "t_address": {
        "encoding": "inplace",
        "label": "address",
        "numberOfBytes": "20"
      },
      "t_array(t_uint256)49_storage": {
        "base": "t_uint256",
        "encoding": "inplace",
        "label": "uint256[49]",
        "numberOfBytes": "1568"
      },
      "t_array(t_uint256)50_storage": {
        "base": "t_uint256",
        "encoding": "inplace",
        "label": "uint256[50]",
        "numberOfBytes": "1600"
      },
      "t_bool": {
        "encoding": "inplace",
        "label": "bool",
        "numberOfBytes": "1"
      },
      "t_contract(IFactory)9514": {
        "encoding": "inplace",
        "label": "contract IFactory",
        "numberOfBytes": "20"
      },
      "t_contract(IMarginEngine)9916": {
        "encoding": "inplace",
        "label": "contract IMarginEngine",
        "numberOfBytes": "20"
      },
      "t_contract(IRateOracle)10545": {
        "encoding": "inplace",
        "label": "contract IRateOracle",
        "numberOfBytes": "20"
      },
      "t_int128": {
        "encoding": "inplace",
        "label": "int128",
        "numberOfBytes": "16"
      },
      "t_int16": {
        "encoding": "inplace",
        "label": "int16",
        "numberOfBytes": "2"
      },
      "t_int24": {
        "encoding": "inplace",
        "label": "int24",
        "numberOfBytes": "3"
      },
      "t_int256": {
        "encoding": "inplace",
        "label": "int256",
        "numberOfBytes": "32"
      },
      "t_mapping(t_int16,t_uint256)": {
        "encoding": "mapping",
        "key": "t_int16",
        "label": "mapping(int16 => uint256)",
        "numberOfBytes": "32",
        "value": "t_uint256"
      },
      "t_mapping(t_int24,t_struct(Info)8237_storage)": {
        "encoding": "mapping",
        "key": "t_int24",
        "label": "mapping(int24 => struct Tick.Info)",
        "numberOfBytes": "32",
        "value": "t_struct(Info)8237_storage"
      },
      "t_struct(Info)8237_storage": {
        "encoding": "inplace",
        "label": "struct Tick.Info",
        "members": [
          {
            "astId": 8226,
            "contract": "contracts/VAMM.sol:VAMM",
            "label": "liquidityGross",
            "offset": 0,
            "slot": "0",
            "type": "t_uint128"
          },
          {
            "astId": 8228,
            "contract": "contracts/VAMM.sol:VAMM",
            "label": "liquidityNet",
            "offset": 16,
            "slot": "0",
            "type": "t_int128"
          },
          {
            "astId": 8230,
            "contract": "contracts/VAMM.sol:VAMM",
            "label": "fixedTokenGrowthOutsideX128",
            "offset": 0,
            "slot": "1",
            "type": "t_int256"
          },
          {
            "astId": 8232,
            "contract": "contracts/VAMM.sol:VAMM",
            "label": "variableTokenGrowthOutsideX128",
            "offset": 0,
            "slot": "2",
            "type": "t_int256"
          },
          {
            "astId": 8234,
            "contract": "contracts/VAMM.sol:VAMM",
            "label": "feeGrowthOutsideX128",
            "offset": 0,
            "slot": "3",
            "type": "t_uint256"
          },
          {
            "astId": 8236,
            "contract": "contracts/VAMM.sol:VAMM",
            "label": "initialized",
            "offset": 0,
            "slot": "4",
            "type": "t_bool"
          }
        ],
        "numberOfBytes": "160"
      },
      "t_struct(VAMMVars)10049_storage": {
        "encoding": "inplace",
        "label": "struct IVAMM.VAMMVars",
        "members": [
          {
            "astId": 10043,
            "contract": "contracts/VAMM.sol:VAMM",
            "label": "sqrtPriceX96",
            "offset": 0,
            "slot": "0",
            "type": "t_uint160"
          },
          {
            "astId": 10046,
            "contract": "contracts/VAMM.sol:VAMM",
            "label": "tick",
            "offset": 20,
            "slot": "0",
            "type": "t_int24"
          },
          {
            "astId": 10048,
            "contract": "contracts/VAMM.sol:VAMM",
            "label": "feeProtocol",
            "offset": 23,
            "slot": "0",
            "type": "t_uint8"
          }
        ],
        "numberOfBytes": "32"
      },
      "t_uint128": {
        "encoding": "inplace",
        "label": "uint128",
        "numberOfBytes": "16"
      },
      "t_uint160": {
        "encoding": "inplace",
        "label": "uint160",
        "numberOfBytes": "20"
      },
      "t_uint256": {
        "encoding": "inplace",
        "label": "uint256",
        "numberOfBytes": "32"
      },
      "t_uint8": {
        "encoding": "inplace",
        "label": "uint8",
        "numberOfBytes": "1"
      }
    }
  }
}