{
  "address": "0x9645206566d453DA132F9A8994ca923071709961",
  "abi": [
    {
      "inputs": [],
      "stateMutability": "nonpayable",
      "type": "constructor"
    },
    {
      "inputs": [],
      "name": "AmountSignsSame",
      "type": "error"
    },
    {
      "inputs": [
        {
          "internalType": "bool",
          "name": "unlocked",
          "type": "bool"
        }
      ],
      "name": "CanOnlyTradeIfUnlocked",
      "type": "error"
    },
    {
      "inputs": [
        {
          "internalType": "uint256",
          "name": "marginRequirement",
          "type": "uint256"
        }
      ],
      "name": "CannotLiquidate",
      "type": "error"
    },
    {
      "inputs": [],
      "name": "CannotSettleBeforeMaturity",
      "type": "error"
    },
    {
      "inputs": [
        {
          "internalType": "int256",
          "name": "amount0",
          "type": "int256"
        },
        {
          "internalType": "int256",
          "name": "amount1",
          "type": "int256"
        }
      ],
      "name": "ExpectedOppositeSigns",
      "type": "error"
    },
    {
      "inputs": [
        {
          "internalType": "uint160",
          "name": "sqrtPriceX96",
          "type": "uint160"
        }
      ],
      "name": "ExpectedSqrtPriceZeroBeforeInit",
      "type": "error"
    },
    {
      "inputs": [
        {
          "internalType": "int256",
          "name": "amountSpecified",
          "type": "int256"
        }
      ],
      "name": "IRSNotionalAmountSpecifiedMustBeNonZero",
      "type": "error"
    },
    {
      "inputs": [],
      "name": "InvalidMarginDelta",
      "type": "error"
    },
    {
      "inputs": [
        {
          "internalType": "uint128",
          "name": "amount",
          "type": "uint128"
        }
      ],
      "name": "LiquidityDeltaMustBePositiveInBurn",
      "type": "error"
    },
    {
      "inputs": [
        {
          "internalType": "uint128",
          "name": "amount",
          "type": "uint128"
        }
      ],
      "name": "LiquidityDeltaMustBePositiveInMint",
      "type": "error"
    },
    {
      "inputs": [
        {
          "internalType": "int256",
          "name": "marginRequirement",
          "type": "int256"
        }
      ],
      "name": "MarginLessThanMinimum",
      "type": "error"
    },
    {
      "inputs": [
        {
          "internalType": "int256",
          "name": "marginRequirement",
          "type": "int256"
        },
        {
          "internalType": "int24",
          "name": "tick",
          "type": "int24"
        },
        {
          "internalType": "int256",
          "name": "fixedTokenDelta",
          "type": "int256"
        },
        {
          "internalType": "int256",
          "name": "variableTokenDelta",
          "type": "int256"
        },
        {
          "internalType": "uint256",
          "name": "cumulativeFeeIncurred",
          "type": "uint256"
        },
        {
          "internalType": "int256",
          "name": "fixedTokenDeltaUnbalanced",
          "type": "int256"
        }
      ],
      "name": "MarginRequirementNotMet",
      "type": "error"
    },
    {
      "inputs": [
        {
          "internalType": "uint256",
          "name": "requested",
          "type": "uint256"
        },
        {
          "internalType": "uint256",
          "name": "available",
          "type": "uint256"
        }
      ],
      "name": "NotEnoughFunds",
      "type": "error"
    },
    {
      "inputs": [],
      "name": "OnlyFCM",
      "type": "error"
    },
    {
      "inputs": [],
      "name": "OnlyMarginEngine",
      "type": "error"
    },
    {
      "inputs": [],
      "name": "OnlyOwnerCanUpdatePosition",
      "type": "error"
    },
    {
      "inputs": [],
      "name": "OnlyVAMM",
      "type": "error"
    },
    {
      "inputs": [],
      "name": "PRBMathSD59x18__DivInputTooSmall",
      "type": "error"
    },
    {
      "inputs": [
        {
          "internalType": "uint256",
          "name": "rAbs",
          "type": "uint256"
        }
      ],
      "name": "PRBMathSD59x18__DivOverflow",
      "type": "error"
    },
    {
      "inputs": [
        {
          "internalType": "int256",
          "name": "x",
          "type": "int256"
        }
      ],
      "name": "PRBMathSD59x18__FromIntOverflow",
      "type": "error"
    },
    {
      "inputs": [
        {
          "internalType": "int256",
          "name": "x",
          "type": "int256"
        }
      ],
      "name": "PRBMathSD59x18__FromIntUnderflow",
      "type": "error"
    },
    {
      "inputs": [],
      "name": "PRBMathSD59x18__MulInputTooSmall",
      "type": "error"
    },
    {
      "inputs": [
        {
          "internalType": "uint256",
          "name": "rAbs",
          "type": "uint256"
        }
      ],
      "name": "PRBMathSD59x18__MulOverflow",
      "type": "error"
    },
    {
      "inputs": [
        {
          "internalType": "uint256",
          "name": "x",
          "type": "uint256"
        }
      ],
      "name": "PRBMathUD60x18__FromUintOverflow",
      "type": "error"
    },
    {
      "inputs": [
        {
          "internalType": "uint256",
          "name": "prod1",
          "type": "uint256"
        }
      ],
      "name": "PRBMath__MulDivFixedPointOverflow",
      "type": "error"
    },
    {
      "inputs": [
        {
          "internalType": "uint256",
          "name": "prod1",
          "type": "uint256"
        },
        {
          "internalType": "uint256",
          "name": "denominator",
          "type": "uint256"
        }
      ],
      "name": "PRBMath__MulDivOverflow",
      "type": "error"
    },
    {
      "inputs": [],
      "name": "PositionNetZero",
      "type": "error"
    },
    {
      "inputs": [],
      "name": "PositionNotSettled",
      "type": "error"
    },
    {
      "inputs": [],
      "name": "WithdrawalExceedsCurrentMargin",
      "type": "error"
    },
    {
      "inputs": [],
      "name": "closeToOrBeyondMaturity",
      "type": "error"
    },
    {
      "anonymous": false,
      "inputs": [
        {
          "indexed": false,
          "internalType": "address",
          "name": "previousAdmin",
          "type": "address"
        },
        {
          "indexed": false,
          "internalType": "address",
          "name": "newAdmin",
          "type": "address"
        }
      ],
      "name": "AdminChanged",
      "type": "event"
    },
    {
      "anonymous": false,
      "inputs": [
        {
          "indexed": true,
          "internalType": "address",
          "name": "beacon",
          "type": "address"
        }
      ],
      "name": "BeaconUpgraded",
      "type": "event"
    },
    {
      "anonymous": false,
      "inputs": [
        {
          "indexed": false,
          "internalType": "address",
          "name": "sender",
          "type": "address"
        },
        {
          "indexed": true,
          "internalType": "address",
          "name": "owner",
          "type": "address"
        },
        {
          "indexed": true,
          "internalType": "int24",
          "name": "tickLower",
          "type": "int24"
        },
        {
          "indexed": true,
          "internalType": "int24",
          "name": "tickUpper",
          "type": "int24"
        },
        {
          "indexed": false,
          "internalType": "uint128",
          "name": "amount",
          "type": "uint128"
        }
      ],
      "name": "Burn",
      "type": "event"
    },
    {
      "anonymous": false,
      "inputs": [
        {
          "indexed": false,
          "internalType": "uint256",
          "name": "feeWadOld",
          "type": "uint256"
        },
        {
          "indexed": false,
          "internalType": "uint256",
          "name": "feeWad",
          "type": "uint256"
        }
      ],
      "name": "FeeSet",
      "type": "event"
    },
    {
      "anonymous": false,
      "inputs": [
        {
          "indexed": false,
          "internalType": "uint160",
          "name": "sqrtPriceX96",
          "type": "uint160"
        },
        {
          "indexed": false,
          "internalType": "int24",
          "name": "tick",
          "type": "int24"
        }
      ],
      "name": "InitializeVAMM",
      "type": "event"
    },
    {
      "anonymous": false,
      "inputs": [
        {
          "indexed": false,
          "internalType": "address",
          "name": "sender",
          "type": "address"
        },
        {
          "indexed": true,
          "internalType": "address",
          "name": "owner",
          "type": "address"
        },
        {
          "indexed": true,
          "internalType": "int24",
          "name": "tickLower",
          "type": "int24"
        },
        {
          "indexed": true,
          "internalType": "int24",
          "name": "tickUpper",
          "type": "int24"
        },
        {
          "indexed": false,
          "internalType": "uint128",
          "name": "amount",
          "type": "uint128"
        }
      ],
      "name": "Mint",
      "type": "event"
    },
    {
      "anonymous": false,
      "inputs": [
        {
          "indexed": true,
          "internalType": "address",
          "name": "previousOwner",
          "type": "address"
        },
        {
          "indexed": true,
          "internalType": "address",
          "name": "newOwner",
          "type": "address"
        }
      ],
      "name": "OwnershipTransferred",
      "type": "event"
    },
    {
      "anonymous": false,
      "inputs": [
        {
          "indexed": false,
          "internalType": "address",
          "name": "account",
          "type": "address"
        }
      ],
      "name": "Paused",
      "type": "event"
    },
    {
      "anonymous": false,
      "inputs": [
        {
          "indexed": false,
          "internalType": "uint8",
          "name": "feeProtocolOld",
          "type": "uint8"
        },
        {
          "indexed": false,
          "internalType": "uint8",
          "name": "feeProtocol",
          "type": "uint8"
        }
      ],
      "name": "SetFeeProtocol",
      "type": "event"
    },
    {
      "anonymous": false,
      "inputs": [
        {
          "indexed": true,
          "internalType": "address",
          "name": "sender",
          "type": "address"
        },
        {
          "indexed": true,
          "internalType": "address",
          "name": "recipient",
          "type": "address"
        },
        {
          "indexed": false,
          "internalType": "uint160",
          "name": "sqrtPriceX96",
          "type": "uint160"
        },
        {
          "indexed": false,
          "internalType": "uint128",
          "name": "liquidity",
          "type": "uint128"
        },
        {
          "indexed": false,
          "internalType": "int24",
          "name": "tick",
          "type": "int24"
        },
        {
          "indexed": false,
          "internalType": "int24",
          "name": "tickLower",
          "type": "int24"
        },
        {
          "indexed": false,
          "internalType": "int24",
          "name": "tickUpper",
          "type": "int24"
        }
      ],
      "name": "Swap",
      "type": "event"
    },
    {
      "anonymous": false,
      "inputs": [
        {
          "indexed": false,
          "internalType": "address",
          "name": "account",
          "type": "address"
        }
      ],
      "name": "Unpaused",
      "type": "event"
    },
    {
      "anonymous": false,
      "inputs": [
        {
          "indexed": true,
          "internalType": "address",
          "name": "implementation",
          "type": "address"
        }
      ],
      "name": "Upgraded",
      "type": "event"
    },
    {
      "inputs": [
        {
          "internalType": "address",
          "name": "recipient",
          "type": "address"
        },
        {
          "internalType": "int24",
          "name": "tickLower",
          "type": "int24"
        },
        {
          "internalType": "int24",
          "name": "tickUpper",
          "type": "int24"
        },
        {
          "internalType": "uint128",
          "name": "amount",
          "type": "uint128"
        }
      ],
      "name": "burn",
      "outputs": [
        {
          "internalType": "int256",
          "name": "positionMarginRequirement",
          "type": "int256"
        }
      ],
      "stateMutability": "nonpayable",
      "type": "function"
    },
    {
      "inputs": [
        {
          "internalType": "int24",
          "name": "tickLower",
          "type": "int24"
        },
        {
          "internalType": "int24",
          "name": "tickUpper",
          "type": "int24"
        }
      ],
      "name": "computeGrowthInside",
      "outputs": [
        {
          "internalType": "int256",
          "name": "fixedTokenGrowthInsideX128",
          "type": "int256"
        },
        {
          "internalType": "int256",
          "name": "variableTokenGrowthInsideX128",
          "type": "int256"
        },
        {
          "internalType": "uint256",
          "name": "feeGrowthInsideX128",
          "type": "uint256"
        }
      ],
      "stateMutability": "view",
      "type": "function"
    },
    {
      "inputs": [],
      "name": "factory",
      "outputs": [
        {
          "internalType": "contract IFactory",
          "name": "",
          "type": "address"
        }
      ],
      "stateMutability": "view",
      "type": "function"
    },
    {
      "inputs": [],
      "name": "feeGrowthGlobalX128",
      "outputs": [
        {
          "internalType": "uint256",
          "name": "",
          "type": "uint256"
        }
      ],
      "stateMutability": "view",
      "type": "function"
    },
    {
      "inputs": [],
      "name": "feeWad",
      "outputs": [
        {
          "internalType": "uint256",
          "name": "",
          "type": "uint256"
        }
      ],
      "stateMutability": "view",
      "type": "function"
    },
    {
      "inputs": [],
      "name": "fixedTokenGrowthGlobalX128",
      "outputs": [
        {
          "internalType": "int256",
          "name": "",
          "type": "int256"
        }
      ],
      "stateMutability": "view",
      "type": "function"
    },
    {
      "inputs": [
        {
          "internalType": "address",
          "name": "_marginEngineAddress",
          "type": "address"
        },
        {
          "internalType": "int24",
          "name": "__tickSpacing",
          "type": "int24"
        }
      ],
      "name": "initialize",
      "outputs": [],
      "stateMutability": "nonpayable",
      "type": "function"
    },
    {
      "inputs": [
        {
          "internalType": "uint160",
          "name": "sqrtPriceX96",
          "type": "uint160"
        }
      ],
      "name": "initializeVAMM",
      "outputs": [],
      "stateMutability": "nonpayable",
      "type": "function"
    },
    {
      "inputs": [],
      "name": "liquidity",
      "outputs": [
        {
          "internalType": "uint128",
          "name": "",
          "type": "uint128"
        }
      ],
      "stateMutability": "view",
      "type": "function"
    },
    {
      "inputs": [],
      "name": "marginEngine",
      "outputs": [
        {
          "internalType": "contract IMarginEngine",
          "name": "",
          "type": "address"
        }
      ],
      "stateMutability": "view",
      "type": "function"
    },
    {
      "inputs": [],
      "name": "maxLiquidityPerTick",
      "outputs": [
        {
          "internalType": "uint128",
          "name": "",
          "type": "uint128"
        }
      ],
      "stateMutability": "view",
      "type": "function"
    },
    {
      "inputs": [
        {
          "internalType": "address",
          "name": "recipient",
          "type": "address"
        },
        {
          "internalType": "int24",
          "name": "tickLower",
          "type": "int24"
        },
        {
          "internalType": "int24",
          "name": "tickUpper",
          "type": "int24"
        },
        {
          "internalType": "uint128",
          "name": "amount",
          "type": "uint128"
        }
      ],
      "name": "mint",
      "outputs": [
        {
          "internalType": "int256",
          "name": "positionMarginRequirement",
          "type": "int256"
        }
      ],
      "stateMutability": "nonpayable",
      "type": "function"
    },
    {
      "inputs": [],
      "name": "owner",
      "outputs": [
        {
          "internalType": "address",
          "name": "",
          "type": "address"
        }
      ],
      "stateMutability": "view",
      "type": "function"
    },
    {
      "inputs": [],
      "name": "paused",
      "outputs": [
        {
          "internalType": "bool",
          "name": "",
          "type": "bool"
        }
      ],
      "stateMutability": "view",
      "type": "function"
    },
    {
      "inputs": [],
      "name": "protocolFees",
      "outputs": [
        {
          "internalType": "uint256",
          "name": "",
          "type": "uint256"
        }
      ],
      "stateMutability": "view",
      "type": "function"
    },
    {
      "inputs": [],
      "name": "renounceOwnership",
      "outputs": [],
      "stateMutability": "nonpayable",
      "type": "function"
    },
    {
      "inputs": [
        {
          "internalType": "uint256",
          "name": "newFeeWad",
          "type": "uint256"
        }
      ],
      "name": "setFee",
      "outputs": [],
      "stateMutability": "nonpayable",
      "type": "function"
    },
    {
      "inputs": [
        {
          "internalType": "uint8",
          "name": "feeProtocol",
          "type": "uint8"
        }
      ],
      "name": "setFeeProtocol",
      "outputs": [],
      "stateMutability": "nonpayable",
      "type": "function"
    },
    {
      "inputs": [
        {
          "components": [
            {
              "internalType": "address",
              "name": "recipient",
              "type": "address"
            },
            {
              "internalType": "int256",
              "name": "amountSpecified",
              "type": "int256"
            },
            {
              "internalType": "uint160",
              "name": "sqrtPriceLimitX96",
              "type": "uint160"
            },
            {
              "internalType": "int24",
              "name": "tickLower",
              "type": "int24"
            },
            {
              "internalType": "int24",
              "name": "tickUpper",
              "type": "int24"
            }
          ],
          "internalType": "struct IVAMM.SwapParams",
          "name": "params",
          "type": "tuple"
        }
      ],
      "name": "swap",
      "outputs": [
        {
          "internalType": "int256",
          "name": "_fixedTokenDelta",
          "type": "int256"
        },
        {
          "internalType": "int256",
          "name": "_variableTokenDelta",
          "type": "int256"
        },
        {
          "internalType": "uint256",
          "name": "_cumulativeFeeIncurred",
          "type": "uint256"
        },
        {
          "internalType": "int256",
          "name": "_fixedTokenDeltaUnbalanced",
          "type": "int256"
        },
        {
          "internalType": "int256",
          "name": "_marginRequirement",
          "type": "int256"
        }
      ],
      "stateMutability": "nonpayable",
      "type": "function"
    },
    {
      "inputs": [
        {
          "internalType": "int16",
          "name": "wordPosition",
          "type": "int16"
        }
      ],
      "name": "tickBitmap",
      "outputs": [
        {
          "internalType": "uint256",
          "name": "",
          "type": "uint256"
        }
      ],
      "stateMutability": "view",
      "type": "function"
    },
    {
      "inputs": [],
      "name": "tickSpacing",
      "outputs": [
        {
          "internalType": "int24",
          "name": "",
          "type": "int24"
        }
      ],
      "stateMutability": "view",
      "type": "function"
    },
    {
      "inputs": [
        {
          "internalType": "int24",
          "name": "tick",
          "type": "int24"
        }
      ],
      "name": "ticks",
      "outputs": [
        {
          "components": [
            {
              "internalType": "uint128",
              "name": "liquidityGross",
              "type": "uint128"
            },
            {
              "internalType": "int128",
              "name": "liquidityNet",
              "type": "int128"
            },
            {
              "internalType": "int256",
              "name": "fixedTokenGrowthOutsideX128",
              "type": "int256"
            },
            {
              "internalType": "int256",
              "name": "variableTokenGrowthOutsideX128",
              "type": "int256"
            },
            {
              "internalType": "uint256",
              "name": "feeGrowthOutsideX128",
              "type": "uint256"
            },
            {
              "internalType": "bool",
              "name": "initialized",
              "type": "bool"
            }
          ],
          "internalType": "struct Tick.Info",
          "name": "",
          "type": "tuple"
        }
      ],
      "stateMutability": "view",
      "type": "function"
    },
    {
      "inputs": [
        {
          "internalType": "address",
          "name": "newOwner",
          "type": "address"
        }
      ],
      "name": "transferOwnership",
      "outputs": [],
      "stateMutability": "nonpayable",
      "type": "function"
    },
    {
      "inputs": [
        {
          "internalType": "uint256",
          "name": "protocolFeesCollected",
          "type": "uint256"
        }
      ],
      "name": "updateProtocolFees",
      "outputs": [],
      "stateMutability": "nonpayable",
      "type": "function"
    },
    {
      "inputs": [
        {
          "internalType": "address",
          "name": "newImplementation",
          "type": "address"
        }
      ],
      "name": "upgradeTo",
      "outputs": [],
      "stateMutability": "nonpayable",
      "type": "function"
    },
    {
      "inputs": [
        {
          "internalType": "address",
          "name": "newImplementation",
          "type": "address"
        },
        {
          "internalType": "bytes",
          "name": "data",
          "type": "bytes"
        }
      ],
      "name": "upgradeToAndCall",
      "outputs": [],
      "stateMutability": "payable",
      "type": "function"
    },
    {
      "inputs": [],
      "name": "vammVars",
      "outputs": [
        {
          "components": [
            {
              "internalType": "uint160",
              "name": "sqrtPriceX96",
              "type": "uint160"
            },
            {
              "internalType": "int24",
              "name": "tick",
              "type": "int24"
            },
            {
              "internalType": "uint8",
              "name": "feeProtocol",
              "type": "uint8"
            }
          ],
          "internalType": "struct IVAMM.VAMMVars",
          "name": "",
          "type": "tuple"
        }
      ],
      "stateMutability": "view",
      "type": "function"
    },
    {
      "inputs": [],
      "name": "variableTokenGrowthGlobalX128",
      "outputs": [
        {
          "internalType": "int256",
          "name": "",
          "type": "int256"
        }
      ],
      "stateMutability": "view",
      "type": "function"
    }
  ],
  "transactionHash": "0xad0b81536e1bc7a88e57d84ccdfdc92301710d3b592a6ab59b093e10a52bb76d",
  "args": [],
  "numDeployments": 1,
  "solcInputHash": "d28da3b9022e0b435e35096f552ed6ae",
  "bytecode": "0x60a06040523060601b6080523480156200001857600080fd5b50604254610100900460ff16620000365760425460ff161562000040565b62000040620000e5565b620000a85760405162461bcd60e51b815260206004820152602e60248201527f496e697469616c697a61626c653a20636f6e747261637420697320616c72656160448201526d191e481a5b9a5d1a585b1a5e995960921b606482015260840160405180910390fd5b604254610100900460ff16158015620000cb576042805461ffff19166101011790555b8015620000de576042805461ff00191690555b5062000109565b6000620000fd306200010360201b620020151760201c565b15905090565b3b151590565b60805160601c61589a6200013d60003960008181610899015281816108d901528181610b060152610b46015261589a6000f3fe6080604052600436106101465760003560e01c80624006e01461014b57806309d7b6221461017b5780631a6865021461019a5780631ad8b03b146101c65780631f2f0893146101db5780633659cfe6146101fb5780633c8f233e1461021d57806347f75ede146102585780634e65b408146102785780634f1ef2861461028d5780635339c296146102a05780635c975abb146102d457806367758e6e146102f757806369fe0e2d1461033f57806370cf754a1461035f578063715018a61461037d57806380a0f76c1461039257806386737710146104335780638da5cb5b14610453578063ad23b41614610468578063b613a1411461047d578063b8cca34e1461049d578063c45a0155146104bd578063d0c93a7c146104db578063d992d90814610501578063f2fde38b14610521578063f30dba9314610541578063f3f949901461065a575b600080fd5b34801561015757600080fd5b506003546001600160a01b03165b6040516101729190614f38565b60405180910390f35b34801561018757600080fd5b50600a545b604051908152602001610172565b3480156101a657600080fd5b5060075461010090046001600160801b03165b60405161017291906151f1565b3480156101d257600080fd5b5060095461018c565b3480156101e757600080fd5b5061018c6101f6366004614d4e565b61066f565b34801561020757600080fd5b5061021b610216366004614c5d565b61088e565b005b34801561022957600080fd5b5061023d610238366004614e27565b610957565b60408051938452602084019290925290820152606001610172565b34801561026457600080fd5b5061021b610273366004614c5d565b610a12565b34801561028457600080fd5b50600b5461018c565b61021b61029b366004614c79565b610afb565b3480156102ac57600080fd5b5061018c6102bb366004614dec565b600190810b900b6000908152600e602052604090205490565b3480156102e057600080fd5b5060a75460ff166040519015158152602001610172565b34801561030357600080fd5b50610317610312366004614e5a565b610bb5565b604080519586526020860194909452928401919091526060830152608082015260a001610172565b34801561034b57600080fd5b5061021b61035a366004614ee3565b611833565b34801561036b57600080fd5b506004546001600160801b03166101b9565b34801561038957600080fd5b5061021b6118e1565b34801561039e57600080fd5b5061040260408051606081018252600080825260208201819052918101919091525060408051606081018252600f546001600160a01b0381168252600160a01b8104600290810b810b900b6020830152600160b81b900460ff169181019190915290565b6040805182516001600160a01b0316815260208084015160020b908201529181015160ff1690820152606001610172565b34801561043f57600080fd5b5061021b61044e366004614ee3565b61191c565b34801561045f57600080fd5b50610165611983565b34801561047457600080fd5b5060085461018c565b34801561048957600080fd5b5061021b610498366004614efb565b611992565b3480156104a957600080fd5b5061018c6104b8366004614d4e565b611a49565b3480156104c957600080fd5b506005546001600160a01b0316610165565b3480156104e757600080fd5b50600c5460020b60405160029190910b8152602001610172565b34801561050d57600080fd5b5061021b61051c366004614d1a565b611c63565b34801561052d57600080fd5b5061021b61053c366004614c5d565b611f78565b34801561054d57600080fd5b5061060561055c366004614e0d565b6040805160c081018252600080825260208201819052918101829052606081018290526080810182905260a081019190915250600290810b810b6000908152600d6020908152604091829020825160c08101845281546001600160801b0381168252600160801b9004600f90810b810b900b92810192909252600181015492820192909252918101546060830152600381015460808301526004015460ff16151560a082015290565b604051610172919081516001600160801b03168152602080830151600f0b9082015260408083015190820152606080830151908201526080828101519082015260a09182015115159181019190915260c00190565b34801561066657600080fd5b5060065461018c565b600061067d60a75460ff1690565b156106a35760405162461bcd60e51b815260040161069a906150bb565b60405180910390fd5b60075460ff166106c55760405162461bcd60e51b815260040161069a906151b2565b6007805460ff191690556001600160801b0382166106f8578160405163c09d260960e01b815260040161069a91906151f1565b336001600160a01b038616148061071957506003546001600160a01b031633145b806107a157506005546040516351c4bc1f60e11b81526001600160a01b039091169063a389783e906107519088903390600401614f4c565b60206040518083038186803b15801561076957600080fd5b505afa15801561077d573d6000803e3d6000fd5b505050506040513d601f19601f820116820180604052508101906107a19190614db0565b6107d85760405162461bcd60e51b81526020600482015260086024820152674d53206f72204d4560c01b604482015260640161069a565b61082c6040518060800160405280876001600160a01b031681526020018660020b81526020018560020b8152602001610819856001600160801b031661201b565b6108229061574c565b600f0b905261206b565b90508260020b8460020b866001600160a01b03167ff57f161c6404e7a58d089003a260456719af3caac502550a59509b4c9d8d46283386604051610871929190614f66565b60405180910390a46007805460ff19166001179055949350505050565b306001600160a01b037f00000000000000000000000000000000000000000000000000000000000000001614156108d75760405162461bcd60e51b815260040161069a90615047565b7f00000000000000000000000000000000000000000000000000000000000000006001600160a01b03166109096122cf565b6001600160a01b03161461092f5760405162461bcd60e51b815260040161069a90615081565b610938816122eb565b604080516000808252602082019092526109549183919061231a565b50565b60408051608081018252600284810b825283810b6020830152600f54600160a01b9004810b900b91810191909152600a546060820152600090819081906109a090600d90612461565b60408051608081018252600288810b825287810b6020830152600f54600160a01b9004810b900b91810191909152600b5460608201529093506109e590600d9061251e565b600f54600854919350610a0991600d9188918891600160a01b900460020b906125b4565b90509250925092565b600f546001600160a01b031615610a4957600f546040516328be1c0f60e21b815261069a916001600160a01b031690600401614f38565b6000610a548261262a565b604080516060810182526001600160a01b038516808252600284810b6020808501829052600094860194909452600f805460ff60b81b199383900b62ffffff16600160a01b026001600160b81b0319909116851717929092169091556007805460ff191660011790558351918252918101919091529192507f16297fce196320ffd737429fd5a57f993d2febecd59a0280c5552838e7c2fa92910160405180910390a15050565b306001600160a01b037f0000000000000000000000000000000000000000000000000000000000000000161415610b445760405162461bcd60e51b815260040161069a90615047565b7f00000000000000000000000000000000000000000000000000000000000000006001600160a01b0316610b766122cf565b6001600160a01b031614610b9c5760405162461bcd60e51b815260040161069a90615081565b610ba5826122eb565b610bb18282600161231a565b5050565b6000806000806000610bc960a75460ff1690565b15610be65760405162461bcd60e51b815260040161069a906150bb565b610bf1600254612962565b15610c0e5760405162461bcd60e51b815260040161069a90615016565b60408051606081018252600f546001600160a01b0381168252600160a01b8104600290810b810b900b602080840191909152600160b81b90910460ff169282019290925290870151610c6690889083906000126129ab565b6003546001600160a01b0316331480610d155750600360009054906101000a90046001600160a01b03166001600160a01b03166322d23b216040518163ffffffff1660e01b815260040160206040518083038186803b158015610cc857600080fd5b505afa158015610cdc573d6000803e3d6000fd5b505050506040513d601f19601f82011682018060405250810190610d009190614dd0565b6001600160a01b0316336001600160a01b0316145b610e065786516001600160a01b0316331480610dae575060055487516040516351c4bc1f60e11b81526001600160a01b039092169163a389783e91610d5e913390600401614f4c565b60206040518083038186803b158015610d7657600080fd5b505afa158015610d8a573d6000803e3d6000fd5b505050506040513d601f19601f82011682018060405250810190610dae9190614db0565b610e065760405162461bcd60e51b815260206004820152602360248201527f6f6e6c792073656e646572206f7220617070726f76656420696e74656772617460448201526234b7b760e91b606482015260840161069a565b610e1887606001518860800151612ad4565b6007805460ff1916908190556040805180820182526001600160801b036101009384900481168252600f54600160b81b900460ff1660208084019190915283516101a0810185528c8201518152600081830181905287516001600160a01b03908116838801529288015160020b6060830152600a546080830152600b5460a0830152845190931660c082015260085460e0820152948501829052610120850182905261014085018290526101608501829052610180850182905281548451637aa4db1360e01b81529451939594911692637aa4db139260048084019391929182900301818387803b158015610f0c57600080fd5b505af1158015610f20573d6000803e3d6000fd5b505050505b805115801590610f4f575088604001516001600160a01b031681604001516001600160a01b031614155b156114c457610fc860405180610160016040528060006001600160a01b03168152602001600060020b815260200160001515815260200160006001600160a01b03168152602001600081526020016000815260200160008152602001600081526020016000815260200160008152602001600081525090565b60408201516001600160a01b031681526060820151600c5460208c0151610ffe92600e92909160029190910b9060001215612b95565b15156040830152600290810b810b6020830181905262010deb19910b121561102f5762010deb196020820152611067565b61103c62010deb19615772565b60020b816020015160020b13156110675761105a62010deb19615772565b600290810b900b60208201525b6110748160200151612d56565b6001600160a01b03166060820152604082015160208b01516111119190600012156110bb578b604001516001600160a01b031683606001516001600160a01b0316116110d9565b8b604001516001600160a01b031683606001516001600160a01b0316105b6110e75782606001516110ed565b8b604001515b60c085015185516006546110ff613168565b60025461110c919061566d565b613178565b60c085015260a084015260808301526001600160a01b0316604083015260208a0151600012156111b257611148816080015161333a565b825183906111579083906155e6565b90525060a08101516111689061333a565b8260200181815161117991906155e6565b905250608081015161118a9061333a565b61014082015260a081015161119e9061333a565b6111a79061578c565b610100820152611225565b6111bf8160a0015161333a565b825183906111ce9083906152d1565b90525060808101516111df9061333a565b826020018181516111f091906152d1565b90525060a08101516112019061333a565b61120a9061578c565b610140820152608081015161121e9061333a565b6101008201525b8060c0015182610120015161123a919061537d565b610120830152602083015160ff161561129a57826020015160ff168160c00151611264919061541a565b60e0820181905260c08201805161127c90839061566d565b90525060e08101516101008301805161129690839061537d565b9052505b60c08201516001600160801b0316156113ba5760208a0151600080546001546002546040516325f258dd60e01b815261134d959490941393879387936001600160a01b03909116926325f258dd926112f6929190600401615205565b602060405180830381600087803b15801561131057600080fd5b505af1158015611324573d6000803e3d6000fd5b505050506040513d601f19601f820116820180604052508101906113489190614e42565b61338a565b6101208501908152608086019190915260a085019190915260e084019190915251610140830180516113809083906155e6565b9052506101408101516101608301805161139b9083906155e6565b905250610100810151610180830180516113b69083906155e6565b9052505b80606001516001600160a01b031682604001516001600160a01b031614156114835780604001511561144a576000611412826020015184608001518560a001518660e00151600d6134c990949392919063ffffffff16565b905060008b602001511361142c576114298161574c565b90505b61143a8360c001518261352f565b6001600160801b031660c0840152505b60008a602001511315611461578060200151611472565b6001816020015161147291906155a9565b600290810b900b60608301526114be565b80600001516001600160a01b031682604001516001600160a01b0316146114be576114b1826040015161262a565b600290810b900b60608301525b50610f25565b826020015160020b816060015160020b1461151b576040810151600f8054606084015160020b62ffffff16600160a01b026001600160b81b03199091166001600160a01b0390931692909217919091179055611540565b6040810151600f80546001600160a01b0319166001600160a01b039092169190911790555b8060c001516001600160801b031682600001516001600160801b03161461158d5760c0810151600780546001600160801b0390921661010002610100600160881b03199092169190911790555b60e081015160085560a0810151600b556080810151600a55610120810151610140820151610160830151610180840151610100850151929b50909950919750909550156115f157806101000151600960008282546115eb919061537d565b90915550505b6003546001600160a01b03163314806116a05750600360009054906101000a90046001600160a01b03166001600160a01b03166322d23b216040518163ffffffff1660e01b815260040160206040518083038186803b15801561165357600080fd5b505afa158015611667573d6000803e3d6000fd5b505050506040513d601f19601f8201168201806040525081019061168b9190614dd0565b6001600160a01b0316336001600160a01b0316145b61177657600354895160608b015160808c015161014085015161016086015161012087015161018088015160405163604b0bd760e11b81526001600160a01b039788166004820152600296870b60248201529490950b60448501526064840192909252608483015260a482015260c481019190915291169063c09617ae9060e401602060405180830381600087803b15801561173b57600080fd5b505af115801561174f573d6000803e3d6000fd5b505050506040513d601f19601f820116820180604052508101906117739190614e42565b93505b88600001516001600160a01b0316336001600160a01b03167f380dad71c375c4cd7fc8e31561c907eaa396f52c1d012bceaefc703b71fc240583604001518460c0015185606001518e606001518f608001516040516118109594939291906001600160a01b039590951685526001600160801b03939093166020850152600291820b6040850152810b60608401520b608082015260a00190565b60405180910390a350506007805460ff1916600117905550939592945090929091565b3361183c611983565b6001600160a01b0316146118625760405162461bcd60e51b815260040161069a90615114565b60075460ff166118845760405162461bcd60e51b815260040161069a906151b2565b6007805460ff1916905560068054908290556040517f74dbbbe280ef27b79a8a0c449d5ae2ba7a31849103241d0f98df70bbc9d03e37906118c89083908590615205565b60405180910390a150506007805460ff19166001179055565b336118ea611983565b6001600160a01b0316146119105760405162461bcd60e51b815260040161069a90615114565b61191a60006135f5565b565b6003546001600160a01b0316331461194757604051630a0d349f60e21b815260040160405180910390fd5b80600954101561196f576009546040516311920a6d60e31b815261069a918391600401615205565b8060095461197d919061566d565b60095550565b6075546001600160a01b031690565b3361199b611983565b6001600160a01b0316146119c15760405162461bcd60e51b815260040161069a90615114565b60075460ff166119e35760405162461bcd60e51b815260040161069a906151b2565b6007805460ff19169055600f805460ff838116600160b81b81810260ff60b81b1985161790945560408051949093049091168084526020840191909152917f7a8f5b6a3fe6312faf94330e829a331301dbd2ce6947e915be63bf67b473ed5f91016118c8565b6000611a5760a75460ff1690565b15611a745760405162461bcd60e51b815260040161069a906150bb565b611a7f600254612962565b15611a9c5760405162461bcd60e51b815260040161069a90615016565b60075460ff16611abe5760405162461bcd60e51b815260040161069a906151b2565b6007805460ff191690556001600160801b038216611af15781604051633611668d60e21b815260040161069a91906151f1565b336001600160a01b0386161480611b8557506005546040516351c4bc1f60e11b81526001600160a01b039091169063a389783e90611b359088903390600401614f4c565b60206040518083038186803b158015611b4d57600080fd5b505afa158015611b61573d6000803e3d6000fd5b505050506040513d601f19601f82011682018060405250810190611b859190614db0565b611bdd5760405162461bcd60e51b8152602060048201526024808201527f6f6e6c79206d73672e73656e646572206f7220617070726f7665642063616e206044820152631b5a5b9d60e21b606482015260840161069a565b611c1e6040518060800160405280876001600160a01b031681526020018660020b81526020018560020b8152602001610822856001600160801b031661201b565b90508260020b8460020b866001600160a01b03167f712faa344eac6399174fdfa887d9e1451e9b55ce58ee440c91c660229962a5a63386604051610871929190614f66565b604254610100900460ff16611c7e5760425460ff1615611c82565b303b155b611ce55760405162461bcd60e51b815260206004820152602e60248201527f496e697469616c697a61626c653a20636f6e747261637420697320616c72656160448201526d191e481a5b9a5d1a585b1a5e995960921b606482015260840161069a565b604254610100900460ff16158015611d07576042805461ffff19166101011790555b6001600160a01b038316611d4e5760405162461bcd60e51b815260206004820152600e60248201526d1351481b5d5cdd081899481cd95d60921b604482015260640161069a565b600380546001600160a01b0319166001600160a01b03851690811790915560408051634c7a58d960e11b815290516398f4b1b291600480820192602092909190829003018186803b158015611da257600080fd5b505afa158015611db6573d6000803e3d6000fd5b505050506040513d601f19601f82011682018060405250810190611dda9190614dd0565b600080546001600160a01b03929092166001600160a01b03199283161790556005805490911633179055600c8054600284810b62ffffff1662ffffff199092169190911791829055611e2d91900b613647565b600480546001600160801b0319166001600160801b03929092169190911781556003546040805163652c30b760e01b815290516001600160a01b039092169263652c30b7928282019260209290829003018186803b158015611e8e57600080fd5b505afa158015611ea2573d6000803e3d6000fd5b505050506040513d601f19601f82011682018060405250810190611ec69190614e42565b600155600354604080516324fb6d1560e21b815290516001600160a01b03909216916393edb45491600480820192602092909190829003018186803b158015611f0e57600080fd5b505afa158015611f22573d6000803e3d6000fd5b505050506040513d601f19601f82011682018060405250810190611f469190614e42565b600255611f516136cf565b611f59613706565b611f6161373d565b8015611f73576042805461ff00191690555b505050565b33611f81611983565b6001600160a01b031614611fa75760405162461bcd60e51b815260040161069a90615114565b6001600160a01b03811661200c5760405162461bcd60e51b815260206004820152602660248201527f4f776e61626c653a206e6577206f776e657220697320746865207a65726f206160448201526564647265737360d01b606482015260840161069a565b610954816135f5565b3b151590565b80600f81900b81146120665760405162461bcd60e51b81526020600482015260146024820152730deeccae4ccd8deee40d2dc40e8de92dce86264760631b604482015260640161069a565b919050565b600061207f82602001518360400151612ad4565b6040805160608082018352600f80546001600160a01b0381168452600160a01b8104600290810b810b900b6020850152600160b81b900460ff1693830193909352840151909160009182910b156120df576120d985613774565b90925090505b600354600094506001600160a01b031633146121a1576003546040805163bfb5607d60e01b815287516001600160a01b0390811660048301526020890151600290810b60248401529289015190920b60448201526060880151600f0b606482015291169063bfb5607d90608401602060405180830381600087803b15801561216657600080fd5b505af115801561217a573d6000803e3d6000fd5b505050506040513d601f19601f8201168201806040525081019061219e9190614e42565b93505b60008560600151600f0b12156121df5781156121c85760208501516121c890600d9061383e565b80156121df5760408501516121df90600d9061383e565b6000805460408051637aa4db1360e01b815290516001600160a01b0390921692637aa4db139260048084019382900301818387803b15801561222057600080fd5b505af1158015612234573d6000803e3d6000fd5b505050508460600151600f0b6000146122c757846020015160020b836020015160020b121580156122725750846040015160020b836020015160020b125b156122c7576000600760019054906101000a90046001600160801b0316905061229f81876060015161352f565b600760016101000a8154816001600160801b0302191690836001600160801b03160217905550505b505050919050565b60008051602061581e833981519152546001600160a01b031690565b336122f4611983565b6001600160a01b0316146109545760405162461bcd60e51b815260040161069a90615114565b60006123246122cf565b905061232f84613879565b60008351118061233c5750815b1561234d5761234b848461390c565b505b7f4910fdfa16fed3260ed0e7147f7cc6da11a60208b5b9406d12a635614ffd9143805460ff1661245a57805460ff191660011781556040516123c8908690612399908590602401614f38565b60408051601f198184030181529190526020810180516001600160e01b0316631b2ce7f360e11b17905261390c565b50805460ff191681556123d96122cf565b6001600160a01b0316826001600160a01b0316146124515760405162461bcd60e51b815260206004820152602f60248201527f45524331393637557067726164653a207570677261646520627265616b73206660448201526e75727468657220757067726164657360881b606482015260840161069a565b61245a856139ee565b5050505050565b8051600290810b810b60009081526020848152604080832091850151840b840b83528083208551918601519394929390928592810b91900b126124a9575060018201546124c0565b826001015485606001516124bd91906155e6565b90505b6000856020015160020b866040015160020b12156124e3575060018201546124fa565b826001015486606001516124f791906155e6565b90505b61250481836152d1565b866060015161251391906155e6565b979650505050505050565b8051600290810b810b60009081526020848152604080832091850151840b840b83528083208551918601519394929390928592810b91900b126125665750600282015461257d565b8260020154856060015161257a91906155e6565b90505b6000856020015160020b866040015160020b12156125a0575060028201546124fa565b826002015486606001516124f791906155e6565b600284810b80820b60009081526020889052604080822087850b850b835290822091939092849187900b126125ee575060038201546125f7565b50600382015484035b60008760020b8760020b12156126125750600382015461261b565b50600382015485035b01909303979650505050505050565b60006b0816769404766de590afe04e6001600160a01b0383161080159061266657506c1fa71f3f5f68a90479ee3f8fec6001600160a01b038316105b6126965760405162461bcd60e51b81526020600482015260016024820152602960f91b604482015260640161069a565b600160201b600160c01b03602083901b166001600160801b03811160071b81811c6001600160401b03811160061b90811c63ffffffff811160051b90811c61ffff811160041b90811c60ff8111600390811b91821c600f811160021b90811c918211600190811b92831c9790881196179094179092171790911717176080811061272f57612725607f8261566d565b83901c9150612740565b61273a81607f61566d565b83901b91505b6000604061274f6080846155e6565b901b9050828302607f1c92508260801c80603f1b8217915083811c935050828302607f1c92508260801c80603e1b8217915083811c935050828302607f1c92508260801c80603d1b8217915083811c935050828302607f1c92508260801c80603c1b8217915083811c935050828302607f1c92508260801c80603b1b8217915083811c935050828302607f1c92508260801c80603a1b8217915083811c935050828302607f1c92508260801c8060391b8217915083811c935050828302607f1c92508260801c8060381b8217915083811c935050828302607f1c92508260801c8060371b8217915083811c935050828302607f1c92508260801c8060361b8217915083811c935050828302607f1c92508260801c8060351b8217915083811c935050828302607f1c92508260801c8060341b8217915083811c935050828302607f1c92508260801c8060331b8217915083811c935050828302607f1c92508260801c8060321b8217915050600081693627a301d71055774c856128d291906154b7565b9050600060806128f26f028f6481ab7f045a5af012a19d003aaa846155e6565b901d905060006080612914846fdb2df09e81959a81455e260799a0632f6152d1565b901d90508060020b8260020b1461295357886001600160a01b031661293882612d56565b6001600160a01b0316111561294d5781612955565b80612955565b815b9998505050505050505050565b60008061296d613168565b905082811061297f57600191506129a5565b600061298b828561566d565b905069124bc0ddd92e5600000081116129a357600192505b505b50919050565b60208301516129d557826020015160405163437f5cdd60e11b815260040161069a91815260200190565b60075460ff16612a0357600754604051633cc7822f60e11b815260ff9091161515600482015260240161069a565b80612a575781600001516001600160a01b031683604001516001600160a01b0316108015612a5257506b0816769404766de590afe04e6001600160a01b031683604001516001600160a01b0316115b612aa2565b81600001516001600160a01b031683604001516001600160a01b0316118015612aa257506c1fa71f3f5f68a90479ee3f8fec6001600160a01b031683604001516001600160a01b0316105b611f735760405162461bcd60e51b815260206004820152600360248201526214d41360ea1b604482015260640161069a565b8060020b8260020b12612b0f5760405162461bcd60e51b8152602060048201526003602482015262544c5560e81b604482015260640161069a565b62010deb19600283900b1215612b4d5760405162461bcd60e51b8152602060048201526003602482015262544c4d60e81b604482015260640161069a565b612b5a62010deb19615772565b60020b8160020b1315610bb15760405162461bcd60e51b815260206004820152600360248201526254554d60e81b604482015260640161069a565b60008080612ba385876153ba565b905060008660020b128015612bc35750612bbd8587615716565b60020b15155b15612bd65780612bd2816156d7565b9150505b8315612c8557600080612be883613a2e565b90925090506000600160ff831681901b90612c03908261566d565b612c0d919061537d565b600184810b900b600090815260208c905260409020548116801515965090915085612c4f5788612c4060ff8516876155a9565b612c4a919061542e565b612c7a565b88612c5982613a4b565b612c639085615684565b612c709060ff16876155a9565b612c7a919061542e565b965050505050612d4c565b600080612c9b612c96846001615294565b613a2e565b90925090506000612cb3600160ff841681901b61566d565b600184810b900b600090815260208c905260409020549019908116801515965090915085612d0e5788612ce78460ff615684565b60ff16612cf5876001615294565b612cff9190615294565b612d09919061542e565b612d45565b8883612d1983613b48565b612d239190615684565b60ff16612d31876001615294565b612d3b9190615294565b612d45919061542e565b9650505050505b5094509492505050565b60008060008360020b12612d6d578260020b612d7a565b8260020b612d7a9061578c565b9050612d8962010deb19615772565b60020b811115612dbf5760405162461bcd60e51b81526020600482015260016024820152601560fa1b604482015260640161069a565b600060018216612dd357600160801b612de5565b6ffffcb933bd6fad37aa2d162d1a5940015b6001600160881b031690506002821615612e1a576080612e15826ffff97272373d413259a46990580e213a61553a565b901c90505b6004821615612e44576080612e3f826ffff2e50f5f656932ef12357cf3c7fdcc61553a565b901c90505b6008821615612e6e576080612e69826fffe5caca7e10e4e61c3624eaa0941cd061553a565b901c90505b6010821615612e98576080612e93826fffcb9843d60f6159c9db58835c92664461553a565b901c90505b6020821615612ec2576080612ebd826fff973b41fa98c081472e6896dfb254c061553a565b901c90505b6040821615612eec576080612ee7826fff2ea16466c96a3843ec78b326b5286161553a565b901c90505b6080821615612f16576080612f11826ffe5dee046a99a2a811c461f1969c305361553a565b901c90505b610100821615612f41576080612f3c826ffcbe86c7900a88aedcffc83b479aa3a461553a565b901c90505b610200821615612f6c576080612f67826ff987a7253ac413176f2b074cf7815e5461553a565b901c90505b610400821615612f97576080612f92826ff3392b0822b70005940c7a398e4b70f361553a565b901c90505b610800821615612fc2576080612fbd826fe7159475a2c29b7443b29c7fa6e889d961553a565b901c90505b611000821615612fed576080612fe8826fd097f3bdfd2022b8845ad8f792aa582561553a565b901c90505b612000821615613018576080613013826fa9f746462d870fdf8a65dc1f90e061e561553a565b901c90505b61400082161561304357608061303e826f70d869a156d2a1b890bb3df62baf32f761553a565b901c90505b61800082161561306e576080613069826f31be135f97d08fd981231505542fcfa661553a565b901c90505b6201000082161561309a576080613095826f09aa508b5b7a84e1c677de54f3e99bc961553a565b901c90505b620200008216156130c55760806130c0826e5d6af8dedb81196699c329225ee60461553a565b901c90505b620400008216156130ef5760806130ea826d2216e584f5fa1ea926041bedfe9861553a565b901c90505b62080000821615613117576080613112826b048a170391f7dc42444e8fa261553a565b901c90505b60008460020b13156131325761312f8160001961541a565b90505b613140600160201b82615738565b1561314c57600161314f565b60005b6131609060ff16602083901c61537d565b949350505050565b600061317342613c85565b905090565b60008080806001600160a01b03808a16908b1610158188128015906131df57816131ae576131a98c8c8c6001613cd2565b6131bb565b6131bb8b8d8c6001613d42565b94508489106131cc578a9550613233565b6131d88c8b8b85613e4c565b9550613233565b816131f6576131f18c8c8c6000613d42565b613203565b6132038b8d8c6000613cd2565b93508361320f8a61578c565b1061321c578a9550613233565b6132308c8b61322a8c61578c565b85613ebe565b95505b6001600160a01b038b8116908716146000831561329b578180156132545750825b61326a57613265888f8e6001613d42565b61326c565b865b9650818015613279575082155b61328f5761328a888f8e6000613cd2565b613291565b855b95508590506132e8565b8180156132a55750825b6132bb576132b68e898e6001613cd2565b6132bd565b865b96508180156132ca575082155b6132e0576132db8e898e6000613d42565b6132e2565b855b95508690505b821580156132fd57506132fa8b61578c565b86115b1561330e5761330b8b61578c565b95505b600061331982613c85565b9050613326818b8d613f30565b955050505050509650965096509692505050565b6000600160ff1b82106133865760405162461bcd60e51b815260206004820152601460248201527337bb32b9333637bb9034b7103a37a4b73a191a9b60611b604482015260640161069a565b5090565b6000806000806133b08660c00151600160801b8960c001516001600160801b0316613f6b565b8760e001516133bf919061537d565b93508715613450576133e8866101400151600160801b8960c001516001600160801b0316613f6b565b8760a001516133f791906152d1565b925061341486610100015187610140015187600154600254614069565b905061343a6134228261578c565b600160801b8960c001516001600160801b0316613f6b565b876080015161344991906155e6565b91506134be565b6134628661014001516134229061578c565b8760a0015161347191906155e6565b925061348e86610100015187610140015187600154600254614069565b90506134ac81600160801b8960c001516001600160801b0316613f6b565b87608001516134bb91906152d1565b91505b945094509450949050565b600284810b900b600090815260208690526040812060038101546134ed908461566d565b6003820155600181015461350190866155e6565b6001820155600281015461351590856155e6565b600282015554600160801b9004600f0b9695505050505050565b60008082600f0b121561359c576001600160801b03831661354f8361574c565b6135599085615625565b9150816001600160801b0316106135975760405162461bcd60e51b81526020600482015260026024820152614c5360f01b604482015260640161069a565b6135ef565b6001600160801b0383166135b08385615312565b9150816001600160801b031610156135ef5760405162461bcd60e51b81526020600482015260026024820152614c4160f01b604482015260640161069a565b92915050565b607580546001600160a01b038381166001600160a01b0319831681179093556040519116919082907f8be0079c531659141344cd1fd0a4f28419497f9722a3daafe3b4186f6b6457e090600090a35050565b600080826136598162010deb196153ba565b613663919061542e565b90506000838061367662010deb19615772565b61368091906153ba565b61368a919061542e565b905060008461369984846155a9565b6136a391906153ba565b6136ae90600161535f565b90506136c662ffffff82166001600160801b036153f4565b95945050505050565b604254610100900460ff166136f65760405162461bcd60e51b815260040161069a90615167565b6136fe614134565b61191a61415b565b604254610100900460ff1661372d5760405162461bcd60e51b815260040161069a90615167565b613735614134565b61191a61418b565b604254610100900460ff166137645760405162461bcd60e51b815260040161069a90615167565b61376c614134565b61191a614134565b6020810151600f546060830151600a54600b5460085460045460009687966137b996600d969295600160a01b90920460020b94909389906001600160801b03166141be565b6040840151600f546060860151600a54600b546008546004549698506137fd96600d9695600160a01b900460020b94939291906001906001600160801b03166141be565b9050811561381c576020830151600c5461381c91600e9160020b61435b565b8015613839576040830151600c5461383991600e9160020b61435b565b915091565b600290810b810b600090815260209290925260408220828155600181018390559081018290556003810191909155600401805460ff19169055565b803b6138dd5760405162461bcd60e51b815260206004820152602d60248201527f455243313936373a206e657720696d706c656d656e746174696f6e206973206e60448201526c1bdd08184818dbdb9d1c9858dd609a1b606482015260840161069a565b60008051602061581e83398151915280546001600160a01b0319166001600160a01b0392909216919091179055565b6060823b61396b5760405162461bcd60e51b815260206004820152602660248201527f416464726573733a2064656c65676174652063616c6c20746f206e6f6e2d636f6044820152651b9d1c9858dd60d21b606482015260840161069a565b600080846001600160a01b0316846040516139869190614f1c565b600060405180830381855af49150503d80600081146139c1576040519150601f19603f3d011682016040523d82523d6000602084013e6139c6565b606091505b50915091506136c6828260405180606001604052806027815260200161583e602791396143f2565b6139f781613879565b6040516001600160a01b038216907fbc7cd75a20ee27fd9adebab32041f755214dbc6bffa90cc0225b39da2e5c2d3b90600090a250565b600281900b60081d6000613a4461010084615716565b9050915091565b6000808211613a6c5760405162461bcd60e51b815260040161069a90614fef565b600160801b8210613a8a57608091821c91613a879082615395565b90505b600160401b8210613aa857604091821c91613aa59082615395565b90505b600160201b8210613ac657602091821c91613ac39082615395565b90505b620100008210613ae357601091821c91613ae09082615395565b90505b6101008210613aff57600891821c91613afc9082615395565b90505b60108210613b1a57600491821c91613b179082615395565b90505b60048210613b3557600291821c91613b329082615395565b90505b60028210612066576135ef600182615395565b6000808211613b695760405162461bcd60e51b815260040161069a90614fef565b5060ff6001600160801b03821615613b8d57613b86608082615684565b9050613b95565b608082901c91505b6001600160401b03821615613bb657613baf604082615684565b9050613bbe565b604082901c91505b63ffffffff821615613bdc57613bd5602082615684565b9050613be4565b602082901c91505b61ffff821615613c0057613bf9601082615684565b9050613c08565b601082901c91505b60ff821615613c2357613c1c600882615684565b9050613c2b565b600882901c91505b600f821615613c4657613c3f600482615684565b9050613c4e565b600482901c91505b6003821615613c6957613c62600282615684565b9050613c71565b600282901c91505b6001821615612066576135ef600182615684565b60007812725dd1d243aba0e75fe645cc4873f9e65afe688c928e1f21821115613cc457604051633492ffd960e01b81526004810183905260240161069a565b50670de0b6b3a76400000290565b6000836001600160a01b0316856001600160a01b03161115613cf2579293925b81613d1f57613d1a836001600160801b03168686036001600160a01b0316600160601b613f6b565b6136c6565b6136c6836001600160801b03168686036001600160a01b0316600160601b61442b565b6000836001600160a01b0316856001600160a01b03161115613d62579293925b600160601b600160e01b03606084901b166000613d7f878761564d565b6001600160a01b031690506000876001600160a01b031611613ddc5760405162461bcd60e51b8152602060048201526016602482015275073717274207072696365206d757374206265203e20360541b604482015260640161069a565b83613e2057866001600160a01b0316613dff8383896001600160a01b0316613f6b565b81613e1a57634e487b7160e01b600052601260045260246000fd5b04612513565b612513613e378383896001600160a01b031661442b565b886001600160a01b0316808204910615150190565b600080856001600160a01b031611613e765760405162461bcd60e51b815260040161069a90614fbb565b6000846001600160801b031611613e9f5760405162461bcd60e51b815260040161069a906150e5565b81613eb157613d1a858585600161448c565b6136c685858560016145ae565b600080856001600160a01b031611613ee85760405162461bcd60e51b815260040161069a90614fbb565b6000846001600160801b031611613f115760405162461bcd60e51b815260040161069a906150e5565b81613f2357613d1a85858560006145ae565b6136c6858585600061448c565b600080613f3c84614705565b90506000613f5386613f4e868561471c565b61471c565b9050670de0b6b3a764000081045b9695505050505050565b600080806000198587098587029250828110838203039150508060001415613fdb5760008411613fd05760405162461bcd60e51b815260206004820152601060248201526f4469766973696f6e206279207a65726f60801b604482015260640161069a565b508290049050614062565b808411613ffa5760405162461bcd60e51b815260040161069a906151cf565b600084868809851960019081018716968790049682860381900495909211909303600082900391909104909201919091029190911760038402600290811880860282030280860282030280860282030280860282030280860282030280860290910302029150505b9392505050565b600080861315801561407c575060008512155b80614094575060008612158015614094575060008513155b806140a65750851580156140a6575084155b6140c3576040516301161e4160e01b815260040160405180910390fd5b60006140ce87614728565b905060006140db87614728565b90508484116140fc5760405162461bcd60e51b815260040161069a90615149565b600061410b83838989896147a5565b9050600061411b84838989614812565b670de0b6b3a764000090059a9950505050505050505050565b604254610100900460ff1661191a5760405162461bcd60e51b815260040161069a90615167565b604254610100900460ff166141825760405162461bcd60e51b815260040161069a90615167565b61191a336135f5565b604254610100900460ff166141b25760405162461bcd60e51b815260040161069a90615167565b60a7805460ff19169055565b600288810b900b600090815260208a90526040812080546001600160801b0316826141e98a83615243565b600f0b12156142395760405162461bcd60e51b815260206004820152601c60248201527b3737ba1032b737bab3b4103634b8bab4b234ba3c903a3790313ab93760211b604482015260640161069a565b6000614245828b61352f565b9050846001600160801b0316816001600160801b0316111561428e5760405162461bcd60e51b81526020600482015260026024820152614c4f60f01b604482015260640161069a565b6001600160801b0382811615908216158114159450156142db578a60020b8c60020b136142cb576003830187905560018301899055600283018890555b60048301805460ff191660011790555b82546001600160801b0319166001600160801b03821617835585614315578254614310908b90600160801b9004600f0b615243565b61432c565b825461432c908b90600160801b9004600f0b615559565b8354600f9190910b6001600160801b03908116600160801b0291161790925550909a9950505050505050505050565b6143658183615716565b60020b156143b45760405162461bcd60e51b815260206004820152601c60248201527b1d1a58dac81b5d5cdd081899481c1c9bdc195c9b1e481cdc1858d95960221b604482015260640161069a565b6000806143c4612c9684866153ba565b600191820b820b60009081526020979097526040909620805460ff9097169190911b90951890945550505050565b60608315614401575081614062565b8251156144115782518084602001fd5b8160405162461bcd60e51b815260040161069a9190614f88565b6000614438848484613f6b565b90506000828061445857634e487b7160e01b600052601260045260246000fd5b84860911156140625760001981106144825760405162461bcd60e51b815260040161069a906151cf565b806136c6816156fb565b600081156144f65760006001600160a01b038411156144c2576144bd84600160601b876001600160801b0316613f6b565b6144d9565b6144d96001600160801b038616606086901b61541a565b90506144e48161486a565b6144ee908761533d565b915050613160565b60006001600160a01b038411156145245761451f84600160601b876001600160801b031661442b565b614541565b614541606085901b6001600160801b038716808204910615150190565b905080866001600160a01b03161161459b5760405162461bcd60e51b815260206004820152601e60248201527f7374617274696e67207078206d757374206265203e2071756f7469656e740000604482015260640161069a565b6144ee816001600160a01b03881661566d565b6000826145bc575083613160565b600160601b600160e01b03606085901b1682156146675760006001600160a01b038716856145ea828261553a565b92506145f6908361541a565b1415614631576000614608828461537d565b905082811061462f5761462583896001600160a01b03168361442b565b9350505050613160565b505b61465e82866146496001600160a01b038b168361541a565b614653919061537d565b808204910615150190565b92505050613160565b60006001600160a01b0387168561467e828261553a565b925061468a908361541a565b14801561469657508082115b6146db5760405162461bcd60e51b815260206004820152601660248201527564656e6f6d696e61746f7220756e646572666c6f777360501b604482015260640161069a565b60006146e7828461566d565b9050614625614700848a6001600160a01b03168461442b565b61486a565b60006135ef826a1a1601fc4ea7109e0000006148bb565b600061406283836148d0565b60007809392ee8e921d5d073aff322e62439fcf32d7f344649470f8f198212156147685760405163e608e18b60e01b81526004810183905260240161069a565b7809392ee8e921d5d073aff322e62439fcf32d7f344649470f90821315613cc4576040516371f72a3160e01b81526004810183905260240161069a565b60006147cb60405180606001604052806000815260200160008152602001600081525090565b6147e0876147db60008787614992565b614a53565b81526147ec8686614a53565b6020820181905281516147ff91906152d1565b6040909101819052905095945050505050565b60008282116148335760405162461bcd60e51b815260040161069a90615149565b6000614845866147db60018787614992565b9050600061485386836155e6565b90506125138161486560018888614992565b614b18565b806001600160a01b03811681146120665760405162461bcd60e51b815260206004820152601560248201527406f766572666c6f7720696e20746f55696e7431363605c1b604482015260640161069a565b600061406283670de0b6b3a764000084614bde565b60008080600019848609848602925082811083820303915050670de0b6b3a764000081106149145760405163698d9a0160e11b81526004810182905260240161069a565b600080670de0b6b3a76400008688099150506706f05b59d3b1ffff81118261494e5780670de0b6b3a76400008504019450505050506135ef565b620400008285030493909111909103600160ee1b02919091177faccb18165bd6fe31ae1cf318dc5b51eee0e1ba569b88cd74c1773b91fac106690201905092915050565b60008282116149b35760405162461bcd60e51b815260040161069a90615149565b826149bc613168565b10156149f25760405162461bcd60e51b8152602060048201526005602482015264422e543c5360d81b604482015260640161069a565b60008480614a07575082614a04613168565b10155b15614a1d57614a16848461566d565b9050614a33565b83614a26613168565b614a30919061566d565b90505b6000614a3e82614705565b9050613f618168056bc75e2d631000006148bb565b6000600160ff1b831480614a6a5750600160ff1b82145b15614a8857604051630d01a11b60e21b815260040160405180910390fd5b60008060008512614a995784614a9e565b846000035b915060008412614aae5783614ab3565b836000035b90506000614ac183836148d0565b90506001600160ff1b03811115614aee5760405163bf79e8d960e01b81526004810182905260240161069a565b600019808713908613808218600114614b075782614b0c565b826000035b98975050505050505050565b6000600160ff1b831480614b2f5750600160ff1b82145b15614b4d5760405163b3c754a360e01b815260040160405180910390fd5b60008060008512614b5e5784614b63565b846000035b915060008412614b735783614b78565b836000035b90506000614b8f83670de0b6b3a764000084614bde565b90506001600160ff1b03811115614bbc57604051637cb4bef560e01b81526004810182905260240161069a565b600019808713908613808218600114614bd55782614b0c565b614b0c8361578c565b600080806000198587098587029250828110838203039150508060001415614c2757838281614c1d57634e487b7160e01b600052601260045260246000fd5b0492505050614062565b838110613ffa578084604051631dcf306360e21b815260040161069a929190615205565b8035600281900b811461206657600080fd5b600060208284031215614c6e578081fd5b8135614062816157e8565b60008060408385031215614c8b578081fd5b8235614c96816157e8565b91506020838101356001600160401b0380821115614cb2578384fd5b818601915086601f830112614cc5578384fd5b813581811115614cd757614cd76157d2565b614ce9601f8201601f19168501615213565b91508082528784828501011115614cfe578485fd5b8084840185840137810190920192909252919491935090915050565b60008060408385031215614d2c578182fd5b8235614d37816157e8565b9150614d4560208401614c4b565b90509250929050565b60008060008060808587031215614d63578182fd5b8435614d6e816157e8565b9350614d7c60208601614c4b565b9250614d8a60408601614c4b565b915060608501356001600160801b0381168114614da5578182fd5b939692955090935050565b600060208284031215614dc1578081fd5b81518015158114614062578182fd5b600060208284031215614de1578081fd5b8151614062816157e8565b600060208284031215614dfd578081fd5b81358060010b8114614062578182fd5b600060208284031215614e1e578081fd5b61406282614c4b565b60008060408385031215614e39578182fd5b614d3783614c4b565b600060208284031215614e53578081fd5b5051919050565b600060a08284031215614e6b578081fd5b60405160a081016001600160401b0381118282101715614e8d57614e8d6157d2565b6040528235614e9b816157e8565b8152602083810135908201526040830135614eb5816157e8565b6040820152614ec660608401614c4b565b6060820152614ed760808401614c4b565b60808201529392505050565b600060208284031215614ef4578081fd5b5035919050565b600060208284031215614f0c578081fd5b813560ff81168114614062578182fd5b60008251614f2e8184602087016156a7565b9190910192915050565b6001600160a01b0391909116815260200190565b6001600160a01b0392831681529116602082015260400190565b6001600160a01b039290921682526001600160801b0316602082015260400190565b6020815260008251806020840152614fa78160408501602087016156a7565b601f01601f19169190910160400192915050565b6020808252601a908201527907374617274696e67207072696365206d757374206265203e20360341b604082015260600190565b6020808252600d908201526c078206d757374206265203e203609c1b604082015260600190565b602080825260179082015276636c6f7365546f4f724265796f6e644d6174757269747960481b604082015260600190565b6020808252602c908201526000805160206157fe83398151915260408201526b19195b1959d85d1958d85b1b60a21b606082015260800190565b6020808252602c908201526000805160206157fe83398151915260408201526b6163746976652070726f787960a01b606082015260800190565b60208082526010908201526f14185d5cd8589b194e881c185d5cd95960821b604082015260600190565b60208082526015908201527406c6971756964697479206d757374206265203e203605c1b604082015260600190565b6020808252818101527f4f776e61626c653a2063616c6c6572206973206e6f7420746865206f776e6572604082015260600190565b602080825260049082015263453c3d5360e01b604082015260600190565b6020808252602b908201527f496e697469616c697a61626c653a20636f6e7472616374206973206e6f74206960408201526a6e697469616c697a696e6760a81b606082015260800190565b6020808252600390820152624c4f4b60e81b604082015260600190565b6020808252600890820152676f766572666c6f7760c01b604082015260600190565b6001600160801b0391909116815260200190565b918252602082015260400190565b604051601f8201601f191681016001600160401b038111828210171561523b5761523b6157d2565b604052919050565b6000600f82810b9084900b828212801560016001607f1b038490038313161561526e5761526e6157a6565b60016001607f1b0319839003821281161561528b5761528b6157a6565b50019392505050565b60008160020b8360020b82821282627fffff038213811516156152b9576152b96157a6565b82627fffff1903821281161561528b5761528b6157a6565b600080821280156001600160ff1b03849003851316156152f3576152f36157a6565b600160ff1b839003841281161561530c5761530c6157a6565b50500190565b60006001600160801b03828116848216808303821115615334576153346157a6565b01949350505050565b60006001600160a01b03828116848216808303821115615334576153346157a6565b600062ffffff808316818516808303821115615334576153346157a6565b60008219821115615390576153906157a6565b500190565b600060ff821660ff84168060ff038211156153b2576153b26157a6565b019392505050565b60008160020b8360020b806153d1576153d16157bc565b627fffff198214600019821416156153eb576153eb6157a6565b90059392505050565b60006001600160801b038381168061540e5761540e6157bc565b92169190910492915050565b600082615429576154296157bc565b500490565b60008160020b8360020b627fffff83821384841383830485118282161615615458576154586157a6565b627fffff1986851282811687830587121615615476576154766157a6565b878712925085820587128484161615615491576154916157a6565b858505871281841616156154a7576154a76157a6565b5050509290910295945050505050565b60006001600160ff1b03818413828413808216868404861116156154dd576154dd6157a6565b600160ff1b848712828116878305891216156154fb576154fb6157a6565b858712925087820587128484161615615516576155166157a6565b8785058712818416161561552c5761552c6157a6565b505050929093029392505050565b6000816000190483118215151615615554576155546157a6565b500290565b6000600f82810b9084900b828112801560016001607f1b0319830184121615615584576155846157a6565b60016001607f1b038201831381161561559f5761559f6157a6565b5090039392505050565b60008160020b8360020b82811281627fffff19018312811516156155cf576155cf6157a6565b81627fffff01831381161561559f5761559f6157a6565b60008083128015600160ff1b850184121615615604576156046157a6565b6001600160ff1b038401831381161561561f5761561f6157a6565b50500390565b60006001600160801b0383811690831681811015615645576156456157a6565b039392505050565b60006001600160a01b0383811690831681811015615645576156456157a6565b60008282101561567f5761567f6157a6565b500390565b600060ff821660ff84168082101561569e5761569e6157a6565b90039392505050565b60005b838110156156c25781810151838201526020016156aa565b838111156156d1576000848401525b50505050565b60008160020b627fffff198114156156f1576156f16157a6565b6000190192915050565b600060001982141561570f5761570f6157a6565b5060010190565b60008260020b80615729576157296157bc565b808360020b0791505092915050565b600082615747576157476157bc565b500690565b6000600f82900b60016001607f1b031981141561576b5761576b6157a6565b9003919050565b60008160020b627fffff1981141561576b5761576b6157a6565b6000600160ff1b8214156157a2576157a26157a6565b0390565b634e487b7160e01b600052601160045260246000fd5b634e487b7160e01b600052601260045260246000fd5b634e487b7160e01b600052604160045260246000fd5b6001600160a01b038116811461095457600080fdfe46756e6374696f6e206d7573742062652063616c6c6564207468726f75676820360894a13ba1a3210667c828492db98dca3e2076cc3735a920a3ca505d382bbc416464726573733a206c6f772d6c6576656c2064656c65676174652063616c6c206661696c6564a2646970667358221220f0febb77b1accbd1964800c0c3b669e2fbeb44b3f2139f3d8c4097e034b2d85964736f6c63430008040033",
  "devdoc": {
    "errors": {
      "CanOnlyTradeIfUnlocked(bool)": [
        {
          "details": "Error which ensures the VAMM is unlocked"
        }
      ],
      "ExpectedOppositeSigns(int256,int256)": [
        {
          "details": "The two values were expected to have oppostite sigs, but do not"
        }
      ],
      "ExpectedSqrtPriceZeroBeforeInit(uint160)": [
        {
          "details": "Error which is reverted if the sqrt price of the vamm is non-zero before a vamm is initialized"
        }
      ],
      "IRSNotionalAmountSpecifiedMustBeNonZero(int256)": [
        {
          "details": "Error which ensures the amount of notional specified when initiating an IRS contract (via the swap function in the vamm) is non-zero"
        }
      ],
      "LiquidityDeltaMustBePositiveInBurn(uint128)": [
        {
          "details": "Error which ensures the liquidity delta is positive if a given LP wishes to burn liquidity in the vamm"
        }
      ],
      "LiquidityDeltaMustBePositiveInMint(uint128)": [
        {
          "details": "Error which ensures the liquidity delta is positive if a given LP wishes to mint further liquidity in the vamm"
        }
      ],
      "MarginLessThanMinimum(int256)": [
        {
          "details": "Cannot have less margin than the minimum requirement"
        }
      ],
      "NotEnoughFunds(uint256,uint256)": [
        {
          "details": "There are not enough funds available for the requested operation"
        }
      ],
      "OnlyMarginEngine()": [
        {
          "details": "only the margin engine can run a certain function"
        }
      ],
      "PositionNetZero()": [
        {
          "details": "No need to unwind a net zero position"
        }
      ],
      "PositionNotSettled()": [
        {
          "details": "Position must be settled after AMM has reached maturity"
        }
      ],
      "WithdrawalExceedsCurrentMargin()": [
        {
          "details": "We can't withdraw more margin than we have"
        }
      ]
    },
    "kind": "dev",
    "methods": {
      "burn(address,int24,int24,uint128)": {
        "params": {
          "amount": "The amount of liquidity to burn",
          "recipient": "The address for which the liquidity will be created",
          "tickLower": "The lower tick of the position in which to add liquidity",
          "tickUpper": "The upper tick of the position in which to add liquidity"
        }
      },
      "computeGrowthInside(int24,int24)": {
        "params": {
          "tickLower": "The lower tick of the position",
          "tickUpper": "The upper tick of the position"
        },
        "returns": {
          "feeGrowthInsideX128": "Fee Growth Inside given tick range",
          "fixedTokenGrowthInsideX128": "Fixed Token Growth inside the given tick range",
          "variableTokenGrowthInsideX128": "Variable Token Growth inside the given tick range"
        }
      },
      "constructor": {
        "custom:oz-upgrades-unsafe-allow": "constructor"
      },
      "feeGrowthGlobalX128()": {
        "details": "This value can overflow the uint256"
      },
      "feeWad()": {
        "returns": {
          "_0": "The fee in wei"
        }
      },
      "fixedTokenGrowthGlobalX128()": {
        "details": "This value can overflow the uint256"
      },
      "initialize(address,int24)": {
        "details": "\"constructor\" for proxy instances"
      },
      "initializeVAMM(uint160)": {
        "details": "not locked because it initializes unlocked"
      },
      "maxLiquidityPerTick()": {
        "details": "This parameter should be enforced per tick (when setting) to prevent liquidity from overflowing a uint128 at any point, and also prevents out-of-range liquidity from being used to prevent adding in-range liquidity to the vamm",
        "returns": {
          "_0": "The max amount of liquidity per tick"
        }
      },
      "mint(address,int24,int24,uint128)": {
        "params": {
          "amount": "The amount of liquidity to mint",
          "recipient": "The address for which the liquidity will be created",
          "tickLower": "The lower tick of the position in which to add liquidity",
          "tickUpper": "The upper tick of the position in which to add liquidity"
        }
      },
      "owner()": {
        "details": "Returns the address of the current owner."
      },
      "paused()": {
        "details": "Returns true if the contract is paused, and false otherwise."
      },
      "protocolFees()": {
        "details": "Protocol fees will never exceed uint256"
      },
      "renounceOwnership()": {
        "details": "Leaves the contract without owner. It will not be possible to call `onlyOwner` functions anymore. Can only be called by the current owner. NOTE: Renouncing ownership will leave the contract without an owner, thereby removing any functionality that is only available to the owner."
      },
      "swap((address,int256,uint160,int24,int24))": {
        "params": {
          "params": "SwapParams necessary to initiate an Interest Rate Swap"
        },
        "returns": {
          "_cumulativeFeeIncurred": "Cumulative Fee Incurred",
          "_fixedTokenDelta": "Fixed Token Delta",
          "_variableTokenDelta": "Variable Token Delta"
        }
      },
      "tickSpacing()": {
        "details": "Ticks can only be used at multiples of this value, minimum of 1 and always positive e.g.: a tickSpacing of 3 means ticks can be initialized every 3rd tick, i.e., ..., -6, -3, 0, 3, 6, ... This value is an int24 to avoid casting even though it is always positive.",
        "returns": {
          "_0": "The tick spacing"
        }
      },
      "ticks(int24)": {
        "params": {
          "tick": "The tick to look up"
        },
        "returns": {
          "_0": "liquidityGross: the total amount of position liquidity that uses the vamm either as tick lower or tick upper, liquidityNet: how much liquidity changes when the vamm price crosses the tick, feeGrowthOutsideX128: the fee growth on the other side of the tick from the current tick in underlying token. i.e. if liquidityGross is greater than 0. In addition, these values are only relative."
        }
      },
      "transferOwnership(address)": {
        "details": "Transfers ownership of the contract to a new account (`newOwner`). Can only be called by the current owner."
      },
      "updateProtocolFees(uint256)": {
        "details": "can only be done via the collectProtocol function of the parent AMM of the vamm"
      },
      "upgradeTo(address)": {
        "details": "Upgrade the implementation of the proxy to `newImplementation`. Calls {_authorizeUpgrade}. Emits an {Upgraded} event."
      },
      "upgradeToAndCall(address,bytes)": {
        "details": "Upgrade the implementation of the proxy to `newImplementation`, and subsequently execute the function call encoded in `data`. Calls {_authorizeUpgrade}. Emits an {Upgraded} event."
      },
      "vammVars()": {
        "returns": {
          "_0": "The current VAMM Vars (see struct definition for semantics)"
        }
      },
      "variableTokenGrowthGlobalX128()": {
        "details": "This value can overflow the uint256"
      }
    },
    "version": 1
  },
  "userdoc": {
    "errors": {
      "AmountSignsSame()": [
        {
          "notice": "amount0 and amount1 must have different signs"
        }
      ],
      "CannotLiquidate(uint256)": [
        {
          "notice": "The position/trader needs to be below the liquidation threshold to be liquidated"
        }
      ],
      "CannotSettleBeforeMaturity()": [
        {
          "notice": "Positions and Traders cannot be settled before the applicable interest rate swap has matured"
        }
      ],
      "InvalidMarginDelta()": [
        {
          "notice": "Margin delta must not equal zero"
        }
      ],
      "MarginRequirementNotMet(int256,int24,int256,int256,uint256,int256)": [
        {
          "notice": "The resulting margin does not meet minimum requirements"
        }
      ],
      "OnlyOwnerCanUpdatePosition()": [
        {
          "notice": "Only the position/trade owner can update the LP/Trader margin"
        }
      ],
      "PRBMathSD59x18__DivInputTooSmall()": [
        {
          "notice": "Emitted when one of the inputs is MIN_SD59x18."
        }
      ],
      "PRBMathSD59x18__DivOverflow(uint256)": [
        {
          "notice": "Emitted when one of the intermediary unsigned results overflows SD59x18."
        }
      ],
      "PRBMathSD59x18__FromIntOverflow(int256)": [
        {
          "notice": "Emitted when converting a basic integer to the fixed-point format overflows SD59x18."
        }
      ],
      "PRBMathSD59x18__FromIntUnderflow(int256)": [
        {
          "notice": "Emitted when converting a basic integer to the fixed-point format underflows SD59x18."
        }
      ],
      "PRBMathSD59x18__MulInputTooSmall()": [
        {
          "notice": "Emitted when one of the inputs is MIN_SD59x18."
        }
      ],
      "PRBMathSD59x18__MulOverflow(uint256)": [
        {
          "notice": "Emitted when the intermediary absolute result overflows SD59x18."
        }
      ],
      "PRBMathUD60x18__FromUintOverflow(uint256)": [
        {
          "notice": "Emitted when converting a basic integer to the fixed-point format format overflows UD60x18."
        }
      ],
      "PRBMath__MulDivFixedPointOverflow(uint256)": [
        {
          "notice": "Emitted when the result overflows uint256."
        }
      ],
      "PRBMath__MulDivOverflow(uint256,uint256)": [
        {
          "notice": "Emitted when the result overflows uint256."
        }
      ]
    },
    "kind": "user",
    "methods": {
      "burn(address,int24,int24,uint128)": {
        "notice": "removes liquidity given recipient/tickLower/tickUpper of the position"
      },
      "computeGrowthInside(int24,int24)": {
        "notice": "Computes the current fixed and variable token growth inside a given tick range given the current tick in the vamm"
      },
      "feeGrowthGlobalX128()": {
        "notice": "The fee growth in wei, collected per unit of liquidity for the entire life of the vamm"
      },
      "feeWad()": {
        "notice": "The vamm's fee (proportion) in wei"
      },
      "fixedTokenGrowthGlobalX128()": {
        "notice": "The fixed token growth in wei, accumulated per unit of liquidity for the entire life of the vamm"
      },
      "liquidity()": {
        "notice": "The currently in range liquidity available to the vamm"
      },
      "maxLiquidityPerTick()": {
        "notice": "The maximum amount of position liquidity that can use any tick in the range"
      },
      "mint(address,int24,int24,uint128)": {
        "notice": "Adds liquidity for the given recipient/tickLower/tickUpper position"
      },
      "protocolFees()": {
        "notice": "The amount underlying token that are owed to the protocol"
      },
      "setFeeProtocol(uint8)": {
        "notice": "Function that sets the feeProtocol of the vamm"
      },
      "swap((address,int256,uint160,int24,int24))": {
        "notice": "Initiate an Interest Rate Swap"
      },
      "tickBitmap(int16)": {
        "notice": "Returns 256 packed tick initialized boolean values. See TickBitmap for more information"
      },
      "tickSpacing()": {
        "notice": "The vamm tick spacing"
      },
      "ticks(int24)": {
        "notice": "Look up information about a specific tick in the amm"
      },
      "updateProtocolFees(uint256)": {
        "notice": "Updates internal accounting to reflect a collection of protocol fees. The actual transfer of fees must happen separately in the AMM"
      },
      "variableTokenGrowthGlobalX128()": {
        "notice": "The variable token growth in wei, accumulated per unit of liquidity for the entire life of the vamm"
      }
    },
    "version": 1
  },
  "storageLayout": {
    "storage": [
      {
        "astId": 14809,
        "contract": "contracts/VAMM.sol:VAMM",
        "label": "rateOracle",
        "offset": 0,
        "slot": "0",
        "type": "t_contract(IRateOracle)13049"
      },
      {
        "astId": 14811,
        "contract": "contracts/VAMM.sol:VAMM",
        "label": "termStartTimestampWad",
        "offset": 0,
        "slot": "1",
        "type": "t_uint256"
      },
      {
        "astId": 14813,
        "contract": "contracts/VAMM.sol:VAMM",
        "label": "termEndTimestampWad",
        "offset": 0,
        "slot": "2",
        "type": "t_uint256"
      },
      {
        "astId": 14816,
        "contract": "contracts/VAMM.sol:VAMM",
        "label": "_marginEngine",
        "offset": 0,
        "slot": "3",
        "type": "t_contract(IMarginEngine)12303"
      },
      {
        "astId": 14818,
        "contract": "contracts/VAMM.sol:VAMM",
        "label": "_maxLiquidityPerTick",
        "offset": 0,
        "slot": "4",
        "type": "t_uint128"
      },
      {
        "astId": 14821,
        "contract": "contracts/VAMM.sol:VAMM",
        "label": "_factory",
        "offset": 0,
        "slot": "5",
        "type": "t_contract(IFactory)11879"
      },
      {
        "astId": 14823,
        "contract": "contracts/VAMM.sol:VAMM",
        "label": "_feeWad",
        "offset": 0,
        "slot": "6",
        "type": "t_uint256"
      },
      {
        "astId": 14825,
        "contract": "contracts/VAMM.sol:VAMM",
        "label": "unlocked",
        "offset": 0,
        "slot": "7",
        "type": "t_bool"
      },
      {
        "astId": 14827,
        "contract": "contracts/VAMM.sol:VAMM",
        "label": "_liquidity",
        "offset": 1,
        "slot": "7",
        "type": "t_uint128"
      },
      {
        "astId": 14829,
        "contract": "contracts/VAMM.sol:VAMM",
        "label": "_feeGrowthGlobalX128",
        "offset": 0,
        "slot": "8",
        "type": "t_uint256"
      },
      {
        "astId": 14831,
        "contract": "contracts/VAMM.sol:VAMM",
        "label": "_protocolFees",
        "offset": 0,
        "slot": "9",
        "type": "t_uint256"
      },
      {
        "astId": 14833,
        "contract": "contracts/VAMM.sol:VAMM",
        "label": "_fixedTokenGrowthGlobalX128",
        "offset": 0,
        "slot": "10",
        "type": "t_int256"
      },
      {
        "astId": 14835,
        "contract": "contracts/VAMM.sol:VAMM",
        "label": "_variableTokenGrowthGlobalX128",
        "offset": 0,
        "slot": "11",
        "type": "t_int256"
      },
      {
        "astId": 14837,
        "contract": "contracts/VAMM.sol:VAMM",
        "label": "_tickSpacing",
        "offset": 0,
        "slot": "12",
        "type": "t_int24"
      },
      {
        "astId": 14842,
        "contract": "contracts/VAMM.sol:VAMM",
        "label": "_ticks",
        "offset": 0,
        "slot": "13",
        "type": "t_mapping(t_int24,t_struct(Info)10669_storage)"
      },
      {
        "astId": 14846,
        "contract": "contracts/VAMM.sol:VAMM",
        "label": "_tickBitmap",
        "offset": 0,
        "slot": "14",
        "type": "t_mapping(t_int16,t_uint256)"
      },
      {
        "astId": 14849,
        "contract": "contracts/VAMM.sol:VAMM",
        "label": "_vammVars",
        "offset": 0,
        "slot": "15",
        "type": "t_struct(VAMMVars)12474_storage"
      },
      {
        "astId": 14856,
        "contract": "contracts/VAMM.sol:VAMM",
        "label": "__gap",
        "offset": 0,
        "slot": "16",
        "type": "t_array(t_uint256)50_storage"
      },
      {
        "astId": 540,
        "contract": "contracts/VAMM.sol:VAMM",
        "label": "_initialized",
        "offset": 0,
        "slot": "66",
        "type": "t_bool"
      },
      {
        "astId": 543,
        "contract": "contracts/VAMM.sol:VAMM",
        "label": "_initializing",
        "offset": 1,
        "slot": "66",
        "type": "t_bool"
      },
      {
        "astId": 1119,
        "contract": "contracts/VAMM.sol:VAMM",
        "label": "__gap",
        "offset": 0,
        "slot": "67",
        "type": "t_array(t_uint256)50_storage"
      },
      {
        "astId": 10,
        "contract": "contracts/VAMM.sol:VAMM",
        "label": "_owner",
        "offset": 0,
        "slot": "117",
        "type": "t_address"
      },
      {
        "astId": 124,
        "contract": "contracts/VAMM.sol:VAMM",
        "label": "__gap",
        "offset": 0,
        "slot": "118",
        "type": "t_array(t_uint256)49_storage"
      },
      {
        "astId": 739,
        "contract": "contracts/VAMM.sol:VAMM",
        "label": "_paused",
        "offset": 0,
        "slot": "167",
        "type": "t_bool"
      },
      {
        "astId": 830,
        "contract": "contracts/VAMM.sol:VAMM",
        "label": "__gap",
        "offset": 0,
        "slot": "168",
        "type": "t_array(t_uint256)49_storage"
      },
      {
        "astId": 522,
        "contract": "contracts/VAMM.sol:VAMM",
        "label": "__gap",
        "offset": 0,
        "slot": "217",
        "type": "t_array(t_uint256)50_storage"
      },
      {
        "astId": 717,
        "contract": "contracts/VAMM.sol:VAMM",
        "label": "__gap",
        "offset": 0,
        "slot": "267",
        "type": "t_array(t_uint256)50_storage"
      }
    ],
    "types": {
      "t_address": {
        "encoding": "inplace",
        "label": "address",
        "numberOfBytes": "20"
      },
      "t_array(t_uint256)49_storage": {
        "base": "t_uint256",
        "encoding": "inplace",
        "label": "uint256[49]",
        "numberOfBytes": "1568"
      },
      "t_array(t_uint256)50_storage": {
        "base": "t_uint256",
        "encoding": "inplace",
        "label": "uint256[50]",
        "numberOfBytes": "1600"
      },
      "t_bool": {
        "encoding": "inplace",
        "label": "bool",
        "numberOfBytes": "1"
      },
      "t_contract(IFactory)11879": {
        "encoding": "inplace",
        "label": "contract IFactory",
        "numberOfBytes": "20"
      },
      "t_contract(IMarginEngine)12303": {
        "encoding": "inplace",
        "label": "contract IMarginEngine",
        "numberOfBytes": "20"
      },
      "t_contract(IRateOracle)13049": {
        "encoding": "inplace",
        "label": "contract IRateOracle",
        "numberOfBytes": "20"
      },
      "t_int128": {
        "encoding": "inplace",
        "label": "int128",
        "numberOfBytes": "16"
      },
      "t_int16": {
        "encoding": "inplace",
        "label": "int16",
        "numberOfBytes": "2"
      },
      "t_int24": {
        "encoding": "inplace",
        "label": "int24",
        "numberOfBytes": "3"
      },
      "t_int256": {
        "encoding": "inplace",
        "label": "int256",
        "numberOfBytes": "32"
      },
      "t_mapping(t_int16,t_uint256)": {
        "encoding": "mapping",
        "key": "t_int16",
        "label": "mapping(int16 => uint256)",
        "numberOfBytes": "32",
        "value": "t_uint256"
      },
      "t_mapping(t_int24,t_struct(Info)10669_storage)": {
        "encoding": "mapping",
        "key": "t_int24",
        "label": "mapping(int24 => struct Tick.Info)",
        "numberOfBytes": "32",
        "value": "t_struct(Info)10669_storage"
      },
      "t_struct(Info)10669_storage": {
        "encoding": "inplace",
        "label": "struct Tick.Info",
        "members": [
          {
            "astId": 10655,
            "contract": "contracts/VAMM.sol:VAMM",
            "label": "liquidityGross",
            "offset": 0,
            "slot": "0",
            "type": "t_uint128"
          },
          {
            "astId": 10658,
            "contract": "contracts/VAMM.sol:VAMM",
            "label": "liquidityNet",
            "offset": 16,
            "slot": "0",
            "type": "t_int128"
          },
          {
            "astId": 10661,
            "contract": "contracts/VAMM.sol:VAMM",
            "label": "fixedTokenGrowthOutsideX128",
            "offset": 0,
            "slot": "1",
            "type": "t_int256"
          },
          {
            "astId": 10663,
            "contract": "contracts/VAMM.sol:VAMM",
            "label": "variableTokenGrowthOutsideX128",
            "offset": 0,
            "slot": "2",
            "type": "t_int256"
          },
          {
            "astId": 10665,
            "contract": "contracts/VAMM.sol:VAMM",
            "label": "feeGrowthOutsideX128",
            "offset": 0,
            "slot": "3",
            "type": "t_uint256"
          },
          {
            "astId": 10668,
            "contract": "contracts/VAMM.sol:VAMM",
            "label": "initialized",
            "offset": 0,
            "slot": "4",
            "type": "t_bool"
          }
        ],
        "numberOfBytes": "160"
      },
      "t_struct(VAMMVars)12474_storage": {
        "encoding": "inplace",
        "label": "struct IVAMM.VAMMVars",
        "members": [
          {
            "astId": 12468,
            "contract": "contracts/VAMM.sol:VAMM",
            "label": "sqrtPriceX96",
            "offset": 0,
            "slot": "0",
            "type": "t_uint160"
          },
          {
            "astId": 12471,
            "contract": "contracts/VAMM.sol:VAMM",
            "label": "tick",
            "offset": 20,
            "slot": "0",
            "type": "t_int24"
          },
          {
            "astId": 12473,
            "contract": "contracts/VAMM.sol:VAMM",
            "label": "feeProtocol",
            "offset": 23,
            "slot": "0",
            "type": "t_uint8"
          }
        ],
        "numberOfBytes": "32"
      },
      "t_uint128": {
        "encoding": "inplace",
        "label": "uint128",
        "numberOfBytes": "16"
      },
      "t_uint160": {
        "encoding": "inplace",
        "label": "uint160",
        "numberOfBytes": "20"
      },
      "t_uint256": {
        "encoding": "inplace",
        "label": "uint256",
        "numberOfBytes": "32"
      },
      "t_uint8": {
        "encoding": "inplace",
        "label": "uint8",
        "numberOfBytes": "1"
      }
    }
  }
}