{
  "address": "0x799c679a931C151D247Cf92eb6dcB739AFfE0728",
  "abi": [
    {
      "inputs": [],
      "stateMutability": "nonpayable",
      "type": "constructor"
    },
    {
      "inputs": [],
      "name": "AavePoolGetReserveNormalizedIncomeReturnedZero",
      "type": "error"
    },
    {
      "inputs": [],
      "name": "CTokenExchangeRateReturnedZero",
      "type": "error"
    },
    {
      "inputs": [
        {
          "internalType": "bool",
          "name": "unlocked",
          "type": "bool"
        }
      ],
      "name": "CanOnlyTradeIfUnlocked",
      "type": "error"
    },
    {
      "inputs": [],
      "name": "CannotLiquidate",
      "type": "error"
    },
    {
      "inputs": [],
      "name": "CannotSettleBeforeMaturity",
      "type": "error"
    },
    {
      "inputs": [
        {
          "internalType": "uint256",
          "name": "x",
          "type": "uint256"
        },
        {
          "internalType": "uint256",
          "name": "y",
          "type": "uint256"
        }
      ],
      "name": "DebugError",
      "type": "error"
    },
    {
      "inputs": [
        {
          "internalType": "int256",
          "name": "amount0",
          "type": "int256"
        },
        {
          "internalType": "int256",
          "name": "amount1",
          "type": "int256"
        }
      ],
      "name": "ExpectedOppositeSigns",
      "type": "error"
    },
    {
      "inputs": [
        {
          "internalType": "uint160",
          "name": "sqrtPriceX96",
          "type": "uint160"
        }
      ],
      "name": "ExpectedSqrtPriceZeroBeforeInit",
      "type": "error"
    },
    {
      "inputs": [],
      "name": "IRSNotionalAmountSpecifiedMustBeNonZero",
      "type": "error"
    },
    {
      "inputs": [],
      "name": "InvalidMarginDelta",
      "type": "error"
    },
    {
      "inputs": [
        {
          "internalType": "uint128",
          "name": "amount",
          "type": "uint128"
        }
      ],
      "name": "LiquidityDeltaMustBePositiveInBurn",
      "type": "error"
    },
    {
      "inputs": [
        {
          "internalType": "uint128",
          "name": "amount",
          "type": "uint128"
        }
      ],
      "name": "LiquidityDeltaMustBePositiveInMint",
      "type": "error"
    },
    {
      "inputs": [
        {
          "internalType": "int256",
          "name": "marginRequirement",
          "type": "int256"
        }
      ],
      "name": "MarginLessThanMinimum",
      "type": "error"
    },
    {
      "inputs": [
        {
          "internalType": "int256",
          "name": "marginRequirement",
          "type": "int256"
        },
        {
          "internalType": "int24",
          "name": "tick",
          "type": "int24"
        },
        {
          "internalType": "int256",
          "name": "fixedTokenDelta",
          "type": "int256"
        },
        {
          "internalType": "int256",
          "name": "variableTokenDelta",
          "type": "int256"
        },
        {
          "internalType": "uint256",
          "name": "cumulativeFeeIncurred",
          "type": "uint256"
        },
        {
          "internalType": "int256",
          "name": "fixedTokenDeltaUnbalanced",
          "type": "int256"
        }
      ],
      "name": "MarginRequirementNotMet",
      "type": "error"
    },
    {
      "inputs": [
        {
          "internalType": "int256",
          "name": "marginRequirement",
          "type": "int256"
        }
      ],
      "name": "MarginRequirementNotMetFCM",
      "type": "error"
    },
    {
      "inputs": [
        {
          "internalType": "uint256",
          "name": "requested",
          "type": "uint256"
        },
        {
          "internalType": "uint256",
          "name": "available",
          "type": "uint256"
        }
      ],
      "name": "NotEnoughFunds",
      "type": "error"
    },
    {
      "inputs": [],
      "name": "OOO",
      "type": "error"
    },
    {
      "inputs": [],
      "name": "OnlyFCM",
      "type": "error"
    },
    {
      "inputs": [],
      "name": "OnlyMarginEngine",
      "type": "error"
    },
    {
      "inputs": [],
      "name": "OnlyOwnerCanUpdatePosition",
      "type": "error"
    },
    {
      "inputs": [],
      "name": "OnlyVAMM",
      "type": "error"
    },
    {
      "inputs": [],
      "name": "PRBMathSD59x18__DivInputTooSmall",
      "type": "error"
    },
    {
      "inputs": [
        {
          "internalType": "uint256",
          "name": "rAbs",
          "type": "uint256"
        }
      ],
      "name": "PRBMathSD59x18__DivOverflow",
      "type": "error"
    },
    {
      "inputs": [
        {
          "internalType": "int256",
          "name": "x",
          "type": "int256"
        }
      ],
      "name": "PRBMathSD59x18__FromIntOverflow",
      "type": "error"
    },
    {
      "inputs": [
        {
          "internalType": "int256",
          "name": "x",
          "type": "int256"
        }
      ],
      "name": "PRBMathSD59x18__FromIntUnderflow",
      "type": "error"
    },
    {
      "inputs": [],
      "name": "PRBMathSD59x18__MulInputTooSmall",
      "type": "error"
    },
    {
      "inputs": [
        {
          "internalType": "uint256",
          "name": "rAbs",
          "type": "uint256"
        }
      ],
      "name": "PRBMathSD59x18__MulOverflow",
      "type": "error"
    },
    {
      "inputs": [
        {
          "internalType": "uint256",
          "name": "x",
          "type": "uint256"
        }
      ],
      "name": "PRBMathUD60x18__FromUintOverflow",
      "type": "error"
    },
    {
      "inputs": [
        {
          "internalType": "uint256",
          "name": "prod1",
          "type": "uint256"
        }
      ],
      "name": "PRBMath__MulDivFixedPointOverflow",
      "type": "error"
    },
    {
      "inputs": [
        {
          "internalType": "uint256",
          "name": "prod1",
          "type": "uint256"
        },
        {
          "internalType": "uint256",
          "name": "denominator",
          "type": "uint256"
        }
      ],
      "name": "PRBMath__MulDivOverflow",
      "type": "error"
    },
    {
      "inputs": [],
      "name": "PositionNetZero",
      "type": "error"
    },
    {
      "inputs": [],
      "name": "PositionNotSettled",
      "type": "error"
    },
    {
      "inputs": [],
      "name": "WithdrawalExceedsCurrentMargin",
      "type": "error"
    },
    {
      "inputs": [],
      "name": "closeToOrBeyondMaturity",
      "type": "error"
    },
    {
      "anonymous": false,
      "inputs": [
        {
          "indexed": false,
          "internalType": "address",
          "name": "previousAdmin",
          "type": "address"
        },
        {
          "indexed": false,
          "internalType": "address",
          "name": "newAdmin",
          "type": "address"
        }
      ],
      "name": "AdminChanged",
      "type": "event"
    },
    {
      "anonymous": false,
      "inputs": [
        {
          "indexed": true,
          "internalType": "address",
          "name": "beacon",
          "type": "address"
        }
      ],
      "name": "BeaconUpgraded",
      "type": "event"
    },
    {
      "anonymous": false,
      "inputs": [
        {
          "indexed": false,
          "internalType": "address",
          "name": "sender",
          "type": "address"
        },
        {
          "indexed": true,
          "internalType": "address",
          "name": "owner",
          "type": "address"
        },
        {
          "indexed": true,
          "internalType": "int24",
          "name": "tickLower",
          "type": "int24"
        },
        {
          "indexed": true,
          "internalType": "int24",
          "name": "tickUpper",
          "type": "int24"
        },
        {
          "indexed": false,
          "internalType": "uint128",
          "name": "amount",
          "type": "uint128"
        }
      ],
      "name": "Burn",
      "type": "event"
    },
    {
      "anonymous": false,
      "inputs": [
        {
          "indexed": false,
          "internalType": "uint256",
          "name": "feeWad",
          "type": "uint256"
        }
      ],
      "name": "Fee",
      "type": "event"
    },
    {
      "anonymous": false,
      "inputs": [
        {
          "indexed": false,
          "internalType": "uint8",
          "name": "feeProtocol",
          "type": "uint8"
        }
      ],
      "name": "FeeProtocol",
      "type": "event"
    },
    {
      "anonymous": false,
      "inputs": [
        {
          "indexed": false,
          "internalType": "bool",
          "name": "__isAlpha",
          "type": "bool"
        }
      ],
      "name": "IsAlpha",
      "type": "event"
    },
    {
      "anonymous": false,
      "inputs": [
        {
          "indexed": false,
          "internalType": "address",
          "name": "sender",
          "type": "address"
        },
        {
          "indexed": true,
          "internalType": "address",
          "name": "owner",
          "type": "address"
        },
        {
          "indexed": true,
          "internalType": "int24",
          "name": "tickLower",
          "type": "int24"
        },
        {
          "indexed": true,
          "internalType": "int24",
          "name": "tickUpper",
          "type": "int24"
        },
        {
          "indexed": false,
          "internalType": "uint128",
          "name": "amount",
          "type": "uint128"
        }
      ],
      "name": "Mint",
      "type": "event"
    },
    {
      "anonymous": false,
      "inputs": [
        {
          "indexed": true,
          "internalType": "address",
          "name": "previousOwner",
          "type": "address"
        },
        {
          "indexed": true,
          "internalType": "address",
          "name": "newOwner",
          "type": "address"
        }
      ],
      "name": "OwnershipTransferred",
      "type": "event"
    },
    {
      "anonymous": false,
      "inputs": [
        {
          "indexed": false,
          "internalType": "address",
          "name": "account",
          "type": "address"
        }
      ],
      "name": "Paused",
      "type": "event"
    },
    {
      "anonymous": false,
      "inputs": [
        {
          "indexed": false,
          "internalType": "address",
          "name": "sender",
          "type": "address"
        },
        {
          "indexed": true,
          "internalType": "address",
          "name": "recipient",
          "type": "address"
        },
        {
          "indexed": true,
          "internalType": "int24",
          "name": "tickLower",
          "type": "int24"
        },
        {
          "indexed": true,
          "internalType": "int24",
          "name": "tickUpper",
          "type": "int24"
        },
        {
          "indexed": false,
          "internalType": "int256",
          "name": "desiredNotional",
          "type": "int256"
        },
        {
          "indexed": false,
          "internalType": "uint160",
          "name": "sqrtPriceLimitX96",
          "type": "uint160"
        },
        {
          "indexed": false,
          "internalType": "uint256",
          "name": "cumulativeFeeIncurred",
          "type": "uint256"
        },
        {
          "indexed": false,
          "internalType": "int256",
          "name": "fixedTokenDelta",
          "type": "int256"
        },
        {
          "indexed": false,
          "internalType": "int256",
          "name": "variableTokenDelta",
          "type": "int256"
        },
        {
          "indexed": false,
          "internalType": "int256",
          "name": "fixedTokenDeltaUnbalanced",
          "type": "int256"
        }
      ],
      "name": "Swap",
      "type": "event"
    },
    {
      "anonymous": false,
      "inputs": [
        {
          "indexed": false,
          "internalType": "address",
          "name": "account",
          "type": "address"
        }
      ],
      "name": "Unpaused",
      "type": "event"
    },
    {
      "anonymous": false,
      "inputs": [
        {
          "indexed": true,
          "internalType": "address",
          "name": "implementation",
          "type": "address"
        }
      ],
      "name": "Upgraded",
      "type": "event"
    },
    {
      "anonymous": false,
      "inputs": [
        {
          "indexed": false,
          "internalType": "uint160",
          "name": "sqrtPriceX96",
          "type": "uint160"
        },
        {
          "indexed": false,
          "internalType": "int24",
          "name": "tick",
          "type": "int24"
        }
      ],
      "name": "VAMMInitialization",
      "type": "event"
    },
    {
      "anonymous": false,
      "inputs": [
        {
          "indexed": false,
          "internalType": "int24",
          "name": "tick",
          "type": "int24"
        }
      ],
      "name": "VAMMPriceChange",
      "type": "event"
    },
    {
      "inputs": [],
      "name": "MAX_FEE",
      "outputs": [
        {
          "internalType": "uint256",
          "name": "",
          "type": "uint256"
        }
      ],
      "stateMutability": "view",
      "type": "function"
    },
    {
      "inputs": [
        {
          "internalType": "address",
          "name": "recipient",
          "type": "address"
        },
        {
          "internalType": "int24",
          "name": "tickLower",
          "type": "int24"
        },
        {
          "internalType": "int24",
          "name": "tickUpper",
          "type": "int24"
        },
        {
          "internalType": "uint128",
          "name": "amount",
          "type": "uint128"
        }
      ],
      "name": "burn",
      "outputs": [
        {
          "internalType": "int256",
          "name": "positionMarginRequirement",
          "type": "int256"
        }
      ],
      "stateMutability": "nonpayable",
      "type": "function"
    },
    {
      "inputs": [
        {
          "internalType": "int24",
          "name": "tickLower",
          "type": "int24"
        },
        {
          "internalType": "int24",
          "name": "tickUpper",
          "type": "int24"
        }
      ],
      "name": "computeGrowthInside",
      "outputs": [
        {
          "internalType": "int256",
          "name": "fixedTokenGrowthInsideX128",
          "type": "int256"
        },
        {
          "internalType": "int256",
          "name": "variableTokenGrowthInsideX128",
          "type": "int256"
        },
        {
          "internalType": "uint256",
          "name": "feeGrowthInsideX128",
          "type": "uint256"
        }
      ],
      "stateMutability": "view",
      "type": "function"
    },
    {
      "inputs": [],
      "name": "factory",
      "outputs": [
        {
          "internalType": "contract IFactory",
          "name": "",
          "type": "address"
        }
      ],
      "stateMutability": "view",
      "type": "function"
    },
    {
      "inputs": [],
      "name": "feeGrowthGlobalX128",
      "outputs": [
        {
          "internalType": "uint256",
          "name": "",
          "type": "uint256"
        }
      ],
      "stateMutability": "view",
      "type": "function"
    },
    {
      "inputs": [],
      "name": "feeWad",
      "outputs": [
        {
          "internalType": "uint256",
          "name": "",
          "type": "uint256"
        }
      ],
      "stateMutability": "view",
      "type": "function"
    },
    {
      "inputs": [],
      "name": "fixedTokenGrowthGlobalX128",
      "outputs": [
        {
          "internalType": "int256",
          "name": "",
          "type": "int256"
        }
      ],
      "stateMutability": "view",
      "type": "function"
    },
    {
      "inputs": [
        {
          "internalType": "contract IMarginEngine",
          "name": "__marginEngine",
          "type": "address"
        },
        {
          "internalType": "int24",
          "name": "__tickSpacing",
          "type": "int24"
        }
      ],
      "name": "initialize",
      "outputs": [],
      "stateMutability": "nonpayable",
      "type": "function"
    },
    {
      "inputs": [
        {
          "internalType": "uint160",
          "name": "sqrtPriceX96",
          "type": "uint160"
        }
      ],
      "name": "initializeVAMM",
      "outputs": [],
      "stateMutability": "nonpayable",
      "type": "function"
    },
    {
      "inputs": [],
      "name": "isAlpha",
      "outputs": [
        {
          "internalType": "bool",
          "name": "",
          "type": "bool"
        }
      ],
      "stateMutability": "view",
      "type": "function"
    },
    {
      "inputs": [],
      "name": "liquidity",
      "outputs": [
        {
          "internalType": "uint128",
          "name": "",
          "type": "uint128"
        }
      ],
      "stateMutability": "view",
      "type": "function"
    },
    {
      "inputs": [],
      "name": "marginEngine",
      "outputs": [
        {
          "internalType": "contract IMarginEngine",
          "name": "",
          "type": "address"
        }
      ],
      "stateMutability": "view",
      "type": "function"
    },
    {
      "inputs": [],
      "name": "maxLiquidityPerTick",
      "outputs": [
        {
          "internalType": "uint128",
          "name": "",
          "type": "uint128"
        }
      ],
      "stateMutability": "view",
      "type": "function"
    },
    {
      "inputs": [
        {
          "internalType": "address",
          "name": "recipient",
          "type": "address"
        },
        {
          "internalType": "int24",
          "name": "tickLower",
          "type": "int24"
        },
        {
          "internalType": "int24",
          "name": "tickUpper",
          "type": "int24"
        },
        {
          "internalType": "uint128",
          "name": "amount",
          "type": "uint128"
        }
      ],
      "name": "mint",
      "outputs": [
        {
          "internalType": "int256",
          "name": "positionMarginRequirement",
          "type": "int256"
        }
      ],
      "stateMutability": "nonpayable",
      "type": "function"
    },
    {
      "inputs": [],
      "name": "owner",
      "outputs": [
        {
          "internalType": "address",
          "name": "",
          "type": "address"
        }
      ],
      "stateMutability": "view",
      "type": "function"
    },
    {
      "inputs": [],
      "name": "paused",
      "outputs": [
        {
          "internalType": "bool",
          "name": "",
          "type": "bool"
        }
      ],
      "stateMutability": "view",
      "type": "function"
    },
    {
      "inputs": [],
      "name": "protocolFees",
      "outputs": [
        {
          "internalType": "uint256",
          "name": "",
          "type": "uint256"
        }
      ],
      "stateMutability": "view",
      "type": "function"
    },
    {
      "inputs": [],
      "name": "renounceOwnership",
      "outputs": [],
      "stateMutability": "nonpayable",
      "type": "function"
    },
    {
      "inputs": [
        {
          "internalType": "uint256",
          "name": "newFeeWad",
          "type": "uint256"
        }
      ],
      "name": "setFee",
      "outputs": [],
      "stateMutability": "nonpayable",
      "type": "function"
    },
    {
      "inputs": [
        {
          "internalType": "uint8",
          "name": "feeProtocol",
          "type": "uint8"
        }
      ],
      "name": "setFeeProtocol",
      "outputs": [],
      "stateMutability": "nonpayable",
      "type": "function"
    },
    {
      "inputs": [
        {
          "internalType": "bool",
          "name": "__isAlpha",
          "type": "bool"
        }
      ],
      "name": "setIsAlpha",
      "outputs": [],
      "stateMutability": "nonpayable",
      "type": "function"
    },
    {
      "inputs": [
        {
          "components": [
            {
              "internalType": "address",
              "name": "recipient",
              "type": "address"
            },
            {
              "internalType": "int256",
              "name": "amountSpecified",
              "type": "int256"
            },
            {
              "internalType": "uint160",
              "name": "sqrtPriceLimitX96",
              "type": "uint160"
            },
            {
              "internalType": "int24",
              "name": "tickLower",
              "type": "int24"
            },
            {
              "internalType": "int24",
              "name": "tickUpper",
              "type": "int24"
            }
          ],
          "internalType": "struct IVAMM.SwapParams",
          "name": "params",
          "type": "tuple"
        }
      ],
      "name": "swap",
      "outputs": [
        {
          "internalType": "int256",
          "name": "fixedTokenDelta",
          "type": "int256"
        },
        {
          "internalType": "int256",
          "name": "variableTokenDelta",
          "type": "int256"
        },
        {
          "internalType": "uint256",
          "name": "cumulativeFeeIncurred",
          "type": "uint256"
        },
        {
          "internalType": "int256",
          "name": "fixedTokenDeltaUnbalanced",
          "type": "int256"
        },
        {
          "internalType": "int256",
          "name": "marginRequirement",
          "type": "int256"
        }
      ],
      "stateMutability": "nonpayable",
      "type": "function"
    },
    {
      "inputs": [
        {
          "internalType": "int16",
          "name": "wordPosition",
          "type": "int16"
        }
      ],
      "name": "tickBitmap",
      "outputs": [
        {
          "internalType": "uint256",
          "name": "",
          "type": "uint256"
        }
      ],
      "stateMutability": "view",
      "type": "function"
    },
    {
      "inputs": [],
      "name": "tickSpacing",
      "outputs": [
        {
          "internalType": "int24",
          "name": "",
          "type": "int24"
        }
      ],
      "stateMutability": "view",
      "type": "function"
    },
    {
      "inputs": [
        {
          "internalType": "int24",
          "name": "tick",
          "type": "int24"
        }
      ],
      "name": "ticks",
      "outputs": [
        {
          "components": [
            {
              "internalType": "uint128",
              "name": "liquidityGross",
              "type": "uint128"
            },
            {
              "internalType": "int128",
              "name": "liquidityNet",
              "type": "int128"
            },
            {
              "internalType": "int256",
              "name": "fixedTokenGrowthOutsideX128",
              "type": "int256"
            },
            {
              "internalType": "int256",
              "name": "variableTokenGrowthOutsideX128",
              "type": "int256"
            },
            {
              "internalType": "uint256",
              "name": "feeGrowthOutsideX128",
              "type": "uint256"
            },
            {
              "internalType": "bool",
              "name": "initialized",
              "type": "bool"
            }
          ],
          "internalType": "struct Tick.Info",
          "name": "",
          "type": "tuple"
        }
      ],
      "stateMutability": "view",
      "type": "function"
    },
    {
      "inputs": [
        {
          "internalType": "address",
          "name": "newOwner",
          "type": "address"
        }
      ],
      "name": "transferOwnership",
      "outputs": [],
      "stateMutability": "nonpayable",
      "type": "function"
    },
    {
      "inputs": [
        {
          "internalType": "uint256",
          "name": "protocolFeesCollected",
          "type": "uint256"
        }
      ],
      "name": "updateProtocolFees",
      "outputs": [],
      "stateMutability": "nonpayable",
      "type": "function"
    },
    {
      "inputs": [
        {
          "internalType": "address",
          "name": "newImplementation",
          "type": "address"
        }
      ],
      "name": "upgradeTo",
      "outputs": [],
      "stateMutability": "nonpayable",
      "type": "function"
    },
    {
      "inputs": [
        {
          "internalType": "address",
          "name": "newImplementation",
          "type": "address"
        },
        {
          "internalType": "bytes",
          "name": "data",
          "type": "bytes"
        }
      ],
      "name": "upgradeToAndCall",
      "outputs": [],
      "stateMutability": "payable",
      "type": "function"
    },
    {
      "inputs": [],
      "name": "vammVars",
      "outputs": [
        {
          "components": [
            {
              "internalType": "uint160",
              "name": "sqrtPriceX96",
              "type": "uint160"
            },
            {
              "internalType": "int24",
              "name": "tick",
              "type": "int24"
            },
            {
              "internalType": "uint8",
              "name": "feeProtocol",
              "type": "uint8"
            }
          ],
          "internalType": "struct IVAMM.VAMMVars",
          "name": "",
          "type": "tuple"
        }
      ],
      "stateMutability": "view",
      "type": "function"
    },
    {
      "inputs": [],
      "name": "variableTokenGrowthGlobalX128",
      "outputs": [
        {
          "internalType": "int256",
          "name": "",
          "type": "int256"
        }
      ],
      "stateMutability": "view",
      "type": "function"
    }
  ],
  "transactionHash": "0xb5b2cd24e981abad9bb12adc2467775cf9b9ee68646ae7944f9f87aea731bdd4",
  "args": [],
  "numDeployments": 1,
  "solcInputHash": "c7b7f0e1ae79cd671cc1025134bbe009",
  "bytecode": "0x60a0604052306080523480156200001557600080fd5b50604354610100900460ff16620000335760435460ff16156200003d565b6200003d620000e2565b620000a55760405162461bcd60e51b815260206004820152602e60248201527f496e697469616c697a61626c653a20636f6e747261637420697320616c72656160448201526d191e481a5b9a5d1a585b1a5e995960921b606482015260840160405180910390fd5b604354610100900460ff16158015620000c8576043805461ffff19166101011790555b8015620000db576043805461ff00191690555b5062000106565b6000620000fa306200010060201b620027701760201c565b15905090565b3b151590565b608051615edf62000137600039600081816109d801528181610a1801528181610d4d0152610d8d0152615edf6000f3fe6080604052600436106101975760003560e01c8063715018a6116100e2578063bc063e1a11610085578063bc063e1a1461051d578063c45a015514610538578063cd41b3d514610556578063d0c93a7c14610576578063d992d90814610599578063f2fde38b146105b9578063f30dba93146105d9578063f3f94990146106ea57600080fd5b8063715018a6146103cb57806380a0f76c146103e0578063867377101461047b578063884287521461049b5780638da5cb5b146104b3578063ad23b416146104c8578063b613a141146104dd578063b8cca34e146104fd57600080fd5b806347f75ede1161014a57806347f75ede146102a95780634e65b408146102c95780634f1ef286146102de5780635339c296146102f15780635c975abb1461032157806367758e6e1461034557806369fe0e2d1461038d57806370cf754a146103ad57600080fd5b80624006e01461019c57806309d7b622146101cc5780631a686502146101eb5780631ad8b03b146102175780631f2f08931461022c5780633659cfe61461024c5780633c8f233e1461026e575b600080fd5b3480156101a857600080fd5b506003546001600160a01b03165b6040516101c3919061522e565b60405180910390f35b3480156101d857600080fd5b50600a545b6040519081526020016101c3565b3480156101f757600080fd5b5060075461010090046001600160801b03165b6040516101c39190615242565b34801561022357600080fd5b506009546101dd565b34801561023857600080fd5b506101dd61024736600461527d565b6106ff565b34801561025857600080fd5b5061026c6102673660046152e1565b6109cd565b005b34801561027a57600080fd5b5061028e6102893660046152fe565b610a96565b604080519384526020840192909252908201526060016101c3565b3480156102b557600080fd5b5061026c6102c43660046152e1565b610b74565b3480156102d557600080fd5b50600b546101dd565b61026c6102ec366004615377565b610d42565b3480156102fd57600080fd5b506101dd61030c36600461541e565b60010b6000908152600e602052604090205490565b34801561032d57600080fd5b5060a85460ff165b60405190151581526020016101c3565b34801561035157600080fd5b50610365610360366004615441565b610dfc565b604080519586526020860194909452928401919091526060830152608082015260a0016101c3565b34801561039957600080fd5b5061026c6103a83660046154cb565b611d01565b3480156103b957600080fd5b506004546001600160801b031661020a565b3480156103d757600080fd5b5061026c611df9565b3480156103ec57600080fd5b5061044a60408051606081018252600080825260208201819052918101919091525060408051606081018252600f546001600160a01b0381168252600160a01b810460020b6020830152600160b81b900460ff169181019190915290565b6040805182516001600160a01b0316815260208084015160020b908201529181015160ff16908201526060016101c3565b34801561048757600080fd5b5061026c6104963660046154cb565b611e34565b3480156104a757600080fd5b5060105460ff16610335565b3480156104bf57600080fd5b506101b6611eaa565b3480156104d457600080fd5b506008546101dd565b3480156104e957600080fd5b5061026c6104f83660046154e4565b611eb9565b34801561050957600080fd5b506101dd61051836600461527d565b611fe6565b34801561052957600080fd5b506101dd66470de4df82000081565b34801561054457600080fd5b506005546001600160a01b03166101b6565b34801561056257600080fd5b5061026c610571366004615515565b6122af565b34801561058257600080fd5b50600c5460405160029190910b81526020016101c3565b3480156105a557600080fd5b5061026c6105b4366004615532565b612378565b3480156105c557600080fd5b5061026c6105d43660046152e1565b6126d3565b3480156105e557600080fd5b506106956105f4366004615550565b6040805160c081018252600080825260208201819052918101829052606081018290526080810182905260a081019190915250600290810b6000908152600d6020908152604091829020825160c08101845281546001600160801b0381168252600160801b9004600f0b92810192909252600181015492820192909252918101546060830152600381015460808301526004015460ff16151560a082015290565b6040516101c3919081516001600160801b03168152602080830151600f0b9082015260408083015190820152606080830151908201526080828101519082015260a09182015115159181019190915260c00190565b3480156106f657600080fd5b506006546101dd565b60105460009060ff16156107bf5760055460408051633bd5670d60e11b815290516000926001600160a01b0316916377aace1a916004808301926020929190829003018186803b15801561075257600080fd5b505afa158015610766573d6000803e3d6000fd5b505050506040513d601f19601f8201168201806040525081019061078a919061556b565b9050336001600160a01b038216146107bd5760405162461bcd60e51b81526004016107b490615588565b60405180910390fd5b505b60a85460ff16156107e25760405162461bcd60e51b81526004016107b4906155b0565b60075460ff166108045760405162461bcd60e51b81526004016107b4906155da565b6007805460ff191690556001600160801b038216610837578160405163c09d260960e01b81526004016107b49190615242565b336001600160a01b038616148061085857506003546001600160a01b031633145b806108e057506005546040516351c4bc1f60e11b81526001600160a01b039091169063a389783e9061089090889033906004016155f7565b60206040518083038186803b1580156108a857600080fd5b505afa1580156108bc573d6000803e3d6000fd5b505050506040513d601f19601f820116820180604052508101906108e09190615611565b6109175760405162461bcd60e51b81526020600482015260086024820152674d53206f72204d4560c01b60448201526064016107b4565b61096b6040518060800160405280876001600160a01b031681526020018660020b81526020018560020b8152602001610958856001600160801b0316612776565b61096190615644565b600f0b90526127f7565b90508260020b8460020b866001600160a01b03167ff57f161c6404e7a58d089003a260456719af3caac502550a59509b4c9d8d462833866040516109b092919061566c565b60405180910390a46007805460ff19166001179055949350505050565b306001600160a01b037f0000000000000000000000000000000000000000000000000000000000000000161415610a165760405162461bcd60e51b81526004016107b49061568e565b7f00000000000000000000000000000000000000000000000000000000000000006001600160a01b0316610a48612a55565b6001600160a01b031614610a6e5760405162461bcd60e51b81526004016107b4906156da565b610a7781612a83565b60408051600080825260208201909252610a9391839190612ab2565b50565b6000806000610aa58585612bf9565b60408051608081018252600287810b825286810b6020830152600f54600160a01b9004900b91810191909152600a546060820152610ae590600d90612cba565b60408051608081018252600288810b825287810b6020830152600f54600160a01b9004900b91810191909152600b546060820152909350610b2890600d90612d13565b60408051608081018252600288810b825287810b6020830152600f54600160a01b9004900b918101919091526008546060820152909250610b6b90600d90612d5a565b90509250925092565b6001600160a01b038116610bbd5760405162461bcd60e51b815260206004820152601060248201526f7a65726f20696e70757420707269636560801b60448201526064016107b4565b6c1fa71f3f5f68a90479ee3f8fec6001600160a01b038216108015610bf757506b0816769404766de590afe04e6001600160a01b03821610155b610c135760405162461bcd60e51b81526004016107b490615726565b6003546001600160a01b0316610c625760405162461bcd60e51b81526020600482015260146024820152731d985b5b481b9bdd081a5b9a5d1a585b1a5e995960621b60448201526064016107b4565b600f546001600160a01b031615610c9957600f546040516328be1c0f60e21b81526107b4916001600160a01b03169060040161522e565b6000610ca482612dc1565b604080516060810182526001600160a01b038516808252600284900b6020808401829052600093850193909352600f80546001600160b81b0319168317600160a01b62ffffff8816021760ff60b81b191690556007805460ff191660011790558351918252918101919091529192507facf59ced105c47c72de67aa00ab58b6415014ad6018644e3e8d8ca6862ec0dce910160405180910390a15050565b306001600160a01b037f0000000000000000000000000000000000000000000000000000000000000000161415610d8b5760405162461bcd60e51b81526004016107b49061568e565b7f00000000000000000000000000000000000000000000000000000000000000006001600160a01b0316610dbd612a55565b6001600160a01b031614610de35760405162461bcd60e51b81526004016107b4906156da565b610dec82612a83565b610df882826001612ab2565b5050565b6000806000806000610e1060a85460ff1690565b15610e2d5760405162461bcd60e51b81526004016107b4906155b0565b610e386002546130e6565b15610e555760405162461bcd60e51b81526004016107b490615741565b610e6786606001518760800151612bf9565b60408051606081018252600f546001600160a01b0381168252600160a01b810460020b602080840191909152600160b81b90910460ff169282019290925290870151610eb9908890839060001261310e565b6003546001600160a01b0316331480610f685750600360009054906101000a90046001600160a01b03166001600160a01b03166322d23b216040518163ffffffff1660e01b815260040160206040518083038186803b158015610f1b57600080fd5b505afa158015610f2f573d6000803e3d6000fd5b505050506040513d601f19601f82011682018060405250810190610f53919061556b565b6001600160a01b0316336001600160a01b0316145b6110595786516001600160a01b0316331480611001575060055487516040516351c4bc1f60e11b81526001600160a01b039092169163a389783e91610fb19133906004016155f7565b60206040518083038186803b158015610fc957600080fd5b505afa158015610fdd573d6000803e3d6000fd5b505050506040513d601f19601f820116820180604052508101906110019190615611565b6110595760405162461bcd60e51b815260206004820152602360248201527f6f6e6c792073656e646572206f7220617070726f76656420696e74656772617460448201526234b7b760e91b60648201526084016107b4565b6007805460ff1916908190556040805180820182526001600160801b036101009384900481168252600f54600160b81b900460ff1660208084019190915283516101a0810185528c8201518152600081830181905287516001600160a01b03908116838801529288015160020b6060830152600a546080830152600b5460a0830152845190931660c082015260085460e0820152948501829052610120850182905261014085018290526101608501829052610180850182905281548451637aa4db1360e01b81529451939594911692637aa4db139260048084019391929182900301818387803b15801561114d57600080fd5b505af1158015611161573d6000803e3d6000fd5b505050506000896020015113156115c5575b80511580159061119d575088604001516001600160a01b031681604001516001600160a01b031614155b156115c0576111aa6151bd565b60408201516001600160a01b031681526060820151600c546111d391600e9160020b600061322f565b1515604083015260020b60208201526111ef62010deb19615772565b60020b816020015160020b13156112165761120d62010deb19615772565b60020b60208201525b61122381602001516133ec565b81606001906001600160a01b031690816001600160a01b0316815250506112de6040518060c0016040528084604001516001600160a01b031681526020018c604001516001600160a01b031684606001516001600160a01b03161161128c578360600151611292565b8c604001515b6001600160a01b0316815260c08501516001600160801b031660208201528451604082015260065460608201526080016112ca613781565b6002546112d7919061578c565b9052613791565b60c085015260a0840152608083019081526001600160a01b03909116604084015251611309906139ba565b825183906113189083906157a3565b90525060a0810151611329906139ba565b8260200181815161133a91906157a3565b905250608081015161134b906139ba565b61014082015260a081015161135f906139ba565b611368906157e2565b61010082015260c081015161012083015161138391906157ff565b610120830152602083015160ff16156113e357826020015160ff168160c001516113ad919061582d565b60e0820181905260c0820180516113c590839061578c565b90525060e0810151610100830180516113df9083906157ff565b9052505b60c08201516001600160801b0316156114f9576000546001546002546040516325f258dd60e01b81526004810192909252602482015261148c91849184916001600160a01b0316906325f258dd906044015b602060405180830381600087803b15801561144f57600080fd5b505af1158015611463573d6000803e3d6000fd5b505050506040513d601f19601f820116820180604052508101906114879190615841565b613a24565b6101208501908152608086019190915260a085019190915260e084019190915251610140830180516114bf9083906157a3565b905250610140810151610160830180516114da9083906157a3565b905250610100810151610180830180516114f59083906157a3565b9052505b80606001516001600160a01b031682604001516001600160a01b0316141561158357806040015115611571576000611551826020015184608001518560a001518660e00151600d613ae090949392919063ffffffff16565b90506115618360c0015182613b44565b6001600160801b031660c0840152505b602081015160020b60608301526115ba565b80600001516001600160a01b031682604001516001600160a01b0316146115ba576115b18260400151612dc1565b60020b60608301525b50611173565b611969565b8051158015906115ef575088604001516001600160a01b031681604001516001600160a01b031614155b15611969576115fc6151bd565b60408201516001600160a01b031681526060820151600c5461162591600e9160020b600161322f565b1515604083015260020b6020820181905262010deb19131561164c5762010deb1960208201525b61165981602001516133ec565b81606001906001600160a01b031690816001600160a01b0316815250506116c26040518060c0016040528084604001516001600160a01b031681526020018c604001516001600160a01b031684606001516001600160a01b03161061128c578360600151611292565b60c085015260a0840190815260808401919091526001600160a01b039091166040840152516116f0906139ba565b825183906116ff90839061585a565b9052506080810151611710906139ba565b82602001818151611721919061585a565b90525060a0810151611732906139ba565b61173b906157e2565b610140820152608081015161174f906139ba565b61010082015260c081015161012083015161176a91906157ff565b610120830152602083015160ff16156117ca57826020015160ff168160c00151611794919061582d565b60e0820181905260c0820180516117ac90839061578c565b90525060e0810151610100830180516117c69083906157ff565b9052505b60c08201516001600160801b03161561188d576000546001546002546040516325f258dd60e01b81526004810192909252602482015261182091849184916001600160a01b0316906325f258dd90604401611435565b6101208501908152608086019190915260a085019190915260e084019190915251610140830180516118539083906157a3565b9052506101408101516101608301805161186e9083906157a3565b905250610100810151610180830180516118899083906157a3565b9052505b80606001516001600160a01b031682604001516001600160a01b0316141561192c5780604001511561190e5760006118e5826020015184608001518560a001518660e00151600d613ae090949392919063ffffffff16565b90506118fe8360c00151826118f990615644565b613b44565b6001600160801b031660c0840152505b6001816020015161191f919061589b565b60020b6060830152611963565b80600001516001600160a01b031682604001516001600160a01b0316146119635761195a8260400151612dc1565b60020b60608301525b506115c5565b6040810151600f80546001600160a01b0319166001600160a01b0390921691909117905560208301516060820151600291820b910b146119cb576060810151600f805462ffffff909216600160a01b0262ffffff60a01b199092169190911790555b8060c001516001600160801b031682600001516001600160801b031614611a185760c0810151600780546001600160801b0390921661010002610100600160881b03199092169190911790555b60e081015160085560a0810151600b556080810151600a55610120810151610140820151610160830151610180840151610100850151929b5090995091975090955015611a7c5780610100015160096000828254611a7691906157ff565b90915550505b6003546001600160a01b0316331480611b2b5750600360009054906101000a90046001600160a01b03166001600160a01b03166322d23b216040518163ffffffff1660e01b815260040160206040518083038186803b158015611ade57600080fd5b505afa158015611af2573d6000803e3d6000fd5b505050506040513d601f19601f82011682018060405250810190611b16919061556b565b6001600160a01b0316336001600160a01b0316145b611c0157600354895160608b015160808c015161014085015161016086015161012087015161018088015160405163604b0bd760e11b81526001600160a01b039788166004820152600296870b60248201529490950b60448501526064840192909252608483015260a482015260c481019190915291169063c09617ae9060e401602060405180830381600087803b158015611bc657600080fd5b505af1158015611bda573d6000803e3d6000fd5b505050506040513d601f19601f82011682018060405250810190611bfe9190615841565b93505b600f54604051600160a01b90910460020b81527f3de48b885df0271268324c099733a36a802c1cbb40c7272796b2b28addf04cd29060200160405180910390a1886080015160020b896060015160020b8a600001516001600160a01b03167fa24f288a343811d26ac1ec29998e37b87ff6503cefe399a3c8fb747eb0464e58338d602001518e604001518c8f8f8e604051611cde97969594939291906001600160a01b03978816815260208101969096529390951660408501526060840191909152608083015260a082019290925260c081019190915260e00190565b60405180910390a450506007805460ff1916600117905550939592945090929091565b33611d0a611eaa565b6001600160a01b031614611d305760405162461bcd60e51b81526004016107b4906158e3565b66470de4df820000811115611d735760405162461bcd60e51b81526020600482015260096024820152686665652072616e676560b81b60448201526064016107b4565b806006541415611dbd5760405162461bcd60e51b8152602060048201526015602482015274199959481d985b1d5948185b1c9958591e481cd95d605a1b60448201526064016107b4565b60068190556040518181527f557809284da7314475b1582804ae28e5f1349efc1fe970ea25d50fce75eb4f43906020015b60405180910390a150565b33611e02611eaa565b6001600160a01b031614611e285760405162461bcd60e51b81526004016107b4906158e3565b611e326000613b7b565b565b6003546001600160a01b03163314611e5f57604051630a0d349f60e21b815260040160405180910390fd5b806009541015611e90576009546040516311920a6d60e31b81526107b4918391600401918252602082015260400190565b8060096000828254611ea2919061578c565b909155505050565b6076546001600160a01b031690565b33611ec2611eaa565b6001600160a01b031614611ee85760405162461bcd60e51b81526004016107b4906158e3565b60ff81161580611f0b575060038160ff1610158015611f0b575060328160ff1611155b611f425760405162461bcd60e51b815260206004820152600860248201526750522072616e676560c01b60448201526064016107b4565b600f5460ff828116600160b81b909204161415611f985760405162461bcd60e51b81526020600482015260146024820152731411881d985b1d5948185b1c9958591e481cd95d60621b60448201526064016107b4565b600f805460ff60b81b1916600160b81b60ff8416908102919091179091556040519081527fe949530fb25dc21f05cb65fe03447f6f68f8e21e3584c72e6e92042b8bc28f7990602001611dee565b60105460009060ff161561209d5760055460408051633bd5670d60e11b815290516000926001600160a01b0316916377aace1a916004808301926020929190829003018186803b15801561203957600080fd5b505afa15801561204d573d6000803e3d6000fd5b505050506040513d601f19601f82011682018060405250810190612071919061556b565b9050336001600160a01b0382161461209b5760405162461bcd60e51b81526004016107b490615588565b505b60a85460ff16156120c05760405162461bcd60e51b81526004016107b4906155b0565b6120cb6002546130e6565b156120e85760405162461bcd60e51b81526004016107b490615741565b60075460ff1661210a5760405162461bcd60e51b81526004016107b4906155da565b6007805460ff191690556001600160801b03821661213d5781604051633611668d60e21b81526004016107b49190615242565b336001600160a01b03861614806121d157506005546040516351c4bc1f60e11b81526001600160a01b039091169063a389783e9061218190889033906004016155f7565b60206040518083038186803b15801561219957600080fd5b505afa1580156121ad573d6000803e3d6000fd5b505050506040513d601f19601f820116820180604052508101906121d19190615611565b6122295760405162461bcd60e51b8152602060048201526024808201527f6f6e6c79206d73672e73656e646572206f7220617070726f7665642063616e206044820152631b5a5b9d60e21b60648201526084016107b4565b61226a6040518060800160405280876001600160a01b031681526020018660020b81526020018560020b8152602001610961856001600160801b0316612776565b90508260020b8460020b866001600160a01b03167f712faa344eac6399174fdfa887d9e1451e9b55ce58ee440c91c660229962a5a633866040516109b092919061566c565b336122b8611eaa565b6001600160a01b0316146122de5760405162461bcd60e51b81526004016107b4906158e3565b60105460ff16151581151514156123315760405162461bcd60e51b8152602060048201526017602482015276185b1c1a18481cdd185d1948185b1c9958591e481cd95d604a1b60448201526064016107b4565b6010805460ff191682151590811790915560405160ff909116151581527fa201234976cfdc556c03f06ca9366e09441724eae79256ad9da6b5f04cbdb05890602001611dee565b604354610100900460ff166123935760435460ff1615612397565b303b155b6123fa5760405162461bcd60e51b815260206004820152602e60248201527f496e697469616c697a61626c653a20636f6e747261637420697320616c72656160448201526d191e481a5b9a5d1a585b1a5e995960921b60648201526084016107b4565b604354610100900460ff1615801561241c576043805461ffff19166101011790555b6001600160a01b0383166124635760405162461bcd60e51b815260206004820152600e60248201526d1351481b5d5cdd081899481cd95d60921b60448201526064016107b4565b60008260020b13801561247b5750614000600283900b125b6124af5760405162461bcd60e51b81526020600482015260056024820152642a29a7a7a160d91b60448201526064016107b4565b600380546001600160a01b0319166001600160a01b03851690811790915560408051634c7a58d960e11b815290516398f4b1b291600480820192602092909190829003018186803b15801561250357600080fd5b505afa158015612517573d6000803e3d6000fd5b505050506040513d601f19601f8201168201806040525081019061253b919061556b565b600080546001600160a01b03929092166001600160a01b03199283161790556005805490911633179055600c805462ffffff841662ffffff1990911617908190556125889060020b613bcd565b600480546001600160801b0319166001600160801b03929092169190911781556003546040805163652c30b760e01b815290516001600160a01b039092169263652c30b7928282019260209290829003018186803b1580156125e957600080fd5b505afa1580156125fd573d6000803e3d6000fd5b505050506040513d601f19601f820116820180604052508101906126219190615841565b600155600354604080516324fb6d1560e21b815290516001600160a01b03909216916393edb45491600480820192602092909190829003018186803b15801561266957600080fd5b505afa15801561267d573d6000803e3d6000fd5b505050506040513d601f19601f820116820180604052508101906126a19190615841565b6002556126ac613c35565b6126b4613c6c565b6126bc613ca3565b80156126ce576043805461ff00191690555b505050565b336126dc611eaa565b6001600160a01b0316146127025760405162461bcd60e51b81526004016107b4906158e3565b6001600160a01b0381166127675760405162461bcd60e51b815260206004820152602660248201527f4f776e61626c653a206e6577206f776e657220697320746865207a65726f206160448201526564647265737360d01b60648201526084016107b4565b610a9381613b7b565b3b151590565b600060016001607f1b03198212801590612797575060016001607f1b038213155b6127f35760405162461bcd60e51b815260206004820152602760248201527f53616665436173743a2076616c756520646f65736e27742066697420696e20316044820152663238206269747360c81b60648201526084016107b4565b5090565b600061280b82602001518360400151612bf9565b6040805160608082018352600f80546001600160a01b0381168452600160a01b810460020b6020850152600160b81b900460ff1693830193909352840151909160009182910b156128655761285f85613cda565b90925090505b600354600094506001600160a01b03163314612927576003546040805163bfb5607d60e01b815287516001600160a01b0390811660048301526020890151600290810b60248401529289015190920b60448201526060880151600f0b606482015291169063bfb5607d90608401602060405180830381600087803b1580156128ec57600080fd5b505af1158015612900573d6000803e3d6000fd5b505050506040513d601f19601f820116820180604052508101906129249190615841565b93505b60008560600151600f0b121561296557811561294e57602085015161294e90600d90613db9565b801561296557604085015161296590600d90613db9565b6000805460408051637aa4db1360e01b815290516001600160a01b0390921692637aa4db139260048084019382900301818387803b1580156129a657600080fd5b505af11580156129ba573d6000803e3d6000fd5b505050508460600151600f0b600014612a4d57846020015160020b836020015160020b121580156129f85750846040015160020b836020015160020b125b15612a4d576000600760019054906101000a90046001600160801b03169050612a25818760600151613b44565b600760016101000a8154816001600160801b0302191690836001600160801b03160217905550505b505050919050565b7f360894a13ba1a3210667c828492db98dca3e2076cc3735a920a3ca505d382bbc546001600160a01b031690565b33612a8c611eaa565b6001600160a01b031614610a935760405162461bcd60e51b81526004016107b4906158e3565b6000612abc612a55565b9050612ac784613df2565b600083511180612ad45750815b15612ae557612ae38484613e97565b505b7f4910fdfa16fed3260ed0e7147f7cc6da11a60208b5b9406d12a635614ffd9143805460ff16612bf257805460ff19166001178155604051612b60908690612b3190859060240161522e565b60408051601f198184030181529190526020810180516001600160e01b0316631b2ce7f360e11b179052613e97565b50805460ff19168155612b71612a55565b6001600160a01b0316826001600160a01b031614612be95760405162461bcd60e51b815260206004820152602f60248201527f45524331393637557067726164653a207570677261646520627265616b73206660448201526e75727468657220757067726164657360881b60648201526084016107b4565b612bf285613f79565b5050505050565b8060020b8260020b12612c345760405162461bcd60e51b8152602060048201526003602482015262544c5560e81b60448201526064016107b4565b62010deb19600283900b1215612c725760405162461bcd60e51b8152602060048201526003602482015262544c4d60e81b60448201526064016107b4565b612c7f62010deb19615772565b60020b8160020b1315610df85760405162461bcd60e51b815260206004820152600360248201526254554d60e81b60448201526064016107b4565b8051600290810b600090815260208481526040808320918501805190940b83528083208551945191860151606087015160018086015490840154969795969395612d0a9590949093929190613fb9565b95945050505050565b8051600290810b6000908152602084815260408083209185018051850b8452818420865191519287015160608801518588015497830154969795969295612d0a9593613fb9565b8051600290810b600090815260208481526040808320918501805190940b835280832085519451918601516060870151949593949193612d0a939092909190612da2906139ba565b612daf87600301546139ba565b612dbc87600301546139ba565b613fb9565b60006b0816769404766de590afe04e6001600160a01b03831610801590612dfd57506c1fa71f3f5f68a90479ee3f8fec6001600160a01b038316105b612e195760405162461bcd60e51b81526004016107b490615726565b640100000000600160c01b03602083901b166001600160801b03811160071b81811c6001600160401b03811160061b90811c63ffffffff811160051b90811c61ffff811160041b90811c60ff8111600390811b91821c600f811160021b90811c918211600190811b92831c97908811961790941790921717909117171760808110612eb357612ea9607f8261578c565b83901c9150612ec4565b612ebe81607f61578c565b83901b91505b60006040612ed36080846157a3565b901b9050828302607f1c92508260801c80603f1b8217915083811c935050828302607f1c92508260801c80603e1b8217915083811c935050828302607f1c92508260801c80603d1b8217915083811c935050828302607f1c92508260801c80603c1b8217915083811c935050828302607f1c92508260801c80603b1b8217915083811c935050828302607f1c92508260801c80603a1b8217915083811c935050828302607f1c92508260801c8060391b8217915083811c935050828302607f1c92508260801c8060381b8217915083811c935050828302607f1c92508260801c8060371b8217915083811c935050828302607f1c92508260801c8060361b8217915083811c935050828302607f1c92508260801c8060351b8217915083811c935050828302607f1c92508260801c8060341b8217915083811c935050828302607f1c92508260801c8060331b8217915083811c935050828302607f1c92508260801c8060321b8217915050600081693627a301d71055774c856130569190615918565b9050600060806130766f028f6481ab7f045a5af012a19d003aaa846157a3565b901d905060006080613098846fdb2df09e81959a81455e260799a0632f61585a565b901d90508060020b8260020b146130d757886001600160a01b03166130bc826133ec565b6001600160a01b031611156130d157816130d9565b806130d9565b815b9998505050505050505050565b60008169124bc0ddd92e560000006130fc613781565b61310691906157ff565b101592915050565b602083015161313057604051631fa907d560e11b815260040160405180910390fd5b60075460ff1661315e57600754604051633cc7822f60e11b815260ff909116151560048201526024016107b4565b806131b25781600001516001600160a01b031683604001516001600160a01b03161080156131ad57506b0816769404766de590afe04e6001600160a01b031683604001516001600160a01b0316115b6131fd565b81600001516001600160a01b031683604001516001600160a01b03161180156131fd57506c1fa71f3f5f68a90479ee3f8fec6001600160a01b031683604001516001600160a01b0316105b6126ce5760405162461bcd60e51b815260206004820152600360248201526214d41360ea1b60448201526064016107b4565b6000808061323d858761599d565b905060008660020b12801561325d575061325785876159d7565b60020b15155b15613270578061326c816159f9565b9150505b831561331d5760008061328283614025565b90925090506000600160ff831681901b9061329d908261578c565b6132a791906157ff565b600184900b600090815260208c9052604090205481168015159650909150856132e757886132d860ff85168761589b565b6132e29190615a1d565b613312565b886132f182614042565b6132fb9085615aaa565b6133089060ff168761589b565b6133129190615a1d565b9650505050506133e2565b60008061333361332e846001615acd565b614025565b9092509050600061334b600160ff841681901b61578c565b600184900b600090815260208c9052604090205490199081168015159650909150856133a4578861337d8460ff615aaa565b60ff1661338b876001615acd565b6133959190615acd565b61339f9190615a1d565b6133db565b88836133af83614147565b6133b99190615aaa565b60ff166133c7876001615acd565b6133d19190615acd565b6133db9190615a1d565b9650505050505b5094509492505050565b60008060008360020b12613403578260020b613410565b8260020b613410906157e2565b905061341f62010deb19615772565b60020b8111156134555760405162461bcd60e51b81526020600482015260016024820152601560fa1b60448201526064016107b4565b60006001821661346957600160801b61347b565b6ffffcb933bd6fad37aa2d162d1a5940015b6001600160881b0316905060028216156134b05760806134ab826ffff97272373d413259a46990580e213a615b14565b901c90505b60048216156134da5760806134d5826ffff2e50f5f656932ef12357cf3c7fdcc615b14565b901c90505b60088216156135045760806134ff826fffe5caca7e10e4e61c3624eaa0941cd0615b14565b901c90505b601082161561352e576080613529826fffcb9843d60f6159c9db58835c926644615b14565b901c90505b6020821615613558576080613553826fff973b41fa98c081472e6896dfb254c0615b14565b901c90505b604082161561358257608061357d826fff2ea16466c96a3843ec78b326b52861615b14565b901c90505b60808216156135ac5760806135a7826ffe5dee046a99a2a811c461f1969c3053615b14565b901c90505b6101008216156135d75760806135d2826ffcbe86c7900a88aedcffc83b479aa3a4615b14565b901c90505b6102008216156136025760806135fd826ff987a7253ac413176f2b074cf7815e54615b14565b901c90505b61040082161561362d576080613628826ff3392b0822b70005940c7a398e4b70f3615b14565b901c90505b610800821615613658576080613653826fe7159475a2c29b7443b29c7fa6e889d9615b14565b901c90505b61100082161561368357608061367e826fd097f3bdfd2022b8845ad8f792aa5825615b14565b901c90505b6120008216156136ae5760806136a9826fa9f746462d870fdf8a65dc1f90e061e5615b14565b901c90505b6140008216156136d95760806136d4826f70d869a156d2a1b890bb3df62baf32f7615b14565b901c90505b6180008216156137045760806136ff826f31be135f97d08fd981231505542fcfa6615b14565b901c90505b6201000082161561373057608061372b826f09aa508b5b7a84e1c677de54f3e99bc9615b14565b901c90505b60008460020b131561374b576137488160001961582d565b90505b613759600160201b82615b33565b15613765576001613768565b60005b6137799060ff16602083901c6157ff565b949350505050565b600061378c42614284565b905090565b6020810151815160608301516000928392839283926001600160a01b03908116921691909110159082811280159184039061383a57826137e9576137e4886000015189602001518a6040015160016142d1565b613802565b613802886020015189600001518a604001516001614341565b95508588606001511061381b57876020015196506138a2565b613833886000015189604001518a6060015186614448565b96506138a2565b8261385d57613858886000015189602001518a604001516000614341565b613876565b613876886020015189600001518a6040015160006142d1565b945084811061388b57876020015196506138a2565b61389f8860000151896040015183866144ba565b96505b60208801516001600160a01b038881169116146000841561391e578180156138c75750835b6138e5576138e0898b600001518c604001516001614341565b6138e7565b875b97508180156138f4575083155b6139125761390d898b600001518c6040015160006142d1565b613914565b865b965086905061397b565b8180156139285750835b613946576139418a600001518a8c6040015160016142d1565b613948565b875b9750818015613955575083155b6139735761396e8a600001518a8c604001516000614341565b613975565b865b96508790505b8315801561398857508287115b15613991578296505b6139ac61399d82614284565b8b60a001518c6080015161452c565b955050505050509193509193565b60006001600160ff1b038211156127f35760405162461bcd60e51b815260206004820152602860248201527f53616665436173743a2076616c756520646f65736e27742066697420696e2061604482015267371034b73a191a9b60c11b60648201526084016107b4565b600080600080613a4a8660c00151600160801b8960c001516001600160801b0316614564565b8760e00151613a5991906157ff565b9350613a7686610100015187610140015187600154600254614662565b9050613a99866101400151600160801b8960c001516001600160801b03166146e7565b8760a00151613aa8919061585a565b9250613ac681600160801b8960c001516001600160801b03166146e7565b8760800151613ad5919061585a565b915093509350935093565b600284900b60009081526020869052604081206003810154613b02908461578c565b60038201556001810154613b1690866157a3565b60018201556002810154613b2a90856157a3565b600282015554600160801b9004600f0b9695505050505050565b60008082600f0b1215613b68576000829003613b608185615b47565b915050613b75565b613b728284615b6f565b90505b92915050565b607680546001600160a01b038381166001600160a01b0319831681179093556040519116919082907f8be0079c531659141344cd1fd0a4f28419497f9722a3daafe3b4186f6b6457e090600090a35050565b600080613bde8362010deb196159d7565b613bec9062010deb1961589b565b90506000613bf982615772565b9050600084613c08848461589b565b613c12919061599d565b613c1d906001615b9a565b9050612d0a62ffffff82166001600160801b03615bb8565b604354610100900460ff16613c5c5760405162461bcd60e51b81526004016107b490615bde565b613c6461471f565b611e32614746565b604354610100900460ff16613c935760405162461bcd60e51b81526004016107b490615bde565b613c9b61471f565b611e32614776565b604354610100900460ff16613cca5760405162461bcd60e51b81526004016107b490615bde565b613cd261471f565b611e3261471f565b600080613cef83602001518460400151612bf9565b6020830151600f546060850151600a54600b54600854600454613d3496600d969095600160a01b90910460020b949093909290916000906001600160801b03166147a9565b6040840151600f546060860151600a54600b54600854600454969850613d7896600d9695600160a01b900460020b94939291906001906001600160801b03166147a9565b90508115613d97576020830151600c54613d9791600e9160020b61493f565b8015613db4576040830151600c54613db491600e9160020b61493f565b915091565b600290810b600090815260209290925260408220828155600181018390559081018290556003810191909155600401805460ff19169055565b803b613e565760405162461bcd60e51b815260206004820152602d60248201527f455243313936373a206e657720696d706c656d656e746174696f6e206973206e60448201526c1bdd08184818dbdb9d1c9858dd609a1b60648201526084016107b4565b7f360894a13ba1a3210667c828492db98dca3e2076cc3735a920a3ca505d382bbc80546001600160a01b0319166001600160a01b0392909216919091179055565b6060823b613ef65760405162461bcd60e51b815260206004820152602660248201527f416464726573733a2064656c65676174652063616c6c20746f206e6f6e2d636f6044820152651b9d1c9858dd60d21b60648201526084016107b4565b600080846001600160a01b031684604051613f119190615c59565b600060405180830381855af49150503d8060008114613f4c576040519150601f19603f3d011682016040523d82523d6000602084013e613f51565b606091505b5091509150612d0a8282604051806060016040528060278152602001615e83602791396149d5565b613f8281613df2565b6040516001600160a01b038216907fbc7cd75a20ee27fd9adebab32041f755214dbc6bffa90cc0225b39da2e5c2d3b90600090a250565b6000808760020b8660020b12613fd0575082613fdd565b613fda84866157a3565b90505b60008760020b8760020b1215613ff4575082614001565b613ffe84876157a3565b90505b600061400d828461585a565b61401790886157a3565b9a9950505050505050505050565b600281900b60081d600061403b610100846159d7565b9050915091565b60008082116140635760405162461bcd60e51b81526004016107b490615c75565b600160801b821061408157608091821c9161407e9082615c9c565b90505b600160401b821061409f57604091821c9161409c9082615c9c565b90505b600160201b82106140bd57602091821c916140ba9082615c9c565b90505b6201000082106140da57601091821c916140d79082615c9c565b90505b61010082106140f657600891821c916140f39082615c9c565b90505b6010821061411157600491821c9161410e9082615c9c565b90505b6004821061412c57600291821c916141299082615c9c565b90505b600282106141425761413f600182615c9c565b90505b919050565b60008082116141685760405162461bcd60e51b81526004016107b490615c75565b5060ff6001600160801b0382161561418c57614185608082615aaa565b9050614194565b608082901c91505b6001600160401b038216156141b5576141ae604082615aaa565b90506141bd565b604082901c91505b63ffffffff8216156141db576141d4602082615aaa565b90506141e3565b602082901c91505b61ffff8216156141ff576141f8601082615aaa565b9050614207565b601082901c91505b60ff8216156142225761421b600882615aaa565b905061422a565b600882901c91505b600f8216156142455761423e600482615aaa565b905061424d565b600482901c91505b600382161561426857614261600282615aaa565b9050614270565b600282901c91505b60018216156141425761413f600182615aaa565b60007812725dd1d243aba0e75fe645cc4873f9e65afe688c928e1f218211156142c357604051633492ffd960e01b8152600481018390526024016107b4565b50670de0b6b3a76400000290565b6000836001600160a01b0316856001600160a01b031611156142f1579293925b8161431e57614319836001600160801b03168686036001600160a01b0316600160601b614564565b612d0a565b612d0a836001600160801b03168686036001600160a01b0316600160601b614a0e565b6000836001600160a01b0316856001600160a01b03161115614361579293925b600160601b600160e01b03606084901b16600061437e8787615cc1565b6001600160a01b031690506000876001600160a01b0316116143db5760405162461bcd60e51b8152602060048201526016602482015275073717274207072696365206d757374206265203e20360541b60448201526064016107b4565b8361441157866001600160a01b03166143fe8383896001600160a01b0316614564565b8161440b5761440b615817565b0461443d565b61443d6144288383896001600160a01b0316614a0e565b886001600160a01b0316808204910615150190565b979650505050505050565b600080856001600160a01b0316116144725760405162461bcd60e51b81526004016107b490615ce1565b6000846001600160801b03161161449b5760405162461bcd60e51b81526004016107b490615d15565b816144ad576143198585856001614a61565b612d0a8585856001614b83565b600080856001600160a01b0316116144e45760405162461bcd60e51b81526004016107b490615ce1565b6000846001600160801b03161161450d5760405162461bcd60e51b81526004016107b490615d15565b8161451f576143198585856000614b83565b612d0a8585856000614a61565b60008061453884614cda565b9050600061454f8661454a8685614cf1565b614cf1565b670de0b6b3a764000090049695505050505050565b6000808060001985870985870292508281108382030391505080600014156145d457600084116145c95760405162461bcd60e51b815260206004820152601060248201526f4469766973696f6e206279207a65726f60801b60448201526064016107b4565b50829004905061465b565b8084116145f35760405162461bcd60e51b81526004016107b490615d44565b600084868809851960019081018716968790049682860381900495909211909303600082900391909104909201919091029190911760038402600290811880860282030280860282030280860282030280860282030280860282030280860290910302029150505b9392505050565b60008282116146835760405162461bcd60e51b81526004016107b490615d66565b8515801561468f575084155b1561469c57506000612d0a565b60006146a787614cfd565b905060006146b487614cfd565b905060006146c58383898989614d7a565b905060006146d584838989614dae565b9050670de0b6b3a76400008105614017565b600080841215614714576147046146fd856157e2565b8484614564565b61470d906157e2565b905061465b565b613779848484614564565b604354610100900460ff16611e325760405162461bcd60e51b81526004016107b490615bde565b604354610100900460ff1661476d5760405162461bcd60e51b81526004016107b490615bde565b611e3233613b7b565b604354610100900460ff1661479d5760405162461bcd60e51b81526004016107b490615bde565b60a8805460ff19169055565b600288900b600090815260208a90526040812080546001600160801b0316826147d28a83615d84565b600f0b12156148235760405162461bcd60e51b815260206004820152601c60248201527f6e6f7420656e6f756768206c697175696469747920746f206275726e0000000060448201526064016107b4565b600061482f828b613b44565b9050846001600160801b0316816001600160801b031611156148785760405162461bcd60e51b81526020600482015260026024820152614c4f60f01b60448201526064016107b4565b6001600160801b0382811615908216158114159450156148c5578a60020b8c60020b136148b5576003830187905560018301899055600283018890555b60048301805460ff191660011790555b82546001600160801b0319166001600160801b038216178355856148ff5782546148fa908b90600160801b9004600f0b615d84565b614916565b8254614916908b90600160801b9004600f0b615dcc565b83546001600160801b03918216600160801b0291161790925550909a9950505050505050505050565b61494981836159d7565b60020b156149995760405162461bcd60e51b815260206004820152601c60248201527f7469636b206d7573742062652070726f7065726c79207370616365640000000060448201526064016107b4565b6000806149a961332e848661599d565b600191820b60009081526020979097526040909620805460ff9097169190911b90951890945550505050565b606083156149e457508161465b565b8251156149f45782518084602001fd5b8160405162461bcd60e51b81526004016107b49190615e12565b6000614a1b848484614564565b905060008280614a2d57614a2d615817565b848609111561465b576000198110614a575760405162461bcd60e51b81526004016107b490615d44565b80612d0a81615e45565b60008115614acb5760006001600160a01b03841115614a9757614a9284600160601b876001600160801b0316614564565b614aae565b614aae6001600160801b038616606086901b61582d565b9050614ab981614def565b614ac39087615e60565b915050613779565b60006001600160a01b03841115614af957614af484600160601b876001600160801b0316614a0e565b614b16565b614b16606085901b6001600160801b038716808204910615150190565b905080866001600160a01b031611614b705760405162461bcd60e51b815260206004820152601e60248201527f7374617274696e67207078206d757374206265203e2071756f7469656e74000060448201526064016107b4565b614ac3816001600160a01b03881661578c565b600082614b91575083613779565b600160601b600160e01b03606085901b168215614c3c5760006001600160a01b03871685614bbf8282615b14565b9250614bcb908361582d565b1415614c06576000614bdd82846157ff565b9050828110614c0457614bfa83896001600160a01b031683614a0e565b9350505050613779565b505b614c338286614c1e6001600160a01b038b168361582d565b614c2891906157ff565b808204910615150190565b92505050613779565b60006001600160a01b03871685614c538282615b14565b9250614c5f908361582d565b148015614c6b57508082115b614cb05760405162461bcd60e51b815260206004820152601660248201527564656e6f6d696e61746f7220756e646572666c6f777360501b60448201526064016107b4565b6000614cbc828461578c565b9050614bfa614cd5848a6001600160a01b031684614a0e565b614def565b600061413f826a1a1601fc4ea7109e000000614e40565b6000613b728383614e55565b60007809392ee8e921d5d073aff322e62439fcf32d7f344649470f8f19821215614d3d5760405163e608e18b60e01b8152600481018390526024016107b4565b7809392ee8e921d5d073aff322e62439fcf32d7f344649470f908213156142c3576040516371f72a3160e01b8152600481018390526024016107b4565b600080600080614d96614d8f60008888614f17565b8a90614fcd565b9250614da28888614fcd565b91506130d9828461585a565b6000828211614dcf5760405162461bcd60e51b81526004016107b490615d66565b614de5614dde60018585614f17565b8590615092565b612d0a90866157a3565b806001600160a01b03811681146141425760405162461bcd60e51b815260206004820152601560248201527406f766572666c6f7720696e20746f55696e7431363605c1b60448201526064016107b4565b6000613b7283670de0b6b3a764000084615158565b60008080600019848609848602925082811083820303915050670de0b6b3a76400008110614e995760405163698d9a0160e11b8152600481018290526024016107b4565b600080670de0b6b3a76400008688099150506706f05b59d3b1ffff811182614ed35780670de0b6b3a7640000850401945050505050613b75565b620400008285030493909111909103600160ee1b02919091177faccb18165bd6fe31ae1cf318dc5b51eee0e1ba569b88cd74c1773b91fac106690201905092915050565b6000828211614f385760405162461bcd60e51b81526004016107b490615d66565b6000614f42613781565b905083811015614f7c5760405162461bcd60e51b8152602060048201526005602482015264422e543c5360d81b60448201526064016107b4565b60008580614f8a5750838210155b15614fa057614f99858561578c565b9050614fad565b614faa858361578c565b90505b6000614fb882614cda565b905061443d8168056bc75e2d63100000614e40565b6000600160ff1b831480614fe45750600160ff1b82145b1561500257604051630d01a11b60e21b815260040160405180910390fd5b600080600085126150135784615018565b846000035b915060008412615028578361502d565b836000035b9050600061503b8383614e55565b90506001600160ff1b038111156150685760405163bf79e8d960e01b8152600481018290526024016107b4565b6000198087139086138082186001146150815782615086565b826000035b98975050505050505050565b6000600160ff1b8314806150a95750600160ff1b82145b156150c75760405163b3c754a360e01b815260040160405180910390fd5b600080600085126150d857846150dd565b846000035b9150600084126150ed57836150f2565b836000035b9050600061510983670de0b6b3a764000084615158565b90506001600160ff1b0381111561513657604051637cb4bef560e01b8152600481018290526024016107b4565b60001980871390861380821860011461514f5782615086565b615086836157e2565b6000808060001985870985870292508281108382030391505080600014156151935783828161518957615189615817565b049250505061465b565b8381106145f357604051631dcf306360e21b815260048101829052602481018590526044016107b4565b60405180610160016040528060006001600160a01b03168152602001600060020b815260200160001515815260200160006001600160a01b03168152602001600081526020016000815260200160008152602001600081526020016000815260200160008152602001600081525090565b6001600160a01b0391909116815260200190565b6001600160801b0391909116815260200190565b6001600160a01b0381168114610a9357600080fd5b8035600281900b811461414257600080fd5b6000806000806080858703121561529357600080fd5b843561529e81615256565b93506152ac6020860161526b565b92506152ba6040860161526b565b915060608501356001600160801b03811681146152d657600080fd5b939692955090935050565b6000602082840312156152f357600080fd5b813561465b81615256565b6000806040838503121561531157600080fd5b61531a8361526b565b91506153286020840161526b565b90509250929050565b634e487b7160e01b600052604160045260246000fd5b604051601f8201601f191681016001600160401b038111828210171561536f5761536f615331565b604052919050565b6000806040838503121561538a57600080fd5b823561539581615256565b91506020838101356001600160401b03808211156153b257600080fd5b818601915086601f8301126153c657600080fd5b8135818111156153d8576153d8615331565b6153ea601f8201601f19168501615347565b9150808252878482850101111561540057600080fd5b80848401858401376000848284010152508093505050509250929050565b60006020828403121561543057600080fd5b81358060010b811461465b57600080fd5b600060a0828403121561545357600080fd5b60405160a081018181106001600160401b038211171561547557615475615331565b604052823561548381615256565b815260208381013590820152604083013561549d81615256565b60408201526154ae6060840161526b565b60608201526154bf6080840161526b565b60808201529392505050565b6000602082840312156154dd57600080fd5b5035919050565b6000602082840312156154f657600080fd5b813560ff8116811461465b57600080fd5b8015158114610a9357600080fd5b60006020828403121561552757600080fd5b813561465b81615507565b6000806040838503121561554557600080fd5b823561531a81615256565b60006020828403121561556257600080fd5b613b728261526b565b60006020828403121561557d57600080fd5b815161465b81615256565b6020808252600e908201526d706572697068657279206f6e6c7960901b604082015260600190565b60208082526010908201526f14185d5cd8589b194e881c185d5cd95960821b604082015260600190565b6020808252600390820152624c4f4b60e81b604082015260600190565b6001600160a01b0392831681529116602082015260400190565b60006020828403121561562357600080fd5b815161465b81615507565b634e487b7160e01b600052601160045260246000fd5b6000600f82900b60016001607f1b03198114156156635761566361562e565b60000392915050565b6001600160a01b039290921682526001600160801b0316602082015260400190565b6020808252602c908201527f46756e6374696f6e206d7573742062652063616c6c6564207468726f7567682060408201526b19195b1959d85d1958d85b1b60a21b606082015260800190565b6020808252602c908201527f46756e6374696f6e206d7573742062652063616c6c6564207468726f7567682060408201526b6163746976652070726f787960a01b606082015260800190565b6020808252600190820152602960f91b604082015260600190565b602080825260179082015276636c6f7365546f4f724265796f6e644d6174757269747960481b604082015260600190565b60008160020b627fffff198114156156635761566361562e565b60008282101561579e5761579e61562e565b500390565b60008083128015600160ff1b8501841216156157c1576157c161562e565b6001600160ff1b03840183138116156157dc576157dc61562e565b50500390565b6000600160ff1b8214156157f8576157f861562e565b5060000390565b600082198211156158125761581261562e565b500190565b634e487b7160e01b600052601260045260246000fd5b60008261583c5761583c615817565b500490565b60006020828403121561585357600080fd5b5051919050565b600080821280156001600160ff1b038490038513161561587c5761587c61562e565b600160ff1b83900384128116156158955761589561562e565b50500190565b60008160020b8360020b6000811281627fffff19018312811516156158c2576158c261562e565b81627fffff0183138116156158d9576158d961562e565b5090039392505050565b6020808252818101527f4f776e61626c653a2063616c6c6572206973206e6f7420746865206f776e6572604082015260600190565b60006001600160ff1b038184138284138082168684048611161561593e5761593e61562e565b600160ff1b600087128281168783058912161561595d5761595d61562e565b600087129250878205871284841616156159795761597961562e565b8785058712818416161561598f5761598f61562e565b505050929093029392505050565b60008160020b8360020b806159b4576159b4615817565b627fffff198214600019821416156159ce576159ce61562e565b90059392505050565b60008260020b806159ea576159ea615817565b808360020b0791505092915050565b60008160020b627fffff19811415615a1357615a1361562e565b6000190192915050565b60008160020b8360020b627fffff600082136000841383830485118282161615615a4957615a4961562e565b627fffff196000851282811687830587121615615a6857615a6861562e565b60008712925085820587128484161615615a8457615a8461562e565b85850587128184161615615a9a57615a9a61562e565b5050509290910295945050505050565b600060ff821660ff841680821015615ac457615ac461562e565b90039392505050565b60008160020b8360020b6000821282627fffff03821381151615615af357615af361562e565b82627fffff19038212811615615b0b57615b0b61562e565b50019392505050565b6000816000190483118215151615615b2e57615b2e61562e565b500290565b600082615b4257615b42615817565b500690565b60006001600160801b0383811690831681811015615b6757615b6761562e565b039392505050565b60006001600160801b03828116848216808303821115615b9157615b9161562e565b01949350505050565b600062ffffff808316818516808303821115615b9157615b9161562e565b60006001600160801b0383811680615bd257615bd2615817565b92169190910492915050565b6020808252602b908201527f496e697469616c697a61626c653a20636f6e7472616374206973206e6f74206960408201526a6e697469616c697a696e6760a81b606082015260800190565b60005b83811015615c44578181015183820152602001615c2c565b83811115615c53576000848401525b50505050565b60008251615c6b818460208701615c29565b9190910192915050565b6020808252600d908201526c078206d757374206265203e203609c1b604082015260600190565b600060ff821660ff84168060ff03821115615cb957615cb961562e565b019392505050565b60006001600160a01b0383811690831681811015615b6757615b6761562e565b6020808252601a908201527907374617274696e67207072696365206d757374206265203e20360341b604082015260600190565b60208082526015908201527406c6971756964697479206d757374206265203e203605c1b604082015260600190565b6020808252600890820152676f766572666c6f7760c01b604082015260600190565b602080825260049082015263453c3d5360e01b604082015260600190565b6000600f82810b9084900b828212801560016001607f1b0384900383131615615daf57615daf61562e565b60016001607f1b03198390038212811615615b0b57615b0b61562e565b6000600f82810b9084900b828112801560016001607f1b0319830184121615615df757615df761562e565b60016001607f1b03820183138116156158d9576158d961562e565b6020815260008251806020840152615e31816040850160208701615c29565b601f01601f19169190910160400192915050565b6000600019821415615e5957615e5961562e565b5060010190565b60006001600160a01b03828116848216808303821115615b9157615b9161562e56fe416464726573733a206c6f772d6c6576656c2064656c65676174652063616c6c206661696c6564a264697066735822122048fcc8e217a22207523fcec56022935c3161734af6cbbcb6ac8fea4884d665ad64736f6c63430008090033",
  "devdoc": {
    "errors": {
      "AavePoolGetReserveNormalizedIncomeReturnedZero()": [
        {
          "details": "getReserveNormalizedIncome() returned zero for underlying asset. Oracle only supports active Aave-V2 assets."
        }
      ],
      "CTokenExchangeRateReturnedZero()": [
        {
          "details": "ctoken.exchangeRateStored() returned zero for a given Compound ctoken. Oracle only supports active Compound assets."
        }
      ],
      "CanOnlyTradeIfUnlocked(bool)": [
        {
          "details": "Error which ensures the VAMM is unlocked"
        }
      ],
      "ExpectedOppositeSigns(int256,int256)": [
        {
          "details": "The two values were expected to have oppostite sigs, but do not"
        }
      ],
      "ExpectedSqrtPriceZeroBeforeInit(uint160)": [
        {
          "details": "Error which is reverted if the sqrt price of the vamm is non-zero before a vamm is initialized"
        }
      ],
      "IRSNotionalAmountSpecifiedMustBeNonZero()": [
        {
          "details": "Error which ensures the amount of notional specified when initiating an IRS contract (via the swap function in the vamm) is non-zero"
        }
      ],
      "LiquidityDeltaMustBePositiveInBurn(uint128)": [
        {
          "details": "Error which ensures the liquidity delta is positive if a given LP wishes to burn liquidity in the vamm"
        }
      ],
      "LiquidityDeltaMustBePositiveInMint(uint128)": [
        {
          "details": "Error which ensures the liquidity delta is positive if a given LP wishes to mint further liquidity in the vamm"
        }
      ],
      "MarginLessThanMinimum(int256)": [
        {
          "details": "Cannot have less margin than the minimum requirement"
        }
      ],
      "NotEnoughFunds(uint256,uint256)": [
        {
          "details": "There are not enough funds available for the requested operation"
        }
      ],
      "OOO()": [
        {
          "details": "currentTime < queriedTime"
        }
      ],
      "OnlyMarginEngine()": [
        {
          "details": "only the margin engine can run a certain function"
        }
      ],
      "PositionNetZero()": [
        {
          "details": "No need to unwind a net zero position"
        }
      ],
      "PositionNotSettled()": [
        {
          "details": "Position must be settled after AMM has reached maturity"
        }
      ],
      "WithdrawalExceedsCurrentMargin()": [
        {
          "details": "We can't withdraw more margin than we have"
        }
      ]
    },
    "kind": "dev",
    "methods": {
      "burn(address,int24,int24,uint128)": {
        "params": {
          "amount": "The amount of liquidity to burn",
          "recipient": "The address for which the liquidity will be removed",
          "tickLower": "The lower tick of the position in which to remove liquidity",
          "tickUpper": "The upper tick of the position in which to remove liqudiity"
        }
      },
      "computeGrowthInside(int24,int24)": {
        "params": {
          "tickLower": "The lower tick of the position",
          "tickUpper": "The upper tick of the position"
        },
        "returns": {
          "feeGrowthInsideX128": "Fee Growth Inside given tick range",
          "fixedTokenGrowthInsideX128": "Fixed Token Growth inside the given tick range",
          "variableTokenGrowthInsideX128": "Variable Token Growth inside the given tick range"
        }
      },
      "constructor": {
        "custom:oz-upgrades-unsafe-allow": "constructor"
      },
      "feeGrowthGlobalX128()": {
        "details": "This value can overflow the uint256"
      },
      "feeWad()": {
        "returns": {
          "_0": "The fee in wad"
        }
      },
      "fixedTokenGrowthGlobalX128()": {
        "details": "This value can overflow the uint256"
      },
      "initialize(address,int24)": {
        "details": "\"constructor\" for proxy instances"
      },
      "initializeVAMM(uint160)": {
        "details": "not locked because it initializes unlocked"
      },
      "isAlpha()": {
        "returns": {
          "_0": "If true, the VAMM Proxy is currently in alpha state, hence minting can only be done via the periphery. If false, minting can be done directly via VAMM."
        }
      },
      "maxLiquidityPerTick()": {
        "details": "This parameter should be enforced per tick (when setting) to prevent liquidity from overflowing a uint128 at any point, and also prevents out-of-range liquidity from being used to prevent adding in-range liquidity to the vamm",
        "returns": {
          "_0": "The max amount of liquidity per tick"
        }
      },
      "mint(address,int24,int24,uint128)": {
        "params": {
          "amount": "The amount of liquidity to mint",
          "recipient": "The address for which the liquidity will be created",
          "tickLower": "The lower tick of the position in which to add liquidity",
          "tickUpper": "The upper tick of the position in which to add liquidity"
        }
      },
      "owner()": {
        "details": "Returns the address of the current owner."
      },
      "paused()": {
        "details": "Returns true if the contract is paused, and false otherwise."
      },
      "protocolFees()": {
        "details": "Protocol fees will never exceed uint256"
      },
      "renounceOwnership()": {
        "details": "Leaves the contract without owner. It will not be possible to call `onlyOwner` functions anymore. Can only be called by the current owner. NOTE: Renouncing ownership will leave the contract without an owner, thereby removing any functionality that is only available to the owner."
      },
      "setFeeProtocol(uint8)": {
        "details": "the current protocol fee as a percentage of the swap fee taken on withdrawal"
      },
      "setIsAlpha(bool)": {
        "details": "if the VAMM is at the alpha state, mints can only be done via the periphery which in turn takes care of notional caps for the LPsthis function can only be called by the owner of the VAMM"
      },
      "swap((address,int256,uint160,int24,int24))": {
        "params": {
          "params": "SwapParams necessary to initiate an Interest Rate Swap"
        },
        "returns": {
          "cumulativeFeeIncurred": "Cumulative Fee Incurred",
          "fixedTokenDelta": "Fixed Token Delta",
          "variableTokenDelta": "Variable Token Delta"
        }
      },
      "tickSpacing()": {
        "details": "Ticks can only be used at multiples of this value, minimum of 1 and always positive e.g.: a tickSpacing of 3 means ticks can be initialized every 3rd tick, i.e., ..., -6, -3, 0, 3, 6, ... This value is an int24 to avoid casting even though it is always positive.",
        "returns": {
          "_0": "The tick spacing"
        }
      },
      "ticks(int24)": {
        "params": {
          "tick": "The tick to look up"
        },
        "returns": {
          "_0": "liquidityGross: the total amount of position liquidity that uses the vamm either as tick lower or tick upper, liquidityNet: how much liquidity changes when the vamm price crosses the tick, feeGrowthOutsideX128: the fee growth on the other side of the tick from the current tick in underlying token. i.e. if liquidityGross is greater than 0. In addition, these values are only relative."
        }
      },
      "transferOwnership(address)": {
        "details": "Transfers ownership of the contract to a new account (`newOwner`). Can only be called by the current owner."
      },
      "updateProtocolFees(uint256)": {
        "details": "can only be done via the collectProtocol function of the parent AMM of the vamm"
      },
      "upgradeTo(address)": {
        "details": "Upgrade the implementation of the proxy to `newImplementation`. Calls {_authorizeUpgrade}. Emits an {Upgraded} event."
      },
      "upgradeToAndCall(address,bytes)": {
        "details": "Upgrade the implementation of the proxy to `newImplementation`, and subsequently execute the function call encoded in `data`. Calls {_authorizeUpgrade}. Emits an {Upgraded} event."
      },
      "vammVars()": {
        "returns": {
          "_0": "The current VAMM Vars (see struct definition for semantics)"
        }
      },
      "variableTokenGrowthGlobalX128()": {
        "details": "This value can overflow the uint256"
      }
    },
    "stateVariables": {
      "MAX_FEE": {
        "details": "0.02 = 2% is the max fee as proportion of notional scaled by time to maturity (in wei fixed point notation 0.02 -> 2 * 10^16)"
      }
    },
    "version": 1
  },
  "userdoc": {
    "errors": {
      "CannotLiquidate()": [
        {
          "notice": "The position/trader needs to be below the liquidation threshold to be liquidated"
        }
      ],
      "CannotSettleBeforeMaturity()": [
        {
          "notice": "Positions and Traders cannot be settled before the applicable interest rate swap has matured"
        }
      ],
      "InvalidMarginDelta()": [
        {
          "notice": "Margin delta must not equal zero"
        }
      ],
      "MarginRequirementNotMet(int256,int24,int256,int256,uint256,int256)": [
        {
          "notice": "The resulting margin does not meet minimum requirements"
        }
      ],
      "MarginRequirementNotMetFCM(int256)": [
        {
          "notice": "The resulting margin does not meet minimum requirements"
        }
      ],
      "OnlyOwnerCanUpdatePosition()": [
        {
          "notice": "Only the position/trade owner can update the LP/Trader margin"
        }
      ],
      "PRBMathSD59x18__DivInputTooSmall()": [
        {
          "notice": "Emitted when one of the inputs is MIN_SD59x18."
        }
      ],
      "PRBMathSD59x18__DivOverflow(uint256)": [
        {
          "notice": "Emitted when one of the intermediary unsigned results overflows SD59x18."
        }
      ],
      "PRBMathSD59x18__FromIntOverflow(int256)": [
        {
          "notice": "Emitted when converting a basic integer to the fixed-point format overflows SD59x18."
        }
      ],
      "PRBMathSD59x18__FromIntUnderflow(int256)": [
        {
          "notice": "Emitted when converting a basic integer to the fixed-point format underflows SD59x18."
        }
      ],
      "PRBMathSD59x18__MulInputTooSmall()": [
        {
          "notice": "Emitted when one of the inputs is MIN_SD59x18."
        }
      ],
      "PRBMathSD59x18__MulOverflow(uint256)": [
        {
          "notice": "Emitted when the intermediary absolute result overflows SD59x18."
        }
      ],
      "PRBMathUD60x18__FromUintOverflow(uint256)": [
        {
          "notice": "Emitted when converting a basic integer to the fixed-point format format overflows UD60x18."
        }
      ],
      "PRBMath__MulDivFixedPointOverflow(uint256)": [
        {
          "notice": "Emitted when the result overflows uint256."
        }
      ],
      "PRBMath__MulDivOverflow(uint256,uint256)": [
        {
          "notice": "Emitted when the result overflows uint256."
        }
      ]
    },
    "kind": "user",
    "methods": {
      "burn(address,int24,int24,uint128)": {
        "notice": "removes liquidity given recipient/tickLower/tickUpper of the position"
      },
      "computeGrowthInside(int24,int24)": {
        "notice": "Computes the current fixed and variable token growth inside a given tick range given the current tick in the vamm"
      },
      "feeGrowthGlobalX128()": {
        "notice": "The fee growth collected per unit of liquidity for the entire life of the vamm"
      },
      "feeWad()": {
        "notice": "The vamm's fee (proportion) in wad"
      },
      "fixedTokenGrowthGlobalX128()": {
        "notice": "The fixed token growth accumulated per unit of liquidity for the entire life of the vamm"
      },
      "liquidity()": {
        "notice": "The currently in range liquidity available to the vamm"
      },
      "maxLiquidityPerTick()": {
        "notice": "The maximum amount of position liquidity that can use any tick in the range"
      },
      "mint(address,int24,int24,uint128)": {
        "notice": "Adds liquidity for the given recipient/tickLower/tickUpper position"
      },
      "protocolFees()": {
        "notice": "The amount underlying token that are owed to the protocol"
      },
      "setFeeProtocol(uint8)": {
        "notice": "Function that sets the feeProtocol of the vamm"
      },
      "setIsAlpha(bool)": {
        "notice": "Function that sets the _isAlpha state variable, if it is set to true the protocol is in the Alpha State"
      },
      "swap((address,int256,uint160,int24,int24))": {
        "notice": "Initiate an Interest Rate Swap"
      },
      "tickBitmap(int16)": {
        "notice": "Returns 256 packed tick initialized boolean values. See TickBitmap for more information"
      },
      "tickSpacing()": {
        "notice": "The vamm tick spacing"
      },
      "ticks(int24)": {
        "notice": "Look up information about a specific tick in the amm"
      },
      "updateProtocolFees(uint256)": {
        "notice": "Updates internal accounting to reflect a collection of protocol fees. The actual transfer of fees must happen separately in the AMM"
      },
      "variableTokenGrowthGlobalX128()": {
        "notice": "The variable token growth accumulated per unit of liquidity for the entire life of the vamm"
      }
    },
    "version": 1
  },
  "storageLayout": {
    "storage": [
      {
        "astId": 17998,
        "contract": "contracts/VAMM.sol:VAMM",
        "label": "rateOracle",
        "offset": 0,
        "slot": "0",
        "type": "t_contract(IRateOracle)14967"
      },
      {
        "astId": 18000,
        "contract": "contracts/VAMM.sol:VAMM",
        "label": "termStartTimestampWad",
        "offset": 0,
        "slot": "1",
        "type": "t_uint256"
      },
      {
        "astId": 18002,
        "contract": "contracts/VAMM.sol:VAMM",
        "label": "termEndTimestampWad",
        "offset": 0,
        "slot": "2",
        "type": "t_uint256"
      },
      {
        "astId": 18005,
        "contract": "contracts/VAMM.sol:VAMM",
        "label": "_marginEngine",
        "offset": 0,
        "slot": "3",
        "type": "t_contract(IMarginEngine)14024"
      },
      {
        "astId": 18007,
        "contract": "contracts/VAMM.sol:VAMM",
        "label": "_maxLiquidityPerTick",
        "offset": 0,
        "slot": "4",
        "type": "t_uint128"
      },
      {
        "astId": 18010,
        "contract": "contracts/VAMM.sol:VAMM",
        "label": "_factory",
        "offset": 0,
        "slot": "5",
        "type": "t_contract(IFactory)13616"
      },
      {
        "astId": 18012,
        "contract": "contracts/VAMM.sol:VAMM",
        "label": "_feeWad",
        "offset": 0,
        "slot": "6",
        "type": "t_uint256"
      },
      {
        "astId": 18014,
        "contract": "contracts/VAMM.sol:VAMM",
        "label": "_unlocked",
        "offset": 0,
        "slot": "7",
        "type": "t_bool"
      },
      {
        "astId": 18016,
        "contract": "contracts/VAMM.sol:VAMM",
        "label": "_liquidity",
        "offset": 1,
        "slot": "7",
        "type": "t_uint128"
      },
      {
        "astId": 18018,
        "contract": "contracts/VAMM.sol:VAMM",
        "label": "_feeGrowthGlobalX128",
        "offset": 0,
        "slot": "8",
        "type": "t_uint256"
      },
      {
        "astId": 18020,
        "contract": "contracts/VAMM.sol:VAMM",
        "label": "_protocolFees",
        "offset": 0,
        "slot": "9",
        "type": "t_uint256"
      },
      {
        "astId": 18022,
        "contract": "contracts/VAMM.sol:VAMM",
        "label": "_fixedTokenGrowthGlobalX128",
        "offset": 0,
        "slot": "10",
        "type": "t_int256"
      },
      {
        "astId": 18024,
        "contract": "contracts/VAMM.sol:VAMM",
        "label": "_variableTokenGrowthGlobalX128",
        "offset": 0,
        "slot": "11",
        "type": "t_int256"
      },
      {
        "astId": 18026,
        "contract": "contracts/VAMM.sol:VAMM",
        "label": "_tickSpacing",
        "offset": 0,
        "slot": "12",
        "type": "t_int24"
      },
      {
        "astId": 18031,
        "contract": "contracts/VAMM.sol:VAMM",
        "label": "_ticks",
        "offset": 0,
        "slot": "13",
        "type": "t_mapping(t_int24,t_struct(Info)12411_storage)"
      },
      {
        "astId": 18035,
        "contract": "contracts/VAMM.sol:VAMM",
        "label": "_tickBitmap",
        "offset": 0,
        "slot": "14",
        "type": "t_mapping(t_int16,t_uint256)"
      },
      {
        "astId": 18038,
        "contract": "contracts/VAMM.sol:VAMM",
        "label": "_vammVars",
        "offset": 0,
        "slot": "15",
        "type": "t_struct(VAMMVars)14242_storage"
      },
      {
        "astId": 18040,
        "contract": "contracts/VAMM.sol:VAMM",
        "label": "_isAlpha",
        "offset": 0,
        "slot": "16",
        "type": "t_bool"
      },
      {
        "astId": 18047,
        "contract": "contracts/VAMM.sol:VAMM",
        "label": "__gap",
        "offset": 0,
        "slot": "17",
        "type": "t_array(t_uint256)50_storage"
      },
      {
        "astId": 540,
        "contract": "contracts/VAMM.sol:VAMM",
        "label": "_initialized",
        "offset": 0,
        "slot": "67",
        "type": "t_bool"
      },
      {
        "astId": 543,
        "contract": "contracts/VAMM.sol:VAMM",
        "label": "_initializing",
        "offset": 1,
        "slot": "67",
        "type": "t_bool"
      },
      {
        "astId": 1119,
        "contract": "contracts/VAMM.sol:VAMM",
        "label": "__gap",
        "offset": 0,
        "slot": "68",
        "type": "t_array(t_uint256)50_storage"
      },
      {
        "astId": 10,
        "contract": "contracts/VAMM.sol:VAMM",
        "label": "_owner",
        "offset": 0,
        "slot": "118",
        "type": "t_address"
      },
      {
        "astId": 124,
        "contract": "contracts/VAMM.sol:VAMM",
        "label": "__gap",
        "offset": 0,
        "slot": "119",
        "type": "t_array(t_uint256)49_storage"
      },
      {
        "astId": 739,
        "contract": "contracts/VAMM.sol:VAMM",
        "label": "_paused",
        "offset": 0,
        "slot": "168",
        "type": "t_bool"
      },
      {
        "astId": 830,
        "contract": "contracts/VAMM.sol:VAMM",
        "label": "__gap",
        "offset": 0,
        "slot": "169",
        "type": "t_array(t_uint256)49_storage"
      },
      {
        "astId": 522,
        "contract": "contracts/VAMM.sol:VAMM",
        "label": "__gap",
        "offset": 0,
        "slot": "218",
        "type": "t_array(t_uint256)50_storage"
      },
      {
        "astId": 717,
        "contract": "contracts/VAMM.sol:VAMM",
        "label": "__gap",
        "offset": 0,
        "slot": "268",
        "type": "t_array(t_uint256)50_storage"
      }
    ],
    "types": {
      "t_address": {
        "encoding": "inplace",
        "label": "address",
        "numberOfBytes": "20"
      },
      "t_array(t_uint256)49_storage": {
        "base": "t_uint256",
        "encoding": "inplace",
        "label": "uint256[49]",
        "numberOfBytes": "1568"
      },
      "t_array(t_uint256)50_storage": {
        "base": "t_uint256",
        "encoding": "inplace",
        "label": "uint256[50]",
        "numberOfBytes": "1600"
      },
      "t_bool": {
        "encoding": "inplace",
        "label": "bool",
        "numberOfBytes": "1"
      },
      "t_contract(IFactory)13616": {
        "encoding": "inplace",
        "label": "contract IFactory",
        "numberOfBytes": "20"
      },
      "t_contract(IMarginEngine)14024": {
        "encoding": "inplace",
        "label": "contract IMarginEngine",
        "numberOfBytes": "20"
      },
      "t_contract(IRateOracle)14967": {
        "encoding": "inplace",
        "label": "contract IRateOracle",
        "numberOfBytes": "20"
      },
      "t_int128": {
        "encoding": "inplace",
        "label": "int128",
        "numberOfBytes": "16"
      },
      "t_int16": {
        "encoding": "inplace",
        "label": "int16",
        "numberOfBytes": "2"
      },
      "t_int24": {
        "encoding": "inplace",
        "label": "int24",
        "numberOfBytes": "3"
      },
      "t_int256": {
        "encoding": "inplace",
        "label": "int256",
        "numberOfBytes": "32"
      },
      "t_mapping(t_int16,t_uint256)": {
        "encoding": "mapping",
        "key": "t_int16",
        "label": "mapping(int16 => uint256)",
        "numberOfBytes": "32",
        "value": "t_uint256"
      },
      "t_mapping(t_int24,t_struct(Info)12411_storage)": {
        "encoding": "mapping",
        "key": "t_int24",
        "label": "mapping(int24 => struct Tick.Info)",
        "numberOfBytes": "32",
        "value": "t_struct(Info)12411_storage"
      },
      "t_struct(Info)12411_storage": {
        "encoding": "inplace",
        "label": "struct Tick.Info",
        "members": [
          {
            "astId": 12397,
            "contract": "contracts/VAMM.sol:VAMM",
            "label": "liquidityGross",
            "offset": 0,
            "slot": "0",
            "type": "t_uint128"
          },
          {
            "astId": 12400,
            "contract": "contracts/VAMM.sol:VAMM",
            "label": "liquidityNet",
            "offset": 16,
            "slot": "0",
            "type": "t_int128"
          },
          {
            "astId": 12403,
            "contract": "contracts/VAMM.sol:VAMM",
            "label": "fixedTokenGrowthOutsideX128",
            "offset": 0,
            "slot": "1",
            "type": "t_int256"
          },
          {
            "astId": 12405,
            "contract": "contracts/VAMM.sol:VAMM",
            "label": "variableTokenGrowthOutsideX128",
            "offset": 0,
            "slot": "2",
            "type": "t_int256"
          },
          {
            "astId": 12407,
            "contract": "contracts/VAMM.sol:VAMM",
            "label": "feeGrowthOutsideX128",
            "offset": 0,
            "slot": "3",
            "type": "t_uint256"
          },
          {
            "astId": 12410,
            "contract": "contracts/VAMM.sol:VAMM",
            "label": "initialized",
            "offset": 0,
            "slot": "4",
            "type": "t_bool"
          }
        ],
        "numberOfBytes": "160"
      },
      "t_struct(VAMMVars)14242_storage": {
        "encoding": "inplace",
        "label": "struct IVAMM.VAMMVars",
        "members": [
          {
            "astId": 14236,
            "contract": "contracts/VAMM.sol:VAMM",
            "label": "sqrtPriceX96",
            "offset": 0,
            "slot": "0",
            "type": "t_uint160"
          },
          {
            "astId": 14239,
            "contract": "contracts/VAMM.sol:VAMM",
            "label": "tick",
            "offset": 20,
            "slot": "0",
            "type": "t_int24"
          },
          {
            "astId": 14241,
            "contract": "contracts/VAMM.sol:VAMM",
            "label": "feeProtocol",
            "offset": 23,
            "slot": "0",
            "type": "t_uint8"
          }
        ],
        "numberOfBytes": "32"
      },
      "t_uint128": {
        "encoding": "inplace",
        "label": "uint128",
        "numberOfBytes": "16"
      },
      "t_uint160": {
        "encoding": "inplace",
        "label": "uint160",
        "numberOfBytes": "20"
      },
      "t_uint256": {
        "encoding": "inplace",
        "label": "uint256",
        "numberOfBytes": "32"
      },
      "t_uint8": {
        "encoding": "inplace",
        "label": "uint8",
        "numberOfBytes": "1"
      }
    }
  }
}