{
  "address": "0x684726e3404287781968adbef01e06e9a3613e53",
  "abi": [
    {
      "inputs": [],
      "stateMutability": "nonpayable",
      "type": "constructor"
    },
    {
      "inputs": [],
      "name": "AavePoolGetReserveNormalizedIncomeReturnedZero",
      "type": "error"
    },
    {
      "inputs": [
        {
          "internalType": "bool",
          "name": "unlocked",
          "type": "bool"
        }
      ],
      "name": "CanOnlyTradeIfUnlocked",
      "type": "error"
    },
    {
      "inputs": [],
      "name": "CannotLiquidate",
      "type": "error"
    },
    {
      "inputs": [],
      "name": "CannotSettleBeforeMaturity",
      "type": "error"
    },
    {
      "inputs": [
        {
          "internalType": "uint256",
          "name": "x",
          "type": "uint256"
        },
        {
          "internalType": "uint256",
          "name": "y",
          "type": "uint256"
        }
      ],
      "name": "DebugError",
      "type": "error"
    },
    {
      "inputs": [
        {
          "internalType": "int256",
          "name": "amount0",
          "type": "int256"
        },
        {
          "internalType": "int256",
          "name": "amount1",
          "type": "int256"
        }
      ],
      "name": "ExpectedOppositeSigns",
      "type": "error"
    },
    {
      "inputs": [
        {
          "internalType": "uint160",
          "name": "sqrtPriceX96",
          "type": "uint160"
        }
      ],
      "name": "ExpectedSqrtPriceZeroBeforeInit",
      "type": "error"
    },
    {
      "inputs": [],
      "name": "IRSNotionalAmountSpecifiedMustBeNonZero",
      "type": "error"
    },
    {
      "inputs": [],
      "name": "InvalidMarginDelta",
      "type": "error"
    },
    {
      "inputs": [
        {
          "internalType": "uint128",
          "name": "amount",
          "type": "uint128"
        }
      ],
      "name": "LiquidityDeltaMustBePositiveInBurn",
      "type": "error"
    },
    {
      "inputs": [
        {
          "internalType": "uint128",
          "name": "amount",
          "type": "uint128"
        }
      ],
      "name": "LiquidityDeltaMustBePositiveInMint",
      "type": "error"
    },
    {
      "inputs": [
        {
          "internalType": "int256",
          "name": "marginRequirement",
          "type": "int256"
        }
      ],
      "name": "MarginLessThanMinimum",
      "type": "error"
    },
    {
      "inputs": [
        {
          "internalType": "int256",
          "name": "marginRequirement",
          "type": "int256"
        },
        {
          "internalType": "int24",
          "name": "tick",
          "type": "int24"
        },
        {
          "internalType": "int256",
          "name": "fixedTokenDelta",
          "type": "int256"
        },
        {
          "internalType": "int256",
          "name": "variableTokenDelta",
          "type": "int256"
        },
        {
          "internalType": "uint256",
          "name": "cumulativeFeeIncurred",
          "type": "uint256"
        },
        {
          "internalType": "int256",
          "name": "fixedTokenDeltaUnbalanced",
          "type": "int256"
        }
      ],
      "name": "MarginRequirementNotMet",
      "type": "error"
    },
    {
      "inputs": [
        {
          "internalType": "int256",
          "name": "marginRequirement",
          "type": "int256"
        }
      ],
      "name": "MarginRequirementNotMetFCM",
      "type": "error"
    },
    {
      "inputs": [
        {
          "internalType": "uint256",
          "name": "requested",
          "type": "uint256"
        },
        {
          "internalType": "uint256",
          "name": "available",
          "type": "uint256"
        }
      ],
      "name": "NotEnoughFunds",
      "type": "error"
    },
    {
      "inputs": [],
      "name": "OOO",
      "type": "error"
    },
    {
      "inputs": [],
      "name": "OnlyFCM",
      "type": "error"
    },
    {
      "inputs": [],
      "name": "OnlyMarginEngine",
      "type": "error"
    },
    {
      "inputs": [],
      "name": "OnlyOwnerCanUpdatePosition",
      "type": "error"
    },
    {
      "inputs": [],
      "name": "OnlyVAMM",
      "type": "error"
    },
    {
      "inputs": [],
      "name": "PRBMathSD59x18__DivInputTooSmall",
      "type": "error"
    },
    {
      "inputs": [
        {
          "internalType": "uint256",
          "name": "rAbs",
          "type": "uint256"
        }
      ],
      "name": "PRBMathSD59x18__DivOverflow",
      "type": "error"
    },
    {
      "inputs": [
        {
          "internalType": "int256",
          "name": "x",
          "type": "int256"
        }
      ],
      "name": "PRBMathSD59x18__FromIntOverflow",
      "type": "error"
    },
    {
      "inputs": [
        {
          "internalType": "int256",
          "name": "x",
          "type": "int256"
        }
      ],
      "name": "PRBMathSD59x18__FromIntUnderflow",
      "type": "error"
    },
    {
      "inputs": [],
      "name": "PRBMathSD59x18__MulInputTooSmall",
      "type": "error"
    },
    {
      "inputs": [
        {
          "internalType": "uint256",
          "name": "rAbs",
          "type": "uint256"
        }
      ],
      "name": "PRBMathSD59x18__MulOverflow",
      "type": "error"
    },
    {
      "inputs": [
        {
          "internalType": "uint256",
          "name": "x",
          "type": "uint256"
        }
      ],
      "name": "PRBMathUD60x18__FromUintOverflow",
      "type": "error"
    },
    {
      "inputs": [
        {
          "internalType": "uint256",
          "name": "prod1",
          "type": "uint256"
        }
      ],
      "name": "PRBMath__MulDivFixedPointOverflow",
      "type": "error"
    },
    {
      "inputs": [
        {
          "internalType": "uint256",
          "name": "prod1",
          "type": "uint256"
        },
        {
          "internalType": "uint256",
          "name": "denominator",
          "type": "uint256"
        }
      ],
      "name": "PRBMath__MulDivOverflow",
      "type": "error"
    },
    {
      "inputs": [],
      "name": "PositionNetZero",
      "type": "error"
    },
    {
      "inputs": [],
      "name": "PositionNotSettled",
      "type": "error"
    },
    {
      "inputs": [],
      "name": "WithdrawalExceedsCurrentMargin",
      "type": "error"
    },
    {
      "inputs": [],
      "name": "closeToOrBeyondMaturity",
      "type": "error"
    },
    {
      "anonymous": false,
      "inputs": [
        {
          "indexed": false,
          "internalType": "address",
          "name": "previousAdmin",
          "type": "address"
        },
        {
          "indexed": false,
          "internalType": "address",
          "name": "newAdmin",
          "type": "address"
        }
      ],
      "name": "AdminChanged",
      "type": "event"
    },
    {
      "anonymous": false,
      "inputs": [
        {
          "indexed": true,
          "internalType": "address",
          "name": "beacon",
          "type": "address"
        }
      ],
      "name": "BeaconUpgraded",
      "type": "event"
    },
    {
      "anonymous": false,
      "inputs": [
        {
          "indexed": false,
          "internalType": "address",
          "name": "sender",
          "type": "address"
        },
        {
          "indexed": true,
          "internalType": "address",
          "name": "owner",
          "type": "address"
        },
        {
          "indexed": true,
          "internalType": "int24",
          "name": "tickLower",
          "type": "int24"
        },
        {
          "indexed": true,
          "internalType": "int24",
          "name": "tickUpper",
          "type": "int24"
        },
        {
          "indexed": false,
          "internalType": "uint128",
          "name": "amount",
          "type": "uint128"
        }
      ],
      "name": "Burn",
      "type": "event"
    },
    {
      "anonymous": false,
      "inputs": [
        {
          "indexed": false,
          "internalType": "uint256",
          "name": "feeWad",
          "type": "uint256"
        }
      ],
      "name": "Fee",
      "type": "event"
    },
    {
      "anonymous": false,
      "inputs": [
        {
          "indexed": false,
          "internalType": "uint8",
          "name": "feeProtocol",
          "type": "uint8"
        }
      ],
      "name": "FeeProtocol",
      "type": "event"
    },
    {
      "anonymous": false,
      "inputs": [
        {
          "indexed": false,
          "internalType": "bool",
          "name": "__isAlpha",
          "type": "bool"
        }
      ],
      "name": "IsAlpha",
      "type": "event"
    },
    {
      "anonymous": false,
      "inputs": [
        {
          "indexed": false,
          "internalType": "address",
          "name": "sender",
          "type": "address"
        },
        {
          "indexed": true,
          "internalType": "address",
          "name": "owner",
          "type": "address"
        },
        {
          "indexed": true,
          "internalType": "int24",
          "name": "tickLower",
          "type": "int24"
        },
        {
          "indexed": true,
          "internalType": "int24",
          "name": "tickUpper",
          "type": "int24"
        },
        {
          "indexed": false,
          "internalType": "uint128",
          "name": "amount",
          "type": "uint128"
        }
      ],
      "name": "Mint",
      "type": "event"
    },
    {
      "anonymous": false,
      "inputs": [
        {
          "indexed": true,
          "internalType": "address",
          "name": "previousOwner",
          "type": "address"
        },
        {
          "indexed": true,
          "internalType": "address",
          "name": "newOwner",
          "type": "address"
        }
      ],
      "name": "OwnershipTransferred",
      "type": "event"
    },
    {
      "anonymous": false,
      "inputs": [
        {
          "indexed": false,
          "internalType": "address",
          "name": "account",
          "type": "address"
        }
      ],
      "name": "Paused",
      "type": "event"
    },
    {
      "anonymous": false,
      "inputs": [
        {
          "indexed": false,
          "internalType": "address",
          "name": "sender",
          "type": "address"
        },
        {
          "indexed": true,
          "internalType": "address",
          "name": "recipient",
          "type": "address"
        },
        {
          "indexed": true,
          "internalType": "int24",
          "name": "tickLower",
          "type": "int24"
        },
        {
          "indexed": true,
          "internalType": "int24",
          "name": "tickUpper",
          "type": "int24"
        },
        {
          "indexed": false,
          "internalType": "int256",
          "name": "desiredNotional",
          "type": "int256"
        },
        {
          "indexed": false,
          "internalType": "uint160",
          "name": "sqrtPriceLimitX96",
          "type": "uint160"
        },
        {
          "indexed": false,
          "internalType": "uint256",
          "name": "cumulativeFeeIncurred",
          "type": "uint256"
        },
        {
          "indexed": false,
          "internalType": "int256",
          "name": "fixedTokenDelta",
          "type": "int256"
        },
        {
          "indexed": false,
          "internalType": "int256",
          "name": "variableTokenDelta",
          "type": "int256"
        },
        {
          "indexed": false,
          "internalType": "int256",
          "name": "fixedTokenDeltaUnbalanced",
          "type": "int256"
        }
      ],
      "name": "Swap",
      "type": "event"
    },
    {
      "anonymous": false,
      "inputs": [
        {
          "indexed": false,
          "internalType": "address",
          "name": "account",
          "type": "address"
        }
      ],
      "name": "Unpaused",
      "type": "event"
    },
    {
      "anonymous": false,
      "inputs": [
        {
          "indexed": true,
          "internalType": "address",
          "name": "implementation",
          "type": "address"
        }
      ],
      "name": "Upgraded",
      "type": "event"
    },
    {
      "anonymous": false,
      "inputs": [
        {
          "indexed": false,
          "internalType": "uint160",
          "name": "sqrtPriceX96",
          "type": "uint160"
        },
        {
          "indexed": false,
          "internalType": "int24",
          "name": "tick",
          "type": "int24"
        }
      ],
      "name": "VAMMInitialization",
      "type": "event"
    },
    {
      "anonymous": false,
      "inputs": [
        {
          "indexed": false,
          "internalType": "int24",
          "name": "tick",
          "type": "int24"
        }
      ],
      "name": "VAMMPriceChange",
      "type": "event"
    },
    {
      "inputs": [],
      "name": "MAX_FEE",
      "outputs": [
        {
          "internalType": "uint256",
          "name": "",
          "type": "uint256"
        }
      ],
      "stateMutability": "view",
      "type": "function"
    },
    {
      "inputs": [
        {
          "internalType": "address",
          "name": "recipient",
          "type": "address"
        },
        {
          "internalType": "int24",
          "name": "tickLower",
          "type": "int24"
        },
        {
          "internalType": "int24",
          "name": "tickUpper",
          "type": "int24"
        },
        {
          "internalType": "uint128",
          "name": "amount",
          "type": "uint128"
        }
      ],
      "name": "burn",
      "outputs": [
        {
          "internalType": "int256",
          "name": "positionMarginRequirement",
          "type": "int256"
        }
      ],
      "stateMutability": "nonpayable",
      "type": "function"
    },
    {
      "inputs": [
        {
          "internalType": "int24",
          "name": "tickLower",
          "type": "int24"
        },
        {
          "internalType": "int24",
          "name": "tickUpper",
          "type": "int24"
        }
      ],
      "name": "computeGrowthInside",
      "outputs": [
        {
          "internalType": "int256",
          "name": "fixedTokenGrowthInsideX128",
          "type": "int256"
        },
        {
          "internalType": "int256",
          "name": "variableTokenGrowthInsideX128",
          "type": "int256"
        },
        {
          "internalType": "uint256",
          "name": "feeGrowthInsideX128",
          "type": "uint256"
        }
      ],
      "stateMutability": "view",
      "type": "function"
    },
    {
      "inputs": [],
      "name": "factory",
      "outputs": [
        {
          "internalType": "contract IFactory",
          "name": "",
          "type": "address"
        }
      ],
      "stateMutability": "view",
      "type": "function"
    },
    {
      "inputs": [],
      "name": "feeGrowthGlobalX128",
      "outputs": [
        {
          "internalType": "uint256",
          "name": "",
          "type": "uint256"
        }
      ],
      "stateMutability": "view",
      "type": "function"
    },
    {
      "inputs": [],
      "name": "feeWad",
      "outputs": [
        {
          "internalType": "uint256",
          "name": "",
          "type": "uint256"
        }
      ],
      "stateMutability": "view",
      "type": "function"
    },
    {
      "inputs": [],
      "name": "fixedTokenGrowthGlobalX128",
      "outputs": [
        {
          "internalType": "int256",
          "name": "",
          "type": "int256"
        }
      ],
      "stateMutability": "view",
      "type": "function"
    },
    {
      "inputs": [
        {
          "internalType": "contract IMarginEngine",
          "name": "__marginEngine",
          "type": "address"
        },
        {
          "internalType": "int24",
          "name": "__tickSpacing",
          "type": "int24"
        }
      ],
      "name": "initialize",
      "outputs": [],
      "stateMutability": "nonpayable",
      "type": "function"
    },
    {
      "inputs": [
        {
          "internalType": "uint160",
          "name": "sqrtPriceX96",
          "type": "uint160"
        }
      ],
      "name": "initializeVAMM",
      "outputs": [],
      "stateMutability": "nonpayable",
      "type": "function"
    },
    {
      "inputs": [],
      "name": "isAlpha",
      "outputs": [
        {
          "internalType": "bool",
          "name": "",
          "type": "bool"
        }
      ],
      "stateMutability": "view",
      "type": "function"
    },
    {
      "inputs": [],
      "name": "liquidity",
      "outputs": [
        {
          "internalType": "uint128",
          "name": "",
          "type": "uint128"
        }
      ],
      "stateMutability": "view",
      "type": "function"
    },
    {
      "inputs": [],
      "name": "marginEngine",
      "outputs": [
        {
          "internalType": "contract IMarginEngine",
          "name": "",
          "type": "address"
        }
      ],
      "stateMutability": "view",
      "type": "function"
    },
    {
      "inputs": [],
      "name": "maxLiquidityPerTick",
      "outputs": [
        {
          "internalType": "uint128",
          "name": "",
          "type": "uint128"
        }
      ],
      "stateMutability": "view",
      "type": "function"
    },
    {
      "inputs": [
        {
          "internalType": "address",
          "name": "recipient",
          "type": "address"
        },
        {
          "internalType": "int24",
          "name": "tickLower",
          "type": "int24"
        },
        {
          "internalType": "int24",
          "name": "tickUpper",
          "type": "int24"
        },
        {
          "internalType": "uint128",
          "name": "amount",
          "type": "uint128"
        }
      ],
      "name": "mint",
      "outputs": [
        {
          "internalType": "int256",
          "name": "positionMarginRequirement",
          "type": "int256"
        }
      ],
      "stateMutability": "nonpayable",
      "type": "function"
    },
    {
      "inputs": [],
      "name": "owner",
      "outputs": [
        {
          "internalType": "address",
          "name": "",
          "type": "address"
        }
      ],
      "stateMutability": "view",
      "type": "function"
    },
    {
      "inputs": [],
      "name": "paused",
      "outputs": [
        {
          "internalType": "bool",
          "name": "",
          "type": "bool"
        }
      ],
      "stateMutability": "view",
      "type": "function"
    },
    {
      "inputs": [],
      "name": "protocolFees",
      "outputs": [
        {
          "internalType": "uint256",
          "name": "",
          "type": "uint256"
        }
      ],
      "stateMutability": "view",
      "type": "function"
    },
    {
      "inputs": [],
      "name": "renounceOwnership",
      "outputs": [],
      "stateMutability": "nonpayable",
      "type": "function"
    },
    {
      "inputs": [
        {
          "internalType": "uint256",
          "name": "newFeeWad",
          "type": "uint256"
        }
      ],
      "name": "setFee",
      "outputs": [],
      "stateMutability": "nonpayable",
      "type": "function"
    },
    {
      "inputs": [
        {
          "internalType": "uint8",
          "name": "feeProtocol",
          "type": "uint8"
        }
      ],
      "name": "setFeeProtocol",
      "outputs": [],
      "stateMutability": "nonpayable",
      "type": "function"
    },
    {
      "inputs": [
        {
          "internalType": "bool",
          "name": "__isAlpha",
          "type": "bool"
        }
      ],
      "name": "setIsAlpha",
      "outputs": [],
      "stateMutability": "nonpayable",
      "type": "function"
    },
    {
      "inputs": [
        {
          "components": [
            {
              "internalType": "address",
              "name": "recipient",
              "type": "address"
            },
            {
              "internalType": "int256",
              "name": "amountSpecified",
              "type": "int256"
            },
            {
              "internalType": "uint160",
              "name": "sqrtPriceLimitX96",
              "type": "uint160"
            },
            {
              "internalType": "int24",
              "name": "tickLower",
              "type": "int24"
            },
            {
              "internalType": "int24",
              "name": "tickUpper",
              "type": "int24"
            }
          ],
          "internalType": "struct IVAMM.SwapParams",
          "name": "params",
          "type": "tuple"
        }
      ],
      "name": "swap",
      "outputs": [
        {
          "internalType": "int256",
          "name": "fixedTokenDelta",
          "type": "int256"
        },
        {
          "internalType": "int256",
          "name": "variableTokenDelta",
          "type": "int256"
        },
        {
          "internalType": "uint256",
          "name": "cumulativeFeeIncurred",
          "type": "uint256"
        },
        {
          "internalType": "int256",
          "name": "fixedTokenDeltaUnbalanced",
          "type": "int256"
        },
        {
          "internalType": "int256",
          "name": "marginRequirement",
          "type": "int256"
        }
      ],
      "stateMutability": "nonpayable",
      "type": "function"
    },
    {
      "inputs": [
        {
          "internalType": "int16",
          "name": "wordPosition",
          "type": "int16"
        }
      ],
      "name": "tickBitmap",
      "outputs": [
        {
          "internalType": "uint256",
          "name": "",
          "type": "uint256"
        }
      ],
      "stateMutability": "view",
      "type": "function"
    },
    {
      "inputs": [],
      "name": "tickSpacing",
      "outputs": [
        {
          "internalType": "int24",
          "name": "",
          "type": "int24"
        }
      ],
      "stateMutability": "view",
      "type": "function"
    },
    {
      "inputs": [
        {
          "internalType": "int24",
          "name": "tick",
          "type": "int24"
        }
      ],
      "name": "ticks",
      "outputs": [
        {
          "components": [
            {
              "internalType": "uint128",
              "name": "liquidityGross",
              "type": "uint128"
            },
            {
              "internalType": "int128",
              "name": "liquidityNet",
              "type": "int128"
            },
            {
              "internalType": "int256",
              "name": "fixedTokenGrowthOutsideX128",
              "type": "int256"
            },
            {
              "internalType": "int256",
              "name": "variableTokenGrowthOutsideX128",
              "type": "int256"
            },
            {
              "internalType": "uint256",
              "name": "feeGrowthOutsideX128",
              "type": "uint256"
            },
            {
              "internalType": "bool",
              "name": "initialized",
              "type": "bool"
            }
          ],
          "internalType": "struct Tick.Info",
          "name": "",
          "type": "tuple"
        }
      ],
      "stateMutability": "view",
      "type": "function"
    },
    {
      "inputs": [
        {
          "internalType": "address",
          "name": "newOwner",
          "type": "address"
        }
      ],
      "name": "transferOwnership",
      "outputs": [],
      "stateMutability": "nonpayable",
      "type": "function"
    },
    {
      "inputs": [
        {
          "internalType": "uint256",
          "name": "protocolFeesCollected",
          "type": "uint256"
        }
      ],
      "name": "updateProtocolFees",
      "outputs": [],
      "stateMutability": "nonpayable",
      "type": "function"
    },
    {
      "inputs": [
        {
          "internalType": "address",
          "name": "newImplementation",
          "type": "address"
        }
      ],
      "name": "upgradeTo",
      "outputs": [],
      "stateMutability": "nonpayable",
      "type": "function"
    },
    {
      "inputs": [
        {
          "internalType": "address",
          "name": "newImplementation",
          "type": "address"
        },
        {
          "internalType": "bytes",
          "name": "data",
          "type": "bytes"
        }
      ],
      "name": "upgradeToAndCall",
      "outputs": [],
      "stateMutability": "payable",
      "type": "function"
    },
    {
      "inputs": [],
      "name": "vammVars",
      "outputs": [
        {
          "components": [
            {
              "internalType": "uint160",
              "name": "sqrtPriceX96",
              "type": "uint160"
            },
            {
              "internalType": "int24",
              "name": "tick",
              "type": "int24"
            },
            {
              "internalType": "uint8",
              "name": "feeProtocol",
              "type": "uint8"
            }
          ],
          "internalType": "struct IVAMM.VAMMVars",
          "name": "",
          "type": "tuple"
        }
      ],
      "stateMutability": "view",
      "type": "function"
    },
    {
      "inputs": [],
      "name": "variableTokenGrowthGlobalX128",
      "outputs": [
        {
          "internalType": "int256",
          "name": "",
          "type": "int256"
        }
      ],
      "stateMutability": "view",
      "type": "function"
    }
  ],
  "transactionHash": "0xb1de250ddccdffdc8f05f10d90a606b1ab1f173898a347b52a5b16643e5a0f21",
  "args": [],
  "numDeployments": 1,
  "solcInputHash": "5758f2bc484cce506afaf5509146e92e",
  "bytecode": "0x60a0604052306080523480156200001557600080fd5b50604354610100900460ff16620000335760435460ff16156200003d565b6200003d620000e2565b620000a55760405162461bcd60e51b815260206004820152602e60248201527f496e697469616c697a61626c653a20636f6e747261637420697320616c72656160448201526d191e481a5b9a5d1a585b1a5e995960921b606482015260840160405180910390fd5b604354610100900460ff16158015620000c8576043805461ffff19166101011790555b8015620000db576043805461ff00191690555b5062000106565b6000620000fa306200010060201b6200272f1760201c565b15905090565b3b151590565b608051615f1862000137600039600081816109a8015281816109e801528181610d1d0152610d5d0152615f186000f3fe6080604052600436106101675760003560e01c80624006e01461016c57806309d7b6221461019c5780631a686502146101bb5780631ad8b03b146101e75780631f2f0893146101fc5780633659cfe61461021c5780633c8f233e1461023e57806347f75ede146102795780634e65b408146102995780634f1ef286146102ae5780635339c296146102c15780635c975abb146102f157806367758e6e1461031557806369fe0e2d1461035d57806370cf754a1461037d578063715018a61461039b57806380a0f76c146103b0578063867377101461044b578063884287521461046b5780638da5cb5b14610483578063ad23b41614610498578063b613a141146104ad578063b8cca34e146104cd578063bc063e1a146104ed578063c45a015514610508578063cd41b3d514610526578063d0c93a7c14610546578063d992d90814610569578063f2fde38b14610589578063f30dba93146105a9578063f3f94990146106ba575b600080fd5b34801561017857600080fd5b506003546001600160a01b03165b604051610193919061523d565b60405180910390f35b3480156101a857600080fd5b50600a545b604051908152602001610193565b3480156101c757600080fd5b5060075461010090046001600160801b03165b6040516101939190615251565b3480156101f357600080fd5b506009546101ad565b34801561020857600080fd5b506101ad61021736600461528c565b6106cf565b34801561022857600080fd5b5061023c6102373660046152f0565b61099d565b005b34801561024a57600080fd5b5061025e61025936600461530d565b610a66565b60408051938452602084019290925290820152606001610193565b34801561028557600080fd5b5061023c6102943660046152f0565b610b44565b3480156102a557600080fd5b50600b546101ad565b61023c6102bc366004615386565b610d12565b3480156102cd57600080fd5b506101ad6102dc36600461542d565b60010b6000908152600e602052604090205490565b3480156102fd57600080fd5b5060a85460ff165b6040519015158152602001610193565b34801561032157600080fd5b50610335610330366004615450565b610dcc565b604080519586526020860194909452928401919091526060830152608082015260a001610193565b34801561036957600080fd5b5061023c6103783660046154da565b611cc9565b34801561038957600080fd5b506004546001600160801b03166101da565b3480156103a757600080fd5b5061023c611dc1565b3480156103bc57600080fd5b5061041a60408051606081018252600080825260208201819052918101919091525060408051606081018252600f546001600160a01b0381168252600160a01b810460020b6020830152600160b81b900460ff169181019190915290565b6040805182516001600160a01b0316815260208084015160020b908201529181015160ff1690820152606001610193565b34801561045757600080fd5b5061023c6104663660046154da565b611dfc565b34801561047757600080fd5b5060105460ff16610305565b34801561048f57600080fd5b50610186611e69565b3480156104a457600080fd5b506008546101ad565b3480156104b957600080fd5b5061023c6104c83660046154f3565b611e78565b3480156104d957600080fd5b506101ad6104e836600461528c565b611fa5565b3480156104f957600080fd5b506101ad66470de4df82000081565b34801561051457600080fd5b506005546001600160a01b0316610186565b34801561053257600080fd5b5061023c610541366004615524565b61226e565b34801561055257600080fd5b50600c5460405160029190910b8152602001610193565b34801561057557600080fd5b5061023c610584366004615541565b612337565b34801561059557600080fd5b5061023c6105a43660046152f0565b612692565b3480156105b557600080fd5b506106656105c436600461555f565b6040805160c081018252600080825260208201819052918101829052606081018290526080810182905260a081019190915250600290810b6000908152600d6020908152604091829020825160c08101845281546001600160801b0381168252600160801b9004600f0b92810192909252600181015492820192909252918101546060830152600381015460808301526004015460ff16151560a082015290565b604051610193919081516001600160801b03168152602080830151600f0b9082015260408083015190820152606080830151908201526080828101519082015260a09182015115159181019190915260c00190565b3480156106c657600080fd5b506006546101ad565b60105460009060ff161561078f5760055460408051633bd5670d60e11b815290516000926001600160a01b0316916377aace1a916004808301926020929190829003018186803b15801561072257600080fd5b505afa158015610736573d6000803e3d6000fd5b505050506040513d601f19601f8201168201806040525081019061075a919061557a565b9050336001600160a01b0382161461078d5760405162461bcd60e51b815260040161078490615597565b60405180910390fd5b505b60a85460ff16156107b25760405162461bcd60e51b8152600401610784906155bf565b60075460ff166107d45760405162461bcd60e51b8152600401610784906155e9565b6007805460ff191690556001600160801b038216610807578160405163c09d260960e01b81526004016107849190615251565b336001600160a01b038616148061082857506003546001600160a01b031633145b806108b057506005546040516351c4bc1f60e11b81526001600160a01b039091169063a389783e906108609088903390600401615606565b60206040518083038186803b15801561087857600080fd5b505afa15801561088c573d6000803e3d6000fd5b505050506040513d601f19601f820116820180604052508101906108b09190615620565b6108e75760405162461bcd60e51b81526020600482015260086024820152674d53206f72204d4560c01b6044820152606401610784565b61093b6040518060800160405280876001600160a01b031681526020018660020b81526020018560020b8152602001610928856001600160801b0316612735565b61093190615653565b600f0b90526127b6565b90508260020b8460020b866001600160a01b03167ff57f161c6404e7a58d089003a260456719af3caac502550a59509b4c9d8d4628338660405161098092919061567b565b60405180910390a46007805460ff19166001179055949350505050565b306001600160a01b037f00000000000000000000000000000000000000000000000000000000000000001614156109e65760405162461bcd60e51b81526004016107849061569d565b7f00000000000000000000000000000000000000000000000000000000000000006001600160a01b0316610a18612a14565b6001600160a01b031614610a3e5760405162461bcd60e51b8152600401610784906156d7565b610a4781612a30565b60408051600080825260208201909252610a6391839190612a5f565b50565b6000806000610a758585612ba6565b60408051608081018252600287810b825286810b6020830152600f54600160a01b9004900b91810191909152600a546060820152610ab590600d90612c67565b60408051608081018252600288810b825287810b6020830152600f54600160a01b9004900b91810191909152600b546060820152909350610af890600d90612cc0565b60408051608081018252600288810b825287810b6020830152600f54600160a01b9004900b918101919091526008546060820152909250610b3b90600d90612d07565b90509250925092565b6001600160a01b038116610b8d5760405162461bcd60e51b815260206004820152601060248201526f7a65726f20696e70757420707269636560801b6044820152606401610784565b6c1fa71f3f5f68a90479ee3f8fec6001600160a01b038216108015610bc757506b0816769404766de590afe04e6001600160a01b03821610155b610be35760405162461bcd60e51b815260040161078490615711565b6003546001600160a01b0316610c325760405162461bcd60e51b81526020600482015260146024820152731d985b5b481b9bdd081a5b9a5d1a585b1a5e995960621b6044820152606401610784565b600f546001600160a01b031615610c6957600f546040516328be1c0f60e21b8152610784916001600160a01b03169060040161523d565b6000610c7482612d6e565b604080516060810182526001600160a01b038516808252600284900b6020808401829052600093850193909352600f80546001600160b81b0319168317600160a01b62ffffff8816021760ff60b81b191690556007805460ff191660011790558351918252918101919091529192507facf59ced105c47c72de67aa00ab58b6415014ad6018644e3e8d8ca6862ec0dce910160405180910390a15050565b306001600160a01b037f0000000000000000000000000000000000000000000000000000000000000000161415610d5b5760405162461bcd60e51b81526004016107849061569d565b7f00000000000000000000000000000000000000000000000000000000000000006001600160a01b0316610d8d612a14565b6001600160a01b031614610db35760405162461bcd60e51b8152600401610784906156d7565b610dbc82612a30565b610dc882826001612a5f565b5050565b6000806000806000610de060a85460ff1690565b15610dfd5760405162461bcd60e51b8152600401610784906155bf565b610e08600254613092565b15610e255760405162461bcd60e51b81526004016107849061572c565b610e3786606001518760800151612ba6565b60408051606081018252600f546001600160a01b0381168252600160a01b810460020b602080840191909152600160b81b90910460ff169282019290925290870151610e8990889083906000126130ba565b6003546001600160a01b0316331480610f385750600360009054906101000a90046001600160a01b03166001600160a01b03166322d23b216040518163ffffffff1660e01b815260040160206040518083038186803b158015610eeb57600080fd5b505afa158015610eff573d6000803e3d6000fd5b505050506040513d601f19601f82011682018060405250810190610f23919061557a565b6001600160a01b0316336001600160a01b0316145b6110295786516001600160a01b0316331480610fd1575060055487516040516351c4bc1f60e11b81526001600160a01b039092169163a389783e91610f81913390600401615606565b60206040518083038186803b158015610f9957600080fd5b505afa158015610fad573d6000803e3d6000fd5b505050506040513d601f19601f82011682018060405250810190610fd19190615620565b6110295760405162461bcd60e51b815260206004820152602360248201527f6f6e6c792073656e646572206f7220617070726f76656420696e74656772617460448201526234b7b760e91b6064820152608401610784565b6007805460ff1916908190556040805180820182526001600160801b036101009384900481168252600f54600160b81b900460ff1660208084019190915283516101a0810185528c8201518152600081830181905287516001600160a01b03908116838801529288015160020b6060830152600a546080830152600b5460a0830152845190931660c082015260085460e0820152948501829052610120850182905261014085018290526101608501829052610180850182905281548451637aa4db1360e01b81529451939594911692637aa4db139260048084019391929182900301818387803b15801561111d57600080fd5b505af1158015611131573d6000803e3d6000fd5b50505050600089602001511315611593575b80511580159061116d575088604001516001600160a01b031681604001516001600160a01b031614155b1561158e5761117a6151cc565b60408201516001600160a01b031681526060820151600c546111a391600e9160020b60006131db565b1515604083015260020b60208201526111bf62010deb1961575d565b60020b816020015160020b13156111e6576111dd62010deb1961575d565b60020b60208201525b6111f38160200151613398565b81606001906001600160a01b031690816001600160a01b0316815250506112ae6040518060c0016040528084604001516001600160a01b031681526020018c604001516001600160a01b031684606001516001600160a01b03161161125c578360600151611262565b8c604001515b6001600160a01b0316815260c08501516001600160801b0316602082015284516040820152600654606082015260800161129a6137aa565b6002546112a79190615777565b90526137ba565b60c085015260a0840152608083019081526001600160a01b039091166040840152516112d9906139e3565b825183906112e890839061578e565b90525060a08101516112f9906139e3565b8260200181815161130a919061578e565b905250608081015161131b906139e3565b61014082015260a081015161132f906139e3565b611338906157cd565b61010082015260c081015161012083015161135391906157ea565b610120830152602083015160ff16156113b357826020015160ff168160c0015161137d9190615818565b60e0820181905260c082018051611395908390615777565b90525060e0810151610100830180516113af9083906157ea565b9052505b60c08201516001600160801b0316156114c7576000546001546002546040516325f258dd60e01b815261145a93869386936001600160a01b03909216926325f258dd92611403929160040161582c565b602060405180830381600087803b15801561141d57600080fd5b505af1158015611431573d6000803e3d6000fd5b505050506040513d601f19601f82011682018060405250810190611455919061583a565b613a4d565b6101208501908152608086019190915260a085019190915260e0840191909152516101408301805161148d90839061578e565b905250610140810151610160830180516114a890839061578e565b905250610100810151610180830180516114c390839061578e565b9052505b80606001516001600160a01b031682604001516001600160a01b031614156115515780604001511561153f57600061151f826020015184608001518560a001518660e00151600d613b0990949392919063ffffffff16565b905061152f8360c0015182613b6d565b6001600160801b031660c0840152505b602081015160020b6060830152611588565b80600001516001600160a01b031682604001516001600160a01b0316146115885761157f8260400151612d6e565b60020b60608301525b50611143565b611931565b8051158015906115bd575088604001516001600160a01b031681604001516001600160a01b031614155b15611931576115ca6151cc565b60408201516001600160a01b031681526060820151600c546115f391600e9160020b60016131db565b1515604083015260020b6020820181905262010deb19131561161a5762010deb1960208201525b6116278160200151613398565b81606001906001600160a01b031690816001600160a01b0316815250506116906040518060c0016040528084604001516001600160a01b031681526020018c604001516001600160a01b031684606001516001600160a01b03161061125c578360600151611262565b60c085015260a0840190815260808401919091526001600160a01b039091166040840152516116be906139e3565b825183906116cd908390615853565b90525060808101516116de906139e3565b826020018181516116ef9190615853565b90525060a0810151611700906139e3565b611709906157cd565b610140820152608081015161171d906139e3565b61010082015260c081015161012083015161173891906157ea565b610120830152602083015160ff161561179857826020015160ff168160c001516117629190615818565b60e0820181905260c08201805161177a908390615777565b90525060e0810151610100830180516117949083906157ea565b9052505b60c08201516001600160801b031615611855576000546001546002546040516325f258dd60e01b81526117e893869386936001600160a01b03909216926325f258dd92611403929160040161582c565b6101208501908152608086019190915260a085019190915260e0840191909152516101408301805161181b90839061578e565b9052506101408101516101608301805161183690839061578e565b9052506101008101516101808301805161185190839061578e565b9052505b80606001516001600160a01b031682604001516001600160a01b031614156118f4578060400151156118d65760006118ad826020015184608001518560a001518660e00151600d613b0990949392919063ffffffff16565b90506118c68360c00151826118c190615653565b613b6d565b6001600160801b031660c0840152505b600181602001516118e79190615894565b60020b606083015261192b565b80600001516001600160a01b031682604001516001600160a01b03161461192b576119228260400151612d6e565b60020b60608301525b50611593565b6040810151600f80546001600160a01b0319166001600160a01b0390921691909117905560208301516060820151600291820b910b14611993576060810151600f805462ffffff909216600160a01b0262ffffff60a01b199092169190911790555b8060c001516001600160801b031682600001516001600160801b0316146119e05760c0810151600780546001600160801b0390921661010002610100600160881b03199092169190911790555b60e081015160085560a0810151600b556080810151600a55610120810151610140820151610160830151610180840151610100850151929b5090995091975090955015611a445780610100015160096000828254611a3e91906157ea565b90915550505b6003546001600160a01b0316331480611af35750600360009054906101000a90046001600160a01b03166001600160a01b03166322d23b216040518163ffffffff1660e01b815260040160206040518083038186803b158015611aa657600080fd5b505afa158015611aba573d6000803e3d6000fd5b505050506040513d601f19601f82011682018060405250810190611ade919061557a565b6001600160a01b0316336001600160a01b0316145b611bc957600354895160608b015160808c015161014085015161016086015161012087015161018088015160405163604b0bd760e11b81526001600160a01b039788166004820152600296870b60248201529490950b60448501526064840192909252608483015260a482015260c481019190915291169063c09617ae9060e401602060405180830381600087803b158015611b8e57600080fd5b505af1158015611ba2573d6000803e3d6000fd5b505050506040513d601f19601f82011682018060405250810190611bc6919061583a565b93505b600f54604051600160a01b90910460020b81527f3de48b885df0271268324c099733a36a802c1cbb40c7272796b2b28addf04cd29060200160405180910390a1886080015160020b896060015160020b8a600001516001600160a01b03167fa24f288a343811d26ac1ec29998e37b87ff6503cefe399a3c8fb747eb0464e58338d602001518e604001518c8f8f8e604051611ca697969594939291906001600160a01b03978816815260208101969096529390951660408501526060840191909152608083015260a082019290925260c081019190915260e00190565b60405180910390a450506007805460ff1916600117905550939592945090929091565b33611cd2611e69565b6001600160a01b031614611cf85760405162461bcd60e51b8152600401610784906158dc565b66470de4df820000811115611d3b5760405162461bcd60e51b81526020600482015260096024820152686665652072616e676560b81b6044820152606401610784565b806006541415611d855760405162461bcd60e51b8152602060048201526015602482015274199959481d985b1d5948185b1c9958591e481cd95d605a1b6044820152606401610784565b60068190556040518181527f557809284da7314475b1582804ae28e5f1349efc1fe970ea25d50fce75eb4f43906020015b60405180910390a150565b33611dca611e69565b6001600160a01b031614611df05760405162461bcd60e51b8152600401610784906158dc565b611dfa6000613ba4565b565b6003546001600160a01b03163314611e2757604051630a0d349f60e21b815260040160405180910390fd5b806009541015611e4f576009546040516311920a6d60e31b815261078491839160040161582c565b8060096000828254611e619190615777565b909155505050565b6076546001600160a01b031690565b33611e81611e69565b6001600160a01b031614611ea75760405162461bcd60e51b8152600401610784906158dc565b60ff81161580611eca575060038160ff1610158015611eca575060328160ff1611155b611f015760405162461bcd60e51b815260206004820152600860248201526750522072616e676560c01b6044820152606401610784565b600f5460ff828116600160b81b909204161415611f575760405162461bcd60e51b81526020600482015260146024820152731411881d985b1d5948185b1c9958591e481cd95d60621b6044820152606401610784565b600f805460ff60b81b1916600160b81b60ff8416908102919091179091556040519081527fe949530fb25dc21f05cb65fe03447f6f68f8e21e3584c72e6e92042b8bc28f7990602001611db6565b60105460009060ff161561205c5760055460408051633bd5670d60e11b815290516000926001600160a01b0316916377aace1a916004808301926020929190829003018186803b158015611ff857600080fd5b505afa15801561200c573d6000803e3d6000fd5b505050506040513d601f19601f82011682018060405250810190612030919061557a565b9050336001600160a01b0382161461205a5760405162461bcd60e51b815260040161078490615597565b505b60a85460ff161561207f5760405162461bcd60e51b8152600401610784906155bf565b61208a600254613092565b156120a75760405162461bcd60e51b81526004016107849061572c565b60075460ff166120c95760405162461bcd60e51b8152600401610784906155e9565b6007805460ff191690556001600160801b0382166120fc5781604051633611668d60e21b81526004016107849190615251565b336001600160a01b038616148061219057506005546040516351c4bc1f60e11b81526001600160a01b039091169063a389783e906121409088903390600401615606565b60206040518083038186803b15801561215857600080fd5b505afa15801561216c573d6000803e3d6000fd5b505050506040513d601f19601f820116820180604052508101906121909190615620565b6121e85760405162461bcd60e51b8152602060048201526024808201527f6f6e6c79206d73672e73656e646572206f7220617070726f7665642063616e206044820152631b5a5b9d60e21b6064820152608401610784565b6122296040518060800160405280876001600160a01b031681526020018660020b81526020018560020b8152602001610931856001600160801b0316612735565b90508260020b8460020b866001600160a01b03167f712faa344eac6399174fdfa887d9e1451e9b55ce58ee440c91c660229962a5a6338660405161098092919061567b565b33612277611e69565b6001600160a01b03161461229d5760405162461bcd60e51b8152600401610784906158dc565b60105460ff16151581151514156122f05760405162461bcd60e51b8152602060048201526017602482015276185b1c1a18481cdd185d1948185b1c9958591e481cd95d604a1b6044820152606401610784565b6010805460ff191682151590811790915560405160ff909116151581527fa201234976cfdc556c03f06ca9366e09441724eae79256ad9da6b5f04cbdb05890602001611db6565b604354610100900460ff166123525760435460ff1615612356565b303b155b6123b95760405162461bcd60e51b815260206004820152602e60248201527f496e697469616c697a61626c653a20636f6e747261637420697320616c72656160448201526d191e481a5b9a5d1a585b1a5e995960921b6064820152608401610784565b604354610100900460ff161580156123db576043805461ffff19166101011790555b6001600160a01b0383166124225760405162461bcd60e51b815260206004820152600e60248201526d1351481b5d5cdd081899481cd95d60921b6044820152606401610784565b60008260020b13801561243a5750614000600283900b125b61246e5760405162461bcd60e51b81526020600482015260056024820152642a29a7a7a160d91b6044820152606401610784565b600380546001600160a01b0319166001600160a01b03851690811790915560408051634c7a58d960e11b815290516398f4b1b291600480820192602092909190829003018186803b1580156124c257600080fd5b505afa1580156124d6573d6000803e3d6000fd5b505050506040513d601f19601f820116820180604052508101906124fa919061557a565b600080546001600160a01b03929092166001600160a01b03199283161790556005805490911633179055600c805462ffffff841662ffffff1990911617908190556125479060020b613bf6565b600480546001600160801b0319166001600160801b03929092169190911781556003546040805163652c30b760e01b815290516001600160a01b039092169263652c30b7928282019260209290829003018186803b1580156125a857600080fd5b505afa1580156125bc573d6000803e3d6000fd5b505050506040513d601f19601f820116820180604052508101906125e0919061583a565b600155600354604080516324fb6d1560e21b815290516001600160a01b03909216916393edb45491600480820192602092909190829003018186803b15801561262857600080fd5b505afa15801561263c573d6000803e3d6000fd5b505050506040513d601f19601f82011682018060405250810190612660919061583a565b60025561266b613c5e565b612673613c95565b61267b613ccc565b801561268d576043805461ff00191690555b505050565b3361269b611e69565b6001600160a01b0316146126c15760405162461bcd60e51b8152600401610784906158dc565b6001600160a01b0381166127265760405162461bcd60e51b815260206004820152602660248201527f4f776e61626c653a206e6577206f776e657220697320746865207a65726f206160448201526564647265737360d01b6064820152608401610784565b610a6381613ba4565b3b151590565b600060016001607f1b03198212801590612756575060016001607f1b038213155b6127b25760405162461bcd60e51b815260206004820152602760248201527f53616665436173743a2076616c756520646f65736e27742066697420696e20316044820152663238206269747360c81b6064820152608401610784565b5090565b60006127ca82602001518360400151612ba6565b6040805160608082018352600f80546001600160a01b0381168452600160a01b810460020b6020850152600160b81b900460ff1693830193909352840151909160009182910b156128245761281e85613d03565b90925090505b600354600094506001600160a01b031633146128e6576003546040805163bfb5607d60e01b815287516001600160a01b0390811660048301526020890151600290810b60248401529289015190920b60448201526060880151600f0b606482015291169063bfb5607d90608401602060405180830381600087803b1580156128ab57600080fd5b505af11580156128bf573d6000803e3d6000fd5b505050506040513d601f19601f820116820180604052508101906128e3919061583a565b93505b60008560600151600f0b121561292457811561290d57602085015161290d90600d90613de2565b801561292457604085015161292490600d90613de2565b6000805460408051637aa4db1360e01b815290516001600160a01b0390921692637aa4db139260048084019382900301818387803b15801561296557600080fd5b505af1158015612979573d6000803e3d6000fd5b505050508460600151600f0b600014612a0c57846020015160020b836020015160020b121580156129b75750846040015160020b836020015160020b125b15612a0c576000600760019054906101000a90046001600160801b031690506129e4818760600151613b6d565b600760016101000a8154816001600160801b0302191690836001600160801b03160217905550505b505050919050565b600080516020615e9c833981519152546001600160a01b031690565b33612a39611e69565b6001600160a01b031614610a635760405162461bcd60e51b8152600401610784906158dc565b6000612a69612a14565b9050612a7484613e1b565b600083511180612a815750815b15612a9257612a908484613eae565b505b7f4910fdfa16fed3260ed0e7147f7cc6da11a60208b5b9406d12a635614ffd9143805460ff16612b9f57805460ff19166001178155604051612b0d908690612ade90859060240161523d565b60408051601f198184030181529190526020810180516001600160e01b0316631b2ce7f360e11b179052613eae565b50805460ff19168155612b1e612a14565b6001600160a01b0316826001600160a01b031614612b965760405162461bcd60e51b815260206004820152602f60248201527f45524331393637557067726164653a207570677261646520627265616b73206660448201526e75727468657220757067726164657360881b6064820152608401610784565b612b9f85613f90565b5050505050565b8060020b8260020b12612be15760405162461bcd60e51b8152602060048201526003602482015262544c5560e81b6044820152606401610784565b62010deb19600283900b1215612c1f5760405162461bcd60e51b8152602060048201526003602482015262544c4d60e81b6044820152606401610784565b612c2c62010deb1961575d565b60020b8160020b1315610dc85760405162461bcd60e51b815260206004820152600360248201526254554d60e81b6044820152606401610784565b8051600290810b600090815260208481526040808320918501805190940b83528083208551945191860151606087015160018086015490840154969795969395612cb79590949093929190613fd0565b95945050505050565b8051600290810b6000908152602084815260408083209185018051850b8452818420865191519287015160608801518588015497830154969795969295612cb79593613fd0565b8051600290810b600090815260208481526040808320918501805190940b835280832085519451918601516060870151949593949193612cb7939092909190612d4f906139e3565b612d5c87600301546139e3565b612d6987600301546139e3565b613fd0565b60006b0816769404766de590afe04e6001600160a01b03831610801590612daa57506c1fa71f3f5f68a90479ee3f8fec6001600160a01b038316105b612dc65760405162461bcd60e51b815260040161078490615711565b600160201b600160c01b03602083901b166001600160801b03811160071b81811c6001600160401b03811160061b90811c63ffffffff811160051b90811c61ffff811160041b90811c60ff8111600390811b91821c600f811160021b90811c918211600190811b92831c97908811961790941790921717909117171760808110612e5f57612e55607f82615777565b83901c9150612e70565b612e6a81607f615777565b83901b91505b60006040612e7f60808461578e565b901b9050828302607f1c92508260801c80603f1b8217915083811c935050828302607f1c92508260801c80603e1b8217915083811c935050828302607f1c92508260801c80603d1b8217915083811c935050828302607f1c92508260801c80603c1b8217915083811c935050828302607f1c92508260801c80603b1b8217915083811c935050828302607f1c92508260801c80603a1b8217915083811c935050828302607f1c92508260801c8060391b8217915083811c935050828302607f1c92508260801c8060381b8217915083811c935050828302607f1c92508260801c8060371b8217915083811c935050828302607f1c92508260801c8060361b8217915083811c935050828302607f1c92508260801c8060351b8217915083811c935050828302607f1c92508260801c8060341b8217915083811c935050828302607f1c92508260801c8060331b8217915083811c935050828302607f1c92508260801c8060321b8217915050600081693627a301d71055774c856130029190615911565b9050600060806130226f028f6481ab7f045a5af012a19d003aaa8461578e565b901d905060006080613044846fdb2df09e81959a81455e260799a0632f615853565b901d90508060020b8260020b1461308357886001600160a01b031661306882613398565b6001600160a01b0316111561307d5781613085565b80613085565b815b9998505050505050505050565b60008169124bc0ddd92e560000006130a86137aa565b6130b291906157ea565b101592915050565b60208301516130dc57604051631fa907d560e11b815260040160405180910390fd5b60075460ff1661310a57600754604051633cc7822f60e11b815260ff90911615156004820152602401610784565b8061315e5781600001516001600160a01b031683604001516001600160a01b031610801561315957506b0816769404766de590afe04e6001600160a01b031683604001516001600160a01b0316115b6131a9565b81600001516001600160a01b031683604001516001600160a01b03161180156131a957506c1fa71f3f5f68a90479ee3f8fec6001600160a01b031683604001516001600160a01b0316105b61268d5760405162461bcd60e51b815260206004820152600360248201526214d41360ea1b6044820152606401610784565b600080806131e98587615996565b905060008660020b128015613209575061320385876159d0565b60020b15155b1561321c5780613218816159f2565b9150505b83156132c95760008061322e8361403c565b90925090506000600160ff831681901b906132499082615777565b61325391906157ea565b600184900b600090815260208c905260409020548116801515965090915085613293578861328460ff851687615894565b61328e9190615a16565b6132be565b8861329d82614059565b6132a79085615aa3565b6132b49060ff1687615894565b6132be9190615a16565b96505050505061338e565b6000806132df6132da846001615ac6565b61403c565b909250905060006132f7600160ff841681901b615777565b600184900b600090815260208c90526040902054901990811680151596509091508561335057886133298460ff615aa3565b60ff16613337876001615ac6565b6133419190615ac6565b61334b9190615a16565b613387565b888361335b8361415e565b6133659190615aa3565b60ff16613373876001615ac6565b61337d9190615ac6565b6133879190615a16565b9650505050505b5094509492505050565b60008060008360020b126133af578260020b6133bc565b8260020b6133bc906157cd565b90506133cb62010deb1961575d565b60020b8111156134015760405162461bcd60e51b81526020600482015260016024820152601560fa1b6044820152606401610784565b60006001821661341557600160801b613427565b6ffffcb933bd6fad37aa2d162d1a5940015b6001600160881b03169050600282161561345c576080613457826ffff97272373d413259a46990580e213a615b0d565b901c90505b6004821615613486576080613481826ffff2e50f5f656932ef12357cf3c7fdcc615b0d565b901c90505b60088216156134b05760806134ab826fffe5caca7e10e4e61c3624eaa0941cd0615b0d565b901c90505b60108216156134da5760806134d5826fffcb9843d60f6159c9db58835c926644615b0d565b901c90505b60208216156135045760806134ff826fff973b41fa98c081472e6896dfb254c0615b0d565b901c90505b604082161561352e576080613529826fff2ea16466c96a3843ec78b326b52861615b0d565b901c90505b6080821615613558576080613553826ffe5dee046a99a2a811c461f1969c3053615b0d565b901c90505b61010082161561358357608061357e826ffcbe86c7900a88aedcffc83b479aa3a4615b0d565b901c90505b6102008216156135ae5760806135a9826ff987a7253ac413176f2b074cf7815e54615b0d565b901c90505b6104008216156135d95760806135d4826ff3392b0822b70005940c7a398e4b70f3615b0d565b901c90505b6108008216156136045760806135ff826fe7159475a2c29b7443b29c7fa6e889d9615b0d565b901c90505b61100082161561362f57608061362a826fd097f3bdfd2022b8845ad8f792aa5825615b0d565b901c90505b61200082161561365a576080613655826fa9f746462d870fdf8a65dc1f90e061e5615b0d565b901c90505b614000821615613685576080613680826f70d869a156d2a1b890bb3df62baf32f7615b0d565b901c90505b6180008216156136b05760806136ab826f31be135f97d08fd981231505542fcfa6615b0d565b901c90505b620100008216156136dc5760806136d7826f09aa508b5b7a84e1c677de54f3e99bc9615b0d565b901c90505b62020000821615613707576080613702826e5d6af8dedb81196699c329225ee604615b0d565b901c90505b6204000082161561373157608061372c826d2216e584f5fa1ea926041bedfe98615b0d565b901c90505b62080000821615613759576080613754826b048a170391f7dc42444e8fa2615b0d565b901c90505b60008460020b13156137745761377181600019615818565b90505b613782600160201b82615b2c565b1561378e576001613791565b60005b6137a29060ff16602083901c6157ea565b949350505050565b60006137b54261429b565b905090565b6020810151815160608301516000928392839283926001600160a01b03908116921691909110159082811280159184039061386357826138125761380d886000015189602001518a6040015160016142e8565b61382b565b61382b886020015189600001518a604001516001614358565b95508588606001511061384457876020015196506138cb565b61385c886000015189604001518a606001518661445f565b96506138cb565b8261388657613881886000015189602001518a604001516000614358565b61389f565b61389f886020015189600001518a6040015160006142e8565b94508481106138b457876020015196506138cb565b6138c88860000151896040015183866144d1565b96505b60208801516001600160a01b0388811691161460008415613947578180156138f05750835b61390e57613909898b600001518c604001516001614358565b613910565b875b975081801561391d575083155b61393b57613936898b600001518c6040015160006142e8565b61393d565b865b96508690506139a4565b8180156139515750835b61396f5761396a8a600001518a8c6040015160016142e8565b613971565b875b975081801561397e575083155b61399c576139978a600001518a8c604001516000614358565b61399e565b865b96508790505b831580156139b157508287115b156139ba578296505b6139d56139c68261429b565b8b60a001518c60800151614543565b955050505050509193509193565b60006001600160ff1b038211156127b25760405162461bcd60e51b815260206004820152602860248201527f53616665436173743a2076616c756520646f65736e27742066697420696e2061604482015267371034b73a191a9b60c11b6064820152608401610784565b600080600080613a738660c00151600160801b8960c001516001600160801b031661457b565b8760e00151613a8291906157ea565b9350613a9f86610100015187610140015187600154600254614679565b9050613ac2866101400151600160801b8960c001516001600160801b03166146fe565b8760a00151613ad19190615853565b9250613aef81600160801b8960c001516001600160801b03166146fe565b8760800151613afe9190615853565b915093509350935093565b600284900b60009081526020869052604081206003810154613b2b9084615777565b60038201556001810154613b3f908661578e565b60018201556002810154613b53908561578e565b600282015554600160801b9004600f0b9695505050505050565b60008082600f0b1215613b91576000829003613b898185615b40565b915050613b9e565b613b9b8284615b68565b90505b92915050565b607680546001600160a01b038381166001600160a01b0319831681179093556040519116919082907f8be0079c531659141344cd1fd0a4f28419497f9722a3daafe3b4186f6b6457e090600090a35050565b600080613c078362010deb196159d0565b613c159062010deb19615894565b90506000613c228261575d565b9050600084613c318484615894565b613c3b9190615996565b613c46906001615b93565b9050612cb762ffffff82166001600160801b03615bb1565b604354610100900460ff16613c855760405162461bcd60e51b815260040161078490615bd7565b613c8d614736565b611dfa61475d565b604354610100900460ff16613cbc5760405162461bcd60e51b815260040161078490615bd7565b613cc4614736565b611dfa61478d565b604354610100900460ff16613cf35760405162461bcd60e51b815260040161078490615bd7565b613cfb614736565b611dfa614736565b600080613d1883602001518460400151612ba6565b6020830151600f546060850151600a54600b54600854600454613d5d96600d969095600160a01b90910460020b949093909290916000906001600160801b03166147c0565b6040840151600f546060860151600a54600b54600854600454969850613da196600d9695600160a01b900460020b94939291906001906001600160801b03166147c0565b90508115613dc0576020830151600c54613dc091600e9160020b614955565b8015613ddd576040830151600c54613ddd91600e9160020b614955565b915091565b600290810b600090815260209290925260408220828155600181018390559081018290556003810191909155600401805460ff19169055565b803b613e7f5760405162461bcd60e51b815260206004820152602d60248201527f455243313936373a206e657720696d706c656d656e746174696f6e206973206e60448201526c1bdd08184818dbdb9d1c9858dd609a1b6064820152608401610784565b600080516020615e9c83398151915280546001600160a01b0319166001600160a01b0392909216919091179055565b6060823b613f0d5760405162461bcd60e51b815260206004820152602660248201527f416464726573733a2064656c65676174652063616c6c20746f206e6f6e2d636f6044820152651b9d1c9858dd60d21b6064820152608401610784565b600080846001600160a01b031684604051613f289190615c52565b600060405180830381855af49150503d8060008114613f63576040519150601f19603f3d011682016040523d82523d6000602084013e613f68565b606091505b5091509150612cb78282604051806060016040528060278152602001615ebc602791396149ea565b613f9981613e1b565b6040516001600160a01b038216907fbc7cd75a20ee27fd9adebab32041f755214dbc6bffa90cc0225b39da2e5c2d3b90600090a250565b6000808760020b8660020b12613fe7575082613ff4565b613ff1848661578e565b90505b60008760020b8760020b121561400b575082614018565b614015848761578e565b90505b60006140248284615853565b61402e908861578e565b9a9950505050505050505050565b600281900b60081d6000614052610100846159d0565b9050915091565b600080821161407a5760405162461bcd60e51b815260040161078490615c6e565b600160801b821061409857608091821c916140959082615c95565b90505b600160401b82106140b657604091821c916140b39082615c95565b90505b600160201b82106140d457602091821c916140d19082615c95565b90505b6201000082106140f157601091821c916140ee9082615c95565b90505b610100821061410d57600891821c9161410a9082615c95565b90505b6010821061412857600491821c916141259082615c95565b90505b6004821061414357600291821c916141409082615c95565b90505b6002821061415957614156600182615c95565b90505b919050565b600080821161417f5760405162461bcd60e51b815260040161078490615c6e565b5060ff6001600160801b038216156141a35761419c608082615aa3565b90506141ab565b608082901c91505b6001600160401b038216156141cc576141c5604082615aa3565b90506141d4565b604082901c91505b63ffffffff8216156141f2576141eb602082615aa3565b90506141fa565b602082901c91505b61ffff8216156142165761420f601082615aa3565b905061421e565b601082901c91505b60ff82161561423957614232600882615aa3565b9050614241565b600882901c91505b600f82161561425c57614255600482615aa3565b9050614264565b600482901c91505b600382161561427f57614278600282615aa3565b9050614287565b600282901c91505b600182161561415957614156600182615aa3565b60007812725dd1d243aba0e75fe645cc4873f9e65afe688c928e1f218211156142da57604051633492ffd960e01b815260048101839052602401610784565b50670de0b6b3a76400000290565b6000836001600160a01b0316856001600160a01b03161115614308579293925b8161433557614330836001600160801b03168686036001600160a01b0316600160601b61457b565b612cb7565b612cb7836001600160801b03168686036001600160a01b0316600160601b614a23565b6000836001600160a01b0316856001600160a01b03161115614378579293925b600160601b600160e01b03606084901b1660006143958787615cba565b6001600160a01b031690506000876001600160a01b0316116143f25760405162461bcd60e51b8152602060048201526016602482015275073717274207072696365206d757374206265203e20360541b6044820152606401610784565b8361442857866001600160a01b03166144158383896001600160a01b031661457b565b8161442257614422615802565b04614454565b61445461443f8383896001600160a01b0316614a23565b886001600160a01b0316808204910615150190565b979650505050505050565b600080856001600160a01b0316116144895760405162461bcd60e51b815260040161078490615cda565b6000846001600160801b0316116144b25760405162461bcd60e51b815260040161078490615d0e565b816144c4576143308585856001614a76565b612cb78585856001614b98565b600080856001600160a01b0316116144fb5760405162461bcd60e51b815260040161078490615cda565b6000846001600160801b0316116145245760405162461bcd60e51b815260040161078490615d0e565b81614536576143308585856000614b98565b612cb78585856000614a76565b60008061454f84614cef565b90506000614566866145618685614d06565b614d06565b670de0b6b3a764000090049695505050505050565b6000808060001985870985870292508281108382030391505080600014156145eb57600084116145e05760405162461bcd60e51b815260206004820152601060248201526f4469766973696f6e206279207a65726f60801b6044820152606401610784565b508290049050614672565b80841161460a5760405162461bcd60e51b815260040161078490615d3d565b600084868809851960019081018716968790049682860381900495909211909303600082900391909104909201919091029190911760038402600290811880860282030280860282030280860282030280860282030280860282030280860290910302029150505b9392505050565b600082821161469a5760405162461bcd60e51b815260040161078490615d5f565b851580156146a6575084155b156146b357506000612cb7565b60006146be87614d12565b905060006146cb87614d12565b905060006146dc8383898989614d8f565b905060006146ec84838989614dc3565b9050670de0b6b3a7640000810561402e565b60008084121561472b5761471b614714856157cd565b848461457b565b614724906157cd565b9050614672565b6137a284848461457b565b604354610100900460ff16611dfa5760405162461bcd60e51b815260040161078490615bd7565b604354610100900460ff166147845760405162461bcd60e51b815260040161078490615bd7565b611dfa33613ba4565b604354610100900460ff166147b45760405162461bcd60e51b815260040161078490615bd7565b60a8805460ff19169055565b600288900b600090815260208a90526040812080546001600160801b0316826147e98a83615d7d565b600f0b12156148395760405162461bcd60e51b815260206004820152601c60248201527b3737ba1032b737bab3b4103634b8bab4b234ba3c903a3790313ab93760211b6044820152606401610784565b6000614845828b613b6d565b9050846001600160801b0316816001600160801b0316111561488e5760405162461bcd60e51b81526020600482015260026024820152614c4f60f01b6044820152606401610784565b6001600160801b0382811615908216158114159450156148db578a60020b8c60020b136148cb576003830187905560018301899055600283018890555b60048301805460ff191660011790555b82546001600160801b0319166001600160801b03821617835585614915578254614910908b90600160801b9004600f0b615d7d565b61492c565b825461492c908b90600160801b9004600f0b615dc5565b83546001600160801b03918216600160801b0291161790925550909a9950505050505050505050565b61495f81836159d0565b60020b156149ae5760405162461bcd60e51b815260206004820152601c60248201527b1d1a58dac81b5d5cdd081899481c1c9bdc195c9b1e481cdc1858d95960221b6044820152606401610784565b6000806149be6132da8486615996565b600191820b60009081526020979097526040909620805460ff9097169190911b90951890945550505050565b606083156149f9575081614672565b825115614a095782518084602001fd5b8160405162461bcd60e51b81526004016107849190615e0b565b6000614a3084848461457b565b905060008280614a4257614a42615802565b8486091115614672576000198110614a6c5760405162461bcd60e51b815260040161078490615d3d565b80612cb781615e3e565b60008115614ae05760006001600160a01b03841115614aac57614aa784600160601b876001600160801b031661457b565b614ac3565b614ac36001600160801b038616606086901b615818565b9050614ace81614e04565b614ad89087615e59565b9150506137a2565b60006001600160a01b03841115614b0e57614b0984600160601b876001600160801b0316614a23565b614b2b565b614b2b606085901b6001600160801b038716808204910615150190565b905080866001600160a01b031611614b855760405162461bcd60e51b815260206004820152601e60248201527f7374617274696e67207078206d757374206265203e2071756f7469656e7400006044820152606401610784565b614ad8816001600160a01b038816615777565b600082614ba65750836137a2565b600160601b600160e01b03606085901b168215614c515760006001600160a01b03871685614bd48282615b0d565b9250614be09083615818565b1415614c1b576000614bf282846157ea565b9050828110614c1957614c0f83896001600160a01b031683614a23565b93505050506137a2565b505b614c488286614c336001600160a01b038b1683615818565b614c3d91906157ea565b808204910615150190565b925050506137a2565b60006001600160a01b03871685614c688282615b0d565b9250614c749083615818565b148015614c8057508082115b614cc55760405162461bcd60e51b815260206004820152601660248201527564656e6f6d696e61746f7220756e646572666c6f777360501b6044820152606401610784565b6000614cd18284615777565b9050614c0f614cea848a6001600160a01b031684614a23565b614e04565b6000614156826a1a1601fc4ea7109e000000614e55565b6000613b9b8383614e6a565b60007809392ee8e921d5d073aff322e62439fcf32d7f344649470f8f19821215614d525760405163e608e18b60e01b815260048101839052602401610784565b7809392ee8e921d5d073aff322e62439fcf32d7f344649470f908213156142da576040516371f72a3160e01b815260048101839052602401610784565b600080600080614dab614da460008888614f2c565b8a90614fe2565b9250614db78888614fe2565b91506130858284615853565b6000828211614de45760405162461bcd60e51b815260040161078490615d5f565b614dfa614df360018585614f2c565b85906150a7565b612cb7908661578e565b806001600160a01b03811681146141595760405162461bcd60e51b815260206004820152601560248201527406f766572666c6f7720696e20746f55696e7431363605c1b6044820152606401610784565b6000613b9b83670de0b6b3a76400008461516d565b60008080600019848609848602925082811083820303915050670de0b6b3a76400008110614eae5760405163698d9a0160e11b815260048101829052602401610784565b600080670de0b6b3a76400008688099150506706f05b59d3b1ffff811182614ee85780670de0b6b3a7640000850401945050505050613b9e565b620400008285030493909111909103600160ee1b02919091177faccb18165bd6fe31ae1cf318dc5b51eee0e1ba569b88cd74c1773b91fac106690201905092915050565b6000828211614f4d5760405162461bcd60e51b815260040161078490615d5f565b6000614f576137aa565b905083811015614f915760405162461bcd60e51b8152602060048201526005602482015264422e543c5360d81b6044820152606401610784565b60008580614f9f5750838210155b15614fb557614fae8585615777565b9050614fc2565b614fbf8583615777565b90505b6000614fcd82614cef565b90506144548168056bc75e2d63100000614e55565b6000600160ff1b831480614ff95750600160ff1b82145b1561501757604051630d01a11b60e21b815260040160405180910390fd5b60008060008512615028578461502d565b846000035b91506000841261503d5783615042565b836000035b905060006150508383614e6a565b90506001600160ff1b0381111561507d5760405163bf79e8d960e01b815260048101829052602401610784565b600019808713908613808218600114615096578261509b565b826000035b98975050505050505050565b6000600160ff1b8314806150be5750600160ff1b82145b156150dc5760405163b3c754a360e01b815260040160405180910390fd5b600080600085126150ed57846150f2565b846000035b9150600084126151025783615107565b836000035b9050600061511e83670de0b6b3a76400008461516d565b90506001600160ff1b0381111561514b57604051637cb4bef560e01b815260048101829052602401610784565b600019808713908613808218600114615164578261509b565b61509b836157cd565b6000808060001985870985870292508281108382030391505080600014156151a85783828161519e5761519e615802565b0492505050614672565b83811061460a578084604051631dcf306360e21b815260040161078492919061582c565b60405180610160016040528060006001600160a01b03168152602001600060020b815260200160001515815260200160006001600160a01b03168152602001600081526020016000815260200160008152602001600081526020016000815260200160008152602001600081525090565b6001600160a01b0391909116815260200190565b6001600160801b0391909116815260200190565b6001600160a01b0381168114610a6357600080fd5b8035600281900b811461415957600080fd5b600080600080608085870312156152a257600080fd5b84356152ad81615265565b93506152bb6020860161527a565b92506152c96040860161527a565b915060608501356001600160801b03811681146152e557600080fd5b939692955090935050565b60006020828403121561530257600080fd5b813561467281615265565b6000806040838503121561532057600080fd5b6153298361527a565b91506153376020840161527a565b90509250929050565b634e487b7160e01b600052604160045260246000fd5b604051601f8201601f191681016001600160401b038111828210171561537e5761537e615340565b604052919050565b6000806040838503121561539957600080fd5b82356153a481615265565b91506020838101356001600160401b03808211156153c157600080fd5b818601915086601f8301126153d557600080fd5b8135818111156153e7576153e7615340565b6153f9601f8201601f19168501615356565b9150808252878482850101111561540f57600080fd5b80848401858401376000848284010152508093505050509250929050565b60006020828403121561543f57600080fd5b81358060010b811461467257600080fd5b600060a0828403121561546257600080fd5b60405160a081016001600160401b038111828210171561548457615484615340565b604052823561549281615265565b81526020838101359082015260408301356154ac81615265565b60408201526154bd6060840161527a565b60608201526154ce6080840161527a565b60808201529392505050565b6000602082840312156154ec57600080fd5b5035919050565b60006020828403121561550557600080fd5b813560ff8116811461467257600080fd5b8015158114610a6357600080fd5b60006020828403121561553657600080fd5b813561467281615516565b6000806040838503121561555457600080fd5b823561532981615265565b60006020828403121561557157600080fd5b613b9b8261527a565b60006020828403121561558c57600080fd5b815161467281615265565b6020808252600e908201526d706572697068657279206f6e6c7960901b604082015260600190565b60208082526010908201526f14185d5cd8589b194e881c185d5cd95960821b604082015260600190565b6020808252600390820152624c4f4b60e81b604082015260600190565b6001600160a01b0392831681529116602082015260400190565b60006020828403121561563257600080fd5b815161467281615516565b634e487b7160e01b600052601160045260246000fd5b6000600f82900b60016001607f1b03198114156156725761567261563d565b60000392915050565b6001600160a01b039290921682526001600160801b0316602082015260400190565b6020808252602c90820152600080516020615e7c83398151915260408201526b19195b1959d85d1958d85b1b60a21b606082015260800190565b6020808252602c90820152600080516020615e7c83398151915260408201526b6163746976652070726f787960a01b606082015260800190565b6020808252600190820152602960f91b604082015260600190565b602080825260179082015276636c6f7365546f4f724265796f6e644d6174757269747960481b604082015260600190565b60008160020b627fffff198114156156725761567261563d565b6000828210156157895761578961563d565b500390565b60008083128015600160ff1b8501841216156157ac576157ac61563d565b6001600160ff1b03840183138116156157c7576157c761563d565b50500390565b6000600160ff1b8214156157e3576157e361563d565b5060000390565b600082198211156157fd576157fd61563d565b500190565b634e487b7160e01b600052601260045260246000fd5b60008261582757615827615802565b500490565b918252602082015260400190565b60006020828403121561584c57600080fd5b5051919050565b600080821280156001600160ff1b03849003851316156158755761587561563d565b600160ff1b839003841281161561588e5761588e61563d565b50500190565b60008160020b8360020b6000811281627fffff19018312811516156158bb576158bb61563d565b81627fffff0183138116156158d2576158d261563d565b5090039392505050565b6020808252818101527f4f776e61626c653a2063616c6c6572206973206e6f7420746865206f776e6572604082015260600190565b60006001600160ff1b03818413828413808216868404861116156159375761593761563d565b600160ff1b60008712828116878305891216156159565761595661563d565b600087129250878205871284841616156159725761597261563d565b878505871281841616156159885761598861563d565b505050929093029392505050565b60008160020b8360020b806159ad576159ad615802565b627fffff198214600019821416156159c7576159c761563d565b90059392505050565b60008260020b806159e3576159e3615802565b808360020b0791505092915050565b60008160020b627fffff19811415615a0c57615a0c61563d565b6000190192915050565b60008160020b8360020b627fffff600082136000841383830485118282161615615a4257615a4261563d565b627fffff196000851282811687830587121615615a6157615a6161563d565b60008712925085820587128484161615615a7d57615a7d61563d565b85850587128184161615615a9357615a9361563d565b5050509290910295945050505050565b600060ff821660ff841680821015615abd57615abd61563d565b90039392505050565b60008160020b8360020b6000821282627fffff03821381151615615aec57615aec61563d565b82627fffff19038212811615615b0457615b0461563d565b50019392505050565b6000816000190483118215151615615b2757615b2761563d565b500290565b600082615b3b57615b3b615802565b500690565b60006001600160801b0383811690831681811015615b6057615b6061563d565b039392505050565b60006001600160801b03828116848216808303821115615b8a57615b8a61563d565b01949350505050565b600062ffffff808316818516808303821115615b8a57615b8a61563d565b60006001600160801b0383811680615bcb57615bcb615802565b92169190910492915050565b6020808252602b908201527f496e697469616c697a61626c653a20636f6e7472616374206973206e6f74206960408201526a6e697469616c697a696e6760a81b606082015260800190565b60005b83811015615c3d578181015183820152602001615c25565b83811115615c4c576000848401525b50505050565b60008251615c64818460208701615c22565b9190910192915050565b6020808252600d908201526c078206d757374206265203e203609c1b604082015260600190565b600060ff821660ff84168060ff03821115615cb257615cb261563d565b019392505050565b60006001600160a01b0383811690831681811015615b6057615b6061563d565b6020808252601a908201527907374617274696e67207072696365206d757374206265203e20360341b604082015260600190565b60208082526015908201527406c6971756964697479206d757374206265203e203605c1b604082015260600190565b6020808252600890820152676f766572666c6f7760c01b604082015260600190565b602080825260049082015263453c3d5360e01b604082015260600190565b6000600f82810b9084900b828212801560016001607f1b0384900383131615615da857615da861563d565b60016001607f1b03198390038212811615615b0457615b0461563d565b6000600f82810b9084900b828112801560016001607f1b0319830184121615615df057615df061563d565b60016001607f1b03820183138116156158d2576158d261563d565b6020815260008251806020840152615e2a816040850160208701615c22565b601f01601f19169190910160400192915050565b6000600019821415615e5257615e5261563d565b5060010190565b60006001600160a01b03828116848216808303821115615b8a57615b8a61563d56fe46756e6374696f6e206d7573742062652063616c6c6564207468726f75676820360894a13ba1a3210667c828492db98dca3e2076cc3735a920a3ca505d382bbc416464726573733a206c6f772d6c6576656c2064656c65676174652063616c6c206661696c6564a2646970667358221220542e9848b25f2291f816fa2d2f5c1ffd6b1f6662a3d5887f7141eb836bbe3ac164736f6c63430008090033",
  "devdoc": {
    "errors": {
      "AavePoolGetReserveNormalizedIncomeReturnedZero()": [
        {
          "details": "getReserveNormalizedIncome() returned zero for underlying asset. Oracle only supports active Aave-V2 assets."
        }
      ],
      "CanOnlyTradeIfUnlocked(bool)": [
        {
          "details": "Error which ensures the VAMM is unlocked"
        }
      ],
      "ExpectedOppositeSigns(int256,int256)": [
        {
          "details": "The two values were expected to have oppostite sigs, but do not"
        }
      ],
      "ExpectedSqrtPriceZeroBeforeInit(uint160)": [
        {
          "details": "Error which is reverted if the sqrt price of the vamm is non-zero before a vamm is initialized"
        }
      ],
      "IRSNotionalAmountSpecifiedMustBeNonZero()": [
        {
          "details": "Error which ensures the amount of notional specified when initiating an IRS contract (via the swap function in the vamm) is non-zero"
        }
      ],
      "LiquidityDeltaMustBePositiveInBurn(uint128)": [
        {
          "details": "Error which ensures the liquidity delta is positive if a given LP wishes to burn liquidity in the vamm"
        }
      ],
      "LiquidityDeltaMustBePositiveInMint(uint128)": [
        {
          "details": "Error which ensures the liquidity delta is positive if a given LP wishes to mint further liquidity in the vamm"
        }
      ],
      "MarginLessThanMinimum(int256)": [
        {
          "details": "Cannot have less margin than the minimum requirement"
        }
      ],
      "NotEnoughFunds(uint256,uint256)": [
        {
          "details": "There are not enough funds available for the requested operation"
        }
      ],
      "OOO()": [
        {
          "details": "currentTime < queriedTime"
        }
      ],
      "OnlyMarginEngine()": [
        {
          "details": "only the margin engine can run a certain function"
        }
      ],
      "PositionNetZero()": [
        {
          "details": "No need to unwind a net zero position"
        }
      ],
      "PositionNotSettled()": [
        {
          "details": "Position must be settled after AMM has reached maturity"
        }
      ],
      "WithdrawalExceedsCurrentMargin()": [
        {
          "details": "We can't withdraw more margin than we have"
        }
      ]
    },
    "kind": "dev",
    "methods": {
      "burn(address,int24,int24,uint128)": {
        "params": {
          "amount": "The amount of liquidity to burn",
          "recipient": "The address for which the liquidity will be removed",
          "tickLower": "The lower tick of the position in which to remove liquidity",
          "tickUpper": "The upper tick of the position in which to remove liqudiity"
        }
      },
      "computeGrowthInside(int24,int24)": {
        "params": {
          "tickLower": "The lower tick of the position",
          "tickUpper": "The upper tick of the position"
        },
        "returns": {
          "feeGrowthInsideX128": "Fee Growth Inside given tick range",
          "fixedTokenGrowthInsideX128": "Fixed Token Growth inside the given tick range",
          "variableTokenGrowthInsideX128": "Variable Token Growth inside the given tick range"
        }
      },
      "constructor": {
        "custom:oz-upgrades-unsafe-allow": "constructor"
      },
      "feeGrowthGlobalX128()": {
        "details": "This value can overflow the uint256"
      },
      "feeWad()": {
        "returns": {
          "_0": "The fee in wad"
        }
      },
      "fixedTokenGrowthGlobalX128()": {
        "details": "This value can overflow the uint256"
      },
      "initialize(address,int24)": {
        "details": "\"constructor\" for proxy instances"
      },
      "initializeVAMM(uint160)": {
        "details": "not locked because it initializes unlocked"
      },
      "isAlpha()": {
        "returns": {
          "_0": "If true, the VAMM Proxy is currently in alpha state, hence minting can only be done via the periphery. If false, minting can be done directly via VAMM."
        }
      },
      "maxLiquidityPerTick()": {
        "details": "This parameter should be enforced per tick (when setting) to prevent liquidity from overflowing a uint128 at any point, and also prevents out-of-range liquidity from being used to prevent adding in-range liquidity to the vamm",
        "returns": {
          "_0": "The max amount of liquidity per tick"
        }
      },
      "mint(address,int24,int24,uint128)": {
        "params": {
          "amount": "The amount of liquidity to mint",
          "recipient": "The address for which the liquidity will be created",
          "tickLower": "The lower tick of the position in which to add liquidity",
          "tickUpper": "The upper tick of the position in which to add liquidity"
        }
      },
      "owner()": {
        "details": "Returns the address of the current owner."
      },
      "paused()": {
        "details": "Returns true if the contract is paused, and false otherwise."
      },
      "protocolFees()": {
        "details": "Protocol fees will never exceed uint256"
      },
      "renounceOwnership()": {
        "details": "Leaves the contract without owner. It will not be possible to call `onlyOwner` functions anymore. Can only be called by the current owner. NOTE: Renouncing ownership will leave the contract without an owner, thereby removing any functionality that is only available to the owner."
      },
      "setFeeProtocol(uint8)": {
        "details": "the current protocol fee as a percentage of the swap fee taken on withdrawal"
      },
      "setIsAlpha(bool)": {
        "details": "if the VAMM is at the alpha state, mints can only be done via the periphery which in turn takes care of notional caps for the LPsthis function can only be called by the owner of the VAMM"
      },
      "swap((address,int256,uint160,int24,int24))": {
        "params": {
          "params": "SwapParams necessary to initiate an Interest Rate Swap"
        },
        "returns": {
          "cumulativeFeeIncurred": "Cumulative Fee Incurred",
          "fixedTokenDelta": "Fixed Token Delta",
          "variableTokenDelta": "Variable Token Delta"
        }
      },
      "tickSpacing()": {
        "details": "Ticks can only be used at multiples of this value, minimum of 1 and always positive e.g.: a tickSpacing of 3 means ticks can be initialized every 3rd tick, i.e., ..., -6, -3, 0, 3, 6, ... This value is an int24 to avoid casting even though it is always positive.",
        "returns": {
          "_0": "The tick spacing"
        }
      },
      "ticks(int24)": {
        "params": {
          "tick": "The tick to look up"
        },
        "returns": {
          "_0": "liquidityGross: the total amount of position liquidity that uses the vamm either as tick lower or tick upper, liquidityNet: how much liquidity changes when the vamm price crosses the tick, feeGrowthOutsideX128: the fee growth on the other side of the tick from the current tick in underlying token. i.e. if liquidityGross is greater than 0. In addition, these values are only relative."
        }
      },
      "transferOwnership(address)": {
        "details": "Transfers ownership of the contract to a new account (`newOwner`). Can only be called by the current owner."
      },
      "updateProtocolFees(uint256)": {
        "details": "can only be done via the collectProtocol function of the parent AMM of the vamm"
      },
      "upgradeTo(address)": {
        "details": "Upgrade the implementation of the proxy to `newImplementation`. Calls {_authorizeUpgrade}. Emits an {Upgraded} event."
      },
      "upgradeToAndCall(address,bytes)": {
        "details": "Upgrade the implementation of the proxy to `newImplementation`, and subsequently execute the function call encoded in `data`. Calls {_authorizeUpgrade}. Emits an {Upgraded} event."
      },
      "vammVars()": {
        "returns": {
          "_0": "The current VAMM Vars (see struct definition for semantics)"
        }
      },
      "variableTokenGrowthGlobalX128()": {
        "details": "This value can overflow the uint256"
      }
    },
    "stateVariables": {
      "MAX_FEE": {
        "details": "0.02 = 2% is the max fee as proportion of notional scaled by time to maturity (in wei fixed point notation 0.02 -> 2 * 10^16)"
      }
    },
    "version": 1
  },
  "userdoc": {
    "errors": {
      "CannotLiquidate()": [
        {
          "notice": "The position/trader needs to be below the liquidation threshold to be liquidated"
        }
      ],
      "CannotSettleBeforeMaturity()": [
        {
          "notice": "Positions and Traders cannot be settled before the applicable interest rate swap has matured"
        }
      ],
      "InvalidMarginDelta()": [
        {
          "notice": "Margin delta must not equal zero"
        }
      ],
      "MarginRequirementNotMet(int256,int24,int256,int256,uint256,int256)": [
        {
          "notice": "The resulting margin does not meet minimum requirements"
        }
      ],
      "MarginRequirementNotMetFCM(int256)": [
        {
          "notice": "The resulting margin does not meet minimum requirements"
        }
      ],
      "OnlyOwnerCanUpdatePosition()": [
        {
          "notice": "Only the position/trade owner can update the LP/Trader margin"
        }
      ],
      "PRBMathSD59x18__DivInputTooSmall()": [
        {
          "notice": "Emitted when one of the inputs is MIN_SD59x18."
        }
      ],
      "PRBMathSD59x18__DivOverflow(uint256)": [
        {
          "notice": "Emitted when one of the intermediary unsigned results overflows SD59x18."
        }
      ],
      "PRBMathSD59x18__FromIntOverflow(int256)": [
        {
          "notice": "Emitted when converting a basic integer to the fixed-point format overflows SD59x18."
        }
      ],
      "PRBMathSD59x18__FromIntUnderflow(int256)": [
        {
          "notice": "Emitted when converting a basic integer to the fixed-point format underflows SD59x18."
        }
      ],
      "PRBMathSD59x18__MulInputTooSmall()": [
        {
          "notice": "Emitted when one of the inputs is MIN_SD59x18."
        }
      ],
      "PRBMathSD59x18__MulOverflow(uint256)": [
        {
          "notice": "Emitted when the intermediary absolute result overflows SD59x18."
        }
      ],
      "PRBMathUD60x18__FromUintOverflow(uint256)": [
        {
          "notice": "Emitted when converting a basic integer to the fixed-point format format overflows UD60x18."
        }
      ],
      "PRBMath__MulDivFixedPointOverflow(uint256)": [
        {
          "notice": "Emitted when the result overflows uint256."
        }
      ],
      "PRBMath__MulDivOverflow(uint256,uint256)": [
        {
          "notice": "Emitted when the result overflows uint256."
        }
      ]
    },
    "kind": "user",
    "methods": {
      "burn(address,int24,int24,uint128)": {
        "notice": "removes liquidity given recipient/tickLower/tickUpper of the position"
      },
      "computeGrowthInside(int24,int24)": {
        "notice": "Computes the current fixed and variable token growth inside a given tick range given the current tick in the vamm"
      },
      "feeGrowthGlobalX128()": {
        "notice": "The fee growth collected per unit of liquidity for the entire life of the vamm"
      },
      "feeWad()": {
        "notice": "The vamm's fee (proportion) in wad"
      },
      "fixedTokenGrowthGlobalX128()": {
        "notice": "The fixed token growth accumulated per unit of liquidity for the entire life of the vamm"
      },
      "liquidity()": {
        "notice": "The currently in range liquidity available to the vamm"
      },
      "maxLiquidityPerTick()": {
        "notice": "The maximum amount of position liquidity that can use any tick in the range"
      },
      "mint(address,int24,int24,uint128)": {
        "notice": "Adds liquidity for the given recipient/tickLower/tickUpper position"
      },
      "protocolFees()": {
        "notice": "The amount underlying token that are owed to the protocol"
      },
      "setFeeProtocol(uint8)": {
        "notice": "Function that sets the feeProtocol of the vamm"
      },
      "setIsAlpha(bool)": {
        "notice": "Function that sets the _isAlpha state variable, if it is set to true the protocol is in the Alpha State"
      },
      "swap((address,int256,uint160,int24,int24))": {
        "notice": "Initiate an Interest Rate Swap"
      },
      "tickBitmap(int16)": {
        "notice": "Returns 256 packed tick initialized boolean values. See TickBitmap for more information"
      },
      "tickSpacing()": {
        "notice": "The vamm tick spacing"
      },
      "ticks(int24)": {
        "notice": "Look up information about a specific tick in the amm"
      },
      "updateProtocolFees(uint256)": {
        "notice": "Updates internal accounting to reflect a collection of protocol fees. The actual transfer of fees must happen separately in the AMM"
      },
      "variableTokenGrowthGlobalX128()": {
        "notice": "The variable token growth accumulated per unit of liquidity for the entire life of the vamm"
      }
    },
    "version": 1
  },
  "storageLayout": {
    "storage": [
      {
        "astId": 16130,
        "contract": "contracts/VAMM.sol:VAMM",
        "label": "rateOracle",
        "offset": 0,
        "slot": "0",
        "type": "t_contract(IRateOracle)13885"
      },
      {
        "astId": 16132,
        "contract": "contracts/VAMM.sol:VAMM",
        "label": "termStartTimestampWad",
        "offset": 0,
        "slot": "1",
        "type": "t_uint256"
      },
      {
        "astId": 16134,
        "contract": "contracts/VAMM.sol:VAMM",
        "label": "termEndTimestampWad",
        "offset": 0,
        "slot": "2",
        "type": "t_uint256"
      },
      {
        "astId": 16137,
        "contract": "contracts/VAMM.sol:VAMM",
        "label": "_marginEngine",
        "offset": 0,
        "slot": "3",
        "type": "t_contract(IMarginEngine)13002"
      },
      {
        "astId": 16139,
        "contract": "contracts/VAMM.sol:VAMM",
        "label": "_maxLiquidityPerTick",
        "offset": 0,
        "slot": "4",
        "type": "t_uint128"
      },
      {
        "astId": 16142,
        "contract": "contracts/VAMM.sol:VAMM",
        "label": "_factory",
        "offset": 0,
        "slot": "5",
        "type": "t_contract(IFactory)12610"
      },
      {
        "astId": 16144,
        "contract": "contracts/VAMM.sol:VAMM",
        "label": "_feeWad",
        "offset": 0,
        "slot": "6",
        "type": "t_uint256"
      },
      {
        "astId": 16146,
        "contract": "contracts/VAMM.sol:VAMM",
        "label": "_unlocked",
        "offset": 0,
        "slot": "7",
        "type": "t_bool"
      },
      {
        "astId": 16148,
        "contract": "contracts/VAMM.sol:VAMM",
        "label": "_liquidity",
        "offset": 1,
        "slot": "7",
        "type": "t_uint128"
      },
      {
        "astId": 16150,
        "contract": "contracts/VAMM.sol:VAMM",
        "label": "_feeGrowthGlobalX128",
        "offset": 0,
        "slot": "8",
        "type": "t_uint256"
      },
      {
        "astId": 16152,
        "contract": "contracts/VAMM.sol:VAMM",
        "label": "_protocolFees",
        "offset": 0,
        "slot": "9",
        "type": "t_uint256"
      },
      {
        "astId": 16154,
        "contract": "contracts/VAMM.sol:VAMM",
        "label": "_fixedTokenGrowthGlobalX128",
        "offset": 0,
        "slot": "10",
        "type": "t_int256"
      },
      {
        "astId": 16156,
        "contract": "contracts/VAMM.sol:VAMM",
        "label": "_variableTokenGrowthGlobalX128",
        "offset": 0,
        "slot": "11",
        "type": "t_int256"
      },
      {
        "astId": 16158,
        "contract": "contracts/VAMM.sol:VAMM",
        "label": "_tickSpacing",
        "offset": 0,
        "slot": "12",
        "type": "t_int24"
      },
      {
        "astId": 16163,
        "contract": "contracts/VAMM.sol:VAMM",
        "label": "_ticks",
        "offset": 0,
        "slot": "13",
        "type": "t_mapping(t_int24,t_struct(Info)11405_storage)"
      },
      {
        "astId": 16167,
        "contract": "contracts/VAMM.sol:VAMM",
        "label": "_tickBitmap",
        "offset": 0,
        "slot": "14",
        "type": "t_mapping(t_int16,t_uint256)"
      },
      {
        "astId": 16170,
        "contract": "contracts/VAMM.sol:VAMM",
        "label": "_vammVars",
        "offset": 0,
        "slot": "15",
        "type": "t_struct(VAMMVars)13220_storage"
      },
      {
        "astId": 16172,
        "contract": "contracts/VAMM.sol:VAMM",
        "label": "_isAlpha",
        "offset": 0,
        "slot": "16",
        "type": "t_bool"
      },
      {
        "astId": 16179,
        "contract": "contracts/VAMM.sol:VAMM",
        "label": "__gap",
        "offset": 0,
        "slot": "17",
        "type": "t_array(t_uint256)50_storage"
      },
      {
        "astId": 540,
        "contract": "contracts/VAMM.sol:VAMM",
        "label": "_initialized",
        "offset": 0,
        "slot": "67",
        "type": "t_bool"
      },
      {
        "astId": 543,
        "contract": "contracts/VAMM.sol:VAMM",
        "label": "_initializing",
        "offset": 1,
        "slot": "67",
        "type": "t_bool"
      },
      {
        "astId": 1119,
        "contract": "contracts/VAMM.sol:VAMM",
        "label": "__gap",
        "offset": 0,
        "slot": "68",
        "type": "t_array(t_uint256)50_storage"
      },
      {
        "astId": 10,
        "contract": "contracts/VAMM.sol:VAMM",
        "label": "_owner",
        "offset": 0,
        "slot": "118",
        "type": "t_address"
      },
      {
        "astId": 124,
        "contract": "contracts/VAMM.sol:VAMM",
        "label": "__gap",
        "offset": 0,
        "slot": "119",
        "type": "t_array(t_uint256)49_storage"
      },
      {
        "astId": 739,
        "contract": "contracts/VAMM.sol:VAMM",
        "label": "_paused",
        "offset": 0,
        "slot": "168",
        "type": "t_bool"
      },
      {
        "astId": 830,
        "contract": "contracts/VAMM.sol:VAMM",
        "label": "__gap",
        "offset": 0,
        "slot": "169",
        "type": "t_array(t_uint256)49_storage"
      },
      {
        "astId": 522,
        "contract": "contracts/VAMM.sol:VAMM",
        "label": "__gap",
        "offset": 0,
        "slot": "218",
        "type": "t_array(t_uint256)50_storage"
      },
      {
        "astId": 717,
        "contract": "contracts/VAMM.sol:VAMM",
        "label": "__gap",
        "offset": 0,
        "slot": "268",
        "type": "t_array(t_uint256)50_storage"
      }
    ],
    "types": {
      "t_address": {
        "encoding": "inplace",
        "label": "address",
        "numberOfBytes": "20"
      },
      "t_array(t_uint256)49_storage": {
        "base": "t_uint256",
        "encoding": "inplace",
        "label": "uint256[49]",
        "numberOfBytes": "1568"
      },
      "t_array(t_uint256)50_storage": {
        "base": "t_uint256",
        "encoding": "inplace",
        "label": "uint256[50]",
        "numberOfBytes": "1600"
      },
      "t_bool": {
        "encoding": "inplace",
        "label": "bool",
        "numberOfBytes": "1"
      },
      "t_contract(IFactory)12610": {
        "encoding": "inplace",
        "label": "contract IFactory",
        "numberOfBytes": "20"
      },
      "t_contract(IMarginEngine)13002": {
        "encoding": "inplace",
        "label": "contract IMarginEngine",
        "numberOfBytes": "20"
      },
      "t_contract(IRateOracle)13885": {
        "encoding": "inplace",
        "label": "contract IRateOracle",
        "numberOfBytes": "20"
      },
      "t_int128": {
        "encoding": "inplace",
        "label": "int128",
        "numberOfBytes": "16"
      },
      "t_int16": {
        "encoding": "inplace",
        "label": "int16",
        "numberOfBytes": "2"
      },
      "t_int24": {
        "encoding": "inplace",
        "label": "int24",
        "numberOfBytes": "3"
      },
      "t_int256": {
        "encoding": "inplace",
        "label": "int256",
        "numberOfBytes": "32"
      },
      "t_mapping(t_int16,t_uint256)": {
        "encoding": "mapping",
        "key": "t_int16",
        "label": "mapping(int16 => uint256)",
        "numberOfBytes": "32",
        "value": "t_uint256"
      },
      "t_mapping(t_int24,t_struct(Info)11405_storage)": {
        "encoding": "mapping",
        "key": "t_int24",
        "label": "mapping(int24 => struct Tick.Info)",
        "numberOfBytes": "32",
        "value": "t_struct(Info)11405_storage"
      },
      "t_struct(Info)11405_storage": {
        "encoding": "inplace",
        "label": "struct Tick.Info",
        "members": [
          {
            "astId": 11391,
            "contract": "contracts/VAMM.sol:VAMM",
            "label": "liquidityGross",
            "offset": 0,
            "slot": "0",
            "type": "t_uint128"
          },
          {
            "astId": 11394,
            "contract": "contracts/VAMM.sol:VAMM",
            "label": "liquidityNet",
            "offset": 16,
            "slot": "0",
            "type": "t_int128"
          },
          {
            "astId": 11397,
            "contract": "contracts/VAMM.sol:VAMM",
            "label": "fixedTokenGrowthOutsideX128",
            "offset": 0,
            "slot": "1",
            "type": "t_int256"
          },
          {
            "astId": 11399,
            "contract": "contracts/VAMM.sol:VAMM",
            "label": "variableTokenGrowthOutsideX128",
            "offset": 0,
            "slot": "2",
            "type": "t_int256"
          },
          {
            "astId": 11401,
            "contract": "contracts/VAMM.sol:VAMM",
            "label": "feeGrowthOutsideX128",
            "offset": 0,
            "slot": "3",
            "type": "t_uint256"
          },
          {
            "astId": 11404,
            "contract": "contracts/VAMM.sol:VAMM",
            "label": "initialized",
            "offset": 0,
            "slot": "4",
            "type": "t_bool"
          }
        ],
        "numberOfBytes": "160"
      },
      "t_struct(VAMMVars)13220_storage": {
        "encoding": "inplace",
        "label": "struct IVAMM.VAMMVars",
        "members": [
          {
            "astId": 13214,
            "contract": "contracts/VAMM.sol:VAMM",
            "label": "sqrtPriceX96",
            "offset": 0,
            "slot": "0",
            "type": "t_uint160"
          },
          {
            "astId": 13217,
            "contract": "contracts/VAMM.sol:VAMM",
            "label": "tick",
            "offset": 20,
            "slot": "0",
            "type": "t_int24"
          },
          {
            "astId": 13219,
            "contract": "contracts/VAMM.sol:VAMM",
            "label": "feeProtocol",
            "offset": 23,
            "slot": "0",
            "type": "t_uint8"
          }
        ],
        "numberOfBytes": "32"
      },
      "t_uint128": {
        "encoding": "inplace",
        "label": "uint128",
        "numberOfBytes": "16"
      },
      "t_uint160": {
        "encoding": "inplace",
        "label": "uint160",
        "numberOfBytes": "20"
      },
      "t_uint256": {
        "encoding": "inplace",
        "label": "uint256",
        "numberOfBytes": "32"
      },
      "t_uint8": {
        "encoding": "inplace",
        "label": "uint8",
        "numberOfBytes": "1"
      }
    }
  }
}